:020000040800F2
:10000000B029002045010008679B00083142000824
:10001000499B0008C905000809E700080000000026
:10002000000000000000000000000000D1D3000824
:100030008528000800000000D5C70008B9DE0008C8
:100040005F0100085F0100085F0100088DCC000817
:100050005F0100085F010008B1370008C9380008D7
:100060005F0100085F0100085F0100085F010008F0
:100070005F0100085F0100085F0100085F010008E0
:100080005F0100085F0100085F0100085F010008D0
:100090005F0100085F0100085F010008F9380008EF
:1000A0005F0100085F0100085F0100085F010008B0
:1000B0005F01000879DF00085F0100085F010008A8
:1000C0005F0100085F0100085F0100085F01000890
:1000D0005F010008DDE2000825E30008CDE3000829
:1000E000153800085F0100085F0100085F01000883
:1000F0005F0100085F0100085F0100085F01000860
:100100005F0100085F0100085F0100085F0100084F
:10011000ADE20008D9E200085F0100085F010008B5
:100120005F0100085F0100085F0100085F0100082F
:10013000DFF80CD000F070F800480047F507010820
:10014000B02900200648804706480047FEE7FEE742
:10015000FEE7FEE7FEE7FEE7FEE7FEE7FEE7FEE777
:10016000BDDE00083101000840EA01039B0703D00F
:1001700009E008C9121F08C0042AFAD203E011F8E6
:10018000013B00F8013B521EF9D2704710B5002226
:1001900000E0521C835C8C5CA34201D1002BF8D19F
:1001A000D8B2E1B2401A10BD70B50F4D00B9286841
:1001B000002412E00A4602E09E4203D0521C13784B
:1001C000002BF9D1DAB2224305D02BB124B10021A2
:1001D00000F8011B04E00446401C0678002EE9D11B
:1001E0002860204670BD0000E817002030B50B469F
:1001F000014600202022012409E021FA02F59D4257
:1002000005D303FA02F5491B04FA02F52844151E2A
:10021000A2F10102F1DC30BD064C074D06E0E068BA
:1002200040F0010394E8070098471034AC42F6D33D
:10023000FFF782FF9C6C0108BC6C010870B501EBF4
:10024000020410F8015B15F0070301D110F8013B1F
:100250002A1106D110F8012B03E010F8016B01F808
:10026000016B5B1EF9D12B0705D40023521E0FD45E
:1002700001F8013BFAE710F8013B02F10202A1EBA1
:10028000030303E013F8015B01F8015B521EF9D58B
:10029000A142D6D3002070BD10B500247F4801884C
:1002A0007F480078401E00EBC0007E4A22F8101004
:1002B0007A4841887A480078401E00EBC00002EB83
:1002C000400041807548818875480078401E00EBE9
:1002D000C00002EB400081807048C18870480078FF
:1002E000401E00EBC00002EB4000C1806B488088DC
:1002F0006A490988401A81B269480078401E00EBBB
:10030000C00002EB400001816448C088634949880D
:10031000401A81B262480078401E00EBC00002EB38
:100320004000418160480078401E81B25C480078FE
:10033000401E00EBC00002EB40008181584801786C
:100340000078401E00EBC00002EB4000C18100219C
:1003500053480078401E00EBC00002EB40000182D1
:100360004F48047808E0002004EBC4014D4A02EB3A
:100370004101C881601CC4B2082CF4DB002463E096
:1003800004EBC400474931F8100004EBC401474AAC
:1003900022F8110004EBC400424901EB4000408800
:1003A00004EBC40102EB4101488004EBC4003D4969
:1003B00001EB4000808804EBC40102EB410188801E
:1003C00004EBC400374901EB4000C08804EBC401D2
:1003D00002EB4101C88004EBC400324901EB40004C
:1003E000008904EBC40102EB4101088104EBC40065
:1003F0002C4901EB4000408904EBC40102EB4101B0
:10040000488104EBC400274901EB4000808904EBDC
:10041000C40102EB4101888104EBC400214901EBD6
:100420004000C08904EBC40102EB4101C88104EB28
:10043000C4001C4901EB4000008A04EBC40102EB3C
:1004400041010882601CC4B2082C99DB184800786E
:10045000012820D100240FE0164830F81400164976
:1004600021F814001348103030F8141012481030DE
:1004700020F81410601CC4B2082CEDDB0F48007883
:100480000F4908700F4800780F49087000F09EF877
:100490000220074908700EF001FE10BD5A2000200E
:1004A000C11600206C200020CB1600208A1E0020E0
:1004B0008417002090170020B01700207C17002020
:1004C0007E1700207D1700207F17002010B5012027
:1004D0000EF000FD05F062FA0EF077FC10BD10B5CD
:1004E00001200CF0BDF900200CF0BAF910BD00009D
:1004F00001460020044A10884FF67F42104008430E
:10050000014A1080704700002C6C004008B501467D
:100510000020009003480090009808440090009844
:10052000008808BD006C0040014908607047000069
:1005300000860D4208B500220092044A0092009AFB
:1005400002440092009A116008BD0000006C004057
:1005500070B506460C46002516480078002804DDD4
:1005600014480078401E1349087000201249087092
:10057000304611F081FF002503E020200EF02AFC18
:100580006D1CA542F9DB00200C490A4A12788854F8
:1005900030460EF007FC0AA011F008FB094800786D
:1005A000502802D005F07EFC10B1044808F008FC89
:1005B00070BD00003D0000203C000020701C0020A9
:1005C0005F000000D516002000BFFEE7002012E00B
:1005D00020B920490988204A11800AE0411E1E4A9C
:1005E00032F811101B4A32F8102011441A4A22F82E
:1005F0001010411CC8B2194909788842E8DB411E35
:10060000154A32F81110164A1180002016E020B960
:100610001049098A104A11820EE0411E0E4A10321A
:1006200032F811200B49103131F8101011448AB200
:100630000949103121F81020411CC8B20949097834
:100640008842E4DB411E044A103232F81110064A97
:1006500011807047B0170020902500207F170020E0
:10066000801700207E1700208217002010B50E4B47
:100670001B88834213DB0C4B1B88834203D10A4B3C
:100680005B888B420BDB084B1B8883420AD1064BED
:100690005B888B4206D1044B9B88934202DC01238A
:1006A000024C236010BD0000CE000020A8160020E0
:1006B00010B586B012A207CA03AB07C30020009092
:1006C000019002900A2203A9F12003F006FF052001
:1006D0000EF000FC0A226946F12003F0C6FE002459
:1006E00009E003A8005D1DF80410884202D0002034
:1006F00006B010BD641C0A2CF3DB0120F8E70000F3
:100700000102030405060708090A000010B50C4899
:10071000007808B9002010BD09480178094811F097
:1007200093FE044605F044F907480068844202D06D
:100730000648844201D10120EDE70020EBE70000EC
:100740003D000020701C002098160020192F080082
:100750002DE9F84F6748007810B90020BDE8F88F00
:100760006548006842F21071B0FBF1F201FB12041F
:1007700060480178614811F067FE074605F018F9F6
:10078000200140EAA4201FFA80F85D480078204448
:100790005B49097908445A49097A08445849097B50
:1007A00008448002564909682144554A5268114458
:1007B000534A92681144524AD268114440EA2110C7
:1007C0001FFA80F9600140EA64201FFA80FB600292
:1007D00040EA641080B200904A48B7FBF0F042F261
:1007E0001071B0FBF1F201FB120A4648B7FBF0F1C1
:1007F00000FB11760CF02EFA43490968884224D296
:100800004248007808B34248006886421DD14148FA
:1008100000780FF09BFF00203F49087005223F49F8
:10082000D3200FF0ADFF3D48007800063B494978E2
:1008300000EB01403949897800EB01203749C9783C
:10084000084431490860012088E788EA0900C0F3BC
:100850000D00B84202D03248874233D12B4800788D
:1008600000282FD00CF0F6F92E490978C1EB0111C0
:100870008900C1EB011100EB8105280E27490870A2
:10088000280C4870280A8870CD700522D3200FF0FC
:1008900096FF300E24490870300C4870300A88707A
:1008A000CE700522EC200FF08AFF1948066016482A
:1008B0000560184800780FF049FF002016490870BD
:1008C00001204BE7A82F12D10CF0C4F91749097881
:1008D000C1EB011100EB81050B4805600D48007864
:1008E0000FF034FF00200C490870012036E700208B
:1008F00034E700003D000020AC160020701C0020F2
:10090000501C0020A08601008816002080160020C0
:1009100094160020BC1600208716002082160020A6
:1009200010C21A1381160020901600207F16002096
:100930002DE9F0411F48007810B90020BDE8F08192
:100940001D48006842F21071B0FBF1F201FB120584
:1009500018480178194811F077FD0446280140EA4B
:10096000A52087B2A80240EA251086B287EA0600D1
:10097000C0F30D00A04202D01148844207D11148B3
:100980001149086036200DF0DBFF0120D6E70E4844
:1009900000680C4988420BD00B480068844207D19C
:1009A00008460949086036200DF0CAFF0120C5E756
:1009B0000020C3E73D000020AC160020701C002082
:1009C000A966320340420F006416002005480078F3
:1009D000522802D0532802D100BF012070470020C6
:1009E000FCE70000D516002010B50446224606A1FB
:1009F00009480EF009F808480DF03AFE0DF09EFB8C
:100A000006A00DF035FE10BD47502053444D49203F
:100A100025640D0A00000000FC20002047502053F0
:100A2000444D4920300D0A0010B50821284803F034
:100A30007BFB38B10121264803F076FB10B1012081
:100A40002449087023480078002833D00821204822
:100A500003F06AFB70BB01211D4803F065FB48BB36
:100A60001D48007888B100201A4908701B4800789A
:100A700018B9FF201949087007E018480078401E8F
:100A8000164908700020164908701648007888B189
:100A900000201049087011480078401C0F49087068
:100AA00001200F4908700D480078FF2802D100206E
:100AB0000A4908700821064803F036FB0649087009
:100AC0000121034803F030FB0649087010BD000007
:100AD000001401403616002034160020B301002017
:100AE000B20100203516002010B5ADF5007D2B4871
:100AF00000682B49B0FBF1F201FB120456208DF87F
:100B0000000031208DF801002E208DF802003020E9
:100B10008DF803002E208DF8040030208DF805009C
:100B20002D208DF8060000208DF807001DA003F091
:100B30001BFB28A003F018FB28A003F015FB2E4A8E
:100B40002EA103A80DF060FF03A803F00DFB31A058
:100B500003F00AFB224636A103A80DF055FF03A8B7
:100B600003F002FB38A003F0FFFA3F4B6A463FA1B7
:100B700003A80DF049FF03A803F0F6FA41A003F023
:100B8000F3FA42A003F0F0FA46A003F0EDFA47A012
:100B900003F0EAFA0DF5007D10BD0000AC16002050
:100BA00040420F0043424F4628302C302C32323026
:100BB0002C3137362C312C35293B43424F462830D7
:100BC0002C33302C3232302C3134352C312C32292C
:100BD0003B0000005342432832293B004453313646
:100BE0002832332C34362C27BBFAC6F7D0CDBAC501
:100BF0003A272C30293B0000600000204453313656
:100C0000283130362C34382C272573272C30293BBB
:100C100000000000445331362832332C37392C275A
:100C2000BBFAC6F74944BAC53A272C30293B000025
:100C300044533136283130362C37392C2725642758
:100C40002C30293B00000000445331362832332C2D
:100C50003131312C27C8EDBCFEB0E6B1BE3A2020C0
:100C6000272C30293B0000002B2B01084453313640
:100C7000283130362C3131312C2725732573272C20
:100C800030293B005342432835293B004453313639
:100C9000283139392C3135342C275032272C312941
:100CA0003B0000005342432837293B000D0A000057
:100CB00010B50246A2F534530F3B04D0A3F50063F0
:100CC000673B4ED126E0652904D066290CD0672900
:100CD0001ED113E0002004E0354B1B5C354C23543F
:100CE000401C0728F8DB13E0002004E0304B1B5CBD
:100CF000314C2354401C0728F8DB09E0002004E0B5
:100D00002B4B1B5C2D4C2354401C0728F8DB00BFE9
:100D100000BF4AE0652904D066290CD067291ED19E
:100D200013E0002004E0264B1B5C224C2354401CA3
:100D30000728F8DB13E0002004E0214B1B5C1E4C6D
:100D40002354401C0728F8DB09E0002004E01C4B7A
:100D50001B5C1A4C2354401C0728F8DB00BF00BF63
:100D600023E0652904D066290BD067291BD111E047
:100D7000002003E000230F4C2354401C0728F9DB1C
:100D800011E0002003E000230B4C2354401C0728F3
:100D9000F9DB08E0002003E00023084C2354401C4A
:100DA0000728F9DB00BF00BF00BF00BF10BD000077
:100DB0005A3A0108AD000020B4000020BB0000201A
:100DC000613A01080146062936D2DFE801F0030D39
:100DD0003517212B002004E0194A125C194B1A54D4
:100DE000401C1528F8DB28E0002004E0164A125CBD
:100DF000144B1A54401C1528F8DB1EE0002004E0B8
:100E0000124A125C0F4B1A54401C1528F8DB14E0F0
:100E1000002004E00E4A125C0A4B1A54401C1528AC
:100E2000F8DB0AE0002004E00A4A125C054B1A5481
:100E3000401C1528F8DB00E000BF00BF7047000031
:100E4000FC2D010885000020F72B01080C2C01085F
:100E5000212C0108362C010870B505460E4628786D
:100E6000302804D1012E02D104F050FD0CE0002402
:100E700003E0285D05490855641CB442F9DB0020F5
:100E80000249085502F0C2FE70BD0000600000205B
:100E900010B524480078502802D005F003F820B19E
:100EA00004219420FFF754FB3AE01E4800786228A2
:100EB0001DD00CDC5F2824D004DC402822D0502830
:100EC0002CD126E060281ED0612827D11CE0643890
:100ED000052823D2DFE800F006030405100000BF58
:100EE00000BF00BF05219120FFF732FB17E00B2167
:100EF0009120FFF72DFB12E00A219120FFF728FB3C
:100F00000DE000BF00BF00BF06219120FFF720FBCE
:100F100005E002219120FFF71BFB00E000BF00BFAE
:100F200010BD0000D516002010B504460C48047012
:100F3000007800EB400101EBC0000A4901EB8000A2
:100F4000806A58B10648007800EB400202EBC0000E
:100F50000A4602EB8000816A2046884710BD0000E7
:100F6000D5160020B401002010B51C4800782228B6
:100F700003D01A4800783A2810D11948007804287C
:100F800005DA17480078401C1549087002E0012076
:100F9000134908701148007806F0D6FF0F48007812
:100FA00000EB400101EBC0000E4901EB8000407EE8
:100FB0000A49097888420FD00848007800EB4001C0
:100FC00001EBC000074901EB8000407E0349087037
:100FD00008460078FFF7A8FF10BD0000D5160020D6
:100FE000CB160020B401002010B504F0B1FF00289A
:100FF0007BD004F0DDFC734800782B2848D016DC49
:10100000A0F10A00212871D2DFE800F039464B50E8
:10101000556162636465666768AFAF3AAF7EAF796A
:1010200082868A8EAFAFAFAFAF7DAFAF3E003928BB
:101030004CD00BDCA0F12E000B28E4D2DFE800F04E
:101040002D32373C9540414243444500712876D0CB
:101050000CDC6E2870D004DC40287ED06C2845D192
:101060007FE06F2869D070287FD167E0722867D051
:10107000732866D0742868D0752876D169E000BFDF
:1010800051A003F071F871E05DA003F06DF86DE020
:1010900062A003F069F869E000BF67A003F064F89C
:1010A00064E000BF6BA003F05FF85FE000BF69A0E1
:1010B00003F05AF85AE000BF66A003F055F855E077
:1010C00000BF00BF00BF00BF00BF00BF00BF00BF28
:1010D00000BF00BF00BF00BF00BF00BF6548008861
:1010E00065490988884206DC01E045E03DE063A0EF
:1010F00003F03AF802E061A003F036F836E067A0AA
:1011000003F032F832E000BF6BA003F02DF82DE0C1
:1011100070A003F029F829E077A003F025F825E076
:101120007EA003F021F821E085A003F01DF81DE06A
:1011300005E001E011E000E000BF00BF00BF00BF1C
:1011400000BF88A003F010F810E094A003F00CF8A2
:101150000CE099A003F008F808E09EA003F004F862
:1011600004E0A3A003F000F800E000BF00BF1548B2
:101170000078FFF7D9FE23E004F01AFC114800784C
:101180003D2803D00F4800783E2807D104209F490E
:1011900008700AF0C1FD00209C49087009480078D9
:1011A00000EB400101EBC000994901EB8000C07EDB
:1011B0000449087008460078FFF7B6FE08F08EFD77
:1011C00010BD0000D516002043424F46283134356B
:1011D0002C38302C3138352C3130302C332C313503
:1011E000293B43424F58283134352C38302C313884
:1011F000352C3130302C332C30293B0D0A000000C7
:1012000043424F462836362C36362C39342C383962
:101210002C332C3135293B0D0A00000043424F4648
:10122000283132362C36362C3135342C38392C33A3
:101230002C3135293B0D0A0043424F4628313436C4
:101240002C36392C3138342C38372C332C31352985
:101250003B0D0A0043424F46283137312C3134369A
:101260002C3139342C3136392C312C3135293B0D88
:101270000A000000CC160020C416002043424F464E
:10128000283133312C3132362C3230342C31343950
:101290002C312C3135293B0D0A00000043424F46CA
:1012A000283134362C38312C3138342C39392C3320
:1012B0002C3135293B0D0A0043424F46283133314A
:1012C0002C38312C3135392C39392C332C31352906
:1012D0003B0D0A005342432837293B43424F4628DF
:1012E00036382C36332C3130362C38322C312C37E2
:1012F000293B0D0A000000005342432837293B4395
:10130000424F46283137302C36332C3230382C3887
:10131000322C312C37293B0D0A0000005342432860
:1013200037293B43424F462836382C39332C31304D
:10133000362C3131322C312C37293B0D0A0000007C
:101340005342432837293B43424F46283137302CFC
:1013500039332C3230382C3130322C312C37293B78
:101360000D0A000043424F46283132352C38302CCC
:101370003230302C3130302C332C3135293B434244
:101380004F58283132352C38302C3230302C313017
:10139000302C332C30293B0D0A00000043424F46CD
:1013A000283132352C36322C3230302C38322C3336
:1013B0002C37293B0D0A000043424F462831323575
:1013C0002C39372C3230302C3131372C332C372913
:1013D0003B0D0A0043424F46283133302C37392C1D
:1013E0003230302C39392C332C37293B0D0A000090
:1013F00043424F46283130352C37302C3136352C8E
:1014000038362C332C37293B0D0A0000D11600202A
:10141000B401002031B50024684608F037FC9DF87F
:1014200000400CB1092C00DB38BD104800782228A0
:1014300010D03A280FD03D2802D03E280ED104E02B
:101440000B4804700AF068FC08E00A4804700AF0CF
:1014500063FC03E000BF0848047000BF00BF0348FE
:10146000007806F071FD00BFDEE70000D516002011
:10147000D0160020D1160020CB16002010B504F0A5
:1014800097FA0DF0A2FC02480078FFF74DFD10BD61
:10149000D516002070B50024FB480578022004F022
:1014A000BDFA00B170BDF8480078552804D0562820
:1014B00003D0572807D101E000BF00BF0CF0D2FCD9
:1014C000FFF792FDEEE7F0480078312853D019DCA1
:1014D000A0F10A00272871D2DFE800F0534A4E4FEE
:1014E00050FEFEFEFEFEFEFEFE74FE54FE3DFE3B82
:1014F0003E3F40417672FEFEFE3C73FE5152FEFEC0
:10150000494B4C006A287AD018DC45282CD00CDCDA
:1015100042282AD004DC3A2855D040284ED11FE07A
:1015200043281ED04428F9D11CE046281BD050285F
:1015300066D053281AD06928F0D187E06B380B2881
:10154000C9D2DFE800F085A7C96061868788898AEB
:10155000620000BF00BF00BF00BF00BF00BF00BFF0
:1015600000BF00BF00BF00BF00BF00BF00BF00BF83
:1015700000BF00BF00BF00BF00BF00BF00BF00BF73
:1015800000BF00BFC048007800EB400101EBC00085
:10159000BE4901EB8000C06988B1BB48007800EB10
:1015A000400101EBC000B94901EB80000022C36992
:1015B000B54801780420984708B973E78CE08CE0BF
:1015C00000BF00BF00BF00BFAF48007800EB400184
:1015D00001EBC000AD4901EB8000C06970B1AA48C1
:1015E000007800EB400101EBC000A84901EB80004E
:1015F0000022C369A4480178042098476DE026E0E2
:101600000DF054FC00BF00BF00BF9F48007800EB06
:10161000400101EBC0009D4901EB8000C069A0B111
:101620009948007800EB400101EBC000974901EBBD
:1016300080000022C369944801780420984700B9CB
:1016400030E76D20904908702CE746E000BF00BFEE
:1016500000BF00BF00BF00BF00BF8B48007800EB99
:10166000400101EBC000894901EB8000C06980B1F5
:101670008548007800EB400101EBC000834901EB95
:1016800080000022C369804801780420984700B98F
:1016900008E722E07C48007800EB400101EBC00045
:1016A0007A4901EB8000C069A8B17748007800EB67
:1016B000400101EBC000754901EB80000022C369C5
:1016C000714801780420984700B9EBE66E4800782D
:1016D000FFF72AFCE6E600E000BF00BF04F0E2FBF3
:1016E000D8B16948007800EB400101EBC0006749C0
:1016F00001EB8000C06980B16348007800EB4001D5
:1017000001EBC000614901EB80000022C3695E4823
:1017100001780420984700B9C4E65B48007800EBE4
:10172000400101EBC000594901EB8000807E564921
:10173000097888427BD054480078092806D154485B
:10174000007818B10A2050490870B6E14E48007878
:10175000182806D14E48007818B119204A49087057
:10176000ABE1494800782E282ED14A48008802284B
:1017700003D12F20444908709FE146480088032880
:1017800003D130204049087097E14248008804287E
:1017900003D131203C4908708FE101203E49088087
:1017A0003E4908803E49088000203E49088036486E
:1017B000007800EB400101EBC000344901EB8000F0
:1017C000807E3149087078E12F4800780B282FD1AE
:1017D00030480088022803D10C202B4908706CE1A6
:1017E0002C480088032803D10D202749087064E1A4
:1017F00028480088042803D10E20234908705CE1A2
:1018000001202549088025490880254908800020B5
:10181000244908801C48007800EB400101EBC0001F
:101820001A4901EB8000807E1749087045E145E1C7
:10183000154800782F2815D11B480078012808D1B9
:1018400033201149087016480088401C144908804C
:1018500033E134200C49087011480088401C1049BD
:1018600008802AE108480078302828D10E480078FE
:1018700001281BD135200449087009480088401C04
:101880000749088019E10000D5160020B4010020A6
:10189000C3160020C8160020C4160020C61600205B
:1018A000CC160020CE160020CA16002036208B4908
:1018B00008708B480088401C89490880FDE08748F3
:1018C0000078312822D187480078012808D13720B4
:1018D0008249087082480088401C81490880ECE0F9
:1018E00080480078022808D138207C4908707C485C
:1018F0000088401C7A490880DFE039207749087069
:1019000077480088401C76490880D6E07348007804
:101910000C2815D173480078012808D110206F4990
:1019200008706F480088401C6D490880C5E0112090
:101930006A4908706A480088401C69490880BCE010
:10194000664800780D2815D166480078012808D12E
:1019500012206249087062480088401C6049088073
:10196000ABE013205D4908705D480088401C5C496D
:101970000880A2E0594800780E2822D15948007802
:10198000012808D114205549087055480088401C8A
:101990005349088091E053480078022808D1152067
:1019A0004E4908704E480088401C4D49088084E02C
:1019B00016204A4908704A480088401C4849088057
:1019C0007BE046480078242830D1474800784749D2
:1019D0000978884208DA44480078401C4249087077
:1019E0001E203E49087068E00BF0F4FC01214048DD
:1019F0000078401E3F4A11543D4A1278521E3D4B1A
:101A0000995C3B4A1278521EB92303EB42000CF05A
:101A100067FF3248007800EB400101EBC000364917
:101A200001EB8000807E2D49087046E004F03AFA10
:101A300048B32B48008831490988884205DA28488C
:101A40000088401C2649088037E02D4800882D4931
:101A5000098888420ADA22480088401C2049088008
:101A600027480088401C2649088026E01B4800784B
:101A700000EB400101EBC0001F4901EB8000807EBC
:101A80001649087019E0154800781B2809D1184834
:101A90000078401E1749085C18B11C200F490870D7
:101AA0000BE00E48007800EB400101EBC00012494A
:101AB00001EB8000807E0949087001240748007806
:101AC00028B91148006810B9FFF7D8FCEAE40348C8
:101AD0000078FFF729FA00BFE4E40000D5160020E3
:101AE000CC160020CA160020C1160020C016002007
:101AF000C2160020801E0020B4010020C416002061
:101B0000CE160020C6160020A816002010B50DF035
:101B10005CF910480078022808D10F4980200DF0A8
:101B200041F90EA190200DF03DF90BE00948007835
:101B3000012807D10F4980200DF034F907A190202A
:101B40000DF030F94FF47A700DF002FAFFF74CFA0D
:101B500010BD0000BA1600203237010820202020D6
:101B60002020202020202020202020202020202075
:101B7000000000004537010810B50DF026F91148A6
:101B80000078022808D1104980200DF00BF90FA130
:101B900090200DF007F90BE00A480078012807D1E2
:101BA000104980200DF0FEF808A190200DF0FAF801
:101BB0004FF47A700DF0CCF908200B490870FFF74C
:101BC00013FA10BDBA160020323701082020202059
:101BD0002020202020202020202020202020202005
:101BE0000000000045370108D516002037B50D4626
:101BF0001446684608F04AF800B93EBD012C14D1DD
:101C00000020704908709DF800003030C1B26D4866
:101C100002780078401C6B4B18706B488154002090
:101C200069491A461278885417E066480078A0423D
:101C300013DA6648007880B99DF800003030C1B2F0
:101C4000604802780078401C5E4B18705E488154F2
:101C500000205D491A46127888545A480078A042FC
:101C600002D1012059490870594800781E282FD008
:101C7000574800781F282BD055480078202827D0B7
:101C800053480078212823D05148007850281FD08D
:101C90004F4800782E281BD04D4800780B2817D0CD
:101CA0004B4800782F2813D04948007830280FD0AF
:101CB0004748007831280BD0454800780C2807D0D9
:101CC000434800780D2803D0414800780E2803D1FE
:101CD0003D4807F075F873E03D4800781D286AD04C
:101CE0003B480078272866D0394800781B2862D006
:101CF0003748007840285ED03548007843285AD0CD
:101D000033480078442856D031480078462852D0CD
:101D10002F48007845284ED02D4800782A284AD0F0
:101D20002B4800782B2846D0294800780A2842D032
:101D30002748007819283ED02548007869283AD0ED
:101D4000234800786A2836D0214800786B2832D0A2
:101D50001F4800786C282ED01D4800786E282AD0A5
:101D60001B4800786F2826D019480078702822D0A8
:101D70001748007871281ED01548007872281AD0AC
:101D800013480078732816D011480078742812D0B0
:101D90000F48007875280ED00D48007868280AD0C2
:101DA0000B480078642806D009480078632802D0E0
:101DB00004F078F820B103480178034805F012FEDA
:101DC00000BF1AE73D000020701C00203C000020EE
:101DD000D516002000B5FFB03D480078401C3C49B6
:101DE0000870084600783C2825D100200870394842
:101DF0000078401C37490870084600783C281AD102
:101E00000020087034480078401C334908700846A8
:101E1000007818280FD10020087030480078401C46
:101E20002E49087008460078642190FBF1F201FB0E
:101E300012002A4908702A480078012813D1852108
:101E40002648007801F0A4FB90212348007801F097
:101E50009FFB92211F48007801F09AFB94211C48B7
:101E6000007801F095FB1E48007810B101282BD1B5
:101E700000E000BF1B48007858B11BA002F074F9C5
:101E80001FA002F071F920A002F06EF900201549A0
:101E900008701BA002F068F90D4800780D49097818
:101EA000CDE900100C4803780C4802781DA102A867
:101EB0000CF0AAFD02A802F057F925A002F054F98F
:101EC00014200DF045F800E000BF00BF7FB000BD5A
:101ED0005E0000205D0000205C0000205B00002010
:101EE000D51600205A00002043424F4628302C3798
:101EF000302C3232302C3134372C352C38293B0001
:101F00005342432838293B004453313628362C3776
:101F1000352C27BFAABBFACAB1BCE43A272C30291A
:101F20003B000000445331362834362C3130302CFD
:101F30002725303264C8D525303264CAB125303205
:101F400064B7D625303264C3EB272C30293B000020
:101F50000D0A000010B51C480078222803D01A484A
:101F600000783A2811D119480078012805DD174872
:101F70000078401E1549087002E0042013490870DB
:101F80001148007805F0E0FF1DE00F48007800EBF5
:101F9000400101EBC0000E4901EB8000007E0A49C0
:101FA000097888420FD00848007800EB400101EB27
:101FB000C000074901EB8000007E03490870084615
:101FC0000078FEF7B1FF10BDD5160020CB1600201B
:101FD000B401002011B59BB0002001901BA807F0B0
:101FE00055FE08B91CB010BDBE48C069042848DAC7
:101FF000BC4800684FF47A7190FBF1F0C0B28DF8E4
:102000000400B8480068642190FBF1F00A2190FBBD
:10201000F1F201FB1200C0B28DF80500B148006872
:1020200090FBF1F090FBF1F201FB1200C0B28DF8D1
:102030000600AC48006890FBF1F201FB1200C0B250
:102040008DF807009DF86C00A649C96901AA505493
:102050009DF804004FF47A7148439DF8051001EB98
:10206000C10202EB011100EB81009DF8061001EBAB
:10207000810100EB41009DF8071008449949086070
:1020800062E09848C06906282FDA964840680A211D
:1020900090FBF1F0C0B28DF804009248406890FBCC
:1020A000F1F201FB1200C0B28DF805009DF86C1032
:1020B0008C48C069001F01AA11549DF805009DF8C5
:1020C000041001EB810100EB41008649486008469D
:1020D00040680C2802DD0C20486035E081484068EB
:1020E00058BB01207F4948602EE07E4880680A2165
:1020F00090FBF1F0C0B28DF804007A48806890FB44
:10210000F1F201FB1200C0B28DF805009DF86C10D1
:102110007448C069801F01AA11549DF805009DF8FC
:10212000041001EB810100EB41006E498860084614
:1021300080681F2802DD1F20886005E069488068EC
:1021400010B90120674988606649C969481CC117F0
:1021500000EB5171C910A0EBC101624AD16162A0CC
:1021600002F002F85F48806800905E48436860A112
:10217000026802A80CF048FC02A801F0F5FF5948DB
:10218000C069012815D162A001F0EEFF5548006832
:10219000642190FBF1F00A2190FBF1F201FB1204A3
:1021A00022465DA102A80CF02FFC02A801F0DCFF82
:1021B00087E04C48C069022815D155A001F0D4FF32
:1021C000484800680A2190FBF1F0642190FBF1F28D
:1021D00001FB1204224656A102A80CF015FC02A82D
:1021E00001F0C2FF6DE03F48C069032812D148A04A
:1021F00001F0BAFF3B4800680A2190FBF1F201FBB5
:102200001204224650A102A80CF0FEFB02A801F025
:10221000ABFF56E03348C069042810D13CA001F060
:10222000A3FF304840680A2190FBF1F422464CA1FC
:1022300002A80CF0E9FB02A801F096FF41E0294852
:10224000C069052812D132A001F08EFF25484068F0
:102250000A2190FBF1F201FB1204224646A102A8DA
:102260000CF0D2FB02A801F07FFF2AE01D48C069F4
:10227000062810D126A001F077FF1A4880680A21AD
:1022800090FBF1F4224642A102A80CF0BDFB02A88B
:1022900001F06AFF15E01348C069072811D11CA09E
:1022A00001F062FF0F4880680A2190FBF1F201FB08
:1022B000120422463CA102A80CF0A6FB02A801F0E1
:1022C00053FF3FA001F050FF9DF86C203EA102A8F3
:1022D0000CF09AFB02A801F047FF41A001F044FF77
:1022E00000BF7FE6601E00205342432835293B0093
:1022F000445331362839302C36322C27253034647B
:102300002D253032642D25303264272C30293B00B6
:102310005342432836293B00445331362839382C60
:1023200036322C272564272C30293B0D0A0000006B
:1023300044533136283130362C36322C2725642749
:102340002C30293B0D0A00004453313628313134FA
:102350002C36322C272564272C30293B0D0A00000F
:1023600044533136283133302C36322C272564271C
:102370002C30293B0D0A00004453313628313338C4
:102380002C36322C272564272C30293B0D0A0000DF
:1023900044533136283135342C36322C27256427E6
:1023A0002C30293B0D0A0000445331362831363297
:1023B0002C36322C272564272C30293B0D0A0000AF
:1023C0005342432837293B004453313628313337B1
:1023D0002C3134392C272564272C30293B00000070
:1023E0005342432835293B0D0A00000011B59BB02C
:1023F000002001901BA807F049FC08B91CB010BDD3
:102400008B48C069022827DA894800690A2190FBB5
:10241000F1F0C0B28DF804008548006990FBF1F23C
:1024200001FB1200C0B28DF805009DF86C008049D8
:10243000C96901AA50549DF805009DF8041001EBEC
:10244000810100EB41007A490861084600691728BC
:1024500057DD1720086154E07548C069042828DA60
:10246000734840690A2190FBF1F0C0B28DF8040076
:102470006F48406990FBF1F201FB1200C0B28DF889
:1024800005009DF86C106A48C069801E01AA1154AD
:102490009DF805009DF8041001EB810100EB41005F
:1024A00063494861084640693B282ADD3B20486172
:1024B00027E05F4880690A2190FBF1F0C0B28DF8F7
:1024C00004005B48806990FBF1F201FB1200C0B28E
:1024D0008DF805009DF86C105548C069001F01AAD1
:1024E00011549DF805009DF8041001EB810100EBEB
:1024F00041004F498861084680693B2801DD3B2047
:1025000088614B48C069401C062190FBF1F201FB39
:1025100012004749C86147A001F026FE444880697F
:1025200000904348436945A1026902A80CF06CFA87
:1025300002A801F019FE3E48C069012810D147A049
:1025400001F012FE3A4800690A2190FBF1F422469C
:1025500044A102A80CF058FA02A801F005FE56E0CA
:102560003348C069022810D13CA001F0FDFD30487D
:1025700040690A2190FBF1F4224640A102A80CF028
:1025800043FA02A801F0F0FD41E02948C0690328A0
:1025900012D132A001F0E8FD254840690A2190FBE4
:1025A000F1F201FB120422463AA102A80CF02CFA27
:1025B00002A801F0D9FD2AE01D48C069042810D105
:1025C00026A001F0D1FD1A4880690A2190FBF1F4A0
:1025D000224636A102A80CF017FA02A801F0C4FDA9
:1025E00015E01348C069052811D11CA001F0BCFDFD
:1025F0000F4880690A2190FBF1F201FB1204224688
:1026000030A102A80CF000FA02A801F0ADFD33A041
:1026100001F0AAFD9DF86C2032A102A80CF0F4F99B
:1026200002A801F0A1FD35A001F09EFD00BFE5E686
:10263000601E00205342432835293B004453313665
:102640002839302C39332C27253032643A25303262
:10265000643A25303264272C30293B00534243280A
:1026600036293B00445331362839382C39332C274E
:102670002564272C30293B0D0A00000044533136D5
:10268000283131342C39332C272564272C30293B31
:102690000D0A000044533136283132322C39332CA4
:1026A000272564272C30293B0D0A0000445331367E
:1026B000283133382C39332C272564272C30293BFB
:1026C0000D0A000044533136283134362C39332C6E
:1026D000272564272C30293B0D0A0000534243284C
:1026E00037293B0044533136283133372C313439C4
:1026F0002C272564272C30293B0000005342432817
:1027000035293B0D0A00000001B59AB01AA807F060
:10271000BDFA08B91BB000BD22A001F025FD9DF84F
:1027200068002249C8609DF86800072801D1002090
:10273000C8601E48C068072821D2DFE800F00408FE
:102740000C1014181C001AA001F00EFD17E01EA0BA
:1027500001F00AFD13E022A001F006FD0FE026A023
:1027600001F002FD0BE02AA001F0FEFC07E02EA024
:1027700001F0FAFC03E032A001F0F6FC00BF00BF5C
:1027800035A001F0F1FC9DF8682035A101A80CF0FE
:102790003BF901A801F0E8FC37A001F0E5FC00BF1F
:1027A000B8E700005342432836293B00601E002052
:1027B000445331362839302C3132352C27D6DCC8F9
:1027C000D5272C30293B0000445331362839302C92
:1027D0003132352C27D6DCD2BB272C30293B0000E8
:1027E000445331362839302C3132352C27D6DCB6DB
:1027F000FE272C30293B0000445331362839302C39
:102800003132352C27D6DCC8FD272C30293B00007F
:10281000445331362839302C3132352C27D6DCCB95
:10282000C4272C30293B0000445331362839302C42
:102830003132352C27D6DCCEE5272C30293B000061
:10284000445331362839302C3132352C27D6DCC16F
:10285000F9272C30293B00005342432837293B00FD
:1028600044533136283133372C3134392C27256401
:10287000272C30293B0000005342432835293B0DCB
:102880000A000000704700002DE9F04106460C46A2
:1028900017463F48007810B90020BDE8F0813C4859
:1028A00001783C480FF0D0FD85B203F081F8402C50
:1028B0006BD1352D4ED00EDC322D3FD006DC022DF3
:1028C0001AD0032D1CD0042D5CD11DE0332D39D03E
:1028D000342D57D13AE0472D4CD006DC362D3DD073
:1028E000372D3FD0462D4DD140E0482D46D0A5F59F
:1028F000F850903846D11DE05020FEF715FB43E01C
:102900005220FEF711FB3FE00220234908702348C4
:1029100000682349884203D26020FEF705FB08E0E7
:102920000420204908700CF050FA1F4980200CF058
:1029300039FA29E04120FEF7F7FA25E07320FEF787
:10294000F3FA21E06E20FEF7EFFA1DE06F20FEF7AC
:10295000EBFA19E07020FEF7E7FA15E07120FEF7B8
:10296000E3FA11E07220FEF7DFFA0DE06420FEF7D3
:10297000DBFA09E06320FEF7D7FA05E06820FEF7EE
:10298000D3FA01E0012088E700BF002085E70000BE
:102990003D000020701C00206A16002064160020F4
:1029A00040420F004A000020FB39010810B5002109
:1029B00014480078401E00EBC000134A02EB4000B0
:1029C000C18110480078401E00EBC0000F4A02EBA6
:1029D0004000C1810B480078401E0D4A1154094A3D
:1029E0001278521E0A4B995C064A1278521EB9237D
:1029F00003EB42000BF074FF02480078FDF7F4FF90
:102A000010BD0000C21600206C2000208A1E00208D
:102A1000801E00202DE9F0478EB081460F46924679
:102A200000264FF08808F5480078002878D1A7F1F3
:102A30000B002F2875D2DFE800F0272D496593940D
:102A400095969798999AAAAAAAAAAAAAAA9C9D9E7C
:102A50009FAAAAAAAAAAAAAAAA181FAAAA262C4862
:102A6000648B8C8D8E8F909192000020E4490870C9
:102A700001200EB0BDE8F0870020E249087006F0A2
:102A8000E3FD0120F5E700BF0220DF4908800120B7
:102A9000EFE700BF0220DD490870084600780128F2
:102AA00006D10220DA4908800120DA49088005E0D1
:102AB0000120D74908800220D64908800020D64945
:102AC0000880D64908800120D3E700BF0220CF4903
:102AD000087008460078012806D10320CC490880F8
:102AE0000120CC49088005E00120C9490880032065
:102AF000C84908800020C8490880C84908800120CA
:102B0000B7E700BF0220C1490870084600780128D5
:102B100008D10420BE4908800120BE49088010E089
:102B200039E034E0B9480078022804D1B849088077
:102B3000B849088005E00120B54908800420B5495E
:102B400008800020B4490880B4490880012090E73B
:102B500000BF00BF00BF00BF00BF00BF00BF00BF7D
:102B600000BF00BF00BF00BF00BF00BF00BF01200B
:102B70007FE700BF00BF00BFA9480078012804D14B
:102B8000A8480078012800D173E7012071E700BF51
:102B900000BF00206DE799480178A3480FF054FC6E
:102BA00084B2302F7ED02BDCA7F10A0026287AD2FF
:102BB000DFE810F0FD020E011E01B601DC01120279
:102BC00013021402150216021702180219027900E4
:102BD0007900FE0279005B02790048026A027C02F9
:102BE0008F02A002790079007900790079005A02F9
:102BF00079007900F000FE00790079000F011F01D3
:102C0000692F2ED01BDCA7F131001628CFD2DFE8C8
:102C100010F0AE014A00DC01DD01DE01DF01E00160
:102C2000E101E2014A004A004A004A004A004A0023
:102C30004A004A004A00C9029B028302B102A7F17E
:102C40006A000C28B3D2DFE810F03E007300950054
:102C50002E00C302C402C502C602C702C802E903AD
:102C6000EC033C2C01DC0A2C06DA02F0A1FE6FA07A
:102C700001F07AFA0020FCE673490C7008460178EE
:102C8000CD200BF02DFE71480078012818D109F0F5
:102C9000E1FF6D490978C1EB011100EB8105280EB8
:102CA0006B4901E03DE100E20870280C4870280AF9
:102CB0008870CD700522D3200DF081FD6548056038
:102CC00002F076FEDBE3182C01DC012C06DA02F0C0
:102CD0006FFE56A001F048FA0020CAE65A490C706F
:102CE00008460178D1200BF0FBFD5B4800780128F5
:102CF0001BD156480078C0B909F0ACFF5749097894
:102D0000C1EB01118900C1EB011100EB8105280E17
:102D10004F490870280C4870280A8870CD70052229
:102D2000D3200DF04CFD4B48056002F041FEA6E3B8
:102D30003248007878B13148007849490870002657
:102D400005E03948805D47498855701CC6B2444843
:102D500000788642F5DD42480178D8200BF0C0FDAE
:102D60003F480278921C3F49DA200DF028FD02F01E
:102D70001FFE84E3FDF7ECFC30B902F019FE3AA027
:102D800001F0F2F9002074E600203E49087002F0DC
:102D90000FFE74E3042C06DD02F00AFE3AA001F0F7
:102DA000E3F9002065E616490C7002F001FE66E3C7
:102DB000082C06DD02F0FCFD3AA001F0D5F9002058
:102DC00057E610490C7002F0F3FD06F03DFC56E3A7
:102DD00000BF0CB1042C06DD39A001F0C5F902F0EA
:102DE000E7FD002045E60848048002F0E1FD46E3E7
:102DF00000BF0CB1022C78DD70E076E03D000020D1
:102E00006417002065170020C8160020CA1600208D
:102E1000C4160020C6160020CC160020CE160020B6
:102E2000C1160020C0160020701C002043424F46EF
:102E3000283130342C38322C3133302C39392C3184
:102E40002C37293B0D0A00007F1600207E1600203B
:102E5000821600208816002080160020811600208F
:102E600086160020CF1C002043424F4628313035C3
:102E70002C37302C3138352C38362C312C37293B37
:102E80000D0A0000D516002043424F462836362C46
:102E900036362C39342C38392C332C3135293B0D2E
:102EA0000A00000043424F46283132362C36362C79
:102EB0003135342C38392C332C3135293B0D0A006F
:102EC00043424F46283134362C36392C3138342C95
:102ED00038372C332C3135293B0D0A00F5A001F091
:102EE00043F902F065FD0020C3E5FA490C7008467D
:102EF0000078012806D10220F74908800120F7490F
:102F0000088005E00120F44908800220F349088088
:102F10000020F3490880F349088002F049FDAEE241
:102F200000BF0CB1022C06DDE2A001F01DF902F099
:102F30003FFD00209DE5E7490C7008460078012818
:102F400006D10320E44908800120E449088005E017
:102F50000120E14908800320E04908800020E04981
:102F60000880E049088002F023FD88E200BF0CB130
:102F7000032C06DDCFA001F0F7F802F019FD0020C8
:102F800077E5D4490C7008460078012806D1042062
:102F9000D14908800120D14908800EE0CD48007851
:102FA000022804D1CC490880CC49088005E00120E2
:102FB000C94908800420C94908800020C849088000
:102FC000C849088002F0F4FC59E200BF00BF00BF0E
:102FD00000BF00BF00BF00BF00BF00BF00BF00BFF9
:102FE00000BF00BF00BFBE480088BB4909888842B7
:102FF00013DC14B1B4F5876F06DDBBA001F0B4F8A3
:1030000002F0D6FC002034E5B5480088401EBE49D9
:1030100021F8104002F0CCFC13E014B1B4F5F06FCD
:1030200006DDB1A001F0A0F802F0C2FC002020E50E
:10303000AC480088401EB449103921F8104002F015
:10304000B7FC1CE2082C00DC34B902F0B1FCAFA0E4
:1030500001F08AF800200CE5B3490C700120B34957
:10306000087002F0A5FC0AE200BF092C00DC34B9AC
:1030700002F09EFCAEA001F077F80020F9E4B3491D
:103080000C7002F095FCFAE1B1480088844208DD3A
:10309000FDF71CFA02F08CFCAE4801F065F8002048
:1030A000E7E4AD48048002F083FCE8E1AB48008827
:1030B000844209DDFDF70AFA02F07AFCA54868307F
:1030C00001F052F80020D4E4A348448002F070FCE0
:1030D000D5E19F480088844207DD02F069FC9D48E5
:1030E000D03001F041F80020C3E49B48848002F016
:1030F0005FFCC4E199480088844208DDFDF7E6F9E9
:1031000002F056FC964801F02FF80020B1E49248F6
:10311000C48002F04DFCB2E19248007878B1914849
:10312000007891490870002605E09048805D90493C
:103130008855701CC6B28C4800788642F5DD0BF0CD
:10314000F3FA02F035FC9AE18648007878B18548B8
:10315000007888490870002605E08448805D86492B
:103160008855701CC6B2854800788642F5DD02F0AD
:103170001FFC84E17B48007878B17A4800787D496B
:103180000870002605E07948805D7B498855701CF1
:10319000C6B27A4800788642F5DD02F035FE02F0CC
:1031A00007FC6CE176490C7002F002FC67E100BF9D
:1031B000A82C05D100207349087002F0F9FB5EE1EC
:1031C00002F0F6FB66486C3000F0CEFF002050E4C1
:1031D00000BF00BF00BF00BF00BFFDF797FA38B9BE
:1031E00002F0E6FB5E48CC3000F0BEFF002040E479
:1031F000654800786E2841D16448007848B10020C5
:1032000062490870624800F0AFFF14200BF0A0FE86
:103210002EE001205D4908705D48883000F0A4FF71
:103220005C4802785CA101A80BF0EEFB01A800F05D
:103230009BFF14200BF08CFE60480078C0B909F0A9
:1032400009FD54490978C1EB01118900C1EB011155
:1032500000EB8105280E5A490870280C4870280A8E
:103260008870CD700522D3200DF0A9FA554805606D
:1032700046480178CF200BF033FBCEE0424800787F
:103280006F2816D14D48007848B100204B4908708E
:103290004D4800F069FF14200BF05AFEB8E0012001
:1032A000464908704848883000F05EFF4748027879
:1032B0008EE0B2E043424F46283137312C3134366C
:1032C0002C3139342C3136392C312C3135293B0D08
:1032D0000A000000CA160020C4160020C6160020EE
:1032E000CC160020CE16002043424F462831333101
:1032F0002C3132362C3230342C3134392C312C31C3
:1033000035293B0D0A0000008025002043424F462E
:10331000283134362C38312C3138342C39392C338F
:103320002C3135293B0D0A00C0160020C1160020A3
:1033300043424F46283133312C38312C3135392C2A
:1033400039392C332C3135293B0D0A00C2160020A7
:1033500080170020CC2501085A2000208217002069
:10336000042701083D0000206C160020701C00207E
:10337000A81C00206E160020701600206B1600207E
:103380006F160020C3160020D516002080160020DE
:103390003028010881160020445331362835322C5C
:1033A0003130332C27B5A5B4CECAB1B3A4253264CD
:1033B000D0A1CAB1272C30293B0D0A007E1600206F
:1033C0008216002088160020402901087F16002060
:1033D0002DA101A80BF018FB01A800F0C5FE1420D8
:1033E0000BF0B6FD09F036FC30490978C1EB01114C
:1033F00000EB8105280E2E490870280C4870280A19
:103400008870CD700522D3200DF0D9F929480560C8
:1034100029480178CB200BF063FA30E0274804609C
:103420002DE026480068A04220D1254804600068AD
:10343000000E2449087022480068000C487020489B
:103440000088000A88701E480078C8700522E720AE
:103450000DF0B5F91A4804601B4800F085FE1420F1
:103460000BF076FD40201949087007E002F0A0FA41
:103470001548883000F078FE00202EE400BF00BF21
:1034800002F056FA012028E4445331362835322C14
:103490003130332C27D1DDCABECAB1B3A425326482
:1034A000B7D6D6D3272C30293B0D0A007F16002033
:1034B00082160020881600207E1600209C16002010
:1034C000981600208C160020502A0108D5160020DE
:1034D0002DE9FC470446884600254FF47A7094FB9A
:1034E000F0F00A2190FBF1F201FB1200C6B2642059
:1034F00094FBF0F090FBF1F201FB1200C7B20A203E
:1035000094FBF0F090FBF1F201FB120000F0FF09D8
:103510000A2094FBF0F100FB114000F0FF0A36B1E5
:1035200006F13000C2B229466D1C0DF8012007B922
:1035300036B107F13000C2B229466D1C0DF80120EA
:10354000B9F1000F01D107B936B109F13000C2B2AB
:1035500029466D1C0DF801200A2094FBF0F100FBB8
:1035600011403030C2B229466D1C0DF801200020F8
:103570000DF8050004A140460BF014FC69464046D6
:103580000BF010FCBDE8FC8720202020000000008C
:103590002DE9F84304460E4600250A2094FBF0F07E
:1035A0000A2190FBF1F201FB1200C7B20A2094FB42
:1035B000F0F100FB114000F0FF080FB9202001E0FE
:1035C00007F13000C2B229466D1C0DF8012008F148
:1035D0003000C2B229466D1C0DF8012000200DF804
:1035E0000500694630460BF0DDFBBDE8F8830000BE
:1035F00010B52B48008884B22AA196200BF0D2FB8C
:1036000096212046FFF7C4FF2548808884B2942184
:103610002046FFF7BDFF2248008984B29221204650
:10362000FFF7B6FF1E48008B84B21F4800780228BF
:1036300004D1E0B2992100F055F82FE01A48007843
:1036400001282BD1072C28D2DFE804F004090E133F
:10365000181D220015A198200BF0A4FB1DE015A158
:1036600098200BF09FFB18E014A198200BF09AFB18
:1036700013E014A198200BF095FB0EE013A1982005
:103680000BF090FB09E013A198200BF08BFB04E0FA
:1036900012A198200BF086FB00BF00BF10BD0000F8
:1036A0008C1C002020200000BA16002053756E2EBE
:1036B000000000004D6F6E2E000000005475657311
:1036C000000000005765642E000000005468757209
:1036D000000000004672692E000000005361742E45
:1036E0000000000038B504460D4600200090072C6D
:1036F00036D2DFE804F0040B121920272E00C82070
:103700008DF80000D5208DF8010029E0D2208DF839
:103710000000BB208DF8010022E0B6208DF80000EB
:10372000FE208DF801001BE0C8208DF80000FD2070
:103730008DF8010014E0CB208DF80000C4208DF836
:1037400001000DE0CE208DF80000E5208DF801008D
:1037500006E0C1208DF80000F9208DF8010000BFBF
:1037600000BF694628460BF01DFB38BD10B50E485A
:10377000808A84B20D48048083212046FFF7A8FE8A
:103780000948008A84B20948448086212046FFF710
:10379000FFFE0548808984B2044884808821204641
:1037A000FFF7F6FE10BD00008C1C0020C2000020B8
:1037B00010B5012000F0ACF800B3002406E06FF073
:1037C0000C000F4908600F490860641C0E488442D1
:1037D000F5DD002406E04FF0FF300A490860084993
:1037E0000860641C09488442F5DD002403E00120E0
:1037F00000F088F8641C06488442F8DD10BD000023
:103800000C0C01400C08014000127A0080841E005C
:1038100040420F0010B54FF40061244800F084FCD2
:1038200000283DD12248007898B3224800886428B7
:1038300006DD20480088962802DA00201E4908701C
:103840001C480088B0F5487F07DA1A4800881B49F1
:10385000194A127821F8120004E019480078401C37
:103860001749087000201349088013480078401C4D
:103870001149087008460078212811D1012011490A
:10388000087000200C4908700D490870084908703C
:1038900006E0FFE70020074908800120044908707E
:1038A0004FF4006000F02EF810BD00000008014049
:1038B000F1160020EA160020F21600201C1E00203F
:1038C000ED160020EC16002010B564200BF040FB34
:1038D0000221074800F028FC28B906480078022891
:1038E00001D1FDF7D7FD022000F00CF810BD00005B
:1038F00000140140BB16002010B564200BF028FB1B
:1039000010BD000001490860704700001404014028
:10391000014600200022074B1B6803EA0102054B09
:1039200014331B680B4202D00AB1012000E00020D2
:103930007047000000040140002123498279002AD9
:103940003AD00A46126803689A430B461A600A1D69
:10395000126803689A430B1D1A60027911440A68C1
:1039600003681A430A60184A0832126803689A43C7
:10397000154B08331A601A1D126803689A43124BDC
:103980000C331A604279102A0ED11A1F126803688C
:103990001A430D4B08331A601A1D126803681A4344
:1039A000094B0C331A600DE00749427911440A684B
:1039B00003681A430A6005E0027911440A68036843
:1039C0009A430A6070470000000401401FB50121BE
:1039D000212008F035FF0220ADF80C0048208DF8BA
:1039E0000F0003A9114800F0CDFA0121032000F0D7
:1039F000A9FA0220019000208DF808000C208DF813
:103A0000090001208DF80A0001A8FFF795FF0720A3
:103A10008DF8000003208DF801008DF802000120D0
:103A20008DF80300684606F0E3F81FBD001401405E
:103A30000EB50121112008F003FF0C21022000F037
:103A400081FA4FF48050019000208DF808000C207E
:103A50008DF8090001208DF80A0001A8FFF76CFF1E
:103A600028208DF8000002208DF8010001208DF83B
:103A700002008DF80300684606F0BAF80EBD00009B
:103A80000149C860704700000020024070B505463B
:103A900040F6FF76304600F055F8042813D10A4C62
:103AA000206940F0020020616561206940F040001B
:103AB0002061304600F046F8012804D0216941F623
:103AC000FD721140216170BD0020024008490420B0
:103AD000CA68D20701D001207047CA68520701D5D1
:103AE00002207047C968C906FBD503207047000053
:103AF0000020024070B506460D460F2000F022F867
:103B000004280FD1084C206940F001002061358065
:103B10000F2000F017F8012804D0216941F6FE7249
:103B20001140216170BD000000200240034802499D
:103B3000416003494160704723016745002002400E
:103B4000AB89EFCD00B50346FFF7C0FF05E0FF20CE
:103B5000401EFDD1FFF7BAFF5B1E012802D1002BEA
:103B6000F5D101E0002B00D1052000BD10B50949B9
:103B70006B2009F08FF90748007850B901200549FA
:103B800008702D20FDF7D0F9024801786B200AF06B
:103B9000A7FE10BD4F16002070B504460D46042048
:103BA00006490870FFF7C2FF3520FFF769FF20467E
:103BB000FFF76CFF0149087070BD0000E4000020B1
:103BC00010B586B0002000220E4909E011F8013B33
:103BD0000DF800300346401C1DF803301344DAB2E0
:103BE000084B15339942F1D30B78934208D100204A
:103BF00004E01DF80030044C2354401C1528F8DB69
:103C000006B010BD00F403086000002070B586B057
:103C100000240025002617491748FFF7BDFF00BF05
:103C200008E01648005D0DF804001448005D3044BB
:103C3000C6B2641C152CF4DB8DF815600E4D002403
:103C40000DE01DF80420601C1DF8000042EA002170
:103C50002846FFF74FFF0A490870AD1CA41C064810
:103C60001630854203D2064800780428E9D006B011
:103C700070BD000000F8030800F403086000002095
:103C8000E400002008B50121084608F0D9FD012113
:103C90004FF4C02008F0C4FD012144F27C0008F07C
:103CA000CFFD0121A04800F0F7F901219F4800F065
:103CB000F3F9C020ADF8000010208DF803000320B8
:103CC0008DF8020069469A4800F05CF90120ADF8D1
:103CD000000010208DF8030003208DF802006946D3
:103CE000944800F04FF94FF40070ADF80000102038
:103CF0008DF8030003208DF8020069468C4800F01F
:103D000041F90220ADF8000048208DF80300694613
:103D1000884800F037F90420ADF8000010208DF835
:103D2000030003208DF802006946824800F02AF95A
:103D30000820ADF8000010208DF8030003208DF856
:103D4000020069467B4800F01DF948F21000ADF80A
:103D5000000010208DF8030003208DF80200694652
:103D6000744800F00FF94FF40050ADF80000102037
:103D70008DF8030003208DF8020069466C4800F0BE
:103D800001F94FF40040ADF8000010208DF8030059
:103D900003208DF802006946654800F0F3F84FF4FF
:103DA0008040ADF8000010208DF8030003208DF84E
:103DB000020069465E4800F0E5F84FF48070ADF807
:103DC000000010208DF8030003208DF802006946E2
:103DD000574800F0D7F80920ADF8000048208DF8CA
:103DE00003006946544800F0CDF84FF4C060ADF8C8
:103DF000000010208DF8030003208DF802006946B2
:103E00004E4800F0BFF80220ADF8000010208DF8F9
:103E1000030003208DF802006946454800F0B2F81F
:103E20008020ADF8000010208DF8030003208DF8ED
:103E300002006946414800F0A5F880213F4800F0A3
:103E40007EF94FF48070ADF8000010208DF803006B
:103E500003208DF802006946384800F093F84FF4CB
:103E60000170ADF8000003208DF8020018208DF8D5
:103E700003006946324800F085F84FF48160ADF8E0
:103E8000000004208DF8030069462D4800F07AF800
:103E90004FF48070ADF8000003208DF80200182068
:103EA0008DF803006946244800F06CF84FF4007068
:103EB000ADF8000004208DF8030069461E4800F0AC
:103EC00061F84FF48060ADF8000018208DF8030011
:103ED00003208DF802006946184800F053F84FF4AB
:103EE0000060ADF8000004208DF803006946134817
:103EF00000F048F84FF48050ADF8000018208DF81D
:103F0000030003208DF8020069460C4800F03AF8DF
:103F10000420ADF800008DF803006946064800F063
:103F200031F8FFF785FD08BD0002300030001400B5
:103F3000000C014000180140001401400010014035
:103F40000008014030B500228B071C0F0F2303FA35
:103F500004F20B4B8C1053F824309343084C8D1013
:103F600044F8253023468C1053F824308C07240F56
:103F700000FA04F42343024C8D1044F8253030BD80
:103F8000080001402DE9F0410246002500260020EE
:103F900000230024002791F803C00CF00F0591F8CE
:103FA00003C01CF0100F03D091F802C04CEA0505C5
:103FB00091F800C0BCF1000F31D0146800202BE054
:103FC0004FF0010C0CFA00F3B1F800C00CEA030644
:103FD0009E4220D183004FF00F0C0CFA03F7BC4334
:103FE00005FA03FC4CEA040491F803C0BCF1280F65
:103FF00006D14FF0010C0CFA00FCC2F814C00AE024
:1040000091F803C0BCF1480F05D14FF0010C0CFA38
:1040100000FCC2F810C0401C0828D1D31460B1F8CD
:1040200000C0BCF1FF0F34DD546800202EE000F129
:10403000080C4FF0010808FA0CF3B1F800C00CEAC4
:1040400003069E4221D183004FF00F0C0CFA03F7B8
:10405000BC4305FA03FC4CEA040491F803C0BCF12C
:10406000280F05D100F1080C08FA0CF8C2F81480EA
:1040700091F803C0BCF1480F07D100F1080C4FF0D4
:10408000010808FA0CF8C2F81080401C0828CED3AA
:104090005460BDE8F0810000F0B50A46002300241A
:1040A0000021002500F00046B6F1004F02D11D4E60
:1040B000F16901E01B4E7168C0F3034583B200F45F
:1040C0004016B6F5401F08D121F07061154E766894
:1040D00026F07066134F7E6012E000F48016B6F58D
:1040E000801F06D1032606FA05F4A14341F0706152
:1040F00006E0460D360103FA06F6B14341F0706161
:1041000022B1460D360103FA06F6314300F00046AF
:10411000B6F1004F02D1034EF16101E0014E716032
:10412000F0BD0000000001400246002093680B42F1
:1041300001D0012000E0002070474161704701611B
:104140007047000010B502491D2008F0A3FE10BD05
:1041500069160020024800680249086070470000A4
:10416000E8F7FF1FAC16002070B50446002510E0EC
:10417000605D68B1615D07480AF065FA00BF8021A3
:1041800004480AF093F90028F9D0681CC5B200E091
:1041900070BDEDE700480040F0B58DB00446302218
:1041A000224901A8FBF7E0FF6069451E642195FBE9
:1041B000F1F12846EA1705EB9272C1EBA2014FF428
:1041C000C87295FBF2F28F186069C11700EB91710C
:1041D0008910B0EB810112D16422616991FBF2F385
:1041E00002FB131131B99200616991FBF2F302FBFA
:1041F000131121B92169022901DD012600E0002601
:1042000040F26D1005FB00712069401E01AA52F8B2
:1042100020000844E16808440644072096FBF0F1BA
:1042200000FB1160A0610DB0F0BD00005025010839
:1042300000BFFEE710B580210A48FFF77EFF01208E
:1042400005F084FC40210748FFF779FF012005F0C5
:104250007DFC40210348FFF770FF012005F076FC4C
:1042600010BD0000000C014038B5002448208DF836
:1042700003008020ADF8000003208DF8020069469D
:104280001348FFF77FFE002516E06006040E40216C
:104290000F48FFF754FF012005F058FC80210C481F
:1042A000FFF742FF044340210948FFF746FF012082
:1042B00005F04CFC681CC5B2082DE6DB10208DF81B
:1042C000030069460248FFF75DFE204638BD000046
:1042D000000C014038B5002448208DF8030003206D
:1042E0008DF802008020ADF8000069461248FFF703
:1042F00049FE40211048FFF722FF42F2107508E006
:1043000080210D48FFF710FF012801D1002404E0AF
:1043100001242800A5F10105F2D100BF4021064883
:10432000FFF70BFF10208DF8030069460248FFF7E6
:1043300029FE204638BD0000000C014010B5802148
:104340000C48FFF7FCFE012005F000FC4021094865
:10435000FFF7F5FE012005F0F9FB80210548FFF786
:10436000ECFE012005F0F2FB40210248FFF7E5FEDC
:1043700010BD0000000C014010B580210C48FFF773
:10438000DCFE012005F0E2FB40210948FFF7D7FEE3
:10439000012005F0DBFB80210548FFF7D0FE01205E
:1043A00005F0D4FB40210248FFF7C7FE10BD000016
:1043B000000C014070B50446002520E014F0800F89
:1043C00004D080210F48FFF7BAFE03E080210D489A
:1043D000FFF7B3FE6006040E012005F0B7FB402195
:1043E0000848FFF7ACFE012005F0B0FB402105486E
:1043F000FFF7A3FE012005F0A9FB681CC5B2082D3C
:10440000DCDB70BD000C014070B504460D4616465D
:10441000FFF794FFA020FFF7CDFFFFF75BFF00B988
:1044200070BDC4F30420FFF7C5FFFFF753FF00B9C9
:10443000F6E7E0B2FFF7BEFFFFF74CFF00B9EFE78A
:10444000012005F083FB07E02878FFF7B3FF6D1C20
:10445000FFF740FF00B9E3E73000A6F10101CEB25B
:10446000F2D1FFF789FF00BFDAE770B505460E46C7
:10447000144604B970BDFFF761FFA020FFF79AFF53
:10448000FFF728FF00B9F5E7C5F30420FFF792FF17
:10449000FFF720FF00B9EDE7E8B2FFF78BFFFFF76A
:1044A00019FF00B9E6E7FFF749FFA120FFF782FFF8
:1044B000FFF710FF00B9DDE709E0FFF7D5FE307028
:1044C000761C012C01D0FFF7B5FE601E84B2002CD3
:1044D000F3D1FFF751FF00BFCCE72DE9F0410546CE
:1044E0000F4614462846E91705EBD1614911A5EBA3
:1044F0004111CEB2CEB1C6F12000C6B264200AF09E
:10450000F8FCB4420ADB324639462846FFF77CFF06
:10451000A01B84B2A81985B2374406E0E2B239463E
:104520002846FFF771FFBDE8F08117E064200AF02C
:10453000E0FC202C0CDB202239462846FFF764FFE4
:10454000A4F1200084B205F1200085B2203705E0F7
:10455000E2B239462846FFF757FF0024002CE5D188
:1045600000BFE0E710B502460B4600211648007870
:10457000002811DD00BF0BE001EB8100134C34F883
:104580002000984202D11170012010BD481CC1B218
:104590000D4800788142EFDB0D480078002811DDDE
:1045A00000210BE001EB81000A4C34F82000984216
:1045B00002D111700220E8E7481CC1B2044800781B
:1045C0008142EFDB0020E0E7481700206021002057
:1045D000491700200022002010B5024601297CD195
:1045E000FE480088FE4B1B88984203D1FC48008897
:1045F000002873D102EB420000EBC200F94B03EB41
:104600004000408AF84B1B881844B0F5F06F65DC19
:1046100002EB420000EBC200F24B03EB4000808A49
:10462000EE4B1B881844B0F5166FF0DC101DEF4BF5
:104630001B7803EB8303EE4C24F82300EB4800784F
:10464000401CEA4B1B7803EB830304EB8303588085
:104650000020E64B1B7803EB830304EB8303988075
:10466000E24B1B7803EB830304EB8303D88002EB5C
:10467000420000EBC200DB4B03EB4000408ADB4B07
:104680001B7803EB830304EB8303188102EB4200E6
:1046900000EBC200D34B03EB4000808AD34B1B7866
:1046A00003EB830304EB83035881CF480088CF4B8F
:1046B0001B7803EB830304EB83039881C7480088CE
:1046C000CA4B1B7803EB830304EB8303D88102EB13
:1046D000420000EBC200C34B01E0B8E25DE003EB37
:1046E0004000408AC04B1B881844C04B1B7803EB2A
:1046F000830304EB8303188202EB420000EBC20049
:10470000B84B03EB4000808AB44B1B881844B74B6E
:104710001B7803EB830304EB83035882B5480088BE
:10472000E8B902EB420000EBC200AE4B03EB4000E5
:10473000408AAD4B1B881844AB4B18800120AD4B11
:10474000188002EB420000EBC200A64B03EB4000D6
:10475000808AA24B1B881844A14B188016E002EBFC
:10476000420000EBC2009F4B03EB4000808A9B4B52
:104770001B881844994B188018460088984B1B8852
:10478000984203DB95480088954B1880974800783D
:10479000401C964B1870012010BD02EB420000EB4C
:1047A000C200904B03EB4000408AB0F5F06F7DDC17
:1047B00002EB420000EBC20003EB4000808A884B12
:1047C0001B881844B0F5166FF1DC101D874B1B7861
:1047D00003EB8303864C24F8230084480078401CB4
:1047E000824B1B7803EB830304EB83035880002088
:1047F0007E4B1B7803EB830304EB830398807B4B96
:104800001B7803EB830304EB8303D88002EB4200A5
:1048100000EBC200734B03EB4000408A734B1B78E4
:1048200003EB830304EB8303188102EB420000EBEC
:10483000C2006C4B03EB4000808A6C4B1B7803EB8F
:10484000830304EB830358810020684B1B7803EB40
:10485000830304EB8303988161480088634B1B78D2
:1048600003EB830304EB8303D88102EB420000EBEC
:10487000C2005C4B03EB4000408A5C4B1B7803EBAF
:10488000830304EB8303188202EB420000EBC200B7
:10489000544B03EB4000808A514B1B881844534B08
:1048A0001B7803EB830304EB830300E025E05882CD
:1048B0004B480088494B188002EB420000EBC200D5
:1048C000484B03EB4000408A474B18800020494B7F
:1048D000188002EB420000EBC200424B03EB4000A9
:1048E000808A3E4B1B8818443D4B18803F48007817
:1048F000401C3E4B187001204EE73F4800883F4B5C
:104900001B88984203D13D480088002865D13A4869
:1049100000883A4B1B8898425FDA02EB420000EBBA
:10492000C200304B03EB4000408A354B1B881844D3
:10493000B0F5F06F51DC02EB420000EBC200294BF6
:1049400003EB4000808A2C4B1B881844B0F5166F8F
:10495000F0DC101D2B4B1B7803EB83032A4C24F84F
:10496000230028480078401C264B1B7803EB830368
:1049700004EB830358800020224B1B7803EB830356
:1049800004EB830398801F4B1B7803EB830304EB3A
:104990008303D88002EB420000EBC200114B03EB13
:1049A0004000408A174B1B7803EB830304EB83031F
:1049B000188102EB420000EBC2000A4B03EB4000FF
:1049C000808A104B1B7803EB830304EB830358812D
:1049D0000B4800880B4B1B7818E088E0521700202A
:1049E000501700201A1F00204C17002048170020E5
:1049F000602100204E1700205A1700205817002071
:104A000054170020491700200022002003EB8303E5
:104A100004EB83039881FE480088FE4B1B7803EB70
:104A2000830304EB8303D88102EB420000EBC20056
:104A3000F94B03EB4000408AF84B1B881844F54BB8
:104A40001B7803EB830304EB8303188202EB420021
:104A500000EBC200F04B03EB4000808AEC4B1B885C
:104A60001844EC4B1B7803EB830304EB830358825D
:104A7000EB480088E8B902EB420000EBC200E64BCD
:104A800003EB4000408AE54B1B881844E34B188039
:104A90000120E34B188002EB420000EBC200DE4B2A
:104AA00003EB4000808ADA4B1B881844DD4B1880EA
:104AB00016E002EB420000EBC200D74B03EB4000D4
:104AC000808AD34B1B881844D14B18801846008825
:104AD000D44B1B88984203DBCD480088D14B18800B
:104AE000CC480078401CCB4B1870022054E602EBF7
:104AF000420000EBC200C84B03EB4000408AB0F517
:104B0000F06F7DDC02EB420000EBC20003EB4000E3
:104B1000808AC44B1B881844B0F5166FF1DC101D59
:104B2000BC4B1B7803EB8303BF4C24F82300BF4826
:104B30000078401CB74B1B7803EB830304EB830323
:104B400058800020B34B1B7803EB830304EB8303F3
:104B50009880B04B1B7803EB830304EB8303D8806E
:104B600002EB420000EBC200AB4B03EB4000408A7B
:104B7000A84B1B7803EB830304EB8303188102EB40
:104B8000420000EBC200A44B03EB4000808AA14B23
:104B90001B7803EB830304EB8303588100209D4BB8
:104BA0001B7803EB830304EB830398819D48008803
:104BB000984B1B7803EB830304EB8303D88102EB50
:104BC000420000EBC200944B03EB4000408A914B43
:104BD0001B7803EB830304EB8303188202EB420090
:104BE00000EBC2008C4B03EB4000808A8D4B1B888E
:104BF0001844884B1B7803EB830304EB830300E02A
:104C0000A6E0588287480088814B188002EB42005A
:104C100000EBC200804B03EB4000408A7F4B1880C2
:104C200000207F4B188002EB420000EBC2007A4B61
:104C300003EB4000808A764B1B881844794B188020
:104C400074480078401C734B18700220A4E50229B8
:104C50007ED16F480088734B1B88984203D17148FE
:104C60000088002875D102EB8200714B33F81000E8
:104C70006A4B1B881844B0F5F06F6ADC02EB8200C7
:104C80006B4B03EB40004088614B1B881844B0F528
:104C9000166FF2DC5F48007800EB8000624B23F86F
:104CA00020205C480078401C5A4B1B7803EB8303A0
:104CB0005D4C04EB830358800020564B1B7803EBBC
:104CC000830304EB83039880524B1B7803EB83032D
:104CD00004EB8303D88002EB8200554B33F81000BD
:104CE0004C4B1B7803EB830304EB8303188102EB2B
:104CF00082004F4B03EB40004088464B1B7803EB90
:104D0000830304EB8303588144480088414B1B789C
:104D100003EB830304EB830398813D4800883D4BFC
:104D20001B7803EB830304EB8303D88102EB82003F
:104D30003F4B33F81000394B1B881844354B1B7818
:104D400003EB830304EB8303188202EB820001E090
:104D500042E245E0364B03EB400040882C4B1B8879
:104D600018442C4B1B7803EB830304EB830358821A
:104D70002B480088C0B902EB82002D4B33F810009D
:104D8000264B1B881844254B18800120244B188083
:104D900002EB8200264B03EB400040881C4B1B8833
:104DA0001844204B188014E002EB8200204B03EBE8
:104DB00040004088164B1B881844154B1880184635
:104DC0000088184B1B88984203DB11480088154B5C
:104DD000188010480078401C0E4B18700220DBE44D
:104DE00002EB8200124B33F81000B0F5F06F7DDC5F
:104DF00002EB820003EB400040880A4B1B881844FA
:104E0000B0F5166F72DC0348007800EB800011E00B
:104E10005A170020491700201A1F0020541700209D
:104E200056170020581700200022002048170020A5
:104E3000F8160020F44B23F82020F4480078401C9A
:104E4000F34B1B7803EB8303EF4C04EB8303588095
:104E50000020EF4B1B7803EB830304EB8303988064
:104E6000EB4B1B7803EB830304EB8303D88002EB4B
:104E70008200E84B33F81000E54B1B7803EB83030B
:104E800004EB8303188102EB8200E24B03EB40004A
:104E90004088DF4B1B7803EB830304EB83035881CB
:104EA0000020DB4B1B7803EB830304EB8303988127
:104EB000D9480088D64B1B7803EB830304EB8303AC
:104EC000D88102EB8200D34B33F81000D04B1B7813
:104ED00003EB830304EB8303188202EB8200CD4BC8
:104EE00003EB40004088CC4B1B8800E027E01844CF
:104EF000C74B1B7803EB830304EB83035882C6483C
:104F00000088C64B188002EB8200C24B33F81000B9
:104F1000C34B18800020C34B188002EB8200BD4BAE
:104F200003EB40004088BD4B1B881844BA4B1880E7
:104F3000B7480078401CB64B187002202CE4BA48E1
:104F40000088BA4B1B88984203D1B84800880028D3
:104F50007DD102EB8200AF4B33F81000B04B1B88C1
:104F60001844B0F5F06F72DC02EB8200A94B03EB42
:104F700040004088AC4B1B881844B0F5166F66DCC7
:104F8000A248007800EB8000A94B23F820209F481E
:104F90000078401C9D4B1B7803EB8303A44C04EB6F
:104FA000830358800020994B1B7803EB830304EBA9
:104FB00083039880954B1B7803EB830304EB8303F7
:104FC000D88002EB8200934B33F810008F4B1B7894
:104FD00003EB830304EB8303188102EB82008D4B08
:104FE00003EB40004088894B1B7803EB830304EB01
:104FF000830358818A480088844B1B7803EB830322
:1050000004EB8303988188480088804B1B7803EB6E
:10501000830304EB8303D88102EB82007D4B33F8DA
:1050200010007F4B1B881844784B1B7803EB8303DD
:1050300004EB8303188202EB8200764B03EB400003
:105040004088794B1B881844704B1B7800E03CE08B
:1050500003EB830304EB8303588272480088C0B9D2
:1050600002EB82006B4B33F810006D4B1B88184429
:105070006B4B188001206B4B188002EB8200654B54
:1050800003EB40004088684B1B881844674B18802E
:1050900014E002EB82005F4B03EB40004088624B60
:1050A0001B881844604B1880184600885F4B1B888B
:1050B000984203DB5C4800885C4B188053480078BA
:1050C000401C524B1870012016E402EB8200514B39
:1050D00033F81000B0F5F06F7EDC02EB820003EBDA
:1050E00040004088514B1B881844B0F5166F73DCA4
:1050F0004648007800EB80004D4B23F820204348C1
:105100000078401C414B1B7803EB8303484C04EBB5
:105110008303588000203D4B1B7803EB830304EB93
:1051200083039880394B1B7803EB830304EB8303E1
:10513000D88002EB8200374B33F81000334B1B78DA
:1051400003EB830304EB8303188102EB8200314BF2
:1051500003EB400040882D4B1B7803EB830304EBEB
:10516000830358810020294B1B7803EB830304EB56
:10517000830398812D480088244B1B7803EB83031D
:1051800004EB8303D88102EB8200224B33F810003A
:105190001E4B1B7803EB830304EB8303188202EBA3
:1051A00082001C4B03EB40004088204B1B881844B6
:1051B000164B1B7803EB830304EB830358821B48D5
:1051C0000088194B188002EB8200124B33F8100054
:1051D000184B1880002000E013E0174B188002EBFA
:1051E00082000C4B03EB400040880F4B1B88184497
:1051F0000E4B188005480078401C044B18700120A5
:1052000074E4002072E4000000220020481700200F
:1052100049170020F8160020581700205A170020C0
:105220004C1700204E170020521700205017002066
:105230006021002054170020561700202DE9F04F60
:1052400092B00446002700201190109080460F90E5
:105250000E900D900C900B900A90099008904FF0D2
:1052600001090790FE4800780690BA46BB46002028
:10527000059004900390002520E0109860B904EB9D
:10528000C400F84931F81000F74931F81510884288
:1052900002DAA846012010900C9868B904EBC4000B
:1052A000F04901EB40008088EF4931F81510884241
:1052B00002DC0E9501200C90681CC5B2EB4800780A
:1052C0008542DADB002523E0119870B904EBC400B5
:1052D000E44901EB40004188E348103030F8150004
:1052E000814202DA2F46012011900D9870B904EB2B
:1052F000C400DC4901EB4000C188DB48103030F8C5
:105300001500814202DC0F9501200D90681CC5B28A
:10531000D74800788542D7DB3D46E0E2BD420DDD4F
:10532000CF480078401E00EB400101EBC000D1499E
:1053300001EB4000008A401C80B203904646C8E260
:10534000BD427CD10020C649097801EB410202EB45
:10535000C101C84A02EB4101C88104EBC400C14944
:1053600001EB4000B0F802B004EBC40001EB4000D8
:10537000C188BD48103030F81700814228DC04EBAA
:10538000C400B84901EB4000C08804EBC401B54A31
:1053900002EB41014988401AB149097801EB410209
:1053A00002EBC101B34A02EB4101888204EB8400A5
:1053B000B14901EB40004088401EA949097801EB42
:1053C000410202EBC101AB4A02EB41010882CBE092
:1053D000A548103030F8170004EBC401A14A02EBD5
:1053E00041014988401A9E49097801EB410202EBCC
:1053F000C101A04A02EB410188829B48103030F87D
:10540000170004EBC401974A02EB41014988401A96
:1054100004EB8401984A02EB41014988484304EBBC
:10542000C401904A02EB4101498990FBF1F08C499B
:10543000097801EB410202EBC1018E4A00E00FE066
:1054400002EB4101C9890844401E8549097801EBF6
:10545000410202EBC101874A02EB4101088283E06D
:10546000681E8149103131F810B004EBC4007D4949
:1054700001EB4000C1887C48103030F815008142B3
:1054800032DC7749097801EB410202EBC101794A2C
:1054900002EB41010398C88104EB8400764901EBDB
:1054A00040004088401E6E49097801EB410202EB42
:1054B000C101704A02EB4101088204EBC400694952
:1054C00001EB4000C288681E6749103131F81000B6
:1054D000101A6349097801EB410202EBC101654AE8
:1054E00002EB410188823FE05D49097801EB41020E
:1054F00002EBC1015F4A02EB41010398C8815F489A
:1055000030F8150004EB84015B4A02EB4101498845
:10551000484304EBC401534A02EB4101498990FB23
:10552000F1F04F49097801EB410202EBC101514A08
:1055300002EB4101C9890844401E4949097801EB41
:10554000410202EBC1014B4A02EB410108824B4888
:1055500030F815004249097801EB410202EBC10124
:10556000444A02EB4101888200203D49097801EB61
:10557000410202EBC1013F4A22F81100384800788D
:105580003749097801EB410202EBC101394A02EBCC
:105590004101488004EBC400324901EB400080899E
:1055A0002F49097801EB410202EBC101314A02EBBC
:1055B0004101888004EBC4002A4901EB4000808946
:1055C00000EB80002C4931F810002549097801EBE7
:1055D000410202EBC101274A02EB4101C88004EB02
:1055E000C400204901EB4000808900EB8000224983
:1055F00001EB400040881A49097801EB410202EBB7
:10560000C1011C4A02EB4101088146457ED10020C0
:105610001349097801EB410202EBC101154A02EB83
:105620004101488104EBC4000E4931F810A004EB9D
:10563000C40001EB400080880B4931F81610884205
:1056400037DC04EBC400074901EB4000808804EB21
:10565000C401044A32F81110401A014909780FE0D8
:105660004A1700208A1E0020902500207F17002066
:105670007E1700201A1F0020F8160020C0170020F7
:1056800001EB410202EBC101984A02EB4101488261
:1056900004EB8400964931F81000401E95490978C2
:1056A00001EB410202EBC101904A02EB410188810A
:1056B000CCE0914830F8180004EBC4018F4A32F86E
:1056C0001110401A8B49097801EB410202EBC1012C
:1056D000864A02EB41014882874830F8180004EB03
:1056E000C401864A32F81110401A04EB8401804A42
:1056F00032F81110484304EBC401804A02EB410127
:10570000098990FBF1F0401E7A4900E009E0097830
:1057100001EB410202EBC101744A02EB41018881B5
:1057200094E0701E744931F810A004EBC400734972
:1057300001EB40008088704931F8161088423BDC4C
:105740006C480078401E00EB400101EBC000674947
:1057500001EB40008089401C6649097801EB410259
:1057600002EBC101614A02EB4101488104EB840074
:105770005F4931F81000401E5E49097801EB410293
:1057800002EBC101594A02EB4101888104EBC400DC
:105790005A4901EB40008188701E574A32F81000C8
:1057A000081A5449097801EB410202EBC1014F4A42
:1057B00002EB4101488249E04E480078401E00EB70
:1057C000400101EBC000494901EB40008089401CC9
:1057D0004849097801EB410202EBC101434A02EB5F
:1057E00041014881464830F8160004EB8401404AE4
:1057F00032F81110484304EBC401404A02EB410166
:10580000098990FBF1F03B49097801EB410202EB79
:10581000C101364A02EB410149890844401E35491D
:10582000097801EB410202EBC101304A02EB410170
:105830008881334830F816002E49097801EB41027F
:1058400002EBC101294A02EB4101488201212948AA
:105850000078FEF7C1FE81462648007800EB400143
:1058600001EBC000214901EB4000408A504480B266
:1058700005902048007800EB400101EBC0001B4977
:1058800001EB4000808A584480B2049019480078A7
:10589000401C18490870B9F1010F05D1194800786A
:1058A000401EC0B2079007E0B9F1020F04D11648BC
:1058B0000078401EC0B20790DDE90401534622463D
:1058C000CDE900B102904846079904F011FA701C26
:1058D000C6B20E9886427FF733AD681CC5B20F98EA
:1058E00085427FF71BAD12B0BDE8F08F1A1F002074
:1058F000F81600204A170020902500208A1E00205C
:10590000B01700204817002049170020002005E0AC
:105910000549095C054A1154411CC8B20628F7DB49
:105920000021024A51717047322B010860000020AB
:1059300000B504F0D3F900200C4908700C49087038
:105940000C4908700C4908700C4908700C49087023
:105950000C4908700C4908700C4908700C49087013
:105960000C4908700C49087000BD00003D00002083
:105970003C0000203E0000203F00002040000020AE
:10598000410000204200002043000020440000208D
:10599000450000204600002047000020002002496A
:1059A00008700249087070473D0000203C0000204C
:1059B00000B504F093F900200C4908700C490870F8
:1059C0000C4908700C4908700C4908700C490870A3
:1059D0000C4908700C4908700C4908700C49087093
:1059E0000C4908700C49087000BD00003D00002003
:1059F0003C0000203E0000203F000020400000202E
:105A0000410000204200002043000020440000200C
:105A100045000020460000204700002070B50646E3
:105A2000D64800785F380A286FD2DFE800F0BBF074
:105A3000EFEEED84052F59A8D148007828B3D0485F
:105A40000178D0480CF000FD0446B4F5803F08D33F
:105A5000CDA1912009F0A6F9CD49982009F0A2F92D
:105A60000EE0CC490C80084601884C2008F059FF14
:105A7000C2480178C7480088FBF71AF903F0BCFD5B
:105A80000020BF490870C449087074E1BC48007820
:105A900028B3BB480178BB480CF0D6FC0446B4F5EB
:105AA000803F08D3B8A1912009F07CF9B84998202B
:105AB00009F078F90EE0B9490C80084601885220B7
:105AC00008F02FFFAD480178B4480088FBF7F0F8E4
:105AD00003F092FD0020AA490870AF4908704AE11E
