:020000040800F2
:1000000098290020450100087F7B0008716B0008DB
:10001000617B0008C90500081D9A00080000000067
:10002000000000000000000000000000B187000890
:10003000993C000800000000157D0008959200081A
:100040005F0100085F0100085F0100081D800008D3
:100050005F0100085F010008F16000080962000804
:100060005F0100085F0100085F0100085F010008F0
:100070005F0100085F0100085F0100085F010008E0
:100080005F0100085F0100085F0100085F010008D0
:100090005F0100085F0100085F0100083962000885
:1000A0005F0100085F0100085F0100085F010008B0
:1000B0005F010008559300085F0100085F01000818
:1000C0005F0100085F0100085F0100085F01000890
:1000D0005F0100082996000871960008199700082A
:1000E000556100085F0100085F0100085F0100081A
:1000F0005F0100085F0100085F0100085F01000860
:100100005F0100085F0100085F0100085F0100084F
:10011000F9950008259600085F0100085F010008B6
:100120005F0100085F0100085F0100085F0100082F
:10013000DFF80CD000F070F8004800471DDB000825
:10014000982900200648804706480047FEE7FEE75A
:10015000FEE7FEE7FEE7FEE7FEE7FEE7FEE7FEE777
:10016000999200083101000840EA01039B0703D07F
:1001700009E008C9121F08C0042AFAD203E011F8E6
:10018000013B00F8013B521EF9D2704710B5002226
:1001900000E0521C835C8C5CA34201D1002BF8D19F
:1001A000D8B2E1B2401A10BD70B50F4D00B9286841
:1001B000002412E00A4602E09E4203D0521C13784B
:1001C000002BF9D1DAB2224305D02BB124B10021A2
:1001D00000F8011B04E00446401C0678002EE9D11B
:1001E0002860204670BD00007817002030B50B460F
:1001F000014600202022012409E021FA02F59D4257
:1002000005D303FA02F5491B04FA02F52844151E2A
:10021000A2F10102F1DC30BD064C074D06E0E068BA
:1002200040F0010394E8070098471034AC42F6D33D
:10023000FFF782FFA0620108C062010870B501EB00
:10024000020410F8015B15F0070301D110F8013B1F
:100250002A1106D110F8012B03E010F8016B01F808
:10026000016B5B1EF9D12B0705D40023521E0FD45E
:1002700001F8013BFAE710F8013B02F10202A1EBA1
:10028000030303E013F8015B01F8015B521EF9D58B
:10029000A142D6D3002070BD10B500247F4801884C
:1002A0007F480078401E00EBC0007E4A22F8101004
:1002B0007A4841887A480078401E00EBC00002EB83
:1002C000400041807548818875480078401E00EBE9
:1002D000C00002EB400081807048C18870480078FF
:1002E000401E00EBC00002EB4000C1806B488088DC
:1002F0006A490988401A81B269480078401E00EBBB
:10030000C00002EB400001816448C088634949880D
:10031000401A81B262480078401E00EBC00002EB38
:100320004000418160480078401E81B25C480078FE
:10033000401E00EBC00002EB40008181584801786C
:100340000078401E00EBC00002EB4000C18100219C
:1003500053480078401E00EBC00002EB40000182D1
:100360004F48047808E0002004EBC4014D4A02EB3A
:100370004101C881601CC4B2082CF4DB002463E096
:1003800004EBC400474931F8100004EBC401474AAC
:1003900022F8110004EBC400424901EB4000408800
:1003A00004EBC40102EB4101488004EBC4003D4969
:1003B00001EB4000808804EBC40102EB410188801E
:1003C00004EBC400374901EB4000C08804EBC401D2
:1003D00002EB4101C88004EBC400324901EB40004C
:1003E000008904EBC40102EB4101088104EBC40065
:1003F0002C4901EB4000408904EBC40102EB4101B0
:10040000488104EBC400274901EB4000808904EBDC
:10041000C40102EB4101888104EBC400214901EBD6
:100420004000C08904EBC40102EB4101C88104EB28
:10043000C4001C4901EB4000008A04EBC40102EB3C
:1004400041010882601CC4B2082C99DB184800786E
:10045000012820D100240FE0164830F81400164976
:1004600021F814001348103030F8141012481030DE
:1004700020F81410601CC4B2082CEDDB0F48007883
:100480000F4908700F4800780F49087000F09EF877
:1004900002200749087009F0D7FF10BDD2200020C4
:1004A000B9160020E4200020C31600204A1F0020B7
:1004B000081700200A1700202A1700200017002024
:1004C00002170020011700200317002010B501209B
:1004D00009F0AEFE06F02EFD09F008FE10BD10B5C5
:1004E000012007F05DFC002007F05AFC10BD000061
:1004F00001460020044A10884FF67F42104008430E
:10050000014A1080704700002C6C004008B501467D
:100510000020009003480090009808440090009844
:10052000008808BD006C0040014908607047000069
:1005300000860D4208B500220092044A0092009AFB
:1005400002440092009A116008BD0000006C004057
:1005500070B506460C46002516480078002804DDD4
:1005600014480078401E1349087000201249087092
:10057000304611F0EDFB002503E0202009F0D8FD06
:100580006D1CA542F9DB00200C490A4A12788854F8
:10059000304609F098FD0AA010F0A0FF0948007845
:1005A000502802D006F04AFF10B1044801F002F8CA
:1005B00070BD00003D0000203C000020FC1B00201E
:1005C0005F000000CB16002000BFFEE7002012E015
:1005D00020B920490988204A11800AE0411E1E4A9C
:1005E00032F811101B4A32F8102011441A4A22F82E
:1005F0001010411CC8B2194909788842E8DB411E35
:10060000154A32F81110164A1180002016E020B960
:100610001049098A104A11820EE0411E0E4A10321A
:1006200032F811200B49103131F8101011448AB200
:100630000949103121F81020411CC8B20949097834
:100640008842E4DB411E044A103232F81110064A97
:10065000118070472A1700209C1E002003170020DD
:1006600004170020021700200617002070B53F482D
:100670000078002878DD3D480078092874DA3C4885
:100680000078012806D002281DD0032834D0042881
:1006900068D14AE035480078451E34480078461E47
:1006A000F01706EB90708010C21CE81705EB9070F5
:1006B0008010A5EB80032FA1354809F01FFB3448BB
:1006C00009F01AFD4FE029480078451E27480078B8
:1006D000461EF01706EB90708010C21CE81705EB61
:1006E00090708010A5EB80032AA1294809F006FB31
:1006F000274809F001FD36E01C480078451E1B48DC
:100700000078461EF01706EB90708010C21CE817A8
:1007100005EB90708010A5EB800325A11C4809F023
:10072000EDFA1B4809F0E8FC1DE0002415E0254621
:100730002646E01704EB90708010C21CE01704EB13
:1007400090708010A4EB800320A1114809F0D6FA24
:100750000F4809F0D1FC601CC4B2042CE7DB02E0B6
:1007600002E0FFE700BF00BF70BD0000C816002018
:10077000C91600204F5F4620535450432025642063
:10078000256420312030784646303030300D0A0064
:10079000742100204F5F462053545043202564208D
:1007A000256420312030783030464630300D0A0044
:1007B0004F5F462053545043202564202564203148
:1007C0002030783030303046460D0A004F5F4620EA
:1007D0005354504320256420256420302030783045
:1007E00030303030300D0A0010B50E4B1B8883427C
:1007F00013DB0C4B1B88834203D10A4B5B888B4273
:100800000BDB084B1B8883420AD1064B5B888B426B
:1008100006D1044B9B88934202DC0123024C2360E7
:1008200010BD0000CE000020A016002010B586B03C
:1008300012A207CA03AB07C30020009001900290E8
:100840000A2203A9F12006F0E8FA052009F0F0FCDD
:100850000A226946F12006F0A8FA002409E003A85C
:10086000005D1DF80410884202D0002006B010BDC3
:10087000641C0A2CF3DB0120F8E7000001020304EA
:1008800005060708090A000010B50C48007808B9E9
:10089000002010BD09480178094809F0FDFB044615
:1008A00006F052FB07480068844202D006488442A2
:1008B00001D10120EDE70020EBE700003D00002022
:1008C000FC1B002090160020192F08002DE9F84F7E
:1008D0006748007810B90020BDE8F88F65480068C7
:1008E00042F21071B0FBF1F201FB12046048017892
:1008F000614809F0D1FB074606F026FB200140EADB
:10090000A4201FFA80F85D48007820445B490979EB
:1009100008445A49097A08445849097B0844800226
:10092000564909682144554A52681144534A92680D
:100930001144524AD268114440EA21101FFA80F94A
:10094000600140EA64201FFA80FB600240EA641004
:1009500080B200904A48B7FBF0F042F21071B0FB51
:10096000F1F201FB120A4648B7FBF0F100FB1176E9
:1009700007F038FB43490968884224D2424800788E
:1009800008B34248006886421DD1414800780DF006
:1009900071F800203F49087005223F49D3200DF02F
:1009A00083F83D48007800063B49497800EB014058
:1009B0003949897800EB01203749C9780844314921
:1009C0000860012088E788EA0900C0F30D00B842FA
:1009D00002D03248874233D12B48007800282FD0EC
:1009E00007F000FB2E490978C1EB01118900C1EB2A
:1009F000011100EB8105280E27490870280C48706A
:100A0000280A8870CD700522D3200DF06CF8300EC6
:100A100024490870300C4870300A8870CE70052266
:100A2000EC200DF060F8194806601648056018487B
:100A300000780DF01FF800201649087001204BE7E0
:100A4000A82F12D107F0CEFA17490978C1EB01118E
:100A500000EB81050B4805600D4800780DF00AF8A1
:100A600000200C490870012036E7002034E7000020
:100A70003D000020A4160020FC1B0020DC1B0020F1
:100A8000A086010080160020781600208C16002019
:100A9000B41600207F1600207A16002010C21A1308
:100AA0007916002088160020771600202DE9F041E5
:100AB0001F48007810B90020BDE8F0811D4800688B
:100AC00042F21071B0FBF1F201FB120518480178F7
:100AD000194809F0E1FA0446280140EAA52087B246
:100AE000A80240EA251086B287EA0600C0F30D008E
:100AF000A04202D01148844207D111481149086030
:100B0000362009F0A7F80120D6E70E4800680C4906
:100B100088420BD00B480068844207D10846094937
:100B20000860362009F096F80120C5E70020C3E7E9
:100B30003D000020A4160020FC1B0020A966320303
:100B400040420F005C16002005480078522802D071
:100B5000532802D100BF012070470020FCE70000AD
:100B6000CB16002010B50446224617A11A4809F0FA
:100B7000C5F8194809F0C0FA642009F097FB17A0DE
:100B800009F0BAFA642009F091FB1DA009F0B4FA4B
:100B9000642009F08BFB23A009F0AEFA642009F071
:100BA00085FB29A009F0A8FA642009F07FFB2FA09B
:100BB00009F0A2FAC82009F079FB30A009F09CFAEC
:100BC000642009F073FB10BD47502053444D492069
:100BD00025640D0A00000000742100204F55545078
:100BE00055545F4650474120434C4541525F4F5555
:100BF000545055545F57494E203320300D0A0000A1
:100C00004F55545055545F4650474120434C454141
:100C1000525F4F55545055545F57494E2033203141
:100C20000D0A00004F55545055545F46504741201F
:100C3000434C4541525F4F55545055545F57494EB0
:100C4000203320320D0A00004F55545055545F4652
:100C500050474120434C4541525F4F5554505554E5
:100C60005F57494E203320340D0A00004F5F462065
:100C70005355534420330D0A0000000047502053C1
:100C8000444D4920300D0A0010B50821284805F0D0
:100C9000EBFE38B10121264805F0E6FE10B1012037
:100CA0002449087023480078002833D008212048C0
:100CB00005F0DAFE70BB01211D4805F0D5FE48BBEA
:100CC0001D48007888B100201A4908701B48007838
:100CD00018B9FF201949087007E018480078401E2D
:100CE000164908700020164908701648007888B127
:100CF00000201049087011480078401C0F49087006
:100D000001200F4908700D480078FF2802D100200B
:100D10000A4908700821064805F0A6FE0649087031
:100D20000121034805F0A0FE0649087010BD00002F
:100D3000001401403A16002038160020B5010020AA
:100D4000B40100203916002000B5FFB03EA005F028
:100D5000ABFE3F48006800903D4843683DA1826873
:100D600002A808F0CBFF02A805F09EFE142009F0AF
:100D70009DFA40480078022826D135488069072826
:100D800021D2DFE800F004080C1014181C003AA06F
:100D900005F08AFE17E03EA005F086FE13E042A0B3
:100DA00005F082FE0FE046A005F07EFE0BE04AA0B3
:100DB00005F07AFE07E04EA005F076FE03E052A0B3
:100DC00005F072FE00BF2AE02A480078012826D1EB
:100DD0001F488069072821D2DFE800F004080C10C2
:100DE00014181C004EA005F05FFE17E052A005F09D
:100DF0005BFE13E056A005F057FE0FE05AA005F089
:100E000053FE0BE05EA005F04FFE07E062A005F088
:100E10004BFE03E066A005F047FE00BF00BF0C4894
:100E2000C06800900A48036967A1426902A808F0F7
:100E300065FF02A805F038FE6CA005F035FE142011
:100E400009F034FA7FB000BD5342432835293B00F6
:100E5000181C00204453313628362C3135352C27C8
:100E6000253032643A253032643A25303264272CFA
:100E700030293B00B2160020445331362838362C36
:100E80003135352C27D6DCC8D5272C30293B00003E
:100E9000445331362838362C3135352C27D6DCD220
:100EA000BB272C30293B0000445331362838362CE0
:100EB0003135352C27D6DCB6FE272C30293B0000F7
:100EC000445331362838362C3135352C27D6DCC8FA
:100ED000FD272C30293B0000445331362838362C6E
:100EE0003135352C27D6DCCBC4272C30293B0000EC
:100EF000445331362838362C3135352C27D6DCCEC4
:100F0000E5272C30293B0000445331362838362C55
:100F10003135352C27D6DCC1F9272C30293B000090
:100F2000445331362838362C3135352C2753756EDD
:100F30002E272C30293B0000445331362838362CDC
:100F40003135352C274D6F6E2E272C30293B000074
:100F5000445331362838362C3135352C27547565B5
:100F600073272C30293B0000445331362838362C67
:100F70003135352C275765642E272C30293B00004E
:100F8000445331362838362C3135352C2754687582
:100F900072272C30293B0000445331362838362C38
:100FA0003135352C274672692E272C30293B00001D
:100FB000445331362838362C3135352C275361745B
:100FC0002E272C30293B000044533136283133344E
:100FD0002C3135352C27253034642D253032642DC5
:100FE00025303264272C30293B000000534243282F
:100FF00037293B0D0A00000000B5FDB008A005F040
:1010000053FD0948027809A1684608F077FE684652
:1010100005F04AFD0BA005F047FD7DB000BD0000C6
:101020005342432835293B00B41600204453323440
:10103000283136302C32332C272564272C30293B9D
:10104000000000005342432837293B0D0A000000EE
:1010500070B58EB005460E46D848007869287CD019
:101060001DDC2B2874D00EDC1D2872D006DC0A286B
:1010700070D019286FD01B2833D1F7E027286BD008
:101080002A28F9D1D9E0403807282AD2DFE810F021
:10109000FA002900290014012E01480160016A3874
:1010A0000C28F2D2DFE800F05A728A1D3637383940
:1010B0003A3B061EC2A005F0F7FC00240CE02B5DB5
:1010C000822000EBC402C0A101A808F017FE01A80D
:1010D00005F0EAFC601CC4B2B442F0DBBFA005F02E
:1010E000E3FC4DE1B6A005F0DFFC00240CE02B5D35
:1010F000822000EBC402BAA101A808F0FFFD01A8FC
:1011000005F0D2FC601CC4B2B442F0DBB3A005F021
:10111000CBFC35E100BF00BF00BF00BF00BFB6A0E1
:1011200005F0C2FC00240CE02B5D822000EBC40221
:10113000B4A101A808F0E2FD01A805F0B5FC601C0F
:10114000C4B2B442F0DBA5A005F0AEFC18E104E0A7
:1011500067E07EE04AE04AE087E000BF98A005F043
:10116000A3FC00240CE02B5D692000EBC402A5A1C8
:1011700001A808F0C3FD01A805F096FC601CC4B2EC
:10118000B442F0DB95A005F08FFCF9E08CA005F0EF
:101190008BFC00240CE02B5D692000EBC4029EA1B7
:1011A00001A808F0ABFD01A805F07EFC601CC4B2EC
:1011B000B442F0DB89A005F077FCE1E080A005F007
:1011C00073FC00240CE02B5D692000EBC40297A1A6
:1011D00001A808F093FD01A805F066FC601CC4B2EC
:1011E000B442F0DB7DA005F05FFCC9E000BF82A047
:1011F00005F05AFC00240EE02B5D04EB84009821DE
:1012000001EB40027FA101A808F078FD01A805F0DC
:101210004BFC601CC4B2B442EEDB89A005F044FC78
:10122000AEE08AA005F040FC2A7891A101A808F060
:1012300065FD01A805F038FCA2E093A005F034FCA0
:101240002A7899A101A808F059FD01A805F02CFC05
:1012500096E09BA005F028FC2A78A2A101A808F03E
:101260004DFD01A805F020FC8AE000BFA3A005F019
:101270001BFC2A78AAA101A808F040FD01A805F0EE
:1012800013FC7DE04EA005F00FFC00240EE02B5D6A
:1012900004EB8400842101EB40025FA101A808F067
:1012A0002DFD01A805F000FC601CC4B2B442EEDBC9
:1012B0004AA005F0F9FB63E041A005F0F5FB00242E
:1012C0000EE02B5D04EB8400752101EB40029AA136
:1012D00001A808F013FD01A805F0E6FB601CC4B2EC
:1012E000B442EEDB3DA005F0DFFB49E034A005F0A1
:1012F000DBFB00240EE02B5D04EB8400752101EB89
:10130000400292A101A808F0F9FC01A805F0CCFB6D
:10131000601CC4B2B442EEDB30A005F0C5FB2FE088
:1013200027A005F0C1FB00240CE02B5D692000EB39
:10133000C4028BA101A808F0E1FC01A805F0B4FBF0
:10134000601CC4B2B442F0DB24A005F0ADFB17E092
:101350001BA005F0A9FB00240CE02B5D7D2000EB19
:10136000C4027FA101A808F0C9FC01A805F09CFBFC
:10137000601CC4B2B442F0DB18A005F095FB00BFBE
:1013800000BF06F05BF8B0B17BA005F08DFB002438
:101390000CE02B5D8C2000EBC40280A101A808F0BA
:1013A000ADFC01A805F080FB601CC4B2B442F0DBC8
:1013B0000AA005F079FB0EB070BD0000CB1600202E
:1013C0005342432837293B00445331362825642CA7
:1013D00036352C272563272C30293B000D0A0000C9
:1013E000445331362825642C3130302C272563278F
:1013F0002C30293B00000000534243283135293B63
:1014000000000000445331362825642C38332C2743
:101410002563272C30293B00445331362825642C82
:1014200038302C272563272C30293B004453313694
:101430002825642C37312C272563272C30293B00A5
:101440005342432837293B0D0A00000043424F46D0
:10145000283132362C36362C3135342C38392C3371
:101460002C3135293B534243283135293B000000BC
:1014700044533136283133372C37302C2725632716
:101480002C30293B0D0A000043424F462836362CAB
:1014900036362C39342C38392C332C3135293B5302
:1014A0004243283135293B00445331362837372C05
:1014B00037302C272563272C30293B0D0A000000EC
:1014C00043424F46283134362C38312C3138342CB5
:1014D00039392C332C3135293B53424328313529B6
:1014E0003B00000044533136283135382C38332C3A
:1014F000272563272C30293B0D0A000043424F4625
:10150000283133312C38312C3135392C39392C33C1
:101510002C3135293B534243283135293B0000000B
:1015200044533136283134322C38332C2725632765
:101530002C30293B0D0A0000445331362825642CF9
:1015400036312C272563272C30293B004453313674
:101550002825642C38362C272563272C30293B007E
:10156000445331362825642C3131312C272563270B
:101570002C30293B00000000534243283135293BE1
:1015800043424F46283133312C3132362C323034FD
:101590002C3134392C312C3135293B004453313630
:1015A0002825642C3133302C272563272C30293B08
:1015B000000000002DE9F04FADF5057D04462078D0
:1015C000303800F0FF096078303800F0FF08A0786C
:1015D0003038C5B2E0783038C6B220793038C7B27A
:1015E0006079303800F0FF0AA079303800F0FF0B46
:1015F000E0793038C0B28490207A3038C0B283901D
:10160000607A3038C0B28290A07A3038C0B281900F
:10161000E07A3038C0B28090FA48007820287CD038
:101620000EDC0E282BD006DC0B2817D00C2824D07B
:101630000D2873D122E01E282DD01F28F9D192E069
:101640002F2817D004DC212869D02E28F1D104E0FE
:10165000302810D03128ECD10EE000BF4A46EAA174
:1016600003A808F04BFB03A805F01EFA322008F08F
:101670001DFE90E300BF00BF00BF00BF00BF4A4691
:10168000E9A103A808F03AFB03A805F00DFA3220FF
:1016900008F00CFE7FE3207840B9607830B9A0787C
:1016A00020B9E07810B9207900285BD0607888B93B
:1016B000A07878B9E07868B9207958B9E2A005F047
:1016C000F3F94A46E2A103A808F018FB03A805F0C5
:1016D000EBF947E0A07880B9E07870B9207960B97B
:1016E000D9A005F0E1F943464A46E0A103A808F075
:1016F00005FB03A805F0D8F934E0E07898B9207923
:1017000088B9D1A005F0D0F943464A46DEA103A826
:10171000009508F0F3FA03A802E088E04FE1EAE060
:1017200005F0C2F91EE0207970B9C7A005F0BCF938
:1017300043464A46DBA103A8CDE9005608F0DEFA8D
:1017400003A805F0B1F90DE0BFA005F0ADF94346DF
:101750004A46DCA103A88DE8E00008F0CFFA03A810
:1017600005F0A2F917E3207840B9607830B9A07885
:1017700020B9E07810B92079002857D0607888B96E
:10178000A07878B9E07868B9207958B9AEA005F0AA
:101790008BF94A46D3A103A808F0B0FA03A805F0D4
:1017A00083F943E0A07880B9E07870B9207960B916
:1017B000A5A005F079F943464A46D1A103A808F04F
:1017C0009DFA03A805F070F930E0E07878B9207947
:1017D00068B99DA005F068F943464A46CFA103A821
:1017E000009508F08BFA03A805F05EF91EE0207959
:1017F00070B995A005F058F943464A46CFA103A811
:10180000CDE9005608F07AFA03A805F04DF90DE08D
:101810008DA005F049F943464A46D0A103A88DE8BA
:10182000E00008F06BFA03A805F03EF9B3E2207877
:1018300040B9607830B9A07820B9E07810B9207943
:10184000002857D0607888B9A07878B9E07868B96E
:10185000207958B97CA005F027F94A46C7A103A80A
:1018600008F04CFA03A805F01FF943E0A07880B90E
:10187000E07870B9207960B973A005F015F9434696
:101880004A46C5A103A808F039FA03A805F00CF9E7
:1018900030E0E07878B9207968B96BA005F004F9F8
:1018A00043464A46C3A103A8009508F027FA03A8B7
:1018B00005F0FAF81EE0207970B963A005F0F4F89D
:1018C00043464A46C2A103A8CDE9005608F016FADD
:1018D00003A805F0E9F80DE05BA005F0E5F8434644
:1018E0004A46C3A103A88DE8E00008F007FA03A860
:1018F00005F0DAF84FE2207840B9607830B9A07886
:1019000020B9E07810B92079002857D0607888B9DC
:10191000A07878B9E07868B9207958B94AA005F07C
:10192000C3F84A46BAA103A808F0E8F903A805F0ED
:10193000BBF843E0A07880B9E07870B9207960B94D
:1019400041A005F0B1F843464A46B8A103A808F003
:10195000D5F903A805F0A8F830E0E07878B9207947
:1019600068B939A005F0A0F843464A46B6A103A8D5
:10197000009508F0C3F903A805F096F81EE0207959
:1019800070B931A005F090F843464A46B6A103A8C5
:10199000CDE9005608F0B2F903A805F085F80DE08E
:1019A00029A005F081F843464A46B7A103A88DE86F
:1019B000E00008F0A3F903A805F076F8EBE1BA48D7
:1019C00005F072F8207830B9607820B9A07810B9A5
:1019D000E078002813D0607890B9A07880B9E078DA
:1019E00070B919A005F060F84A46B0A103A808F044
:1019F00085F903A805F058F8322008F057FCC9E132
:101A000060E10000CB160020534243283135293BCA
:101A100044533136283136302C37312C2725642772
:101A20002C30293B0D0A0000534243283135293B15
:101A300044533136283137382C3135302C27256442
:101A4000272C30293B0D0A005342432837293B00FD
:101A5000445331362836382C36332C272020256441
:101A60002020272C30293B0D0A000000445331363A
:101A70002836382C36332C2720256425642020274F
:101A80002C30293B0D0A0000445331362836382CBF
:101A900036332C272025642564256420272C302903
:101AA0003B0D0A00445331362836382C36332C2768
:101AB000202564256425642564272C30293B0D0AE4
:101AC00000000000445331362836382C36332C279A
:101AD00025642564256425642564272C30293B0D65
:101AE0000A00000044533136283137302C36332C6D
:101AF00027202025642020272C30293B0D0A0000B8
:101B000044533136283137302C36332C2720256486
:101B100025642020272C30293B0D0A004453313600
:101B2000283137302C36332C272025642564256452
:101B300020272C30293B0D0A000000004453313689
:101B4000283137302C36332C272025642564256432
:101B50002564272C30293B0D0A0000004453313600
:101B6000283137302C36332C27256425642564250D
:101B7000642564272C30293B0D0A0000445331367C
:101B80002836382C39332C27202025642020272C78
:101B900030293B0D0A000000445331362836382CDA
:101BA00039332C2720256425642020272C30293B1D
:101BB0000D0A0000445331362836382C39332C278F
:101BC0002025642564256420272C30293B0D0A003C
:101BD000445331362836382C39332C2720256425B8
:101BE0006425642564272C30293B0D0A0000000081
:101BF000445331362836382C39332C272564256454
:101C0000256425642564272C30293B0D0A0000003B
:101C100044533136283137302C39332C27202025B6
:101C2000642020272C30293B0D0A00004453313614
:101C3000283137302C39332C272025642564202087
:101C4000272C30293B0D0A004453313628313730D8
:101C50002C39332C272025642564256420272C303B
:101C6000293B0D0A0000000044533136283137303B
:101C70002C39332C27202564256425642564272CE2
:101C800030293B0D0A0000004453313628313730EB
:101C90002C39332C27256425642564256425642785
:101CA0002C30293B0D0A00003461010844533234C2
:101CB000283134362C3133362C272564272C302913
:101CC0003B0D0A00A078D0B9E078C0B9AFF2882007
:101CD00004F0EAFE4A4632A103A808F00FF803A870
:101CE00004F0E2FE4246AFF23C0103A808F006F819
:101CF00003A804F0D9FE322008F0D8FA4AE0E078D0
:101D000000BBAFF2BC2004F0CFFE4A462AA103A8D4
:101D100007F0F4FF03A804F0C7FE424620A103A881
:101D200007F0ECFF03A804F0BFFE2A46AFF28401DF
:101D300003A807F0E3FF03A804F0B6FE322008F082
:101D4000B5FA27E0AFF2003004F0AEFE4A4620A11B
:101D500003A807F0D3FF03A804F0A6FE424616A18D
:101D600003A807F0CBFF03A804F09EFE2A460CA1AF
:101D700003A807F0C3FF03A804F096FE3246AFF2B3
:101D8000D40103A807F0BAFF03A804F08DFE3220A7
:101D900008F08CFA00BF00BF0DF5057DBDE8F08F9F
:101DA00044533234283131382C3133362C272564D2
:101DB000272C30293B000000445332342839302C82
:101DC0003133362C272564272C30293B00000000B6
:101DD0005342432837293B445332342836322C317E
:101DE00033362C272564272C30293B0010B5ADF560
:101DF000007D2B4800682B49B0FBF1F201FB120477
:101E000056208DF8000031208DF801002E208DF82D
:101E1000020030208DF803002E208DF804003020C1
:101E20008DF805002D208DF8060000208DF80700A4
:101E30001DA004F039FE28A004F036FE28A004F00E
:101E400033FE2E4A2EA103A807F058FF03A804F082
:101E50002BFE31A004F028FE224636A103A807F08D
:101E60004DFF03A804F020FE38A004F01DFE3F4BF8
:101E70006A463FA103A807F041FF03A804F014FE3F
:101E800041A004F011FE42A004F00EFE46A004F0B2
:101E90000BFE47A004F008FE0DF5007D10BD00000C
:101EA000A416002040420F0043424F4628302C30F9
:101EB0002C3232302C3137362C312C35293B4342F1
:101EC0004F4628302C33302C3232302C3134352CE4
:101ED000312C32293B0000005342432832293B0079
:101EE000445331362832332C34362C27BBFAC6F70C
:101EF000D0CDBAC53A272C30293B00006000002025
:101F000044533136283130362C34382C272573276A
:101F10002C30293B00000000445331362832332C4A
:101F200037392C27BBFAC6F74944BAC53A272C30B3
:101F3000293B000044533136283130362C37392CB8
:101F4000272564272C30293B0000000044533136FC
:101F50002832332C3131312C27C8EDBCFEB0E6B12C
:101F6000BE3A2020272C30293B000000FF23010827
:101F700044533136283130362C3131312C272573FA
:101F80002573272C30293B005342432835293B0039
:101F900044533136283139392C3135342C275032DD
:101FA000272C31293B0000005342432837293B00AE
:101FB0000D0A000010B50246A2F534530F3B04D0C1
:101FC000A3F50063673B4ED126E0652904D066295E
:101FD0000CD067291ED113E0002004E0354B1B5CB8
:101FE000354C2354401C0728F8DB13E0002004E0A4
:101FF000304B1B5C314C2354401C0728F8DB09E0B4
:10200000002004E02B4B1B5C2D4C2354401C072864
:10201000F8DB00BF00BF4AE0652904D066290CD078
:1020200067291ED113E0002004E0264B1B5C224CE4
:102030002354401C0728F8DB13E0002004E0214B68
:102040001B5C1E4C2354401C0728F8DB09E00020D1
:1020500004E01C4B1B5C1A4C2354401C0728F8DB83
:1020600000BF00BF23E0652904D066290BD0672993
:102070001BD111E0002003E000230F4C2354401C2F
:102080000728F9DB11E0002003E000230B4C235468
:10209000401C0728F9DB08E0002003E00023084C7F
:1020A0002354401C0728F9DB00BF00BF00BF00BF5E
:1020B00010BD00002E330108AD000020B400002048
:1020C000BB000020353301080146CB296CD00FDC62
:1020D000042941D005DC09B3012929D003296FD196
:1020E00030E0052942D0C9294AD0CA29F7D151E0A8
:1020F00042F21323CA1A994275D00ADCA1F5807204
:102100002D3A5BD0A2F50052E43A62D0012AE6D122
:102110006BE0022A7DD0032AE1D184E0002004E0B4
:10212000474A125C474B1A54401C1528F8DB85E0DF
:10213000002004E0444A125C424B1A54401C15280B
:10214000F8DB7BE0002004E0404A125C3D4B1A546F
:10215000401C1528F8DB71E0002004E03C4A125CCA
:10216000384B1A54401C1528F8DB67E0002004E0C7
:10217000384A125C334B1A54401C1528F8DB5DE0DA
:10218000002004E0344A125C2E4B1A54401C1528DF
:10219000F8DB53E0002004E0304A125C294B1A546B
:1021A000401C1528F8DB49E0002004E02C4A125CB2
:1021B000244B1A54401C1528F8DB3FE0002005E0B2
:1021C0003BE0284A125C1F4B1A54401C1528F8DBD0
:1021D00034E0002004E0244A125C1A4B1A54401CDC
:1021E0001528F8DB2AE00AE013E0002004E01F4A8B
:1021F000125C144B1A54401C1528F8DB1EE000201A
:1022000004E01B4A125C0F4B1A54401C1528F8DBE3
:1022100014E0002004E0174A125C0A4B1A54401CD8
:102220001528F8DB0AE0002004E0134A125C054B95
:102230001A54401C1528F8DB00E000BF00BF7047AF
:10224000D026010885000020CB240108E0240108E5
:10225000F52401080A2501081F2501083425010875
:10226000492501085E250108732501088825010814
:102270009D250108B2250108C725010870B505464E
:102280000E462878302804D1012E02D104F00AFE2F
:102290000CE0002403E0285D05490855641CB442A5
:1022A000F9DB00200249085504F050F970BD000028
:1022B0006000002010B524480078502802D005F0B6
:1022C000BDF820B104219420FEF742F93AE01E48FF
:1022D000007862281DD00CDC5F2824D004DC402864
:1022E00022D050282CD126E060281ED0612827D18A
:1022F0001CE06438052823D2DFE800F0060304055B
:10230000100000BF00BF00BF05219120FEF720F99B
:1023100017E00B219120FEF71BF912E00A21912012
:10232000FEF716F90DE000BF00BF00BF06219120A7
:10233000FEF70EF905E002219120FEF709F900E011
:1023400000BF00BF10BD0000CB16002010B5044632
:102350000C480470007800EB400101EBC0000A4912
:1023600001EB8000806A58B10648007800EB40021B
:1023700002EBC0000A4602EB8000816A20468847D3
:1023800010BD0000CB160020B801002010B51C487D
:102390000078222803D01A4800783A2810D119482A
:1023A0000078042805DA17480078401C15490870A1
:1023B00002E0012013490870114800780AF024FC5B
:1023C0000F48007800EB400101EBC0000E4901EB23
:1023D0008000407E0A49097888420FD0084800787A
:1023E00000EB400101EBC000074901EB8000407E9B
:1023F0000349087008460078FFF7A8FF10BD0000E9
:10240000CB160020C3160020B801002010B505F03F
:1024100043F800287BD004F097FD734800782B2800
:1024200048D016DCA0F10A00212871D2DFE800F0C4
:1024300039464B50556162636465666768AFAF3A71
:10244000AF7EAF7982868A8EAFAFAFAFAF7DAFAFD1
:102450003E0039284CD00BDCA0F12E000B28E4D232
:10246000DFE800F02D32373C9540414243444500BF
:10247000712876D00CDC6E2870D004DC40287ED029
:102480006C2845D17FE06F2869D070287FD167E044
:10249000722867D0732866D0742868D0752876D1E2
:1024A00069E000BF51A004F0FFFA71E05DA004F004
:1024B000FBFA6DE062A004F0F7FA69E000BF67A0E4
:1024C00004F0F2FA64E000BF6BA004F0EDFA5FE004
:1024D00000BF69A004F0E8FA5AE000BF66A004F06B
:1024E000E3FA55E000BF00BF00BF00BF00BF00BF60
:1024F00000BF00BF00BF00BF00BF00BF00BF00BFE4
:102500006548008865490988884206DC01E045E0A5
:102510003DE063A004F0C8FA02E061A004F0C4FA50
:1025200036E067A004F0C0FA32E000BF6BA004F010
:10253000BBFA2DE070A004F0B7FA29E077A004F010
:10254000B3FA25E07EA004F0AFFA21E085A004F004
:10255000ABFA1DE005E001E011E000E000BF00BFC4
:1025600000BF00BF00BF88A004F09EFA10E094A056
:1025700004F09AFA0CE099A004F096FA08E09EA004
:1025800004F092FA04E0A3A004F08EFA00E000BF89
:1025900000BF15480078FFF7D9FE23E004F0D4FC13
:1025A000114800783D2803D00F4800783E2807D115
:1025B00004209F490870FEF759F800209C490870D4
:1025C0000948007800EB400101EBC000994901EB9C
:1025D0008000C07E0449087008460078FFF7B6FE08
:1025E00005F088FB10BD0000CB16002043424F468B
:1025F000283134352C38302C3138352C3130302CD2
:10260000332C3135293B43424F58283134352C384F
:10261000302C3138352C3130302C332C30293B0DD7
:102620000A00000043424F462836362C36362C39F5
:10263000342C38392C332C3135293B0D0A0000005D
:1026400043424F46283132362C36362C3135342C25
:1026500038392C332C3135293B0D0A0043424F4683
:10266000283134362C36392C3138342C38372C3349
:102670002C3135293B0D0A0043424F462831373172
:102680002C3134362C3139342C3136392C312C3133
:1026900035293B0D0A000000C4160020BC1600209E
:1026A00043424F46283133312C3132362C323034CC
:1026B0002C3134392C312C3135293B0D0A000000E6
:1026C00043424F46283134362C38312C3138342CA3
:1026D00039392C332C3135293B0D0A0043424F4602
:1026E000283133312C38312C3135392C39392C33D0
:1026F0002C3135293B0D0A005342432837293B43EF
:10270000424F462836382C36332C3130362C38326E
:102710002C312C37293B0D0A00000000534243287E
:1027200037293B43424F46283137302C36332C3241
:1027300030382C38322C312C37293B0D0A00000060
:102740005342432837293B43424F462836382C39D9
:10275000332C3130362C3131322C312C37293B0D92
:102760000A0000005342432837293B43424F462882
:102770003137302C39332C3230382C3130322C3147
:102780002C37293B0D0A000043424F462831323591
:102790002C38302C3230302C3130302C332C313539
:1027A000293B43424F58283132352C38302C3230B7
:1027B000302C3130302C332C30293B0D0A000000F6
:1027C00043424F46283132352C36322C3230302CB1
:1027D00038322C332C37293B0D0A000043424F4638
:1027E000283132352C39372C3230302C3131372CDE
:1027F000332C37293B0D0A0043424F4628313330F2
:102800002C37392C3230302C39392C332C37293BAA
:102810000D0A000043424F46283130352C37302C0A
:102820003136352C38362C332C37293B0D0A000035
:10283000C9160020B801002031B50024684605F013
:1028400031FA9DF800400CB1042C00DD38BD12486F
:102850000078222814D03A2813D03D2802D03E28F0
:1028600012D104E00D480470FDF700FF0CE00C48A5
:102870000470002C03DD042C01DAFDF7F7FE03E001
:1028800000BF0848047000BF00BF034800780AF08A
:10289000BBF900BFDAE70000CB160020C816002005
:1028A000C9160020C316002010B504F04DFB07F038
:1028B0001DFC02480078FFF749FD10BDCB16002033
:1028C00070B50024FB480578022004F073FB00B1CA
:1028D00070BDF8480078552804D0562803D05728F2
:1028E00007D101E000BF00BF06F0AAFCFFF78EFD94
:1028F000EEE7F0480078312853D019DCA0F10A0047
:10290000272871D2DFE800F0534A4E4F50FEFEFEFA
:10291000FEFEFEFEFE74FE54FE3DFE3B3E3F404189
:102920007672FEFEFE3C73FE5152FEFE494B4C0099
:102930006A287AD018DC45282CD00CDC42282AD012
:1029400004DC3A2855D040284ED11FE043281ED041
:102950004428F9D11CE046281BD0502866D05328C3
:102960001AD06928F0D187E06B380B28C9D2DFE88C
:1029700000F085A7C96061868788898A620000BFE8
:1029800000BF00BF00BF00BF00BF00BF00BF00BF4F
:1029900000BF00BF00BF00BF00BF00BF00BF00BF3F
:1029A00000BF00BF00BF00BF00BF00BF00BF00BF2F
:1029B000C048007800EB400101EBC000BE4901EBCC
:1029C0008000C06988B1BB48007800EB400101EB92
:1029D000C000B94901EB80000022C369B548017805
:1029E0000420984708B973E78CE08CE000BF00BF73
:1029F00000BF00BFAF48007800EB400101EBC00012
:102A0000AD4901EB8000C06970B1AA48007800EBC5
:102A1000400101EBC000A84901EB80000022C3691E
:102A2000A4480178042098476DE026E007F0ECFB0D
:102A300000BF00BF00BF9F48007800EB400101EBE2
:102A4000C0009D4901EB8000C069A0B199480078A1
:102A500000EB400101EBC000974901EB8000002230
:102A6000C369944801780420984700B930E76D2085
:102A7000904908702CE746E000BF00BF00BF00BFD0
:102A800000BF00BF00BF8B48007800EB400101EBA6
:102A9000C000894901EB8000C06980B18548007899
:102AA00000EB400101EBC000834901EB80000022F4
:102AB000C369804801780420984700B908E722E0FC
:102AC0007C48007800EB400101EBC0007A4901EB43
:102AD0008000C069A8B17748007800EB400101EBA5
:102AE000C000754901EB80000022C369714801787C
:102AF0000420984700B9EBE66E480078FFF726FC03
:102B0000E6E600E000BF00BF04F098FCD8B16948D9
:102B1000007800EB400101EBC000674901EB800049
:102B2000C06980B16348007800EB400101EBC00050
:102B3000614901EB80000022C3695E4801780420EE
:102B4000984700B9C4E65B48007800EB400101EB10
:102B5000C000594901EB8000807E564909788842BF
:102B60007BD054480078092806D15448007818B121
:102B70000A2050490870B6E14E480078182806D15E
:102B80004E48007818B119204A490870ABE149480D
:102B900000782E282ED14A480088022803D12F2001
:102BA000444908709FE146480088032803D130203B
:102BB0004049087097E142480088042803D1312039
:102BC0003C4908708FE101203E4908803E49088059
:102BD0003E49088000203E4908803648007800EBD6
:102BE000400101EBC000344901EB8000807E314997
:102BF000087078E12F4800780B282FD130480088E2
:102C0000022803D10C202B4908706CE12C48008865
:102C1000032803D10D202749087064E12848008863
:102C2000042803D10E20234908705CE101202549C6
:102C3000088025490880254908800020244908800B
:102C40001C48007800EB400101EBC0001A4901EB81
:102C50008000807E1749087045E145E115480078FD
:102C60002F2815D11B480078012808D1332011499D
:102C7000087016480088401C1449088033E134204D
:102C80000C49087011480088401C104908802AE14E
:102C900008480078302828D10E48007801281BD138
:102CA00035200449087009480088401C07490880FD
:102CB00019E10000CB160020B8010020BB1600204F
:102CC000C0160020BC160020BE160020C41600202E
:102CD000C6160020C216002036208B4908708B488B
:102CE0000088401C89490880FDE087480078312829
:102CF00022D187480078012808D1372082490870FE
:102D000082480088401C81490880ECE080480078B7
:102D1000022808D138207C4908707C480088401C73
:102D20007A490880DFE039207749087077480088C1
:102D3000401C76490880D6E0734800780C2815D1ED
:102D400073480078012808D110206F4908706F4837
:102D50000088401C6D490880C5E011206A49087050
:102D60006A480088401C69490880BCE066480078D1
:102D70000D2815D166480078012808D11220624933
:102D8000087062480088401C60490880ABE013204E
:102D90005D4908705D480088401C5C490880A2E0DD
:102DA000594800780E2822D159480078012808D1C6
:102DB00014205549087055480088401C5349088024
:102DC00091E053480078022808D115204E49087038
:102DD0004E480088401C4D49088084E016204A492E
:102DE00008704A480088401C484908807BE04648F3
:102DF0000078242830D1474800784749097888422C
:102E000008DA44480078401C424908701E203E49B8
:102E1000087068E005F0CEFC012140480078401EB3
:102E20003F4A11543D4A1278521E3D4B995C3B4A31
:102E30001278521EB92303EB420006F0DBFE324843
:102E4000007800EB400101EBC000364901EB800047
:102E5000807E2D49087046E004F0F0FA48B32B4814
:102E6000008831490988884205DA28480088401CD2
:102E70002649088037E02D4800882D490988884276
:102E80000ADA22480088401C204908802748008828
:102E9000401C2649088026E01B48007800EB4001D2
:102EA00001EBC0001F4901EB8000807E16490870CD
:102EB00019E0154800781B2809D118480078401EF1
:102EC0001749085C18B11C200F4908700BE00E4828
:102ED000007800EB400101EBC000124901EB8000DB
:102EE000807E0949087001240748007828B91148F4
:102EF000006810B9FFF7D8FCEAE403480078FFF750
:102F000025FA00BFE4E40000CB160020C416002020
:102F1000C2160020B9160020B8160020BA160020EC
:102F2000401F0020B8010020BC160020C61600205B
:102F3000BE160020A016002010B507F0D7F81048E4
:102F40000078022808D10F49802007F0BCF80EA1B4
:102F5000902007F0B8F80BE009480078012807D165
:102F60000F49802007F0AFF807A1902007F0ABF8D9
:102F70004FF47A7007F09AF9FFF748FA10BD000095
:102F8000B21600200630010820202020202020201A
:102F900020202020202020202020202000000000B1
:102FA0001930010810B507F0A1F81148007802287F
:102FB00008D11049802007F086F80FA1902007F073
:102FC00082F80BE00A480078012807D110498020D8
:102FD00007F079F808A1902007F075F84FF47A709F
:102FE00007F064F908200B490870FFF70FFA10BDCD
:102FF000B2160020063001082020202020202020AA
:103000002020202020202020202020200000000040
:1030100019300108CB16002037B50D461446684616
:1030200004F040FE00B93EBD012C14D100206A49D5
:1030300008709DF800003030C1B26748027800780F
:10304000401C654B187065488154002063491A463E
:103050001278885417E060480078A04213DA60487C
:10306000007880B99DF800003030C1B25A4802782B
:103070000078401C584B187058488154002057491C
:103080001A461278885454480078A04202D1012090
:1030900053490870534800781E282FD051480078B3
:1030A0001F282BD04F480078202827D04D48007883
:1030B000212823D04B48007850281FD04948007859
:1030C0002E281BD0474800780B2817D04548007899
:1030D0002F2813D04348007830280FD0414800787B
:1030E00031280BD03F4800780C2807D03D480078A5
:1030F0000D2803D03B4800780E2803D13748FEF74F
:1031000059FA67E0374800781D285ED035480078C6
:1031100027285AD0334800781B2856D031480078E9
:10312000402852D02F48007843284ED02D480078B0
:1031300044284AD02B480078462846D029480078B1
:10314000452842D0274800782A283ED025480078D4
:103150002B283AD0234800780A2836D02148007816
:10316000192832D01F48007869282ED01D480078D1
:103170006A282AD01B4800786B2826D01948007886
:103180006C2822D0174800786E281ED01548007889
:103190006F281AD013480078702816D0114800788C
:1031A000712812D00F48007872280ED00D48007890
:1031B00073280AD00B480078742806D00948007894
:1031C000752802D004F03AF920B103480178034889
:1031D000FDF73EFF00BF26E73D000020FC1B00205E
:1031E0003C000020CB16002000B5FFB03D48007821
:1031F000401C3C490870084600783C2825D1002036
:10320000087039480078401C374908700846007833
:103210003C281AD10020087034480078401C3349FB
:1032200008700846007818280FD100200870304830
:103230000078401C2E49087008460078642190FBF5
:10324000F1F201FB12002A4908702A48007801288F
:1032500013D185212648007802F03AFE90212348B8
:10326000007802F035FE92211F48007802F030FE0F
:1032700094211C48007802F02BFE1E48007810B103
:1032800001282BD100E000BF1B48007858B11BA0DB
:1032900003F00AFC1FA003F007FC20A003F004FCCD
:1032A0000020154908701BA003F0FEFB0D480078B4
:1032B0000D490978CDE900100C4803780C480278D4
:1032C0001DA102A806F01AFD02A803F0EDFB25A03F
:1032D00003F0EAFB142006F0E9FF00E000BF00BFA6
:1032E0007FB000BD5E0000205D0000205C0000207B
:1032F0005B000020CB1600205A00002043424F46BE
:1033000028302C37302C3232302C3134372C352CBD
:1033100038293B005342432838293B004453313677
:1033200028362C37352C27BFAABBFACAB1BCE43AE1
:10333000272C30293B000000445331362834362CEA
:103340003130302C2725303264C8D525303264CA5C
:10335000B125303264B7D625303264C3EB272C3028
:10336000293B00000D0A000010B51C4800782228F7
:1033700003D01A4800783A2811D11948007801285A
:1033800005DD17480078401E1549087002E004204A
:10339000134908701148007809F036FC1DE00F4809
:1033A000007800EB400101EBC0000E4901EB80000A
:1033B000007E0A49097888420FD00848007800EB5F
:1033C000400101EBC000074901EB8000007E03498A
:1033D000087008460078FEF7B9FF10BDCB16002034
:1033E000C3160020B801002011B59BB00020019049
:1033F0001BA804F057FC08B91CB010BDBE48C0693A
:10340000042848DABC4800684FF47A7190FBF1F068
:10341000C0B28DF80400B8480068642190FBF1F058
:103420000A2190FBF1F201FB1200C0B28DF80500F9
:10343000B148006890FBF1F090FBF1F201FB120043
:10344000C0B28DF80600AC48006890FBF1F201FBB9
:103450001200C0B28DF807009DF86C00A649C9693A
:1034600001AA50549DF804004FF47A7148439DF826
:10347000051001EBC10202EB011100EB81009DF888
:10348000061001EB810100EB41009DF80710084494
:103490009949086062E09848C06906282FDA964882
:1034A00040680A2190FBF1F0C0B28DF80400924808
:1034B000406890FBF1F201FB1200C0B28DF80500EC
:1034C0009DF86C108C48C069001F01AA11549DF82A
:1034D00005009DF8041001EB810100EB41008649D5
:1034E0004860084640680C2802DD0C20486035E042
:1034F0008148406858BB01207F4948602EE07E48E3
:1035000080680A2190FBF1F0C0B28DF804007A487F
:10351000806890FBF1F201FB1200C0B28DF805004B
:103520009DF86C107448C069801F01AA11549DF861
:1035300005009DF8041001EB810100EB41006E498C
:103540008860084680681F2802DD1F20886005E02B
:103550006948806810B90120674988606649C9696F
:10356000481CC11700EB5171C910A0EBC101624AA0
:10357000D16162A003F098FA5F48806800905E48CD
:10358000436860A1026802A806F0B8FB02A803F035
:103590008BFA5948C069012815D162A003F084FA5A
:1035A00055480068642190FBF1F00A2190FBF1F28C
:1035B00001FB120422465DA102A806F09FFB02A8AF
:1035C00003F072FA87E04C48C069022815D155A073
:1035D00003F06AFA484800680A2190FBF1F0642180
:1035E00090FBF1F201FB1204224656A102A806F05C
:1035F00085FB02A803F058FA6DE03F48C069032834
:1036000012D148A003F050FA3B4800680A2190FB11
:10361000F1F201FB1204224650A102A806F06EFB53
:1036200002A803F041FA56E03348C069042810D1DB
:103630003CA003F039FA304840680A2190FBF1F4CD
:1036400022464CA102A806F059FB02A803F02CFA6E
:1036500041E02948C069052812D132A003F024FABC
:10366000254840680A2190FBF1F201FB1204224632
:1036700046A102A806F042FB02A803F015FA2AE0D0
:103680001D48C069062810D126A003F00DFA1A487B
:1036900080680A2190FBF1F4224642A102A806F0BC
:1036A0002DFB02A803F000FA15E01348C0690728B3
:1036B00011D11CA003F0F8F90F4880680A2190FB93
:1036C000F1F201FB120422463CA102A806F016FB0F
:1036D00002A803F0E9F93FA003F0E6F99DF86C2099
:1036E0003EA102A806F00AFB02A803F0DDF941A002
:1036F00003F0DAF900BF7FE6EC1D002053424328B7
:1037000035293B00445331362839302C36322C27AA
:10371000253034642D253032642D25303264272C39
:1037200030293B005342432836293B00445331366D
:103730002839382C36322C272564272C30293B0D8C
:103740000A00000044533136283130362C36322CF2
:10375000272564272C30293B0D0A000044533136BD
:10376000283131342C36322C272564272C30293B44
:103770000D0A000044533136283133302C36322CB8
:10378000272564272C30293B0D0A0000445331368D
:10379000283133382C36322C272564272C30293B0E
:1037A0000D0A000044533136283135342C36322C82
:1037B000272564272C30293B0D0A0000445331365D
:1037C000283136322C36322C272564272C30293BE1
:1037D0000D0A00005342432837293B004453313639
:1037E000283133372C3134392C272564272C3029C4
:1037F0003B0000005342432835293B0D0A000000DE
:1038000011B59BB0002001901BA804F04BFA08B939
:103810001CB010BD8B48C069022827DA89480069AE
:103820000A2190FBF1F0C0B28DF8040085480069D0
:1038300090FBF1F201FB1200C0B28DF805009DF87B
:103840006C008049C96901AA50549DF805009DF893
:10385000041001EB810100EB41007A490861084640
:103860000069172857DD1720086154E07548C069C2
:10387000042828DA734840690A2190FBF1F0C0B2AD
:103880008DF804006F48406990FBF1F201FB1200D3
:10389000C0B28DF805009DF86C106A48C069801EA2
:1038A00001AA11549DF805009DF8041001EB810157
:1038B00000EB410063494861084640693B282ADD26
:1038C0003B20486127E05F4880690A2190FBF1F0C6
:1038D000C0B28DF804005B48806990FBF1F201FBF7
:1038E0001200C0B28DF805009DF86C105548C069F3
:1038F000001F01AA11549DF805009DF8041001EB6A
:10390000810100EB41004F498861084680693B28EE
:1039100001DD3B2088614B48C069401C062190FBBB
:10392000F1F201FB12004749C86147A003F0BCF85F
:103930004448806900904348436945A1026902A850
:1039400006F0DCF902A803F0AFF83E48C069012890
:1039500010D147A003F0A8F83A4800690A2190FB6B
:10396000F1F4224644A102A806F0C8F902A803F027
:103970009BF856E03348C069022810D13CA003F000
:1039800093F8304840690A2190FBF1F4224640A1A7
:1039900002A806F0B3F902A803F086F841E029482E
:1039A000C069032812D132A003F07EF8254840698F
:1039B0000A2190FBF1F201FB120422463AA102A86F
:1039C00006F09CF902A803F06FF82AE01D48C069D0
:1039D000042810D126A003F067F81A4880690A214C
:1039E00090FBF1F4224636A102A806F087F902A85E
:1039F00003F05AF815E01348C069052811D11CA03E
:103A000003F052F80F4880690A2190FBF1F201FBA4
:103A10001204224630A102A806F070F902A803F0B1
:103A200043F833A003F040F89DF86C2032A102A8BF
:103A300006F064F902A803F037F835A003F034F873
:103A400000BFE5E6EC1D00205342432835293B002A
:103A5000445331362839302C39332C272530326401
:103A60003A253032643A25303264272C30293B0025
:103A70005342432836293B00445331362839382CE9
:103A800039332C272564272C30293B0D0A000000F0
:103A900044533136283131342C39332C27256427CF
:103AA0002C30293B0D0A0000445331362831323284
:103AB0002C39332C272564272C30293B0D0A000094
:103AC00044533136283133382C39332C2725642799
:103AD0002C30293B0D0A000044533136283134364E
:103AE0002C39332C272564272C30293B0D0A000064
:103AF0005342432837293B0044533136283133376A
:103B00002C3134392C272564272C30293B00000028
:103B10005342432835293B0D0A00000001B59AB0F5
:103B20001AA804F0BFF808B91BB000BD22A002F02B
:103B3000BBFF9DF868002249C8609DF8680007280F
:103B400001D10020C8601E48C068072821D2DFE8E4
:103B500000F004080C1014181C001AA002F0A4FFB6
:103B600017E01EA002F0A0FF13E022A002F09CFFCD
:103B70000FE026A002F098FF0BE02AA002F094FFCD
:103B800007E02EA002F090FF03E032A002F08CFFCD
:103B900000BF00BF35A002F087FF9DF8682035A167
:103BA00001A806F0ABF801A802F07EFF37A002F0F2
:103BB0007BFF00BFB8E700005342432836293B0093
:103BC000EC1D0020445331362839302C3132352C4D
:103BD00027D6DCC8D5272C30293B0000445331368A
:103BE0002839302C3132352C27D6DCD2BB272C306B
:103BF000293B0000445331362839302C3132352CE2
:103C000027D6DCB6FE272C30293B00004453313642
:103C10002839302C3132352C27D6DCC8FD272C3002
:103C2000293B0000445331362839302C3132352CB1
:103C300027D6DCCBC4272C30293B00004453313637
:103C40002839302C3132352C27D6DCCEE5272C30E4
:103C5000293B0000445331362839302C3132352C81
:103C600027D6DCC1F9272C30293B000053424328DA
:103C700037293B0044533136283133372C3134391E
:103C80002C272564272C30293B0000005342432871
:103C900035293B0D0A000000704700002DE9F04176
:103CA00006460C4617463448007810B90020BDE897
:103CB000F08131480178314806F0EEF985B203F021
:103CC00043F9402C56D1662D23D00CDC0D2D4AD063
:103CD00004DC042D2DD00C2D49D140E0642D10D0F2
:103CE000652D44D111E0672D17D0682D19D0692DAD
:103CF0001BD0A5F5F850903839D14120FEF726FBAE
:103D000037E07320FEF722FB33E06E20FEF71EFB48
:103D10002FE06F20FEF71AFB2BE07020FEF716FB5A
:103D200027E07120FEF712FB23E07220FEF70EFB66
:103D30001FE00220124908701248006812498842A8
:103D400003D26020FEF702FB08E004200F49087050
:103D500006F0CCF90E49802006F0B5F909E05020B4
:103D6000FEF7F4FA05E05220FEF7F0FA01E0012038
:103D70009DE700BF00209AE73D000020FC1B0020CB
:103D8000621600205C16002040420F004A0000200E
:103D9000CF32010810B5002114480078401E00EB16
:103DA000C000134A02EB4000C18110480078401E59
:103DB00000EBC0000F4A02EB4000C1810B480078C5
:103DC000401E0D4A1154094A1278521E0A4B995C42
:103DD000064A1278521EB92303EB420005F00AFF8F
:103DE00002480078FCF7BEFE10BD0000BA160020A5
:103DF000E42000204A1F0020401F00202DE9F0474A
:103E00008EB081460F46924600264FF08808F5484E
:103E10000078002878D1A7F10B002F2875D2DFE8B1
:103E200000F0272D4965939495969798999AAAAA98
:103E3000AAAAAAAAAA9C9D9E9FAAAAAAAAAAAAAA14
:103E4000AA181FAAAA262C48648B8C8D8E8F90915D
:103E500092000020E449087001200EB0BDE8F08710
:103E60000020E249087003F013FC0120F5E700BFD1
:103E70000220DF4908800120EFE700BF0220DD4972
:103E8000087008460078012806D10220DA49088027
:103E90000120DA49088005E00120D7490880022086
:103EA000D64908800020D6490880D64908800120DC
:103EB000D3E700BF0220CF490870084600780128E8
:103EC00006D10320CC4908800120CC49088005E0B8
:103ED0000120C94908800320C84908800020C8493A
:103EE0000880C84908800120B7E700BF0220C14907
:103EF000087008460078012808D10420BE490880CF
:103F00000120BE49088010E039E034E0B94800786B
:103F1000022804D1B8490880B849088005E001208A
:103F2000B54908800420B54908800020B4490880BC
:103F3000B4490880012090E700BF00BF00BF00BF68
:103F400000BF00BF00BF00BF00BF00BF00BF00BF79
:103F500000BF00BF00BF01207FE700BF00BF00BF60
:103F6000A9480078012804D1A8480078012800D188
:103F700073E7012071E700BF00BF00206DE799489B
:103F80000178A34806F088F884B2302F7ED02BDC6D
:103F9000A7F10A0026287AD2DFE810F0FD020E0110
:103FA0001E01B601DC0112021302140215021602F0
:103FB00017021802190279007900FE0279005B02EB
:103FC000790048026A027C028F02A002790079001F
:103FD0007900790079005A0279007900F000FE003A
:103FE000790079000F011F01692F2ED01BDCA7F18A
:103FF00031001628CFD2DFE810F0AE014A00DC0114
:10400000DD01DE01DF01E001E101E2014A004A00D9
:104010004A004A004A004A004A004A004A00C902CF
:104020009B028302B102A7F16A000C28B3D2DFE839
:1040300010F03E00730095002E00C302C402C502BA
:10404000C602C702C802E903EC033C2C01DC0A2CBF
:1040500006DA02F079FF6FA002F026FD0020FCE6F0
:1040600073490C7008460178CD2005F0C3FD7148F6
:104070000078012818D103F0B5FF6D490978C1EB2C
:10408000011100EB8105280E6B4901E03DE100E2E2
:104090000870280C4870280A8870CD700522D3203B
:1040A00009F021FD6548056002F04EFFDBE3182CA6
:1040B00001DC012C06DA02F047FF56A002F0F4FC06
:1040C0000020CAE65A490C7008460178D12005F054
:1040D00091FD5B48007801281BD156480078C0B993
:1040E00003F080FF57490978C1EB01118900C1EB4A
:1040F000011100EB8105280E4F490870280C48700B
:10410000280A8870CD700522D32009F0ECFC4B48BA
:10411000056002F019FFA6E33248007878B1314813
:10412000007849490870002605E03948805D474914
:104130008855701CC6B2444800788642F5DD424876
:104140000178D82005F056FD3F480278921C3F497F
:10415000DA2009F0C8FC02F0F7FE84E3FCF7B6FBB6
:1041600030B902F0F1FE3AA002F09EFC002074E6A5
:1041700000203E49087002F0E7FE74E3042C06DDDF
:1041800002F0E2FE3AA002F08FFC002065E616493C
:104190000C7002F0D9FE66E3042C06DD02F0D4FEBA
:1041A0003AA002F081FC002057E610490C7002F0A2
:1041B000CBFE03F06DFA56E300BF0CB1042C06DD14
:1041C00039A002F071FC02F0BFFE002045E608486D
:1041D000048002F0B9FE46E300BF0CB1022C78DD8A
:1041E00070E076E03D000020621700206317002099
:1041F000C0160020C2160020BC160020BE160020EB
:10420000C4160020C6160020B9160020B8160020DB
:10421000FC1B002043424F46283130342C38322CCE
:104220003133302C39392C312C37293B0D0A000021
:1042300077160020761600207A16002080160020BF
:1042400078160020791600207E1600205B1C0020C6
:1042500043424F46283130352C37302C3138352CFD
:1042600038362C312C37293B0D0A0000CB160020A4
:1042700043424F462836362C36362C39342C3839C2
:104280002C332C3135293B0D0A00000043424F46A8
:10429000283132362C36362C3135342C38392C3303
:1042A0002C3135293B0D0A0043424F462831343624
:1042B0002C36392C3138342C38372C332C313529E5
:1042C0003B0D0A00F5A002F0EFFB02F03DFE0020DE
:1042D000C3E5FA490C7008460078012806D102208F
:1042E000F74908800120F749088005E00120F449DA
:1042F00008800220F34908800020F3490880F34930
:10430000088002F021FEAEE200BF0CB1022C06DDF7
:10431000E2A002F0C9FB02F017FE00209DE5E7498C
:104320000C7008460078012806D10320E449088073
:104330000120E449088005E00120E14908800320CC
:10434000E04908800020E0490880E049088002F048
:10435000FBFD88E200BF0CB1032C06DDCFA002F00C
:10436000A3FB02F0F1FD002077E5D4490C7008466C
:104370000078012806D10420D14908800120D149C4
:1043800008800EE0CD480078022804D1CC4908808E
:10439000CC49088005E00120C94908800420C949AA
:1043A00008800020C8490880C849088002F0CCFD78
:1043B00059E200BF00BF00BF00BF00BF00BF00BF89
:1043C00000BF00BF00BF00BF00BF00BF00BFBE48AE
:1043D0000088BB490988884213DC14B1B4F5876FA3
:1043E00006DDBBA002F060FB02F0AEFD002034E56C
:1043F000B5480088401EBE4921F8104002F0A4FDD7
:1044000013E014B1B4F5F06F06DDB1A002F04CFB7F
:1044100002F09AFD002020E5AC480088401EB44917
:10442000103921F8104002F08FFD1CE2082C00DC4E
:1044300034B902F089FDAFA002F036FB00200CE594
:10444000B3490C700120B349087002F07DFD0AE207
:1044500000BF092C00DC34B902F076FDAEA002F0FA
:1044600023FB0020F9E4B3490C7002F06DFDFAE182
:10447000B1480088844208DDFCF728F802F064FDAA
:10448000AE4802F011FB0020E7E4AD48048002F0E2
:104490005BFDE8E1AB480088844209DDFCF716F8D3
:1044A00002F052FDA548683002F0FEFA0020D4E484
:1044B000A348448002F048FDD5E19F48008884422B
:1044C00007DD02F041FD9D48D03002F0EDFA0020FA
:1044D000C3E49B48848002F037FDC4E1994800881A
:1044E000844208DDFBF7F2FF02F02EFD964802F051
:1044F000DBFA0020B1E49248C48002F025FDB2E16D
:104500009248007878B19148007891490870002667
:1045100005E09048805D90498855701CC6B28C4873
:1045200000788642F5DD05F089FA02F00DFD9AE18A
:104530008648007878B18548007888490870002658
:1045400005E08448805D86498855701CC6B2854860
:1045500000788642F5DD02F0F7FC84E17B480078C4
:1045600078B17A4800787D490870002605E07948DE
:10457000805D7B498855701CC6B27A4800788642B7
:10458000F5DD02F00DFF02F0DFFC6CE176490C7006
:1045900002F0DAFC67E100BFA82C05D100207349C6
:1045A000087002F0D1FC5EE102F0CEFC66486C308F
:1045B00002F07AFA002050E400BF00BF00BF00BF45
:1045C00000BFFCF761F938B902F0BEFC5E48CC30A0
:1045D00002F06AFA002040E4654800786E2841D174
:1045E0006448007848B1002062490870624802F0CF
:1045F0005BFA142005F05AFE2EE001205D49087098
:104600005D48883002F050FA5C4802785CA101A84D
:1046100005F074FB01A802F047FA142005F046FEED
:1046200060480078C0B903F0DDFC54490978C1EB5B
:1046300001118900C1EB011100EB8105280E5A49D7
:104640000870280C4870280A8870CD700522D32085
:1046500009F049FA5548056046480178CF2005F031
:10466000C9FACEE0424800786F2816D14D4800784C
:1046700048B100204B4908704D4802F015FA14204B
:1046800005F014FEB8E0012046490870484888301B
:1046900002F00AFA474802788EE0B2E043424F4601
:1046A000283137312C3134362C3139342C313639EC
:1046B0002C312C3135293B0D0A000000C216002098
:1046C000BC160020BE160020C4160020C61600200E
:1046D00043424F46283133312C3132362C3230347C
:1046E0002C3134392C312C3135293B0D0A00000096
:1046F0008C1E002043424F46283134362C38312C52
:104700003138342C39392C332C3135293B0D0A0002
:10471000B8160020B916002043424F4628313331E5
:104720002C38312C3135392C39392C332C31352971
:104730003B0D0A00BA16002004170020A01E010835
:10474000D220002006170020D81F01083D000020BD
:1047500064160020FC1B0020341C0020661600207C
:10476000681600206316002067160020BB16002084
:10477000CB160020781600200421010879160020AD
:10478000445331362835322C3130332C27B5A5B47B
:10479000CECAB1B3A4253264D0A1CAB1272C302926
:1047A0003B0D0A00761600207A16002080160020A5
:1047B00014220108771600202DA101A805F09EFA09
:1047C00001A802F071F9142005F070FD03F00AFC55
:1047D00030490978C1EB011100EB8105280E2E4903
:1047E0000870280C4870280A8870CD700522D320E4
:1047F00009F079F92948056029480178CB2005F0AE
:10480000F9F930E0274804602DE026480068A0420E
:1048100020D1254804600068000E24490870224811
:104820000068000C487020480088000A88701E4804
:104830000078C8700522E72009F055F91A4804608D
:104840001B4802F031F9142005F030FD40201949D1
:10485000087007E002F078FB1548883002F024F970
:1048600000202EE400BF00BF02F02EFB012028E450
:10487000445331362835322C3130332C27D1DDCA20
:10488000BECAB1B3A4253264B7D6D6D3272C3029FB
:104890003B0D0A00771600207A16002080160020B3
:1048A0007616002094160020901600208416002012
:1048B00024230108CB1600202DE9F041ADF5047D3D
:1048C000064600250024762E80F0C187DFE816F02A
:1048D0000405BF07BF07BF07BF071107BF07BF0713
:1048E000BF07860076009101AD011D026403C90176
:1048F000E50101023902550280039C03B803BB00A5
:1049000087007700C9001001E600D8001E011F01D2
:1049100020012101D403220175018301CA00020193
:10492000F4008A009E009F008800AD009F01BB013B
:104930002B027203D701F3010F02470263028E03B9
:10494000AA03C603D5038900E203F503F603E303D4
:104950000404120413042104220423043104E50393
:10496000E206EC06F60600070A071D07E403BF0788
:104970005D04E60370047104E7039104BF07BF07F9
:10498000BF07BF07BF07BF07BF07BF072E05BF078A
:10499000BF07BF07BF07BF07BF07BF07BF07BF07E7
:1049A000BF07290733073D074707BF079E079F0734
:1049B000A007A107A2079D07B007B10700BFFD48E8
:1049C00000783D2805D0FCA002F06EF8502005F0DC
:1049D0006DFC3D20F749087000F03ABF00BF00BFF2
:1049E00000BF00BFF348007805280BD0F5A002F007
:1049F0005BF8502005F05AFCF2A002F055F8502068
:104A000005F054FC0520EB490870E5E700BFE948D4
:104A100000783A2808D0EEA002F046F8502005F0C1
:104A200045FC3A20E3490870D6E7E24800781828A8
:104A300005D0EAA002F038F8502005F037FC182025
:104A4000DC490870C8E7DB4800780F2805D0E6A0ED
:104A500002F02AF8502005F029FC0F20D5490870F3
:104A6000BAE700BFD3480078092805D0E1A002F0DA
:104A70001BF8502005F01AFC0920CE490870ABE75E
:104A8000CC4800780A2805D0DDA002F00DF85020AF
:104A900005F00CFC0A20C74908709DE7C54800785E
:104AA0003B2805D0D9A001F0FFFF502005F0FEFB08
:104AB0003B20C04908708FE7BE4800780E2805D01B
:104AC000D5A001F0F1FF502005F0F0FB0E20B94910
:104AD000087081E7B74800780B2805D0D1A001F015
:104AE000E3FF502005F0E2FB0B20B249087073E7AA
:104AF000B0480078122805D0CDA001F0D5FF502095
:104B000005F0D4FB1220AB49087065E700BF00BF79
:104B100000BF00BFA74800780D284AD0C7A001F009
:104B2000C3FF502005F0C2FBC7480078012840D1E0
:104B3000C648007801283CD10020C549088048803B
:104B4000C44800888880C4480088C880C3A001F099
:104B5000ABFFBF480288C3A107A805F0CFF807A89C
:104B600001F0A2FFBDA001F09FFFB9484288C3A198
:104B700007A805F0C3F807A801F096FFB7A001F059
:104B800093FFB4480288C3A107A805F0B7F807A8A7
:104B900001F08AFFB1A001F087FFAF480288C2A1EF
:104BA00007A805F0ABF807A801F07EFF0A2005F082
:104BB0007DFB0D207F4908700EE77E4800780828AD
:104BC00005D0BFA001F070FF502005F06FFB08205A
:104BD0007849087000E7774800783C2805D0BBA0EA
:104BE00001F062FF502005F061FB3C207149087024
:104BF000F2E6704800782D2808D0B7A001F054FFE5
:104C00002D206C490870502005F050FBE4E66948FF
:104C100000781C2808D0B3A001F046FF1C2065498D
:104C20000870502005F042FBD6E662480078312833
:104C300008D0AFA001F038FF31205E490870502045
:104C400005F034FBC8E65B480078242808D0ABA008
:104C500001F02AFF242057490870502005F026FB58
:104C6000BAE654480078392808D0A7A001F01CFF04
:104C7000392050490870502005F018FBACE64D482B
:104C800000782C2808D0A3A001F00EFF2C20494961
:104C90000870502005F00AFB9EE64648007832284E
:104CA00008D09FA001F000FF322042490870502038
:104CB00005F0FCFA90E63F480078252808D09BA034
:104CC00001F0F2FE25203B490870502005F0EEFA75
:104CD00082E638480078332808D097A001F0E4FE37
:104CE000332034490870502005F0E0FA74E631486A
:104CF0000078262808D093A001F0D6FE26202D4962
:104D00000870502005F0D2FA66E62A48007830286C
:104D100008D08FA001F0C8FE30202649087050202E
:104D200005F0C4FA58E623480078232808D08BA061
:104D300001F0BAFE23201F490870502005F0B6FA92
:104D40004AE61C480078342808D087A001F0ACFE61
:104D5000342018490870502005F0A8FA3CE61548A0
:104D60000078272808D083A001F09EFE2720114953
:104D70000870502005F09AFA2EE60E480078352883
:104D800008D07FA001F090FE35200A49087050201D
:104D900005F08CFA20E607480078282808D07BA088
:104DA00001F082FE282003490870502005F07EFAA9
:104DB00012E60000CC160020535047283631293B1C
:104DC0000D0000005350472835293B0D000000001E
:104DD000535047283538293B0D00000053504728D1
:104DE0003234293B0D000000535047283135293B10
:104DF0000D0A00005350472839293B0D0A000000D6
:104E0000535047283130293B0D0A000053504728A2
:104E10003539293B0D0A0000535047283134293BCE
:104E20000D0A0000535047283131293B0D0A00007C
:104E3000535047283138293B0D0A0000535047286A
:104E40003133293B0D0A0000B9160020B8160020A6
:104E5000D2200020041700200617002053424328C8
:104E600037293B00445331362836382C36332C272B
:104E700020202564272C30293B0000004453313684
:104E8000283137302C36332C27202564272C302925
:104E90003B000000445331362836382C39332C2758
:104EA0002564272C30293B004453313628313730D4
:104EB0002C39332C272564272C30293B0D0A000080
:104EC0005350472838293B0D0A000000535047280B
:104ED0003630293B0D0A0000535047283435293B12
:104EE0000D0A0000535047283238293B0D0A0000B4
:104EF000535047283439293B0D0A000053504728A6
:104F00003336293B0D0A0000535047283537293BDB
:104F10000D0A0000535047283434293B0D0A000085
:104F2000535047283530293B0D0A0000535047287D
:104F30003337293B0D0A0000535047283531293BB0
:104F40000D0A0000535047283338293B0D0A000052
:104F5000535047283438293B0D0A00005350472846
:104F60003335293B0D0A0000535047283532293B81
:104F70000D0A0000535047283339293B0D0A000021
:104F8000535047283533293B0D0A0000535047281A
:104F90003430293B0D0A0000F24800782F2808D051
:104FA000F1A001F081FD2F20EE490870502005F09E
:104FB0007DF911E5EB480078222808D0EDA001F03A
:104FC00073FD2220E7490870502005F06FF903E5D2
:104FD000E4480078362808D0E9A001F065FD3620C5
:104FE000E0490870502005F061F9F5E4DD480078EB
:104FF000292808D0E5A001F057FD2920D9490870DB
:10500000502005F053F9E7E4D6480078372808D057
:10501000E1A001F049FD3720D2490870502005F089
:1050200045F9D9E4CF4800782A2808D0DDA001F05E
:105030003BFD2A20CB490870502005F037F9CBE41E
:10504000C8480078382808D0D9A001F02DFD3820B4
:10505000C4490870502005F029F9F9E3C1480078E7
:105060002B2808D0D5A001F01FFD2B20BD490870CA
:10507000502005F01BF9EBE300BFBA4800781E286A
:1050800007D0D1A001F010FD1E20B649087005F030
:1050900061FEDDE300BF00BF00BF00BF00BFB1483D
:1050A0000078112805D0CBA001F0FEFC502005F0BF
:1050B000FDF81120AB490870CAE300BFA948007889
:1050C000132805D0C6A001F0EFFC502005F0EEF843
:1050D0001320A4490870BBE3A2480078142808D024
:1050E000C2A001F0E1FC502005F0E0F814209D4939
:1050F0000870ADE300BF9B480078152808D0BEA01B
:1051000001F0D2FC502005F0D1F815209549087027
:105110009EE300BF00BF93480078162808D0B9A0CE
:1051200001F0C2FC502005F0C1F816208D4908702E
:105130008EE38C480078172823D0B5A001F0B4FC8A
:10514000502005F0B3F8AFF2EC2001F0ADFC0024E4
:105150000DE0B248035D5A2000EBC402B0A107A8DD
:1051600004F0CCFD07A801F09FFC601CC4B2B1485C
:1051700000788442EDDB7EA001F096FC172079498F
:105180000870ADA001F090FC62E3B3A001F08CFCCC
:10519000322005F08BF81A2072490870B148027865
:1051A000B1A107A804F0AAFD07A801F07DFC4FE318
:1051B00000BF6C4800781B2805D0B3A001F074FC38
:1051C000782005F073F81B2066490870B148007814
:1051D000522803D1B0A001F067FC06E0AD4800788A
:1051E000532802D1BBA001F05FFC782005F05EF8E7
:1051F0002EE35C48007820286AD0C2484069C24942
:105200000860C04800694860BE48C0688860BD4802
:105210008069C860BB4880680861BA4840684861D6
:10522000B848006888610020C861B8A001F03CFC63
:10523000B9A001F039FCB44880690090B2484369D4
:10524000B7A1026907A804F059FD07A801F02CFCDA
:10525000142005F02BF8AC48C068072821D2DFE8FD
:1052600000F004080C1014181C00B5A001F01CFC80
:1052700017E0B9A001F018FC13E0BDA001F014FC88
:105280000FE0C1A001F010FC0BE0C5A001F00CFC88
:1052900007E0C9A001F008FC03E0CDA001F004FC88
:1052A00000BF00BF98488068009097484368CEA12F
:1052B000026807A804F022FD07A801F0F5FBD2A0C0
:1052C00001F0F2FB142004F0F1FF782004F0EEFF6F
:1052D000202024490870BBE222480078042817D017
:1052E000CCA001F0E1FB642004F0E0FFC9A001F0D4
:1052F000DBFB642004F0DAFFC6A001F0D5FB6420DC
:1053000004F0D4FFC3A001F0CFFB642004F0CEFF73
:10531000C3480078012805D1C2A001F0C5FB0A20CE
:1053200004F0C4FF04200F49087091E20D48007892
:10533000022805D0CBA001F0B7FB282004F0B6FF6F
:10534000022008490870B6480078012803D1C8A097
:1053500001F0AAFB9DE1B2480078022800D195E156
:1053600097E10000CC160020535047283437293BE2
:105370000D0A0000535047283334293B0D0A000022
:10538000535047283534293B0D0A00005350472815
:105390003431293B0D0A0000535047283535293B4D
:1053A0000D0A0000535047283432293B0D0A0000F3
:1053B000535047283536293B0D0A000053504728E3
:1053C0003433293B0D0A0000535047283330293B22
:1053D0000D0A0000535047283137293B0D0A0000C1
:1053E000535047283139293B0D0A000053504728B4
:1053F0003230293B0D0A0000535047283231293BF7
:105400000D0A0000535047283232293B0D0A000094
:10541000535047283233293B0D0A0000411C00201D
:10542000445331362825642C38362C272563272C05
:1054300030293B006316002043424F46283132306A
:105440002C3131312C3138352C3132362C302C374F
:10545000293B0D0A00000000535047283236293BF3
:105460000D0A0000B11600205342432837293B445F
:10547000533132283132332C37382C272564272CEE
:1054800030293B0D0A000000535047283237293B92
:105490000D000000CB1600205342432837293B4320
:1054A000424F462834362C37312C3137342C38359E
:1054B0002C312C37293B445331322838362C3732A3
:1054C0002C27CAC7B7F1BCCCD0F83F272C30293BDA
:1054D0000D0A00005342432837293B4453313228F8
:1054E00034372C37322C27B8C3B2D9D7F7BDABC766
:1054F000E5B3FDB1A3B4E6CAFDBEDD21272C3029FA
:105500003B0D0A00181C0020EC1D002053504728BA
:105510003332293B0D0000005342432835293B001C
:10552000445331362839302C39332C272530326416
:105530003A253032643A25303264272C30293B003A
:10554000445331362839302C3132352C27D6DCC83B
:10555000D5272C30293B0000445331362839302CD4
:105560003132352C27D6DCD2BB272C30293B00002A
:10557000445331362839302C3132352C27D6DCB61D
:10558000FE272C30293B0000445331362839302C7B
:105590003132352C27D6DCC8FD272C30293B0000C2
:1055A000445331362839302C3132352C27D6DCCBD8
:1055B000C4272C30293B0000445331362839302C85
:1055C0003132352C27D6DCCEE5272C30293B0000A4
:1055D000445331362839302C3132352C27D6DCC1B2
:1055E000F9272C30293B0000445331362839302C20
:1055F00036322C27253034642D253032642D253069
:105600003264272C30293B005342432837293B0D75
:105610000A0000005350472834293B0D00000000C9
:10562000B316002043424F46283138302C392C32F3
:1056300032302C34332C312C35293B53424328351E
:10564000293B44533136283138342C31382C27D279
:10565000D1CBF8272C30293B5342432837293B0D27
:105660000A0000005350472832293B0D000000007B
:10567000445331362837382C37392C27BCFCC5CC5D
:10568000D2D1CBF8272C30293B0D0A00F5A001F030
:105690000BFADDE0FAA001F007FA282004F006FE7C
:1056A0006620FA490870D3E0F9A001F0FDF928203E
:1056B00004F0FCFD6720F5490870C9E0F7A001F08F
:1056C000F3F9282004F0F2FD6820F0490870BFE0EB
:1056D000F5A001F0E9F9282004F0E8FD6920EB4984
:1056E0000870B5E0282004F0E1FD6A20E749087061
:1056F000AEE0F0A001F0D8F9282004F0D7FD6B202F
:10570000E249087002F078FEA2E0EDA001F0CCF9C9
:10571000282004F0CBFD6C20DC49087002F06CFE00
:1057200096E0EAA001F0C0F9282004F0BFFD3E2079
:10573000D64908708CE0E8A001F0B6F9282004F002
:10574000B5FD3F20D149087082E0E6A001F0ACF938
:10575000282004F0ABFD4020CC49087078E0CB480D
:105760000078412850D003F0D7FEE1A001F09CF969
:10577000282004F09BFD00240DE0E048035D642038
:1057800000EBC402DEA107A804F0B8FA07A801F0F4
:105790008BF9601CC4B2E04800788442EDDBCDA0F8
:1057A00001F082F9DD484069DD490860DB480069A5
:1057B0004860DA48C0688860D8488068C860084691
:1057C000C0688968CDE90010D5484368D5A1026852
:1057D00007A804F093FA07A801F066F9DB4800680F
:1057E00042F21071B0FBF1F201FB12073A46D8A168
:1057F00007A804F083FA07A801F056F9282004F05E
:1058000055FD4120A149087022E000BF00BF00BF44
:1058100000BF00BF9D480078422808D0D3A001F007
:1058200043F9282004F042FD4220984908700FE017
:1058300000BF96480078432808D0CFA001F034F983
:10584000282004F033FD43209049087000E000BF99
:1058500000BF01F0F3FD10B1304607F0D5F95D2E21
:1058600042D2DFE806F0FEFDFCFBFA41F941412F90
:105870004135393A3B414141414141414142304149
:10588000F84141F7F6F5F4F3F2F14141F0EF41311F
:105890003D3E324134363738414141414141414139
:1058A0003C33EEEDECEB41EAE9E8E7E641E5414166
:1058B00041414141E44141E34141E2E1E0DF414115
:1058C000DE41DD0000BF00BF00BF00BF00BF00BF62
:1058D00000BF00BF00BF00BF00BF00BF00BF00BFD0
:1058E00000BF304607F090F971E2AFF6902001F06A
:1058F000DBF80025002405E0A24830F81400054438
:10590000601CC4B2A04800888442F5DB42F20F70EC
:10591000854205D92A469DA107A804F0EFF91DE0AC
:10592000B5F57A7F05D32A469EA107A804F0E6F9CB
:1059300014E0632D05D92A46A0A107A804F0DEF9DA
:105940000CE0092D05D92A46A2A107A804F0D6F932
:1059500004E02A46A5A107A804F0D0F907A801F0A1
:10596000A3F80025002406E08648103830F814001B
:105970000544601CC4B2A34800888442F4DB42F2B0
:105980000F70854205D92A469FA107A804F0B6F9F1
:105990001DE0B5F57A7F05D32A46A1A107A804F03A
:1059A000ADF914E0632D05D92A46A3A107A804F098
:1059B000A5F90CE0092D05D92A46A5A107A804F0F0
:1059C0009DF904E02A46A8A107A804F097F907A8C2
:1059D00001F06AF83FA001F067F801241AE05620B0
:1059E00060436949098890FBF1F000F148075620AF
:1059F00060436549098890FBF1F000F148083B4697
:105A000042469FA107A804F079F907A801F04CF8D5
:105A1000601CC4B25C4800888442E0DB012458E189
:105A2000CBE185E1CFE1CDE1CBE170E16EE16BE16E
:105A30006BE179E177E175E173E171E163E16BE1DC
:105A400069E15FE150E14EE158E156E154E152E194
:105A500050E14EE149E145E1AEE176E17CE1A4E1CE
:105A6000A9E16FE1445331362837382C37392C27D8
:105A7000BDE2CBF8B3C9B9A6272C30293B0D0A00EB
:105A800053504728313032293B0D0A00CC160020F4
:105A900053504728313033293B0D0A0053504728D3
:105AA000313034293B0D0A00535047283130352915
:105AB0003B0D0A0053504728313037293B0D0A006F
:105AC00053504728313038293B0D0A00535047289E
:105AD0003632293B0D0A0000535047283633293B04
