:020000040800F2
:100000007809002035010008290800082B0800089D
:100010002F08000833080008370800080000000017
:100020000000000000000000000000003B08000885
:100030003D080008000000003F08000841080008D3
:100040004F0100084F0100084F0100084F01000850
:100050004F0100084F0100084F0100084F01000840
:100060004F0100084F0100084F0100084F01000830
:100070004F0100084F0100084F0100084F01000820
:100080004F0100084F0100084F0100080000000068
:100090000000000000000000000000004F01000808
:1000A0004F0100084F0100084F0100084F010008F0
:1000B0004F0100084F0100084F0100084F010008E0
:1000C0004F0100084F0100084F0100084F010008D0
:1000D0004F010008C11900087D1900084F010008F0
:1000E0004F0100084F0100084F0100080000000008
:1000F0000000000000000000000000000000000000
:1001000000000000000000000000000000000000EF
:1001100000000000000000004F0100084F0100082F
:10012000DFF80CD009F0F4FF00480047B3040008E2
:10013000780900200648804706480047FEE7FEE7AA
:10014000FEE7FEE7FEE7FEE7FEE7FEE7FEE7FEE787
:10015000D5090008210100080021FA4A11601EE0BB
:100160000021F94A116011E00021F84A116004E011
:10017000F6490968491CF54A1160F4490968FF29E4
:10018000F6DDF1490968491CEF4A1160EE4909683A
:10019000FF29E9DDEB490968491CEA4A1160E94990
:1001A00009688142DCDB704770B588B00025E848FB
:1001B0004078E849097888427ED1E5480078FF28F0
:1001C0005BD1012405E0E248005D2844C5B2601C13
:1001D000C4B2062CF7DBDE488079A84209D1DC489E
:1001E000807838B9DA48C078202803D10120DA496C
:1001F0000870A5E0D648807838B9D548C07840283E
:1002000003D10220D44908709AE0D148807838B9E7
:10021000CF48C078802803D10320CF4908708FE0F1
:10022000CB488078012806D1C948C07818B9042085
:10023000C949087084E0C6488078082806D1C448B7
:10024000C07818B90520C449087079E0C0488078A2
:1002500038B9BF48C078012803D10620BE490870CC
:100260006EE0BB48807800286AD1B948C078002881
:1002700066D10720B849087062E0B5480078A02828
:100280005ED1B3488079AF285AD1012405E0B04847
:10029000005D2844C5B2601CC4B2062CF7DBAC4834
:1002A000C079A8424CD1AA48807848B9A848C078FB
:1002B000202805D1012000E0E9E0A74908703FE0CF
:1002C000A348807838B9A248C078402803D10220DA
:1002D000A149087034E09E488078012806D19C48E6
:1002E000C07818B903209C49087029E098488078A4
:1002F000022806D19648C07818B90420964908709B
:100300001EE093488078102806D19148C07818B92B
:1003100005209149087013E08D48807838B98C48E1
:10032000C078012803D106208B49087008E088486E
:10033000807828B98648C07810B9072086490870A7
:100340008548007808287DD2DFE800F09F04080C7B
:100350001014368F814801F01DFC97E0804801F0B1
:1003600019FC93E07F4801F015FC8FE07E4801F016
:1003700011FC8BE07D48007880B17D4801F00AFCDB
:10038000322001F0F7FB7A4801F004FC00207749A5
:1003900008700421774800F018FD0CE0322001F0CD
:1003A000E9FB754801F0F6FB012070490870042153
:1003B000704800F008FD69E070490978481CC117D1
:1003C00000EB91718910A0EB81016C4A11700AE079
:1003D0006A490978481CC11700EB91718910A0EB9C
:1003E0008101664A117066486449097800EB410052
:1003F00040780128ECD062486049097800EB410060
:10040000407888BB1B215F485C4E3678805DCDE923
:10041000040106914A20079104210D22CDE9001222
:1004200002231222CDE9021020210A2001F0D0FC83
:100430005248007802F00CFD534801F0ABFB4FF43A
:10044000FA6000E021E001F095FB1B20049005908C
:1004500006900790009001900290034602462021EA
:1004600003900A2001F0B4FC10E0484801F092FB30
:10047000474801F08FFB01F0DEFC46480078012878
:1004800002D1454801F086FB00E000BF00BF002418
:1004900004E000202E490855601CC4B23F48007893
:1004A0008442F6DB00203D4908703D49087008B0E1
:1004B00070BD88B0002400BF02E03A490C55641CAE
:1004C0000A2CFAD301F0E4FA09F014FB01F01CFB4A
:1004D00001F0A9F94FF4A06000F0FCFA09F056FC15
:1004E0002021244800F055FC08B901F0F2FD09F084
:1004F000D1FD08B101F062FB2B48007801F028F92A
:100500004FF48051294800F05EFC052001F032FBD9
:100510000A21244801F008FA052001F02BFB4FF4D2
:100520008051224800F051FC21480078022803D075
:100530001F48007803283DD14FF400510D4800F0CA
:1005400042FC3CE0080000200C00002010000020CD
:10055000420500207400002000000020B2020020AC
:10056000B8020020A0020020A60200200100002006
:1005700094020020000C01409A0200207600002026
:1005800077000020B0A1000876020020AC02002015
:10059000BE02002052000020C402002041000020C2
:1005A00042000020240300207300002000080140C6
:1005B000710000204FF40051874800F006FC03F062
:1005C0008BFA07E100208549087009F0B7FA8349E2
:1005D00008700846007809287DD2DFE800F0E605BB
:1005E000E608E6617D98BF0009F045F9DEE07C4948
:1005F0000978481CC11700EB91718910A0EB8101AB
:10060000774A11700AE076490978481CC11700EB57
:1006100091718910A0EB8101714A11707148704984
:10062000097800EB410040780128ECD06D486C4916
:10063000097800EB4100407888BB1B216A48684D6F
:100640002D78405DCDE9040106914A2007910421EF
:100650000D22CDE9001202231222CDE90210202141
:100660000A2001F0B5FB5E48007802F0F1FB5F481C
:1006700001F090FA4FF4FA6001F07CFA1B2004902C
:100680000590069007900090019002900346024664
:10069000202103900A2001F09BFB01F0CCFB85E0B8
:1006A0005348007858B95348007840B9032052495C
:1006B0000871084601F06EFA01204E4908704F4853
:1006C00001F068FAC82001F055FA4D4801F062FACD
:1006D00001F0B1FB6AE068E04548007858B9454848
:1006E000007840B9032044490871084601F052FAE5
:1006F000012040490870434801F04CFAC82001F03D
:1007000039FA3F4801F046FA01F095FB4EE03948CE
:100710000078012808D1022037490871084601F005
:1007200039FA00203349087000BF374801F032FA27
:10073000C82001F01FFA2021274800F02AFB0028DA
:10074000F3D0324801F026FA01F075FB2848007812
:10075000012802D12E4801F01DFA27E02548007833
:10076000012808D1022024490871084601F012FA34
:1007700000202049087000BF264801F00BFAC8206D
:1007800001F0F8F94021144800F003FB0028F3D0F1
:100790001E4801F0FFF901F04EFB154800780128D2
:1007A00002D11B4801F0F6F900E000BF00BF1A4873
:1007B000006840F6B831884207D9184801F0EAF9D4
:1007C000002017490870144908601648007808B1DD
:1007D000FFF7EAFCF6E60000000C01400D030020E4
:1007E0007600002077000020B0A1000876020020EB
:1007F0005200002002000020A6010020A0020020DC
:10080000AC020020A6020020B2020020BE0200209E
:10081000C4020020B802002048000020700200201E
:100820004400002042000020704700BFFEE700BFE8
:10083000FEE700BFFEE700BFFEE770477047704766
:1008400010B5002000F055FF2248008820B1214853
:100850000088401E1F4908801F48007820B11F48AB
:100860000068401C1D4908601D48007820B11D48E3
:100870000068401C1B4908601B48007820B11B48D9
:100880000068401C1949086019480088401C184934
:10089000088008460088B0F5FA7F16DD1548007814
:1008A00040B14FF48071144800F08DFA00201149D6
:1008B000087007E04FF480710F4800F086FA0120BD
:1008C0000C49087000200A490880012000F011FF3F
:1008D00010BD000016000020440000204800002049
:1008E000FC02002000030020050300200803002074
:1008F0001400002003000020000801400CB5002077
:10090000019000906A48006840F4803068490860AF
:1009100000BF6748006800F4003000900198401C58
:100920000190009818B90198B0F5A06FF1D1604816
:10093000006810F4003F02D00120009001E0002088
:1009400000900098012840D15A48006840F01000FB
:10095000584908600846006820F00300086008460F
:10096000006840F001000860514840685049486004
:100970000846406848600846406848600846406845
:1009800020F47C1048600846406840F4F810486045
:100990000846006840F08070086000BF4448006866
:1009A00010F0007FFAD04248406820F00300404930
:1009B00048600846406840F00200486000BF3C487C
:1009C000406800F00C000828F9D10CBD10B5FFF705
:1009D00095FF10BD10B53648006840F0010034495D
:1009E0000860084640683449084031494860084674
:1009F0000068324908402E4908600846006820F423
:100A0000802008600846406820F4FE0048604FF4EB
:100A10001F008860FFF7DAFF4FF000602849086088
:100A200010BD10B5002100200022214B5B6803F0AF
:100A30000C0121B1042906D0082928D107E0214B57
:100A4000214C236027E01F4B1F4C236023E0184BF1
:100A50005B6803F47010164B5B6803F4803202236A
:100A600003EB904022B9194B4343174C23600DE030
:100A70000F4B5B6813F4003F04D0144B4343124CFC
:100A8000236003E00F4B43430F4C236003E00D4B07
:100A90000D4C236000BF00BF054B5B68C3F303131D
:100AA0000B4CE15C084B1B68CB40074C236010BD2E
:100AB00000100240002002400000FFF8FFFFF6FE99
:100AC00008ED00E000127A001800002000093D0047
:100AD0001C00002031490143314A1160704770B554
:100AE000002100230F22C4780CB32D4C246804F499
:100AF000E064C4F5E064210AC1F10403CA4044780B
:100B000004FA03F18478144021430901254C067846
:100B1000A155047804F01F050124AC4005786D113F
:100B20004FF0E02606EB8505C5F8004109E00478A2
:100B300004F01F050124AC401B4D0678761145F8E2
:100B4000264070BD194A0A400243154B1B1F1A600C
:100B5000704739B1124A121D12680243104B1B1D17
:100B60001A6006E00E4A121D126882430C4B1B1DD0
:100B70001A607047042808D14FF0E021096941F05C
:100B800004014FF0E022116107E04FF0E021096914
:100B900021F004014FF0E022116170470000FA05D6
:100BA0000CED00E000E400E080E100E080FFFF1FCA
:100BB00010B50446CA48844208D10121042000F03F
:100BC00027FB0021042000F023FB46E0C5488442B7
:100BD00008D10121082000F01BFB0021082000F0B3
:100BE00017FB3AE0C048844208D10121102000F0F0
:100BF0000FFB0021102000F00BFB2EE0BB488442CD
:100C000008D10121202000F003FB0021202000F06A
:100C1000FFFA22E0B648844208D10121402000F0CA
:100C2000F7FA0021402000F0F3FA16E0B1488442C0
:100C300008D10121802000F0EBFA0021802000F093
:100C4000E7FA0AE0AC48844207D10121801500F0A0
:100C5000DFFA0021A01500F0DBFA10BD10B501216C
:100C6000084600F0D5FA0021012000F0D1FA10BDAD
:100C70002DE9F04102460025002600200023002433
:100C8000002791F803C00CF00F0591F803C01CF089
:100C9000100F03D091F802C04CEA050591F800C08E
:100CA000BCF1000F31D0146800202BE04FF0010C94
:100CB0000CFA00F3B1F800C00CEA03069E4220D102
:100CC00083004FF00F0C0CFA03F7BC4305FA03FC4A
:100CD0004CEA040491F803C0BCF1280F06D14FF090
:100CE000010C0CFA00FCC2F814C00AE091F803C031
:100CF000BCF1480F05D14FF0010C0CFA00FCC2F812
:100D000010C0401C0828D1D31460B1F800C0BCF159
:100D1000FF0F34DD546800202EE000F1080C4FF086
:100D2000010808FA0CF3B1F800C00CEA03069E4271
:100D300021D183004FF00F0C0CFA03F7BC4305FAE6
:100D400003FC4CEA040491F803C0BCF1280F05D160
:100D500000F1080C08FA0CF8C2F8148091F803C0EE
:100D6000BCF1480F07D100F1080C4FF0010808FA58
:100D70000CF8C2F81080401C0828CED35460BDE89F
:100D8000F0814FF6FF710180022181700421C17052
:100D900070470246002093680B4201D0012000E01A
:100DA000002070470146886880B2704702460020E4
:100DB000D3680B4201D0012000E0002070470146BB
:100DC000C86880B2704701617047416170470AB1DD
:100DD000016100E041617047C16070474FF48032AB
:100DE0000A43826181618261826982697047024639
:100DF0000020424B18684FF68073184040EA0210FA
:100E000008433E4B186070473D49C8617047F0B5D4
:100E10000A46002300240021002500F00046B6F118
:100E2000004F02D1354EF16901E0344E7168C0F3D4
:100E3000034583B200F44016B6F5401F08D121F0F7
:100E400070612E4E766826F070662C4F7E6012E040
:100E500000F48016B6F5801F06D1032606FA05F4C5
:100E6000A14341F0706106E0460D360103FA06F633
:100E7000B14341F0706122B1460D360103FA06F626
:100E8000314300F00046B6F1004F02D11B4EF16134
:100E900001E01A4E7160F0BD30B500228B071C0FC7
:100EA0000F2303FA04F2154B08338C1053F8243047
:100EB0009343124C08348D1044F8253023468C108F
:100EC00053F824308C07240F00FA04F423430B4C0E
:100ED00008348D1044F8253030BD0A490860704749
:100EE00000080140000C01400010014000140140C6
:100EF00000180140001C014000200140000001409A
:100F000000002042DC002042DD48006840F0010083
:100F1000DB49086008464068DA490840D84948601B
:100F200008460068D8490840D54908600846006866
:100F300020F4802008600846406820F4FE004860E5
:100F40004FF41F0088607047CD49096821F4803153
:100F5000CB4A11601146096821F480211160B0F577
:100F6000803F03D0B0F5802F0ED106E0C449096858
:100F700041F48031C24A116007E0C149096841F477
:100F8000A021BF4A116000E000BF00BF704710B54C
:100F900001460022002300204A11012A02D1B84C48
:100FA000236806E0022A02D1B54C236A01E0B44C62
:100FB000636A01F01F02012494401C4201D0012009
:100FC00000E0002010BD38B500200090002400256E
:100FD00000BF3120FFF7DBFF05460098401C009062
:100FE0000098B0F5A06F01D0002DF2D03120FFF7AE
:100FF000CEFF08B1012400E00024204638BD0146A0
:1010000000209F4A106820F0F80040EAC1001060FC
:1010100070479E490860704702460020984B586808
:1010200020F47C1042EA01031843954B5860704746
:1010300096490866704701460020914A506820F0A2
:1010400003000843506070478D48406800F00C0072
:101050007047014600208A4A506820F0F00008439B
:101060005060704701460020854A506820F4E060D7
:1010700008435060704701460020814A506820F4C0
:10108000605040EAC1005060704729B17C4A527AF2
:1010900002437B4B5A7204E0794A527A8243784B7E
:1010A0005A7270477A490860704701460020744AB6
:1010B000506820F440400843506070470021754A52
:1010C00011706F4A82F82010012802D0042808D13C
:1010D00003E001216F4A117004E005216D4A11708F
:1010E00000E000BF00BF70476B490860704764496B
:1010F000096A0143624A11627047674944390860CE
:10110000704730B500210022002400235C4D6D683B
:1011100005F00C0121B1042905D0082923D105E0EF
:101120005E4D056022E05D4D05601FE0544D6D6829
:1011300005F47012524D6D6805F48034022505EBFC
:1011400092421CB9564D554305600BE04C4D6D68FD
:1011500015F4003F03D0524D5543056002E04F4D5A
:101160005543056002E04D4D056000BF00BF444D92
:101170006D6805F0F00109094A4D6B5C0568DD40BA
:1011800045603F4D6D6805F4E061090A454D6B5CB3
:101190004568DD4085603A4D6D6805F46051C90AC7
:1011A000404D6B5C4568DD40C560354D6D6805F4AC
:1011B0004041890B3C4D6B5CC568B5FBF3F505619F
:1011C00030BD29B12E4A526902432D4B5A6104E0C9
:1011D0002B4A526982432A4B5A61704729B1284AE7
:1011E00092690243264B9A6104E0254A9269824340
:1011F000234B9A61704729B1214AD2690243204B9F
:10120000DA6104E01E4AD26982431D4BDA617047FD
:1012100029B11B4AD2680243194BDA6004E0184A2C
:10122000D2688243164BDA60704729B1144A1269BA
:101230000243134B1A6104E0114A12698243104BB6
:101240001A61704714494039086070470F49C864F3
:1012500070470B49C87170470948406A40F0807078
:1012600007494862704701460020054A92680A42D1
:1012700001D0012000E000207047014988727047CA
:10128000001002400000FFF8FFFFF6FE000042429F
:10129000D8004242201002408004424200127A00EC
:1012A00000093D002C0000203C00002010B5044641
:1012B000FB48844209D101218803FFF7A9FF0021DF
:1012C0004FF48040FFF7A4FF32E0F648844209D192
:1012D00001214804FFF7A9FF00214FF40030FFF778
:1012E000A4FF25E0F048844209D101218804FFF7DA
:1012F0009CFF00214FF48020FFF797FF18E0EB4898
:10130000844209D10121C804FFF78FFF00214FF467
:101310000020FFF78AFF0BE0E548844208D1012155
:101320000805FFF782FF00214FF48010FFF77DFFD3
:1013300010BD2DE9F04786B005460E460024A246B2
:1013400000BFA1460027B08900B100BF2F462C8AFC
:101350004CF6FF700440F08804432C82AC894EF6B2
:10136000F3100440B088318908437189084304436D
:10137000AC81AC8A4FF6FF400440B0890443AC8294
:1013800001A8FFF7BEFEC648874202D1DDF810A0D3
:1013900001E0DDF80CA0A88910F4004F08D00AEB9A
:1013A000CA0000EB0A1031684900B0FBF1F807E011
:1013B0000AEBCA0000EB0A1031688900B0FBF1F8B3
:1013C0006420B8FBF0F004012009642101FB1089BE
:1013D000A88910F4004F08D0322000EBC900B0FB00
:1013E000F1F000F00700044308E0322000EB0910A0
:1013F0006421B0FBF1F000F00F0004432C8106B033
:10140000BDE8F0874FF41651016000218180C18052
:1014100001810C21418100218181704710B5024674
:101420000020108A4FF2FF0318400B884C8823439A
:101430008C882343CC8823431843108210BD00219D
:10144000018041808180C180704721B1828942F44E
:101450000052828104E082894DF6FF731A40828136
:101460007047F0B503460024002600250020A1F5B2
:1014700010676A3F00D100BF1846C1F3421401F063
:101480001F06012707FA06F5012C01D10C3004E0F4
:10149000022C01D1103000E014301AB107682F433C
:1014A000076002E00768AF430760F0BD1AB1838AA6
:1014B0000B43838202E0838A8B4383827047028AD4
:1014C0004FF6F0731A400282028A0A430282704782
:1014D00082894FF2FF731A40828182890A43828196
:1014E000704721B1828942F00202828104E0828940
:1014F0004FF6FD731A4082817047028A4FF6DF7300
:101500001A400282028A0A430282704721B1028A8B
:1015100042F48042028204E0028A4BF6FF731A40D2
:1015200002827047C1F308028280704701468888B2
:10153000C0F308007047818941F001018181704743
:10154000028BD2B20283028B42EA012202837047ED
:10155000028B02F47F420283028B0A4302837047AC
:1015600021B1828A42F02002828204E0828A4FF610
:10157000DF731A408282704721B1828A42F01002E2
:10158000828204E0828A4FF6EF731A4082827047AB
:1015900021B1828A42F00802828204E0828A4FF6F8
:1015A000F7731A408282704721B1828942F4004267
:1015B000828103E08289C2F30E028281704721B1E9
:1015C000828A42F40062828204E0828A4FF2FF73D0
:1015D0001A4082827047828A4FF6FB731A408282D9
:1015E000828A0A438282704721B1828A42F00202D3
:1015F000828204E0828A4FF6FD731A40828270472D
:1016000002460020B1F5007F00D100BF13880B42D5
:1016100001D0012000E00020704701F40072B2F513
:10162000007F00D100BFCA430280704770B50246F8
:101630000024002300250020A1F510666A3E00D199
:1016400000BFC1F3421501F01F03012606FA03F3A0
:10165000012D02D19689334006E0022D02D1168A6F
:10166000334001E0968A33400C12012606FA04F456
:101670001688344013B10CB1012000E0002070BD89
:1016800010B500220023A1F510646A3C00D100BF10
:101690000A1201249440A3B2DC43048010BD000070
:1016A000003801400044004000480040004C004029
:1016B000005000404FF0E02148617047012808D1F8
:1016C0004FF0E021096941F001014FF0E022116182
:1016D0000EE0811C08D14FF0E021096921F00101E1
:1016E0004FF0E022116103E000214FF0E022916110
:1016F000704740B14FF0E021096941F002014FF01D
:10170000E022116107E04FF0E021096921F00201B8
:101710004FF0E022116170474FF0E0208069704780
:1017200010B50146002200230020CB10022B03D16C
:101730004FF0E024226902E04FF0E024E269012446
:101740008C40144201D0012000E0002010BD0000B8
:1017500010B586B0044601210420FFF73FFD0121AA
:101760008803FFF73BFDC248FFF7A0FD4FF4805010
:10177000ADF8140010208DF8170002208DF8160027
:1017800005A9BC48FFF774FA4FF40070ADF81400D7
:1017900001208DF8160018208DF8170005A9B5480E
:1017A000FFF766FA4FF48060ADF8140004208DF85E
:1017B000170005A9AF48FFF75BFA4FF4C060FFF7C9
:1017C00089F925208DF8100001208DF811000020E6
:1017D0008DF8120001208DF8130004A8FFF77FF99F
:1017E0000120A0404FF41661484300900020ADF85E
:1017F0000400ADF80600ADF808000C20ADF80A00B2
:101800000020ADF80C0069469948FFF792FD0121D0
:101810009748FFF71AFE012240F225519448FFF73E
:1018200020FE06B010BD00B587B001210420FFF7EF
:10183000D5FC01214804FFF7DEFC8F48FFF736FD99
:101840000420ADF8180001208DF81A0018208DF83A
:101850001B0006A98748FFF70BFA0820ADF818000F
:1018600004208DF81B0006A98248FFF701FA4FF407
:10187000C060FFF72FF926208DF8140000208DF8A6
:1018800015008DF8160001208DF8170005A8FFF748
:1018900026F94FF4165001900020ADF80800ADF87D
:1018A0000A00ADF80C000C20ADF80E000020ADF8D9
:1018B000100001A97048FFF73CFD01216E48FFF7B9
:1018C000C4FD012240F225516B48FFF7CAFD07B065
:1018D00000BD70B504460D46E1B26748FFF722FE31
:1018E00000BF80216448FFF78BFE0028F9D0204616
:1018F00070BD10B5044600BF20215F48FFF780FE91
:101900000028F9D05C48FFF711FE10BD10B5044661
:1019100021465948FFF706FE00BF80215648FFF7D1
:101920006FFE0028F9D010BD70B504460D460026A4
:101930000CE014F8011B4E48FFF7F4FD00BF8021B6
:101940004B48FFF75DFE0028F9D0761CAE42F0D37D
:1019500070BD70B504460D4600260CE014F8011B5E
:101960004548FFF7DFFD00BF80214348FFF748FEF1
:101970000028F9D0761CAE42F0D370BD10B540F20D
:1019800025513D48FFF752FEC8B140F225513A4873
:10199000FFF776FE3848FFF7C9FDC4B23748007834
:1019A0001E2809DA36483549097844543348007806
:1019B000401C3249087002E000203049087010BD18
:1019C00010B540F225512A48FFF730FE00284DD0CF
:1019D00040F225512648FFF753FE2A480078002898
:1019E00044D12348FFF7A2FDC4B22748274909780C
:1019F000445426480078401C244908700846007862
:101A0000012805D1FF2C03D0A02C01D000200870A4
:101A10001E480078072803D11B480078FF2807D00C
:101A20001A480078082806D117480078A02802D163
:101A300001201449087014480078FF2808D1134881
:101A40000078072190FBF1F201FB12000F490870AA
:101A50000D480078A02809D10C490878C11700EB7F
:101A60005171C910A0EBC101084A117010BD0000EE
:101A700000380140000801400044004040000020C0
:101A800024050020420000204205002041000020E3
:101A900008B501210420FFF7A1FB01210820FFF771
:101AA0009DFB4FF48170ADF8000010208DF803000D
:101AB00002208DF8020069461148FFF7D9F84FF46B
:101AC00080710F48FFF77FF902210D48FFF77BF97E
:101AD0004AF20400ADF8000010208DF80300022047
:101AE0008DF8020069460748FFF7C2F84FF400413D
:101AF0000448FFF76AF904210248FFF766F908BDB8
:101B000000080140000C014030B500BF1D480068CE
:101B10004FF47A72B0FBF2F1B1F1807F01D3012072
:101B20001DE021F07F40401E4FF0E0225061501731
:101B30000F22002807DA13071D0E134B00F00F04C5
:101B4000241F1D5503E013071C0E104B1C5400BF2F
:101B500000204FF0E0229061072010610020002853
:101B6000D4D130BD0A49088000BF0949098800293D
:101B7000FBD170470649088000BF05490988002944
:101B8000FBD170471800002018ED00E000E400E0F1
:101B90001600002070B505460026002401E0601CF8
:101BA000C4B2285DFF28FAD1601CC6B2314628466F
:101BB000FFF7CFFE0A20FFF7DDFF70BD10B50A2446
:101BC00005E0F7490819214608F030FA641CEC2CAE
:101BD000F7D3F348807AF3490870F148C07AF249A4
:101BE0000870EF48007BF1490870ED48407BF049F0
:101BF0000870EB48807BEF490870E948407CEE496B
:101C00000870E748007CED490870E548407CEC49E5
:101C10000870E348807CEB490870E14890F8370091
:101C2000E9490870DE4890F83800E8490870DC4857
:101C300090F83900E6490870D94890F83A00E5492B
:101C40000870D74890F83B00E3490870D44890F8F2
:101C50003C00E2490870D24890F83D00E049087025
:101C6000CF4890F83E00DF490870CD4890F83F001B
:101C7000DD490870CA48807EDC490870C848C07ECB
:101C8000DB490870C64890F84400DA490870C44837
:101C9000C07CD9490870C248007DD8490870C04846
:101CA000407DD7490870BE48807DD6490870BC4841
:101CB000C07DD5490870BA48007ED4490870B8483C
:101CC000407ED3490870B648407FD2490870B44876
:101CD000807FD1490870B248C07FD0490870B048B1
:101CE00090F82000CE490870AD4890F82100CD4909
:101CF0000870AB4890F84000CB490870A84890F8AD
:101D00004100CA4908700120C9490870A44890F8E8
:101D10004200C8490870A24890F84300C6490870BC
:101D20009F4890F84400C54908709D4890F84500C8
:101D3000C34908709A4890F84600C249087098480C
:101D400090F84700C049087000240BE004F14800F7
:101D50009349085C6108BD4A02EB410104F00102AD
:101D60008854641C062CF1D38D4890F82200B849A1
:101D70000870002411E00520B4FBF0F000EB8000B7
:101D8000B44901440520B4FBF0F200FB124204F117
:101D90002300834B185C8854641C142CEBD3A64896
:101DA0000078AD490870A5480078AC490870AC4887
:101DB0000078AB490870AB480078AA4908707B48A6
:101DC0000078A94908707B480078A849087010BDC0
:101DD0002DE9F05F04460D4616461F46DDE90CABC3
:101DE000DDE90A898120A249087001204870042099
:101DF00088707320C8702819087108464671877169
:101E000080F8078080F8089080F809A080F80AB070
:101E10000E98C8720F9808731098487311988873B9
:101E2000FF20C87310219248FFF793FD1420FFF79D
:101E3000A1FEBDE8F09F2DE9F04389B00026002007
:101E40008C4908708C48FFF7A5FE6420FFF792FECE
:101E50008848007807287ADB86480078C01F8749C1
:101E6000085C902873D183480078801F085C502854
:101E7000F8D180480078401E085CFF28F2D17D48E8
:101E80000078401F085C01037A480078001F7B4AF5
:101E9000105C01EB002177480078C01E105C01EB5C
:101EA000001174480078801E105C084486B200253A
:101EB0000FE0734830F81500B04208DC7049681C28
:101EC00031F81000B04202DD681CC4B203E0681CA7
:101ED000C5B21E2DEDDB00BF1E2D01D1A81CC4B262
:101EE000142C05DDA4F1140000EB80008006040E24
:101EF0002D480470632C2BDD0A2094FBF0F100FBCD
:101F0000114060490F5C0A2094FBF0F00A2190FB1D
:101F1000F1F201FB12005B4911F80080642094FB90
:101F2000F0F011F800901B20CDE90570CDF810807D
:101F300007904A200C210E221346CDE90209CDE973
:101F40000021192220210A20FFF742FFB5E0BDE061
:101F5000092C24DD0A2094FBF0F100FB11404949D3
:101F60000F5C0A2094FBF0F00A2190FBF1F201FBD8
:101F70001200444911F800801B20CDE9047006903E
:101F800007904A200C210E221346CDE90208CDE924
:101F90000021192220210A20FFF71AFF8DE073E0AB
:101FA000240300204D0000204E0000204F000020A0
:101FB000500000205100002052000020530000205B
:101FC000540000205500002056000020570000203B
:101FD00058000020590000205A0000205B0000201B
:101FE0005C0000205D0000205E0000205F000020FB
:101FF00060000020610000206200002063000020DB
:1020000064000020650000206600002067000020BA
:1020100068000020690000206A0000206B0000209A
:102020006C0000206D0000206E0000206F0000207A
:10203000700000207100002072000020730000205A
:10204000740000207500002076000020770000203A
:102050007F00002080000020F5020020F602002012
:10206000F7020020F8020020D3020020D402002052
:1020700010030020400000208F02002024050020D3
:102080009E000020B0A100080A2094FBF0F100FBA4
:102090001140F8490F5C1B200490059006900790B2
:1020A0004A200C210E221346CDE90207CDE900217A
:1020B000192220210A20FFF78BFEEF48FFF76AFD67
:1020C0000120EE4908700020ED49086009B0BDE824
:1020D000F08310B596B0EB4903C9CDE91401142281
:1020E000E84908310FA808F001F81422E5491C312D
:1020F0000AA807F0FBFF1422E249303105A807F0D7
:10210000F5FF1422DF494431684607F0EFFF032052
:10211000DD4988720120C8720873487300208873F3
:102120004874087448740E208874042081F83700BD
:1021300081F83800072081F83900022081F83A0040
:10214000002081F83B00012081F83C0081F83D002F
:1021500081F83E00002081F83F008876CA20C876CA
:10216000AF2008770020C87405200875092048753D
:102170008875C875012008764876487703208877E7
:10218000C877012081F8200081F8210081F8400003
:1021900081F84100BD4908700020BB4981F8420028
:1021A000012081F84300022081F84400012081F8D9
:1021B000450081F84600002081F8470002240BE02A
:1021C000600814A901EB400004F00101415C04F136
:1021D0004800AD4A1154641C082CF1D3AC48007877
:1021E000A94981F82200002411E00520B4FBF0F099
:1021F00000EB80000FA908440521B4FBF1F201FBBC
:102200001241415C04F123009F4A1154641C142CB8
:10221000EBD303209C4981F84E00012081F84F0048
:10222000002081F8500081F8510081F852000E2002
:1022300081F85300042081F8770081F878000720A6
:1022400081F87900022081F87A00002081F87B0073
:10225000012081F87C0081F87D0081F87E0000205B
:1022600081F87F0081F85A00CA2081F85B00AF2016
:1022700081F85C00002081F85400052081F85500A9
:10228000092081F8550081F8560081F85700012097
:1022900081F8580081F8590081F85D00032081F829
:1022A0005E0081F85F00012081F8600081F8610024
:1022B00081F8800081F88100002081F882000024EC
:1022C00011E00520B4FBF0F000EB80000AA90844FF
:1022D0000521B4FBF1F201FB1241415C04F1630002
:1022E000694A1154641C142CEBD30320664981F80D
:1022F0008300052081F88400002081F8850081F8A2
:10230000860081F887000E2081F88800042081F87B
:10231000AC0081F8AD00072081F8AE00022081F802
:10232000AF00002081F8B000012081F8B10081F8F1
:10233000B20081F8B300002081F8B40081F88F006A
:10234000CA2081F89000AF2081F89100002081F828
:102350008900052081F88A00092081F88A0081F827
:102360008B0081F88C00012081F88D0081F88E00AF
:1023700081F89200032081F8930081F894000120F5
:1023800081F8950081F8960081F8B50081F8B600D3
:10239000002081F8B700002411E00520B4FBF0F024
:1023A00000EB800005A908440521B4FBF1F201FB14
:1023B0001241415C04F19800334A1154641C142CFE
:1023C000EBD30320304981F8B8000A2081F8B90026
:1023D000002081F8BA0081F8BB0081F8BC000E2013
:1023E00081F8BD00042081F8E10081F8E2000720B7
:1023F00081F8E300022081F8E400002081F8E50084
:10240000012081F8E60081F8E70081F8E80000206B
:1024100081F8E90081F8C400CA2081F8C500AF2026
:1024200081F8C600002081F8BE00052081F8BF00B9
:10243000092081F8BF0081F8C00081F8C1000120A7
:1024400081F8C20081F8C30081F8C700032081F839
:10245000C80081F8C900012081F8CA0081F8CB00CA
:1024600081F8EA0081F8EB00002081F8EC000024FC
:1024700022E00000B0A10008760200204400002005
:1024800048000020A0A300082403002070000020C2
:102490007F0000200520B4FBF0F000EB80006946CF
:1024A00008440521B4FBF1F201FB1241415C04F147
:1024B000CD00FB4A1154641C142CEBD30A2405E014
:1024C000F749085D214607F085FD641CEC2CF7D325
:1024D0004FF4FA60FFF74EFB4FF4FA60FFF74AFB48
:1024E0007220F0490871F0490878C11700EB1171AA
:1024F0000911EC4A5171EC490878C11700EB1171D0
:102500000911A0EB011191711046FFF743FB4FF445
:102510007A70FFF72FFB7220E2490871E2490878D0
:10252000C11700EB11710911DE4A5171DE490878BB
:10253000C11700EB11710911A0EB01119171104647
:10254000FFF728FB16B010BD2DE9F05F04460D46DD
:1025500016461F46DDE90CABDDE90A89D348057054
:102560004670877080F8038080F8049080F805A09A
:1025700080F806B0CD490E98C8710F98087210986F
:1025800048722146C948FFF7E4F91420FFF7F2FA30
:10259000BDE8F09F70B5054635B1012D7ED0022D06
:1025A0007DD0032D7CD1BCE2C1480078BC49887243
:1025B000C0480078C872C04800780873BF480078E7
:1025C0004873BF4800788873BE4800784874BE4896
:1025D00000780874BD4800784874BD480078887455
:1025E000BC48007881F83700BB48007881F8380093
:1025F000BA48007881F83900B948007881F83A0083
:10260000B848007881F83B00B748007881F83C0072
:10261000B648007881F83D00B548007881F83E0062
:10262000B448007881F83F00B34800788876B34812
:102630000078C876B24800780877B2480078C87445
:10264000B14800780875B14800784875B0480078FE
:102650008875B0480078C875AF4800780876AF48EC
:1026600000784876AE4800784877AE48007888779A
:10267000AD480078C877AD48007881F82000AC48B4
:10268000007881F82100AB48007881F84000AA4822
:10269000007881F84100A948007802E057E07BE12A
:1026A00004E381F84200A648007881F84300A54879
:1026B000007881F84400A448007881F84500A348D8
:1026C000007881F84600A248007881F8470002248B
:1026D00013E0204604EBD07252109E4B03EB4202F3
:1026E000214604EBD1735B10A4EB4303D35C04F1EC
:1026F00048026B4EB354601CC4B2082CE9DB964808
:102700000078674981F82200002412E0052094FB3C
:10271000F0F000EB800091490844052194FBF1F2B0
:1027200001FB1241415C04F123005D4A1154601C1D
:10273000C4B2142CEADB0A2406E05949085D21469C
:1027400007F048FC601CC4B24E2CF6DBAFE25848E0
:102750000078534981F84E005648007881F84F00C0
:102760005848007881F850005748007881F85100A7
:102770005648007881F852005548007881F8530097
:102780005448007881F877005348007881F8780041
:102790005248007881F879005148007881F87A0031
:1027A0005048007881F87B004F48007881F87C0021
:1027B0004E48007881F87D004D48007881F87E0011
:1027C0004C48007881F87F004B48007881F85A0027
:1027D0004A48007881F85B004948007881F85C003D
:1027E0004848007881F854004748007881F855003F
:1027F0004648007881F855004548007881F8560031
:102800004448007881F857004348007881F8580020
:102810004248007881F859004148007881F85D000D
:102820004048007881F85E003F48007881F85F00FA
:102830003E48007881F860003D48007881F86100EA
:102840003C48007881F880003B48007881F881009E
:102850003A48007881F88200002412E0052094FBB9
:10286000F0F000EB80003D490844052194FBF1F2B3
:1028700001FB1241415C04F16300094A1154601CE0
:10288000C4B2142CEADB4E2406E00549085D21465B
:1028900007F0A0FB601CC4B2832CF6DB022478E0B6
:1028A000240300207C02002095A3000810030020D0
:1028B0004D0000204E0000204F000020500000205E
:1028C000510000205200002053000020540000203E
:1028D000550000205600002057000020580000201E
:1028E000590000205A0000205B0000205C000020FE
:1028F0005D0000205E0000205F00002060000020DE
:1029000061000020620000206300002064000020BD
:10291000650000206600002067000020680000209D
:10292000690000206A0000206B0000206C0000207D
:102930006D0000206E0000206F000020710000205C
:102940007200002073000020740000207500002039
:1029500076000020770000207F000020800000200B
:10296000204604EBD0725210FE4B03EB420221468C
:1029700004EBD1735B10A4EB4303D35C04F1480276
:10298000F94EB35448313346985C07F023FB601C82
:10299000C4B2042CE4DB8AE1F4480078F24981F8FF
:1029A0008300F348007881F88400F248007881F8C9
:1029B0008500F148007881F88600F048007881F8B9
:1029C0008700EF48007881F88800EE48007881F8A9
:1029D000AC00ED48007881F8AD00EC48007881F853
:1029E000AE00EB48007881F8AF00EA48007881F843
:1029F000B000E948007881F8B100E848007881F833
:102A0000B200E748007881F8B300E648007881F822
:102A1000B400E548007881F88F00E448007881F838
:102A20009000E348007881F89100E248007881F84E
:102A30008900E148007881F88A00E048007881F850
:102A40008A00DF48007881F88B00DE48007881F842
:102A50008C00DD48007881F88D00DC48007881F832
:102A60008E00DB48007881F89200DA48007881F81F
:102A70009300D948007881F89400D848007881F80C
:102A80009500D748007881F89600D648007881F8FC
:102A9000B500D548007881F8B600D448007881F8B0
:102AA000B700002412E0052094FBF0F000EB80005A
:102AB000CF490844052194FBF1F201FB1241415C2E
:102AC00004F19800A84A1154601CC4B2142CEADB2B
:102AD000832406E0A449085D214607F07BFA601CC8
:102AE000C4B2B82CF6DB042418E0204604EBD07204
:102AF00052109C4B03EB4202214604EBD1735B1056
:102B0000A4EB4303D35C04F14802974EB35448311D
:102B10003346985C07F05EFA601CC4B2062CE4DB16
:102B2000C5E092480078904981F8B8009048007854
:102B300081F8B9008F48007881F8BA008E48007893
:102B400081F8BB008D48007881F8BC008C48007883
:102B500081F8BD008B48007881F8E1008A48007850
:102B600081F8E2008948007881F8E300884800781D
:102B700081F8E4008748007881F8E500864800780D
:102B800081F8E6008548007881F8E70084480078FD
:102B900081F8E8008348007881F8E90082480078ED
:102BA00081F8C4008148007881F8C5008048007829
:102BB00081F8C6007F48007881F8BE007E48007822
:102BC00081F8BF007D48007881F8BF007C4800781C
:102BD00081F8C0007B48007881F8C1007A4800780D
:102BE00081F8C2007948007881F8C30078480078FD
:102BF00081F8C7007748007881F8C80076480078E7
:102C000081F8C9007548007881F8CA0074480078D6
:102C100081F8CB007348007881F8EA0072480078A8
:102C200081F8EB007148007881F8EC00002412E094
:102C3000052094FBF0F000EB80006D49084405216D
:102C400094FBF1F201FB1241415C04F1CD00464AD4
:102C50001154601CC4B2142CEADBB82406E04249CB
:102C6000085D214607F0B6F9601CC4B2ED2CF6DB16
:102C7000062418E0204604EBD0725210394B03EBC7
:102C80004202214604EBD1735B10A4EB4303D35CF7
:102C900004F14802344EB35448313346985C07F08F
:102CA00099F9601CC4B2082CE4DB00E000BF00BF4F
:102CB00070BD10B504464F48C0790121A14088433A
:102CC0004C49C8710846FEF765FF10BD10B50446B3
:102CD0004848C0790121A14008434649C8710846C7
:102CE000FEF758FF4448047104EB8401404A114444
:102CF0004878C11700EB117109113F4A517104EB7B
:102D000084013B4A11444878C11700EB1171091145
:102D1000A0EB0111384A917104EB8401344A11444B
:102D20008878C11700EB11710911334AD17104EB96
:102D300084012F4A11448878C11700EB11710911E1
:102D4000A0EB01112C4A117204EB8401284A1144B2
:102D5000C878C11700EB11710911274A517204EBB1
:102D600084014BE077000020240300204D00002068
:102D70004E0000205200002053000020540000208C
:102D80005500002056000020570000205800002069
:102D9000590000205A0000205B0000205C00002049
:102DA0005D0000205E0000205F0000206000002029
:102DB0006100002062000020630000206400002009
:102DC00065000020660000206700002068000020E9
:102DD000690000206A0000206B0000206C000020C9
:102DE0006D0000206E0000206F00002071000020A8
:102DF00080000020420200204B020020FE4A1144C5
:102E0000C878C11700EB11710911A0EB0111FB4A41
:102E1000917204EB8401F84A11440879C11700EB60
:102E200011710911F54AD17204EB8401F24A11447F
:102E30000879C11700EB11710911A0EB0111EF4ADC
:102E400011731046FEF7A6FEED48FEF7A3FE10BD77
:102E500070B5054635B1012D7ED0022D7DD0032DF4
:102E60007CD179E2E748807AE7490870E548C07A82
:102E7000E6490870E348407CE5490870E148007C79
:102E8000E4490870DF48407CE3490870DD48807CF5
:102E9000E2490870DB4890F83700E1490870D948EA
:102EA00090F83800DF490870D64890F83900DE49BC
:102EB0000870D44890F83A00DC490870D14890F87E
:102EC0003B00DB490870CF4890F83C00D9490870B6
:102ED000CC4890F83D00D8490870CA4890F83E00A8
:102EE000D6490870C74890F83F00D5490870C548D2
:102EF000807ED4490870C348C07ED3490870C14859
:102F0000007FD2490870BF48C07CD1490870BD48D5
:102F1000007DD0490870BB48407DCF490870B94852
:102F2000807DCE490870B748C07DCD490870B5484E
:102F3000007ECC490870B348407ECB490870B14848
:102F4000407FCA490870AF48807FC9490870AD48C2
:102F5000C07FC849087002E037E0F3E0B9E2A94851
:102F600090F82000C4490870A64890F82100C34991
:102F70000870A44890F84000C1490870A14890F832
:102F80004100C04908709F4890F84200BE4908704F
:102F90009C4890F82200BD490870002412E00520EA
:102FA00094FBF0F000EB800093490144052094FB72
:102FB000F0F200FB124204F12300924B185C88549B
:102FC000601CC4B2142CEADB84E28E4890F84E00F8
:102FD0008D4908708B4890F84F008C4908708948DB
:102FE00090F852008A490870864890F85100894943
:102FF0000870844890F8520087490870814890F81A
:103000005300864908707F4890F87700844908701B
:103010007C4890F87800834908707A4890F87900E5
:1030200081490870774890F87A008049087075489F
:1030300090F87B007E490870724890F87C007D49CA
:103040000870704890F87D007B4908706D4890F8D2
:103050007E007A4908706B4890F87F0078490870C4
:10306000684890F85A0077490870664890F85B0005
:1030700075490870634890F85C00744908706148AD
:1030800090F85400724908705E4890F855007149F4
:1030900008705C4890F855006F490870594890F8DE
:1030A00056006E490870574890F857006C490870F0
:1030B000544890F858006B490870524890F85900ED
:1030C000694908704F4890F85D00684908704D489C
:1030D00090F85E00664908704A4890F85F006549BC
:1030E0000870484890F8600063490870454890F8B7
:1030F000610062490870434890F880006049087098
:10310000404890F881005F4908703E4890F862009E
:103110005E490870002412E0052094FBF0F000EBFB
:10312000800035490144052094FBF0F200FB124277
:1031300004F16300334B185C8854601CC4B2142C37
:10314000EADBC7E12F4890F883002F4908702D482B
:1031500090F884002D4908702A4890F887002C497F
:103160000870284890F886002A490870254890F889
:10317000870029490870234890F88800274908707B
:10318000204890F8AC00264908701E4890F8AD0021
:10319000244908701B4890F8AE002349087019486C
:1031A00090F8AF0021490870164890F8B000204907
:1031B0000870144890F8B1001E490870114890F842
:1031C000B2001D4908700F4890F8B3001B49087001
:1031D0000C4890F8B4001A4908700A4890F88F001B
:1031E00018490870074890F890001749087005487A
:1031F00090F8910015494BE0800000204B02002020
:1032000059020020240300204D0000204E00002021
:1032100052000020530000205400002055000020E0
:1032200056000020570000205800002059000020C0
:103230005A0000205B0000205C0000205D000020A0
:103240005E0000205F000020600000206100002080
:103250006200002063000020640000206500002060
:103260006600002067000020680000206900002040
:103270006A0000206B0000206C0000206D00002020
:103280006E0000206F000020710000207F000020F1
:103290000870FE4890F88900FD490870FB4890F8D6
:1032A0008A00FC490870F94890F88A00FA490870C9
:1032B000F64890F88B00F9490870F44890F88C00B3
:1032C000F7490870F14890F88D00F6490870EF480A
:1032D00090F88E00F4490870EC4890F89200F34999
:1032E0000870EA4890F89300F1490870E74890F8B0
:1032F0009400F0490870E54890F89500EE49087090
:10330000E24890F89600ED490870E04890F8B50062
:10331000EB490870DD4890F8B600EA490870DB48D0
:1033200090F89700E8490870002412E0052094FB0B
:10333000F0F000EB8000E5490144052094FBF0F239
:1033400000FB124204F19800D04B185C8854601CBA
:10335000C4B2142CEADBBDE0CC4890F8B800DC49DC
:103360000870CA4890F8B900DA490870C74890F860
:10337000BC00D9490870C54890F8BB00D74908700F
:10338000C24890F8BC00D6490870C04890F8BD000B
:10339000D4490870BD4890F8E100D3490870BB4893
:1033A00090F8E200D1490870B84890F8E300D0499D
:1033B0000870B64890F8E400CE490870B34890F819
:1033C000E500CD490870B14890F8E600CB49087097
:1033D000AE4890F8E700CA490870AC4890F8E80099
:1033E000C8490870A94890F8E900C7490870A7487B
:1033F00090F8C400C5490870A44890F8C500C449B5
:103400000870A24890F8C600C24908709F4890F81A
:10341000BE009F4908709D4890F8BF009D49087004
:103420009A4890F8BF009C490870984890F8C000EE
:103430009A490870954890F8C100994908709348D6
:1034400090F8C20097490870904890F8C3009649D8
:1034500008708E4890F8C700944908708B4890F81F
:10346000C80093490870894890F8C90091490870CC
:10347000864890F8CA0090490870844890F8CB00BC
:103480008E490870814890F8EA008D4908707F489D
:1034900090F8EB008B4908707C4890F8CC008A4982
:1034A0000870002412E0052094FBF0F000EB80008F
:1034B00086490144052094FBF0F200FB124204F11E
:1034C000CD00724B185C8854601CC4B2142CEADB2B
:1034D00000E000BF00BF7E4800788F4908707D483B
:1034E00000788E4908707C4800788D4908707B48C8
:1034F00000788C4908707A4800788B4908707948C0
:1035000000788A49087078480078894908707748B7
:1035100000788849087076480078874908707548AF
:1035200000788649087074480078854908707348A7
:10353000007884490870724800788349087071489F
:1035400000788249087070480078814908706F4897
:103550000078804908706E4800787F4908706D488F
:1035600000787E4908704A4800787D4908704948CB
:1035700000787C490870484800787B4908704748C3
:1035800000787A49087046480078794908704548BB
:1035900000787849087044480078774908704348B3
:1035A00000787649087042480078754908704148AB
:1035B00000787449087040480078734908703F48A3
:1035C0000078724908703E480078714908703D489B
:1035D00000787049087070480078704908703A485F
:1035E00000786F49087000241BE0052094FBF0F080
:1035F00000EB800035490844052194FBF1F201FB02
:103600001241405C052194FBF1F101EB8101654A17
:103610001144052294FBF2F302FB13428854601C10
:10362000C4B2142CE1DB60480078184981F84700E7
:1036300091F84700472106F0CDFC15480078052891
:1036400022D2DFE800F00307DCF6F4005748FEF76B
:10365000A1FA31E15648FEF79DFA0E490878C117E4
:1036600000EB11710911534A91710A490878C11789
:1036700000EB11710911A0EB0111D1711046FEF799
:1036800089FA0548007897E015E10000240300203E
:10369000620000206300002064000020650000201C
:1036A00066000020670000206800002069000020FC
:1036B0006A0000206B0000206C0000206D000020DC
:1036C0006E0000206F0000207F000020800000209E
:1036D0004D0000204E00002052000020530000202A
:1036E0005400002055000020560000205700002004
:1036F00058000020590000205A0000205B000020E4
:103700005C0000205D0000205E0000205F000020C3
:103710006000002061000020D1020020D2020020C1
:10372000D5020020D6020020D7020020D8020020B7
:10373000D9020020DA020020DB020020DC02002097
:10374000DD020020DE020020DF020020E002002077
:10375000E1020020E2020020E3020020E402002057
:10376000E5020020E6020020E7020020E802002037
:10377000E9020020EA020020EB020020EC02002017
:10378000ED020020EE020020EF020020F0020020F7
:10379000F1020020F202002071000020F40200205B
:1037A000F90200206005002076000020580100206A
:1037B0005E01002082010020001D0F2801DD012094
:1037C00000E00020FE498871FE49097809B900210E
:1037D00008E0FC490878C11700EB11710911A0EB52
:1037E0000111091DF64AD1711046FEF7D3F9F648CA
:1037F0000078F649C8710846FEF7CCF95CE0F44859
:10380000FEF7C8F9F3490878C11700EB11710911E7
:10381000F14A9171EF490878C11700EB1171091154
:10382000A0EB0111D1711046FEF7B4F944E021E09C
:10383000FFE7EA48FEF7AEF9E2480078001D0F28DE
:1038400001DD012000E00020DD498871DD490978B3
:1038500009B9002108E0DB490878C11700EB1171B4
:103860000911A0EB0111091DD54AD1711046FEF7CF
:1038700091F921E0DA48FEF78DF9DA480078001D69
:103880000F2801DD012000E00020D7498871D549CB
:10389000097809B9002108E0D2490878C11700EB7E
:1038A00011710911A0EB0111091DCF4AD171104608
:1038B000FEF770F900E000BF00BFCC480078CC49AB
:1038C00008710846FEF766F9CA480078CA490871C7
:1038D0000846FEF75FF9C948FEF75CF9C848FEF7ED
:1038E00059F9C8480078801CC74908710846FEF796
:1038F00051F9C6480078801CC54908710846FEF792
:1039000049F9C4480078C44908710846FEF742F9ED
:10391000C2480078C24908710846FEF73BF9C14821
:103920000078C14908710846FEF734F9BD480078AF
:10393000082803D0BB480078052828D1BB4908785F
:10394000C11700EB11710911B94A9171B749087893
:10395000C11700EB11710911A0EB0111D1711046D3
:10396000FEF718F9B3490878C11700EB1171091176
:10397000B14A9171AF490878C11700EB1171091173
:10398000A0EB0111D1711046FEF704F906E0A5483D
:103990000078032802D1A948FEF7FCF8A84800786F
:1039A000801CA84908710846FEF7F4F8A648FEF7FF
:1039B000F1F8A6480078A64908710846FEF7EAF82B
:1039C000A4480078A44908710846FEF7E3F8A34824
:1039D0000078A349C8710846FEF7DCF8A1480078D2
:1039E000A149C8710846FEF7D5F8A0480078A0495B
:1039F000C8710846FEF7CEF89E4800789E490871C7
:103A00000846FEF7C7F89D4800789D4908710846AA
:103A1000FEF7C0F89B480078801C9B490871084657
:103A2000FEF7B8F899480078801C99490871084653
:103A3000FEF7B0F8974800784006000E96490871E6
:103A40000846FEF7A7F895480078801C944908714D
:103A50000846FEF79FF893480078801C9249087149
:103A60000846FEF797F800240DE004EB84008F4928
:103A7000085C18B92046FFF729F902E02046FFF755
:103A800018F9601CC4B2042CEFDB89480078401E92
:103A9000884911F820008849087185480078401E3F
:103AA000844901EB80004078834948718048007860
:103AB000401E804901EB800080787F4988717C48F6
:103AC0000078401E7B4901EB8000C0787A49C871BC
:103AD0000846FEF75FF870BD10B58CB000200B9063
:103AE0004FF47A70FEF746F825E04FF47A70FEF74F
:103AF00041F80020714908707148FEF74BF80B98A7
:103B0000401C0B903220FEF735F86C4800780028F6
:103B100011DD6C48007890280DD16A484078502813
:103B200009D168488078022805D16648C078FF2806
:103B300001D106200B900B980528D6D304216248AA
:103B4000FDF741F90020FF210422CDE90302CDE970
:103B500005100820002147220423CDE9002102900E
:103B6000012281210920FEF7EFFC0020FF210390B4
:103B7000CDE904010721482206900423CDE9002164
:103B80000290012281210920FEF7DEFC4F480078D7
:103B9000FFF75EF94FF47A70FDF7ECFF4C48FDF744
:103BA000F9FF01201B2104910591CDE90610009138
:103BB000019102910B460A4603912021022089E0DF
:103BC0008B0100206400002065000020940100208B
:103BD0006401002063000020820100206A010020AF
:103BE00070010020660000209D0100206700002079
:103BF00076010020680000207C010020CA0200201D
:103C00008402002052000020A60100205300002062
:103C1000AC01002054000020B2010020550000201B
:103C2000B80100205F000020C101002060000020DA
:103C3000C701002061000020D0010020D901002030
:103C4000690000201E0200203C0200206A000020C3
:103C5000240200206D0000203602002056000020C3
:103C6000DF01002057000020E8010020580000205C
:103C7000F101002059000020FA0100205A00002024
:103C8000000200205B000020060200205C000020F3
:103C90000C0200205E000020180200206E000020B0
:103CA000640200206F0000206A02002080000020D3
:103CB0004E000020DC000020940000204000002086
:103CC0008A02002024050020000C0140760000201C
:103CD00070020020FEF77CF827204C211E221523BD
:103CE000CDE90432CDE906101B202521272222230D
:103CF000CDE90032CDE902101E231122302102202D
:103D0000FEF766F81B2012220492CDE905200790E9
:103D100004201121032200920023CDE90121039008
:103D20001B2220210320FEF753F8FE4800780A21C9
:103D300090FBF1F201FB1200FB49085C0A90F94884
:103D400000780A280BDDF74800780A2190FBF1F291
:103D500092FBF1F001FB1020F349085C00E01B200E
:103D60000990F0480078642807DDEE480078642167
:103D700090FBF1F1EC48405C00E01B2008901B2315
:103D8000DDE90921CDE90430009301930293039307
:103D9000CDE906211A4630210320FEF719F81B2031
:103DA000042113220023CDE90432CDE906101120AD
:103DB00003211422CDE90032CDE9021001231B2298
:103DC00020210420FEF704F8D8480178012088401B
:103DD00000EB4000C0000A2190FBF1F201FB120051
:103DE000D149085C0A90D14801780120884000EB55
:103DF0004000C0000A2190FBF1F2084692FBF0F16E
:103E000000FB1120C849085C0990C84801780120CE
:103E1000884000EB4000C00064280CDDC3480178F6
:103E20000120884000EB4000C000642190FBF1F0CD
:103E3000BD49085C00E01B2027230890DDE909014B
:103E400004AA0BC207931B210898009101910B460D
:103E50000A46CDE9021030210420FDF7B9FF1B20EE
:103E60000B210E220223CDE90432CDE906101321E5
:103E70001123CDE900320F23CDE9021202462021A1
:103E80000520FDF7A5FF03204E210F224F23CDE98A
:103E90000432CDE906100E2002210B220423CDE9C5
:103EA0000032CDE902100F231B2230210520FDF73F
:103EB0008FFF1B201323CDE90430069007900020CC
:103EC0000C2111220E23CDE90032CDE90210052389
:103ED0001B2220210620FDF77BFF95480078C0EBD0
:103EE000C00094490844807991490978C1EBC10127
:103EF000904A114449798E4A1278C2EBC2028D4B26
:103F00001A4412798A4B1B78C3EBC303894C2344B0
:103F1000DB78CDE90432CDE9061085480078C0EBA6
:103F2000C00021460844807881490978C1EBC1016D
:103F30002246114449787E4A1278C2EBC2022346D7
:103F40009A5C1B23CDE90032CDE902101A463021DC
:103F50000620FDF73DFF0420132108220D23CDE9A3
:103F60000432CDE906101B21009101910B46CDE9E9
:103F700002120A4620210820FDF72AFF1B20049088
:103F8000059006900A220E230790CDE901200093A8
:103F900003900346032230210820FDF719FF6648ED
:103FA000FDF7F8FD41F28830FDF7E4FD6348FDF7C9
:103FB000F1FDFDF740FF6248FDF7ECFD0CB010BDD0
:103FC00010B588B001245D48FDF7E4FD05200D2102
:103FD0000E220223CDE90432CDE906101B20042174
:103FE00015220023CDE90032CDE90210122302464A
:103FF00020210420FDF7ECFE1B2004900590069084
:1040000007900090019002901C23024630210390FB
:104010000420FDF7DDFE1B2004900590069012227F
:1040200004230790CDE901200093039004EB840062
:1040300000EBC4001B2101EB800218232021052086
:10404000FDF7C6FE1B200490059006900790009097
:104050000190029003460246302103900520FDF7AF
:10406000B7FE1B200490059006900E230790CDE923
:1040700000300290039004EB840000EBC4004F2159
:10408000A1EB8000C2B20D2320210620FDF7A0FE87
:104090001B200490059006900790009001900290DC
:1040A00003460246302103900620FDF791FE224888
:1040B000FDF770FD0020234908706DE000202149C4
:1040C000087005F03BFD1F49087008460078052878
:1040D00002D006285ED100BFC4F10100C4B29CB377
:1040E0001B20049005900690122204230790CDE92E
:1040F00001200093039018234F2220210520FDF773
:1041000067FE1B200490059006900E230790CDE9D2
:10411000003002900D230246202103900620FDF777
:1041200057FE33E074000020B0A1000873000020A7
:10413000710000204FA300087602002070020020CA
:10414000CA0200200D030020FFE71B200490059009
:104150000690122204230790CDE9012000930390DA
:104160001823024620210520FDF732FE1B20049073
:10417000059006900E230790CDE9003002900D23A4
:104180004F22202103900620FDF722FEF748FDF77D
:1041900001FD00E000BF00BFF5480078072807D008
:1041A000F3480078082803D0F2480078002885D129
:1041B000F148FDF7EFFC0020ED490870204608B0FB
:1041C00010BD03B589B0099806287DD2DFE800F05C
:1041D00003285494CEFE1B2004900590069007906F
:1041E0000090019002900346024620210390002097
:1041F000FDF7EEFD1320042112221B23CDE904322A
:10420000CDE906100C200E211923CDE900311B2326
:104210001A46CDE9021030210020FDF7D9FD13E147
:1042200004200F221223CDE90520049307901B20C0
:104230000C210E220092CDE901210390CF490A986A
:10424000085C19230246202108900120FDF7C0FDDB
:10425000CB48CC490978405C1B2104910591CDE9FC
:1042600006100091019102910B4603220391302127
:104270000120FDF7ADFDE7E01B200C210E2204928A
:10428000CDE90521079019201B2106220823CDE93D
:104290000032CDE90210B9490A98085C03230246AE
:1042A000202108900220FDF793FDB748007890B1D7
:1042B00005200E221B23CDE90520049300930193D2
:1042C00002931A46302100E0BDE0039307900220DC
:1042D000FDF77EFD0FE00D200E211B220492CDE99B
:1042E0000521009201920292134630210392079019
:1042F0000220FDF76DFDA7E01B20049005900690BD
:10430000032212230790CDE901209C4900930390DA
:104310000A98085C0E230246202108900320FDF72E
:1043200057FD9A48007880B105200E221B23CDE965
:10433000052004930093019302931A4630210393BE
:1043400007900320FDF744FD0FE00D200E211B22F6
:104350000492CDE905210092019202921346302188
:10436000039207900320FDF733FD6DE00F2012212B
:1043700008220323CDE90432CDE906101B200C21CD
:104380000E220092CDE9012103907C490A98085C35
:1043900019230246202108900420FDF719FD7C48CE
:1043A0000078B8B105200E221B23CDE90520049327
:1043B0000790184619461A461823CDE90032CDE970
:1043C000021000230B223021042000E015E0FDF74D
:1043D000FFFC11E00D200E211B2204921823CDE9D1
:1043E0000521CDE9003202920023039207900B22AF
:1043F00030210420FDF7ECFC26E01B200490059002
:1044000006900A21022200230790CDE90032CDE96F
:1044100002105A490A98085C01230246202108909C
:104420000520FDF7D5FC1B20049005900690079011
:10443000009001900290034602463021039005202F
:10444000FDF7C6FC00E000BF00BF0BB000BD0128B7
:1044500006D0022809D003280CD0042814D10EE07D
:104460004C490978474A11700FE04B490978464A90
:1044700011700AE049490978444A117005E0484939
:104480000978434A117000E000BF00BF704710B5C3
:1044900001243948FDF77EFB01210020FFF791FE42
:1044A00001210846FFF78DFE00210220FFF789FE5B
:1044B00000210320FFF785FE00210420FFF781FE85
:1044C00000210520FFF77DFE2848FDF763FBC6E0CD
:1044D00000202749087005F031FB2549087008467F
:1044E0000078401F052840D2DFE800F023075E5F18
:1044F000030001202B490870B0E02A48007818B961
:104500002046FFF7A4FF02E00020264908700021A2
:104510002046FFF756FE052C02DA601CC4B200E00C
:10452000012401212046FFF74CFE1048FDF732FB25
:1045300094E01C48007818B92046FFF788FF02E095
:1045400000201849087000212046FFF73AFE012C90
:1045500002DD601EC4B200E0052401212046FFF701
:1045600030FE0248FDF716FB78E076E07602002088
:104570000D030020010000207002002008A20008A6
:10458000B0A100084D0000204F0000205000002086
:1045900051000020D1020020D3020020D0020020D0
:1045A000D40200204C00002000BF062C4FD2DFE8D0
:1045B00004F04E0325303B46F748007807280BD11E
:1045C000F6490978481CC11700EB5171C910A0EBDE
:1045D000C101F24A11700CE0F0480078002805DDB6
:1045E000EE480078401EED49087002E00720EB49D4
:1045F000087002210120FFF7E4FD29E0E848007877
:10460000C0F10100E649087002210846FFF7D9FD14
:104610001EE0E4480078C0F10100E2490870022180
:104620000320FFF7CEFD13E0DF480078C0F1010062
:10463000DD49087002210420FFF7C3FD08E0DB48D4
:10464000FDF7A8FA0F240020D349087000E000BF4E
:1046500000BFD748FDF79EFA00E000BF00BF0A2C5C
:1046600004DAD448007800287FF432AF10BD13B5C7
:104670008AB00A9806287CD2DFE800F003297FC2BE
:10468000F6F51B200490059006900790009001908D
:10469000029003460246202103900A98FDF798FBFA
:1046A0001320042112221B23CDE90432CDE9061088
:1046B0001046142102220E23CDE90032CDE902106A
:1046C00005231B2230210A98FDF782FB48E11B20BD
:1046D000049005900690042103220E230790CDE953
:1046E0000032CDE90210B4490B98085C0C23024655
:1046F000202109900A98FDF76BFBB048B049097872
:1047000000EBC100C079AD49AD4A127801EBC2019E
:104710008979AA4AAA4B1B7802EBC3025279A74BAC
:10472000A74C247803EBC4031B79CDE90432CDE90F
:104730000610A248A249097800EBC100C1789F4841
:104740009F4A127800EBC20080789C4A9C4B1B78F1
:1047500002EBC3025278994B994C247813F8343009
:10476000CDE90032CDE902011B231A4630210A9817
:1047700000E0F4E0FDF72CFBF2E01B2012220D23F9
:10478000CDE9052004930790042011461B22052340
:10479000CDE90032CDE9021087490B98085C00236F
:1047A0000246202109900A98FDF712FB85480078FF
:1047B000A0B90B2000210C221123CDE90432CDE950
:1047C00006100E200D211B2200921346CDE9012177
:1047D000039030210A98FDF7FBFA10E016200E2115
:1047E0000B221B23CDE904320093019302931A4656
:1047F0000393CDE9061030210A98FDF7E9FAAFE0FE
:10480000062008210B221B23CDE90432CDE9061036
:104810001220142102220E23CDE90032CDE902102C
:1048200065490B98085C05230246202109900A98E7
:10483000FDF7CEFA64480078B8B90B2000210C22AD
:104840001123CDE90432CDE906100E200D211B22E3
:1048500000921323CDE901210390072230210A9809
:10486000FDF7B6FA11E054E010E0112008211B22F8
:104870000492CDE905210092019202921346302163
:10488000039207900A98FDF7A3FA69E008200C212B
:104890000B23CDE90430CDE906101B2011210022A5
:1048A0000423CDE90032CDE9021043490B98085C9E
:1048B0000D230246202109900A98FDF789FA434802
:1048C0000078401E424901EB8000C2783F480078E2
:1048D000401E01EB800080783C490978491E3C4B22
:1048E00003EB81014978394B1B785B1E384C14F877
:1048F0002330CDE90431CDE906021B200090019060
:10490000029003460246302103900A98FDF760FAB0
:1049100026E01B200490059006900A210222002325
:104920000790CDE90032CDE9021023490B98085CCD
:1049300001230246202109900A98FDF749FA1B201D
:104940000490059006900790009001900290034615
:104950000246302103900A98FDF73AFA00E000BFC2
:1049600000BF0CB010BD10B50446012C06D0022CBF
:1049700034D0032C3FD0042C55D148E015480078A2
:104980000F49087008460078801C134908710846D2
:10499000FDF700F948E000000D0300204D00002065
:1049A0004F00002050000020510000207002002025
:1049B000760200200100002008A200080BA20008D7
:1049C0005200002053000020540000205500002019
:1049D00013A30008D5020020A6010020FE4800789D
:1049E000FE49087008460078801CFD490871084699
:1049F000FDF7D0F818E0FB480078FB49087008463E
:104A00000078FA4908710846FDF7C4F80CE0F84848
:104A10000078F849087008460078F7490871084698
:104A2000FDF7B8F800E000BF00BF10BD10B50124CD
:104A3000F248FDF7AFF801210020FFF718FE012131
:104A40000846FFF714FE00210220FFF710FE0021A8
:104A50000320FFF70CFE00210420FFF708FE0021D1
:104A60000520FFF704FEE648FDF794F8C7E00020B4
:104A7000E449087005F062F8E249087008460078D9
:104A8000401F05287ED2DFE800F023073F400300E7
:104A90000120DD490870B1E0DB48007818B92046F4
:104AA000FFF761FF02E00020D7490870002120468F
:104AB000FFF7DDFD052C02DA601CC4B200E0012422
:104AC00001212046FFF7D3FDCD48FDF763F895E0BF
:104AD000CD48007818B92046FFF745FF02E00020D6
:104AE000C949087000212046FFF7C1FD012C02DDF5
:104AF000601EC4B200E0052401212046FFF7B7FD87
:104B0000BF48FDF747F879E000BF062C72D2DFE816
:104B100004F0710316293D68BC480078C0F101001B
:104B2000BA49087008460078801CB94908710846DF
:104B3000FDF730F802210120FFF799FD5BE0A7485F
:104B40000078C0F10100A549087008460078801C73
:104B5000A34908710846FDF71DF802210846FFF732
:104B600086FD48E0A0480078C0F101009E49087029
:104B7000084600789D4908710846FDF70BF80221A8
:104B8000032000E039E0FFF772FD34E09D48007833
:104B900007280DD1974800780F2190FBF1F201FB17
:104BA00012009449087008460078401C08700CE018
:104BB00090480078012805DD8E480078401E8D4918
:104BC000087002E00F208B4908708A4800788A49F3
:104BD00008710846FCF7DEFF02210420FFF747FDBD
:104BE00009E08648FCF7D6FF0F24002085490870AD
:104BF00001E0FFE700BF00BF00E000BF00BF0A2CDC
:104C000004DA8448007800287FF431AF10BD13B572
:104C10008AB00A9809287CD2DFE800F0052C85DDEF
:104C2000DCDBDAD9D800172004211B220492CDE95D
:104C300005210092019202921346202103920790CF
:104C40000A98FDF7C5F81320042112221B23CDE991
:104C50000432CDE906100846112114221223CDE9B1
:104C60000032CDE902100E230F2230210A98FDF701
:104C7000AFF8ADE21B2004220323CDE90520049305
:104C800007900E200C211B220423CDE90032CDE930
:104C9000021061490B98085C00230246202109900C
:104CA0000A98FDF795F85D485D49097800EBC10069
:104CB000C0795A495A4A127801EBC2018979574A98
:104CC000574B1B7802EBC3025279544B544C247857
:104CD00003EBC4031B79CDE90432CDE906104F483C
:104CE0004F49097800EBC100C1784C484C4A127812
:104CF00000EBC20082784948494B1B7800EBC300A7
:104D00004078464B464C247813F83430CDE90030D7
:104D100000E05CE2CDE902211B231A4630210A980B
:104D2000FDF756F854E21B2011220423CDE905209B
:104D300004930790132014220723CDE9012036495C
:104D4000009303900B98085C1223024620210990DF
:104D50000A98FDF73DF832480078012803D0304822
:104D6000007802286ED12F480078C0EBC0002E4991
:104D7000084482792B480078C0EBC0000844407991
:104D800028490978C1EBC101274B19440979254B02
:104D90001B78C3EBC303244C2344DB78CDE90431F7
:104DA000CDE906021F480078C0EBC0002146084448
:104DB00080781C490978C1EBC10122461144497829
:104DC000184A1278C2EBC20223462FE0D9E196E1DD
:104DD00055E102E1A8E046E0D602002053000020A1
:104DE000AC010020D702002054000020B2010020B6
:104DF000D802002055000020B801002070020020D9
:104E0000760200200D0300204C00002052000020FC
:104E1000A60100200100002008A200080BA2000843
:104E2000620000206300002033A200089A5C1B236C
:104E3000CDE90032CDE902101A4630210A98FCF77C
:104E4000C7FF0FE04F201B2104910591CDE906100B
:104E50000091019102910B460A46039130210A9874
:104E6000FCF7B6FFB4E11B200490059006901221D8
:104E7000082211230790CDE90032CDE90210FE4946
:104E80000B98085C13460246202109900A98FCF70B
:104E90009FFFFA480078012803D0F84800780328DB
:104EA00031D1F748007800EB8000F64908440079DA
:104EB000F349097801EB8101F24A1144CA78F049BB
:104EC000097801EB8101EF4B19448978EC4B1B7891
:104ED00003EB8303EB4C23445B78CDE90431CDE94C
:104EE0000620E748007800EB80002146085C1B2183
:104EF000009101910B460A46CDE9021030210A9833
:104F0000FCF766FF0FE04F201B2104910591CDE9CE
:104F100006100091019102910B460A46039130213F
:104F20000A98FCF755FF53E11B200490059006906A
:104F30000D21082200230790CDE90032CDE90210AF
:104F4000CD490B98085C06230246202109900A9857
:104F5000FCF73EFFC948007801282DD1CA480078E7
:104F6000401E40000A2190FBF1F201FB1200C749EC
:104F7000085C0990C4480078052809DDC24800781B
:104F8000401E40000A2190FBF1F0C049085C00E09F
:104F90001B20012203230890099904AC0BC407923B
:104FA0001B2000900190029003460246302103909E
:104FB0000A98FCF70DFF0FE04F201B21049105918B
:104FC000CDE906100091019102910B460A4603912A
:104FD00030210A98FCF7FCFEFAE01B2004900590B3
:104FE0000690082211230790CDE90120A2490093E1
:104FF00003900B98085C01230246202109900A982F
:10500000FCF7E6FE9D480078042827D1A0480078E8
:105010000A2190FBF1F201FB12009C49085C099007
:105020009B480078092807DD994800780A2190FB01
:10503000F1F09649085C00E01B2008901B220999BA
:105040000492CDE905200092019202921346039248
:10505000079130210A98FCF7BBFE0FE04F201B217F
:1050600004910591CDE906100091019102910B4642
:105070000A46039130210A98FCF7AAFEA8E01B20FB
:1050800004220023CDE9052016210E220493079067
:105090000B23CDE90032CDE9021077490B98085C6B
:1050A00012230246202109900A98FCF791FE7948C4
:1050B00000780A2190FBF1F201FB12007349085CB1
:1050C000099074480078092807DD724800780A21A1
:1050D00090FBF1F16D48405C00E01B2008901B2222
:1050E00009990492CDE9052000920192029213469B
:1050F0000392079130210A98FCF76AFE68E01320BA
:10510000142107221223CDE90432CDE906101B2019
:1051100016210E220B23CDE90032CDE902105649AB
:105120000B98085C12230246202109900A98FCF78C
:105130004FFE5948007800EB4000584908448078F9
:105140005549097801EB4101544A11444978524AC2
:10515000127802EB4202514B9A5C1B23CDE90432D8
:10516000CDE90610184619461A461123CDE900323A
:10517000CDE902100423132230210A98FCF728FEFF
:1051800026E01B200490059006900A2102220023AD
:105190000790CDE90032CDE9021037490B98085C41
:1051A00001230246202109900A98FCF711FE1B20DA
:1051B000049005900690079000900190029003469D
:1051C0000246302103900A98FCF702FE00E000BF7F
:1051D00000BF0CB010BD10B50446082C6CD2DFE83F
:1051E00004F06B04D1E9F7F6F5F42D480078234973
:1051F00008700846007805287ED2DFE800F0030733
:10520000657E9F002748FCF7C5FCB9E02648FCF7FF
:10521000C1FC26490878C11700EB11710911244A15
:10522000917122490878C11700EB11710911A0EBA7
:105230000111D1711046FCF7ADFC11480078001D3A
:105240000F2801DD012000E000201A4988710C4977
:10525000097809B9002108E009490878C11700EB6D
:1052600011710911A0EB0111091D124AD1711046EB
:10527000FCF790FC044820E008A20008620000202F
:1052800064000020CDA2000865000020B0A1000845
:10529000660000206700002068000020BAA1000816
:1052A000E5020020580100205E010020630000207C
:1052B000820100208B010020E8E00078F749C871E6
:1052C0000846FCF767FC5BE0F548FCF763FCF54932
:1052D0000878C11700EB11710911F34A9171F14976
:1052E0000878C11700EB11710911A0EB0111D17100
:1052F0001046FCF74FFC43E041E0EC48FCF74AFC69
:10530000EB480078001D0F2801DD012000E000209F
:10531000E8498871E649097809B9002108E0E449BB
:105320000878C11700EB11710911A0EB0111091DDB
:10533000E04AD1711046FCF72DFC21E0DE48FCF775
:1053400029FCDE480078001D0F2801DD012000E067
:105350000020DB498871D949097809B9002108E0A2
:10536000D6490878C11700EB11710911A0EB0111A2
:10537000091DD34AD1711046FCF70CFC00E000BFB8
:1053800000BF84E0CF480078C64908700878C1178C
:1053900000EB11710911C44A9171C2490878C11713
:1053A00000EB11710911A0EB0111D1711046FCF74E
:1053B000F1FB6CE0C4480078BD49087008460078ED
:1053C000001D0F2805DD012004E053E046E023E046
:1053D00016E00020B7498871B549097809B900215C
:1053E00008E0B3490878C11700EB11710911A0EB6F
:1053F0000111091DAF4AD1711046FCF7CBFB46E005
:10540000B2480078B249087008460078A34908728B
:105410000846FCF7BFFB3AE0AE480078A7490870A1
:1054200008460078001D0F2801DD012000E0002063
:10543000A3498871A149097809B9002108E09F4969
:105440000878C11700EB11710911A0EB0111091DBA
:105450009B4AD1711046FCF79DFB18E09E480078EE
:105460009E490870084600789D4908710846FCF777
:1054700091FB0CE09B4800789B4908700846007837
:105480009A4908710846FCF785FB00E000BF00BFA1
:1054900010BD10B501249648FCF77CFB01210020CB
:1054A000FFF7B5FB01210846FFF7B1FB0021022001
:1054B000FFF7ADFB00210320FFF7A9FB002104202B
:1054C000FFF7A5FB00210520FFF7A1FB0021062027
:1054D000FFF79DFB00210720FFF799FB0021082023
:1054E000FFF795FB8348FCF755FBB0E200208249AB
:1054F000087004F023FB8049087008460078401FBC
:10550000052873D2DFE800F023073F4003000120A5
:105510007A4908709AE27948007818B92046FFF76E
:105520005AFE02E000207549087000212046FFF76E
:105530006EFB082C02DA601CC4B200E001240121D9
:105540002046FFF764FB6B48FCF724FB7EE26B48C8
:10555000007818B92046FFF73EFE02E000206749B8
:10556000087000212046FFF752FB012C02DD601E6F
:10557000C4B200E0082401212046FFF748FB5D4843
:10558000FCF708FB62E200BF092C7DD2DFE804F0E3
:105590007C05EFEEEDECEBEAE900574800780728D0
:1055A0000AD157480078401C052190FBF1F201FB1D
:1055B0001200534908700CE051480078002805DDBE
:1055C0004F480078401E4E49087002E000204C49C8
:1055D00008704B48007805285FD2DFE800F0030828
:1055E0004497B8004748FCF7D5FAD9E02DE2464881
:1055F000FCF7D0FA2B490878C11700EB117109119B
:10560000294A917127490878C11700EB11710911D6
:10561000A0EB0111D1711046FCF7BCFA24480078C8
:10562000001D0F2801DD012000E0002021498871C4
:105630001F49097809B9002108E01D490878C117F8
:1056400000EB11710911A0EB0111091D194AD1716B
:105650001046FCF79FFA1E4800781049C8710846AA
:10566000FCF798FA9CE00E48FCF794FA0D4908788C
:10567000C11700EB117109110B4A917109490878A2
:10568000C11700EB117100E0D9E10911A0EB011184
:10569000D1711046FCF77EFA82E080E09401002090
:1056A0006401002063000020820100206A010020C4
:1056B000640000208B0100207001002066000020A3
:1056C0009D010020E6020020E7020020E802002001
:1056D00065000020E9020020EA02002067000020A7
:1056E00076010020EB020020680000207C010020F1
:1056F00070020020760200200D0300204C000020E4
:1057000062000020580100205E010020FE48FCF7E6
:1057100041FAFE480078001D0F2801DD012000E05D
:105720000020FB498871F949097809B9002108E08E
:10573000F6490878C11700EB11710911A0EB0111AE
:10574000091DF34AD1711046FCF724FA28E0F1480C
:10575000FCF720FAF0480078001D0F2808DD012032
:1057600007E064E151E125E1E2E0B2E06BE02DE029
:105770000020EA498871E849097809B9002108E060
:10578000E5490878C11700EB11710911A0EB01116F
:10579000091DE24AD1711046FCF7FCF900E000BF98
:1057A00000BF02210120FFF732FA00210220FFF79B
:1057B0002EFA00210320FFF72AFA00210420FFF728
:1057C00026FA00210520FFF722FA39E1D4480078B3
:1057D000012803D0D2480078022833D1D14800787C
:1057E00007280AD1D0480078401C162190FBF1F21E
:1057F00001FB1200CC4908700CE0CB48007800286F
:1058000005DDC9480078401EC749087002E0152030
:10581000C5490870C4490878C11700EB1171091116
:10582000C24A9171C0490878C11700EB1171091182
:10583000A0EB0111D1711046FCF7ACF9022108462A
:10584000FFF7E5F9FCE0B6480078012803D0B4483A
:10585000007803283CD1B348007807280AD1AB4828
:105860000078401C0E2190FBF1F201FB1200A749C9
:1058700008700CE0A5480078002805DDA3480078F2
:10588000401EA249087002E00D20A04908709F4800
:105890000078001D0F2801DD012000E000209C4958
:1058A00088719A49097809B9002108E09749087870
:1058B000C11700EB11710911A0EB0111091D944AE8
:1058C000D1711046FCF766F902210320FFF79FF91A
:1058D000B6E093480078012829D19248007807283B
:1058E0000DD1934800780F2190FBF1F201FB1200DB
:1058F0008F49087008460078401C08700CE08C48FE
:105900000078012805DD8A480078401E8849087023
:1059100002E00F20864908708548007885490872A2
:105920000846FCF737F902210420FFF770F987E0F9
:105930007B48007804283CD17A48007807280AD1AF
:1059400075480078401C1C2190FBF1F201FB12000D
:10595000714908700CE070480078002805DD6E4839
:105960000078401E6C49087002E01B206A490870EC
:1059700069480078001D0F2801DD012000E00020AB
:10598000664988716449097809B9002108E06249CB
:105990000878C11700EB11710911A0EB0111091D65
:1059A0005E4AD1711046FCF7F5F802210520FFF799
:1059B0002EF945E05B48007807280DD15E48007855
:1059C000302190FBF1F201FB12005B4908700846A0
:1059D0000078401C08700CE057480078012805DD6D
:1059E00055480078401E5449087002E03020524962
:1059F000087051480078514908710846FCF7CAF808
:105A000002210620FFF703F91AE04D480078C0F1A3
:105A100001004B490870084600784A490871084659
:105A2000FCF7B8F802210720FFF7F1F808E0464834
:105A3000FCF7B0F80F2400203A49087000E000BFDE
:105A400000BF4248FCF7A6F800E000BF00BF0A2CE8
:105A500004DA3F48007800287FF448AD10BD13B544
:105A60008CB00C9806287BD2DFE800F0032BB0F74F
:105A7000F6F50820072116221B23CDE904320093F6
:105A8000019302931A460393CDE9061020210C9846
:105A9000FCF79EF9042002210D220023CDE90432F7
:105AA000CDE906100B20194601221B23CDE9003257
:105AB000CDE902100423132230210C98FCF788F959
:105AC00087E11B2004220323CDE9052004930790DE
:105AD0000E200C211B220123CDE90032CDE902105A
