:020000040800F2
:10000000A8290020450100081B7C0008BD6B0008E2
:10001000FD7B0008C9050008699A0008000000007F
:10002000000000000000000000000000FD87000844
:10003000B13C000800000000B17D0008E19200081A
:100040005F0100085F0100085F010008B980000837
:100050005F0100085F0100083D610008556200086B
:100060005F0100085F0100085F0100085F010008F0
:100070005F0100085F0100085F0100085F010008E0
:100080005F0100085F0100085F0100085F010008D0
:100090005F0100085F0100085F0100088562000839
:1000A0005F0100085F0100085F0100085F010008B0
:1000B0005F010008A19300085F0100085F010008CC
:1000C0005F0100085F0100085F0100085F01000890
:1000D0005F01000875960008BD9600086597000846
:1000E000A16100085F0100085F0100085F010008CE
:1000F0005F0100085F0100085F0100085F01000860
:100100005F0100085F0100085F0100085F0100084F
:1001100045960008719600085F0100085F0100081D
:100120005F0100085F0100085F0100085F0100082F
:10013000DFF80CD000F070F80048004769DB0008D9
:10014000A82900200648804706480047FEE7FEE74A
:10015000FEE7FEE7FEE7FEE7FEE7FEE7FEE7FEE777
:10016000E59200083101000840EA01039B0703D033
:1001700009E008C9121F08C0042AFAD203E011F8E6
:10018000013B00F8013B521EF9D2704710B5002226
:1001900000E0521C835C8C5CA34201D1002BF8D19F
:1001A000D8B2E1B2401A10BD70B50F4D00B9286841
:1001B000002412E00A4602E09E4203D0521C13784B
:1001C000002BF9D1DAB2224305D02BB124B10021A2
:1001D00000F8011B04E00446401C0678002EE9D11B
:1001E0002860204670BD00008417002030B50B4603
:1001F000014600202022012409E021FA02F59D4257
:1002000005D303FA02F5491B04FA02F52844151E2A
:10021000A2F10102F1DC30BD064C074D06E0E068BA
:1002200040F0010394E8070098471034AC42F6D33D
:10023000FFF782FFEC6201080C63010870B501EB67
:10024000020410F8015B15F0070301D110F8013B1F
:100250002A1106D110F8012B03E010F8016B01F808
:10026000016B5B1EF9D12B0705D40023521E0FD45E
:1002700001F8013BFAE710F8013B02F10202A1EBA1
:10028000030303E013F8015B01F8015B521EF9D58B
:10029000A142D6D3002070BD10B500247F4801884C
:1002A0007F480078401E00EBC0007E4A22F8101004
:1002B0007A4841887A480078401E00EBC00002EB83
:1002C000400041807548818875480078401E00EBE9
:1002D000C00002EB400081807048C18870480078FF
:1002E000401E00EBC00002EB4000C1806B488088DC
:1002F0006A490988401A81B269480078401E00EBBB
:10030000C00002EB400001816448C088634949880D
:10031000401A81B262480078401E00EBC00002EB38
:100320004000418160480078401E81B25C480078FE
:10033000401E00EBC00002EB40008181584801786C
:100340000078401E00EBC00002EB4000C18100219C
:1003500053480078401E00EBC00002EB40000182D1
:100360004F48047808E0002004EBC4014D4A02EB3A
:100370004101C881601CC4B2082CF4DB002463E096
:1003800004EBC400474931F8100004EBC401474AAC
:1003900022F8110004EBC400424901EB4000408800
:1003A00004EBC40102EB4101488004EBC4003D4969
:1003B00001EB4000808804EBC40102EB410188801E
:1003C00004EBC400374901EB4000C08804EBC401D2
:1003D00002EB4101C88004EBC400324901EB40004C
:1003E000008904EBC40102EB4101088104EBC40065
:1003F0002C4901EB4000408904EBC40102EB4101B0
:10040000488104EBC400274901EB4000808904EBDC
:10041000C40102EB4101888104EBC400214901EBD6
:100420004000C08904EBC40102EB4101C88104EB28
:10043000C4001C4901EB4000008A04EBC40102EB3C
:1004400041010882601CC4B2082C99DB184800786E
:10045000012820D100240FE0164830F81400164976
:1004600021F814001348103030F8141012481030DE
:1004700020F81410601CC4B2082CEDDB0F48007883
:100480000F4908700F4800780F49087000F09EF877
:1004900002200749087009F0FDFF10BDDE20002092
:1004A000C5160020F0200020CF160020561F002087
:1004B0001417002016170020361700200C170020F4
:1004C0000E1700200D1700200F17002010B5012077
:1004D00009F0D4FE06F054FD09F02EFE10BD10B553
:1004E000012007F0ABFC002007F0A8FC10BD0000C5
:1004F00001460020044A10884FF67F42104008430E
:10050000014A1080704700002C6C004008B501467D
:100510000020009003480090009808440090009844
:10052000008808BD006C0040014908607047000069
:1005300000860D4208B500220092044A0092009AFB
:1005400002440092009A116008BD0000006C004057
:1005500070B506460C46002516480078002804DDD4
:1005600014480078401E1349087000201249087092
:10057000304611F013FC002503E0202009F0FEFDB9
:100580006D1CA542F9DB00200C490A4A12788854F8
:10059000304609F0BEFD0AA010F0C6FF09480078F9
:1005A000502802D006F070FF10B1044801F002F8A4
:1005B00070BD00003D0000203C000020081C002011
:1005C0005F000000D716002000BFFEE7002012E009
:1005D00020B920490988204A11800AE0411E1E4A9C
:1005E00032F811101B4A32F8102011441A4A22F82E
:1005F0001010411CC8B2194909788842E8DB411E35
:10060000154A32F81110164A1180002016E020B960
:100610001049098A104A11820EE0411E0E4A10321A
:1006200032F811200B49103131F8101011448AB200
:100630000949103121F81020411CC8B20949097834
:100640008842E4DB411E044A103232F81110064A97
:100650001180704736170020A81E00200F170020B9
:10066000101700200E1700201217002070B53F4809
:100670000078002878DD3D480078092874DA3C4885
:100680000078012806D002281DD0032834D0042881
:1006900068D14AE035480078451E34480078461E47
:1006A000F01706EB90708010C21CE81705EB9070F5
:1006B0008010A5EB80032FA1354809F045FB344895
:1006C00009F040FD4FE029480078451E2748007892
:1006D000461EF01706EB90708010C21CE81705EB61
:1006E00090708010A5EB80032AA1294809F02CFB0B
:1006F000274809F027FD36E01C480078451E1B48B6
:100700000078461EF01706EB90708010C21CE817A8
:1007100005EB90708010A5EB800325A11C4809F023
:1007200013FB1B4809F00EFD1DE0002415E02546D3
:100730002646E01704EB90708010C21CE01704EB13
:1007400090708010A4EB800320A1114809F0FCFAFE
:100750000F4809F0F7FC601CC4B2042CE7DB02E090
:1007600002E0FFE700BF00BF70BD0000D41600200C
:10077000D51600204F5F4620535450432025642057
:10078000256420312030784646303030300D0A0064
:10079000802100204F5F4620535450432025642081
:1007A000256420312030783030464630300D0A0044
:1007B0004F5F462053545043202564202564203148
:1007C0002030783030303046460D0A004F5F4620EA
:1007D0005354504320256420256420302030783045
:1007E00030303030300D0A0010B50E4B1B8883427C
:1007F00013DB0C4B1B88834203D10A4B5B888B4273
:100800000BDB084B1B8883420AD1064B5B888B426B
:1008100006D1044B9B88934202DC0123024C2360E7
:1008200010BD0000CE000020AC16002010B586B030
:1008300012A207CA03AB07C30020009001900290E8
:100840000A2203A9F12006F00EFB052009F016FD8F
:100850000A226946F12006F0CEFA002409E003A836
:10086000005D1DF80410884202D0002006B010BDC3
:10087000641C0A2CF3DB0120F8E7000001020304EA
:1008800005060708090A000010B50C48007808B9E9
:10089000002010BD09480178094809F023FC0446EE
:1008A00006F078FB07480068844202D0064884427C
:1008B00001D10120EDE70020EBE700003D00002022
:1008C000081C00209C160020192F08002DE9F84F65
:1008D0006748007810B90020BDE8F88F65480068C7
:1008E00042F21071B0FBF1F201FB12046048017892
:1008F000614809F0F7FB074606F04CFB200140EA8F
:10090000A4201FFA80F85D48007820445B490979EB
:1009100008445A49097A08445849097B0844800226
:10092000564909682144554A52681144534A92680D
:100930001144524AD268114440EA21101FFA80F94A
:10094000600140EA64201FFA80FB600240EA641004
:1009500080B200904A48B7FBF0F042F21071B0FB51
:10096000F1F201FB120A4648B7FBF0F100FB1176E9
:1009700007F086FB43490968884224D24248007840
:1009800008B34248006886421DD1414800780DF006
:1009900097F800203F49087005223F49D3200DF009
:1009A000A9F83D48007800063B49497800EB014032
:1009B0003949897800EB01203749C9780844314921
:1009C0000860012088E788EA0900C0F30D00B842FA
:1009D00002D03248874233D12B48007800282FD0EC
:1009E00007F04EFB2E490978C1EB01118900C1EBDC
:1009F000011100EB8105280E27490870280C48706A
:100A0000280A8870CD700522D3200DF092F8300EA0
:100A100024490870300C4870300A8870CE70052266
:100A2000EC200DF086F81948066016480560184855
:100A300000780DF045F800201649087001204BE7BA
:100A4000A82F12D107F01CFB17490978C1EB01113F
:100A500000EB81050B4805600D4800780DF030F87B
:100A600000200C490870012036E7002034E7000020
:100A70003D000020B0160020081C0020E81B0020CC
:100A8000A08601008C1600208416002098160020F5
:100A9000C01600208B1600208616002010C21A13E4
:100AA0008516002094160020831600202DE9F041C1
:100AB0001F48007810B90020BDE8F0811D4800688B
:100AC00042F21071B0FBF1F201FB120518480178F7
:100AD000194809F007FB0446280140EAA52087B21F
:100AE000A80240EA251086B287EA0600C0F30D008E
:100AF000A04202D01148844207D111481149086030
:100B0000362009F0CDF80120D6E70E4800680C49E0
:100B100088420BD00B480068844207D10846094937
:100B20000860362009F0BCF80120C5E70020C3E7C3
:100B30003D000020B0160020081C0020A9663203EA
:100B400040420F006816002005480078522802D065
:100B5000532802D100BF012070470020FCE70000AD
:100B6000D716002010B50446224617A11A4809F0EE
:100B7000EBF8194809F0E6FA642009F0BDFB17A06C
:100B800009F0E0FA642009F0B7FB1DA009F0DAFAD9
:100B9000642009F0B1FB23A009F0D4FA642009F025
:100BA000ABFB29A009F0CEFA642009F0A5FB2FA029
:100BB00009F0C8FAC82009F09FFB30A009F0C2FA7A
:100BC000642009F099FB10BD47502053444D492043
:100BD00025640D0A00000000802100204F5554506C
:100BE00055545F4650474120434C4541525F4F5555
:100BF000545055545F57494E203320300D0A0000A1
:100C00004F55545055545F4650474120434C454141
:100C1000525F4F55545055545F57494E2033203141
:100C20000D0A00004F55545055545F46504741201F
:100C3000434C4541525F4F55545055545F57494EB0
:100C4000203320320D0A00004F55545055545F4652
:100C500050474120434C4541525F4F5554505554E5
:100C60005F57494E203320340D0A00004F5F462065
:100C70005355534420330D0A0000000047502053C1
:100C8000444D4920300D0A0010B50821284805F0D0
:100C900011FF38B10121264805F00CFF10B10120E9
:100CA0002449087023480078002833D008212048C0
:100CB00005F000FF70BB01211D4805F0FBFE48BB9D
:100CC0001D48007888B100201A4908701B48007838
:100CD00018B9FF201949087007E018480078401E2D
:100CE000164908700020164908701648007888B127
:100CF00000201049087011480078401C0F49087006
:100D000001200F4908700D480078FF2802D100200B
:100D10000A4908700821064805F0CCFE064908700B
:100D20000121034805F0C6FE0649087010BD000009
:100D3000001401403A16002038160020B5010020AA
:100D4000B40100203916002000B5FFB03EA005F028
:100D5000D1FE3F48006800903D4843683DA182684D
:100D600002A808F0F1FF02A805F0C4FE142009F063
:100D7000C3FA40480078022826D135488069072800
:100D800021D2DFE800F004080C1014181C003AA06F
:100D900005F0B0FE17E03EA005F0ACFE13E042A067
:100DA00005F0A8FE0FE046A005F0A4FE0BE04AA067
:100DB00005F0A0FE07E04EA005F09CFE03E052A067
:100DC00005F098FE00BF2AE02A480078012826D1C5
:100DD0001F488069072821D2DFE800F004080C10C2
:100DE00014181C004EA005F085FE17E052A005F077
:100DF00081FE13E056A005F07DFE0FE05AA005F03D
:100E000079FE0BE05EA005F075FE07E062A005F03C
:100E100071FE03E066A005F06DFE00BF00BF0C4848
:100E2000C06800900A48036967A1426902A808F0F7
:100E30008BFF02A805F05EFE6CA005F05BFE14209F
:100E400009F05AFA7FB000BD5342432835293B00D0
:100E5000241C00204453313628362C3135352C27BC
:100E6000253032643A253032643A25303264272CFA
:100E700030293B00BE160020445331362838362C2A
:100E80003135352C27D6DCC8D5272C30293B00003E
:100E9000445331362838362C3135352C27D6DCD220
:100EA000BB272C30293B0000445331362838362CE0
:100EB0003135352C27D6DCB6FE272C30293B0000F7
:100EC000445331362838362C3135352C27D6DCC8FA
:100ED000FD272C30293B0000445331362838362C6E
:100EE0003135352C27D6DCCBC4272C30293B0000EC
:100EF000445331362838362C3135352C27D6DCCEC4
:100F0000E5272C30293B0000445331362838362C55
:100F10003135352C27D6DCC1F9272C30293B000090
:100F2000445331362838362C3135352C2753756EDD
:100F30002E272C30293B0000445331362838362CDC
:100F40003135352C274D6F6E2E272C30293B000074
:100F5000445331362838362C3135352C27547565B5
:100F600073272C30293B0000445331362838362C67
:100F70003135352C275765642E272C30293B00004E
:100F8000445331362838362C3135352C2754687582
:100F900072272C30293B0000445331362838362C38
:100FA0003135352C274672692E272C30293B00001D
:100FB000445331362838362C3135352C275361745B
:100FC0002E272C30293B000044533136283133344E
:100FD0002C3135352C27253034642D253032642DC5
:100FE00025303264272C30293B000000534243282F
:100FF00037293B0D0A00000000B5FDB008A005F040
:1010000079FD0948027809A1684608F09DFE684606
:1010100005F070FD0BA005F06DFD7DB000BD00007A
:101020005342432835293B00C01600204453323434
:10103000283136302C32332C272564272C30293B9D
:10104000000000005342432837293B0D0A000000EE
:1010500070B58EB005460E46D848007869287CD019
:101060001DDC2B2874D00EDC1D2872D006DC0A286B
:1010700070D019286FD01B2833D1F7E027286BD008
:101080002A28F9D1D9E0403807282AD2DFE810F021
:10109000FA002900290014012E01480160016A3874
:1010A0000C28F2D2DFE800F05A728A1D3637383940
:1010B0003A3B061EC2A005F01DFD00240CE02B5D8E
:1010C000822000EBC402C0A101A808F03DFE01A8E7
:1010D00005F010FD601CC4B2B442F0DBBFA005F007
:1010E00009FD4DE1B6A005F005FD00240CE02B5DE7
:1010F000822000EBC402BAA101A808F025FE01A8D5
:1011000005F0F8FC601CC4B2B442F0DBB3A005F0FB
:10111000F1FC35E100BF00BF00BF00BF00BFB6A0BB
:1011200005F0E8FC00240CE02B5D822000EBC402FB
:10113000B4A101A808F008FE01A805F0DBFC601CC2
:10114000C4B2B442F0DBA5A005F0D4FC18E104E081
:1011500067E07EE04AE04AE087E000BF98A005F043
:10116000C9FC00240CE02B5D692000EBC402A5A1A2
:1011700001A808F0E9FD01A805F0BCFC601CC4B2A0
:10118000B442F0DB95A005F0B5FCF9E08CA005F0C9
:10119000B1FC00240CE02B5D692000EBC4029EA191
:1011A00001A808F0D1FD01A805F0A4FC601CC4B2A0
:1011B000B442F0DB89A005F09DFCE1E080A005F0E1
:1011C00099FC00240CE02B5D692000EBC40297A180
:1011D00001A808F0B9FD01A805F08CFC601CC4B2A0
:1011E000B442F0DB7DA005F085FCC9E000BF82A021
:1011F00005F080FC00240EE02B5D04EB84009821B8
:1012000001EB40027FA101A808F09EFD01A805F0B6
:1012100071FC601CC4B2B442EEDB89A005F06AFC2C
:10122000AEE08AA005F066FC2A7891A101A808F03A
:101230008BFD01A805F05EFCA2E093A005F05AFC2E
:101240002A7899A101A808F07FFD01A805F052FCB9
:1012500096E09BA005F04EFC2A78A2A101A808F018
:1012600073FD01A805F046FC8AE000BFA3A005F0CD
:1012700041FC2A78AAA101A808F066FD01A805F0A2
:1012800039FC7DE04EA005F035FC00240EE02B5D1E
:1012900004EB8400842101EB40025FA101A808F067
:1012A00053FD01A805F026FC601CC4B2B442EEDB7D
:1012B0004AA005F01FFC63E041A005F01BFC0024E0
:1012C0000EE02B5D04EB8400752101EB40029AA136
:1012D00001A808F039FD01A805F00CFC601CC4B29F
:1012E000B442EEDB3DA005F005FC49E034A005F07A
:1012F00001FC00240EE02B5D04EB8400752101EB62
:10130000400292A101A808F01FFD01A805F0F2FB20
:10131000601CC4B2B442EEDB30A005F0EBFB2FE062
:1013200027A005F0E7FB00240CE02B5D692000EB13
:10133000C4028BA101A808F007FD01A805F0DAFBA3
:10134000601CC4B2B442F0DB24A005F0D3FB17E06C
:101350001BA005F0CFFB00240CE02B5D7D2000EBF3
:10136000C4027FA101A808F0EFFC01A805F0C2FBB0
:10137000601CC4B2B442F0DB18A005F0BBFB00BF98
:1013800000BF06F081F8B0B17BA005F0B3FB0024EC
:101390000CE02B5D8C2000EBC40280A101A808F0BA
:1013A000D3FC01A805F0A6FB601CC4B2B442F0DB7C
:1013B0000AA005F09FFB0EB070BD0000D7160020FC
:1013C0005342432837293B00445331362825642CA7
:1013D00036352C272563272C30293B000D0A0000C9
:1013E000445331362825642C3130302C272563278F
:1013F0002C30293B00000000534243283135293B63
:1014000000000000445331362825642C38332C2743
:101410002563272C30293B00445331362825642C82
:1014200038302C272563272C30293B004453313694
:101430002825642C37312C272563272C30293B00A5
:101440005342432837293B0D0A00000043424F46D0
:10145000283132362C36362C3135342C38392C3371
:101460002C3135293B534243283135293B000000BC
:1014700044533136283133372C37302C2725632716
:101480002C30293B0D0A000043424F462836362CAB
:1014900036362C39342C38392C332C3135293B5302
:1014A0004243283135293B00445331362837372C05
:1014B00037302C272563272C30293B0D0A000000EC
:1014C00043424F46283134362C38312C3138342CB5
:1014D00039392C332C3135293B53424328313529B6
:1014E0003B00000044533136283135382C38332C3A
:1014F000272563272C30293B0D0A000043424F4625
:10150000283133312C38312C3135392C39392C33C1
:101510002C3135293B534243283135293B0000000B
:1015200044533136283134322C38332C2725632765
:101530002C30293B0D0A0000445331362825642CF9
:1015400036312C272563272C30293B004453313674
:101550002825642C38362C272563272C30293B007E
:10156000445331362825642C3131312C272563270B
:101570002C30293B00000000534243283135293BE1
:1015800043424F46283133312C3132362C323034FD
:101590002C3134392C312C3135293B004453313630
:1015A0002825642C3133302C272563272C30293B08
:1015B000000000002DE9F04FADF5057D04462078D0
:1015C000303800F0FF096078303800F0FF08A0786C
:1015D0003038C5B2E0783038C6B220793038C7B27A
:1015E0006079303800F0FF0AA079303800F0FF0B46
:1015F000E0793038C0B28490207A3038C0B283901D
:10160000607A3038C0B28290A07A3038C0B281900F
:10161000E07A3038C0B28090FA48007820287CD038
:101620000EDC0E282BD006DC0B2817D00C2824D07B
:101630000D2873D122E01E282DD01F28F9D192E069
:101640002F2817D004DC212869D02E28F1D104E0FE
:10165000302810D03128ECD10EE000BF4A46EAA174
:1016600003A808F071FB03A805F044FA322008F043
:1016700043FE90E300BF00BF00BF00BF00BF4A466B
:10168000E9A103A808F060FB03A805F033FA3220B3
:1016900008F032FE7FE3207840B9607830B9A07856
:1016A00020B9E07810B9207900285BD0607888B93B
:1016B000A07878B9E07868B9207958B9E2A005F047
:1016C00019FA4A46E2A103A808F03EFB03A805F078
:1016D00011FA47E0A07880B9E07870B9207960B954
:1016E000D9A005F007FA43464A46E0A103A808F04E
:1016F0002BFB03A805F0FEF934E0E07898B92079D7
:1017000088B9D1A005F0F6F943464A46DEA103A800
:10171000009508F019FB03A802E088E04FE1EAE039
:1017200005F0E8F91EE0207970B9C7A005F0E2F9EC
:1017300043464A46DBA103A8CDE9005608F004FB66
:1017400003A805F0D7F90DE0BFA005F0D3F9434693
:101750004A46DCA103A88DE8E00008F0F5FA03A8EA
:1017600005F0C8F917E3207840B9607830B9A0785F
:1017700020B9E07810B92079002857D0607888B96E
:10178000A07878B9E07868B9207958B9AEA005F0AA
:10179000B1F94A46D3A103A808F0D6FA03A805F088
:1017A000A9F943E0A07880B9E07870B9207960B9F0
:1017B000A5A005F09FF943464A46D1A103A808F029
:1017C000C3FA03A805F096F930E0E07878B92079FB
:1017D00068B99DA005F08EF943464A46CFA103A8FB
:1017E000009508F0B1FA03A805F084F91EE020790D
:1017F00070B995A005F07EF943464A46CFA103A8EB
:10180000CDE9005608F0A0FA03A805F073F90DE041
:101810008DA005F06FF943464A46D0A103A88DE894
:10182000E00008F091FA03A805F064F9B3E220782B
:1018300040B9607830B9A07820B9E07810B9207943
:10184000002857D0607888B9A07878B9E07868B96E
:10185000207958B97CA005F04DF94A46C7A103A8E4
:1018600008F072FA03A805F045F943E0A07880B9C2
:10187000E07870B9207960B973A005F03BF9434670
:101880004A46C5A103A808F05FFA03A805F032F99B
:1018900030E0E07878B9207968B96BA005F02AF9D2
:1018A00043464A46C3A103A8009508F04DFA03A891
:1018B00005F020F91EE0207970B963A005F01AF94F
:1018C00043464A46C2A103A8CDE9005608F03CFAB7
:1018D00003A805F00FF90DE05BA005F00BF94346F6
:1018E0004A46C3A103A88DE8E00008F02DFA03A83A
:1018F00005F000F94FE2207840B9607830B9A0785F
:1019000020B9E07810B92079002857D0607888B9DC
:10191000A07878B9E07868B9207958B94AA005F07C
:10192000E9F84A46BAA103A808F00EFA03A805F0A0
:10193000E1F843E0A07880B9E07870B9207960B927
:1019400041A005F0D7F843464A46B8A103A808F0DD
:10195000FBF903A805F0CEF830E0E07878B92079FB
:1019600068B939A005F0C6F843464A46B6A103A8AF
:10197000009508F0E9F903A805F0BCF81EE020790D
:1019800070B931A005F0B6F843464A46B6A103A89F
:10199000CDE9005608F0D8F903A805F0ABF80DE042
:1019A00029A005F0A7F843464A46B7A103A88DE849
:1019B000E00008F0C9F903A805F09CF8EBE1BA488B
:1019C00005F098F8207830B9607820B9A07810B97F
:1019D000E078002813D0607890B9A07880B9E078DA
:1019E00070B919A005F086F84A46B0A103A808F01E
:1019F000ABF903A805F07EF8322008F07DFCC9E1C0
:101A000060E10000D7160020534243283135293BBE
:101A100044533136283136302C37312C2725642772
:101A20002C30293B0D0A0000534243283135293B15
:101A300044533136283137382C3135302C27256442
:101A4000272C30293B0D0A005342432837293B00FD
:101A5000445331362836382C36332C272020256441
:101A60002020272C30293B0D0A000000445331363A
:101A70002836382C36332C2720256425642020274F
:101A80002C30293B0D0A0000445331362836382CBF
:101A900036332C272025642564256420272C302903
:101AA0003B0D0A00445331362836382C36332C2768
:101AB000202564256425642564272C30293B0D0AE4
:101AC00000000000445331362836382C36332C279A
:101AD00025642564256425642564272C30293B0D65
:101AE0000A00000044533136283137302C36332C6D
:101AF00027202025642020272C30293B0D0A0000B8
:101B000044533136283137302C36332C2720256486
:101B100025642020272C30293B0D0A004453313600
:101B2000283137302C36332C272025642564256452
:101B300020272C30293B0D0A000000004453313689
:101B4000283137302C36332C272025642564256432
:101B50002564272C30293B0D0A0000004453313600
:101B6000283137302C36332C27256425642564250D
:101B7000642564272C30293B0D0A0000445331367C
:101B80002836382C39332C27202025642020272C78
:101B900030293B0D0A000000445331362836382CDA
:101BA00039332C2720256425642020272C30293B1D
:101BB0000D0A0000445331362836382C39332C278F
:101BC0002025642564256420272C30293B0D0A003C
:101BD000445331362836382C39332C2720256425B8
:101BE0006425642564272C30293B0D0A0000000081
:101BF000445331362836382C39332C272564256454
:101C0000256425642564272C30293B0D0A0000003B
:101C100044533136283137302C39332C27202025B6
:101C2000642020272C30293B0D0A00004453313614
:101C3000283137302C39332C272025642564202087
:101C4000272C30293B0D0A004453313628313730D8
:101C50002C39332C272025642564256420272C303B
:101C6000293B0D0A0000000044533136283137303B
:101C70002C39332C27202564256425642564272CE2
:101C800030293B0D0A0000004453313628313730EB
:101C90002C39332C27256425642564256425642785
:101CA0002C30293B0D0A0000806101084453323476
:101CB000283134362C3133362C272564272C302913
:101CC0003B0D0A00A078D0B9E078C0B9AFF2882007
:101CD00004F010FF4A4632A103A808F035F803A823
:101CE00004F008FF4246AFF23C0103A808F02CF8CC
:101CF00003A804F0FFFE322008F0FEFA4AE0E07884
:101D000000BBAFF2BC2004F0F5FE4A462AA103A8AE
:101D100008F01AF803A804F0EDFE424620A103A83B
:101D200008F012F803A804F0E5FE2A46AFF2840199
:101D300003A808F009F803A804F0DCFE322008F03C
:101D4000DBFA27E0AFF2003004F0D4FE4A4620A1CF
:101D500003A807F0F9FF03A804F0CCFE424616A141
:101D600003A807F0F1FF03A804F0C4FE2A460CA163
:101D700003A807F0E9FF03A804F0BCFE3246AFF267
:101D8000D40103A807F0E0FF03A804F0B3FE32205B
:101D900008F0B2FA00BF00BF0DF5057DBDE8F08F79
:101DA00044533234283131382C3133362C272564D2
:101DB000272C30293B000000445332342839302C82
:101DC0003133362C272564272C30293B00000000B6
:101DD0005342432837293B445332342836322C317E
:101DE00033362C272564272C30293B0010B5ADF560
:101DF000007D2B4800682B49B0FBF1F201FB120477
:101E000056208DF8000031208DF801002E208DF82D
:101E1000020030208DF803002E208DF804003020C1
:101E20008DF805002D208DF8060000208DF80700A4
:101E30001DA004F05FFE28A004F05CFE28A004F0C2
:101E400059FE2E4A2EA103A807F07EFF03A804F036
:101E500051FE31A004F04EFE224636A103A807F041
:101E600073FF03A804F046FE38A004F043FE3F4B86
:101E70006A463FA103A807F067FF03A804F03AFEF3
:101E800041A004F037FE42A004F034FE46A004F066
:101E900031FE47A004F02EFE0DF5007D10BD0000C0
:101EA000B016002040420F0043424F4628302C30ED
:101EB0002C3232302C3137362C312C35293B4342F1
:101EC0004F4628302C33302C3232302C3134352CE4
:101ED000312C32293B0000005342432832293B0079
:101EE000445331362832332C34362C27BBFAC6F70C
:101EF000D0CDBAC53A272C30293B00006000002025
:101F000044533136283130362C34382C272573276A
:101F10002C30293B00000000445331362832332C4A
:101F200037392C27BBFAC6F74944BAC53A272C30B3
:101F3000293B000044533136283130362C37392CB8
:101F4000272564272C30293B0000000044533136FC
:101F50002832332C3131312C27C8EDBCFEB0E6B12C
:101F6000BE3A2020272C30293B0000004B240108DA
:101F700044533136283130362C3131312C272573FA
:101F80002573272C30293B005342432835293B0039
:101F900044533136283139392C3135342C275032DD
:101FA000272C31293B0000005342432837293B00AE
:101FB0000D0A000010B50246A2F534530F3B04D0C1
:101FC000A3F50063673B4ED126E0652904D066295E
:101FD0000CD067291ED113E0002004E0354B1B5CB8
:101FE000354C2354401C0728F8DB13E0002004E0A4
:101FF000304B1B5C314C2354401C0728F8DB09E0B4
:10200000002004E02B4B1B5C2D4C2354401C072864
:10201000F8DB00BF00BF4AE0652904D066290CD078
:1020200067291ED113E0002004E0264B1B5C224CE4
:102030002354401C0728F8DB13E0002004E0214B68
:102040001B5C1E4C2354401C0728F8DB09E00020D1
:1020500004E01C4B1B5C1A4C2354401C0728F8DB83
:1020600000BF00BF23E0652904D066290BD0672993
:102070001BD111E0002003E000230F4C2354401C2F
:102080000728F9DB11E0002003E000230B4C235468
:10209000401C0728F9DB08E0002003E00023084C7F
:1020A0002354401C0728F9DB00BF00BF00BF00BF5E
:1020B00010BD00007A330108AD000020B4000020FC
:1020C000BB000020813301080146CB296CD00FDC16
:1020D000042941D005DC09B3012929D003296FD196
:1020E00030E0052942D0C9294AD0CA29F7D151E0A8
:1020F00042F21323CA1A994275D00ADCA1F5807204
:102100002D3A5BD0A2F50052E43A62D0012AE6D122
:102110006BE0022A7DD0032AE1D184E0002004E0B4
:10212000474A125C474B1A54401C1528F8DB85E0DF
:10213000002004E0444A125C424B1A54401C15280B
:10214000F8DB7BE0002004E0404A125C3D4B1A546F
:10215000401C1528F8DB71E0002004E03C4A125CCA
:10216000384B1A54401C1528F8DB67E0002004E0C7
:10217000384A125C334B1A54401C1528F8DB5DE0DA
:10218000002004E0344A125C2E4B1A54401C1528DF
:10219000F8DB53E0002004E0304A125C294B1A546B
:1021A000401C1528F8DB49E0002004E02C4A125CB2
:1021B000244B1A54401C1528F8DB3FE0002005E0B2
:1021C0003BE0284A125C1F4B1A54401C1528F8DBD0
:1021D00034E0002004E0244A125C1A4B1A54401CDC
:1021E0001528F8DB2AE00AE013E0002004E01F4A8B
:1021F000125C144B1A54401C1528F8DB1EE000201A
:1022000004E01B4A125C0F4B1A54401C1528F8DBE3
:1022100014E0002004E0174A125C0A4B1A54401CD8
:102220001528F8DB0AE0002004E0134A125C054B95
:102230001A54401C1528F8DB00E000BF00BF7047AF
:102240001C27010885000020172501082C250108FE
:1022500041250108562501086B2501088025010844
:1022600095250108AA250108BF250108D4250108E4
:10227000E9250108FE2501081326010870B5054669
:102280000E462878302804D1012E02D104F030FE09
:102290000CE0002403E0285D05490855641CB442A5
:1022A000F9DB00200249085504F076F970BD000002
:1022B0006000002010B524480078502802D005F0B6
:1022C000E3F820B104219420FEF742F93AE01E48D9
:1022D000007862281DD00CDC5F2824D004DC402864
:1022E00022D050282CD126E060281ED0612827D18A
:1022F0001CE06438052823D2DFE800F0060304055B
:10230000100000BF00BF00BF05219120FEF720F99B
:1023100017E00B219120FEF71BF912E00A21912012
:10232000FEF716F90DE000BF00BF00BF06219120A7
:10233000FEF70EF905E002219120FEF709F900E011
:1023400000BF00BF10BD0000D716002010B5044626
:102350000C480470007800EB400101EBC0000A4912
:1023600001EB8000806A58B10648007800EB40021B
:1023700002EBC0000A4602EB8000816A20468847D3
:1023800010BD0000D7160020B801002010B51C4871
:102390000078222803D01A4800783A2810D119482A
:1023A0000078042805DA17480078401C15490870A1
:1023B00002E0012013490870114800780AF04AFC35
:1023C0000F48007800EB400101EBC0000E4901EB23
:1023D0008000407E0A49097888420FD0084800787A
:1023E00000EB400101EBC000074901EB8000407E9B
:1023F0000349087008460078FFF7A8FF10BD0000E9
:10240000D7160020CF160020B801002010B505F027
:1024100091F800287BD004F0BDFD734800782B288C
:1024200048D016DCA0F10A00212871D2DFE800F0C4
:1024300039464B50556162636465666768AFAF3A71
:10244000AF7EAF7982868A8EAFAFAFAFAF7DAFAFD1
:102450003E0039284CD00BDCA0F12E000B28E4D232
:10246000DFE800F02D32373C9540414243444500BF
:10247000712876D00CDC6E2870D004DC40287ED029
:102480006C2845D17FE06F2869D070287FD167E044
:10249000722867D0732866D0742868D0752876D1E2
:1024A00069E000BF51A004F025FB71E05DA004F0DD
:1024B00021FB6DE062A004F01DFB69E000BF67A096
:1024C00004F018FB64E000BF6BA004F013FB5FE0B6
:1024D00000BF69A004F00EFB5AE000BF66A004F044
:1024E00009FB55E000BF00BF00BF00BF00BF00BF39
:1024F00000BF00BF00BF00BF00BF00BF00BF00BFE4
:102500006548008865490988884206DC01E045E0A5
:102510003DE063A004F0EEFA02E061A004F0EAFA04
:1025200036E067A004F0E6FA32E000BF6BA004F0EA
:10253000E1FA2DE070A004F0DDFA29E077A004F0C4
:10254000D9FA25E07EA004F0D5FA21E085A004F0B8
:10255000D1FA1DE005E001E011E000E000BF00BF9E
:1025600000BF00BF00BF88A004F0C4FA10E094A030
:1025700004F0C0FA0CE099A004F0BCFA08E09EA0B8
:1025800004F0B8FA04E0A3A004F0B4FA00E000BF3D
:1025900000BF15480078FFF7D9FE23E004F0FAFCED
:1025A000114800783D2803D00F4800783E2807D115
:1025B00004209F490870FEF759F800209C490870D4
:1025C0000948007800EB400101EBC000994901EB9C
:1025D0008000C07E0449087008460078FFF7B6FE08
:1025E00005F0D6FB10BD0000D716002043424F4631
:1025F000283134352C38302C3138352C3130302CD2
:10260000332C3135293B43424F58283134352C384F
:10261000302C3138352C3130302C332C30293B0DD7
:102620000A00000043424F462836362C36362C39F5
:10263000342C38392C332C3135293B0D0A0000005D
:1026400043424F46283132362C36362C3135342C25
:1026500038392C332C3135293B0D0A0043424F4683
:10266000283134362C36392C3138342C38372C3349
:102670002C3135293B0D0A0043424F462831373172
:102680002C3134362C3139342C3136392C312C3133
:1026900035293B0D0A000000D0160020C816002086
:1026A00043424F46283133312C3132362C323034CC
:1026B0002C3134392C312C3135293B0D0A000000E6
:1026C00043424F46283134362C38312C3138342CA3
:1026D00039392C332C3135293B0D0A0043424F4602
:1026E000283133312C38312C3135392C39392C33D0
:1026F0002C3135293B0D0A005342432837293B43EF
:10270000424F462836382C36332C3130362C38326E
:102710002C312C37293B0D0A00000000534243287E
:1027200037293B43424F46283137302C36332C3241
:1027300030382C38322C312C37293B0D0A00000060
:102740005342432837293B43424F462836382C39D9
:10275000332C3130362C3131322C312C37293B0D92
:102760000A0000005342432837293B43424F462882
:102770003137302C39332C3230382C3130322C3147
:102780002C37293B0D0A000043424F462831323591
:102790002C38302C3230302C3130302C332C313539
:1027A000293B43424F58283132352C38302C3230B7
:1027B000302C3130302C332C30293B0D0A000000F6
:1027C00043424F46283132352C36322C3230302CB1
:1027D00038322C332C37293B0D0A000043424F4638
:1027E000283132352C39372C3230302C3131372CDE
:1027F000332C37293B0D0A0043424F4628313330F2
:102800002C37392C3230302C39392C332C37293BAA
:102810000D0A000043424F46283130352C37302C0A
:102820003136352C38362C332C37293B0D0A000035
:10283000D5160020B801002031B50024684605F007
:102840007FFA9DF800400CB1042C00DD38BD124821
:102850000078222814D03A2813D03D2802D03E28F0
:1028600012D104E00D480470FDF700FF0CE00C48A5
:102870000470002C03DD042C01DAFDF7F7FE03E001
:1028800000BF0848047000BF00BF034800780AF08A
:10289000E1F900BFDAE70000D7160020D4160020C7
:1028A000D5160020CF16002010B504F073FB07F0FA
:1028B00043FC02480078FFF749FD10BDD716002001
:1028C00070B50024FB480578022004F099FB00B1A4
:1028D00070BDF8480078552804D0562803D05728F2
:1028E00007D101E000BF00BF06F0D0FCFFF78EFD6E
:1028F000EEE7F0480078312853D019DCA0F10A0047
:10290000272871D2DFE800F0534A4E4F50FEFEFEFA
:10291000FEFEFEFEFE74FE54FE3DFE3B3E3F404189
:102920007672FEFEFE3C73FE5152FEFE494B4C0099
:102930006A287AD018DC45282CD00CDC42282AD012
:1029400004DC3A2855D040284ED11FE043281ED041
:102950004428F9D11CE046281BD0502866D05328C3
:102960001AD06928F0D187E06B380B28C9D2DFE88C
:1029700000F085A7C96061868788898A620000BFE8
:1029800000BF00BF00BF00BF00BF00BF00BF00BF4F
:1029900000BF00BF00BF00BF00BF00BF00BF00BF3F
:1029A00000BF00BF00BF00BF00BF00BF00BF00BF2F
:1029B000C048007800EB400101EBC000BE4901EBCC
:1029C0008000C06988B1BB48007800EB400101EB92
:1029D000C000B94901EB80000022C369B548017805
:1029E0000420984708B973E78CE08CE000BF00BF73
:1029F00000BF00BFAF48007800EB400101EBC00012
:102A0000AD4901EB8000C06970B1AA48007800EBC5
:102A1000400101EBC000A84901EB80000022C3691E
:102A2000A4480178042098476DE026E007F012FCE6
:102A300000BF00BF00BF9F48007800EB400101EBE2
:102A4000C0009D4901EB8000C069A0B199480078A1
:102A500000EB400101EBC000974901EB8000002230
:102A6000C369944801780420984700B930E76D2085
:102A7000904908702CE746E000BF00BF00BF00BFD0
:102A800000BF00BF00BF8B48007800EB400101EBA6
:102A9000C000894901EB8000C06980B18548007899
:102AA00000EB400101EBC000834901EB80000022F4
:102AB000C369804801780420984700B908E722E0FC
:102AC0007C48007800EB400101EBC0007A4901EB43
:102AD0008000C069A8B17748007800EB400101EBA5
:102AE000C000754901EB80000022C369714801787C
:102AF0000420984700B9EBE66E480078FFF726FC03
:102B0000E6E600E000BF00BF04F0BEFCD8B16948B3
:102B1000007800EB400101EBC000674901EB800049
:102B2000C06980B16348007800EB400101EBC00050
:102B3000614901EB80000022C3695E4801780420EE
:102B4000984700B9C4E65B48007800EB400101EB10
:102B5000C000594901EB8000807E564909788842BF
:102B60007BD054480078092806D15448007818B121
:102B70000A2050490870B6E14E480078182806D15E
:102B80004E48007818B119204A490870ABE149480D
:102B900000782E282ED14A480088022803D12F2001
:102BA000444908709FE146480088032803D130203B
:102BB0004049087097E142480088042803D1312039
:102BC0003C4908708FE101203E4908803E49088059
:102BD0003E49088000203E4908803648007800EBD6
:102BE000400101EBC000344901EB8000807E314997
:102BF000087078E12F4800780B282FD130480088E2
:102C0000022803D10C202B4908706CE12C48008865
:102C1000032803D10D202749087064E12848008863
:102C2000042803D10E20234908705CE101202549C6
:102C3000088025490880254908800020244908800B
:102C40001C48007800EB400101EBC0001A4901EB81
:102C50008000807E1749087045E145E115480078FD
:102C60002F2815D11B480078012808D1332011499D
:102C7000087016480088401C1449088033E134204D
:102C80000C49087011480088401C104908802AE14E
:102C900008480078302828D10E48007801281BD138
:102CA00035200449087009480088401C07490880FD
:102CB00019E10000D7160020B8010020C716002037
:102CC000CC160020C8160020CA160020D0160020FE
:102CD000D2160020CE16002036208B4908708B4873
:102CE0000088401C89490880FDE087480078312829
:102CF00022D187480078012808D1372082490870FE
:102D000082480088401C81490880ECE080480078B7
:102D1000022808D138207C4908707C480088401C73
:102D20007A490880DFE039207749087077480088C1
:102D3000401C76490880D6E0734800780C2815D1ED
:102D400073480078012808D110206F4908706F4837
:102D50000088401C6D490880C5E011206A49087050
:102D60006A480088401C69490880BCE066480078D1
:102D70000D2815D166480078012808D11220624933
:102D8000087062480088401C60490880ABE013204E
:102D90005D4908705D480088401C5C490880A2E0DD
:102DA000594800780E2822D159480078012808D1C6
:102DB00014205549087055480088401C5349088024
:102DC00091E053480078022808D115204E49087038
:102DD0004E480088401C4D49088084E016204A492E
:102DE00008704A480088401C484908807BE04648F3
:102DF0000078242830D1474800784749097888422C
:102E000008DA44480078401C424908701E203E49B8
:102E1000087068E005F0F4FC012140480078401E8D
:102E20003F4A11543D4A1278521E3D4B995C3B4A31
:102E30001278521EB92303EB420006F001FF32481C
:102E4000007800EB400101EBC000364901EB800047
:102E5000807E2D49087046E004F016FB48B32B48ED
:102E6000008831490988884205DA28480088401CD2
:102E70002649088037E02D4800882D490988884276
:102E80000ADA22480088401C204908802748008828
:102E9000401C2649088026E01B48007800EB4001D2
:102EA00001EBC0001F4901EB8000807E16490870CD
:102EB00019E0154800781B2809D118480078401EF1
:102EC0001749085C18B11C200F4908700BE00E4828
:102ED000007800EB400101EBC000124901EB8000DB
:102EE000807E0949087001240748007828B91148F4
:102EF000006810B9FFF7D8FCEAE403480078FFF750
:102F000025FA00BFE4E40000D7160020D016002008
:102F1000CE160020C5160020C4160020C6160020BC
:102F20004C1F0020B8010020C8160020D216002037
:102F3000CA160020AC16002010B507F0FDF81048A6
:102F40000078022808D10F49802007F0E2F80EA18E
:102F5000902007F0DEF80BE009480078012807D13F
:102F60000F49802007F0D5F807A1902007F0D1F88D
:102F70004FF47A7007F0C0F9FFF748FA10BD00006F
:102F8000BE160020523001082020202020202020C2
:102F900020202020202020202020202000000000B1
:102FA0006530010810B507F0C7F81148007802280D
:102FB00008D11049802007F0ACF80FA1902007F04D
:102FC000A8F80BE00A480078012807D110498020B2
:102FD00007F09FF808A1902007F09BF84FF47A7053
:102FE00007F08AF908200B490870FFF70FFA10BDA7
:102FF000BE16002052300108202020202020202052
:103000002020202020202020202020200000000040
:1030100065300108D716002037B50D4614466846BE
:1030200004F08EFE00B93EBD012C14D10020704981
:1030300008709DF800003030C1B26D480278007809
:10304000401C6B4B18706B488154002069491A462C
:103050001278885417E066480078A04213DA664870
:10306000007880B99DF800003030C1B26048027825
:103070000078401C5E4B18705E48815400205D490A
:103080001A46127888545A480078A04202D101208A
:1030900059490870594800781E282FD057480078A1
:1030A0001F282BD055480078202827D05348007877
:1030B000212823D05148007850281FD04F4800784D
:1030C0002E281BD04D4800780B2817D04B4800788D
:1030D0002F2813D04948007830280FD0474800786F
:1030E00031280BD0454800780C2807D04348007899
:1030F0000D2803D0414800780E2803D13D48FEF743
:1031000059FA73E03D4800781D286AD03B480078A2
:10311000272866D0394800781B2862D037480078C5
:1031200040285ED03548007843285AD0334800788C
:10313000442856D031480078462852D02F4800788D
:1031400045284ED02D4800782A284AD02B480078B0
:103150002B2846D0294800780A2842D027480078F2
:1031600019283ED02548007869283AD023480078AD
:103170006A2836D0214800786B2832D01F48007862
:103180006C282ED01D4800786E282AD01B48007865
:103190006F2826D019480078702822D01748007868
:1031A00071281ED01548007872281AD0134800786C
:1031B000732816D011480078742812D00F48007870
:1031C00075280ED00D48007868280AD00B48007882
:1031D000642806D009480078632802D004F054F926
:1031E00020B1034801780348FDF732FF00BF1AE71A
:1031F0003D000020081C00203C000020D7160020C5
:1032000000B5FFB03D480078401C3C4908700846B6
:1032100000783C2825D10020087039480078401CEF
:1032200037490870084600783C281AD100200870F9
:1032300034480078401C3349087008460078182844
:103240000FD10020087030480078401C2E490870CB
:1032500008460078642190FBF1F201FB12002A4934
:1032600008702A480078012813D185212648007863
:1032700002F054FE90212348007802F04FFE922184
:103280001F48007802F04AFE94211C48007802F0A2
:1032900045FE1E48007810B101282BD100E000BF88
:1032A0001B48007858B11BA003F024FC1FA003F0BA
:1032B00021FC20A003F01EFC0020154908701BA073
:1032C00003F018FC0D4800780D490978CDE900108D
:1032D0000C4803780C4802781DA102A806F034FDC2
:1032E00002A803F007FC25A003F004FC142007F05B
:1032F00003F800E000BF00BF7FB000BD5E0000200B
:103300005D0000205C0000205B000020D71600203C
:103310005A00002043424F4628302C37302C32329E
:10332000302C3134372C352C38293B00534243287C
:1033300038293B004453313628362C37352C27BFEB
:10334000AABBFACAB1BCE43A272C30293B000000E2
:10335000445331362834362C3130302C2725303246
:1033600064C8D525303264CAB125303264B7D62559
:10337000303264C3EB272C30293B00000D0A0000DB
:1033800010B51C480078222803D01A4800783A2843
:1033900011D119480078012805DD17480078401E32
:1033A0001549087002E0042013490870114800789C
:1033B00009F050FC1DE00F48007800EB400101EBE4
:1033C000C0000E4901EB8000007E0A49097888425E
:1033D0000FD00848007800EB400101EBC00007491E
:1033E00001EB8000007E0349087008460078FEF774
:1033F000ADFF10BDD7160020CF160020B801002069
:1034000011B59BB0002001901BA804F099FC08B9ED
:103410001CB010BDBE48C069042848DABC4800682A
:103420004FF47A7190FBF1F0C0B28DF80400B84807
:103430000068642190FBF1F00A2190FBF1F201FB9E
:103440001200C0B28DF80500B148006890FBF1F0A1
:1034500090FBF1F201FB1200C0B28DF80600AC48FF
:10346000006890FBF1F201FB1200C0B28DF807007A
:103470009DF86C00A649C96901AA50549DF8040042
:103480004FF47A7148439DF8051001EBC10202EB3D
:10349000011100EB81009DF8061001EB810100EBAA
:1034A00041009DF8071008449949086062E0984877
:1034B000C06906282FDA964840680A2190FBF1F08F
:1034C000C0B28DF804009248406890FBF1F201FB15
:1034D0001200C0B28DF805009DF86C108C48C069D0
:1034E000001F01AA11549DF805009DF8041001EB7E
:1034F000810100EB410086494860084640680C287D
:1035000002DD0C20486035E08148406858BB01204E
:103510007F4948602EE07E4880680A2190FBF1F0E8
:10352000C0B28DF804007A48806890FBF1F201FB8C
:103530001200C0B28DF805009DF86C107448C06987
:10354000801F01AA11549DF805009DF8041001EB9D
:10355000810100EB41006E498860084680681F28A1
:1035600002DD1F20886005E06948806810B90120ED
:10357000674988606649C969481CC11700EB5171E9
:10358000C910A0EBC101624AD16162A003F0B2FA96
:103590005F48806800905E48436860A1026802A8A6
:1035A00006F0D2FB02A803F0A5FA5948C069012829
:1035B00015D162A003F09EFA55480068642190FB83
:1035C000F1F00A2190FBF1F201FB120422465DA109
:1035D00002A806F0B9FB02A803F08CFA87E04C4879
:1035E000C069022815D155A003F084FA4848006844
:1035F0000A2190FBF1F0642190FBF1F201FB12042F
:10360000224656A102A806F09FFB02A803F072FA18
:103610006DE03F48C069032812D148A003F06AFA60
:103620003B4800680A2190FBF1F201FB120422469C
:1036300050A102A806F088FB02A803F05BFA56E04E
:103640003348C069042810D13CA003F053FA304835
:1036500040680A2190FBF1F422464CA102A806F032
:1036600073FB02A803F046FA41E02948C069052827
:1036700012D132A003F03EFA254840680A2190FB9F
:10368000F1F201FB1204224646A102A806F05CFBFF
:1036900002A803F02FFA2AE01D48C069062810D1BD
:1036A00026A003F027FA1A4880680A2190FBF1F45B
:1036B000224642A102A806F047FB02A803F01AFA2C
:1036C00015E01348C069072811D11CA003F012FAB5
:1036D0000F4880680A2190FBF1F201FB1204224698
:1036E0003CA102A806F030FB02A803F003FA3FA0B9
:1036F00003F000FA9DF86C203EA102A806F024FB1E
:1037000002A803F0F7F941A003F0F4F900BF7FE647
:10371000F81D00205342432835293B0044533136DD
:103720002839302C36322C27253034642D25303280
:10373000642D25303264272C30293B005342432826
:1037400036293B00445331362839382C36322C2761
:103750002564272C30293B0D0A00000044533136E4
:10376000283130362C36322C272564272C30293B43
:103770000D0A000044533136283131342C36322CB6
:10378000272564272C30293B0D0A0000445331368D
:10379000283133302C36322C272564272C30293B16
:1037A0000D0A000044533136283133382C36322C80
:1037B000272564272C30293B0D0A0000445331365D
:1037C000283135342C36322C272564272C30293BE0
:1037D0000D0A000044533136283136322C36322C53
:1037E000272564272C30293B0D0A0000534243282B
:1037F00037293B0044533136283133372C313439A3
:103800002C272564272C30293B00000053424328F5
:1038100035293B0D0A00000011B59BB00020019036
:103820001BA804F08DFA08B91CB010BD8B48C06904
:10383000022827DA894800690A2190FBF1F0C0B21A
:103840008DF804008548006990FBF1F201FB12003D
:10385000C0B28DF805009DF86C008049C96901AAC5
:1038600050549DF805009DF8041001EB810100EB18
:1038700041007A49086108460069172857DD17207A
:10388000086154E07548C069042828DA7348406923
:103890000A2190FBF1F0C0B28DF804006F48406936
:1038A00090FBF1F201FB1200C0B28DF805009DF80B
:1038B0006C106A48C069801E01AA11549DF8050069
:1038C0009DF8041001EB810100EB41006349486160
:1038D000084640693B282ADD3B20486127E05F48D5
:1038E00080690A2190FBF1F0C0B28DF804005B48BA
:1038F000806990FBF1F201FB1200C0B28DF8050067
:103900009DF86C105548C069001F01AA11549DF81C
:1039100005009DF8041001EB810100EB41004F49C7
:103920008861084680693B2801DD3B2088614B485F
:10393000C069401C062190FBF1F201FB12004749CF
:10394000C86147A003F0D6F8444880690090434816
:10395000436945A1026902A806F0F6F902A803F03E
:10396000C9F83E48C069012810D147A003F0C2F849
:103970003A4800690A2190FBF1F4224644A102A8CA
:1039800006F0E2F902A803F0B5F856E03348C06942
:10399000022810D13CA003F0ADF8304840690A215C
:1039A00090FBF1F4224640A102A806F0CDF902A84E
:1039B00003F0A0F841E02948C069032812D132A0E1
:1039C00003F098F8254840690A2190FBF1F201FBC9
:1039D000120422463AA102A806F0B6F902A803F0A2
:1039E00089F82AE01D48C069042810D126A003F0F8
:1039F00081F81A4880690A2190FBF1F4224636A129
:103A000002A806F0A1F902A803F074F815E0134823
:103A1000C069052811D11CA003F06CF80F4880691B
:103A20000A2190FBF1F201FB1204224630A102A808
:103A300006F08AF902A803F05DF833A003F05AF803
:103A40009DF86C2032A102A806F07EF902A803F0CE
:103A500051F835A003F04EF800BFE5E6F81D002050
:103A60005342432835293B00445331362839302C02
:103A700039332C27253032643A253032643A2530E8
:103A80003264272C30293B005342432836293B001F
:103A9000445331362839382C39332C272564272CC8
:103AA00030293B0D0A0000004453313628313134AF
:103AB0002C39332C272564272C30293B0D0A000094
:103AC00044533136283132322C39332C27256427A0
:103AD0002C30293B0D0A000044533136283133384D
:103AE0002C39332C272564272C30293B0D0A000064
:103AF00044533136283134362C39332C272564276A
:103B00002C30293B0D0A00005342432837293B0043
:103B100044533136283133372C3134392C2725643E
:103B2000272C30293B0000005342432835293B0D08
:103B30000A00000001B59AB01AA804F001F908B90A
:103B40001BB000BD22A002F0D5FF9DF868002249FD
:103B5000C8609DF86800072801D10020C8601E4891
:103B6000C068072821D2DFE800F004080C10141800
:103B70001C001AA002F0BEFF17E01EA002F0BAFF60
:103B800013E022A002F0B6FF0FE026A002F0B2FF81
:103B90000BE02AA002F0AEFF07E02EA002F0AAFF81
:103BA00003E032A002F0A6FF00BF00BF35A002F084
:103BB000A1FF9DF8682035A101A806F0C5F801A86D
:103BC00002F098FF37A002F095FF00BFB8E70000B1
:103BD0005342432836293B00F81D00204453313618
:103BE0002839302C3132352C27D6DCC8D5272C305B
:103BF000293B0000445331362839302C3132352CE2
:103C000027D6DCD2BB272C30293B00004453313669
:103C10002839302C3132352C27D6DCB6FE272C3013
:103C2000293B0000445331362839302C3132352CB1
:103C300027D6DCC8FD272C30293B00004453313601
:103C40002839302C3132352C27D6DCCBC4272C3008
:103C5000293B0000445331362839302C3132352C81
:103C600027D6DCCEE5272C30293B000044533136E3
:103C70002839302C3132352C27D6DCC1F9272C30AD
:103C8000293B00005342432837293B004453313637
:103C9000283133372C3134392C272564272C30290F
:103CA0003B0000005342432835293B0D0A00000029
:103CB000704700002DE9F04106460C4617463F4884
:103CC000007810B90020BDE8F0813C4801783C48FC
:103CD00006F008FA85B203F05DF9402C6BD1352D62
:103CE0004ED00EDC322D3FD006DC022D1AD0032D33
:103CF0001CD0042D5CD11DE0332D39D0342D57D18B
:103D00003AE0472D4CD006DC362D3DD0372D3FD044
:103D1000462D4DD140E0482D46D0A5F5F8509038BD
:103D200046D11DE05020FEF711FB43E05220FEF784
:103D30000DFB3FE002202349087023480068234917
:103D4000884203D26020FEF701FB08E004202049EE
:103D5000087006F0F1F91F49802006F0DAF929E031
:103D60004120FEF7F3FA25E07320FEF7EFFA21E099
:103D70006E20FEF7EBFA1DE06F20FEF7E7FA19E080
:103D80007020FEF7E3FA15E07120FEF7DFFA11E08C
:103D90007220FEF7DBFA0DE06420FEF7D7FA09E0A7
:103DA0006320FEF7D3FA05E06820FEF7CFFA01E0C2
:103DB000012088E700BF002085E700003D000020CB
:103DC000081C00206E1600206816002040420F00DC
:103DD0004A0000201B33010810B500211448007868
:103DE000401E00EBC000134A02EB4000C1811048A6
:103DF0000078401E00EBC0000F4A02EB4000C1817A
:103E00000B480078401E0D4A1154094A1278521E80
:103E10000A4B995C064A1278521EB92303EB420002
:103E200005F00EFF02480078FCF79CFE10BD000074
:103E3000C6160020F0200020561F00204C1F002036
:103E40002DE9F0478EB081460F46924600264FF08E
:103E50008808F5480078002878D1A7F10B002F28B2
:103E600075D2DFE800F0272D4965939495969798D1
:103E7000999AAAAAAAAAAAAAAA9C9D9E9FAAAAAAF5
:103E8000AAAAAAAAAA181FAAAA262C48648B8C8DB3
:103E90008E8F909192000020E449087001200EB0AE
:103EA000BDE8F0870020E249087003F03FFC0120E4
:103EB000F5E700BF0220DF4908800120EFE700BFDF
:103EC0000220DD49087008460078012806D102204A
:103ED000DA4908800120DA49088005E00120D74945
:103EE00008800220D64908800020D6490880D6499B
:103EF00008800120D3E700BF0220CF4908700846A0
:103F00000078012806D10320CC4908800120CC4943
:103F1000088005E00120C94908800320C8490880BD
:103F20000020C8490880C84908800120B7E700BFC1
:103F30000220C149087008460078012808D10420F1
:103F4000BE4908800120BE49088010E039E034E015
:103F5000B9480078022804D1B8490880B8490880D7
:103F600005E00120B54908800420B54908800020FB
:103F7000B4490880B4490880012090E700BF00BF21
:103F800000BF00BF00BF00BF00BF00BF00BF00BF39
:103F900000BF00BF00BF00BF00BF01207FE700BF20
:103FA00000BF00BFA9480078012804D1A8480078C4
:103FB000012800D173E7012071E700BF00BF002096
:103FC0006DE799480178A34806F08CF884B2302F49
:103FD0007ED02BDCA7F10A0026287AD2DFE810F089
:103FE000FD020E011E01B601DC01120213021402D1
:103FF0001502160217021802190279007900FE0252
:1040000079005B02790048026A027C028F02A002FA
:10401000790079007900790079005A0279007900F5
:10402000F000FE00790079000F011F01692F2ED0EA
:104030001BDCA7F131001628CFD2DFE810F0AE016B
:104040004A00DC01DD01DE01DF01E001E101E20106
:104050004A004A004A004A004A004A004A004A0010
:104060004A00C9029B028302B102A7F16A000C2830
:10407000B3D2DFE810F03E00730095002E00C302BB
:10408000C402C502C602C702C802E903EC033C2C05
:1040900001DC0A2C06DA02F07DFF6FA002F02AFD97
:1040A0000020FCE673490C7008460178CD2005F02D
:1040B000C7FD71480078012818D103F0E1FF6D4970
:1040C0000978C1EB011100EB8105280E6B4901E075
:1040D0003DE100E20870280C4870280A8870CD7015
:1040E0000522D32009F025FD6548056002F052FF46
:1040F000DBE3182C01DC012C06DA02F04BFF56A0A2
:1041000002F0F8FC0020CAE65A490C700846017813
:10411000D12005F095FD5B48007801281BD1564859
:104120000078C0B903F0ACFF57490978C1EB011121
:104130008900C1EB011100EB8105280E4F49087081
:10414000280C4870280A8870CD700522D32009F009
:10415000F0FC4B48056002F01DFFA6E332480078F2
:1041600078B13148007849490870002605E039489F
:10417000805D47498855701CC6B244480078864225
:10418000F5DD42480178D82005F05AFD3F48027815
:10419000921C3F49DA2009F0CCFC02F0FBFE84E3DC
:1041A000FCF794FB30B902F0F5FE3AA002F0A2FC55
:1041B000002074E600203E49087002F0EBFE74E334
:1041C000042C06DD02F0E6FE3AA002F093FC00208B
:1041D00065E616490C7002F0DDFE66E3042C06DD90
:1041E00002F0D8FE3AA002F085FC002057E6104904
:1041F0000C7002F0CFFE03F099FA56E300BF0CB149
:10420000042C06DD39A002F075FC02F0C3FE00208C
:1042100045E60848048002F0BDFE46E300BF0CB14D
:10422000022C78DD70E076E03D0000206E17002063
:104230006F170020CC160020CE160020C8160020D4
:10424000CA160020D0160020D2160020C516002065
:10425000C4160020081C002043424F462831303449
:104260002C38322C3133302C39392C312C37293B36
:104270000D0A0000831600208216002086160020FA
:104280008C16002084160020851600208A16002037
:10429000671C002043424F46283130352C37302CE4
:1042A0003138352C38362C312C37293B0D0A00009B
:1042B000D716002043424F462836362C36362C3946
:1042C000342C38392C332C3135293B0D0A000000B1
:1042D00043424F46283132362C36362C3135342C79
:1042E00038392C332C3135293B0D0A0043424F46D7
:1042F000283134362C36392C3138342C38372C339D
:104300002C3135293B0D0A00F5A002F0F3FB02F039
:1043100041FE0020C3E5FA490C70084600780128E8
:1043200006D10220F74908800120F749088005E0FE
:104330000120F44908800220F34908800020F34955
:104340000880F349088002F025FEAEE200BF0CB100
:10435000022C06DDE2A002F0CDFB02F01BFE0020E5
:104360009DE5E7490C7008460078012806D1032036
:10437000E44908800120E449088005E00120E14982
:1043800008800320E04908800020E0490880E049D7
:10439000088002F0FFFD88E200BF0CB1032C06DDAF
:1043A000CFA002F0A7FB02F0F5FD002077E5D4498D
:1043B0000C7008460078012806D10420D1490880F5
:1043C0000120D14908800EE0CD480078022804D1B0
:1043D000CC490880CC49088005E00120C949088003
:1043E0000420C94908800020C8490880C8490880BD
:1043F00002F0D0FD59E200BF00BF00BF00BF00BF08
:1044000000BF00BF00BF00BF00BF00BF00BF00BFB4
:1044100000BFBE480088BB490988884213DC14B13C
:10442000B4F5876F06DDBBA002F064FB02F0B2FDBD
:10443000002034E5B5480088401EBE4921F81040F0
:1044400002F0A8FD13E014B1B4F5F06F06DDB1A0E1
:1044500002F050FB02F09EFD002020E5AC480088F1
:10446000401EB449103921F8104002F093FD1CE2BF
:10447000082C00DC34B902F08DFDAFA002F03AFB4D
:1044800000200CE5B3490C700120B349087002F01C
:1044900081FD0AE200BF092C00DC34B902F07AFD8C
:1044A000AEA002F027FB0020F9E4B3490C7002F043
:1044B00071FDFAE1B1480088844208DDFCF706F896
:1044C00002F068FDAE4802F015FB0020E7E4AD48BD
:1044D000048002F05FFDE8E1AB480088844209DD1A
:1044E000FBF7F4FF02F056FDA548683002F002FB2E
:1044F0000020D4E4A348448002F04CFDD5E19F485D
:104500000088844207DD02F045FD9D48D03002F06E
:10451000F1FA0020C3E49B48848002F03BFDC4E133
:1045200099480088844208DDFBF7D0FF02F032FD95
:10453000964802F0DFFA0020B1E49248C48002F00D
:1045400029FDB2E19248007878B19148007891490C
:104550000870002605E09048805D90498855701CE1
:10456000C6B28C4800788642F5DD05F08DFA02F07F
:1045700011FD9AE18648007878B18548007888492D
:104580000870002605E08448805D86498855701CC7
:10459000C6B2854800788642F5DD02F0FBFC84E176
:1045A0007B48007878B17A4800787D490870002609
:1045B00005E07948805D7B498855701CC6B27A4811
:1045C00000788642F5DD02F011FF02F0E3FC6CE1B9
:1045D00076490C7002F0DEFC67E100BFA82C05D123
:1045E00000207349087002F0D5FC5EE102F0D2FCB5
:1045F00066486C3002F07EFA002050E400BF00BF35
:1046000000BF00BF00BFFCF73FF938B902F0C2FCA1
:104610005E48CC3002F06EFA002040E46548007835
:104620006E2841D16448007848B100206249087082
:10463000624802F05FFA142005F05EFE2EE00120D1
:104640005D4908705D48883002F054FA5C48027891
:104650005CA101A805F078FB01A802F04BFA142038
:1046600005F04AFE60480078C0B903F009FD5449DE
:104670000978C1EB01118900C1EB011100EB810543
:10468000280E5A490870280C4870280A8870CD7086
:104690000522D32009F04DFA5548056046480178B7
:1046A000CF2005F0CDFACEE0424800786F2816D131
:1046B0004D48007848B100204B4908704D4802F041
:1046C00019FA142005F018FEB8E0012046490870D8
:1046D0004848883002F00EFA474802788EE0B2E08F
:1046E00043424F46283137312C3134362C3139345E
:1046F0002C3136392C312C3135293B0D0A00000084
:10470000CE160020C8160020CA160020D0160020A1
:10471000D216002043424F46283133312C313236F5
:104720002C3230342C3134392C312C3135293B0D9D
:104730000A000000981E002043424F4628313436BC
:104740002C38312C3138342C39392C332C31352953
:104750003B0D0A00C4160020C516002043424F46F8
:10476000283133312C38312C3135392C39392C332F
:104770002C3135293B0D0A00C616002010170020E9
:10478000EC1E0108DE200020121700202420010862
:104790003D00002070160020081C0020401C002056
:1047A00072160020741600206F1600207316002069
:1047B000C7160020D71600208416002050210108BB
:1047C00085160020445331362835322C3130332CB5
:1047D00027B5A5B4CECAB1B3A4253264D0A1CAB15D
:1047E000272C30293B0D0A00821600208616002057
:1047F0008C16002060220108831600202DA101A83C
:1048000005F0A2FA01A802F075F9142005F074FD74
:1048100003F036FC30490978C1EB011100EB81054A
:10482000280E2E490870280C4870280A8870CD7010
:104830000522D32009F07DF929480560294801782F
:10484000CB2005F0FDF930E0274804602DE0264834
:104850000068A04220D1254804600068000E244969
:10486000087022480068000C487020480088000A40
:1048700088701E480078C8700522E72009F059F9B1
:104880001A4804601B4802F035F9142005F034FD85
:1048900040201949087007E002F07CFB1548883079
:1048A00002F028F900202EE400BF00BF02F032FB26
:1048B000012028E4445331362835322C3130332C52
:1048C00027D1DDCABECAB1B3A4253264B7D6D6D3C8
:1048D000272C30293B0D0A00831600208616002065
:1048E0008C16002082160020A01600209C160020A6
:1048F0009016002070230108D71600202DE9F04102
:10490000ADF5047D064600250024762E80F0C48790
:10491000DFE816F00405C207C207C207C207110785
:10492000C207C207C207860076009101AD011D02D1
:104930006403C901E50101023902550280039C03A9
:10494000B803BB0087007700C9001001E600D8005B
:104950001E011F0120012101D403220175018301E1
:10496000CA000201F4008A009E009F008800AD008A
:104970009F01BB012B027203D701F3010F02470213
:1049800063028E03AA03C603D5038900E203F5037D
:10499000F603E30304041204130421042204230491
:1049A0003104E503E206EC06F60600070A071D07D8
:1049B000E403C2075D04E60370047104E703910495
:1049C000C207C207C207C207C207C207C207C2079F
:1049D0002E05C207C207C207C207A407A307C20762
:1049E000C207C207A507290733073D074707C207C4
:1049F0009E079F07A007A107A2079D07B307B4075B
:104A000000BFFD4800783D2805D0FCA002F072F8F8
:104A1000502005F071FC3D20F749087000F03DBFC3
:104A200000BF00BF00BF00BFF348007805280BD0CF
:104A3000F5A002F05FF8502005F05EFCF2A002F055
:104A400059F8502005F058FC0520EB490870E5E7BF
:104A500000BFE94800783A2808D0EEA002F04AF8F2
:104A6000502005F049FC3A20E3490870D6E7E248B7
:104A70000078182805D0EAA002F03CF8502005F094
:104A80003BFC1820DC490870C8E7DB4800780F2899
:104A900005D0E6A002F02EF8502005F02DFC0F20E6
:104AA000D5490870BAE700BFD3480078092805D077
:104AB000E1A002F01FF8502005F01EFC0920CE49AD
:104AC0000870ABE7CC4800780A2805D0DDA002F0DA
:104AD00011F8502005F010FC0A20C74908709DE726
:104AE000C54800783B2805D0D9A002F003F8502033
:104AF00005F002FC3B20C04908708FE7BE480078F3
:104B00000E2805D0D5A001F0F5FF502005F0F4FBEC
:104B10000E20B949087081E7B74800780B2805D006
:104B2000D1A001F0E7FF502005F0E6FB0B20B249D1
:104B3000087073E7B0480078122805D0CDA001F0C6
:104B4000D9FF502005F0D8FB1220AB49087065E76B
:104B500000BF00BF00BF00BFA74800780D284AD0A3
:104B6000C7A001F0C7FF502005F0C6FBC74800787A
:104B7000012840D1C648007801283CD10020C54911
:104B800008804880C44800888880C4480088C8805D
:104B9000C3A001F0AFFFBF480288C3A107A805F07A
:104BA000D3F807A801F0A6FFBDA001F0A3FFB94804
:104BB0004288C3A107A805F0C7F807A801F09AFF2B
:104BC000B7A001F097FFB4480288C3A107A805F079
:104BD000BBF807A801F08EFFB1A001F08BFFAF4832
:104BE0000288C2A107A805F0AFF807A801F082FF6C
:104BF0000A2005F081FB0D207F4908700EE77E48F2
:104C00000078082805D0BFA001F074FF502005F0FF
:104C100073FB08207849087000E7774800783C2843
:104C200005D0BBA001F066FF502005F065FB3C20DD
:104C300071490870F2E6704800782D2808D0B7A0B6
:104C400001F058FF2D206C490870502005F054FBEE
:104C5000E4E6694800781C2808D0B3A001F04AFFB8
:104C60001C2065490870502005F046FBD6E66248D6
:104C70000078312808D0AFA001F03CFF31205E4918
:104C80000870502005F038FBC8E65B4800782428FF
:104C900008D0ABA001F02EFF242057490870502007
:104CA00005F02AFBBAE654480078392808D0A7A0B6
:104CB00001F020FF392050490870502005F01CFBFE
:104CC000ACE64D4800782C2808D0A3A001F012FFD4
:104CD0002C2049490870502005F00EFB9EE64648FE
:104CE0000078322808D09FA001F004FF322042490A
:104CF0000870502005F000FB90E63F48007825281A
:104D000008D09BA001F0F6FE25203B4908705020FA
:104D100005F0F2FA82E638480078332808D097A0E8
:104D200001F0E8FE332034490870502005F0E4FA21
:104D300074E631480078262808D093A001F0DAFE06
:104D400026202D490870502005F0D6FA66E62A483C
:104D50000078302808D08FA001F0CCFE3020264902
:104D60000870502005F0C8FA58E623480078232838
:104D700008D08BA001F0BEFE23201F4908705020F0
:104D800005F0BAFA4AE61C480078342808D087A013
:104D900001F0B0FE342018490870502005F0ACFA3C
:104DA0003CE615480078272808D083A001F0A2FE31
:104DB000272011490870502005F09EFA2EE60E4873
:104DC0000078352808D07FA001F094FE35200A49EC
:104DD0000870502005F090FA20E60748007828284F
:104DE00008D07BA001F086FE2820034908705020DF
:104DF00005F082FA12E60000D8160020535047282A
:104E00003631293B0D0000005350472835293B0D12
:104E100000000000535047283538293B0D000000A2
:104E2000535047283234293B0D0000005350472887
:104E30003135293B0D0A00005350472839293B0DD5
:104E40000A000000535047283130293B0D0A00006A
:104E5000535047283539293B0D0A00005350472845
:104E60003134293B0D0A0000535047283131293B8A
:104E70000D0A0000535047283138293B0D0A000025
:104E8000535047283133293B0D0A0000C516002036
:104E9000C4160020DE20002010170020121700206A
:104EA0005342432837293B00445331362836382CA7
:104EB00036332C2720202564272C30293B00000086
:104EC00044533136283137302C36332C2720256493
:104ED000272C30293B000000445331362836382C2B
:104EE00039332C272564272C30293B004453313695
:104EF000283137302C39332C272564272C30293B97
:104F00000D0A00005350472838293B0D0A000000C5
:104F1000535047283630293B0D0A0000535047288C
:104F20003435293B0D0A0000535047283238293BBD
:104F30000D0A0000535047283439293B0D0A000060
:104F4000535047283336293B0D0A00005350472859
:104F50003537293B0D0A0000535047283434293B8C
:104F60000D0A0000535047283530293B0D0A000038
:104F7000535047283337293B0D0A00005350472828
:104F80003531293B0D0A0000535047283338293B5F
:104F90000D0A0000535047283438293B0D0A000001
:104FA000535047283335293B0D0A000053504728FA
:104FB0003532293B0D0A0000535047283339293B2D
:104FC0000D0A0000535047283533293B0D0A0000D5
:104FD000535047283430293B0D0A0000F24800782E
:104FE0002F2808D0F1A001F085FD2F20EE49087090
:104FF000502005F081F911E5EB480078222808D00F
:10500000EDA001F077FD2220E7490870502005F05F
:1050100073F903E5E4480078362808D0E9A001F0E8
:1050200069FD3620E0490870502005F065F9F5E487
:10503000DD480078292808D0E5A001F05BFD292093
:10504000D9490870502005F057F9E7E4D6480078B0
:10505000372808D0E1A001F04DFD3720D249087073
:10506000502005F049F9D9E4CF4800782A2808D023
:10507000DDA001F03FFD2A20CB490870502005F04B
:105080003BF9CBE4C8480078382808D0D9A001F013
:1050900031FD3820C4490870502005F02DF9FCE39B
:1050A000C14800782B2808D0D5A001F023FD2B2083
:1050B000BD490870502005F01FF9EEE300BFBA4863
:1050C00000781E2807D0D1A001F014FD1E20B6499B
:1050D000087005F065FEE0E300BF00BF00BF00BF41
:1050E00000BFB1480078112805D0CBA001F002FD27
:1050F000502005F001F91120AB490870CDE300BF45
:10510000A9480078132805D0C6A001F0F3FC502070
:1051100005F0F2F81320A4490870BEE3A248007815
:10512000142808D0C2A001F0E5FC502005F0E4F8F6
:1051300014209D490870B0E300BF9B4800781528F3
:1051400008D0BEA001F0D6FC502005F0D5F81520FF
:1051500095490870A1E300BF00BF93480078162866
:1051600008D0B9A001F0C6FC502005F0C5F8162003
:105170008D49087091E38C480078172823D0B5A09A
:1051800001F0B8FC502005F0B7F8AFF2EC2001F0C8
:10519000B1FC00240DE0B248035D5A2000EBC402CC
:1051A000B0A107A804F0D0FD07A801F0A3FC601C83
:1051B000C4B2B14800788442EDDB7EA001F09AFCD5
:1051C000172079490870ADA001F094FC65E3B3A005
:1051D00001F090FC322005F08FF81A207249087017
:1051E000B1480278B1A107A804F0AEFD07A801F00C
:1051F00081FC52E300BF6C4800781B2805D0B3A0A7
:1052000001F078FC782005F077F81B2066490870DB
:10521000B1480078522803D1B0A001F06BFC06E041
:10522000AD480078532802D1BBA001F063FC782080
:1052300005F062F831E35C48007820286AD0C24863
:105240004069C2490860C04800694860BE48C068FB
:105250008860BD488069C860BB4880680861BA48FA
:1052600040684861B848006888610020C861B8A0FB
:1052700001F040FCB9A001F03DFCB4488069009009
:10528000B2484369B7A1026907A804F05DFD07A809
:1052900001F030FC142005F02FF8AC48C068072856
:1052A00021D2DFE800F004080C1014181C00B5A08F
:1052B00001F020FC17E0B9A001F01CFC13E0BDA038
:1052C00001F018FC0FE0C1A001F014FC0BE0C5A038
:1052D00001F010FC07E0C9A001F00CFC03E0CDA038
:1052E00001F008FC00BF00BF984880680090974814
:1052F0004368CEA1026807A804F026FD07A801F0C4
:10530000F9FBD2A001F0F6FB142004F0F5FF7820A1
:1053100004F0F2FF202024490870BEE22248007801
:10532000042817D0CCA001F0E5FB642004F0E4FFD2
:10533000C9A001F0DFFB642004F0DEFFC6A001F08D
:10534000D9FB642004F0D8FFC3A001F0D3FB642094
:1053500004F0D2FFC3480078012805D1C2A001F0B3
:10536000C9FB0A2004F0C8FF04200F49087094E22A
:105370000D480078022805D0CBA001F0BBFB282007
:1053800004F0BAFF022008490870B64800780128E6
:1053900003D1C8A001F0AEFB9DE1B248007802281D
:1053A00000D195E197E10000D8160020535047281E
:1053B0003437293B0D0A0000535047283334293B2A
:1053C0000D0A0000535047283534293B0D0A0000D0
:1053D000535047283431293B0D0A000053504728C9
:1053E0003535293B0D0A0000535047283432293BFC
:1053F0000D0A0000535047283536293B0D0A00009E
:10540000535047283433293B0D0A00005350472896
:105410003330293B0D0A0000535047283137293BD0
:105420000D0A0000535047283139293B0D0A00006E
:10543000535047283230293B0D0A0000535047286B
:105440003231293B0D0A0000535047283232293BA4
:105450000D0A0000535047283233293B0D0A000043
:105460004D1C0020445331362825642C38362C2717
:105470002563272C30293B006F16002043424F46FE
:10548000283132302C3131312C3138352C31323613
:105490002C302C37293B0D0A0000000053504728C0
:1054A0003236293B0D0A0000BD1600205342432826
:1054B00037293B44533132283132332C37382C27AB
:1054C0002564272C30293B0D0A0000005350472843
:1054D0003237293B0D000000D716002053424328E5
:1054E00037293B43424F462834362C37312C31374D
:1054F000342C38352C312C37293B44533132283861
:10550000362C37322C27CAC7B7F1BCCCD0F83F278E
:105510002C30293B0D0A00005342432837293B44D5
:105520005331322834372C37322C27B8C3B2D9D76D
:10553000F7BDABC7E5B3FDC5E4D6C3CAFDBEDD21EB
:10554000272C30293B0D0A00241C0020F81D0020C8
:10555000535047283332293B0D0000005342432863
:1055600035293B00445331362839302C39332C2728
:10557000253032643A253032643A25303264272CA3
:1055800030293B00445331362839302C3132352C08
:1055900027D6DCC8D5272C30293B000044533136B0
:1055A0002839302C3132352C27D6DCD2BB272C3091
:1055B000293B0000445331362839302C3132352C08
:1055C00027D6DCB6FE272C30293B00004453313669
:1055D0002839302C3132352C27D6DCC8FD272C3029
:1055E000293B0000445331362839302C3132352CD8
:1055F00027D6DCCBC4272C30293B0000445331365E
:105600002839302C3132352C27D6DCCEE5272C300A
:10561000293B0000445331362839302C3132352CA7
:1056200027D6DCC1F9272C30293B00004453313602
:105630002839302C36322C27253034642D25303251
:10564000642D25303264272C30293B0053424328F7
:1056500037293B0D0A0000005350472834293B0DE1
:1056600000000000BF16002043424F46283138306A
:105670002C392C3232302C34332C312C35293B53FD
:1056800042432835293B44533136283138342C31B4
:10569000382C27D2D1CBF8272C30293B5342432832
:1056A00037293B0D0A0000005350472832293B0D93
:1056B00000000000445331362837382C37392C2766
:1056C000BCFCC5CCD2D1CBF8272C30293B0D0A002D
:1056D000F6A001F00FFAE0E0FBA001F00BFA2820A1
:1056E00004F00AFE6620FB490870D6E0FAA001F03B
:1056F00001FA282004F000FE6720F6490870CCE08B
:10570000F8A001F0F7F9282004F0F6FD6820F1492F
:105710000870C2E0F6A001F0EDF9282004F0ECFDDD
:105720006920EC490870B8E0282004F0E5FD6A2003
:10573000E8490870B1E0F1A001F0DCF9282004F09C
:10574000DBFD6B20E349087002F0A4FEA5E0EEA0AB
:1057500001F0D0F9282004F0CFFD6C20DD4908705D
:1057600002F098FE99E0EBA001F0C4F9282004F0C3
:10577000C3FD3E20D74908708FE0E9A001F0BAF9D7
:10578000282004F0B9FD3F20D249087085E0E7A049
:1057900001F0B0F9282004F0AFFD4020CD49087099
:1057A0007BE0CC480078412850D003F0DBFEE2A03B
:1057B00001F0A0F9282004F09FFD00240DE0E1484D
:1057C000035D642000EBC402DFA107A804F0BCFA6B
:1057D00007A801F08FF9601CC4B2E1480078844248
:1057E000EDDBCEA001F086F9DE484069DE490860B5
:1057F000DC4800694860DB48C0688860D948806838
:10580000C8600846C0688968CDE90010D64843687A
:10581000D6A1026807A804F097FA07A801F06AF970
:10582000DC48006842F21071B0FBF1F201FB120794
:105830003A46D9A107A804F087FA07A801F05AF957
:10584000282004F059FD4120A249087025E000BF3E
:1058500000BF00BF00BF00BF00BF00BF00BF9D482A
:105860000078422808D0D3A001F044F9282004F0A1
:1058700043FD4220974908700FE000BF954800782B
:10588000432808D0CEA001F035F9282004F034FDDB
:1058900043209049087000E000BF00BF01F0F4FD14
:1058A00010B1304607F0D6F95D2E42D2DFE806F09F
:1058B000FDFCFBFAF941F841412F4135393A3B41B2
:1058C00041414141414141423041F74141F6F5F406
:1058D000F3F2F1F04141EFEE41313D3E32413436D9
:1058E000373841414141414141413C33EDECEBEA24
:1058F00041E9E8E7E6E541E4414141414141E34115
:1059000041E24141E1E0DFDE4141DD41DC0000BF39
:1059100000BF00BF00BF00BF00BF00BF00BF00BF8F
:1059200000BF00BF00BF00BF00BF00BF304607F090
:1059300091F972E2AFF6982001F0DCF8002500241E
:1059400005E0A24830F814000544601CC4B2A04829
:1059500000888442F5DB42F20F70854205D92A4661
:105960009CA107A804F0F0F91DE0B5F57A7F05D3F6
:105970002A469EA107A804F0E7F914E0632D05D993
:105980002A46A0A107A804F0DFF90CE0092D05D9EB
:105990002A46A2A107A804F0D7F904E02A46A5A147
:1059A00007A804F0D1F907A801F0A4F80025002405
:1059B00006E08648103830F814000544601CC4B274
:1059C000A24800888442F4DB42F20F70854205D978
:1059D0002A469FA107A804F0B7F91DE0B5F57A7F24
:1059E00005D32A46A0A107A804F0AEF914E0632D60
:1059F00005D92A46A2A107A804F0A6F90CE0092DB2
:105A000005D92A46A4A107A804F09EF904E02A4675
:105A1000A7A107A804F098F907A801F06BF83FA028
:105A200001F068F801241AE05620604368490988AB
:105A300090FBF1F000F14807562060436449098863
:105A400090FBF1F000F148083B4642469EA107A8B2
:105A500004F07AF907A801F04DF8601CC4B25C4864
:105A600000888442E0DB39E1CDE187E1D1E1CFE19B
:105A7000CDE172E170E16DE16DE17BE179E177E12A
:105A800075E173E165E16DE16BE161E152E150E1E6
:105A90005AE158E156E154E152E150E14BE147E16E
:105AA000B0E178E17EE1A6E1ABE171E1445331364A
:105AB0002837382C37392C27BDE2CBF8B3C9B9A623
:105AC000272C30293B0D0A0053504728313032290A
:105AD0003B0D0A00D8160020535047283130332997
