:020000040800F2
:10000000902600204501000805A60008218600086A
:10001000CDA500089908000851170108000000004C
:100020000000000000000000000000004DC60008B5
:100030006D520008000000007DB50008410C010869
:100040005F0100085F0100085F010008B1B8000807
:100050005F0100085F010008FD690008D56A00081B
:100060005F0100085F0100085F0100085F010008F0
:100070005F0100085F0100085F0100085F010008E0
:100080005F0100085F0100085F0100085F010008D0
:100090005F0100085F0100085F010008F96A0008BD
:1000A0005F0100085F0100085F0100085F010008B0
:1000B0005F010008010D01085F0100085F010008F1
:1000C0005F0100085F0100085F0100085F01000890
:1000D0005F01000819100108611001086D11010885
:1000E000216A00085F0100085F0100085F01000845
:1000F0005F0100085F0100085F0100085F01000860
:100100005F0100085F0100085F0100085F0100084F
:100110005F0100085F0100085F0100085F0100083F
:100120005F0100085F0100085F0100085F0100082F
:10013000DFF80CD000F05CF800480047B925010852
:10014000902600200648804706480047FEE7FEE765
:10015000FEE7FEE7FEE7FEE7FEE7FEE7FEE7FEE777
:10016000450C01083101000840EA01039B0703D058
:1001700009E008C9121F08C0042AFAD203E011F8E6
:10018000013B00F8013B521EF9D270472DE9F05FA8
:100190000546002092469B468846064681464024F6
:1001A0001BE0284641464746224600F042F85346A7
:1001B0005A46C01A914110D311461846224600F003
:1001C00029F82D1A67EB01084F462246012000212D
:1001D00000F020F817EB00094E41201EA4F10104A5
:1001E000DFDC484631462A464346BDE8F09F000022
:1001F000064C074D06E0E06840F0010394E8070074
:1002000098471034AC42F6D3FFF796FF803F0108C1
:10021000A03F0108202A04DB203A00FA02F1002066
:1002200070479140C2F1200320FA03F31943904034
:100230007047202A04DB203A21FA02F0002170479F
:1002400021FA02F3D040C2F120029140084319463E
:10025000704770B501EB020410F8015B15F007035D
:1002600001D110F8013B2A1106D110F8012B03E04F
:1002700010F8016B01F8016B5B1EF9D12B0705D457
:100280000023521E0FD401F8013BFAE710F8013B9E
:1002900002F10202A1EB030303E013F8015B01F892
:1002A000015B521EF9D5A142D6D3002070BD0000DB
:1002B00010B50D480078022808D10C49802011F0B3
:1002C000C1FD0B49902011F0BDFD0BE00648007800
:1002D000012807D10749802011F0B4FD064990207C
:1002E00011F0B0FD10BD0000E51F0020622E0108D6
:1002F000842F0108732E0108982F010810B511F002
:10030000C9FD0D480078022808D10C49822011F05F
:1003100099FD0B49902011F095FD0BE006480078FF
:10032000012807D10749822011F08CFD0649902051
:1003300011F088FD10BD0000E51F0020E32D01082D
:10034000012E0108F12D0108162E010810B501201B
:100350000549087111F09EFD0449802011F072FDDD
:10036000014801F06BF810BD5E0100204235010824
:1003700010B501200BF05EF900200BF05BF910BD09
:1003800001460020044A10884FF67F42104008437F
:10039000014A1080704700002C6C004008B50146EF
:1003A00000200090034800900098084400900098B6
:1003B000008808BD006C00400149086070470000DB
:1003C00000860D4208B500220092044A0092009A6D
:1003D00002440092009A116008BD0000006C0040C9
:1003E00010B52B4800786B2818D12A480078401E99
:1003F0002849087000202849264A1278885425493F
:1004000009789031C8B225A111F01CFD2149097865
:100410009131C8B222A111F015FD38E01C480078D6
:10042000722818D11F480078401E1E49087000200D
:100430001D491C4A127888541A4909789031C8B26B
:1004400016A111F0FFFC174909789131C8B214A127
:1004500011F0F8FC1BE00E480078792817D11348FA
:100460000078401E11490870002011490F4A127887
:1004700088540E4909789031C8B208A111F0E2FC05
:100480000A4909789131C8B205A111F0DBFC10BD11
:10049000B6200020150000200E0000205F000000A4
:1004A000200000001F00002018000020290000206C
:1004B0002200002010B5BF48007890283DD1BEA191
:1004C000862011F0BFFCBD480078D8B98F20B9490B
:1004D0000870BB480078002804DDB9480078401E49
:1004E000B74908700020B7490870B7A1832011F000
:1004F000A9FC0020B649B24A12788854832011F032
:10050000A1FC16E0AD480078012812D1AB48007874
:10051000002804DDA9480078401EA8490870002082
:10052000AC490870AC49A54A12788854862011F06D
:1005300089FCAAA012F0DCF83AE19E4800789128E4
:1005400039D19DA1882011F07DFCA5480078D8B94B
:1005500090209849087099480078002804DD974851
:100560000078401E9549087000209A49087092A1B1
:10057000862011F067FC00209749904A1278885431
:10058000862011F05FFC12E09548007801280ED11A
:1005900093480078401E92490870002091490870E5
:1005A00091498F4A12788854882011F04BFC8BA017
:1005B00012F09EF8FCE07F480078922877D17EA167
:1005C00011F040FC89480078002856D1884800780E
:1005D00003281ED1912077490870814800780028AF
:1005E00004DD7F480078401E7D49087000207D4969
:1005F000087071A1882011F025FC00207A49784A02
:1006000012788854882011F01DFC74A012F070F844
:10061000CEE07748007801282AD176480078012872
:1006200006D168206349087000207349087014E0FF
:1006300070480078022806D16F205E4908700020BB
:100640006E49087009E06B480078032805D17620D0
:100650005849087000206A4908706AA1842011F086
:10066000F1FB842012F01CFA5CA012F041F89FE02C
:1006700068A1922011F0E6FB9AE05C48007801281E
:1006800098D15A480078401E5849087000206249A5
:10069000087000216148554A127881540146922021
:1006A00011F0D0FB4DA012F023F881E0FFE74148A4
:1006B000007893283FD140A1942011F0C3FB584803
:1006C0000078D8B992203B49087048480078002843
:1006D00004DD46480078401E4449087000204E4919
:1006E000087035A1922011F0ADFB00204B493F4A24
:1006F00012788854922011F0A5FB18E04848007841
:10070000002814DD46480078002804DD44480078BD
:10071000401E4349087000204249087000214248A9
:100720003F4A127881540146942011F08BFB2BA094
:1007300011F0DEFF3CE01F480078942838D11EA15C
:10074000962011F07FFB39480078D8B993201949D9
:10075000087033480078002804DD31480078401ED6
:100760002F49087000202F49087013A1942011F020
:1007700069FB00202C492A4A12788854942011F0F1
:1007800061FB12E02948007800280EDD2748007838
:10079000401E264908700020254908702549234A33
:1007A00012788854962011F04DFB0CA011F0A0FF98
:1007B00010BD0000B62000202020000038010020DD
:1007C00037010020360100202020202000000000FA
:1007D0006821002039010020450100205F00000051
:1007E0003A0100203B010020480100203C0100208C
:1007F0004401002016200020F11F0020F21F0020DD
:10080000F31F002020202020202020202020202036
:10081000000000005F2000003D0100204B0100208F
:100820003E0100203F0100204E0100204001002039
:10083000410100205101002070B506460C460025FC
:1008400011480078002804DD0F480078401E0E494A
:10085000087000200D490870304612F021F900257B
:1008600003E0202011F01CFB6D1CA542F9DB0020E9
:100870000749054A12788854304611F0E3FA05A07A
:1008800011F036FF70BD0000370100203601002056
:10089000682100205F00000000BFFEE730B502467F
:1008A0000B46002112F0010F01D1002030BD012BB9
:1008B00004D0022B43D0032B40D181E002F0020090
:1008C000022804D101250C46491C5F48055502F059
:1008D0000400042804D102250C46491C5A48055539
:1008E00012F0010F04D003250C46491C564805554B
:1008F00002F01000102804D104250C46491C52486F
:10090000055502F02000202804D105250C46491C7D
:100910004D48055502F04000402804D106250C46FC
:10092000491C4948055502F08000802804D107255C
:100930000C46491C444805554448017081E002F0CA
:100940000200022804D101250C46491C40480555E7
:1009500002F00400042804D102250C46491C3C483E
:10096000055512F0010F04D003250C46491C3848E8
:10097000055502F01000102804D104250C46491C2E
:100980003348055502F02000202804D105250C46E7
:10099000491C2F48055502F04000402804D1062587
:1009A0000C46491C2A48055502F08000802804D1D5
:1009B00007250C46491C264805552648017040E08D
:1009C00002F00200022804D101250C46491C2248ED
:1009D000055502F00400042804D102250C46491CE8
:1009E0001D48055512F0010F04D003250C46491C83
:1009F0001948055502F01000102804D104250C46B2
:100A0000491C1548055502F02000202804D1052571
:100A10000C46491C1048055502F04000402804D1FE
:100A200006250C46491C0C48055502F0800080281C
:100A300004D107250C46491C074805550748017095
:100A400000BF00BF012031E70E000020150000208C
:100A5000180000201F000020220000202900002094
:100A600010B5002004490870FF2004490870487040
:100A70000BF03EFF10BD0000F11F00200C00002015
:100A800010B5002004490870FF2004490870487020
:100A90000BF04EFF10BD0000F21F002016000020DA
:100AA00010B5002004490870FF2004490870487000
:100AB0000BF05EFF10BD0000F31F0020200000209F
:100AC0007CB504460D4616462AA103C9CDE90001AE
:100AD0002A48007873280DD004DC5A281ED06C28D0
:100AE00030D104E07A2808D07D282BD108E0FFF728
:100AF000B7FF27E0FFF7C4FF24E0FFF7D1FF21E0B5
:100B000000201F4908701F49087011F03DFB1D4867
:100B1000017840F2A24010F0C7FE13E0002011F06F
:100B2000A9FC1948017840F2C94010F0BDFE1748F1
:100B3000017840F2CB4010F0B7FE40F2CD4010F00B
:100B4000BFFE00BF00BF12A1902011F07BF9114839
:100B50000078022804D16946862011F073F907E075
:100B60000C480078012803D10BA1862011F06AF906
:100B700001207CBDD2D1C8A1CFFB0000B62000204F
:100B8000FA1F0020F71F0020E81F0020F01F0020A0
:100B90002A000000E51F002043616E63656C20732E
:100BA000756363657373000010B507200E49087004
:100BB00011F070F90D480078022808D10C49822004
:100BC00011F040F90B49902011F03CF90BE0074877
:100BD0000078012807D10849822011F033F907492C
:100BE000902011F02FF910BDB6200020E51F002045
:100BF000F0300108D4300108FB300108E43001086E
:100C000010B5284800782849097888420ED125482F
:100C1000407825490978884208D0224840780E2833
:100C200004DA204948780EF0B7FB3AE01D484078D6
:100C30001D49097888420ED11A4800781A49097866
:100C4000884208D0174800780E2804DA1549087839
:100C50000EF0A2FB25E00F2009F0E8F80720134969
:100C6000087011F017F912480078022808D11149CC
:100C7000822011F0E7F81049902011F0E3F80BE022
:100C80000B480078012807D10C49822011F0DAF8CE
:100C90000BA1902011F0D6F8052011F0ABF901F06E
:100CA00091FB10BDB902002027200020B6200020B3
:100CB000E51F0020F030010862310108FB30010817
:100CC00053776974636820616E6420676F206F6E6C
:100CD0000000000070B504460D460026D14800789B
:100CE000012802D1D04806781EE0CE4800780328BB
:100CF00003D0CC480078042809D1CC4800780128DA
:100D000002D1C94806780FE0C94806780CE0C5480A
:100D10000078022808D1C7480078012802D1C448C9
:100D2000067801E0C0480678C3480078B0422BD16D
:100D3000C2480078A04222D1C1480078A842FAD126
:100D4000C0480078E0B1BF48007800F039FEBB48E9
:100D50000078BD4909780844182190FBF1F201FBA5
:100D60001200B6490870B6480078B84909780844B6
:100D70003C2190FBF1F201FB1200B14908704FE1F8
:100D80000020B34908704BE1AE480078B04244D12E
:100D9000AA480078A042F2D1A9480078A842EED132
:100DA000AC480078E0B1AB48007800F009FEA348F9
:100DB0000078A94909780844182190FBF1F201FB59
:100DC00012009E4908709E480078A449097808449A
:100DD0003C2190FBF1F201FB1200994908701FE1E0
:100DE0009548007800F0ECFD944800789C4909781B
:100DF0000844182190FBF1F201FB12008F490870A2
:100E00008F4800789749097808443C2190FBF1F21B
:100E100001FB12008A49087002E18E480078B04256
:100E200044D186480078A042A9D185480078A842DC
:100E3000A5D18D480078E0B18B48007800F0C0FD66
:100E40007E480078894909780844182190FBF1F21E
:100E500001FB1200794908707948007884490978C3
:100E600008443C2190FBF1F201FB12007449087028
:100E7000D6E07148007800F0A3FD7048007878490A
:100E800009780844182190FBF1F201FB12006B492C
:100E900008706B4800787349097808443C2190FB3E
:100EA000F1F201FB120066490870B9E06E48007863
:100EB000B04244D161480078A04290D160480078A7
:100EC000A8428CD16B480078E0B16A48007800F005
:100ED00077FD5A480078684909780844182190FB42
:100EE000F1F201FB1200554908705548007863493A
:100EF000097808443C2190FBF1F201FB12005049B3
:100F000008708DE04C48007800F05AFD4B4800789E
:100F1000534909780844182190FBF1F201FB1200B3
:100F200046490870464800784E49097808443C21F3
:100F300090FBF1F201FB12004149087070E04D484E
:100F40000078B04244D13D480078A04268D13C4886
:100F50000078A84264D14A480078E0B14848007857
:100F600000F02EFD354800784649097808441821DC
:100F700090FBF1F201FB1200304908703048007814
:100F80004149097808443C2190FBF1F201FB120031
:100F90002B49087044E02848007800F011FD2748EC
:100FA00000782F4909780844182190FBF1F201FBE1
:100FB000120022490870224800782A49097808441A
:100FC0003C2190FBF1F201FB12001D49087027E063
:100FD0002B480078B04223D118480078A0421FD196
:100FE00017480078A8421BD11348007800F0E8FCAD
:100FF000124800781A4909780844182190FBF1F248
:1010000001FB12000D4908700D4800781549097858
:1010100008443C2190FBF1F201FB120008490870E2
:1010200070BD000026200020272000202020002066
:101030002920002025200020FB1F0020F81F002071
:10104000F91F0020FC1F00200220002008200020A3
:10105000F71F0020FD1F0020032000200920002092
:101060000120002007200020FE1F00200420002077
:101070000A200020FF1F0020052000200B20002058
:1010800000200020062000200C20002010B50E4B70
:101090001B88834213DB0C4B1B88834203D10A4B12
:1010A0005B888B420BDB084B1B8883420AD1064BC3
:1010B0005B888B4206D1044B9B88934202DC012360
:1010C000024C236010BD0000F8010020BC1F00206E
:1010D000024602EB820000EBC200024B1844405C67
:1010E00070470000100200201FB511A103C9CDE90F
:1010F0000201002000900190062202A907F0B0FC36
:10110000052010F077FF06226946002007F070FCEA
:10111000002409E002A8005D1DF80410884202D0F6
:10112000002004B010BD641C062CF3DB0120F8E79E
:10113000010203040506000010B50C48007808B948
:10114000002010BD09480178094810F0E1FD04466F
:1011500007F054FD07480068844202D006488442E4
:1011600001D10120EDE70020EBE70000370100206E
:1011700068210020D420002010C21A132DE9F04766
:101180006648007810B90020BDE8F0876448006820
:1011900042F21071B0FBF1F201FB12075F480178D7
:1011A000604810F0B5FD064607F028FD380140EA1A
:1011B000A7201FFA80F85C48007838445A4909791A
:1011C00008445949097A08445749097B0844800270
:1011D000554909683944544A52681144524A926840
:1011E0001144514AD268114440EA21101FFA80F993
:1011F0004E48B6FBF0F100FB11650AF03DFB4C498F
:10120000096888420FD24B48007860B14A480068AC
:10121000854208D1494800780EF0BEF800204849C0
:1012200008700120B0E788EA0900C0F30D00B04261
:1012300002D0444886423FD13E48007800283BD047
:101240000AF01AFB40490978C1EB01118900C1EB92
:10125000011100EB8104200E3C490870200C4870FD
:10126000200A8870CC70052240F2445011F066F9D3
:10127000280E37490870280C4870280A8870CD70ED
:10128000052240F25D5011F059F92B4805602848BD
:1012900004600121294800780DF0F2FE2D48007805
:1012A000012804D002212C4800780DF0E9FE00202E
:1012B00023490870012067E7A82E2CD12748007821
:1012C00048B30AF0D9FA26490978C1EB011100EBBD
:1012D0008104200E1D490870200C4870200A887077
:1012E000CC70052240F2445011F028F910480460F7
:1012F0000121124800780DF0C3FE1648007801283D
:1013000004D00221144800780DF0BAFE00200C49E8
:101310000870012038E7002036E700003701002080
:10132000CC1F00206821002048210020A086010059
:10133000C4200020BA200020D02000202820002037
:10134000C120002010C21A13BB200020BC200020A6
:10135000CC200020262000202A200020B8200020B9
:10136000B920002001460878AA2804D14878BB2873
:1013700001D1012070470020FCE700002DE9F04179
:101380001F48007810B90020BDE8F0811D480068B2
:1013900042F21071B0FBF1F201FB1205184801781E
:1013A000194810F0B5FC0446280140EA9527A80228
:1013B00040EA151687EA0600C0F30D00A04202D0ED
:1013C0001248844208D112481249086040F2E240B3
:1013D00010F0F6FA0120D7E70E4800680C49884261
:1013E0000CD00C480068844208D1084609490860BE
:1013F00040F2E24010F0E4FA0120C5E70020C3E724
:1014000037010020CC1F002068210020C665320370
:1014100040420F00A81F002001460023022204E0E2
:10142000885C1844C3B2501CC2B20B2AF8DBC87ADD
:10143000984201D1012070470020FCE770B50446B6
:101440000026022504E0605D3044C6B2681CC5B2C7
:101450000B2DF8DBE6720C2120460FF0A3FD70BDCA
:1014600070B504460026022504E0605D3044C6B233
:10147000681CC5B20B2DF8DBE6720C2120460FF07C
:10148000AFFD70BD2DE9F04F8DB004468946924600
:10149000302240496846FEF767FE651E3E480088D8
:1014A000461E642195FBF1F12846EA1705EB92727E
:1014B000C1EBA2014FF4C87295FBF2F201EB020BF3
:1014C000642196FBF1F13046F21706EB9272C1EB04
:1014D000A2014FF4C87296FBF2F211440C91E1178D
:1014E00004EB91718910B4EB810111D1642194FB5B
:1014F000F1F201FB124131B94FF4C87194FBF1F2E2
:1015000001FB124121B9B9F1020F01DD012700E011
:10151000002740F26D1005FB00B1A9F101005DF854
:1015200020000844504407441B490888C11700EBB9
:1015300091718910B0EB810116D117490988642295
:1015400091FBF2F302FB131139B913490988920098
:1015500091FBF2F302FB131131B90F4949880229BB
:1015600002DD4FF0010801E04FF0000840F26D107D
:1015700070430C99014408484088401E5DF82000E3
:1015800008440549898808448044A8EB07000DB049
:10159000BDE8F08FA82B0108F8010020084800786A
:1015A0004D2807D04E2804D05D2805D07E2805D1CF
:1015B00001E000BF00BF00BF012070470020FCE732
:1015C000B620002010B5044623480078012833D106
:1015D00022480078AB282FD020480078AC282BD0A8
:1015E000AB201E4908701E4800781E4908701E482E
:1015F00000781E490870012104200DF041FD1C48AF
:101600000078012803D0022104200DF039FDAB2021
:1016100000F07CFC1749932010F014FC1648406938
:10162000164908601448006948601348C06888601B
:1016300011488068C8600DE01148006810B910F0CA
:101640007FFB07E00F48006810B110F095FC01E047
:101650000BF004FF10BD0000C1200020B6200020C8
:101660002720002028200020292000202A200020D8
:1016700026200020C92100207421002048210020BC
:10168000BC1F0020C01F002010B541F69A2140F277
:10169000665007F0D9F800200649088008460188FE
:1016A00040F2375010F07CF940F266500249088051
:1016B00010BD0000C81F0020CA1F0020002000BF6E
:1016C00006E00021044A1154044A1154411CC8B2D6
:1016D0000C28F6DB70470000182100200C210020A8
:1016E000002000BF06E00021044A1154044A1154AE
:1016F000411CC8B20C28F6DB7047000031210020E5
:101700002421002010B50821284806F037F938B107
:101710000121264806F032F910B101202449087051
:1017200023480078002833D00821204806F026F905
:1017300070BB01211D4806F021F948BB1D48007807
:1017400088B100201A4908701B48007818B9FF209A
:101750001949087007E018480078401E16490870BB
:101760000020164908701648007888B100201049FA
:10177000087011480078401C0F49087001200F497B
:1017800008700D480078FF2802D100200A4908702F
:101790000821064806F0F2F80649087001210348BE
:1017A00006F0ECF80649087010BD00000014014076
:1017B0006A1F0020681F0020BC020020BB0200201E
:1017C000691F00200146002000BF04E0034A125CAC
:1017D0000A54421CD0B20C28F8DB704718210020B4
:1017E0000146002000BF04E0034A125C0A54421C78
:1017F000D0B20C28F8DB70473121002010B502462A
:10180000A2F534530F3B04D0A3F50063673B4ED1E0
:1018100026E0A32904D0A4290CD0A5291ED113E0C9
:10182000002004E0354B1B5C354C2354401C07283A
:10183000F8DB13E0002004E0304B1B5C314C2354F8
:10184000401C0728F8DB09E0002004E02B4B1B5C60
:101850002D4C2354401C0728F8DB00BF00BF4AE092
:10186000A32904D0A4290CD0A5291ED113E000205F
:1018700004E0264B1B5C224C2354401C0728F8DB59
:1018800013E0002004E0214B1B5C1E4C2354401C41
:101890000728F8DB09E0002004E01C4B1B5C1A4C15
:1018A0002354401C0728F8DB00BF00BF23E0A32916
:1018B00004D0A4290BD0A5291BD111E0002003E0FE
:1018C00000230F4C2354401C0728F9DB11E00020B3
:1018D00003E000230B4C2354401C0728F9DB08E0ED
:1018E000002003E00023084C2354401C0728F9DBA8
:1018F00000BF00BF00BF00BF10BD0000723901086B
:10190000D6010020DD010020E40100207939010822
:1019100070B5054625B1012D0CD0022D1ED113E066
:10192000002404E01048005D10490855641C152C83
:10193000F8DB14E0002404E00D48005D0B49085575
:10194000641C152CF8DB0AE0002404E00948005D63
:1019500006490855641C152CF8DB00E000BF00BFE9
:1019600005F06AFA70BD0000AF3C01089901002043
:10197000C43C0108D93C010810B50A460378302B55
:1019800001D1012A18D00378352B0DD142230B4CFD
:101990002370502363700378A3704378E3708378D7
:1019A0002371C378637107E0002103E0435C034CBB
:1019B0006354491C9142F9DB10BD00006A0100200C
:1019C00010B5044607200E49087001220D48017821
:1019D00020460FF067F8902010F048FA0A48007887
:1019E000022804D10949922010F02CFA07E0064899
:1019F0000078012803D10649922010F023FA10BD87
:101A0000B620002020200020E51F0020E33301083D
:101A1000EE33010870B507F0F1F8C94800780128E5
:101A200007D0C8480078032803D0C64800780228A9
:101A300022D10720C449087010F02CFAC34800785E
:101A4000022808D1C249822010F0FCF9C149912036
:101A500010F0F8F907E0C049822010F0F3F9BFA1B7
:101A6000912010F0EFF9002008F0E0F90A2010F0C2
:101A7000C1FA0AF025FC61E100240025BA4800788B
:101A8000012803D10220B849087006E0B648007862
:101A9000022802D10120B44908700EF0CBFF00B13A
:101AA00070BDA948007821280DD006DC082812D086
:101AB00009280FD01F284AD104E0242841D0462805
:101AC00045D10BE000BFA94AA949A748007806F014
:101AD0003FFA00BF00BF08F065F92DE19A49097887
:101AE00001EB8101A34A02EBC101486A8047054628
:101AF0008DB996480078022804D19F49912010F0B2
:101B0000A1F91BE091480078012817D19B49912049
:101B100010F098F912E0012D10D18C4800780228BD
:101B200004D19749912010F08DF907E0874800789B
:101B3000012803D19349912010F084F908F032F97B
:101B4000FAE008F02FF9912004F002FAF4E00720FF
:101B50007D49087010F09EF979480078012804D179
:101B60008949802010F06EF903E08849802010F048
:101B700069F97D48007801281AD18548047885A143
:101B8000812004F0BFFB71480078022804D183490A
:101B9000972010F057F907E06C480078012803D12E
:101BA0007F49972010F04EF90E20674908701DE01C
:101BB0006D480078022819D17A48047875A18120EF
:101BC00004F0A0FB61480078022804D176499720F0
:101BD00010F038F907E05D480078012803D1734917
:101BE000972010F02FF90F20574908700C2C18D2AD
:101BF000DFE804F0A006182A3C65A0894E60779BB8
:101C000052480078022804D16949902010F01AF94E
:101C100007E04E480078012803D16649902010F073
:101C200011F987E049480078022804D162499020E0
:101C300010F008F907E045480078012803D15F4912
:101C4000902010F0FFF875E040480078022804D199
:101C50005B49902010F0F6F807E03C480078012836
:101C600003D15849902010F0EDF863E03748007830
:101C7000022804D15449902010F0E4F807E03348DA
:101C80000078012803D15149902010F0DBF851E091
:101C90002E480078022804D14D49902010F0D2F847
:101CA00007E02A480078012803D14A49902010F023
:101CB000C9F83FE048A1902010F0C4F83AE023486A
:101CC0000078022804D14649902010F0BBF807E0C4
:101CD0001E480078012803D14249902010F0B2F844
:101CE00028E01A480078022804D13F49902010F0DB
:101CF000A9F807E015480078012803D13B49902056
:101D000010F0A0F816E011480078022804D13849F4
:101D1000902010F097F807E00C480078012803D1D4
:101D20003449902010F08EF804E033A1902010F098
:101D300089F800BF00BF00BF00BF00BF00BFAFE613
:101D400026200020E71F0020B6200020E51F0020ED
:101D5000F030010886340108FB30010855736564D2
:101D600020446F75626C6500202000203220002026
:101D700030200020C00200206A3601086F360108BA
:101D8000763601087B360108192C01081C2C010845
:101D900027200020202B2020000000000331010814
:101DA00009310108292000200E31010814310108F1
:101DB000952E01089B2E0108AB2E01089F2E0108CD
:101DC000B12E0108A32E0108B72E0108A72E010885
:101DD000E82E0108F02E01085647413200000000AD
:101DE000C42E0108D02E0108F42E0108012F01088D
:101DF000D42E0108E22E01085344490010B507F023
:101E00006DFA68B13F480068012804D1042191208F
:101E1000FEF712FD74E004219420FEF70DFD6FE043
:101E20003948007893285ED018DC8A284DD00CDC25
:101E300072285DD004DC4B2842D06B285CD156E080
:101E4000792856D0882857D133E08B38082853D2C8
:101E5000DFE800F03C52525241464748943813287C
:101E60004AD2DFE800F04149494949494921272838
:101E7000174912490D0A0B0C1C0000BF00BF00BF20
:101E800005219120FEF7D8FC39E003219120FEF7CF
:101E9000D3FC34E00B219120FEF7CEFC2FE00A2189
:101EA0009120FEF7C9FC2AE008219120FEF7C4FC2E
:101EB00025E000BF00BF06219120FEF7BDFC1EE01B
:101EC00002219120FEF7B8FC19E000BF0421972001
:101ED000FEF7B2FC13E004218320FEF7ADFC0EE018
:101EE00000BF00BF00BF00BFFEF7E4FA07E000BF7D
:101EF00000BFFEF775FA02E0FFF78CFD00BF00BFE0
:101F000010BD000010200020B620002010B50446AF
:101F1000444804700FF0BEFF43480078022834D1D3
:101F20004048007800EB8000404901EBC000406869
:101F300078B13C4A127802EB82020B4603EBC202F4
:101F40005168384A127802EB820213F832000FF01F
:101F500079FF3448007800EB8000344901EBC00081
:101F60000069002848D02F4A127802EB82020B4603
:101F700003EBC20211692B4A127802EB820203EBD7
:101F8000C202107B0FF05EFF36E027480078012880
:101F900032D12448007800EB8000244901EBC000D6
:101FA000806878B11F4A127802EB82020B4603EB7D
:101FB000C20291681B4A127802EB820213F83200C7
:101FC0000FF040FF1748007800EB8000174901EB45
:101FD000C000406980B1134A127802EB82020B46BE
:101FE00003EBC20251690F4A127802EB820203EB43
:101FF000C202107B0FF026FF0A480078B42803D0F5
:1020000008480078B52804D1094990200FF01AFF3C
:1020100007E004480078AA2803D1064991200FF070
:1020200011FF10BDB6200020E51F0020C0020020D7
:10203000A23C0108293C010813B50C46684608F08B
:102040008DFE20B99DF8000007F0F0FE1CBD17487A
:10205000007802281DDA16480078D0B99DF80000F3
:102060003030C1B2114802780078401C0F4B187014
:102070001048815400200F491A461278885420468F
:102080000FF0E0FE09480078022802DA0AA010F0FA
:102090002FFB06480078022805D10120044908706A
:1020A000022006F0DDFD00BFD0E700003A0100206D
:1020B0003B010020480100205F00000070B50025B2
:1020C00007F032F900B170BDB7480078102803D08E
:1020D000B5480078112800D1F5E7B348007800EB47
:1020E0008000B24901EBC000006918B9AE48007821
:1020F00045286BD106F082FDAB48007800EB8000EC
:10210000AA4901EBC000407EA749097888420AD05D
:10211000A548007800EB8000A44901EBC000407E98
:10212000A14908700125A0480078FFF7EFFE0EF0E6
:1021300081FC9D48007800EB80009C4901EBC000C9
:10214000C06980B17DB99848007800EB800001EB50
:10215000C0000022C369944801780320984710B159
:1021600001200FF047FF9048007800EB80008F4976
:1021700001EBC000007B91281ED18B48007800EB5A
:10218000800001EBC000006AB0B1902010F088FC24
:102190008549097801EB8101844A02EBC101086A93
:1021A000804781490978884203D181A010F0A0FAC4
:1021B00002E080A010F09CFA7B4800789A2804D1B5
:1021C00091217D48007803F06DFFE9E0002406F0DE
:1021D00015FD7548007800EB8000744901EBC000E4
:1021E000007E71490978884209D06F48007800EB79
:1021F00080006E4901EBC000007E6B4908706A48A0
:10220000007800EB8000694901EBC000406A48B1EA
:102210006549097801EB8101644A02EBC101486A12
:102220008047044660480078222839D00CDC1B28FF
:1022300021D004DC142814D0162872D116E01D28F1
:1022400023D020286DD12AE02B2835D004DC272884
:1022500030D0292865D12EE0952840D09A2860D129
:102260004CE056480078204484B25AE05348007845
:10227000204484B255E051480078204484B207F0ED
:1022800091FD872004F0AEFA4BE04C4800782044E2
:1022900084B207F087FD872004F0A4FA41E000BF74
:1022A00046480078204484B207F07CFD872004F083
:1022B00099FA36E000BF00BF404800782044642807
:1022C00001DD642403E03D480078204484B291217C
:1022D000204603F0E3FD872004F084FA21E037482C
:1022E00000782044642801DD642403E0334800784A
:1022F000204484B2872004F075FA12E02F48007859
:1023000020440F2801DD0F2403E02C4800782044EE
:1023100084B29121204603F0C5FE872004F062FAC2
:1023200000BF00BF2048007800EB80001F4901EB90
:10233000C000C06958B11C48007800EB800001EB78
:10234000C0002246C3691848017803209847164800
:102350000078202817D008DC142810D016280FD0B9
:102360001B280ED01D2819D10CE022280CD046289D
:1023700002D0952812D10AE007F0B8F80EE000BFAD
:1023800000BF00BF00BF00BF07F086FA06E02A22A8
:1023900090210B48007803F027FC00BF00BF00BF6E
:1023A00000F008FC00BF8EE6B6200020C00200202E
:1023B0002A0000003E0000004020002018200020DD
:1023C0002220002010B50FF065FD06F017FC3E48F6
:1023D00000785B2803D03C4800785D2819D140F292
:1023E000CD400FF06DFA39480078022804D1384901
:1023F00080200FF027FD07E034480078012803D142
:1024000034A180200FF01EFD05200FF0F3FD0FF02A
:1024100041FD2D48007800EB8000324901EBC000FF
:10242000C07E2949087029480078022821D10A462F
:10243000127802EB82022B4B03EBC2025168224A54
:10244000127802EB820213F832000FF0FBFC1E4AF6
:10245000127802EB8202234B03EBC20211691A4A83
:10246000127802EB820203EBC202107B0FF0EAFC4F
:1024700024E016480078012820D1134A127802EB94
:102480008202184B03EBC20291680F4A127802EBEA
:10249000820213F832000FF0D5FC0B4A127802EBDF
:1024A0008202104B03EBC2025169074A127802EB19
:1024B000820203EBC202107B0FF0C4FC00F07AFB37
:1024C0000EF0B8FA10BD0000B6200020E51F002075
:1024D000513301084261636B7570206F70656E65E2
:1024E00064000000C002002010B5462009490870B1
:1024F0000FF0D0FC08480078022804D1074980205A
:102500000FF0A0FC03E0064980200FF09BFC06F0D2
:10251000EDFF10BDB6200020E51F00205F3501084B
:102520006835010870B506F069FBDC4800780128C1
:1025300057D1DB48007808280ED1DA48008838B92E
:10254000D948008820B9D949012004F039FEA3E117
:10255000012004F0B1FE9FE1D148007805280ED19A
:10256000D348008838B9D348008820B9D24901201F
:1025700004F026FE90E1012004F0F2FC8CE1C84852
:1025800000780A280ED1CD48008838B9CC48008898
:1025900020B9CC49012004F013FE7DE1012004F0B4
:1025A00077FD79E1BE480078092804D1C6490120A9
:1025B00004F006FE70E1BA480078062804D1C34949
:1025C000012004F0FDFD67E1C148008828B9C14839
:1025D000008810B904F0E6FA5EE1012004F004FF7F
:1025E0005AE1AE48007802287BD1BB480078022827
:1025F00003D1AB480578012402E0B84805780224ED
:10260000082D18D1012C05D1A648008810B9A6487C
:10261000008838B1022C0AD1B148008838B9B148D5
:10262000008820B9A149204604F0CAFD38E02046C0
:1026300004F042FE34E0052D18D1012C05D19C4850
:10264000008810B99B48008838B1022C0AD1A648EE
:10265000008838B9A548008820B99749204604F079
:10266000AFFD1DE0204604F07BFC19E00A2D17D1D8
:10267000012C05D19148008810B99148008838B1E3
:10268000022C0AD19A48008838B99A48008820B9A3
:102690008C49204604F094FD02E0204604F0F8FC4A
:1026A000092D04D18849204604F08AFD1DE0062D3D
:1026B00004D18649204604F083FD16E0012C05D1A3
:1026C0008348008810B98348008838B1022C09D1AA
:1026D0008948008830B98948008818B904F062FA3E
:1026E00003E003E0204604F07FFED5E08448007854
:1026F000012802D16A48047801E078480478082C5F
:1027000020D17F48007801280AD16648008838B96E
:102710006548008820B96549012004F051FD56E064
:1027200077480078022808D16D48008828B96D489C
:10273000008810B904F036FA49E07148007804F0D6
:10274000BBFD44E0052C20D16D48007801280AD15A
:102750005748008838B95748008820B956490120A1
:1027600004F02EFD33E066480078022808D15E4868
:10277000008828B95D48008810B904F013FA26E0F3
:102780005F48007804F0ECFB21E00A2C1FD15C4884
:10279000007801280AD14948008838B9484800889B
:1027A00020B94849012004F00BFD10E0544800789E
:1027B000022808D14E48008828B94E48008810B930
:1027C00004F0F0F903E04E48007804F061FC092CB5
:1027D00020D14B48007801280AD14A48008838B9EE
:1027E0004948008820B93849012004F0E9FC52E04A
:1027F00043480078022808D14448008828B9444852
:10280000008810B904F0CEF945E03D48007804F0A6
:1028100053FD40E0062C20D13948007801280AD128
:102820003C48008838B93C48008820B92749012035
:1028300004F0C6FC2FE032480078022808D137485F
:10284000008828B93648008810B904F0ABF922E0B6
:102850002B48007804F084FB1DE02948007801280B
:1028600008D11B48008828B91A48008810B904F01C
:1028700099F910E022480078022808D11E48008803
:1028800028B91E48008810B904F08CF903E01C48F0
:10289000007804F0A9FD00BF70BD000026200020D4
:1028A0002720002062200020642000201920002022
:1028B00082200020842000201A200020A220002056
:1028C000A42000201B2000201D2000201E2000200E
:1028D0005220002054200020252000202920002004
:1028E0006A2000206C2000208A2000208C200020FC
:1028F000AA200020AC2000205A2000205C200020CC
:102900002020002072200020742000207A20002047
:102910007C20002092200020942000209A2000207B
:102920009C20002013B50C46684608F017FA20B921
:102930009DF8000007F07AFA1CBD174800780228BD
:102940001DDA16480078D0B99DF800003030C1B2C9
:10295000114802780078401C0F4B187010488154C1
:1029600000200F491A461278885420460FF06AFA60
:1029700009480078022802DA0AA00FF0B9FE0648DA
:102980000078022805D1012004490870022006F0D1
:1029900067F900BFD0E700003C0100203D010020A6
:1029A0004B0100205F00000070B506460D46304622
:1029B00008F0B4F9044604B970BD58480078762888
:1029C0001AD006DC5C2877D0682809D06F2806D199
:1029D0000CE07C2816D08C28F9D15148047091E085
:1029E000504804700120504908708BE04F48047033
:1029F00001204D49087085E001204B4908704C4882
:102A000004707FE04B480078072859D2DFE800F0D7
:102A10005804070F1B2B3F004748047050E04648FE
:102A20000078844200D1C7E74448047048E0424837
:102A30000078844203D041480078844200D1BBE74B
:102A40003F4804703CE03C480078844207D03B4853
:102A50000078844203D03A480078844200D1ABE742
:102A6000384804702CE03448007884420BD0334856
:102A70000078844207D032480078844203D031483D
:102A80000078844200D197E72F48047018E02A4864
:102A9000007884420FD02948007884420BD028481F
:102AA0000078844207D027480078844203D0264823
:102AB0000078844201D17FE707E02448047000BF1A
:102AC00000BF0120184908701CE02148006890B937
:102AD000002006E01F4911F81010A14200D16BE759
:102AE000401C1D4909788842F4DB1A491A4A1278B9
:102AF00001F8124005E017481749097800EB41003A
:102B0000447000BF00BF15A128460FF09BF9214675
:102B1000284603F0BDFC00BF4EE70000B6200020B1
:102B200027200020F11F002035010020F21F002087
:102B3000F31F0020FA1F0020FB1F0020FC1F0020B5
:102B4000FD1F0020FE1F0020FF1F0020002000208E
:102B5000EC1F0020AC210020F01F002020202020AE
:102B60002020000010B5044605F0A0FC31201049DB
:102B70000871102C0ED0112C08D0122C02D0132C5E
:102B800010D10BE001200A4948710CE002200849ED
:102B9000487108E005200649487104E00620044910
:102BA000487100E000BF00BF0148FEF759FC10BDAE
:102BB0005E01002010B56D48007804280ED006DCB8
:102BC000002867D0022820D003281DD125E0052841
:102BD00039D0AB2872D0AC28F7D1C0E0832164484B
:102BE000008803F05BF9782285216248008802F0B2
:102BF000FBFF93216048008803F050F9782295216B
:102C00005E48008802F0F0FFAEE0932003F058FD2C
:102C10005B4983200FF016F9A6E08421594800682B
:102C200003F008FA5848007828B12D22862156482A
:102C3000007802F0D9FF554990200FF003F9932056
:102C400003F086F990E003F0F7FD514991200FF071
:102C5000F9F850488088FF2817D04E484088FF2850
:102C600013D04D4990200FF0EDF84A490888932180
:102C700003F014F947494888962103F013FA4549AF
:102C80008888982103F00EFA03E0444990200FF061
:102C9000D9F869E080200FF0E9F84148007803286E
:102CA00012D1404980200FF0CDF83F48007801282C
:102CB00005D13EA1812003F025FB3DE04AE03DA186
:102CC000812003F01FFB37E035480078012811D13F
:102CD0003A480078012804D1394980200FF0B2F831
:102CE00003E0384980200FF0ADF837A1812003F0D0
:102CF00009FB21E02A480078022811D134498020BC
:102D00000FF0A0F828480078012804D127A18120DD
:102D100003F0F8FA10E027A1812003F0F3FA0BE0AA
:102D20001F480078042807D12A4980200FF08AF82C
:102D300025A1812003F0E6FA2748007818B1832006
:102D40000FF0DCF905E02548007810B183200FF082
:102D5000AFF909E0224993200FF074F804E0094824
:102D6000006803F08BFD00BF00BF10BDB62000203F
:102D7000382000203A2000202C2000202E20002087
:102D80006A010020CC1F0020AF1F0020702C01081A
:102D900099010020F801002013390108D9360108F3
:102DA000E71F00201F2C010825200020202D3E2099
:102DB00000000000203C2D20000000002620002004
:102DC000192C01081C2C0108202B202000000000D9
:102DD000222C0108252C0108BA200020B820002050
:102DE000C921002010B506F09FFA00B110BD05F012
:102DF00005FF0FF04FF82F480078302816D008DC78
:102E000012280FD019280ED01E280DD0252845D104
:102E10000BE053280BD064280AD0812809D08628DB
:102E20003CD107E000BF00BF00BF00BF00BF00BF34
:102E300000BF00BF1F48007800EB80001E4901EB77
:102E4000C000407E1B4908700846007800EB8000F7
:102E5000194901EBC000007B91281ED1154800786C
:102E600000EB800001EBC000006AB0B190200FF0D1
:102E700017FE1049097801EB81010F4A02EBC101ED
:102E8000086A80470B490978884203D10BA00FF0EC
:102E90002FFC02E00AA00FF02BFC03E012200549F2
:102EA000087000BF00BF03480078FFF72FF800BF8D
:102EB0009CE70000B6200020C00200202A0000008D
:102EC0003E00000013B50C46684607F047FF20B9E6
:102ED0009DF8000006F0AAFF1CBD194800780228E2
:102EE0001DDA18480078D0B99DF800003030C1B222
:102EF000134802780078401C114B18701248815416
:102F0000002011491A461278885420460EF09AFF84
:102F10000B480078022802DA0CA00FF0E9FB084801
:102F20000078022809D10120064908700848007875
:102F3000032802D1022005F093FE00BFCCE7000079
:102F40003E0100203F0100204E0100205F000000F4
:102F50004401002013B50C46684607F0FFFE20B977
:102F60009DF8000006F062FF1CBD1748007802289B
:102F70001DDA16480078D0B99DF800003030C1B293
:102F8000114802780078401C0F4B1870104881548B
:102F900000200F491A461278885420460EF052FF3E
:102FA00009480078022802DA0AA00FF0A1FB0648BF
:102FB0000078022805D1012004490870022005F09C
:102FC0004FFE00BFD0E7000038010020390100208B
:102FD000450100205F00000010B505F00FFE1B4802
:102FE00000780A2804D00B2803D00C280DD101E06A
:102FF00000BF00BF1548007800EB8000144901EBCA
:10300000C000407E1149087003E00A200F49087093
:1030100000BF00BF0D480078FEF778FF90200FF04A
:103020003FFD0A49097801EB8101094A02EBC10120
:10303000086A804705490978884203D105A00FF046
:1030400057FB02E004A00FF053FB10BDB620002098
:10305000C00200202A0000003E00000070B50446B7
:1030600032259520244908700EF014FF234800787B
:10307000D8B901202149087021480078022808D1D8
:10308000204980200EF0DEFE1F4991200EF0DAFE6E
:1030900007E01E4980200EF0D5FE1D4991200EF05C
:1030A000D1FE20460AF01AFB25E0002013490870E3
:1030B00013480078022804D1124980200EF0C2FE85
:1030C00003E0124980200EF0BDFE0B48007800EBB3
:1030D0008000104901EBC000406A48B106490978F8
:1030E00001EB81010B4A02EBC101486A8047C5B27E
:1030F00028460DF083F970BDB620002000020020A4
:10310000E51F0020B6350108582E0108C135010819
:103110005D2E0108C0020020F8B50024FE480578A5
:10312000022005F09DFD00B1F8BDFB480078722833
:103130003FD006DC692814D06B2816D070287DD1CA
:1031400033E0772855D0792857D07E2876D17C2057
:10315000F149087000220846017804200CF08CFF29
:10316000E2E70020ED49087000BF0EF093FE09F081
:10317000BFFBEB480078022804D1EA4990200EF00A
:1031800061FE07E0E6480078012803D1E649902077
:103190000EF058FE05200EF02DFF0020DE490870CD
:1031A00006F09CFEFFF70EF9BEE70020DF4908702D
:1031B00000BF0EF06FFE09F0BBFBD9480078022873
:1031C00004D1D84990200EF03DFE07E0D4480078A5
:1031D000012803D1D44990200EF034FE05200EF0D2
:1031E00009FF0020CC49087006F078FEFFF7EAF8E6
:1031F0009AE70020CE49087000BF0EF04BFE09F0A0
:10320000B7FBC7480078022804D1C64990200EF0C9
:1032100019FE07E0C2480078012803D1C249902076
:103220000EF010FE05200EF0E5FE0020BA490870F1
:1032300006F054FEFFF7C6F876E7FFE7BD480078D2
:10324000012809D10020BB4908709220B2490870BA
:10325000B9A10EF0F7FD67E7AF480078AB287DD045
:1032600012DC8C281DD008DC102816D0112817D0AD
:103270008A2874D08B2856D198E0A82854D0A92841
:1032800053D0AA28F7D151E0AE3808284BD2DFE856
:1032900000F02D2E4E4F5051522F07F0A9FC43E75E
:1032A00042E707F04DFFC8B190200EF0DFFD9C48CB
:1032B0000078022804D19B4990200EF0C3FD07E05E
:1032C00097480078012803D1974990200EF0BAFD65
:1032D00005200EF08FFE08F0F3FF06E0FDF70EF874
:1032E0000A200EF087FE0EF0B3FA1DE700BF00BF04
:1032F0008948007800EB8000904901EBC000C0696C
:1033000088B18548007800EB800001EBC000002206
:10331000C369814801780420984700B904E7AD20CB
:103320007D49087000E759E000BF00BF00BF00BF43
:1033300000BF00BF00BF7848007800EB80007F49E5
:1033400001EBC000C06980B17348007800EB8000D9
:1033500001EBC0000022C3696F4801E006E024E0F1
:1033600001780420984700B9DEE637E06A48007823
:1033700000EB8000714901EBC000C069A0B1664854
:10338000007800EB800001EBC0000022C3696248B6
:1033900001780420984700B9C6E65F480078FEF738
:1033A000B5FDFFF707FCBFE618E000BF5A480078FC
:1033B00000EB8000614901EBC000C06968B156486C
:1033C000007800EB800001EBC0000022C369524886
:1033D00001780420984700B9A6E600BF00BF0EF0B0
:1033E00059FD4D480078312804D104F0F1FA4A49DA
:1033F000087016E04848007800EB80004F4901EB68
:10340000C000807E4449097888420AD0424800784A
:1034100000EB8000494901EBC000807E3E49087006
:1034200001243D48007810B9FFF7DCFC7CE63A48FF
:103430000078FEF76BFD3848007800EB80003F49CC
:1034400001EBC0000069002864D0334800785C2894
:1034500042D008DC1A2831D01F2814D026282ED0BC
:103460005B2809D12EE06B2804D0722805D079287A
:1034700002D105E003F0BEF88BE003F0DDF888E050
:1034800003F0FCF885E02E48007802280FD12D4883
:103490000078012805D12C4A2C49022004F058FD5F
:1034A0000BE0294A2949012004F052FD05E0264A93
:1034B00026492748007804F04BFD00BF00BF06F006
:1034C00071FC66E00120234908700846017840F24B
:1034D000C9400EF0E9F95CE0002000901E48007839
:1034E0003130C0B28DF800003A208DF801008520FF
:1034F0000FF0D6FA68460FF0FBF895200FF0D0FADF
:1035000068460FF0F5F815481349097810F81100CE
:1035100008B125E090E02BE0B6200020F41F002049
:10352000E51F0020D22D0108DB2D0108F51F00202A
:10353000F61F0020350100205F000000C0020020BF
:1035400026200020252000203220002030200020CE
:1035500020200020E81F0020F01F0020AC210020C8
:10356000D348D44A127810F81210862002F090FF47
:10357000CF48D049097800EB4100407840B1CC48B1
:10358000CC4A127800EB42004178962002F080FF8E
:1035900000BF00BFC848007800EB8000C74901EBBE
:1035A000C000C069E8B15CB1C3480078682807D0A2
:1035B000C14800786F2803D0BF480078762810D122
:1035C000BD48007800EB8000BC4901EBC000002240
:1035D000C369B94801780420984710B101200EF062
:1035E00009FDB548007800EB8000B44901EBC0004C
:1035F000007B91281BD1B048007800EB800001EBE4
:10360000C000006A002812D090200FF049FAAA49A1
:10361000097801EB8101A94A02EBC101086A8047E0
:10362000A5490978884203D1A5A00FF061F837E1D8
:10363000A4A00FF05DF833E100269F48007800EB6E
:1036400080009E4901EBC000406A48B19A49097860
:1036500001EB8101994A02EBC101486A80470646A5
:1036600095480078272873D012DC1D2838D008DC54
:10367000142838D0162837D0182839D01B2825D13F
:103680002DE0202829D0222828D02428F7D11EE098
:1036900046287DD006DC29287BD02B287AD04528E7
:1036A000EDD106E08D2860D08E2874D09A28E6D11E
:1036B000E7E081480178022007F0E6FA05F09EFA7B
:1036C0002A2290218048007802F08EFAE6E006F087
:1036D00069FB912002F03CFCE0E000BF00BF00BFAE
:1036E00006F060FB00BF00BF872003F07BF800BF3F
:1036F00071480178022007F0C7FAA8B96E4800782F
:1037000000EB80006D4901EBC000C06990B16A48D0
:10371000007800EB800001EBC0000022C36966481E
:1037200001780420984705E00022634801780420CE
:103730000AF042F805F062FA06F0AEF85E4800784A
:10374000854206D001206149086002F0C1FD09E010
:1037500094E05E480068012804D100205B490860BD
:1037600002F0B6FD06F062F898E059480078401C77
:1037700057490870087800EBD0714910A0EB41015F
:10378000534A11701046007801281BD14A4803E0C3
:1037900081E074E074E034E00178022007F074FA0C
:1037A000012809D105F02AFA06F076F800204749E9
:1037B000086002F08DFD23E045480078401C444934
:1037C00008701DE03C480178022007F05DFA0128EE
:1037D00011D105F013FA06F05FF801203B490860AB
:1037E00002203C4908708E20FEF790FB3AA1912000
:1037F0000EF028FB04E036480078401C344908707D
:103800004CE037480078401C35490870087800EBD8
:10381000D0714910A0EB4101314A11701046007877
:10382000012816D124480178022007F02DFA01283A
:1038300009D105F0E3F906F02FF8002023490860CC
:1038400002F046FD19E026480078401C2449087023
:1038500013E019480178022007F016FA012807D171
:1038600005F0CCF906F018F801201849086004E0CA
:103870001B480078401C1A4908700FE000BF00BFC9
:1038800000BF05F0BBF99121304602F007FB87200D
:1038900002F0A8FF02E005F037FF00BF00BF00BF45
:1038A0000548007808B9FFF785F900BF3CE400003F
:1038B000AC210020F01F0020B6200020C002002014
:1038C0002A0000003E000000E61F0020102000201B
:1038D000FE010020202000205F2020207800000032
:1038E000FF0100202DE9F05FF84890F80190807802
:1038F00000F07F0BF548C47805794679877990F810
:103900000780B9F1000F03D0F148007881456DD1EF
:10391000BBF10D0F6BD00BDCBBF10D0F68D2DFE8F4
:103920000BF0672962EFEEEDECEBEAE9E8E7E60081
:10393000BBF1140F5DD00BDCABF10E000628EDD20D
:10394000DFE810F05C0373037B0383038B03A103A5
:10395000BBF1170F73D006DCBBF1150F70D0BBF1B4
:10396000160F45D1B5E3BBF1180F6AD0BBF17F0F3D
:10397000F7D1F6E3012C0BD0022C0FD0032C10D082
:10398000042C2DD10020D3490860D349086028E0D9
:103990000120D0490860D049086022E0FCF7D6FC3D
:1039A0001FE0CB480570017840F2C7400DF07CFF66
:1039B000C7480078401CC1B20322042009F03CFE35
:1039C000C248807800F08000802807D1C348007882
:1039D000012803D10A21BD480DF0C8FABDE8F09FC7
:1039E000FCE700BF23E2152C72D203E0F3E3FDE213
:1039F000F2E356E3DFE804F0BD0B0E1926303A443B
:103A000047545C646D75858B92999FA9B3000CF047
:103A100085FAAFE0B2480078032802D00BF0EEFF41
:103A200002E0002001F0C4FBA4E0AD4800780328C8
:103A300001D00BF0E3FF042001F0BAFB9AE077E33A
:103A400037E37DE3A6480078032801D00BF0D6FFCA
:103A5000032001F0ADFB8DE0A1480078032801D0E0
:103A60000BF0CCFF022001F0A3FB83E09C48007820
:103A7000032801D00BF0C2FF062001F099FB79E08A
:103A80000BF036FF76E0974890F800A001219648A9
:103A900000780BF0F5FA022150460BF0F1FA69E0DC
:103AA000012092490870012108460BF0A9FA61E053
:103AB00000208E490870002101200BF0A1FA59E086
:103AC00001208B490870012102200BF099FA51E086
:103AD0004FE0002086490870002102200BF090FA88
:103AE00048E097208349087004F084FB42E075E2C7
:103AF0006CE2FDE1E0E19BE15DE130E1BAE08FE005
:103B00003AE098207B49087004F074FB32E0022010
:103B10007949087001200CF07FFC2BE001207649E8
:103B2000087002200CF078FC24E09920714908709C
:103B300004F060FB1EE0012070490870084601781F
:103B40004FF494600DF0B0FE14E002206B49087051
:103B5000084601784FF494600DF0A6FE0AE00320B9
:103B600066490870084601784FF494600DF09CFE99
:103B700000E033E700BF35E7012C03D101206049A5
:103B8000087004E0022C02D102205D4908700C2D5F
:103B900043D2DFE805F042060C12181E242A4230F8
:103BA000363C5748017801200BF06AFA36E0544859
:103BB000017803200BF064FA30E0514801780220CC
:103BC0000BF05EFA2AE04E48017807200BF058FA15
:103BD00024E04B48017808200BF052FA1EE04848D8
:103BE000017805200BF04CFA18E0454801780A20CE
:103BF0000BF046FA12E0424801780B200BF040FA35
:103C00000CE03F48017809200BF03AFA06E03C4806
:103C1000017806200BF034FA00E0DFE600BFE1E6B1
:103C2000012C06D0022C08D0032C0DD0042C1ED160
:103C300011E0012009F052FD1AE00120314908701D
:103C4000022009F04BFD13E002202E4908700320EA
:103C500009F044FD0CE02C480570017840F2335027
:103C60000DF022FE284800780CF0C8FB00E0B5E615
:103C700000BFDFE30E2C67D2DFE804F066070B0F0E
:103C800013171B1F234A4E52565A0E201F49087005
:103C90005BE00D201D49087057E00C201B4908709F
:103CA00053E00920194908704FE0082017490870AF
:103CB0004BE007201549087047E0062013490870BB
:103CC00043E00520114908703FE000003D2100203D
:103CD000AF1F0020D41F0020D01F0020A21F0020F3
:103CE000262000202720002029200020232000203B
:103CF00024200020B6200020252000200D200020B8
:103D0000202000202120002022200020B52000209B
:103D10000320F749087018E00220F549087014E004
:103D20000120F349087010E00A20F14908700CE006
:103D30000020EF49087045EA0620EE49088047EA6E
:103D40000820ED49088000E048E600BFE848007818
:103D50000BF094FD06F0E4F907F090F86AE3012C0B
:103D600012D10120E549086045EA06221621022009
:103D700009F022FD0020E149086047EA08221621E7
:103D8000022009F019FD15E0022C12D10120DB49B7
:103D9000086045EA06221421022009F00DFD0020EA
:103DA000D649086047EA08221421022009F004FDE0
:103DB00000E013E63EE314F0800F03D10120D04968
:103DC000087006E004F08000802802D10220CC496F
:103DD000087004F07F00012811D1C849086045EA45
:103DE00006221D21022009F0E7FC0020C3490860DB
:103DF00047EA08221D21022009F0DEFC17E004F04A
:103E00007F00022812D10120BC49086045EA062241
:103E10001B21022009F0D0FC0020B849086047EAC5
:103E200008221B21022009F0C7FC00E0D6E501E3CF
:103E300014F0800F03D10120B149087006E004F0AE
:103E40008000802802D10220AD49087004F07F0074
:103E5000012811D1A949086045EA06222221022041
:103E600009F0AAFC0020A549086047EA082222219F
:103E7000022009F0A1FC1EE004F07F00022812D10C
:103E800001209E49086045EA06222021022009F00F
:103E900093FC00209949086047EA0822202102206B
:103EA00009F08AFC07E004F07F00032802D1FEF746
:103EB00039FB00E092E5BDE2012C04D0022C08D0D1
:103EC000032C12D10BE02A462721022009F074FCB2
:103ED0000CE02A462921022009F06EFC06E02A4661
:103EE0002B21022009F068FC00E077E500BFA1E289
:103EF0000B2C68D2DFE804F06706232934414E5BBF
:103F00005E61640005F07F0000F5FA607D4908807D
:103F10007007000F40EAD5104880F008888007F04D
:103F20001F00C8804FEA4870800E40EA5710088191
:103F300008F0F800801048810CF0C0FF44E02846EB
:103F400008F086FB00B949E53EE0284605F062F935
:103F500020B16D496D480DF0B7FA00E03EE533E061
:103F60006B4805704670877080F80380012008F068
:103F70001FFD012002F09CFF26E065480570467099
:103F8000877080F80380022008F012FD022002F002
:103F90008FFF19E05E4805704670877080F80380D7
:103FA000032008F005FD032002F082FF0CE0FCF77F
:103FB00057FD09E0FCF764FD06E0FCF771FD03E046
:103FC00008F024F900E009E500BF33E2514804702D
:103FD00045708670C77080F804802BE24D484471AC
:103FE0008571C671077280F8098023E2494884729E
:103FF000C5720673477380F80E801BE24548C47390
:1040000005744674877480F8138000204149087550
:1040100002F012FF4048007830B980200DF026FFF2
:104020003C4980200DF00EFF04E23C4804704570CE
:104030008670C77080F80480FCE13848447185714F
:10404000C671077280F80980F4E134488472C57241
:104050000673477380F80E80ECE13048C473057432
:104060004674877480F8138000202C490875152148
:1040700040F217500DF018FC1622284940F2195052
:104080000EF05CFAD6E126480470017840F2F64062
:104090000DF00AFC234805704670877080F8038095
:1040A000C8E12048047145718671C77180F80880A5
:1040B000C0E11C484472857200201A49184A1278DF
:1040C000885417480278921C4FF49F600EF036FA1D
:1040D000B0E115480470017840F2E7400DF0E4FBD0
:1040E000124805704670877080F80380A2E10000D6
:1040F000B520002034200020362000201020002091
:1041000020200020EC0100209E000020350000202F
:10411000FC00002099010020B62000206A01002048
:10412000AD1F00207F010020AC1F00208C0100206B
:10413000CE48047145718671C77180F8088079E1B5
:10414000CA48447285720020C849C94A1278885406
:10415000C7480278921C40F2E9400EF0EFF969E19D
:10416000FFE7142C75D2DFE804F0740A28296B7E6F
:1041700084DDF0F7FEECEBEAE9E8E7E6E5E4BD48CC
:104180000078012803D0BB480078022804D101211F
:10419000042008F0CDF80FE0B6480078032804D1D9
:1041A0000221042008F0C4F806E0B2480078042890
:1041B00002D1032108F0BCF839E100BF022C03D181
:1041C000AD4890F800A002E0AC4890F800A0BAF129
:1041D0000C0F32D201E03CE12BE1DFE80AF02E06C1
:1041E0000B102E1F2E151A2E24290121042008F051
:1041F0009FF823E00221042008F09AF81EE0032132
:10420000042008F095F819E00421084608F090F819
:1042100014E00521042008F08BF80FE006210420AB
:1042200008F086F80AE00721042008F081F805E08C
:104230000921042008F07CF800E09AE400BFF6E0D1
:104240008F480078012805D10121042008F070F87A
:1042500008E0EBE08A480078022803D1022104201C
:1042600008F066F8E3E087480178042008F060F879
:10427000DDE0854800780F2852D2DFE800F0443AAC
:104280003530512B26211C173F51120D08000121FA
:10429000042008F04DF843E00221042008F048F81B
:1042A0003EE00321042008F043F839E004210846E9
:1042B00008F03EF834E00521042008F039F82FE03A
:1042C0000621042008F034F82AE00721042008F031
:1042D0002FF825E00821042008F02AF820E0092121
:1042E000042008F025F81BE00A21042008F020F83B
:1042F00016E00B21042008F01BF811E00C2104202B
:1043000008F016F80CE06148C07840F080005F4982
:10431000C8705F4801885F48008808F019F800BF3E
:1043200000BF84E05C4801885C48008808F010F811
:104330007DE06EE060E047E03FE037E02FE027E01F
:104340001FE017E00FE007E0FFE7554801885548F8
:10435000008807F0FDFF6AE0534801885348008851
:1043600007F0F6FF63E0524801885248008807F0E2
:10437000EFFF5CE0504801885048008807F0E8FFF4
:1043800055E04F4801884F48008807F0E1FF4EE0B4
:104390004D4801884D48008807F0DAFF47E04C4857
:1043A00001884C48008807F0D3FF40E04A48018864
:1043B0004A48008807F0CCFF39E04948018849485D
:1043C000008807F0C5FF32E0012D05D1464801788D
:1043D000052007F0ADFF0EE0022D05D1434801781E
:1043E000052007F0A5FF06E0032D04D14048017821
:1043F000052007F09DFF1AE03E4A3F49012003F0E7
:10440000A7FD28B13B4801883B48008807F0A0FF82
:104410000DE0384A3849022003F09AFD28B13548AA
:1044200001883548008807F093FF00E01FE400BFD3
:104430001DE41CE400BF1548807800F0800080284F
:1044400007D12E480078012803D10A210F480CF02B
:104450008DFDB9F1000F03D029480078814503D0C4
:104460000A210A480CF0BCFD00BF6DE48C0100205D
:10447000AC1F00202620002027200020292000201B
:104480002120002022200020B52000203D210020F6
:1044900036200020342000203E2000203C20002038
:1044A0003A2000203820002048200020462000200C
:1044B0004420002042200020502000204E200020D8
:1044C0004C2000204A2000205820002056200020A8
:1044D0005420002052200020602000205E20002078
:1044E0005C2000205A200020B2200020B3200020B1
:1044F000B42000203220002030200020A21F002005
:10450000AF1F002038B500250020009069462148E3
:1045100007F059F801283BD01F48007870B99DF882
:104520000000AA2834D19DF800101B4802780078BA
:10453000401C194B18701948815429E0164800781E
:1045400009281BD19DF800000D2813D19DF800000B
:104550001249114A12788854012403E00F48005D83
:104560004540641C082CF9DB0C48007AA84201D1B4
:10457000FFF7B8F900200849087009E09DF800101D
:10458000054802780078401C034B1870034881549A
:1045900038BD0000E0210020050000203D21002062
:1045A00010B511200E4908700DF074FC0D4800780C
:1045B000022808D10C4980200DF044FC0B498420CE
:1045C0000DF040FC0BE007480078012807D10849AE
:1045D00080200DF037FC074990200DF033FC10BD12
:1045E000B6200020E51F0020E33201082931010830
:1045F000EE3201084831010801B5684606F0AEFB0D
:1046000020B99DF8000005F011FC08BD9DF80000E0
:1046100030301B4908701B480078102811D11A4807
:104620000078022804D1194984200DF00BFC10E019
:104630001548007801280CD1154984200DF002FCA2
:1046400007E010480078112803D10DF023FC06F094
:1046500011FB0D480078022804D10E4990200DF07E
:10466000F1FB07E008480078012803D10A499020AF
:104670000DF0E8FB024992200DF0E4FB00BFC4E717
:1046800042010020B6200020E51F002089300108EB
:1046900076300108823601088E36010810B51020E8
:1046A0000E4908700DF0F6FB0D480078022808D17D
:1046B0000C4980200DF0C6FB0B4984200DF0C2FB95
:1046C0000BE007480078012807D1084980200DF049
:1046D000B9FB074984200DF0B5FB10BDB6200020C2
:1046E000E51F0020CC32010829310108D73201082A
:1046F0004831010811B581B0002401A806F02EFB55
:1047000020B99DF8040005F091FB1CBD9DF8040044
:10471000082806D09DF80400092802D09DF804005E
:1047200000B9F2E79DF804003030C0B200904E4866
:1047300000786B282FD14D48007807282BDA01200C
:104740004B490870002408E04A48005D9DF80410B9
:10475000884200D1D9E7601CC4B244480078844242
:10476000F2DB9DF804004349404A127888543F49DF
:1047700009789031C8B269460DF064FB3B48007877
:10478000401C3A4908700846007807286ADA3AA0BF
:104790000DF0AEFF66E03448007872282FD137481C
:1047A000007807282BDA012035490870002408E03A
:1047B0003448005D9DF80410884200D1A5E7601CD4
:1047C000C4B22E4800788442F2DB9DF804102D48D4
:1047D0002A4A12788154294909789031C8B2694629
:1047E0000DF030FB25480078401C2449087008462D
:1047F0000078072836DA20A00DF07AFF32E01A4858
:10480000007879282ED12048007807282ADA01205C
:104810001E490870002408E01D48005D9DF8041042
:10482000884200D171E7601CC4B217480078844206
:10483000F2DB9DF804001649134A12788854124995
:1048400009789031C8B269460DF0FCFA0E4800783C
:10485000401C0D49087008460078072802DA06A0B7
:104860000DF046FF00BF50E7B620002015000020E5
:10487000F41F00200E000020205F00001F00002019
:10488000F51F00201800002029000020F61F00203E
:1048900022000020F7B50E461446684606F05EFA80
:1048A00020B99DF8000005F0C1FAFEBD30460EF0BB
:1048B000F7F8002503E020200DF0F2FA6D1CA54268
:1048C000F9DB1D480078A0421DDA1C480078D0B9F9
:1048D0009DF800003030C1B2174802780078401CC3
:1048E000154B187016488154002015491A46127845
:1048F000885430460DF0A6FA0F480078A04202DA3C
:1049000010A00DF0F5FE0C480078A04211D1012056
:104910000A4908700A4930460DF094FA0A480078AE
:104920009B2803D008480078622802D1022004F0B6
:1049300097F900BFB9E700003701002036010020D9
:10494000682100205F000000B620002013B50C464F
:10495000684606F003FA20B99DF8000005F066FAF3
:104960001CBD1548007802281DDA14480078D0B91B
:104970009DF800003030C1B20F4802780078401C2A
:104980000D4B18700E48815400200D491A461278BC
:10499000885420460DF056FA07480078022802DABB
:1049A00008A00DF0A5FE04480078022802D10120DD
:1049B0000249087000BFD3E74001002041010020F8
:1049C000510100205F00000010B540480078401CF5
:1049D0003E490870084600783C2825D10020087020
:1049E0003B480078401C3A490870084600783C284B
:1049F0001AD10020087037480078401C35490870EB
:104A00000846007818280FD1002008703248007836
:104A1000401C3149087008460078642190FBF1F28F
:104A200001FB12002C4908702C480078012813D192
:104A300085212948007801F035FB90212548007830
:104A400001F030FB92212248007801F02BFB9421E9
:104A50001E48007801F026FB21480078A8B32148C1
:104A6000007858B901201F49087006F005FF1E495B
:104A700008601E491C4800680DF058FE06F0FCFE58
:104A800019490968401A3C21B0FBF1F41848007834
:104A900084421AD316480078B4FBF0F100FB1140B1
:104AA00098B90A48007880B9B4F5803F0DD20D4816
:104AB0000078012806D102200A49087003F0F6FAAE
:104AC0000C490880A0B207F081FF10BD5C010020F6
:104AD0005B0100205A01002059010020B62000206F
:104AE000C41F002058010020540100209021002004
:104AF000C71F0020CA1F002010B504F0EFFB50B9FB
:104B000004F0DAFB38B9134800789A2803D011482A
:104B1000007895281BD110480078012803D10A207D
:104B20000D4908700EE00C4800780A2803D1642073
:104B30000949087006E008480078642802D101207D
:104B400005490870872001F04DFE012010BD0020AE
:104B5000FCE70000B62000201820002010B50D480A
:104B60000078972803D19920FDF7D0F90AE0094889
:104B70000078992803D19820FDF7C8F902E0972022
:104B8000FDF7C4F904A190200DF05CF903F032FBAD
:104B900010BD0000B62000202A00000010B57348A8
:104BA0000078012802D1FCF72BF8DEE00BF066FF5D
:104BB0006F480078892802D007206D4908700DF0F1
:104BC00069F96C48007803286ED16B4980200DF09C
:104BD00039F96A480078022804D1694992200DF019
:104BE00031F907E065480078012803D16549902034
:104BF0000DF028F96448007802282AD163A18120A9
:104C000001F080FB01200DF0F5F963A1812001F096
:104C100079FB01200DF0EEF962A1812001F072FB19
:104C200001200DF0E7F962A1812001F06BFB01206A
:104C30000DF0E0F961A1812001F064FB01200DF08D
:104C4000D9F961A1812001F05DFB01204E49087076
:104C500089E060A1812001F055FB01200DF0CAF927
:104C60005FA1812001F04EFB01200DF0C3F95FA18F
:104C7000812001F047FB01200DF0BCF95EA18120ED
:104C800001F040FB01200DF0B5F95EA1812001F09B
:104C900039FB01200DF0AEF95DA1812001F032FB5E
:104CA0000220394908705EE032480078012803D0BC
:104CB0003048007804282AD15848047858480078A9
:104CC00056490870564804702C480078022804D1D0
:104CD000544992200DF0B6F807E0284800780128E2
:104CE00003D151A192200DF0ADF82248007801289F
:104CF00004D1504980200DF0A5F803E04E498020F2
:104D00000DF0A0F84DA1812001F0FCFA2BE019482C
:104D10000078022827D14B4980200DF093F81748DE
:104D20000078022804D1484992200DF08BF807E062
:104D300012480078012803D1444990200DF082F8F0
:104D400011480078022807D11FA1812001F0DAFA6A
:104D500001200D49087006E02DA1812001F0D2FA52
:104D600002200949087008F0DFFC10BD2620002051
:104D7000B6200020E71F00201F2C0108E51F00209F
:104D80008331010877310108252000202D2D3E2098
:104D90002020202000000000202D2D3E202020205B
:104DA0000000000020202D2D3E20202000000000CB
:104DB0002020202D2D3E202000000000202020203B
:104DC0002D2D3E200000000020202020202D2D3EF3
:104DD0000000000020202020203C2D2D000000009D
:104DE000202020203C2D2D20000000002020203CF1
:104DF0002D2D20200000000020203C2D2D202020E3
:104E000000000000203C2D2D20202020000000006C
:104E10003C2D2D20202020200000000027200020F5
:104E2000292000206A2E01085377617020496D61A6
:104E3000676500001C2C0108252C010820202B2070
:104E400020000000222C01089D310108AF3101082B
:104E500070B5002504F068FA00B170BDA448007870
:104E6000102803D0A2480078112800D1F5E7A04807
:104E7000007800EB80009F4901EBC000006918B981
:104E80009B48007845286BD103F0B8FE984800781D
:104E900000EB8000974901EBC000007E944909783F
:104EA00088420AD09248007800EB8000914901EBDB
:104EB000C000007E8E49087001258D480078FDF7FE
:104EC00025F80BF0B7FD8A48007800EB800089498F
:104ED00001EBC000C06980B17DB98548007800EB66
:104EE000800001EBC0000022C369814801780220E4
:104EF000984710B101200DF07DF87D48007800EB57
:104F000080007C4901EBC000007B91281ED17848CD
:104F1000007800EB800001EBC000006AB0B1902087
:104F20000DF0BEFD7249097801EB8101714A02EB77
:104F3000C101086A80476E490978884203D16EA092
:104F40000DF0D6FB02E06DA00DF0D2FB68480078B2
:104F50009A2804D191216A48007801F0A3F8C2E0B0
:104F6000002403F04BFE6248007800EB80006149AA
:104F700001EBC000407E5E490978884209D05C4858
:104F8000007800EB80005B4901EBC000407E58498F
:104F900008705748007800EB8000564901EBC000CC
:104FA000006920B152480078FCF7B0FF55E750483F
:104FB000007800EB80004F4901EBC000406A48B127
:104FC0004B49097801EB81014A4A02EBC101486A69
:104FD000804704464648007822281BD00CDC1B285A
:104FE00019D004DC14281AD016283DD118E01D2849
:104FF00012D0202838D10CE02B2822D004DC27281E
:105000001DD0292830D11BE095280AD09A282BD111
:1050100018E000BF00BF00BF04F0C4FE00BF00BF27
:1050200000BF38480078201A01D5002403E0354835
:105030000078201A84B2872001F0D4FB14E000BF6E
:1050400000BF00BF2F480078201A01D5002403E0DC
:105050002C480078201A84B29121204600F01EFFCF
:10506000872001F0BFFB00BF00BF2148007800EBA4
:105070008000204901EBC000C06958B11C4800788D
:1050800000EB800001EBC0002246C369184801789C
:105090000220984716480078202817D008DC1428EA
:1050A00010D016280FD01B280ED01D2819D10CE0C7
:1050B00022280CD0462802D0952812D10AE004F00C
:1050C00015FA0EE000BF00BF00BF00BF00BF04F034
:1050D000E3FB06E02A2290210B48007800F084FDD3
:1050E00000BF00BF00BFFDF765FD00BFB5E60000D3
:1050F000B6200020C00200202A0000003E00000070
:1051000040200020182000202220002010B532244A
:105110009520244908700CF0BDFE2248007800EB71
:105120008000214901EBC000406A48B11D4909785F
:1051300001EB81011C4A02EBC101486A8047C4B2FD
:105140002A229021204600F04FFD184800780228BE
:1051500010D1144A127802EB8202134B03EBC20205
:105160005168104A127802EB820213F832000CF0F8
:1051700069FE13E00D48007801280FD1094A127822
:1051800002EB8202084B03EBC2029168054A1278D7
:1051900002EB820213F832000CF054FE872001F07B
:1051A00021FB10BDB6200020C0020020E51F00201A
:1051B00010B50446072C47D2DFE804F004460A1570
:1051C0002C463700002023490880234908803BE013
:1051D0000020204908802148008821490988401A78
:1051E0001D49088030E01F4909881F4A1288881A23
:1051F00000EBD071C1F34F01164A1180174909889D
:10520000174A1288881A00EBD071C1F34F01124A75
:10521000118019E01348008813490988401A0D4984
:10522000088000200C4908800EE00E4800880E49D6
:105230000988401A074908800848008808490988F1
:10524000401A0549088000BF00BF022106200AF06D
:10525000FBFC10BD4E2000205020002044200020E8
:105260004C200020422000204A20002070470000EF
:105270002DE9F04107460D469046F948007810B9EF
:105280000020BDE8F081F6480178F6480CF040FDBA
:1052900084B203F0B3FC882D7ED1342C7DD01BDC8E
:1052A0000B2C7BD007DC082C79D2DFE804F07831B6
:1052B000373B3F58618D162C72D006DC0C2C70D019
:1052C0000D2C6FD0152C6AD1ABE0172C6BD0322C83
:1052D0006AD0332CF7D132E1402C66D00BDCA4F13C
:1052E00035000B28E0D2DFE800F0F2F1F05A5A5A0C
:1052F0005AEFEEEDEC00A4F146000E28D4D2DFE820
:1053000000F0EDECEB4E4E4E4E4E4E4EEAE9E8E725
:105310000320D549087009F049FE3FE24B20FCF715
:10532000F5FD3BE24D20FCF7F1FD37E20220CF49CD
:105330000870CF480068CF49884203D29C20FCF710
:10534000E5FD0BE00420C84908708F20CA490870A9
:105350000CF0A0FDC94980200CF074FD1EE2032072
:10536000FCF7D4FD8421C648006800F063FE15E216
:105370000CF090FD0120C3490870084601784FF4F5
:105380009C600CF091FAC0480078022813D1BF4904
:1053900080200CF057FD09E001E2E0E035E0FBE1A0
:1053A00067E036E039E09AE0C1E03DE1B8498720A6
:1053B0000CF048FD07E0B74980200CF043FDB649EA
:1053C00090200CF03FFDE9E10CF064FD0020AD49B8
:1053D0000870084601784FF49C600CF065FAAA4802
:1053E0000078022808D1A94980200CF02BFDAB4998
:1053F00087200CF027FD07E0A64980200CF022FD55
:10540000A74990200CF01EFDC8E1A320FCF77EFD0B
:10541000C4E1A420FCF77AFDC0E1A520FCF776FDED
:10542000BCE10CF037FD9F4980200CF00BFD9E483D
:1054300000884FF47A7190FBF1F040B19A480088EF
:1054400090FBF1F086B28521304600F02BFE9648A5
:1054500000884FF47A7190FBF1F201FB120086B2E2
:105460008621304600F01AFD904990200CF0EAFCAD
:1054700094E10CF00FFD8E4980200CF0E3FC8D4888
:1054800000884FF47A7190FBF1F040B189480088B0
:1054900090FBF1F086B28521304600F003FE85488E
:1054A00000884FF47A7190FBF1F201FB120086B292
:1054B0008621304600F0F2FC7F4990200CF0C2FCBF
:1054C0006CE1ADE094E085E071E068E05FE056E01B
:1054D0005EE159E148E137E132E12DE128E10CF0EC
:1054E000D9FC764980200CF0ADFC754800884FF45B
:1054F0007A7190FBF1F040B17148008890FBF1F0B7
:1055000086B28521304600F0CDFD6D4800884FF40D
:105510007A7190FBF1F201FB120086B286213046CF
:1055200000F0BCFC674990200CF08CFC36E1B32005
:10553000FCF7ECFC644990200CF084FC2EE1AE20DA
:10554000FCF7E4FC6148007820B1614990200CF040
:1055500079FC03E05F4990200CF074FC1EE1AF2061
:10556000FCF7D4FC5C48007820B15C4990200CF03A
:1055700069FC03E05A4990200CF064FC0EE1B02075
:10558000FCF7C4FC574990200CF05CFC06E1B1200C
:10559000FCF7BCFC544990200CF054FCFEE0B22017
:1055A000FCF7B4FC514990200CF04CFCF6E00120D3
:1055B0004F4908700846017840F23A500CF074F9EF
:1055C0004C4980200CF03EFC494940F23A5006F02C
:1055D0003BFBE3E00020464908700846017840F2B2
:1055E0003A500CF061F9444980200CF02BFCD5E0D6
:1055F0000CF050FC24480078022804D13F49932045
:105600000CF020FC07E020480078012803D13C4939
:1056100093200CF017FCFCF737F804F03FFCBDE0DA
:10562000A720FCF773FCB9E036480CF0F1F906F05E
:105630002DFA58B10CF02EFC334980200CF002FCFE
:1056400086213248008800F02DFD08E00CF022FC95
:105650002F4980200CF0F6FB2EA00CF0D9F99DE02C
:10566000370100206821002044010020B01F0020E5
:10567000A81F002040420F00B62000201339010867
:10568000CC1F0020A01F0020E51F0020762C010861
:10569000A02C01088B2C0108A72C0108AC2C0108B8
:1056A000B32C01083C390108961F0020D6010020C8
:1056B00050390108981F0020DD01002064390108DD
:1056C0009A1F0020E4010020A23C0108BA2000201B
:1056D0003C3C01082B3C0108B82000205E3C01083E
:1056E0004D3C01086F3C0108803C0108913C0108D9
:1056F000C41F0020713A0108863A0108603701088A
:105700006B370108D82B01084B3A0108C81F00204D
:105710005C3A0108BFAABBFACAB1BCE4CCABB6CCB8
:10572000A3ACC3BBD3D0BCC7C2BC0D0A00000000F1
:10573000A220FCF7EBFB31E09F20FCF7E7FB2DE01C
:10574000A620FCF7E3FB29E000201E4908701E4854
:1057500000681E49884203D29C20FCF7D7FB02E078
:105760009D20FCF7D3FB19E001201649087016486C
:1057700000681649884203D29C20FCF7C7FB02E070
:10578000A020FCF7C3FB09E09E20FCF7BFFB05E06F
:105790009B20FCF7BBFB01E0002072E50FE04B2DE6
:1057A0000DD13B2C00DD3B2409490C702A229021AD
:1057B000204600F019FAE1B206200CF075F801203D
:1057C0005FE50000B01F0020A81F002040420F002E
:1057D000E41F00202DE9F04780460F469146002641
:1057E000DF48007810B90020BDE8F087DC48017878
:1057F000DC480CF08DFA85B23846AF2F6FD010DC44
:10580000A92860D006DC8A2813D08B281CD0A828B1
:105810007DD124E0AA287BD0AB287AD0AE28F7D15E
:10582000C1E0B038062872D2DFE800F0BFC0C1C2C4
:10583000FCFBCD480580CD480580CD480078022886
:1058400001D1CC48058086E1CB480580CB48058056
:10585000C7480078022801D1C94805807BE13C2D6A
:1058600007DD03F0CBF9C7A185200CF0EBFA00208F
:10587000BAE70CF00FFBC6A185200CF0E3FAC6498D
:105880000D700846017840F23E500CF00DF8C34808
:105890000078012816D105F0EFFFBF490978C1EB68
:1058A000011100EB8104200EBD490870200C4870E6
:1058B000200A8870CC70052240F244500CF03EFE65
:1058C000B848046047E1182D01DC012D08DA03F027
:1058D00095F9ACA185200CF0B5FA002084E763E0CF
:1058E000B1490D700846017840F242500BF0DCFFE0
:1058F000AE480078012820D1A8480078E8B905F022
:10590000BBFFA9490978C1EB0111890002E021E13F
:1059100014E035E0C1EB011100EB8104200EA04939
:105920000870200C4870200A8870CC70052240F264
:1059300044500CF003FE9B4804600CE1884800785A
:1059400078B1874800789A490870002605E08548B4
:10595000805D98498855701CC6B29548007886428B
:10596000F5DD9348017840F249500BF09DFF9048D7
:105970000278921C8F4940F24B500CF0DFFDEAE0B8
:10598000FBF7FCFB58B903F039F97EA185200CF038
:1059900059FA894990200CF055FA002024E700209C
:1059A00086490870D7E000BF00BF00BF00BF00BF3E
:1059B000FBF7C2FB58B903F021F981A187200CF055
:1059C00041FA7D4990200CF03DFA00200CE77B481D
:1059D0000078AE283FD17548007848B1002073495F
:1059E00008700CF057FA784982200CF02BFA2BE063
:1059F00001206E4908700CF04DFA744982200CF0B9
:105A000021FA92200CF07AFB64480078E0B905F0A6
:105A100033FF65490978C1EB01118900C1EB011120
:105A200001E064E060E000EB8104200E5C49087056
:105A3000200C4870200A8870CC70052240F2445037
:105A40000CF07CFD57480460584801784FF4A8607A
:105A50000BF02AFF47E059480078AF2836D14F486D
:105A6000007848B100204D4908700CF013FA5849ED
:105A700082200CF0E7F91FE00120484908700CF083
:105A800009FA544982200CF0DDF905F0F5FE42498F
:105A90000978C1EB011100EB8104200E4049087028
:105AA000200C4870200A8870CC70052240F24450C7
:105AB0000CF044FD3B48046092200CF0F9FA3748A2
:105AC000017840F23C500BF0EFFE0CE03B480078D0
:105AD000B12802D106F0FEFB05E038480078B22874
