:020000040800F2
:10000000D826002045010008AB6E00089D5E000860
:100010008D6E0008C5050008D98B0008000000009F
:10002000000000000000000000000000B17A00089D
:100030005D360008000000003D700008498500089A
:100040005F0100085F0100085F01000845730008B8
:100050005F0100085F0100081954000831550008CD
:100060005F0100085F0100085F0100085F010008F0
:100070005F0100085F0100085F0100085F010008E0
:100080005F0100085F0100085F0100085F010008D0
:100090005F0100085F0100085F010008615500086A
:1000A0005F0100085F0100085F0100085F010008B0
:1000B0005F010008098600085F0100085F01000871
:1000C0005F0100085F0100085F0100085F01000890
:1000D0005F010008E58700082D880008D588000822
:1000E0007D5400085F0100085F0100085F010008FF
:1000F0005F0100085F0100085F0100085F01000860
:100100005F0100085F0100085F0100085F0100084F
:10011000B5870008E18700085F0100085F0100085B
:100120005F0100085F0100085F0100085F0100082F
:10013000DFF80CD000F070F80048004759CD0008F7
:10014000D82600200648804706480047FEE7FEE71D
:10015000FEE7FEE7FEE7FEE7FEE7FEE7FEE7FEE777
:100160004D8500083101000840EA01039B0703D0D8
:1001700009E008C9121F08C0042AFAD203E011F8E6
:10018000013B00F8013B521EF9D2704710B5002226
:1001900000E0521C835C8C5CA34201D1002BF8D19F
:1001A000D8B2E1B2401A10BD70B50F4D00B9286841
:1001B000002412E00A4602E09E4203D0521C13784B
:1001C000002BF9D1DAB2224305D02BB124B10021A2
:1001D00000F8011B04E00446401C0678002EE9D11B
:1001E0002860204670BD0000F014002030B50B469A
:1001F000014600202022012409E021FA02F59D4257
:1002000005D303FA02F5491B04FA02F52844151E2A
:10021000A2F10102F1DC30BD064C074D06E0E068BA
:1002200040F0010394E8070098471034AC42F6D33D
:10023000FFF782FF6C4F01088C4F010870B58C18D6
:1002400010F8015B15F0070301D110F8013B2A11EA
:1002500006D110F8012B03E010F8016B01F8016BD7
:100260005B1EF9D12B0705D40023521E0DD401F8D3
:10027000013BFAE710F8013BCB1A921C03E013F89C
:10028000015B01F8015B521EF9D5A142D8D30020D1
:1002900070BD000010B500247F4801887F480078B9
:1002A000401E00EBC0007E4A22F810107A484188B8
:1002B0007A480078401E00EBC00002EB400041800D
:1002C0007548818875480078401E00EBC00002EB3D
:1002D000400081807048C18870480078401E00EB63
:1002E000C00002EB4000C1806B4880886A490988E1
:1002F000401A81B269480078401E00EBC00002EB52
:10030000400001816448C08863494988401A81B22D
:1003100062480078401E00EBC00002EB40004181C3
:1003200060480078401E81B25C480078401E00EBB7
:10033000C00002EB40008181584801780078401EDF
:1003400000EBC00002EB4000C1810021534800785F
:10035000401E00EBC00002EB400001824F480478D1
:1003600008E0002004EBC4014D4A02EB4101C881C2
:10037000601CC4B2082CF4DB002463E004EBC4006E
:10038000474931F8100004EBC401474A22F8110034
:1003900004EBC400424901EB4000408804EBC40177
:1003A00002EB4101488004EBC4003D4901EB4000F1
:1003B000808804EBC40102EB4101888004EBC40097
:1003C000374901EB4000C08804EBC40102EB410156
:1003D000C88004EBC400324901EB4000008904EB03
:1003E000C40102EB4101088104EBC4002C4901EB7C
:1003F0004000408904EBC40102EB4101488104EB59
:10040000C400274901EB4000808904EBC40102EBE2
:100410004101888104EBC400214901EB4000C089FF
:1004200004EBC40102EB4101C88104EBC4001C4988
:1004300001EB4000008A04EBC40102EB4101088299
:10044000601CC4B2082C99DB18480078012820D120
:1004500000240FE0164830F81400164921F8140063
:100460001348103030F814101248103020F81410CF
:10047000601CC4B2082CEDDB0F4800780F490870EF
:100480000F4800780F49087000F09EF802200749D5
:10049000087009F0B7F810BDCE1C00203D01002007
:1004A000E01C002047010020701D00208014002067
:1004B00082140020A2140020781400207A14002056
:1004C000791400207B14002010B5012008F08EFF65
:1004D00005F0C6FE08F0E8FE10BD10B5012006F0DC
:1004E000F3FD002006F0F0FD10BD000001460020E5
:1004F000044A10884FF67F4210400843014A10809A
:10050000704700002C6C004008B5014600200090A8
:10051000034800900098084400900098008808BDA7
:10052000006C0040014908607047000000860D42E1
:1005300008B500220092044A0092009A02440092F8
:10054000009A116008BD0000006C004070B50646BE
:100550000C46002516480078002804DD1448007871
:10056000401E13490870002012490870304610F0F0
:10057000E7FB002503E0202008F0B8FE6D1CA54233
:10058000F9DB00200C490A4A12788854304608F0FA
:1005900078FE0AA010F0CCF809480078502802D064
:1005A00006F0E2F810B1044800F01CFE70BD000037
:1005B0003E0000203D000020521900205F00000096
:1005C0004F01002000BFFEE7002012E020B92049C3
:1005D0000988204A11800AE0411E1E4A32F8111093
:1005E0001B4A32F8102011441A4A22F81010411CFC
:1005F000C8B2194909788842E8DB411E154A32F829
:100600001110164A1180002016E020B91049098AFD
:10061000104A11820EE0411E0E4A103232F81120AB
:100620000B49103131F8101011448AB209491031C8
:1006300021F81020411CC8B2094909788842E4DB3E
:10064000411E044A103232F81110064A11807047D8
:10065000A2140020681B00207B1400207C140020C2
:100660007A1400207E14002070B53F4800780028DE
:1006700078DD3D480078092874DA3C480078012884
:1006800006D002281DD0032834D0042868D14AE0BF
:1006900035480078451E34480078461EF01706EBB2
:1006A00090708010C21CE81705EB90708010A5EBCD
:1006B00080032FA1354808F0FFFB344808F0FAFD0D
:1006C0004FE029480078451E27480078461EF0175D
:1006D00006EB90708010C21CE81705EB907080103C
:1006E000A5EB80032AA1294808F0E6FB274808F07B
:1006F000E1FD36E01C480078451E1B480078461E88
:10070000F01706EB90708010C21CE81705EB907094
:100710008010A5EB800325A11C4808F0CDFB1B48E9
:1007200008F0C8FD1DE0002415E025462646E01728
:1007300004EB90708010C21CE01704EB90708010E6
:10074000A4EB800320A1114808F0B6FB0F4808F085
:10075000B1FD601CC4B2042CE7DB02E002E0FFE75D
:1007600000BF00BF70BD00004C0100204D01002003
:100770004F5F462053545043202564202564203188
:100780002030784646303030300D0A00001E002000
:100790004F5F462053545043202564202564203168
:1007A0002030783030464630300D0A004F5F46200A
:1007B0005354504320256420256420312030783064
:1007C00030303046460D0A004F5F462053545043A8
:1007D00020256420256420302030783030303030BF
:1007E000300D0A0010B50E4B1B88834213DB0C4BF7
:1007F0001B88834203D10A4B5B888B420BDB084B7F
:100800001B8883420AD1064B5B888B4206D1044B7E
:100810009B88934202DC0123024C236010BD000040
:10082000CE0000202401002010B586B012A207CA15
:1008300003AB07C300200090019002900A2203A995
:10084000CB2005F080FC052008F0D0FD0A22694687
:10085000CB2005F040FC002409E003A8005D1DF852
:100860000410884202D0002006B010BD641C0A2C7F
:10087000F3DB0120F8E70000010203040506070886
:10088000090A00002DE9F0411E48007810B9002047
:10089000BDE8F0811C48006842F21071B0FBF1F233
:1008A00001FB120417480178184808F0CFFC0546F0
:1008B000200140EAA42087B2A00240EA241086B2B8
:1008C00087EA0600C0F30D00A84207D1104811497D
:1008D0000860362008F09CFA0120D9E70D4800682E
:1008E0000B4988420BD00B480068854207D1084667
:1008F00008490860362008F08BFA0120C8E700207C
:10090000C6E700003E000020280100205219002008
:1009100040420F000001002005480078522802D014
:10092000532802D100BF012070470020FCE70000DF
:100930004F01002010B50446224617A11A4808F0BE
:10094000BBFA194808F0B6FC642008F08DFD17A02A
:1009500008F0B0FC642008F087FD1DA008F0AAFC98
:10096000642008F081FD23A008F0A4FC642008F0B6
:100970007BFD29A008F09EFC642008F075FD2FA0E7
:1009800008F098FCC82008F06FFD30A008F092FC39
:10099000642008F069FD10BD47502053444D4920A4
:1009A00025640D0A00000000001E00204F55545021
:1009B00055545F4650474120434C4541525F4F5587
:1009C000545055545F57494E203320300D0A0000D3
:1009D0004F55545055545F4650474120434C454174
:1009E000525F4F55545055545F57494E2033203174
:1009F0000D0A00004F55545055545F465047412052
:100A0000434C4541525F4F55545055545F57494EE2
:100A1000203320320D0A00004F55545055545F4684
:100A200050474120434C4541525F4F555450555417
:100A30005F57494E203320340D0A00004F5F462097
:100A40005355534420330D0A0000000047502053F3
:100A5000444D4920300D0A0010B50821284805F002
:100A600099F938B10121264805F094F910B1012017
:100A70002449087023480078002833D008212048F2
:100A800005F088F970BB01211D4805F083F948BBCA
:100A90001D48007888B100201A4908701B4800786A
:100AA00018B9FF201949087007E018480078401E5F
:100AB000164908700020164908701648007888B159
:100AC00000201049087011480078401C0F49087038
:100AD00001200F4908700D480078FF2802D100203E
:100AE0000A4908700821064805F054F906490870BB
:100AF0000121034805F04EF90649087010BD0000B9
:100B00000014014046140020441400202A02002052
:100B1000290200204514002000B5FFB03EA005F0DA
:100B200059F93F48006800903D4843683DA18268FC
:100B300002A808F0C1F902A805F04CF9142008F049
:100B400093FC40480078022826D135488069072860
:100B500021D2DFE800F004080C1014181C003AA0A1
:100B600005F038F917E03EA005F034F913E042A093
:100B700005F030F90FE046A005F02CF90BE04AA093
:100B800005F028F907E04EA005F024F903E052A093
:100B900005F020F900BF2AE02A480078012826D174
:100BA0001F488069072821D2DFE800F004080C10F4
:100BB00014181C004EA005F00DF917E052A005F026
:100BC00009F913E056A005F005F90FE05AA005F069
:100BD00001F90BE05EA005F0FDF807E062A005F06A
:100BE000F9F803E066A005F0F5F800BF00BF0C4877
:100BF000C06800900A48036967A1426902A808F02A
:100C00005BF902A805F0E6F86CA005F0E3F8142003
:100C100008F02AFC7FB000BD5342432835293B0031
:100C2000701900204453313628362C3135352C27A5
:100C3000253032643A253032643A25303264272C2C
:100C400030293B0036010020445331362838362CF9
:100C50003135352C27D6DCC8D5272C30293B000070
:100C6000445331362838362C3135352C27D6DCD252
:100C7000BB272C30293B0000445331362838362C12
:100C80003135352C27D6DCB6FE272C30293B000029
:100C9000445331362838362C3135352C27D6DCC82C
:100CA000FD272C30293B0000445331362838362CA0
:100CB0003135352C27D6DCCBC4272C30293B00001E
:100CC000445331362838362C3135352C27D6DCCEF6
:100CD000E5272C30293B0000445331362838362C88
:100CE0003135352C27D6DCC1F9272C30293B0000C3
:100CF000445331362838362C3135352C2753756E10
:100D00002E272C30293B0000445331362838362C0E
:100D10003135352C274D6F6E2E272C30293B0000A6
:100D2000445331362838362C3135352C27547565E7
:100D300073272C30293B0000445331362838362C99
:100D40003135352C275765642E272C30293B000080
:100D5000445331362838362C3135352C27546875B4
:100D600072272C30293B0000445331362838362C6A
:100D70003135352C274672692E272C30293B00004F
:100D8000445331362838362C3135352C275361748D
:100D90002E272C30293B0000445331362831333480
:100DA0002C3135352C27253034642D253032642DF7
:100DB00025303264272C30293B0000005342432861
:100DC00037293B0D0A00000000B5FDB008A005F072
:100DD00001F80948027809A1684608F06DF86846EC
:100DE00004F0F8FF0BA004F0F5FF7DB000BD00009B
:100DF0005342432835293B00380100204453323404
:100E0000283136302C32332C272564272C30293BCF
:100E1000000000005342432837293B0D0A00000020
:100E200070B58EB005460E46814800782B2833D029
:100E30000EDC1D2848D006DC0A2812D0192811D053
:100E40001B2828D14DE027284AD02A28F9D12FE0A5
:100E5000403807281FD2DFE800F050CECE6A849ECB
:100E6000B60000BF73A004F0B5FF00240EE02B5DB8
:100E700004EB8400982101EB400271A101A808F065
:100E80001BF801A804F0A6FF601CC4B2B442EEDB5C
:100E900070A004F09FFFAEE071A004F09BFF2A78E1
:100EA00078A101A808F008F801A804F093FFA2E0D7
:100EB0007AA004F08FFF2A7880A101A807F0FCFF38
:100EC00001A804F087FF96E082A004F083FF2A784F
:100ED00089A101A807F0F0FF01A804F07BFF8AE0D8
:100EE00000BF8BA004F076FF2A7892A101A807F03A
:100EF000E3FF01A804F06EFF7DE094A004F06AFF18
:100F000000240EE02B5D04EB8400842101EB400201
:100F100090A101A807F0D0FF01A804F05BFF601CBE
:100F2000C4B2B442EEDB5CA004F054FF63E087A0DF
:100F300004F050FF00240EE02B5D04EB84007521CB
:100F400001EB400288A101A807F0B6FF01A804F058
:100F500041FF601CC4B2B442EEDB4FA004F03AFF84
:100F600049E07AA004F036FF00240EE02B5D04EB8C
:100F70008400752101EB400280A101A807F09CFFCD
:100F800001A804F027FF601CC4B2B442EEDB42A00B
:100F900004F020FF2FE06DA004F01CFF00240CE003
:100FA0002B5D692000EBC40279A101A807F084FF42
:100FB00001A804F00FFF601CC4B2B442F0DB36A0FD
:100FC00004F008FF17E061A004F004FF00240CE027
:100FD0002B5D7D2000EBC4026DA101A807F06CFF22
:100FE00001A804F0F7FE601CC4B2B442F0DB2AA0F2
:100FF00004F0F0FE00BF00BF05F0B6FBB0B16AA080
:1010000004F0E8FE00240CE02B5D8C2000EBC40211
:101010006EA101A807F050FF01A804F0DBFE601CE0
:10102000C4B2B442F0DB1CA004F0D4FE0EB070BD1C
:101030004F010020534243283135293B0000000076
:10104000445331362825642C38332C272563272C2C
:1010500030293B005342432837293B0D0A0000004A
:1010600043424F46283132362C36362C3135342C1B
:1010700038392C332C3135293B534243283135291B
:101080003B00000044533136283133372C37302CA5
:10109000272563272C30293B0D0A000043424F4689
:1010A0002836362C36362C39342C38392C332C3122
:1010B00035293B534243283135293B0044533136CF
:1010C0002837372C37302C272563272C30293B0D28
:1010D0000A00000043424F46283134362C38312C68
:1010E0003138342C39392C332C3135293B53424398
:1010F000283135293B00000044533136283135383A
:101100002C38332C272563272C30293B0D0A00006F
:1011100043424F46283133312C38312C3135392C6C
:1011200039392C332C3135293B5342432831352969
:101130003B00000044533136283134322C38332CF4
:10114000272563272C30293B0D0A000053424328F2
:1011500037293B00445331362825642C38302C275E
:101160002563272C30293B00445331362825642C35
:1011700036312C272563272C30293B004453313648
:101180002825642C38362C272563272C30293B0052
:10119000445331362825642C3131312C27256327DF
:1011A0002C30293B00000000534243283135293BB5
:1011B00043424F46283133312C3132362C323034D1
:1011C0002C3134392C312C3135293B004453313604
:1011D0002825642C3133302C272563272C30293BDC
:1011E000000000002DE9F04FADF5057D04462078A4
:1011F000303800F0FF096078303800F0FF08A07840
:101200003038C5B2E0783038C6B220793038C7B24D
:101210006079303800F0FF0AA079303800F0FF0B19
:10122000E0793038C0B28490207A3038C0B28390F0
:10123000607A3038C0B28290A07A3038C0B28190E3
:10124000E07A3038C0B28090FA48007820287CD00C
:101250000EDC0E282BD006DC0B2817D00C2824D04F
:101260000D2873D122E01E282DD01F28F9D192E03D
:101270002F2817D004DC212869D02E28F1D104E0D2
:10128000302810D03128ECD10EE000BF4A46EAA148
:1012900003A807F011FE03A804F09CFD322008F01B
:1012A000E3F890E300BF00BF00BF00BF00BF4A46A5
:1012B000E9A103A807F000FE03A804F08BFD32208B
:1012C00008F0D2F87FE3207840B9607830B9A07890
:1012D00020B9E07810B9207900285BD0607888B90F
:1012E000A07878B9E07868B9207958B9E2A004F01C
:1012F00071FD4A46E2A103A807F0DEFD03A804F051
:1013000069FD47E0A07880B9E07870B9207960B9CC
:10131000D9A004F05FFD43464A46E0A103A807F0C8
:10132000CBFD03A804F056FD34E0E07898B92079AD
:1013300088B9D1A004F04EFD43464A46DEA103A879
:10134000009507F0B9FD03A802E088E04FE1EAE06C
:1013500004F040FD1EE0207970B9C7A004F03AFD0A
:1013600043464A46DBA103A8CDE9005607F0A4FD99
:1013700003A804F02FFD0DE0BFA004F02BFD4346B1
:101380004A46DCA103A88DE8E00007F095FD03A81C
:1013900004F020FD17E3207840B9607830B9A078D8
:1013A00020B9E07810B92079002857D0607888B942
:1013B000A07878B9E07868B9207958B9AEA004F07F
:1013C00009FD4A46D3A103A807F076FD03A804F05F
:1013D00001FD43E0A07880B9E07870B9207960B968
:1013E000A5A004F0F7FC43464A46D1A103A807F0A4
:1013F00063FD03A804F0EEFC30E0E07878B92079D2
:1014000068B99DA004F0E6FC43464A46CFA103A874
:10141000009507F051FD03A804F0DCFC1EE02079E4
:1014200070B995A004F0D6FC43464A46CFA103A864
:10143000CDE9005607F040FD03A804F0CBFC0DE019
:101440008DA004F0C7FC43464A46D0A103A88DE80E
:10145000E00007F031FD03A804F0BCFCB3E2207803
:1014600040B9607830B9A07820B9E07810B9207917
:10147000002857D0607888B9A07878B9E07868B942
:10148000207958B97CA004F0A5FC4A46C7A103A85E
:1014900007F012FD03A804F09DFC43E0A07880B99A
:1014A000E07870B9207960B973A004F093FC4346EA
:1014B0004A46C5A103A807F0FFFC03A804F08AFC74
:1014C00030E0E07878B9207968B96BA004F082FC4C
:1014D00043464A46C3A103A8009507F0EDFC03A8C4
:1014E00004F078FC1EE0207970B963A004F072FC6F
:1014F00043464A46C2A103A8CDE9005607F0DCFCEA
:1015000003A804F067FC0DE05BA004F063FC434615
:101510004A46C3A103A88DE8E00007F0CDFC03A86C
:1015200004F058FC4FE2207840B9607830B9A078D8
:1015300020B9E07810B92079002857D0607888B9B0
:10154000A07878B9E07868B9207958B94AA004F051
:1015500041FC4A46BAA103A807F0AEFC03A804F078
:1015600039FC43E0A07880B9E07870B9207960B99F
:1015700041A004F02FFC43464A46B8A103A807F057
:101580009BFC03A804F026FC30E0E07878B92079D1
:1015900068B939A004F01EFC43464A46B6A103A828
:1015A000009507F089FC03A804F014FC1EE02079E4
:1015B00070B931A004F00EFC43464A46B6A103A818
:1015C000CDE9005607F078FC03A804F003FC0DE019
:1015D00029A004F0FFFB43464A46B7A103A88DE8C3
:1015E000E00007F069FC03A804F0F4FBEBE1BA4863
:1015F00004F0F0FB207830B9607820B9A07810B9F9
:10160000E078002813D0607890B9A07880B9E078AD
:1016100070B919A004F0DEFB4A46B0A103A807F098
:101620004BFC03A804F0D6FB322007F01DFFC9E1F4
:1016300060E100004F010020534243283135293B2F
:1016400044533136283136302C37312C2725642746
:101650002C30293B0D0A0000534243283135293BE9
:1016600044533136283137382C3135302C27256416
:10167000272C30293B0D0A005342432837293B00D1
:10168000445331362836382C36332C272020256415
:101690002020272C30293B0D0A000000445331360E
:1016A0002836382C36332C27202564256420202723
:1016B0002C30293B0D0A0000445331362836382C93
:1016C00036332C272025642564256420272C3029D7
:1016D0003B0D0A00445331362836382C36332C273C
:1016E000202564256425642564272C30293B0D0AB8
:1016F00000000000445331362836382C36332C276E
:1017000025642564256425642564272C30293B0D38
:101710000A00000044533136283137302C36332C40
:1017200027202025642020272C30293B0D0A00008B
:1017300044533136283137302C36332C272025645A
:1017400025642020272C30293B0D0A0044533136D4
:10175000283137302C36332C272025642564256426
:1017600020272C30293B0D0A00000000445331365D
:10177000283137302C36332C272025642564256406
:101780002564272C30293B0D0A00000044533136D4
:10179000283137302C36332C2725642564256425E1
:1017A000642564272C30293B0D0A00004453313650
:1017B0002836382C39332C27202025642020272C4C
:1017C00030293B0D0A000000445331362836382CAE
:1017D00039332C2720256425642020272C30293BF1
:1017E0000D0A0000445331362836382C39332C2763
:1017F0002025642564256420272C30293B0D0A0010
:10180000445331362836382C39332C27202564258B
:101810006425642564272C30293B0D0A0000000054
:10182000445331362836382C39332C272564256427
:10183000256425642564272C30293B0D0A0000000F
:1018400044533136283137302C39332C272020258A
:10185000642020272C30293B0D0A000044533136E8
:10186000283137302C39332C27202564256420205B
:10187000272C30293B0D0A004453313628313730AC
:101880002C39332C272025642564256420272C300F
:10189000293B0D0A0000000044533136283137300F
:1018A0002C39332C27202564256425642564272CB6
:1018B00030293B0D0A0000004453313628313730BF
:1018C0002C39332C27256425642564256425642759
:1018D0002C30293B0D0A00005C4701084453323488
:1018E000283134362C3133362C272564272C3029E7
:1018F0003B0D0A00A078D0B9E078C0B9AFF28820DB
:1019000004F068FA4A4632A103A807F0D5FA03A802
:1019100004F060FA4246AFF23C0103A807F0CCFAAB
:1019200003A804F057FA322007F09EFD4AE0E07861
:1019300000BBAFF2BC2004F04DFA4A462AA103A82E
:1019400007F0BAFA03A804F045FA424620A103A81A
:1019500007F0B2FA03A804F03DFA2A46AFF2840178
:1019600003A807F0A9FA03A804F034FA322007F01C
:101970007BFD27E0AFF2003004F02CFA4A4620A1AC
:1019800003A807F099FA03A804F024FA424616A126
:1019900003A807F091FA03A804F01CFA2A460CA148
:1019A00003A807F089FA03A804F014FA3246AFF24C
:1019B000D40103A807F080FA03A804F00BFA322040
:1019C00007F052FD00BF00BF0DF5057DBDE8F08FAB
:1019D00044533234283131382C3133362C272564A6
:1019E000272C30293B000000445332342839302C56
:1019F0003133362C272564272C30293B000000008A
:101A00005342432837293B445332342836322C3151
:101A100033362C272564272C30293B0010B5ADF533
:101A2000007D2B4800682B49B0FBF1F201FB12044A
:101A300056208DF8000031208DF801002E208DF801
:101A4000020030208DF803002E208DF80400302095
:101A50008DF805002D208DF8060000208DF8070078
:101A60001DA004F0B7F928A004F0B4F928A004F0F0
:101A7000B1F92E4A2EA103A807F01EFA03A804F01C
:101A8000A9F931A004F0A6F9224636A103A807F06F
:101A900013FA03A804F09EF938A004F09BF93F4B19
:101AA0006A463FA103A807F007FA03A804F092F9D9
:101AB00041A004F08FF942A004F08CF946A004F094
:101AC00089F947A004F086F90DF5007D10BD0000EE
:101AD0002801002040420F0043424F4628302C305E
:101AE0002C3232302C3137362C312C35293B4342C5
:101AF0004F4628302C33302C3232302C3134352CB8
:101B0000312C32293B0000005342432832293B004C
:101B1000445331362832332C34362C27BBFAC6F7DF
:101B2000D0CDBAC53A272C30293B000060000020F8
:101B300044533136283130362C34382C272573273E
:101B40002C30293B00000000445331362832332C1E
:101B500037392C27BBFAC6F74944BAC53A272C3087
:101B6000293B000044533136283130362C37392C8C
:101B7000272564272C30293B0000000044533136D0
:101B80002832332C3131312C27C8EDBCFEB0E6B100
:101B9000BE3A2020272C30293B000000570E0108B8
:101BA00044533136283130362C3131312C272573CE
:101BB0002573272C30293B005342432835293B000D
:101BC00044533136283139392C3135342C275032B1
:101BD000272C31293B0000005342432837293B0082
:101BE0000D0A000010B50246A2F534530F3B23B195
:101BF000A3F66703002B4ED126E0652904D06629A1
:101C00000CD067291ED113E0002004E0354B1B5C8B
:101C1000354C2354401C0728F8DB13E0002004E077
:101C2000304B1B5C314C2354401C0728F8DB09E087
:101C3000002004E02B4B1B5C2D4C2354401C072838
:101C4000F8DB00BF00BF4AE0652904D066290CD04C
:101C500067291ED113E0002004E0264B1B5C224CB8
:101C60002354401C0728F8DB13E0002004E0214B3C
:101C70001B5C1E4C2354401C0728F8DB09E00020A5
:101C800004E01C4B1B5C1A4C2354401C0728F8DB57
:101C900000BF00BF23E0652904D066290BD0672967
:101CA0001BD111E0002003E000230F4C2354401C03
:101CB0000728F9DB11E0002003E000230B4C23543C
:101CC000401C0728F9DB08E0002003E00023084C53
:101CD0002354401C0728F9DB00BF00BF00BF00BF32
:101CE00010BD0000861D0108AD000020B4000020DA
:101CF000BB0000208D1D01080146CB296DD00FDCF3
:101D0000042942D005DC11B301292AD003296ED160
:101D100031E0052943D0C9294BD0CA29F7D152E077
:101D200042F21323CA1A994276D00BDCA1F22D128B
:101D3000002A5DD0A2F50052E43A002A62D0012ABE
:101D4000E5D16BE0022A7DD0032AE0D184E00020B7
:101D500004E0484A125C484B1A54401C1528F8DB32
:101D600085E0002004E0454A125C434B1A54401CB5
:101D70001528F8DB7BE0002004E0414A125C3E4B72
:101D80001A54401C1528F8DB71E0002004E03D4A9D
:101D9000125C394B1A54401C1528F8DB67E0002010
:101DA00004E0394A125C344B1A54401C1528F8DB05
:101DB0005DE0002004E0354A125C2F4B1A54401CB1
:101DC0001528F8DB53E0002004E0314A125C2A4B6E
:101DD0001A54401C1528F8DB49E0002004E02D4A85
:101DE000125C254B1A54401C1528F8DB3FE03DE0FF
:101DF000002004E0284A125C1F4B1A54401C15288E
:101E0000F8DB34E0002004E0244A125C1A4B1A5438
:101E1000401C1528F8DB2AE00AE013E0002004E06B
:101E20001F4A125C144B1A54401C1528F8DB1EE0A4
:101E3000002004E01B4A125C0F4B1A54401C15286A
:101E4000F8DB14E0002004E0174A125C0A4B1A5435
:101E5000401C1528F8DB0AE0002004E0134A125C5D
:101E6000054B1A54401C1528F8DB00E000BF00BFEA
:101E7000704700002811010885000020230F010889
:101E8000380F01084D0F0108620F0108770F010894
:101E90008C0F0108A10F0108B60F0108CB0F010834
:101EA000E00F0108F50F01080A1001081F100108D2
:101EB00070B505460E462878302804D1012E02D18F
:101EC00004F086F90CE0002403E0285D054908557C
:101ED000641CB442F9DB00200249085503F0CAFC37
:101EE00070BD00006000002010B524480078502824
:101EF00002D004F039FC20B104219420FEF726FB27
:101F00003AE01E48007862281DD00CDC5F2824D0FF
:101F100004DC402822D050282CD126E060281ED096
:101F2000612827D11CE06438052823D2DFE800F0BF
:101F300006030405100000BF00BF00BF052191206B
:101F4000FEF704FB17E00B219120FEF7FFFA12E0E9
:101F50000A219120FEF7FAFA0DE000BF00BF00BF92
:101F600006219120FEF7F2FA05E002219120FEF70A
:101F7000EDFA00E000BF00BF10BD00004F010020DF
:101F800010B504460C480470007800EB400101EBEA
:101F9000C0000A4901EB8000806A58B10648007809
:101FA00000EB400202EBC0000A4602EB8000816AAF
:101FB0002046884710BD00004F0100202C02002061
:101FC00010B51C480078222803D01A4800783A2817
:101FD00010D119480078042805DA17480078401C09
:101FE0001549087002E00120134908701148007873
:101FF00009F0E8FE0F48007800EB400101EBC0005B
:102000000E4901EB8000407E0A49097888420FD0D2
:102010000848007800EB400101EBC000074901EBE4
:102020008000407E0349087008460078FFF7A8FF4B
:1020300010BD00004F010020470100202C020020AD
:1020400010B504F0BFFB00286FD004F013F952481C
:1020500000780A38302872D2DFE800F018252A2FDD
:10206000344041424344454647717119715A715594
:102070005E62666D71717171715971711D2171713D
:10208000262B303571393A3B3C3D3E3F00BF43A0E3
:1020900003F0A0FE54E04FA003F09CFE50E054A0DB
:1020A00003F098FE4CE000BF58A003F093FE47E019
:1020B00000BF5DA003F08EFE42E000BF5AA003F017
:1020C00089FE3DE000BF58A003F084FE38E000BF69
:1020D00000BF00BF00BF00BF00BF00BF00BF00BF08
:1020E00000BF00BF00BF00BF00BF5748008857496E
:1020F0000988884203DC56A003F06CFE02E054A07D
:1021000003F068FE1CE05AA003F064FE18E000BF74
:102110005EA003F05FFE13E063A003F05BFE0FE040
:102120006AA003F057FE0BE001E00FE007E070A0AB
:1021300003F050FE04E077A003F04CFE00E000BF87
:1021400000BF15480078FFF71BFF23E004F092F86A
:10215000114800783D2803D00F4800783E2807D169
:10216000042075490870FEF77FFA00207249087054
:102170000948007800EB400101EBC0006F4901EB1A
:102180008000C07E0449087008460078FFF7F8FE1A
:1021900004F044FF10BD00004F01002043424F46B1
:1021A000283134352C38302C3138352C3130302C26
:1021B000332C3135293B43424F58283134352C38A4
:1021C000302C3138352C3130302C332C30293B0D2C
:1021D0000A00000043424F462836362C36362C394A
:1021E000342C38392C332C3135293B0D0A000000B2
:1021F00043424F46283132362C36362C3135342C7A
:1022000038392C332C3135293B0D0A0043424F46D7
:10221000283134362C36392C3138342C38372C339D
:102220002C3135293B0D0A0043424F4628313731C6
:102230002C3134362C3139342C3136392C312C3187
:1022400035293B0D0A000000480100204001002014
:1022500043424F46283133312C3132362C32303420
:102260002C3134392C312C3135293B0D0A0000003A
:1022700043424F46283134362C38312C3138342CF7
:1022800039392C332C3135293B0D0A0043424F4656
:10229000283133312C38312C3135392C39392C3324
:1022A0002C3135293B0D0A005342432837293B4343
:1022B000424F462836382C36332C3130362C3832C3
:1022C0002C312C37293B0D0A0000000053424328D3
:1022D00037293B43424F46283137302C36332C3296
:1022E00030382C38322C312C37293B0D0A000000B5
:1022F0005342432837293B43424F462836382C392E
:10230000332C3130362C3131322C312C37293B0DE6
:102310000A0000005342432837293B43424F4628D6
:102320003137302C39332C3230382C3130322C319B
:102330002C37293B0D0A00004D0100202C02002003
:1023400031B50024684604F041FE9DF800400CB110
:10235000042C00DD38BD12480078222814D03A2819
:1023600013D03D2802D03E2812D104E00D4804705D
:10237000FEF77AF90CE00C480470002C03DD042C05
:1023800001DAFEF771F903E000BF0848047000BFEE
:1023900000BF0348007809F015FD00BFDAE7000030
:1023A0004F0100204C0100204D010020470100207A
:1023B00010B503F05FFF06F077FF02480078FFF7E3
:1023C000DFFD10BD4F01002070B50024FD480578E9
:1023D000022003F085FF00B170BDFA48007855284F
:1023E00004D0562803D0572807D101E000BF00BF12
:1023F00006F080F8FFF724FEEEE7F2480078282880
:1024000073D014DCA0F10A001E286BD2DFE800F0C4
:102410004C434748498E8E8E8E8E8E8E8E6E8E4D9C
:102420008E368E343738393A706C8E8E8E35402821
:1024300029D010DC2F282FD006DC2A2832D02B28D8
:1024400031D02E2872D125E0302826D0312825D051
:102450003A286BD14BE0452819D006DC422817D02A
:10246000432811D0442861D10FE046280ED05028CF
:1024700059D053285AD10CE000BF00BF00BF00BFA5
:1024800000BF00BF00BF00BF00BF00BF00BF00BF54
:1024900000BF00BF00BF00BF00BF00BF00BF00BF44
:1024A00000BF00BF00BF00BF00BFC648007800EB00
:1024B000400101EBC000C44901EB8000C06990B14C
:1024C000C048007800EB400101EBC000BE4901EBC1
:1024D00080000022C369BB4801780420984710B9E6
:1024E0007AE702E022E022E000BF00BF00BF00BFA9
:1024F000B448007800EB400101EBC000B24901EBA9
:102500008000C06970B1AF48007800EB400101EB7A
:10251000C000AD4901EB80000022C369A9480178E1
:102520000420984703E006F04DFF00E000BF00BF25
:1025300004F01AF9D8B1A348007800EB400101EB90
:10254000C000A14901EB8000C06980B19D480078BE
:1025500000EB400101EBC0009B4901EB8000002231
:10256000C369984801780420984700B934E7954832
:10257000007800EB400101EBC000934901EB8000C3
:10258000807E9049097888427BD08E48007809285F
:1025900006D18E48007818B10A208A490870B5E142
:1025A00088480078182806D18848007818B1192082
:1025B00084490870AAE1834800782E282ED18448E7
:1025C0000088022803D12F207E4908709EE18048B0
:1025D0000088032803D130207A49087096E17C48AE
:1025E0000088042803D13120764908708EE101204B
:1025F000784908807849088078490880002078491F
:1026000008807048007800EB400101EBC0006E4983
:1026100001EB8000807E6B49087077E169480078A3
:102620000B282FD16A480088022803D10C20654965
:1026300008706BE166480088032803D10D206149CA
:10264000087063E162480088042803D10E205D49C8
:1026500008705BE101205F4908805F4908805F499D
:10266000088000205E4908805648007800EB400151
:1026700001EBC000544901EB8000807E5149087095
:1026800044E144E14F4800782F2815D1554800789F
:10269000012808D133204B49087050480088401C5D
:1026A0004E49088032E13420464908704B48008882
:1026B000401C4A49088029E142480078302815D159
:1026C00048480078012808D135203E490870434821
:1026D0000088401C4149088018E1362039490870BB
:1026E0003E480088401C3D4908800FE1354800788D
:1026F000312822D13B480078012808D137203149C0
:10270000087036480088401C34490880FEE035488F
:102710000078022808D138202A4908702F480088FC
:10272000401C2E490880F1E03920264908702B48CA
:102730000088401C29490880E8E0224800780C28DD
:1027400015D128480078012808D110201D490870AB
:1027500022480088401C21490880D7E011201949EF
:1027600008701E480088401C1C490880CEE01548AF
:1027700000780D2815D11B480078012808D11220B7
:102780001049087015480088401C14490880BDE0B5
:1027900013200C49087011480088401C0F4908801C
:1027A000B4E0084800780E2834D10E48007801289B
:1027B0001AD114200349087008480088401C0749B2
:1027C0000880A3E04F0100202C0200203F010020E0
:1027D0004401002040010020420100204801002067
:1027E0004A0100204601002050480078022808D104
:1027F00015204F4908704F480088401C4D490880FB
:1028000084E016204A4908704A480088401C49491B
:1028100008807BE046480078242830D1464800787C
:1028200046490978884208DA43480078401C424902
:1028300008701E203E49087068E005F03BF9012150
:102840003F480078401E3F4A11543D4A1278521EBC
:102850003C4B995C3A4A1278521EB92303EB420072
:1028600006F0A6FA3248007800EB400101EBC00008
:10287000354901EB8000807E2D49087046E003F069
:1028800073FF48B32B48008830490988884205DA2D
:1028900028480088401C2749088037E02C480088D9
:1028A0002C49098888420ADA22480088401C2149BC
:1028B000088027480088401C2549088026E01C48DD
:1028C000007800EB400101EBC0001F4901EB8000E4
:1028D000807E1749087019E0154800781B2809D137
:1028E00017480078401E1749085C18B11C20104991
:1028F00008700BE00E48007800EB400101EBC000CF
:10290000114901EB8000807E0949087001240848C4
:10291000007828B91048006810B9FFF749FD5BE559
:1029200003480078FFF72CFB00BF55E54601002067
:102930004F010020480100203D0100203C01002003
:102940003E0100207C1C00202C02002040010020C1
:102950004A010020420100202401002010B506F0A9
:10296000A3FC10480078022808D10F49802006F007
:1029700088FC0EA1902006F084FC0BE0094800784A
:10298000012807D10F49802006F07BFC07A1902089
:1029900006F077FC4FF47A7006F066FDFFF750FB07
:1029A00010BD0000360100205E1A01082020202002
:1029B0002020202020202020202020202020202017
:1029C00000000000711A010810B506F06DFC1148F6
:1029D0000078022808D11049802006F052FC0FA18F
:1029E000902006F04EFC0BE00A480078012807D141
:1029F0001049802006F045FC08A1902006F041FC1B
:102A00004FF47A7006F030FD08200B490870FFF78C
:102A100017FB10BD360100205E1A0108202020207F
:102A200020202020202020202020202020202020A6
:102A300000000000711A01084F01002037B50D4653
:102A40001446684604F0C2FA00B93EBD012C14D108
:102A50000020524908709DF800003030C1B24F4844
:102A600002780078401C4D4B18704D48815400206E
:102A70004B491A461278885417E048480078A0421B
:102A800013DA4848007880B99DF800003030C1B2B0
:102A9000424802780078401C404B187040488154EE
:102AA00000203F491A46127888543C480078A042DA
:102AB00002D101203B4908703B4800781E282FD0E6
:102AC000394800781F282BD037480078202827D095
:102AD00035480078212823D03348007850281FD06B
:102AE000314800782E281BD02F4800780B2817D0AB
:102AF0002D4800782F2813D02B48007830280FD08D
:102B00002948007831280BD0274800780C2807D0B6
:102B1000254800780D2803D0234800780E2803D1DB
:102B20001F48FEF75FFB37E01F4800781D282ED0B6
:102B30001D48007827282AD01B4800781B2826D05B
:102B400019480078402822D01748007843281ED022
:102B50001548007844281AD013480078462816D023
:102B600011480078452812D00F4800782A280ED046
:102B70000D4800782B280AD00B4800780A2806D088
:102B800009480078192802D003F0EEFD20B103486F
:102B900001780348FEF744F900BF56E73E000020E5
:102BA000521900203D0000204F01002000B5FFB069
:102BB0003D480078401C3C490870084600783C2895
:102BC00025D10020087039480078401C374908702A
:102BD000084600783C281AD1002008703448007854
:102BE000401C334908700846007818280FD100208F
:102BF000087030480078401C2E490870084600785C
:102C0000642190FBF1F201FB12002A4908702A4866
:102C10000078012813D185212648007802F0EAFACD
:102C200090212348007802F0E5FA92211F480078AD
:102C300002F0E0FA94211C48007802F0DBFA1E480A
:102C4000007810B101282BD100E000BF1B480078AC
:102C500058B11BA003F0BEF81FA003F0BBF820A0E2
:102C600003F0B8F80020154908701BA003F0B2F873
:102C70000D4800780D490978CDE900100C4803781B
:102C80000C4802781DA102A806F016F902A803F06C
:102C9000A1F825A003F09EF8142006F0E5FB00E063
:102CA00000BF00BF7FB000BD5E0000205D000020BF
:102CB0005C0000205B0000204F0100205A00002033
:102CC00043424F4628302C37302C3232302C3134AE
:102CD000372C352C38293B005342432838293B00F8
:102CE0004453313628362C37352C27BFAABBFACAB5
:102CF000B1BCE43A272C30293B0000004453313664
:102D00002834362C3130302C2725303264C8D52574
:102D1000303264CAB125303264B7D625303264C34C
:102D2000EB272C30293B00000D0A000010B51C4891
:102D30000078222803D01A4800783A2811D119487F
:102D40000078012805DD17480078401E15490870F5
:102D500002E00420134908701148007809F032F8A5
:102D60001DE00F48007800EB400101EBC0000E4968
:102D700001EB8000007E0A49097888420FD008489C
:102D8000007800EB400101EBC000074901EB800037
:102D9000007E0349087008460078FFF7F1F810BD7F
:102DA0004F010020470100202C02002011B59BB0EC
:102DB000002001901BA804F009F908B91CB010BD4F
:102DC000BE48C069042848DABC4800684FF47A71EC
:102DD00090FBF1F0C0B28DF80400B848006864219F
:102DE00090FBF1F00A2190FBF1F201FB1200C0B25E
:102DF0008DF80500B148006890FBF1F090FBF1F20E
:102E000001FB1200C0B28DF80600AC48006890FBD0
:102E1000F1F201FB1200C0B28DF807009DF86C00C2
:102E2000A649C96901AA50549DF804004FF47A716B
:102E300048439DF8051001EBC10202EB011100EBC4
:102E400081009DF8061001EB810100EB41009DF827
:102E5000071008449949086062E09848C06906284C
:102E60002FDA964840680A2190FBF1F0C0B28DF845
:102E700004009248406890FBF1F201FB1200C0B2DE
:102E80008DF805009DF86C108C48C069001F01AAE0
:102E900011549DF805009DF8041001EB810100EB31
:102EA000410086494860084640680C2802DD0C2035
:102EB000486035E08148406858BB01207F49486040
:102EC0002EE07E4880680A2190FBF1F0C0B28DF8B8
:102ED00004007A48806890FBF1F201FB1200C0B256
:102EE0008DF805009DF86C107448C069801F01AA18
:102EF00011549DF805009DF8041001EB810100EBD1
:102F000041006E498860084680681F2802DD1F2046
:102F1000886005E06948806810B9012067498860C9
:102F20006649C969481CC11700EB5171C910A0EB73
:102F3000C101624AD16162A002F04CFF5F48806823
:102F400000905E48436860A1026802A805F0B4FFE3
:102F500002A802F03FFF5948C069012815D162A0BC
:102F600002F038FF55480068642190FBF1F00A2117
:102F700090FBF1F201FB120422465DA102A805F0CC
:102F80009BFF02A802F026FF87E04C48C069022898
:102F900015D155A002F01EFF484800680A2190FB99
:102FA000F1F0642190FBF1F201FB1204224656A1DC
:102FB00002A805F081FF02A802F00CFF6DE03F4877
:102FC000C069032812D148A002F004FF3B48006802
:102FD0000A2190FBF1F201FB1204224650A102A843
:102FE00005F06AFF02A802F0F5FE56E03348C0691A
:102FF000042810D13CA002F0EDFE304840680A21C0
:1030000090FBF1F422464CA102A805F055FF02A85E
:1030100002F0E0FE41E02948C069052812D132A043
:1030200002F0D8FE254840680A2190FBF1F201FB2E
:103030001204224646A102A805F03EFF02A802F0B3
:10304000C9FE2AE01D48C069062810D126A002F05A
:10305000C1FE1A4880680A2190FBF1F4224642A181
:1030600002A805F029FF02A802F0B4FE15E01348FB
:10307000C069072811D11CA002F0ACFE0F4880687F
:103080000A2190FBF1F201FB120422463CA102A8A6
:1030900005F012FF02A802F09DFE3FA002F09AFE8A
:1030A0009DF86C203EA102A805F006FF02A802F0E0
:1030B00091FE41A002F08EFE00BF7FE6281B00209B
:1030C0005342432835293B00445331362839302CAC
:1030D00036322C27253034642D253032642D2530AE
:1030E0003264272C30293B005342432836293B00C9
:1030F000445331362839382C36322C272564272C76
:1031000030293B0D0A000000445331362831303657
:103110002C36322C272564272C30293B0D0A000041
:1031200044533136283131342C36322C272564274C
:103130002C30293B0D0A00004453313628313330FE
:103140002C36322C272564272C30293B0D0A000011
:1031500044533136283133382C36322C2725642716
:103160002C30293B0D0A00004453313628313534C8
:103170002C36322C272564272C30293B0D0A0000E1
:1031800044533136283136322C36322C27256427E9
:103190002C30293B0D0A00005342432837293B00BD
:1031A00044533136283133372C3134392C272564B8
:1031B000272C30293B0000005342432835293B0D82
:1031C0000A00000011B59BB0002001901BA803F07D
:1031D000FDFE08B91CB010BD8B48C069022827DA73
:1031E000894800690A2190FBF1F0C0B28DF8040013
:1031F0008548006990FBF1F201FB1200C0B28DF826
:1032000005009DF86C008049C96901AA50549DF8D9
:1032100005009DF8041001EB810100EB41007A49A3
:10322000086108460069172857DD1720086154E037
:103230007548C069042828DA734840690A2190FB60
:10324000F1F0C0B28DF804006F48406990FBF1F2D4
:1032500001FB1200C0B28DF805009DF86C106A48A1
:10326000C069801E01AA11549DF805009DF8041044
:1032700001EB810100EB4100634948610846406968
:103280003B282ADD3B20486127E05F4880690A210E
:1032900090FBF1F0C0B28DF804005B48806990FBB0
:1032A000F1F201FB1200C0B28DF805009DF86C1020
:1032B0005548C069001F01AA11549DF805009DF8EA
:1032C000041001EB810100EB41004F498861084681
:1032D00080693B2801DD3B2088614B48C069401C68
:1032E000062190FBF1F201FB12004749C86147A09B
:1032F00002F070FD4448806900904348436945A14D
:10330000026902A805F0D8FD02A802F063FD3E485C
:10331000C069012810D147A002F05CFD3A4800695D
:103320000A2190FBF1F4224644A102A805F0C4FD55
:1033300002A802F04FFD56E03348C069022810D1C0
:103340003CA002F047FD304840690A2190FBF1F4AF
:10335000224640A102A805F0AFFD02A802F03AFD06
:1033600041E02948C069032812D132A002F032FDA1
:10337000254840690A2190FBF1F201FB1204224624
:103380003AA102A805F098FD02A802F023FD2AE068
:103390001D48C069042810D126A002F01BFD1A4860
:1033A00080690A2190FBF1F4224636A102A805F0BB
:1033B00083FD02A802F00EFD15E01348C069052840
:1033C00011D11CA002F006FD0F4880690A2190FB74
:1033D000F1F201FB1204224630A102A805F06CFDB7
:1033E00002A802F0F7FC33A002F0F4FC9DF86C2078
:1033F00032A102A805F060FD02A802F0EBFC35A0A6
:1034000002F0E8FC00BFE5E6281B002053424328F9
:1034100035293B00445331362839302C39332C2799
:10342000253032643A253032643A25303264272C14
:1034300030293B005342432836293B004453313660
:103440002839382C39332C272564272C30293B0D7B
:103450000A00000044533136283131342C39332CE2
:10346000272564272C30293B0D0A000044533136B0
:10347000283132322C39332C272564272C30293B34
:103480000D0A000044533136283133382C39332C9F
:10349000272564272C30293B0D0A00004453313680
:1034A000283134362C39332C272564272C30293BFE
:1034B0000D0A00005342432837293B00445331365C
:1034C000283133372C3134392C272564272C3029E7
:1034D0003B0000005342432835293B0D0A00000001
:1034E00001B59AB01AA803F071FD08B91BB000BD70
:1034F00022A002F06FFC9DF868002249C8609DF888
:103500006800072801D10020C8601E48C06807284D
:1035100021D2DFE800F004080C1014181C001AA0D7
:1035200002F058FC17E01EA002F054FC13E022A0A9
:1035300002F050FC0FE026A002F04CFC0BE02AA0A9
:1035400002F048FC07E02EA002F044FC03E032A0A9
:1035500002F040FC00BF00BF35A002F03BFC9DF82C
:10356000682035A101A805F0A7FC01A802F032FCF3
:1035700037A002F02FFC00BFB8E7000053424328F9
:1035800036293B00281B0020445331362839302C83
:103590003132352C27D6DCC8D5272C30293B00000A
:1035A000445331362839302C3132352C27D6DCD2F1
:1035B000BB272C30293B0000445331362839302CAE
:1035C0003132352C27D6DCB6FE272C30293B0000C3
:1035D000445331362839302C3132352C27D6DCC8CB
:1035E000FD272C30293B0000445331362839302C3C
:1035F0003132352C27D6DCCBC4272C30293B0000B8
:10360000445331362839302C3132352C27D6DCCE94
:10361000E5272C30293B0000445331362839302C23
:103620003132352C27D6DCC1F9272C30293B00005C
:103630005342432837293B0044533136283133372E
:103640002C3134392C272564272C30293B000000ED
:103650005342432835293B0D0A0000007047000003
:103660002DE9F04106460C4617461648007810B979
:103670000020BDE8F08113480178134805F0E6FD0D
:10368000054602F0F7FD402C19D1022D0BD0032D79
:103690000DD0052D10D0A5F5F850903858B941201F
:1036A000FEF76EFC0AE05020FEF76AFC06E05220AE
:1036B000FEF766FC02E000BF0120DAE700BF002051
:1036C000D7E700003E0000205219002010B500216D
:1036D00014480078401E00EBC000134A02EB400083
:1036E000C18110480078401E00EBC0000F4A02EB79
:1036F0004000C1810B480078401E0D4A1154094A10
:103700001278521E0A4B995C064A1278521EB9234F
:1037100003EB420005F04CFB02480078FDF70AF984
:1037200010BD00003E010020E01C0020701D0020A4
:103730007C1C00202DE9F04780460E46914600256E
:103740008827F7480078002877D1A6F10B002F28AA
:1037500074D2DFE800F0262C4864929394959697F3
:103760009899A9A9A9A9A9A9A99B9C9D9EA9A9A91C
:10377000A9A9A9A9A9181EA9A9252B47638A8B8CD9
:103780008D8E8F9091000020E64908700120BDE8E1
:10379000F0870020E449087003F010F90120F6E7F3
:1037A00000BF0220E14908800120F0E700BF0220AD
:1037B000DF49087008460078012806D10220DD495B
:1037C00008800120DC49088005E00120D9490880F3
:1037D0000220D94908800020D8490880D8490880AB
:1037E0000120D4E700BF0220D149087008460078C4
:1037F000012806D10320CF4908800120CE49088046
:1038000005E00120CB4908800320CB490880002037
:10381000CA490880CA4908800120B8E700BF0220D1
:10382000C349087008460078012808D10420C1491E
:1038300008800120C049088010E039E034E0BC482D
:103840000078022804D1BB490880BB49088005E004
:103850000120B84908800420B74908800020B749F2
:103860000880B7490880012091E700BF00BF00BF72
:1038700000BF00BF00BF00BF00BF00BF00BF00BF50
:1038800000BF00BF00BF00BF012080E700BF00BF36
:1038900000BFAC480078012804D1AB48007801286B
:1038A00000D174E7012072E700BF00BF00206EE77F
:1038B0009B480178A54805F0C9FC0446A6F10A001A
:1038C0003D282DD2DFE800F0F33D4D7399CFD0D1E4
:1038D000D2D3D4D5D62C2CF22CF12CF0EFEEEDEC8B
:1038E0002C2C2C2C2CEB2C2C1F2D2C2C3E4E749A7B
:1038F0002CC8C9CACBCCCDCE2C2C2C2C2C2C2C2CAF
:103900002CEAE9E8E700042C06DD02F0B3FC90A005
:1039100002F060FA00203AE782490C7002F0AAFC3B
:103920001BE2042C06DD02F0A5FC90A002F052FA86
:1039300000202CE77C490C7002F09CFC03F03EF860
:103940000BE200BF0CB1042C06DD8FA002F042FA9E
:1039500002F090FC00201AE77448048002F08AFC10
:10396000FBE100BF0CB1022C06DD8EA002F032FAA2
:1039700002F080FC00200AE76D490C7008460078D0
:10398000012806D102206B49088001206A4908807D
:1039900005E001206749088002206749088000206F
:1039A000664908806649088002F064FCD5E100BFE2
:1039B0000CB1022C06DD7BA002F00CFA02F05AFCDE
:1039C0000020E4E65A490C7008460078012806D128
:1039D00003205849088001205749088005E001204C
:1039E0005449088003205449088000205349088026
:1039F0005349088002F03EFCAFE100BF0CB1032C3C
:103A000006DD68A002F0E6F902F034FC0020BEE614
:103A100047490C7008460078012806D10420454922
:103A200008800120444908800EE0414800780228BF
:103A300004D1404908804049088005E001203D4903
:103A4000088004203C49088000203C4908803C490B
:103A5000088002F00FFC80E100BF00BF00BF00BF84
:103A600000BF00BF00BF00BF00BF00BF00BF00BF5E
:103A700000BF00BF314800882E490988884220DCF9
:103A800014B1B4F5876F13DD4EA002F0A3F902F074
:103A9000F1FB00207BE633E104E11BE148E137E084
:103AA000EEE0DDE0CAE0B7E020E032E046E144E1EC
:103AB00022480088401E4B4921F8104002F0DAFBF2
:103AC00013E014B1B4F5F06F06DD3EA002F082F908
:103AD00002F0D0FB00205AE619480088401E4149F8
:103AE000103921F8104002F0C5FB36E1082C00DC4B
:103AF00034B902F0BFFB3CA002F06CF9002046E6AE
:103B000011490C7001200F49087002F0B3FB24E149
:103B100000BF092C00DC14B902F0ACFB72E076E0C7
:103B20003E000020C2140020C314002044010020E5
:103B300046010020400100204201002048010020F1
:103B40004A0100203D0100203C01002052190020C4
:103B500043424F462836362C36362C39342C3839E9
:103B60002C332C3135293B0D0A00000043424F46CF
:103B7000283132362C36362C3135342C38392C332A
:103B80002C3135293B0D0A0043424F46283134364B
:103B90002C36392C3138342C38372C332C3135290C
:103BA0003B0D0A0043424F46283137312C31343621
:103BB0002C3139342C3136392C312C3135293B0D0F
:103BC0000A00000043424F46283133312C3132364F
:103BD0002C3230342C3134392C312C3135293B0DF9
:103BE0000A000000581B002043424F46283134365B
:103BF0002C38312C3138342C39392C332C313529AF
:103C00003B0D0A0057A002F0E5F80020BFE55C4933
:103C10000C7002F02FFBA0E05A480088844208DDB7
:103C2000FCF752FC02F026FB574802F0D3F80020C4
:103C3000ADE55648048002F01DFB8EE05448008834
:103C4000844208DDFCF740FC02F014FB514802F00E
:103C5000C1F800209BE54D48448002F00BFB7CE05E
:103C600048480088844206DD02F004FB4A4802F01E
:103C7000B1F800208BE54548848002F0FBFA6CE047
:103C800043480088844208DDFCF71EFC02F0F2FA8B
:103C9000424802F09FF8002079E53C48C48002F0D9
:103CA000E9FA5AE03E48007878B13D4800783D494D
:103CB0000870002505E03C48405D3C494855681CBB
:103CC000C5B23B4800788542F5DD04F095FF02F06F
:103CD000D1FA42E03248007878B13148007835496D
:103CE0000870002505E03048405D33494855681CA0
:103CF000C5B22F4800788542F5DD02F0BBFA2CE012
:103D00002748007878B1264800782A4908700025AD
:103D100005E02548405D28494855681CC5B224483F
:103D200000788542F5DD02F0D1FC02F0A3FA14E040
:103D300022490C7002F09EFA0FE000BFA82C05D1BA
:103D400000201F49087002F095FA06E002F092FA8E
:103D50001C4802F03FF8002019E500BF02F04AFAC3
:103D6000012014E543424F46283133312C38312CA1
:103D70003135392C39392C332C3135293B0D0A009A
:103D80003E0100207C14002054210108CE1C00209C
:103D90007E140020BC210108EC20010880200108CD
:103DA0003E00002008010020521900208C1900203C
:103DB000070100200A0100200C0100200B01002057
:103DC0003F010020202001082DE9F041ADF5047DE0
:103DD0000646002500245F2E80F02887DFE816F0D5
:103DE000EC0426072607260726070E0726072607C0
:103DF00026076F005F007A01960106024C03B201AC
:103E0000CE01EA0122023E0268038403A003A4005B
:103E100070006000B200F900CF00C1000701080186
:103E200009010A01BC030B015E016C01B300EB0048
:103E3000DD00730087008800710096008801A401EE
:103E400014025A03C001DC01F80130024C0276036F
:103E50009203AE03BD037200CA03DD03DE03CB038E
:103E6000EC03FA03FB0309040A040B041904CD0351
:103E70003305E606F006FA0604071A07CC03260700
:103E80004504CE0358045904CF03790426072607B6
:103E9000260726072607260726072607160500BF3A
:103EA000FC4800783D2805D0FBA001F093FF50208E
:103EB00005F0DAFA3D20F749087000F0B8BE00BFFF
:103EC00000BF00BF00BFF348007805280BD0F5A065
:103ED00001F080FF502005F0C7FAF2A001F07AFF50
:103EE000502005F0C1FA0520EA490870E5E700BF57
:103EF000E84800783A2808D0EDA001F06BFF502088
:103F000005F0B2FA3A20E3490870D6E7E1480078B4
:103F1000182805D0E9A001F05DFF502005F0A4FAB3
:103F20001820DC490870C8E7DA4800780F2805D067
:103F3000E5A001F04FFF502005F096FA0F20D5497B
:103F40000870BAE700BFD3480078092805D0E1A07F
:103F500001F040FF502005F087FA0920CD49087094
:103F6000ABE7CC4800780A2805D0DDA001F032FF8D
:103F7000502005F079FA0A20C64908709DE7C54827
:103F800000783B2805D0D9A001F024FF502005F08F
:103F90006BFA3B20BF4908708FE7BE4800780E28B7
:103FA00005D0D5A001F016FF502005F05DFA0E20D7
:103FB000B849087081E7B74800780B2805D0D1A030
:103FC00001F008FF502005F04FFA0B20B1490870AE
:103FD00073E7B0480078122805D0CDA001F0FAFEB2
:103FE000502005F041FA1220AA49087065E700BF89
:103FF00000BF00BF00BFA74800780D284AD0C7A067
:1040000001F0E8FE502005F02FFAC748007801289B
:1040100040D1C648007801283CD10020C44908801E
:104020004880C44800888880C3480088C880C3A0EE
:1040300001F0D0FEBE480288C2A107A804F03CFFF0
:1040400007A801F0C7FEBDA001F0C4FEB848428831
:10405000C2A107A804F030FF07A801F0BBFEB7A07B
:1040600001F0B8FEB3480288C2A107A804F024FFFB
:1040700007A801F0AFFEB1A001F0ACFEAE48028887
:10408000C1A107A804F018FF07A801F0A3FE0A20A9
:1040900005F0EAF90D207F4908700EE77D480078A9
:1040A000082805D0BEA001F095FE502005F0DCF9EF
:1040B00008207849087000E7764800783C2805D049
:1040C000BAA001F087FE502005F0CEF93C207149DE
:1040D0000870F2E66F4800782D2808D0B6A001F0ED
:1040E00079FE2D206B490870502005F0BDF9E4E6FB
:1040F000684800781C2808D0B2A001F06BFE1C2094
:1041000064490870502005F0AFF9D6E661480078A0
:10411000312808D0AEA001F05DFE31205D49087065
:10412000502005F0A1F9C8E65A480078242808D0A4
:10413000AAA001F04FFE242056490870502005F037
:1041400093F9BAE653480078392808D0A6A001F0C0
:1041500041FE39204F490870502005F085F9ACE642
:104160004C4800782C2808D0A2A001F033FE2C2067
:1041700048490870502005F077F99EE645480078D8
:10418000322808D09EA001F025FE32204149087057
:10419000502005F069F990E63E480078252808D0BF
:1041A0009AA001F017FE25203A490870502005F02A
:1041B0005BF982E637480078332808D096A001F0F2
:1041C00009FE332033490870502005F04DF974E69C
:1041D00030480078262808D092A001F0FBFD262068
:1041E0002C490870502005F03FF966E62948007810
:1041F000302808D08EA001F0EDFD30202549087050
:10420000502005F031F958E622480078232808D0DC
:104210008AA001F0DFFD23201E490870502005F020
:1042200023F94AE61B480078342808D086A001F01C
:10423000D1FD342017490870502005F015F93CE6EF
:1042400014480078272808D082A001F0C3FD272059
:1042500010490870502005F007F92EE60D48007847
:10426000352808D07EA001F0B5FD35200949087039
:10427000502005F0F9F820E606480078282808D0F4
:104280007AA001F0A7FD282002490870502005F00F
:10429000EBF812E650010020535047283631293BF5
:1042A0000D0000005350472835293B0D0000000049
:1042B000535047283538293B0D00000053504728FC
:1042C0003234293B0D000000535047283135293B3B
:1042D0000D0A00005350472839293B0D0A00000001
:1042E000535047283130293B0D0A000053504728CE
:1042F0003539293B0D0A0000535047283134293BFA
:104300000D0A0000535047283131293B0D0A0000A7
:10431000535047283138293B0D0A00005350472895
:104320003133293B0D0A00003D0100203C010020F3
:10433000CE1C00207C1400207E1400205342432811
:1043400037293B00445331362836382C36332C2756
:1043500020202564272C30293B00000044533136AF
:10436000283137302C36332C27202564272C302950
:104370003B000000445331362836382C39332C2783
:104380002564272C30293B004453313628313730FF
:104390002C39332C272564272C30293B0D0A0000AB
:1043A0005350472838293B0D0A0000005350472836
:1043B0003630293B0D0A0000535047283435293B3D
:1043C0000D0A0000535047283238293B0D0A0000DF
:1043D000535047283439293B0D0A000053504728D1
:1043E0003336293B0D0A0000535047283537293B07
:1043F0000D0A0000535047283434293B0D0A0000B1
:10440000535047283530293B0D0A000053504728A8
:104410003337293B0D0A0000535047283531293BDB
:104420000D0A0000535047283338293B0D0A00007D
:10443000535047283438293B0D0A00005350472871
:104440003335293B0D0A0000535047283532293BAC
:104450000D0A0000535047283339293B0D0A00004C
:10446000535047283533293B0D0A00005350472845
:104470003430293B0D0A0000F84800782F2808D076
:10448000F7A001F0A7FC2F20F4490870502004F099
:10449000EBFFCCE3F1480078222808D0F3A001F02C
:1044A00099FC2220ED490870502004F0DDFFBEE3A6
:1044B000EA480078362808D0EFA001F08BFC3620BF
:1044C000E6490870502004F0CFFFB0E3E3480078DD
:1044D000292808D0EBA001F07DFC2920DF490870D5
:1044E000502004F0C1FFA2E3DC480078372808D050
:1044F000E7A001F06FFC3720D8490870502004F085
:10450000B3FF94E3D54800782A2808D0E3A001F04F
:1045100061FC2A20D1490870502004F0A5FF86E3F1
:10452000CE480078382808D0DFA001F053FC3820AE
:10453000CA490870502004F097FF78E3C748007814
:104540002B2808D0DBA001F045FC2B20C3490870C4
:10455000502004F089FF6AE300BFC04800781E289D
:1045600007D0D7A001F036FC1E20BC49087005F02A
:10457000CFFC5CE300BF00BF00BF00BF00BFB74877
:104580000078112805D0D1A001F024FC502004F0BF
:104590006BFF1120B149087049E300BFAF480078B4
:1045A000132805D0CCA001F015FC502004F05CFFCE
:1045B0001320AA4908703AE3A8480078142808D0C4
:1045C000C8A001F007FC502004F04EFF1420A349BE
:1045D00008702CE300BFA1480078152808D0C4A0BB
:1045E00001F0F8FB502004F03FFF15209B490870B4
:1045F0001DE300BF00BF99480078162808D0BFA06F
:1046000001F0E8FB502004F02FFF162093490870BA
:104610000DE392480078172823D0BBA001F0DAFB05
:10462000502004F021FFAFF2EC2001F0D3FB002476
:104630000DE0B848035D5A2000EBC402B6A107A8FC
:1046400004F03AFC07A801F0C5FB601CC4B2B748EF
:1046500000788442EDDB84A001F0BCFB17207F4989
:104660000870B3A001F0B6FBE1E2B9A001F0B2FB23
:10467000322004F0F9FE1A2078490870B748027811
:10468000B7A107A804F018FC07A801F0A3FBCEE22D
:1046900000BF724800781B2805D0B9A001F09AFB32
:1046A000782004F0E1FE1B206C490870B7480078C0
:1046B000522803D1B6A001F08DFB06E0B348007884
:1046C000532802D1C1A001F085FB782004F0CCFE74
:1046D000ADE26248007820286AD0C8484069C849DD
:1046E0000860C64800694860C448C0688860C3481C
:1046F0008069C860C14880680861C04840684861F6
:10470000BE48006888610020C861BEA001F062FB5D
:10471000BFA001F05FFBBA4880690090B8484369C8
:10472000BDA1026907A804F0C7FB07A801F052FB6E
:10473000142004F099FEB248C068072821D2DFE8AF
:1047400000F004080C1014181C00BBA001F042FB80
:1047500017E0BFA001F03EFB13E0C3A001F03AFB5D
:104760000FE0C7A001F036FB0BE0CBA001F032FB5D
:1047700007E0CFA001F02EFB03E0D3A001F02AFB5D
:1047800000BF00BF9E48806800909D484368D4A148
:10479000026807A804F090FB07A801F01BFBD8A053
:1047A00001F018FB142004F05FFE782004F05CFE9A
:1047B00020202A4908703AE228480078042817D0B7
:1047C000D2A001F007FB642004F04EFECFA001F060
:1047D00001FB642004F048FECCA001F0FBFA642049
:1047E00004F042FEC9A001F0F5FA642004F03CFE9A
:1047F000C9480078012805D1C8A001F0EBFA0A20C9
:1048000004F032FE04201549087010E213480078C5
:10481000022805D0D1A001F0DDFA282004F024FE02
:1048200002200E490870BC480078012803D1CEA0B0
:1048300001F0D0FA06E0B8480078022802D1D1A0F1
:1048400001F0C8FAF3E1D6A001F0C4FA282004F080
:104850000BFE662001490870E9E1000050010020CC
:10486000535047283437293B0D0A0000535047283E
:104870003334293B0D0A0000535047283534293B77
:104880000D0A0000535047283431293B0D0A00001F
:10489000535047283535293B0D0A0000535047280F
:1048A0003432293B0D0A0000535047283536293B46
:1048B0000D0A0000535047283433293B0D0A0000ED
:1048C000535047283330293B0D0A000053504728E6
:1048D0003137293B0D0A0000535047283139293B15
:1048E0000D0A0000535047283230293B0D0A0000C2
:1048F000535047283231293B0D0A000053504728B6
:104900003232293B0D0A0000535047283233293BED
:104910000D0A000099190020445331362825642CD3
:1049200038362C272563272C30293B00070100202F
:1049300043424F46283132302C3131312C31383519
:104940002C3132362C302C37293B0D0A0000000068
:10495000535047283236293B0D0A0000350100200C
:104960005342432837293B44533132283132332CC8
:1049700037382C272564272C30293B0D0A000000EE
:10498000535047283237293B0D0000004F010020CB
:104990005342432837293B43424F462834362C376D
:1049A000312C3137342C38352C312C37293B4453BA
:1049B00031322838362C37322C27CAC7B7F1BCCC55
:1049C000D0F83F272C30293B0D0A000053424328E2
:1049D00037293B445331322834372C37322C27B80F
:1049E000C3B2D9D7F7BDABC7E5B3FDB1A3B4E6CA2F
:1049F000FDBEDD21272C30293B0D0A007019002057
:104A0000281B0020535047283332293B0D0000005B
:104A10005342432835293B00445331362839302C42
:104A200039332C27253032643A253032643A253028
:104A30003264272C30293B00445331362839302C3E
:104A40003132352C27D6DCC8D5272C30293B000045
:104A5000445331362839302C3132352C27D6DCD22C
:104A6000BB272C30293B0000445331362839302CE9
:104A70003132352C27D6DCB6FE272C30293B0000FE
:104A8000445331362839302C3132352C27D6DCC806
:104A9000FD272C30293B0000445331362839302C77
:104AA0003132352C27D6DCCBC4272C30293B0000F3
:104AB000445331362839302C3132352C27D6DCCED0
:104AC000E5272C30293B0000445331362839302C5F
:104AD0003132352C27D6DCC1F9272C30293B000098
:104AE000445331362839302C36322C272530346463
:104AF0002D253032642D25303264272C30293B009F
:104B00005342432837293B0D0A00000053504728E1
:104B100034293B0D000000003701002043424F467E
:104B2000283138302C392C3232302C34332C312C83
:104B300035293B5342432835293B445331362831EC
:104B400038342C31382C27D2D1CBF8272C30293BC4
:104B50005342432837293B0D0A0000005350472891
:104B600032293B0D00000000445331362837382CE1
:104B700037392C27BCFCC5CCD2D1CBF8272C302917
:104B80003B0D0A00445331362837382C37392C274F
:104B9000BDE2CBF8B3C9B9A6272C30293B0D0A00DA
:104BA00053504728313032293B0D0A00F8A001F05C
:104BB00011F9282004F058FC6720F849087036E005
:104BC000F7A001F007F9282004F04EFC6820F34913
:104BD00008702CE0F5A001F0FDF8282004F044FC5A
:104BE0006920EE49087022E0F3A001F0F3F82820D4
:104BF00004F03AFC6A20E949087018E0F1A001F0DD
:104C0000E9F8282004F030FC6B20E449087002F039
:104C100089FD0CE0EEA001F0DDF8282004F024FC72
:104C20006C20DE49087002F07DFD00E000BF00BF8F
:104C300001F09AFD10B1304607F0C4F85D2E42D263
:104C4000DFE806F0FDFCFBFAF941F841412F413560
:104C5000393A3B4141414141414141423041F741B3
:104C600041F6F5F4F3F2F1F04141EFEE41313D3E12
:104C700032413436373841414141414141413C3371
:104C8000EDECEBEA41E9E8E7E6E541E44141414189
:104C90004141E34141E24141E1E0DFDE4141DD41AB
:104CA000DC0000BF00BF00BF00BF00BF00BF00BFEF
:104CB00000BF00BF00BF00BF00BF00BF00BF00BFFC
:104CC000304607F07FF85DE1AFF6901001F082F812
:104CD0000025002405E0C14830F814000544601C9C
:104CE000C4B2BF4800888442F5DB42F20F708542AF
:104CF00005D92A46BBA107A804F0DEF81DE0B5F5EA
:104D00007A7F05D32A46BDA107A804F0D5F814E0A0
:104D1000632D05D92A46BFA107A804F0CDF80CE001
:104D2000092D05D92A46C1A107A804F0C5F804E059
:104D30002A46C4A107A804F0BFF807A801F04AF862
:104D40000025002406E0A548103830F8140005447A
:104D5000601CC4B2C14800888442F4DB42F20F7088
:104D6000854205D92A46BEA107A804F0A5F81DE092
:104D7000B5F57A7F05D32A46BFA107A804F09CF8B1
:104D800014E0632D05D92A46C1A107A804F094F8C0
:104D90000CE0092D05D92A46C3A107A804F08CF818
:104DA00004E02A46C6A107A804F086F807A801F087
:104DB00011F8AFF24C5001F00DF801241AE0562022
:104DC00060438749098890FBF1F000F148075620BD
:104DD00060438349098890FBF1F000F148083B46A5
:104DE0004246BDA107A804F067F807A800F0F2FF4B
:104DF000601CC4B27A480088844221E0B8E070E0C8
:104E0000BCE0BAE0B8E05BE059E056E056E064E0B0
:104E100062E060E05EE05CE04EE056E054E04AE0D4
:104E20003BE039E043E041E03FE03DE03BE039E09A
:104E300034E030E09BE061E06AE091E096E05AE027
:104E4000BDDB01241EE004EB041000EBC00083492D
:104E5000098890FBF1F000F12A0704EB041000EB45
:104E6000C0007E49098890FBF1F000F12A083B461A
:104E700042469EA107A804F01FF807A800F0AAFF69
:104E8000601CC4B2754800888442DCDBAFF2286045
:104E900000F0A0FF76E000BF00BF00BF304606F084
:104EA00091FF6FE000BF00BF00BF00BF00BF3046F2
:104EB00006F088FF66E000BF00BF00BF00BF00BF74
:104EC000304606F07FFF5DE000BF304606F07AFF17
:104ED00058E000BF00BF00BF00BF304606F072FFC1
:104EE00050E0874B874A884907A803F0E5FF07A8E9
:104EF00000F070FF46E0FBF767FF43E083A000F09F
:104F000069FF502004F0B0FA64202449087039E0A9
:104F100081A000F05FFF04F0FBFF8248C089814957
:104F20008989804A52897F4B1B89CDE90232CDE9BC
:104F300004107C48C0887B498988CDE900107948F5
:104F400043880288784907A803F0B6FF07A800F055
:104F500041FF502004F088FA65201049087011E0E4
:104F6000FCF75CFD65200D4908700BE000BF09E00F
:104F7000304606F027FF05E000BF00BF304606F0D0
:104F800021FF00BF00BF0DF5047DBDE8F0810000EA
:104F900053504728313033293B0D0A00500100207F
:104FA00053504728313034293B0D0A0053504728CD
:104FB000313035293B0D0A0053504728313036290E
:104FC0003B0D0A0053504728313037293B0D0A006A
:104FD00053504728313038293B0D0A00581B002018
:104FE00040010020445331322831302C3130352CEF
:104FF000272564272C30293B000000004453313220
:105000002831332C3130352C272564272C30293B8F
:1050100000000000445331322831362C3130352C19
:10502000272564272C30293B0000000044533132EF
:105030002831392C3130352C272564272C30293B59
:1050400000000000445331322832322C3130352CEC
:10505000272564272C30293B000000004201002056
:1050600044533132283130352C35302C27256427F4
:105070002C30293B000000004453313228313038B5
:105080002C35302C272564272C30293B00000000CC
:1050900044533132283131312C35302C27256427C7
:1050A0002C30293B00000000445331322831313488
:1050B0002C35302C272564272C30293B000000009C
:1050C00044533132283131372C35302C2725642791
:1050D0002C30293B00000000504C2834322C256431
:1050E0002C3139352C25642C33293B00504C282594
:1050F000642C37322C25642C3135382C33293B0075
:10510000570E01086B000020543E010853504728F9
:10511000313030293B0D0A005350472831303129B6
:105120003B0D0A005C1C0020F03D01082DE9FC4706
:105130000446884600254FF47A7094FBF0F00A216B
:1051400090FBF1F201FB1200C6B2642094FBF0F078
:1051500090FBF1F201FB1200C7B20A2094FBF0F0C1
:1051600090FBF1F201FB120000F0FF090A2094FB12
:10517000F0F100FB114000F0FF0A3EB106F13000F3
:10518000C2B22846691CCDB20DF8002007B93EB165
:1051900007F13000C2B22846691CCDB20DF80020DC
:1051A000B9F1000F01D107B93EB109F13000C2B227
:1051B0002846691CCDB20DF800200A2094FBF0F1BE
:1051C00000FB11403030C2B22846691CCDB20DF848
:1051D000002000200DF8050004A1404604F051F81D
:1051E0006946404604F04DF8BDE8FC8720202020A9
:1051F000000000002DE9F84304460E4600250A2071
:1052000094FBF0F00A2190FBF1F201FB1200C7B20F
:105210000A2094FBF0F100FB114000F0FF080FB9E9
:10522000202001E007F13000C2B22846691CCDB24F
:105230000DF8002008F13000C2B22846691CCDB23A
:105240000DF8002000200DF805006946304604F0F6
:1052500018F8BDE8F883000010B52B48008884B228
:105260002AA1962004F00DF896212046FFF7C2FFF0
:105270002548808884B294212046FFF7BBFF22484E
:10528000008984B292212046FFF7B4FF1E48008BAC
:1052900084B21F480078022804D1E0B2992100F0BE
:1052A00055F82FE01A48007801282BD1072C28D276
:1052B000DFE804F004090E13181D220015A1982040
:1052C00003F0DFFF1DE015A1982003F0DAFF18E0DE
:1052D00014A1982003F0D5FF13E014A1982003F047
:1052E000D0FF0EE013A1982003F0CBFF09E013A13B
:1052F000982003F0C6FF04E012A1982003F0C1FF3C
:1053000000BF00BF10BD0000701900202020000069
:105310003601002053756E2E000000004D6F6E2E7A
:105320000000000054756573000000005765642E8E
:105330000000000054687572000000004672692E7B
:10534000000000005361742E0000000038B50446D0
:105350000D4600200090072C36D2DFE804F0040B45
:10536000121920272E00C8208DF80000D5208DF8B6
:10537000010029E0D2208DF80000BB208DF801004B
:1053800022E0B6208DF80000FE208DF801001BE021
:10539000C8208DF80000FD208DF8010014E0CB201E
:1053A0008DF80000C4208DF801000DE0CE208DF8AE
:1053B0000000E5208DF8010006E0C1208DF8000016
:1053C000F9208DF8010000BF00BF6946284603F0B0
:1053D00058FF38BD10B50E48808A84B20D4804804D
:1053E00083212046FFF7A2FE0948008A84B20948BB
:1053F000448086212046FFF7FDFE0548808984B25F
:105400000448848088212046FFF7F4FE10BD000088
:1054100070190020C200002010B5012000F0ACF887
:1054200000B3002406E06FF00C000F4908600F493C
:105430000860641C0E488442F5DD002406E04FF04D
:10544000FF300A49086008490860641C0948844222
:10545000F5DD002403E0012000F088F8641C064814
:105460008442F8DD10BD00000C0C01400C08014026
:1054700000127A0080841E0040420F0010B54FF4E5
:105480000061244800F086FC00283ED122480078C4
:10549000A0B322480088642806DD204800889628AA
:1054A00002DA00201E4908701C480088B0F5487FC9
:1054B00007DA1A4800881B49194A127821F81200A5
:1054C00004E019480078401C17490870002013496F
:1054D000088013480078401C11490870084600787D
:1054E000212807D101201149087000200C490870BB
:1054F0000D49087000200849087006E0FFE7002009
:10550000064908800120044908704FF4006000F04B
:105510002DF810BD00080140611400205614002031
:1055200062140020E61A00205D14002058140020A8
:1055300010B5642003F098FF0221074800F02AFC10
:1055400028B906480078022801D1FCF73DFF022067
:1055500000F00CF810BD00000014014037010020DD
:1055600010B5642003F080FF10BD00000149086001
:105570007047000014040140014600200022074B40
:105580001B6803EA0102054B14331B680B4013B17F
:105590000AB1012000E00020704700000004014033
:1055A000002123498279002A3AD00A46126803680A
:1055B0009A430B461A600A1D126803689A430B1D32
:1055C0001A60027911440A6803681A430A60184A8B
:1055D0000832126803689A43154B08331A601A1D83
:1055E000126803689A43124B0C331A604279102AEE
:1055F0000ED11A1F126803681A430D4B08331A6044
:105600001A1D126803681A43094B0C331A600DE027
:105610000749427911440A6803681A430A6005E0A1
:10562000027911440A6803689A430A6070470000CF
:10563000000401401FB50121212001F035FD0220A9
:10564000ADF80C0048208DF80F0003A9114800F0B8
:10565000CDFA0121032000F0A9FA022001900020D8
:105660008DF808000C208DF8090001208DF80A0043
:1056700001A8FFF795FF07208DF8000003208DF8A3
:1056800001008DF8020001208DF80300684601F04A
:1056900051FC1FBD001401400EB50121112001F085
:1056A00003FD0C21022000F081FA4FF4805001909C
:1056B00000208DF808000C208DF8090001208DF8DD
:1056C0000A0001A8FFF76CFF28208DF800000220D7
:1056D0008DF8010001208DF802008DF80300684666
:1056E00001F028FC0EBD00000149C86070470000B1
:1056F0000020024070B5054640F6FF76304600F0C7
:1057000055F8042813D10A4C206940F002002061AA
:105710006561206940F040002061304600F046F8A5
:10572000012804D0216941F6FD721140216170BD4C
:105730000020024008490420CA68D20701D0012095
:105740007047CA68520701D502207047C968C90668
:10575000FBD50320704700000020024070B50646CC
:105760000D460F2000F022F804280FD1084C2069C4
:1057700040F00100206135800F2000F017F801286B
:1057800004D0216941F6FE721140216170BD000014
:1057900000200240034802494160034941607047CC
:1057A0002301674500200240AB89EFCD00B50346D9
:1057B000FFF7C0FF05E0FF20401EFDD1FFF7BAFF55
:1057C0005B1E012802D1002BF5D101E0002B00D196
:1057D000052000BD10B509496B2001F0B9FE07484E
:1057E000007850B90120054908702D20FCF7C8FB4E
:1057F000024801786B2003F0DBFA10BDE9000020BD
:1058000070B504460D46042006490870FFF7C2FF34
:105810003520FFF769FF2046FFF76CFF014908704C
:1058200070BD0000E400002010B586B0002000220A
:105830000E4909E011F8013B0DF800300346401C09
:105840001DF803301344DAB2084B15339942F1D3F3
:105850000B78934208D1002004E01DF80030044C7E
:105860002354401C1528F8DB06B010BD00F40308D3
:105870006000002070B586B000240025002617497E
:105880001748FFF7BDFF00BF08E01648005D0DF8A0
:1058900004001448005D3044C6B2641C152CF4DBCF
:1058A0008DF815600E4D00240DE01DF80420601CDD
:1058B0001DF8000042EA00212846FFF74FFF0A4981
:1058C0000870AD1CA41C06481630854203D2064859
:1058D00000780428E9D006B070BD000000F8030885
:1058E00000F4030860000020E400002008B5012156
:1058F000084601F0D9FB01214FF4C02001F0C4FBA0
:10590000012144F27C0001F0CFFB0121A04800F00E
:10591000F9F901219F4800F0F5F9C020ADF8000029
:1059200010208DF8030003208DF8020069469A4884
:1059300000F05CF90120ADF8000010208DF80300A4
:1059400003208DF802006946944800F04FF94FF4A7
:105950000070ADF8000010208DF8030003208DF8D2
:10596000020069468C4800F041F90220ADF80000C1
:1059700048208DF803006946884800F037F9042074
:10598000ADF8000010208DF8030003208DF8020010
:105990006946824800F02AF90820ADF8000010207E
:1059A0008DF8030003208DF8020069467B4800F063
:1059B0001DF948F21000ADF8000010208DF803002A
:1059C00003208DF802006946744800F00FF94FF487
:1059D0000050ADF8000010208DF8030003208DF872
:1059E000020069466C4800F001F94FF40040ADF840
:1059F000000010208DF8030003208DF80200694696
:105A0000654800F0F3F84FF48040ADF80000102036
:105A10008DF8030003208DF8020069465E4800F00F
:105A2000E5F84FF48070ADF8000010208DF8030009
:105A300003208DF802006946574800F0D7F8092086
:105A4000ADF8000048208DF803006946544800F086
:105A5000CDF84FF4C060ADF8000010208DF80300C1
:105A600003208DF8020069464E4800F0BFF802207E
:105A7000ADF8000010208DF8030003208DF802001F
:105A80006946454800F0B2F88020ADF800001020CB
:105A90008DF8030003208DF802006946414800F0AC
:105AA000A5F880213F4800F080F94FF48070ADF8F0
:105AB000000010208DF8030003208DF802006946D5
:105AC000384800F093F84FF40170ADF8000003205F
:105AD0008DF8020018208DF803006946324800F066
