:020000040800F2
:100000002029002045010008378800085D430008CA
:1000100019880008C9050008A1A800080000000010
:10002000000000000000000000000000FD95000836
:10003000B129000800000000B18B0008E1A0000811
:100040005F0100085F0100085F010008B98E000829
:100050005F0100085F010008DD380008F53900087D
:100060005F0100085F0100085F0100085F010008F0
:100070005F0100085F0100085F0100085F010008E0
:100080005F0100085F0100085F0100085F010008D0
:100090005F0100085F0100085F010008253A0008C1
:1000A0005F0100085F0100085F0100085F010008B0
:1000B0005F010008A1A100085F0100085F010008BE
:1000C0005F0100085F0100085F0100085F01000890
:1000D0005F01000875A40008BDA4000865A500081C
:1000E000413900085F0100085F0100085F01000856
:1000F0005F0100085F0100085F0100085F01000860
:100100005F0100085F0100085F0100085F0100084F
:1001100045A4000871A400085F0100085F01000801
:100120005F0100085F0100085F0100085F0100082F
:10013000DFF80CD000F070F800480047FDDA000846
:10014000202900200648804706480047FEE7FEE7D2
:10015000FEE7FEE7FEE7FEE7FEE7FEE7FEE7FEE777
:10016000E5A000083101000840EA01039B0703D025
:1001700009E008C9121F08C0042AFAD203E011F8E6
:10018000013B00F8013B521EF9D2704710B5002226
:1001900000E0521C835C8C5CA34201D1002BF8D19F
:1001A000D8B2E1B2401A10BD70B50F4D00B9286841
:1001B000002412E00A4602E09E4203D0521C13784B
:1001C000002BF9D1DAB2224305D02BB124B10021A2
:1001D00000F8011B04E00446401C0678002EE9D11B
:1001E0002860204670BD00008017002030B50B4607
:1001F000014600202022012409E021FA02F59D4257
:1002000005D303FA02F5491B04FA02F52844151E2A
:10021000A2F10102F1DC30BD064C074D06E0E068BA
:1002200040F0010394E8070098471034AC42F6D33D
:10023000FFF782FF346401085464010870B501EBD4
:10024000020410F8015B15F0070301D110F8013B1F
:100250002A1106D110F8012B03E010F8016B01F808
:10026000016B5B1EF9D12B0705D40023521E0FD45E
:1002700001F8013BFAE710F8013B02F10202A1EBA1
:10028000030303E013F8015B01F8015B521EF9D58B
:10029000A142D6D3002070BD10B500247F4801884C
:1002A0007F480078401E00EBC0007E4A22F8101004
:1002B0007A4841887A480078401E00EBC00002EB83
:1002C000400041807548818875480078401E00EBE9
:1002D000C00002EB400081807048C18870480078FF
:1002E000401E00EBC00002EB4000C1806B488088DC
:1002F0006A490988401A81B269480078401E00EBBB
:10030000C00002EB400001816448C088634949880D
:10031000401A81B262480078401E00EBC00002EB38
:100320004000418160480078401E81B25C480078FE
:10033000401E00EBC00002EB40008181584801786C
:100340000078401E00EBC00002EB4000C18100219C
:1003500053480078401E00EBC00002EB40000182D1
:100360004F48047808E0002004EBC4014D4A02EB3A
:100370004101C881601CC4B2082CF4DB002463E096
:1003800004EBC400474931F8100004EBC401474AAC
:1003900022F8110004EBC400424901EB4000408800
:1003A00004EBC40102EB4101488004EBC4003D4969
:1003B00001EB4000808804EBC40102EB410188801E
:1003C00004EBC400374901EB4000C08804EBC401D2
:1003D00002EB4101C88004EBC400324901EB40004C
:1003E000008904EBC40102EB4101088104EBC40065
:1003F0002C4901EB4000408904EBC40102EB4101B0
:10040000488104EBC400274901EB4000808904EBDC
:10041000C40102EB4101888104EBC400214901EBD6
:100420004000C08904EBC40102EB4101C88104EB28
:10043000C4001C4901EB4000008A04EBC40102EB3C
:1004400041010882601CC4B2082C99DB184800786E
:10045000012820D100240FE0164830F81400164976
:1004600021F814001348103030F8141012481030DE
:1004700020F81410601CC4B2082CEDDB0F48007883
:100480000F4908700F4800780F49087000F09EF877
:100490000220074908700AF0FDFE10BD562000201A
:1004A000C116002068200020CB160020CE1E0020A0
:1004B0001017002012170020321700200817002004
:1004C0000A170020091700200B17002010B5012083
:1004D0000AF0D4FD04F024F90AF04AFD10BD10B56D
:1004E000012008F0ABFB002008F0A8FB10BD0000C5
:1004F00001460020044A10884FF67F42104008430E
:10050000014A1080704700002C6C004008B501467D
:100510000020009003480090009808440090009844
:10052000008808BD006C0040014908607047000069
:1005300000860D4208B500220092044A0092009AFB
:1005400002440092009A116008BD0000006C004057
:1005500070B506460C46002516480078002804DDD4
:1005600014480078401E1349087000201249087092
:10057000304611F0DDFB002503E020200AF0FEFCF0
:100580006D1CA542F9DB00200C490A4A12788854F8
:1005900030460AF0DAFC0AA010F090FF0948007813
:1005A000502802D004F040FB10B1044807F06CFA68
:1005B00070BD00003D0000203C000020041C002015
:1005C0005F000000D316002000BFFEE7002012E00D
:1005D00020B920490988204A11800AE0411E1E4A9C
:1005E00032F811101B4A32F8102011441A4A22F82E
:1005F0001010411CC8B2194909788842E8DB411E35
:10060000154A32F81110164A1180002016E020B960
:100610001049098A104A11820EE0411E0E4A10321A
:1006200032F811200B49103131F8101011448AB200
:100630000949103121F81020411CC8B20949097834
:100640008842E4DB411E044A103232F81110064A97
:100650001180704732170020841E00200B170020E5
:100660000C1700200A1700200E17002010B50E4BA3
:100670001B88834213DB0C4B1B88834203D10A4B3C
:100680005B888B420BDB084B1B8883420AD1064BED
:100690005B888B4206D1044B9B88934202DC01238A
:1006A000024C236010BD0000CE000020A8160020E0
:1006B00010B586B012A207CA03AB07C30020009092
:1006C000019002900A2203A9F12003F09CFF05206B
:1006D0000AF0D4FC0A226946F12003F05CFF0024F2
:1006E00009E003A8005D1DF80410884202D0002034
:1006F00006B010BD641C0A2CF3DB0120F8E70000F3
:100700000102030405060708090A000010B50C4899
:10071000007808B9002010BD0948017809480AF09E
:10072000FDFB044604F006F807480068844202D046
:100730000648844201D10120EDE70020EBE70000EC
:100740003D000020041C002098160020192F0800EE
:100750002DE9F84F6748007810B90020BDE8F88F00
:100760006548006842F21071B0FBF1F201FB12041F
:100770006048017861480AF0D1FB074603F0DAFFD0
:10078000200140EAA4201FFA80F85D480078204448
:100790005B49097908445A49097A08445849097B50
:1007A00008448002564909682144554A5268114458
:1007B000534A92681144524AD268114440EA2110C7
:1007C0001FFA80F9600140EA64201FFA80FB600292
:1007D00040EA641080B200904A48B7FBF0F042F261
:1007E0001071B0FBF1F201FB120A4648B7FBF0F1C1
:1007F00000FB117608F044FB43490968884224D283
:100800004248007808B34248006886421DD14148FA
:1008100000780DF01FF900203F49087005223F497C
:10082000D3200DF031F93D48007800063B49497866
:1008300000EB01403949897800EB01203749C9783C
:10084000084431490860012088E788EA0900C0F3BC
:100850000D00B84202D03248874233D12B4800788D
:1008600000282FD008F00CFB2E490978C1EB0111AC
:100870008900C1EB011100EB8105280E27490870A2
:10088000280C4870280A8870CD700522D3200DF0FE
:100890001AF9300E24490870300C4870300A8870FC
:1008A000CE700522EC200DF00EF9194806601648AE
:1008B0000560184800780DF0CDF800201649087042
:1008C00001204BE7A82F12D108F0DAFA174909786E
:1008D000C1EB011100EB81050B4805600D48007864
:1008E0000DF0B8F800200C490870012036E7002010
:1008F00034E700003D000020AC160020041C00205E
:10090000E41B0020A086010088160020801600202D
:1009100094160020BC1600208716002082160020A6
:1009200010C21A1381160020901600207F16002096
:100930002DE9F0411F48007810B90020BDE8F08192
:100940001D48006842F21071B0FBF1F201FB120584
:100950001848017819480AF0E1FA0446280140EAEB
:10096000A52087B2A80240EA251086B287EA0600D1
:10097000C0F30D00A04202D01148844207D11148B3
:100980001149086036200AF0A7F80120D6E70E4882
:1009900000680C4988420BD00B480068844207D19C
:1009A00008460949086036200AF096F80120C5E794
:1009B0000020C3E73D000020AC160020041C0020EE
:1009C000A966320340420F006416002005480078F3
:1009D000522802D0532802D100BF012070470020C6
:1009E000FCE70000D316002010B50446224609A1FA
:1009F0000C480AF0C5F80B4809F006FF64200AF01D
:100A00007BFB09F0AFFC08A009F0FEFE64200AF0B1
:100A100073FB10BD47502053444D492025640D0AF7
:100A200000000000F820002047502053444D49208A
:100A3000300D0A0010B50821284803F00BFC38B12E
:100A40000121264803F006FC10B10120244908705A
:100A500023480078002833D00821204803F0FAFB0F
:100A600070BB01211D4803F0F5FB48BB1D48007811
:100A700088B100201A4908701B48007818B9FF2077
:100A80001949087007E018480078401E1649087098
:100A90000020164908701648007888B100201049D7
:100AA000087011480078401C0F49087001200F4958
:100AB00008700D480078FF2802D100200A4908700C
:100AC0000821064803F0C6FB0649087001210348C7
:100AD00003F0C0FB0649087010BD0000001401407F
:100AE0003616002034160020B3010020B201002089
:100AF0003516002010B5ADF5007D2B4800682B4958
:100B0000B0FBF1F201FB120456208DF800003120F9
:100B10008DF801002E208DF8020030208DF80300A2
:100B20002E208DF8040030208DF805002D208DF842
:100B3000060000208DF807001DA003F0ABFB28A0E5
:100B400003F0A8FB28A003F0A5FB2E4A2EA103A8C2
:100B50000AF016F803A803F09DFB31A003F09AFBFE
:100B6000224636A103A80AF00BF803A803F092FB73
:100B700038A003F08FFB3F4B6A463FA103A809F062
:100B8000FFFF03A803F086FB41A003F083FB42A014
:100B900003F080FB46A003F07DFB47A003F07AFB47
:100BA0000DF5007D10BD0000AC16002040420F0086
:100BB00043424F4628302C302C3232302C313736DD
:100BC0002C312C35293B43424F4628302C33302CD6
:100BD0003232302C3134352C312C32293B0000009C
:100BE0005342432832293B00445331362832332CB8
:100BF00034362C27BBFAC6F7D0CDBAC53A272C30ED
:100C0000293B000060000020445331362831303643
:100C10002C34382C272573272C30293B000000006A
:100C2000445331362832332C37392C27BBFAC6F7D8
:100C30004944BAC53A272C30293B00004453313689
:100C4000283130362C37392C272564272C30293B86
:100C500000000000445331362832332C3131312C1E
:100C600027C8EDBCFEB0E6B1BE3A2020272C3029C3
:100C70003B000000DF230108445331362831303671
:100C80002C3131312C2725732573272C30293B003B
:100C90005342432835293B004453313628313939F2
:100CA0002C3135342C275032272C31293B000000C1
:100CB0005342432837293B000D0A000010B5024675
:100CC000A2F534530F3B04D0A3F50063673B4ED12C
:100CD00026E0652904D066290CD067291ED113E0CF
:100CE000002004E0354B1B5C354C2354401C072886
:100CF000F8DB13E0002004E0304B1B5C314C235444
:100D0000401C0728F8DB09E0002004E02B4B1B5CAB
:100D10002D4C2354401C0728F8DB00BF00BF4AE0DD
:100D2000652904D066290CD067291ED113E0002064
:100D300004E0264B1B5C224C2354401C0728F8DBA4
:100D400013E0002004E0214B1B5C1E4C2354401C8C
:100D50000728F8DB09E0002004E01C4B1B5C1A4C60
:100D60002354401C0728F8DB00BF00BF23E065299F
:100D700004D066290BD067291BD111E0002003E0C5
:100D800000230F4C2354401C0728F9DB11E00020FE
:100D900003E000230B4C2354401C0728F9DB08E038
:100DA000002003E00023084C2354401C0728F9DBF3
:100DB00000BF00BF00BF00BF10BD00000E33010820
:100DC000AD000020B4000020BB0000201533010856
:100DD0000146CB296CD00FDC042941D005DC09B3D6
:100DE000012929D003296FD130E0052942D0C92932
:100DF0004AD0CA29F7D151E042F21323CA1A9942C4
:100E000075D00ADCA1F580722D3A5BD0A2F50052B4
:100E1000E43A62D0012AE6D16BE0022A7DD0032AAF
:100E2000E1D184E0002004E0474A125C474B1A54A9
:100E3000401C1528F8DB85E0002004E0444A125CE1
:100E4000424B1A54401C1528F8DB7BE0002004E0DC
:100E5000404A125C3D4B1A54401C1528F8DB71E0E7
:100E6000002004E03C4A125C384B1A54401C152800
:100E7000F8DB67E0002004E0384A125C334B1A5478
:100E8000401C1528F8DB5DE0002004E0344A125CC9
:100E90002E4B1A54401C1528F8DB53E0002004E0C8
:100EA000304A125C294B1A54401C1528F8DB49E0E3
:100EB000002004E02C4A125C244B1A54401C1528D4
:100EC000F8DB3FE0002005E03BE0284A125C1F4BC6
:100ED0001A54401C1528F8DB34E0002004E0244AB2
:100EE000125C1A4B1A54401C1528F8DB2AE00AE061
:100EF00013E0002004E01F4A125C144B1A54401CFB
:100F00001528F8DB1EE0002004E01B4A125C0F4BA2
:100F10001A54401C1528F8DB14E0002004E0174A9E
:100F2000125C0A4B1A54401C1528F8DB0AE000201A
:100F300004E0134A125C054B1A54401C1528F8DBD8
:100F400000E000BF00BF7047B02601088500002008
:100F5000AB240108C0240108D5240108EA240108B3
:100F6000FF24010814250108292501083E25010850
:100F700053250108682501087D25010892250108EF
:100F8000A725010870B505460E462878302804D1FB
:100F9000012E02D103F07CFB0CE0002403E0285D6D
:100FA00005490855641CB442F9DB00200249085584
:100FB00002F0C2FE70BD00006000002010B52448A1
:100FC0000078502802D003F02FFE20B10421942095
:100FD000FFF7BEFA3AE01E48007862281DD00CDC0C
:100FE0005F2824D004DC402822D050282CD126E0D1
:100FF00060281ED0612827D11CE06438052823D240
:10100000DFE800F006030405100000BF00BF00BFCA
:1010100005219120FFF79CFA17E00B219120FFF7A3
:1010200097FA12E00A219120FFF792FA0DE000BF33
:1010300000BF00BF06219120FFF78AFA05E00221D8
:101040009120FFF785FA00E000BF00BF10BD00004F
:10105000D316002010B504460C480470007800EB4D
:10106000400101EBC0000A4901EB8000806A58B1E1
:101070000648007800EB400202EBC0000A4602EB93
:101080008000816A2046884710BD0000D3160020EA
:10109000B401002010B51C480078222803D01A485B
:1010A00000783A2810D119480078042805DA174842
:1010B0000078401C1549087002E0012013490870AF
:1010C0001148007805F0A4FD0F48007800EB4001BE
:1010D00001EBC0000E4901EB8000407E0A4909780F
:1010E00088420FD00848007800EB400101EBC000B7
:1010F000074901EB8000407E0349087008460078EC
:10110000FFF7A8FF10BD0000D3160020CB1600206B
:10111000B401002010B503F0DDFD00287BD003F002
:1011200009FB734800782B2848D016DCA0F10A0090
:10113000212871D2DFE800F039464B5055616263D7
:101140006465666768AFAF3AAF7EAF7982868A8E94
:10115000AFAFAFAFAF7DAFAF3E0039284CD00BDCA7
:10116000A0F12E000B28E4D2DFE800F02D32373C4E
:101170009540414243444500712876D00CDC6E28EE
:1011800070D004DC40287ED06C2845D17FE06F28E9
:1011900069D070287FD167E0722867D0732866D045
:1011A000742868D0752876D169E000BF51A003F09B
:1011B00071F871E05DA003F06DF86DE062A003F0DE
:1011C00069F869E000BF67A003F064F864E000BF5D
:1011D0006BA003F05FF85FE000BF69A003F05AF86E
:1011E0005AE000BF66A003F055F855E000BF00BF0D
:1011F00000BF00BF00BF00BF00BF00BF00BF00BFF7
:1012000000BF00BF00BF00BF65480088654909886E
:10121000884206DC01E045E03DE063A003F03AF8D7
:1012200002E061A003F036F836E067A003F032F880
:1012300032E000BF6BA003F02DF82DE070A003F0AA
:1012400029F829E077A003F025F825E07EA003F037
:1012500021F821E085A003F01DF81DE005E001E084
:1012600011E000E000BF00BF00BF00BF00BF88A0CA
:1012700003F010F810E094A003F00CF80CE099A033
:1012800003F008F808E09EA003F004F804E0A3A02F
:1012900003F000F800E000BF00BF15480078FFF73A
:1012A000D9FE23E003F046FA114800783D2803D028
:1012B0000F4800783E2807D104209F49087007F0A6
:1012C0007FFB00209C4908700948007800EB400132
:1012D00001EBC000994901EB8000C07E0449087011
:1012E00008460078FFF7B6FE07F060FB10BD00006F
:1012F000D316002043424F46283134352C38302C49
:101300003138352C3130302C332C3135293B4342A8
:101310004F58283134352C38302C3138352C313079
:10132000302C332C30293B0D0A00000043424F463D
:101330002836362C36362C39342C38392C332C318F
:1013400035293B0D0A00000043424F462831323612
:101350002C36362C3135342C38392C332C31352978
:101360003B0D0A0043424F46283134362C36392C87
:101370003138342C38372C332C3135293B0D0A00C9
:1013800043424F46283137312C3134362C313934F1
:101390002C3136392C312C3135293B0D0A00000017
:1013A000CC160020C416002043424F46283133316A
:1013B0002C3132362C3230342C3134392C312C3122
:1013C00035293B0D0A00000043424F462831343690
:1013D0002C38312C3138342C39392C332C313529F7
:1013E0003B0D0A0043424F46283133312C38312C13
:1013F0003135392C39392C332C3135293B0D0A0044
:101400005342432837293B43424F462836382C362F
:10141000332C3130362C38322C312C37293B0D0A05
:10142000000000005342432837293B43424F4628DF
:101430003137302C36332C3230382C38322C312C9A
:1014400037293B0D0A0000005342432837293B430C
:10145000424F462836382C39332C3130362C313136
:10146000322C312C37293B0D0A000000534243280F
:1014700037293B43424F46283137302C39332C3201
:1014800030382C3130322C312C37293B0D0A0000FA
:1014900043424F46283132352C38302C3230302CF4
:1014A0003130302C332C3135293B43424F582831D1
:1014B00032352C38302C3230302C3130302C332C2B
:1014C00030293B0D0A00000043424F462831323597
:1014D0002C36322C3230302C38322C332C37293BFE
:1014E0000D0A000043424F46283132352C39372C43
:1014F0003230302C3131372C332C37293B0D0A0058
:1015000043424F46283133302C37392C3230302C7F
:1015100039392C332C37293B0D0A000043424F4602
:10152000283130352C37302C3136352C38362C33A9
:101530002C37293B0D0A0000D1160020B4010020F1
:1015400031B50024684607F009FA9DF800400CB157
:10155000092C00DB38BD10480078222810D03A282A
:101560000FD03D2802D03E280ED104E00B48047075
:1015700007F026FA08E00A48047007F021FA03E0B1
:1015800000BF0848047000BF00BF0348007805F0A2
:101590003FFB00BFDEE70000D3160020D01600207E
:1015A000D1160020CB16002010B503F0C3F809F0C7
:1015B000DFFC02480078FFF74DFD10BDD316002078
:1015C00070B50024FB480578022003F0E9F800B16B
:1015D00070BDF8480078552804D0562803D0572805
:1015E00007D101E000BF00BF08F050FDFFF792FDFA
:1015F000EEE7F0480078312853D019DCA0F10A005A
:10160000272871D2DFE800F0534A4E4F50FEFEFE0D
:10161000FEFEFEFEFE74FE54FE3DFE3B3E3F40419C
:101620007672FEFEFE3C73FE5152FEFE494B4C00AC
:101630006A287AD018DC45282CD00CDC42282AD025
:1016400004DC3A2855D040284ED11FE043281ED054
:101650004428F9D11CE046281BD0502866D05328D6
:101660001AD06928F0D187E06B380B28C9D2DFE89F
:1016700000F085A7C96061868788898A620000BFFB
:1016800000BF00BF00BF00BF00BF00BF00BF00BF62
:1016900000BF00BF00BF00BF00BF00BF00BF00BF52
:1016A00000BF00BF00BF00BF00BF00BF00BF00BF42
:1016B000C048007800EB400101EBC000BE4901EBDF
:1016C0008000C06988B1BB48007800EB400101EBA5
:1016D000C000B94901EB80000022C369B548017818
:1016E0000420984708B973E78CE08CE000BF00BF86
:1016F00000BF00BFAF48007800EB400101EBC00025
:10170000AD4901EB8000C06970B1AA48007800EBD8
:10171000400101EBC000A84901EB80000022C36931
:10172000A4480178042098476DE026E009F092FC77
:1017300000BF00BF00BF9F48007800EB400101EBF5
:10174000C0009D4901EB8000C069A0B199480078B4
:1017500000EB400101EBC000974901EB8000002243
:10176000C369944801780420984700B930E76D2098
:10177000904908702CE746E000BF00BF00BF00BFE3
:1017800000BF00BF00BF8B48007800EB400101EBB9
:10179000C000894901EB8000C06980B185480078AC
:1017A00000EB400101EBC000834901EB8000002207
:1017B000C369804801780420984700B908E722E00F
:1017C0007C48007800EB400101EBC0007A4901EB56
:1017D0008000C069A8B17748007800EB400101EBB8
:1017E000C000754901EB80000022C369714801788F
:1017F0000420984700B9EBE66E480078FFF72AFC12
:10180000E6E600E000BF00BF03F00EFAD8B1694879
:10181000007800EB400101EBC000674901EB80005C
:10182000C06980B16348007800EB400101EBC00063
:10183000614901EB80000022C3695E480178042001
:10184000984700B9C4E65B48007800EB400101EB23
:10185000C000594901EB8000807E564909788842D2
:101860007BD054480078092806D15448007818B134
:101870000A2050490870B6E14E480078182806D171
:101880004E48007818B119204A490870ABE1494820
:1018900000782E282ED14A480088022803D12F2014
:1018A000444908709FE146480088032803D130204E
:1018B0004049087097E142480088042803D131204C
:1018C0003C4908708FE101203E4908803E4908806C
:1018D0003E49088000203E4908803648007800EBE9
:1018E000400101EBC000344901EB8000807E3149AA
:1018F000087078E12F4800780B282FD130480088F5
:10190000022803D10C202B4908706CE12C48008878
:10191000032803D10D202749087064E12848008876
:10192000042803D10E20234908705CE101202549D9
:10193000088025490880254908800020244908801E
:101940001C48007800EB400101EBC0001A4901EB94
:101950008000807E1749087045E145E11548007810
:101960002F2815D11B480078012808D133201149B0
:10197000087016480088401C1449088033E1342060
:101980000C49087011480088401C104908802AE161
:1019900008480078302828D10E48007801281BD14B
:1019A00035200449087009480088401C0749088010
:1019B00019E10000D3160020B4010020C316002056
:1019C000C8160020C4160020C6160020CC16002021
:1019D000CE160020CA16002036208B4908708B488E
:1019E0000088401C89490880FDE08748007831283C
:1019F00022D187480078012808D137208249087011
:101A000082480088401C81490880ECE080480078CA
:101A1000022808D138207C4908707C480088401C86
:101A20007A490880DFE039207749087077480088D4
:101A3000401C76490880D6E0734800780C2815D100
:101A400073480078012808D110206F4908706F484A
:101A50000088401C6D490880C5E011206A49087063
:101A60006A480088401C69490880BCE066480078E4
:101A70000D2815D166480078012808D11220624946
:101A8000087062480088401C60490880ABE0132061
:101A90005D4908705D480088401C5C490880A2E0F0
:101AA000594800780E2822D159480078012808D1D9
:101AB00014205549087055480088401C5349088037
:101AC00091E053480078022808D115204E4908704B
:101AD0004E480088401C4D49088084E016204A4941
:101AE00008704A480088401C484908807BE0464806
:101AF0000078242830D1474800784749097888423F
:101B000008DA44480078401C424908701E203E49CB
:101B1000087068E007F074FD012140480078401E1D
:101B20003F4A11543D4A1278521E3D4B995C3B4A44
:101B30001278521EB92303EB420008F09DFF324891
:101B4000007800EB400101EBC000364901EB80005A
:101B5000807E2D49087046E003F066F848B32B48B4
:101B6000008831490988884205DA28480088401CE5
:101B70002649088037E02D4800882D490988884289
:101B80000ADA22480088401C20490880274800883B
:101B9000401C2649088026E01B48007800EB4001E5
:101BA00001EBC0001F4901EB8000807E16490870E0
:101BB00019E0154800781B2809D118480078401E04
:101BC0001749085C18B11C200F4908700BE00E483B
:101BD000007800EB400101EBC000124901EB8000EE
:101BE000807E0949087001240748007828B9114807
:101BF000006810B9FFF7D8FCEAE403480078FFF763
:101C000029FA00BFE4E40000D3160020CC1600201F
:101C1000CA160020C1160020C0160020C2160020DF
:101C2000C41E0020B4010020C4160020CE160020DF
:101C3000C6160020A816002010B509F099F9104822
:101C40000078022808D10F49802009F07EF90EA102
:101C5000902009F07AF90BE009480078012807D1B3
:101C60000F49802009F071F907A1902009F06DF962
:101C70004FF47A7009F040FAFFF74CFA10BD0000FB
:101C8000BA160020E62F0108202020202020202046
:101C900020202020202020202020202000000000C4
:101CA000F92F010810B509F063F9114800780228EE
:101CB00008D11049802009F048F90FA1902009F0BF
:101CC00044F90BE00A480078012807D11049802028
:101CD00009F03BF908A1902009F037F94FF47A7028
:101CE00009F00AFA08200B490870FFF713FA10BD33
:101CF000BA160020E62F01082020202020202020D6
:101D00002020202020202020202020200000000053
:101D1000F92F0108D316002037B50D461446684642
:101D200006F01CFE00B93EBD012C14D10020704904
:101D300008709DF800003030C1B26D48027800781C
:101D4000401C6B4B18706B488154002069491A463F
:101D50001278885417E066480078A04213DA664883
:101D6000007880B99DF800003030C1B26048027838
:101D70000078401C5E4B18705E48815400205D491D
:101D80001A46127888545A480078A04202D101209D
:101D900059490870594800781E282FD057480078B4
:101DA0001F282BD055480078202827D0534800788A
:101DB000212823D05148007850281FD04F48007860
:101DC0002E281BD04D4800780B2817D04B480078A0
:101DD0002F2813D04948007830280FD04748007882
:101DE00031280BD0454800780C2807D043480078AC
:101DF0000D2803D0414800780E2803D13D4805F056
:101E000043FE73E03D4800781D286AD03B480078C7
:101E1000272866D0394800781B2862D037480078D8
:101E200040285ED03548007843285AD0334800789F
:101E3000442856D031480078462852D02F480078A0
:101E400045284ED02D4800782A284AD02B480078C3
:101E50002B2846D0294800780A2842D02748007805
:101E600019283ED02548007869283AD023480078C0
:101E70006A2836D0214800786B2832D01F48007875
:101E80006C282ED01D4800786E282AD01B48007878
:101E90006F2826D019480078702822D0174800787B
:101EA00071281ED01548007872281AD0134800787F
:101EB000732816D011480078742812D00F48007883
:101EC00075280ED00D48007868280AD00B48007895
:101ED000642806D009480078632802D002F0A4FEE6
:101EE00020B103480178034804F0E0FB00BF1AE783
:101EF0003D000020041C00203C000020D3160020E0
:101F000000B5FFB03D480078401C3C4908700846C9
:101F100000783C2825D10020087039480078401C02
:101F200037490870084600783C281AD1002008700C
:101F300034480078401C3349087008460078182857
:101F40000FD10020087030480078401C2E490870DE
:101F500008460078642190FBF1F201FB12002A4947
:101F600008702A480078012813D185212648007876
:101F700001F0A4FB90212348007801F09FFB9221FF
:101F80001F48007801F09AFB94211C48007801F06A
:101F900095FB1E48007810B101282BD100E000BF4E
:101FA0001B48007858B11BA002F074F91FA002F082
:101FB00071F920A002F06EF90020154908701BA0ED
:101FC00002F068F90D4800780D490978CDE9001054
:101FD0000C4803780C4802781DA102A808F0D0FD37
:101FE00002A802F057F925A002F054F9142009F0D4
:101FF00083F800E000BF00BF7FB000BD5E0000209E
:102000005D0000205C0000205B000020D316002053
:102010005A00002043424F4628302C37302C3232B1
:10202000302C3134372C352C38293B00534243288F
:1020300038293B004453313628362C37352C27BFFE
:10204000AABBFACAB1BCE43A272C30293B000000F5
:10205000445331362834362C3130302C2725303259
:1020600064C8D525303264CAB125303264B7D6256C
:10207000303264C3EB272C30293B00000D0A0000EE
:1020800010B51C480078222803D01A4800783A2856
:1020900011D119480078012805DD17480078401E45
:1020A0001549087002E004201349087011480078AF
:1020B00004F0AEFD1DE00F48007800EB400101EB9D
:1020C000C0000E4901EB8000007E0A490978884271
:1020D0000FD00848007800EB400101EBC000074931
:1020E00001EB8000007E0349087008460078FEF787
:1020F000B1FF10BDD3160020CB160020B401002084
:1021000011B59BB0002001901BA806F027FC08B970
:102110001CB010BDBE48C069042848DABC4800683D
:102120004FF47A7190FBF1F0C0B28DF80400B8481A
:102130000068642190FBF1F00A2190FBF1F201FBB1
:102140001200C0B28DF80500B148006890FBF1F0B4
:1021500090FBF1F201FB1200C0B28DF80600AC4812
:10216000006890FBF1F201FB1200C0B28DF807008D
:102170009DF86C00A649C96901AA50549DF8040055
:102180004FF47A7148439DF8051001EBC10202EB50
:10219000011100EB81009DF8061001EB810100EBBD
:1021A00041009DF8071008449949086062E098488A
:1021B000C06906282FDA964840680A2190FBF1F0A2
:1021C000C0B28DF804009248406890FBF1F201FB28
:1021D0001200C0B28DF805009DF86C108C48C069E3
:1021E000001F01AA11549DF805009DF8041001EB91
:1021F000810100EB410086494860084640680C2890
:1022000002DD0C20486035E08148406858BB012061
:102210007F4948602EE07E4880680A2190FBF1F0FB
:10222000C0B28DF804007A48806890FBF1F201FB9F
:102230001200C0B28DF805009DF86C107448C0699A
:10224000801F01AA11549DF805009DF8041001EBB0
:10225000810100EB41006E498860084680681F28B4
:1022600002DD1F20886005E06948806810B9012000
:10227000674988606649C969481CC11700EB5171FC
:10228000C910A0EBC101624AD16162A002F002F85C
:102290005F48806800905E48436860A1026802A8B9
:1022A00008F06EFC02A801F0F5FF5948C06901284A
:1022B00015D162A001F0EEFF55480068642190FB43
:1022C000F1F00A2190FBF1F201FB120422465DA11C
:1022D00002A808F055FC02A801F0DCFF87E04C489A
:1022E000C069022815D155A001F0D4FF4848006804
:1022F0000A2190FBF1F0642190FBF1F201FB120442
:10230000224656A102A808F03BFC02A801F0C2FF39
:102310006DE03F48C069032812D148A001F0BAFF20
:102320003B4800680A2190FBF1F201FB12042246AF
:1023300050A102A808F024FC02A801F0ABFF56E06F
:102340003348C069042810D13CA001F0A3FF3048F5
:1023500040680A2190FBF1F422464CA102A808F043
:102360000FFC02A801F096FF41E02948C06905284A
:1023700012D132A001F08EFF254840680A2190FB5F
:10238000F1F201FB1204224646A102A808F0F8FB74
:1023900002A801F07FFF2AE01D48C069062810D17D
:1023A00026A001F077FF1A4880680A2190FBF1F41B
:1023B000224642A102A808F0E3FB02A801F06AFF4E
:1023C00015E01348C069072811D11CA001F062FF75
:1023D0000F4880680A2190FBF1F201FB12042246AB
:1023E0003CA102A808F0CCFB02A801F053FF3FA0DB
:1023F00001F050FF9DF86C203EA102A808F0C0FB40
:1024000002A801F047FF41A001F044FF00BF7FE6B2
:10241000F41D00205342432835293B0044533136F4
:102420002839302C36322C27253034642D25303293
:10243000642D25303264272C30293B005342432839
:1024400036293B00445331362839382C36322C2774
:102450002564272C30293B0D0A00000044533136F7
:10246000283130362C36322C272564272C30293B56
:102470000D0A000044533136283131342C36322CC9
:10248000272564272C30293B0D0A000044533136A0
:10249000283133302C36322C272564272C30293B29
:1024A0000D0A000044533136283133382C36322C93
:1024B000272564272C30293B0D0A00004453313670
:1024C000283135342C36322C272564272C30293BF3
:1024D0000D0A000044533136283136322C36322C66
:1024E000272564272C30293B0D0A0000534243283E
:1024F00037293B0044533136283133372C313439B6
:102500002C272564272C30293B0000005342432808
:1025100035293B0D0A00000011B59BB00020019049
:102520001BA806F01BFA08B91CB010BD8B48C06987
:10253000022827DA894800690A2190FBF1F0C0B22D
:102540008DF804008548006990FBF1F201FB120050
:10255000C0B28DF805009DF86C008049C96901AAD8
:1025600050549DF805009DF8041001EB810100EB2B
:1025700041007A49086108460069172857DD17208D
:10258000086154E07548C069042828DA7348406936
:102590000A2190FBF1F0C0B28DF804006F48406949
:1025A00090FBF1F201FB1200C0B28DF805009DF81E
:1025B0006C106A48C069801E01AA11549DF805007C
:1025C0009DF8041001EB810100EB41006349486173
:1025D000084640693B282ADD3B20486127E05F48E8
:1025E00080690A2190FBF1F0C0B28DF804005B48CD
:1025F000806990FBF1F201FB1200C0B28DF805007A
:102600009DF86C105548C069001F01AA11549DF82F
:1026100005009DF8041001EB810100EB41004F49DA
:102620008861084680693B2801DD3B2088614B4872
:10263000C069401C062190FBF1F201FB12004749E2
:10264000C86147A001F026FE4448806900904348D5
:10265000436945A1026902A808F092FA02A801F0B4
:1026600019FE3E48C069012810D147A001F012FEB2
:102670003A4800690A2190FBF1F4224644A102A8DD
:1026800008F07EFA02A801F005FE56E03348C06962
:10269000022810D13CA001F0FDFD304840690A211C
:1026A00090FBF1F4224640A102A808F069FA02A8C2
:1026B00001F0F0FD41E02948C069032812D132A0A1
:1026C00001F0E8FD254840690A2190FBF1F201FB89
:1026D000120422463AA102A808F052FA02A801F018
:1026E000D9FD2AE01D48C069042810D126A001F0B8
:1026F000D1FD1A4880690A2190FBF1F4224636A1E7
:1027000002A808F03DFA02A801F0C4FD15E0134844
:10271000C069052811D11CA001F0BCFD0F488069DB
:102720000A2190FBF1F201FB1204224630A102A81B
:1027300008F026FA02A801F0ADFD33A001F0AAFDD1
:102740009DF86C2032A102A808F01AFA02A801F044
:10275000A1FD35A001F09EFD00BFE5E6F41D0020BF
:102760005342432835293B00445331362839302C15
:1027700039332C27253032643A253032643A2530FB
:102780003264272C30293B005342432836293B0032
:10279000445331362839382C39332C272564272CDB
:1027A00030293B0D0A0000004453313628313134C2
:1027B0002C39332C272564272C30293B0D0A0000A7
:1027C00044533136283132322C39332C27256427B3
:1027D0002C30293B0D0A0000445331362831333860
:1027E0002C39332C272564272C30293B0D0A000077
:1027F00044533136283134362C39332C272564277D
:102800002C30293B0D0A00005342432837293B0056
:1028100044533136283133372C3134392C27256451
:10282000272C30293B0000005342432835293B0D1B
:102830000A00000001B59AB01AA806F08FF808B98E
:102840001BB000BD22A001F025FD9DF868002249C3
:10285000C8609DF86800072801D10020C8601E48A4
:10286000C068072821D2DFE800F004080C10141813
:102870001C001AA001F00EFD17E01EA001F00AFDD9
:1028800013E022A001F006FD0FE026A001F002FDFA
:102890000BE02AA001F0FEFC07E02EA001F0FAFCFC
:1028A00003E032A001F0F6FC00BF00BF35A001F04C
:1028B000F1FC9DF8682035A101A808F061F901A894
:1028C00001F0E8FC37A001F0E5FC00BFB8E700002C
:1028D0005342432836293B00F41D0020445331362F
:1028E0002839302C3132352C27D6DCC8D5272C306E
:1028F000293B0000445331362839302C3132352CF5
:1029000027D6DCD2BB272C30293B0000445331367C
:102910002839302C3132352C27D6DCB6FE272C3026
:10292000293B0000445331362839302C3132352CC4
:1029300027D6DCC8FD272C30293B00004453313614
:102940002839302C3132352C27D6DCCBC4272C301B
:10295000293B0000445331362839302C3132352C94
:1029600027D6DCCEE5272C30293B000044533136F6
:102970002839302C3132352C27D6DCC1F9272C30C0
:10298000293B00005342432837293B00445331364A
:10299000283133372C3134392C272564272C302922
:1029A0003B0000005342432835293B0D0A0000003C
:1029B000704700002DE9F04106460C4617463F4897
:1029C000007810B90020BDE8F0813C4801783C480F
:1029D00008F0A4FA85B201F0ADFE402C6BD1352D84
:1029E0004ED00EDC322D3FD006DC022D1AD0032D46
:1029F0001CD0042D5CD11DE0332D39D0342D57D19E
:102A00003AE0472D4CD006DC362D3DD0372D3FD057
:102A1000462D4DD140E0482D46D0A5F5F8509038D0
:102A200046D11DE05020FEF715FB43E05220FEF793
:102A300011FB3FE002202349087023480068234926
:102A4000884203D26020FEF705FB08E004202049FD
:102A5000087008F08DFA1F49802008F076FA29E006
:102A60004120FEF7F7FA25E07320FEF7F3FA21E0A4
:102A70006E20FEF7EFFA1DE06F20FEF7EBFA19E08B
:102A80007020FEF7E7FA15E07120FEF7E3FA11E097
:102A90007220FEF7DFFA0DE06420FEF7DBFA09E0B2
:102AA0006320FEF7D7FA05E06820FEF7D3FA01E0CD
:102AB000012088E700BF002085E700003D000020DE
:102AC000041C00206A1600206416002040420F00FB
:102AD0004A000020AF32010810B5002114480078E8
:102AE000401E00EBC000134A02EB4000C1811048B9
:102AF0000078401E00EBC0000F4A02EB4000C1818D
:102B00000B480078401E0D4A1154094A1278521E93
:102B10000A4B995C064A1278521EB92303EB420015
:102B200007F0AAFF02480078FDF75EFF10BD000025
:102B3000C216002068200020CE1E0020C41E0020E7
:102B40002DE9F0478EB081460F46924600264FF0A1
:102B50008808F5480078002878D1A7F10B002F28C5
:102B600075D2DFE800F0272D4965939495969798E4
:102B7000999AAAAAAAAAAAAAAA9C9D9E9FAAAAAA08
:102B8000AAAAAAAAAA181FAAAA262C48648B8C8DC6
:102B90008E8F909192000020E449087001200EB0C1
:102BA000BDE8F0870020E249087005F0CDFB012068
:102BB000F5E700BF0220DF4908800120EFE700BFF2
:102BC0000220DD49087008460078012806D102205D
:102BD000DA4908800120DA49088005E00120D74958
:102BE00008800220D64908800020D6490880D649AE
:102BF00008800120D3E700BF0220CF4908700846B3
:102C00000078012806D10320CC4908800120CC4956
:102C1000088005E00120C94908800320C8490880D0
:102C20000020C8490880C84908800120B7E700BFD4
:102C30000220C149087008460078012808D1042004
:102C4000BE4908800120BE49088010E039E034E028
:102C5000B9480078022804D1B8490880B8490880EA
:102C600005E00120B54908800420B549088000200E
:102C7000B4490880B4490880012090E700BF00BF34
:102C800000BF00BF00BF00BF00BF00BF00BF00BF4C
:102C900000BF00BF00BF00BF00BF01207FE700BF33
:102CA00000BF00BFA9480078012804D1A8480078D7
:102CB000012800D173E7012071E700BF00BF0020A9
:102CC0006DE799480178A34808F028F984B2302FBD
:102CD0007ED02BDCA7F10A0026287AD2DFE810F09C
:102CE000FD020E011E01B601DC01120213021402E4
:102CF0001502160217021802190279007900FE0265
:102D000079005B02790048026A027C028F02A0020D
:102D1000790079007900790079005A027900790008
:102D2000F000FE00790079000F011F01692F2ED0FD
:102D30001BDCA7F131001628CFD2DFE810F0AE017E
:102D40004A00DC01DD01DE01DF01E001E101E20119
:102D50004A004A004A004A004A004A004A004A0023
:102D60004A00C9029B028302B102A7F16A000C2843
:102D7000B3D2DFE810F03E00730095002E00C302CE
:102D8000C402C502C602C702C802E903EC033C2C18
:102D900001DC0A2C06DA01F0CDFC6FA001F07AFA12
:102DA0000020FCE673490C7008460178CD2007F03E
:102DB00063FE71480078012818D106F061F86D496A
:102DC0000978C1EB011100EB8105280E6B4901E088
:102DD0003DE100E20870280C4870280A8870CD7028
:102DE0000522D3200AF06FFE6548056001F0A2FCC1
:102DF000DBE3182C01DC012C06DA01F09BFC56A069
:102E000001F048FA0020CAE65A490C7008460178D9
:102E1000D12007F031FE5B48007801281BD15648CD
:102E20000078C0B906F02CF857490978C1EB0111B8
:102E30008900C1EB011100EB8105280E4F49087094
:102E4000280C4870280A8870CD700522D3200AF01B
:102E50003AFE4B48056001F06DFCA6E3324800786D
:102E600078B13148007849490870002605E03948B2
:102E7000805D47498855701CC6B244480078864238
:102E8000F5DD42480178D82007F0F6FD3F4802788A
:102E9000921C3F49DA200AF016FE01F04BFC84E355
:102EA000FDF756FC30B901F045FC3AA001F0F2F90B
:102EB000002074E600203E49087001F03BFC74E3FA
:102EC000042C06DD01F036FC3AA001F0E3F9002005
:102ED00065E616490C7001F02DFC66E3042C06DD56
:102EE00001F028FC3AA001F0D5F9002057E610497E
:102EF0000C7001F01FFC05F027FA56E300BF0CB17F
:102F0000042C06DD39A001F0C5F901F013FC002006
:102F100045E60848048001F00DFC46E300BF0CB113
:102F2000022C78DD70E076E03D0000206A1700207A
:102F30006B170020C8160020CA160020C4160020F7
:102F4000C6160020CC160020CE160020C116002088
:102F5000C0160020041C002043424F462831303464
:102F60002C38322C3133302C39392C312C37293B49
:102F70000D0A00007F1600207E1600208216002019
:102F8000881600208016002081160020861600205A
:102F9000631C002043424F46283130352C37302CFB
:102FA0003138352C38362C312C37293B0D0A0000AE
:102FB000D316002043424F462836362C36362C395D
:102FC000342C38392C332C3135293B0D0A000000C4
:102FD00043424F46283132362C36362C3135342C8C
:102FE00038392C332C3135293B0D0A0043424F46EA
:102FF000283134362C36392C3138342C38372C33B0
:103000002C3135293B0D0A00F5A001F043F901F000
:1030100091FB0020C3E5FA490C70084600780128AE
:1030200006D10220F74908800120F749088005E011
:103030000120F44908800220F34908800020F34968
:103040000880F349088001F075FBAEE200BF0CB1C7
:10305000022C06DDE2A001F01DF901F06BFB00205F
:103060009DE5E7490C7008460078012806D1032049
:10307000E44908800120E449088005E00120E14995
:1030800008800320E04908800020E0490880E049EA
:10309000088001F04FFB88E200BF0CB1032C06DD75
:1030A000CFA001F0F7F801F045FB002077E5D44907
:1030B0000C7008460078012806D10420D149088008
:1030C0000120D14908800EE0CD480078022804D1C3
:1030D000CC490880CC49088005E00120C949088016
:1030E0000420C94908800020C8490880C8490880D0
:1030F00001F020FB59E200BF00BF00BF00BF00BFCE
:1031000000BF00BF00BF00BF00BF00BF00BF00BFC7
:1031100000BFBE480088BB490988884213DC14B14F
:10312000B4F5876F06DDBBA001F0B4F801F002FB37
:10313000002034E5B5480088401EBE4921F8104003
:1031400001F0F8FA13E014B1B4F5F06F06DDB1A0A8
:1031500001F0A0F801F0EEFA002020E5AC4800886C
:10316000401EB449103921F8104001F0E3FA1CE286
:10317000082C00DC34B901F0DDFAAFA001F08AF8C8
:1031800000200CE5B3490C700120B349087001F030
:10319000D1FA0AE200BF092C00DC34B901F0CAFA06
:1031A000AEA001F077F80020F9E4B3490C7001F00B
:1031B000C1FAFAE1B1480088844208DDFDF786F9DA
:1031C00001F0B8FAAE4801F065F80020E7E4AD4838
:1031D000048001F0AFFAE8E1AB480088844209DDE1
:1031E000FDF774F901F0A6FAA548683001F052F82D
:1031F0000020D4E4A348448001F09CFAD5E19F4824
:103200000088844207DD01F095FA9D48D03001F036
:1032100041F80020C3E49B48848001F08BFAC4E1AC
:1032200099480088844208DDFDF750F901F082FAE0
:10323000964801F02FF80020B1E49248C48001F0D4
:1032400079FAB2E19248007878B1914800789149D2
:103250000870002605E09048805D90498855701CF4
:10326000C6B28C4800788642F5DD07F029FB01F0F4
:1032700061FA9AE18648007878B1854800788849F3
:103280000870002605E08448805D86498855701CDA
:10329000C6B2854800788642F5DD01F04BFA84E13C
:1032A0007B48007878B17A4800787D49087000261C
:1032B00005E07948805D7B498855701CC6B27A4824
:1032C00000788642F5DD01F061FC01F033FA6CE133
:1032D00076490C7001F02EFA67E100BFA82C05D1E9
:1032E00000207349087001F025FA5EE101F022FA2E
:1032F00066486C3000F0CEFF002050E400BF00BFF5
:1033000000BF00BF00BFFDF701FA38B901F012FAA3
:103310005E48CC3000F0BEFF002040E465480078F5
:103320006E2841D16448007848B100206249087095
:10333000624800F0AFFF142007F0DEFE2EE001200F
:103340005D4908705D48883000F0A4FF5C48027851
:103350005CA101A807F014FC01A800F09BFF142059
:1033600007F0CAFE60480078C0B905F089FD5449ED
:103370000978C1EB01118900C1EB011100EB810556
:10338000280E5A490870280C4870280A8870CD7099
:103390000522D3200AF097FB55480560464801787E
:1033A000CF2007F069FBCEE0424800786F2816D1A5
:1033B0004D48007848B100204B4908704D4800F056
:1033C00069FF142007F098FEB8E001204649087014
:1033D0004848883000F05EFF474802788EE0B2E04F
:1033E00043424F46283137312C3134362C31393471
:1033F0002C3136392C312C3135293B0D0A00000097
:10340000CA160020C4160020C6160020CC160020C4
:10341000CE16002043424F46283133312C3132360C
:103420002C3230342C3134392C312C3135293B0DB0
:103430000A000000741E002043424F4628313436F3
:103440002C38312C3138342C39392C332C31352966
:103450003B0D0A00C0160020C116002043424F4613
:10346000283133312C38312C3135392C39392C3342
:103470002C3135293B0D0A00C21600200C17002004
:10348000801E0108562000200E170020B81F0108DA
:103490003D0000206C160020041C00203C1C002075
:1034A0006E160020701600206B1600206F1600208C
:1034B000C3160020D316002080160020E420010847
:1034C00081160020445331362835322C3130332CCC
:1034D00027B5A5B4CECAB1B3A4253264D0A1CAB170
:1034E000272C30293B0D0A007E1600208216002072
:1034F00088160020F42101087F1600202DA101A8C4
:1035000007F03EFB01A800F0C5FE142007F0F4FD13
:1035100005F0B6FC30490978C1EB011100EB8105DB
:10352000280E2E490870280C4870280A8870CD7023
:103530000522D3200AF0C7FA2948056029480178F6
:10354000CB2007F099FA30E0274804602DE02648A8
:103550000068A04220D1254804600068000E24497C
:10356000087022480068000C487020480088000A53
:1035700088701E480078C8700522E7200AF0A3FA78
:103580001A4804601B4800F085FE142007F0B4FDC3
:1035900040201949087007E001F0CCF81548883040
:1035A00000F078FE00202EE400BF00BF01F082F89A
:1035B000012028E4445331362835322C3130332C65
:1035C00027D1DDCABECAB1B3A4253264B7D6D6D3DB
:1035D000272C30293B0D0A007F1600208216002080
:1035E000881600207E1600209C16002098160020C9
:1035F0008C16002004230108D31600202DE9FC4777
:103600000446884600254FF47A7094FBF0F00A21B6
:1036100090FBF1F201FB1200C6B2642094FBF0F0C3
:1036200090FBF1F201FB1200C7B20A2094FBF0F00C
:1036300090FBF1F201FB120000F0FF090A2094FB5D
:10364000F0F100FB114000F0FF0A36B106F1300046
:10365000C2B229466D1C0DF8012007B936B107F139
:103660003000C2B229466D1C0DF80120B9F1000FDF
:1036700001D107B936B109F13000C2B229466D1C3B
:103680000DF801200A2094FBF0F100FB11403030CE
:10369000C2B229466D1C0DF8012000200DF805006E
:1036A00004A1404607F051FC6946404607F04DFC36
:1036B000BDE8FC8720202020000000002DE9F84311
:1036C00004460E4600250A2094FBF0F00A2190FBE8
:1036D000F1F201FB1200C7B20A2094FBF0F100FBEB
:1036E000114000F0FF080FB9202001E007F1300081
:1036F000C2B229466D1C0DF8012008F13000C2B29B
:1037000029466D1C0DF8012000200DF805006946C2
:10371000304607F01AFCBDE8F883000010B52B48CE
:10372000008884B22AA1962007F00FFC962120463B
:10373000FFF7C4FF2548808884B294212046FFF714
:10374000BDFF2248008984B292212046FFF7B6FFD0
:103750001E48008B84B21F480078022804D1E0B2D2
:10376000992100F055F82FE01A48007801282BD154
:10377000072C28D2DFE804F004090E13181D2200DC
:1037800015A1982007F0E1FB1DE015A1982007F096
:10379000DCFB18E014A1982007F0D7FB13E014A17C
:1037A000982007F0D2FB0EE013A1982007F0CDFB84
:1037B00009E013A1982007F0C8FB04E012A19820AB
:1037C00007F0C3FB00BF00BF10BD0000201C00209D
:1037D00020200000BA16002053756E2E0000000055
:1037E0004D6F6E2E000000005475657300000000E0
:1037F0005765642E000000005468757200000000D8
:103800004672692E000000005361742E0000000013
:1038100038B504460D4600200090072C36D2DFE86C
:1038200004F0040B121920272E00C8208DF8000088
:10383000D5208DF8010029E0D2208DF80000BB20B2
:103840008DF8010022E0B6208DF80000FE208DF8F2
:1038500001001BE0C8208DF80000FD208DF801005C
:1038600014E0CB208DF80000C4208DF801000DE09D
:10387000CE208DF80000E5208DF8010006E0C12083
:103880008DF80000F9208DF8010000BF00BF6946E7
:10389000284607F05AFB38BD10B50E48808A84B21E
:1038A0000D48048083212046FFF7A8FE0948008ABE
:1038B00084B20948448086212046FFF7FFFE054870
:1038C000808984B20448848088212046FFF7F6FE70
:1038D00010BD0000201C0020C200002010B50120F7
:1038E00000F0ACF800B3002406E06FF00C000F49C4
:1038F00008600F490860641C0E488442F5DD00240E
:1039000006E04FF0FF300A49086008490860641C6F
:1039100009488442F5DD002403E0012000F088F826
:10392000641C06488442F8DD10BD00000C0C014008
:103930000C08014000127A0080841E0040420F00F3
:1039400010B54FF40061244800F084FC00283DD1FC
:103950002248007898B322480088642806DD204871
:103960000088962802DA00201E4908701C4800884A
:10397000B0F5487F07DA1A4800881B49194A1278BF
:1039800021F8120004E019480078401C174908701B
:1039900000201349088013480078401C1149087022
:1039A00008460078212811D1012011490870002013
:1039B0000C4908700D4908700849087006E0FFE7D7
:1039C0000020074908800120044908704FF4006076
:1039D00000F02EF810BD000000080140ED16002098
:1039E000E6160020EE160020B01D0020E91600208B
:1039F000E816002010B5642007F07EFB022107487E
:103A000000F028FC28B906480078022801D1FDF70B
:103A1000D7FD022000F00CF810BD0000001401409A
:103A2000BB16002010B5642007F066FB10BD000037
:103A3000014908607047000014040140014600205D
:103A40000022074B1B6803EA0102054B14331B6875
:103A50000B4202D00AB1012000E0002070470000B4
:103A600000040140002123498279002A3AD00A4605
:103A7000126803689A430B461A600A1D12680368AD
:103A80009A430B1D1A60027911440A6803681A43AD
:103A90000A60184A0832126803689A43154B0833C3
:103AA0001A601A1D126803689A43124B0C331A608D
:103AB0004279102A0ED11A1F126803681A430D4B5F
:103AC00008331A601A1D126803681A43094B0C3335
:103AD0001A600DE00749427911440A6803681A43E5
:103AE0000A6005E0027911440A6803689A430A6093
:103AF00070470000000401401FB50121212005F09E
:103B00008DF80220ADF80C0048208DF80F0003A9B5
:103B1000114800F0CDFA0121032000F0A9FA02209B
:103B2000019000208DF808000C208DF8090001207C
:103B30008DF80A0001A8FFF795FF07208DF8000017
:103B400003208DF801008DF8020001208DF803009C
:103B5000684604F0B5FE1FBD001401400EB50121FA
:103B6000112005F05BF80C21022000F081FA4FF4DF
:103B70008050019000208DF808000C208DF809007D
:103B800001208DF80A0001A8FFF76CFF28208DF8AE
:103B9000000002208DF8010001208DF802008DF850
:103BA0000300684604F08CFE0EBD00000149C860A9
:103BB000704700000020024070B5054640F6FF76D1
:103BC000304600F055F8042813D10A4C206940F023
:103BD000020020616561206940F0400020613046AC
:103BE00000F046F8012804D0216941F6FD72114029
:103BF000216170BD0020024008490420CA68D20734
:103C000001D001207047CA68520701D502207047D1
:103C1000C968C906FBD50320704700000020024098
:103C200070B506460D460F2000F022F804280FD18B
:103C3000084C206940F00100206135800F2000F021
:103C400017F8012804D0216941F6FE721140216164
:103C500070BD000000200240034802494160034952
:103C6000416070472301674500200240AB89EFCDDA
:103C700000B50346FFF7C0FF05E0FF20401EFDD161
:103C8000FFF7BAFF5B1E012802D1002BF5D101E03E
:103C9000002B00D1052000BD10B509496B2005F0AF
:103CA0000FFA0748007850B90120054908702D2007
:103CB000FDF7D0F9024801786B2006F0DDFE10BD5B
:103CC0004F16002070B504460D46042006490870C2
:103CD000FFF7C2FF3520FFF769FF2046FFF76CFFB3
:103CE0000149087070BD0000E400002010B586B0E6
:103CF000002000220E4909E011F8013B0DF80030C8
:103D00000346401C1DF803301344DAB2084B153348
:103D10009942F1D30B78934208D1002004E01DF8BA
:103D20000030044C2354401C1528F8DB06B010BDAD
:103D300000F403086000002070B586B00024002560
:103D4000002617491748FFF7BDFF00BF08E01648D7
:103D5000005D0DF804001448005D3044C6B2641CD8
:103D6000152CF4DB8DF815600E4D00240DE01DF8C8
:103D70000420601C1DF8000042EA00212846FFF7DD
:103D80004FFF0A490870AD1CA41C06481630854236
:103D900003D2064800780428E9D006B070BD0000C0
:103DA00000F8030800F4030860000020E40000208D
:103DB00008B50121084604F031FF01214FF4C0206D
:103DC00004F01CFF012144F27C0004F027FF0121D4
:103DD000A04800F0F7F901219F4800F0F3F9C02056
:103DE000ADF8000010208DF8030003208DF80200CC
:103DF00069469A4800F05CF90120ADF800001020F7
:103E00008DF8030003208DF802006946944800F005
:103E10004FF94FF40070ADF8000010208DF803004A
:103E200003208DF8020069468C4800F041F9022019
:103E3000ADF8000048208DF803006946884800F07E
:103E400037F90420ADF8000010208DF8030003209E
:103E50008DF802006946824800F02AF90820ADF882
:103E6000000010208DF8030003208DF80200694641
:103E70007B4800F01DF948F21000ADF8000010205A
:103E80008DF8030003208DF802006946744800F0A5
:103E90000FF94FF40050ADF8000010208DF803002A
:103EA00003208DF8020069466C4800F001F94FF4D8
:103EB0000040ADF8000010208DF8030003208DF8BD
:103EC00002006946654800F0F3F84FF48040ADF811
:103ED000000010208DF8030003208DF802006946D1
:103EE0005E4800F0E5F84FF48070ADF80000102057
:103EF0008DF8030003208DF802006946574800F052
:103F0000D7F80920ADF8000048208DF80300694675
:103F1000544800F0CDF84FF4C060ADF80000102018
:103F20008DF8030003208DF8020069464E4800F02A
:103F3000BFF80220ADF8000010208DF80300032028
:103F40008DF802006946454800F0B2F88020ADF8CF
:103F5000000010208DF8030003208DF80200694650
:103F6000414800F0A5F880213F4800F07EF94FF469
:103F70008070ADF8000010208DF8030003208DF84C
:103F800002006946384800F093F84FF40170ADF82C
:103F9000000003208DF8020018208DF80300694608
:103FA000324800F085F84FF48160ADF8000004203D
:103FB0008DF8030069462D4800F07AF84FF48070C0
:103FC000ADF8000003208DF8020018208DF80300E2
:103FD0006946244800F06CF84FF40070ADF800001A
:103FE00004208DF8030069461E4800F061F84FF484
:103FF0008060ADF8000018208DF8030003208DF8D4
:1040000002006946184800F053F84FF40060ADF81C
:10401000000004208DF803006946134800F048F8BA
:104020004FF48050ADF8000018208DF803000320F5
:104030008DF8020069460C4800F03AF80420ADF80B
:1040400000008DF803006946064800F031F8FFF7DC
:1040500085FD08BD0002300030001400000C014056
:104060000018014000140140001001400008014008
:1040700030B500228B071C0F0F2303FA04F20B4B01
:104080008C1053F824309343084C8D1044F825309D
:1040900023468C1053F824308C07240F00FA04F4C4
:1040A0002343024C8D1044F8253030BD08000140F8
:1040B0002DE9F041024600250026002000230024BF
:1040C000002791F803C00CF00F0591F803C01CF015
:1040D000100F03D091F802C04CEA050591F800C01A
:1040E000BCF1000F31D0146800202BE04FF0010C20
:1040F0000CFA00F3B1F800C00CEA03069E4220D18E
:1041000083004FF00F0C0CFA03F7BC4305FA03FCD5
:104110004CEA040491F803C0BCF1280F06D14FF01B
:10412000010C0CFA00FCC2F814C00AE091F803C0BC
:10413000BCF1480F05D14FF0010C0CFA00FCC2F89D
:1041400010C0401C0828D1D31460B1F800C0BCF1E5
:10415000FF0F34DD546800202EE000F1080C4FF012
:10416000010808FA0CF3B1F800C00CEA03069E42FD
:1041700021D183004FF00F0C0CFA03F7BC4305FA72
:1041800003FC4CEA040491F803C0BCF1280F05D1EC
:1041900000F1080C08FA0CF8C2F8148091F803C07A
:1041A000BCF1480F07D100F1080C4FF0010808FAE4
:1041B0000CF8C2F81080401C0828CED35460BDE82B
:1041C000F0810000F0B50A460023002400210025FC
:1041D00000F00046B6F1004F02D11D4EF16901E03A
:1041E0001B4E7168C0F3034583B200F44016B6F568
:1041F000401F08D121F07061154E766826F0706678
:10420000134F7E6012E000F48016B6F5801F06D1D1
:10421000032606FA05F4A14341F0706106E0460D5D
:10422000360103FA06F6B14341F0706122B1460D42
:10423000360103FA06F6314300F00046B6F1004FAE
:1042400002D1034EF16101E0014E7160F0BD00004A
:10425000000001400246002093680B4201D001207B
:1042600000E0002070474161704701617047000025
:1042700010B502491D2004F023FF10BD691600206F
:10428000024800680249086070470000E8F7FF1F15
:10429000AC16002070B50446002510E0605D68B1E2
:1042A000615D074806F09BFA00BF8021044806F0D4
:1042B000C9F90028F9D0681CC5B200E070BDEDE76F
:1042C00000480040F0B58DB004463022224901A8D4
:1042D000FBF74AFF6069451E642195FBF1F1284612
:1042E000EA1705EB9272C1EBA2014FF4C87295FB7D
:1042F000F2F28F186069C11700EB91718910B0EB71
:10430000810112D16422616991FBF2F302FB131166
:1043100031B99200616991FBF2F302FB131121B9EB
:104320002169022901DD012600E0002640F26D101E
:1043300005FB00712069401E01AA52F820000844C4
:10434000E16808440644072096FBF0F100FB116089
:10435000A0610DB0F0BD0000081E010800BFFEE71F
:1043600010B580210A48FFF77EFF012004F056FABD
:1043700040210748FFF779FF012004F04FFA402160
:104380000348FFF770FF012004F048FA10BD000059
:10439000000C014038B5002448208DF8030080202F
:1043A000ADF8000003208DF8020069461348FFF7BE
:1043B0007FFE002516E06006040E40210F48FFF73F
:1043C00054FF012004F02AFA80210C48FFF742FF35
:1043D000044340210948FFF746FF012004F01EFA7C
:1043E000681CC5B2082DE6DB10208DF80300694675
:1043F0000248FFF75DFE204638BD0000000C01407A
:1044000038B5002448208DF8030003208DF8020001
:104410008020ADF8000069461248FFF749FE4021B0
:104420001048FFF722FF42F2107508E080210D4886
:10443000FFF710FF012801D1002404E00124280027
:10444000A5F10105F2D100BF40210648FFF70BFF9F
:1044500010208DF8030069460248FFF729FE204628
:1044600038BD0000000C014010B580210C48FFF75A
:10447000FCFE012004F0D2F940210948FFF7F5FEC7
:10448000012004F0CBF980210548FFF7ECFE012064
:1044900004F0C4F940210248FFF7E5FE10BD00001A
:1044A000000C014010B580210C48FFF7DCFE012014
:1044B00004F0B4F940210948FFF7D7FE012004F0C9
:1044C000ADF980210548FFF7D0FE012004F0A6F9E0
:1044D00040210248FFF7C7FE10BD0000000C01405C
:1044E00070B50446002520E014F0800F04D0802130
:1044F0000F48FFF7BAFE03E080210D48FFF7B3FE37
:104500006006040E012004F089F940210848FFF7F5
:10451000ACFE012004F082F940210548FFF7A3FE1C
:10452000012004F07BF9681CC5B2082DDCDB70BDEE
:10453000000C014070B504460D461646FFF794FF87
:10454000A020FFF7CDFFFFF75BFF00B970BDC4F3FC
:104550000420FFF7C5FFFFF753FF00B9F6E7E0B20D
:10456000FFF7BEFFFFF74CFF00B9EFE7012004F0B3
:1045700055F907E02878FFF7B3FF6D1CFFF740FF00
:1045800000B9E3E73000A6F10101CEB2F2D1FFF7A6
:1045900089FF00BFDAE770B505460E46144604B938
:1045A00070BDFFF761FFA020FFF79AFFFFF728FF1C
:1045B00000B9F5E7C5F30420FFF792FFFFF720FFEE
:1045C00000B9EDE7E8B2FFF78BFFFFF719FF00B97D
:1045D000E6E7FFF749FFA120FFF782FFFFF710FF93
:1045E00000B9DDE709E0FFF7D5FE3070761C012C3D
:1045F00001D0FFF7B5FE601E84B2002CF3D1FFF7A7
:1046000051FF00BFCCE72DE9F04105460F461446A7
:104610002846E91705EBD1614911A5EB4111CEB24E
:10462000CEB1C6F12000C6B2642006F036FDB44219
:104630000ADB324639462846FFF77CFFA01B84B2CE
:10464000A81985B2374406E0E2B239462846FFF79A
:1046500071FFBDE8F08117E0642006F01EFD202CFC
:104660000CDB202239462846FFF764FFA4F1200026
:1046700084B205F1200085B2203705E0E2B2394668
:104680002846FFF757FF0024002CE5D100BFE0E7E4
:10469000002005E00549095C054A1154411CC8B2D7
:1046A0000628F7DB0021024A51717047E623010812
:1046B0006000002000B504F079F900200C49087072
:1046C0000C4908700C4908700C4908700C490870B6
:1046D0000C4908700C4908700C4908700C490870A6
:1046E0000C4908700C4908700C49087000BD0000A6
:1046F0003D0000203C0000203E0000203F00002044
:104700004000002041000020420000204300002023
:104710004400002045000020460000204700002003
:104720000020024908700249087070473D000020CF
:104730003C00002000B504F039F900200C49087055
:104740000C4908700C4908700C4908700C49087035
:104750000C4908700C4908700C4908700C49087025
:104760000C4908700C4908700C49087000BD000025
:104770003D0000203C0000203E0000203F000020C3
:1047800040000020410000204200002043000020A3
:104790004400002045000020460000204700002083
:1047A00070B50646D64800785F380A286FD2DFE831
:1047B00000F0BBF0EFEEED84052F59A8D14800784A
:1047C00028B3D0480178D04806F0A8FB0446B4F5D9
:1047D000803F08D3CDA1912006F0B7FBCD499820AA
:1047E00006F0B3FB0EE0CC490C80084601884C2053
:1047F00006F063F9C2480178C7480088FCF75EFA02
:1048000003F05EFD0020BF490870C449087074E1E0
:10481000BC48007828B3BB480178BB4806F07EFB53
:104820000446B4F5803F08D3B8A1912006F08DFB73
:10483000B849982006F089FB0EE0B9490C8008467B
:104840000188522006F039F9AD480178B448008853
:10485000FCF734FA03F034FD0020AA490870AF4990
:1048600008704AE1A748007830B3A6480178A64806
:1048700006F054FB0446B4F5803F09D3A3A1912070
:1048800006F063FBA349982006F05FFB0FE032E1DE
:10489000A4490C8008460188582006F00EF9984873
:1048A0000178A0480088FCF709FA03F009FD002010
:1048B00094490870994908701FE192480078F8B14E
:1048C00090480178904806F029FB0446B4F5803FF3
:1048D00008D38EA1912006F038FB8E49982006F06F
:1048E00034FB08E0A1B23A2006F0E7F8A0B2FCF7EA
:1048F0006FFA03F0E5FC00208249087087490870D0
:10490000FBE08048007870B17E48007858B17D485F
:1049100001787D48FCF736FB03F0D2FC0020794992
:1049200008707E490870E8E0FCF702F818B3002030
:104930007D4908604FF6FF707C490880FF20488061
:104940008880192006F0A3F806F012FB784800785A
:10495000022804D17749802006F0F7FA07E074486E
:104960000078012803D174A1802006F0EEFA05201A
:1049700006F084FB1AE006F0FBFA6D480078022886
:1049800008D17249802006F0E0FA0BE067E08CE085
:1049900050E011E066480078012803D16CA1802026
:1049A00006F0D3FA70A1912006F0CFFA0020554905
:1049B00008705A490870A0E052480078C8B35148BE
:1049C0000178514806F0AAFA68490968884214D16A
:1049D0006748007818B96120FCF73CFB24E0644884
:1049E0000078022820D104206249087006F0C0FA3D
:1049F0006149802006F0A9FA16E006F0B9FA4C48A1
:104A00000078022804D15149802006F09EFA07E080
:104A100047480078012803D14DA1802006F095FA7F
:104A200051A1912006F091FA0020364908703B49C7
:104A3000087062E03348007880B13248017832482B
:104A400006F06CFA49490860362006F045F803F094
:104A500037FC00202B490870304908704DE0294888
:104A6000007808B327480078444908700846017860
:104A70003D2006F001F8002504E02348405D404950
:104A800048556D1C3D4800788542F6DD3B4802786C
:104A9000921C3B493F2009F016F803F011FC00205E
:104AA000184908701D49087027E01648007808B3B7
:104AB000144800783349087008460178222005F030
:104AC000DBFF002504E01048405D2F4948556D1C70
:104AD0002C4800788542F6DD2A480278921C2A4943
:104AE000242008F0F0FF03F0EBFB002005490870DC
:104AF0000A49087001E0002070BD00BF0120FBE7FB
:104B0000D31600203D000020041C00205F20202040
:104B1000202000007F240108521600203C000020C5
:104B20005416002056160020A8160020CE000020A3
:104B3000BA1600201C3301085265676973747261EC
:104B400074696F6E204F4B2100000000253301086F
:104B5000526567697374726174696F6E206661690A
:104B60006C656421000000005F00000064160020F6
:104B70006A1600204A000020AF32010868160020A3
:104B80006B0000206B1600207800002000210D48EB
:104B900000780D4A1278904212D100BF09E00B480C
:104BA000405C0B4A525C904201D000207047481C88
:104BB000C1B2044800788142F1DB0820054A107038
:104BC0000120F3E76D1600206E16002077160020F6
:104BD00070160020D316002030B5002000240123D9
:104BE00000211AE0012211E00D4D35F81340122C7E
:104BF00002DD40F0010001E000F0FE00082A01DAC9
:104C00004506280E5D1CEBB2551CEAB2082AEBDD06
:104C1000044D685400204D1CE9B20429E2DB30BD8C
:104C2000B01D0020EF16002015480078322813D060
:104C300009DCA0F10F0008281FD2DFE800F01516EC
:104C40001718191A1B1C3338072816D2DFE800F092
:104C500005060708090A0B0000BF00BF00BF00BF20
:104C600000BF00BF00BF00BF00BF00BF00BF00BF4C
:104C700000BF00BF00BF012070470020FCE700001C
:104C8000D316002010B511480078E8B100200F4974
:104C900008704FF4FA7006F02FFAFFF79DFF0C48EA
:104CA00000780B494978C943C9B288420CD10848F9
:104CB000007848B9064880780549C978C943C9B21F
:104CC000884201D1012010BD0020FCE7E816002039
:104CD000EF1600200348007808B10120704700203B
:104CE000FCE700003D00002010B55E20164908706A
:104CF00006F03EF901201549087015480078022891
:104D000004D11449902006F020F903E012499020C4
:104D100006F01BF95E20FCF79DF9052006F0AEF9C0
:104D2000182005F001F9FCF7F5F909480078022888
:104D300005D10849091D882006F007F903E007A1FD
:104D4000882006F002F910BDD3160020BB16002003
:104D5000BA1600201C320108273201084C4F434B81
:104D60000000000010B55E201749087006F000F939
:104D700016480078022808D11549802006F0E5F889
:104D80001449902006F0E1F807E01349802006F06E
:104D9000DCF81249902006F0D8F85E20FCF75AF9AA
:104DA000052006F06BF9FCF7B5F9084800780228F1
:104DB00005D10749091D882006F0C7F803E008A1BE
:104DC000882006F0C2F810BDD3160020BA160020C5
:104DD0001C320108573201082732010866320108E7
:104DE0004C4F434B0000000000B5FFB03EA0FFF762
:104DF00051FA3F48006800903D4843683DA18268F1
:104E000002A805F0BDFE02A8FFF744FA142006F040
:104E100073F940480078022826D135488069072870
:104E200021D2DFE800F004080C1014181C003AA08E
:104E3000FFF730FA17E03EA0FFF72CFA13E042A08C
:104E4000FFF728FA0FE046A0FFF724FA0BE04AA08C
:104E5000FFF720FA07E04EA0FFF71CFA03E052A08C
:104E6000FFF718FA00BF2AE02A480078012826D167
:104E70001F488069072821D2DFE800F004080C10E1
:104E800014181C004EA0FFF705FA17E052A0FFF718
:104E900001FA13E056A0FFF7FDF90FE05AA0FFF763
:104EA000F9F90BE05EA0FFF7F5F907E062A0FFF764
:104EB000F1F903E066A0FFF7EDF900BF00BF0C4871
:104EC000C06800900A48036967A1426902A805F01A
:104ED00057FE02A8FFF7DEF96CA0FFF7DBF91420FC
:104EE00006F00AF97FB000BD5342432835293B0044
:104EF000201C00204453313628362C3135352C27E0
:104F0000253032643A253032643A25303264272C19
:104F100030293B00BA160020445331362838362C4D
:104F20003135352C27D6DCC8D5272C30293B00005D
:104F3000445331362838362C3135352C27D6DCD23F
:104F4000BB272C30293B0000445331362838362CFF
:104F50003135352C27D6DCB6FE272C30293B000016
:104F6000445331362838362C3135352C27D6DCC819
:104F7000FD272C30293B0000445331362838362C8D
:104F80003135352C27D6DCCBC4272C30293B00000B
:104F9000445331362838362C3135352C27D6DCCEE3
:104FA000E5272C30293B0000445331362838362C75
:104FB0003135352C27D6DCC1F9272C30293B0000B0
:104FC000445331362838362C3135352C2753756EFD
:104FD0002E272C30293B0000445331362838362CFC
:104FE0003135352C274D6F6E2E272C30293B000094
:104FF000445331362838362C3135352C27547565D5
:1050000073272C30293B0000445331362838362C86
:105010003135352C275765642E272C30293B00006D
:10502000445331362838362C3135352C27546875A1
:1050300072272C30293B0000445331362838362C57
:105040003135352C274672692E272C30293B00003C
:10505000445331362838362C3135352C275361747A
:105060002E272C30293B000044533136283133346D
:105070002C3135352C27253034642D253032642DE4
:1050800025303264272C30293B000000534243284E
:1050900037293B0D0A00000000B5FDB008A0FFF75E
:1050A000F9F80948027809A1684605F069FD6846E3
:1050B000FFF7F0F80BA0FFF7EDF87DB000BD0000A2
:1050C0005342432835293B00BC1600204453323458
:1050D000283136302C32332C272564272C30293BBD
:1050E000000000005342432837293B0D0A0000000E
:1050F00010B504464FF4806005F0CFFF182004F08F
:1051000013FF4FF4806005F0C8FF204604F00CFF49
:105110004FF4806005F0C1FF182004F005FF4FF444
:10512000806005F0BAFF204604F0FEFE4FF4806078
:1051300005F0B3FF182004F0F7FE4FF4806005F08F
:10514000ACFF204604F0F0FE10BD00002DE9F04158
:10515000ADF5047D064600250024762E80F0C48738
:10516000DFE816F00405C207C207C207C20711072D
:10517000C207C207C207860076009101AD011D0279
:105180006403C901E50101023902550280039C0351
:10519000B803BB0087007700C9001001E600D80003
:1051A0001E011F0120012101D40322017501830189
:1051B000CA000201F4008A009E009F008800AD0032
:1051C0009F01BB012B027203D701F3010F024702BB
:1051D00063028E03AA03C603D5038900E203F50325
:1051E000F603E30304041204130421042204230439
:1051F0003104E503E206EC06F60600070A071D0780
:10520000E403C2075D04E60370047104E70391043C
:10521000C207C207C207C207C207C207C207C20746
:105220002E05C207C207C207C207A407A307C20709
:10523000C207C207A507290733073D074707C2076B
:105240009E079F07A007A107A2079D07B307B40702
:1052500000BFFD4800783D2805D0FCA0FFF71AF8F4
:10526000502005F049FF3D20F749087000F03DBF90
:1052700000BF00BF00BF00BFF348007805280BD077
:10528000F5A0FFF707F8502005F036FFF2A0FFF772
:1052900001F8502005F030FF0520EB490870E5E7E4
:1052A00000BFE94800783A2808D0EEA0FEF7F2FFE8
:1052B000502005F021FF3A20E3490870D6E7E24884
:1052C0000078182805D0EAA0FEF7E4FF502005F08A
:1052D00013FF1820DC490870C8E7DB4800780F2866
:1052E00005D0E6A0FEF7D6FF502005F005FF0F2001
:1052F000D5490870BAE700BFD3480078092805D01F
:10530000E1A0FEF7C7FF502005F0F6FE0920CE49C8
:105310000870ABE7CC4800780A2805D0DDA0FEF77E
:10532000B9FF502005F0E8FE0A20C74908709DE744
:10533000C54800783B2805D0D9A0FEF7ABFF502028
:1053400005F0DAFE3B20C04908708FE7BE480078C0
:105350000E2805D0D5A0FEF79DFF502005F0CCFE0D
:105360000E20B949087081E7B74800780B2805D0AE
:10537000D1A0FEF78FFF502005F0BEFE0B20B249F2
:10538000087073E7B0480078122805D0CDA0FEF76A
:1053900081FF502005F0B0FE1220AB49087065E790
:1053A00000BF00BF00BF00BFA74800780D284AD04B
:1053B000C7A0FEF76FFF502005F09EFEC74800789B
:1053C000012840D1C648007801283CD10020C549B9
:1053D00008804880C44800888880C4480088C88005
:1053E000C3A0FEF757FFBF480288C3A107A805F076
:1053F000C7FB07A8FEF74EFFBDA0FEF74BFFB9485D
:105400004288C3A107A805F0BBFB07A8FEF742FF2F
:10541000B7A0FEF73FFFB4480288C3A107A805F074
:10542000AFFB07A8FEF736FFB1A0FEF733FFAF488A
:105430000288C2A107A805F0A3FB07A8FEF72AFF70
:105440000A2005F059FE0D207F4908700EE77E48BE
:105450000078082805D0BFA0FEF71CFF502005F0FB
:105460004BFE08207849087000E7774800783C2810
:1054700005D0BBA0FEF70EFF502005F03DFE3C20FE
:1054800071490870F2E6704800782D2808D0B7A05E
:10549000FEF700FF2D206C490870502005F02CFE0F
:1054A000E4E6694800781C2808D0B3A0FEF7F2FEB5
:1054B0001C2065490870502005F01EFED6E66248A3
:1054C0000078312808D0AFA0FEF7E4FE31205E4915
:1054D0000870502005F010FEC8E65B4800782428CC
:1054E00008D0ABA0FEF7D6FE242057490870502004
:1054F00005F002FEBAE654480078392808D0A7A083
:10550000FEF7C8FE392050490870502005F0F4FD20
:10551000ACE64D4800782C2808D0A3A0FEF7BAFED0
:105520002C2049490870502005F0E6FD9EE64648CB
:105530000078322808D09FA0FEF7ACFE3220424906
:105540000870502005F0D8FD90E63F4800782528E7
:1055500008D09BA0FEF79EFE25203B4908705020F6
:1055600005F0CAFD82E638480078332808D097A0B5
:10557000FEF790FE332034490870502005F0BCFD42
:1055800074E631480078262808D093A0FEF782FE02
:1055900026202D490870502005F0AEFD66E62A4809
:1055A0000078302808D08FA0FEF774FE30202649FE
:1055B0000870502005F0A0FD58E623480078232805
:1055C00008D08BA0FEF766FE23201F4908705020EC
:1055D00005F092FD4AE61C480078342808D087A0E0
:1055E000FEF758FE342018490870502005F084FD5D
:1055F0003CE615480078272808D083A0FEF74AFE2D
:10560000272011490870502005F076FD2EE60E483F
:105610000078352808D07FA0FEF73CFE35200A49E7
:105620000870502005F068FD20E60748007828281B
:1056300008D07BA0FEF72EFE2820034908705020DA
:1056400005F05AFD12E60000D416002053504728FA
:105650003631293B0D0000005350472835293B0DBA
:1056600000000000535047283538293B0D0000004A
:10567000535047283234293B0D000000535047282F
:105680003135293B0D0A00005350472839293B0D7D
:105690000A000000535047283130293B0D0A000012
:1056A000535047283539293B0D0A000053504728ED
:1056B0003134293B0D0A0000535047283131293B32
:1056C0000D0A0000535047283138293B0D0A0000CD
:1056D000535047283133293B0D0A0000C1160020E2
:1056E000C0160020562000200C1700200E170020A6
:1056F0005342432837293B00445331362836382C4F
:1057000036332C2720202564272C30293B0000002D
:1057100044533136283137302C36332C272025643A
:10572000272C30293B000000445331362836382CD2
:1057300039332C272564272C30293B00445331363C
:10574000283137302C39332C272564272C30293B3E
:105750000D0A00005350472838293B0D0A0000006D
:10576000535047283630293B0D0A00005350472834
:105770003435293B0D0A0000535047283238293B65
:105780000D0A0000535047283439293B0D0A000008
:10579000535047283336293B0D0A00005350472801
:1057A0003537293B0D0A0000535047283434293B34
:1057B0000D0A0000535047283530293B0D0A0000E0
:1057C000535047283337293B0D0A000053504728D0
:1057D0003531293B0D0A0000535047283338293B07
:1057E0000D0A0000535047283438293B0D0A0000A9
:1057F000535047283335293B0D0A000053504728A2
:105800003532293B0D0A0000535047283339293BD4
:105810000D0A0000535047283533293B0D0A00007C
:10582000535047283430293B0D0A0000F2480078D5
:105830002F2808D0F1A0FEF72DFD2F20EE4908708B
:10584000502005F059FC11E5EB480078222808D0DB
:10585000EDA0FEF71FFD2220E7490870502005F05B
:105860004BFC03E5E4480078362808D0E9A0FEF7B1
:1058700011FD3620E0490870502005F03DFCF5E4AC
:10588000DD480078292808D0E5A0FEF703FD29208F
:10589000D9490870502005F02FFCE7E4D64800787D
:1058A000372808D0E1A0FEF7F5FC3720D249087070
:1058B000502005F021FCD9E4CF4800782A2808D0F0
:1058C000DDA0FEF7E7FC2A20CB490870502005F048
:1058D00013FCCBE4C8480078382808D0D9A0FEF7DC
:1058E000D9FC3820C4490870502005F005FCFCE3C1
:1058F000C14800782B2808D0D5A0FEF7CBFC2B2080
:10590000BD490870502005F0F7FBEEE300BFBA4830
:1059100000781E2807D0D1A0FEF7BCFC1E20B64997
:10592000087006F03DF9E0E300BF00BF00BF00BF14
:1059300000BFB1480078112805D0CBA0FEF7AAFC23
:10594000502005F0D9FB1120AB490870CDE300BF12
:10595000A9480078132805D0C6A0FEF79BFC50206C
:1059600005F0CAFB1320A4490870BEE3A2480078E2
:10597000142808D0C2A0FEF78DFC502005F0BCFB17
:1059800014209D490870B0E300BF9B48007815289B
:1059900008D0BEA0FEF77EFC502005F0ADFB152020
:1059A00095490870A1E300BF00BF9348007816280E
:1059B00008D0B9A0FEF76EFC502005F09DFB162024
:1059C0008D49087091E38C480078172823D0B5A042
:1059D000FEF760FC502005F08FFBAFF2EC20FEF7E5
:1059E00059FC00240DE0B248035D5A2000EBC402CC
:1059F000B0A107A805F0C4F807A8FEF74BFC601C8F
:105A0000C4B2B14800788442EDDB7EA0FEF742FCD0
:105A1000172079490870ADA0FEF73CFC65E3B3A000
:105A2000FEF738FC322005F067FB1A207249087037
:105A3000B1480278B1A107A805F0A2F807A8FEF7BF
:105A400029FC52E300BF6C4800781B2805D0B3A0A6
:105A5000FEF720FC782005F04FFB1B2066490870FC
:105A6000B1480078522803D1B0A0FEF713FC06E03D
:105A7000AD480078532802D1BBA0FEF70BFC78207C
:105A800005F03AFB31E35C48007820286AD0C24830
:105A90004069C2490860C04800694860BE48C068A3
:105AA0008860BD488069C860BB4880680861BA48A2
:105AB00040684861B848006888610020C861B8A0A3
:105AC000FEF7E8FBB9A0FEF7E5FBB448806900905B
:105AD000B2484369B7A1026907A805F051F807A8C1
