:020000040800F2
:10000000D820002045010008D96D00084556000899
:10001000696D0008FD050008D1BC00080000000063
:10002000000000000000000000000000CD86000875
:10003000CD340008000000004D77000829B5000805
:100040005F0100085F0100085F010008697900088E
:100050005F0100085F0100085F010008ED42000831
:100060005F0100085F0100085F0100085F010008F0
:100070005F0100085F0100085F0100085F010008E0
:100080005F0100085F0100085F0100085F010008D0
:100090005F0100085F0100085F01000811430008CC
:1000A0005F0100085F0100085F0100085F010008B0
:1000B0005F010008D5B500085F0100085F01000876
:1000C0005F0100085F0100085F0100085F01000890
:1000D0005F01000841B800088DB80008C1B80008E9
:1000E0007D4200085F0100085F0100085F01000811
:1000F0005F0100085F0100085F0100085F01000860
:100100005F0100085F0100085F0100085F0100084F
:100110005F0100085F0100085F0100085F0100083F
:100120005F0100085F0100085F0100085F0100082F
:10013000DFF80CD000F040F80048004759C4000830
:10014000D82000200648804706480047FEE7FEE723
:10015000FEE7FEE7FEE7FEE7FEE7FEE7FEE7FEE777
:100160002DB500083101000840EA01039B0703D0C8
:1001700009E008C9121F08C0042AFAD203E011F8E6
:10018000013B00F8013B521EF9D2704730B50B46D7
:10019000014600202022012409E021FA02F59D42B7
:1001A00005D303FA02F5491B04FA02F52844151E8B
:1001B000A2F10102F1DC30BD064C074D06E0E0681B
:1001C00040F0010394E8070098471034AC42F6D39E
:1001D000FFF7B2FF5CDD00087CDD000870B501EBC5
:1001E000020410F8015B15F0070301D110F8013B80
:1001F0002A1106D110F8012B03E010F8016B01F869
:10020000016B5B1EF9D12B0705D40023521E0FD4BE
:1002100001F8013BFAE710F8013B02F10202A1EB01
:10022000030303E013F8015B01F8015B521EF9D5EB
:10023000A142D6D3002070BD0B4810B5007802282B
:100240000BD001280FD1094980200BF001FF08498C
:10025000BDE8104090200BF0FBBE064980200BF05B
:10026000F7FE0549F4E710BDEE01002077CE000847
:100270008BCF00086FCE00089BCF000810B50BF0A5
:1002800009FF0B48007802280BD001280FD109493B
:1002900082200BF0DDFE0849BDE8104090200BF0F5
:1002A000D7BE064982200BF0D3FE0549F4E710BD06
:1002B000EE01002011CE000836CE000803CE000863
:1002C00021CE0008E4200BF097BA10B5012007F00A
:1002D0008BFABDE81040002007F086BA034A118867
:1002E00021F4607101431180704700002C6C0040C4
:1002F00008B5024908440090008808BD006C004021
:10030000014908607047000000860D4208B5024AA6
:1003100010440090016008BD006C0040164810B504
:1003200000780021602817D067281CD06E2821D1C2
:10033000124C134A2078401EC0B2207011549030E5
:10034000C0B210A10BF084FE2078BDE810409130BF
:10035000C0B20DA10BF07CBE0C4C0D4A2078401EA3
:10036000C0B22070EAE70B4C0B4A2078401EC0B2A6
:100370002070E3E710BD0000200200200C000020E8
:10038000260000205F000000200000000A0000207E
:10039000180000200B0000201F0000202DE9F0476E
:1003A000724E734F00253078A7F11004852816D0BF
:1003B00004F11309862833D004F1160887284DD09C
:1003C0000937882874D0892873D16AA196200BF048
:1003D0003FFE207B00286DD001286CD088E065A10D
:1003E00086200BF035FE207910B1012811D07FE076
:1003F00084203070E07808B1401EE070A5705EA1E6
:1004000083200BF025FE5E48E178455401468320A9
:1004100003E0257165713D7018E00BF019FE67E08F
:1004200054A188200BF014FEA07910B1012810D03F
:100430005EE085203070207908B1401E2071657122
:100440004CA186200BF004FE20793D5448498620BB
:10045000E3E7A571E57189F8005025E045A19220F8
:100460000BF0F6FD207A30B101287CD1257265723F
:1004700088F800505AE02078032807D001281BD0C4
:10048000BDE8F0473FA192200BF0E2BD862030701E
:10049000A07908B1401EA071E57136A188200BF04B
:1004A000D7FDA17909F801503149C91C8820B4E76A
:1004B00023E058E03EE04EE033480078012804D0C5
:1004C000022806D0032808D00BE05D2030702F48AA
:1004D00006E0642030702E4802E06B2030702D481A
:1004E00005702DA184200BF0B3FD84200CF0C8FA18
:1004F000BDE8F0472CA00CF061BA1EA194200BF0CF
:10050000A7FDA07A20B1401EC0B2A072E5721DE026
:1005100087203070207A08B1401E2072657215A1C4
:1005200092200BF095FD217A08F801501049891DA1
:10053000922072E788203070A07A08B1401EA07225
:10054000E5720CA194200BF083FDA07A08493D547C
:100550000931942061E7064825730C3065730570F6
:100560000146962059E7BDE8F087000020020020F0
:100570003401002020200000202020200000000066
:10058000721B00205F200000351B0020F0010020BE
:10059000F1010020F2010020202020202020202036
:1005A00020202020000000005F0000002DE9F04125
:1005B0000F4C80460E46E078002508B1401EE070E2
:1005C0000027A77040460CF05BFA03E020200BF0F8
:1005D00065FD6D1CB542F9DB0648E17847540146DC
:1005E00040460BF035FDBDE8F04103A00CF0E6B944
:1005F00024010020721B00205F000000FEE70000C5
:100600002DE9F0470022C30711D001260227042359
:1006100005240625DFF814A14FF0030C4FF007095D
:10062000012907D002292ED003297CD154E00020D3
:10063000BDE8F0873D495FEA807801F10E0101D500
:100640000E700122460702D58F5402F10102C60640
:1006500001F802C002F1010202D58B5402F101023D
:10066000830602D58C5402F10102430602D58D5453
:1006700002F10102000603D501F8029002F1010225
:100680008AF800204FE029495FEA807801F11501DE
:1006900001D50E700122460702D58F5402F10102E6
:1006A000C60601F802C002F1010202D58B5402F124
:1006B0000102830602D58C5402F10102430602D5E1
:1006C0008D5402F10102000603D501F8029002F1F7
:1006D00001028AF8012026E014495FEA807801F1DE
:1006E0001C0101D50E700122460702D58F5402F17C
:1006F0000102C60601F802C002F1010202D58B54C4
:1007000002F10102830602D58C5402F10102430674
:1007100002D58D5402F10102000602D501F80290C3
:10072000521C8AF80220012082E700000A00002003
:100730000449002008700448FF210170417008F04E
:10074000EDB80000F00100200D0000200449002059
:1007500008700448FF210170417008F0FBB80000E8
:10076000F10100200F000020044900200870044817
:10077000FF210170417008F009B90000F20100206A
:10078000110000201CB528A1D1E90001CDE900012C
:100790002748007868280DD004DC52281DD0612835
:1007A0002ED104E06F2808D0722829D108E0FFF785
:1007B000BFFF25E0FFF7CAFF22E0FFF7D5FF1FE0EC
:1007C0001C491D4C0020087020700BF02DFD217875
:1007D00040F2F2300BF0BEFA12E000200BF0B6FD52
:1007E0001648017840F217400BF0B4FA144801782B
:1007F00040F219400BF0AEFA40F21B400BF0B2FA97
:1008000010A190200BF024FC0F480078022802D0A1
:10081000012802D005E0694600E00CA186200BF01B
:1008200017FC01201CBD0000D2D1C8A1CFFB0000E5
:1008300020020020FA010020F70100200D02002014
:100840000E0200202A000000EE01002043616E63CA
:10085000656C2073756363657373000010B50E4C8F
:10086000082084F848000BF015FCA07D02280BD06E
:1008700001280FD1094982200BF0EAFB0849BDE8A5
:10088000104090200BF0E4BB064982200BF0E0FB07
:100890000549F4E710BD0000D801002038D1000858
:1008A00022D100082DD1000812D1000810B51D4832
:1008B000A0F14E04027894F8411040788A4207D1A2
:1008C000884205D00F2803D2BDE8104009F07EBF52
:1008D000884205D18A4203D00F2A01D21046F3E79D
:1008E000082084F848000BF0D5FBA07D022811D029
:1008F0000D4982200BF0ACFB0CA192200BF0A8FB61
:100900000F2005F035FF0A200BF032FCBDE8104047
:1009100007F022BB084982200BF09AFB0749902080
:10092000ECE700002602002038D100084E6F20536B
:1009300077697463680000002DD1000803D70008B0
:100940002DE9F05F6A4B00221C786A4B012C1B7862
:1009500032D0022C01D0032C05D1674A1278012A2B
:100960002AD0664A1278664BDFF89881DFF898A1A2
:10097000664E93F800C0182498F800509AF800309A
:1009800036784FF03C0994451DD1854219D1554622
:100990008B4216D196B1304600F0E8FB5C4998F8DE
:1009A000000009780844B0FBF4F104FB110088F85A
:1009B00000002978574871E01A46D4E756490020CC
:1009C0000870BDE8F09F564FDFF850B196423F786F
:1009D0002DD18542F5D155468B42F2D1B7B138467B
:1009E00000F0C4FB4F4998F8000009780844B0FBB8
:1009F000F4F104FB110088F8000028784A496BE004
:100A0000B1FBF9F209FB12102870DAE7604600F03A
:100A1000ADFB98F800109BF800000844B0FBF4F11F
:100A200004FB110088F800002978404836E0404E69
:100A30009742367817D18542C3D155468B42C0D1F3
:100A4000002EE3D0304600F091FB3A4998F80000C0
:100A500009780844B0FBF4F104FB110088F80000A9
:100A60002878354938E0354F96423F7819D185428C
:100A7000A7D155468B42A4D1002FC7D0384600F0ED
:100A800075FB2F4998F8000009780844B0FBF4F191
:100A900004FB110088F8000029782A4800780144F6
:100AA000AEE7294E9742367819D1854289D155460D
:100AB0008B4286D1002EA9D0304600F057FB234947
:100AC00098F8000009780844B0FBF4F104FB110029
:100AD00088F8000028781E490978014490E796427A
:100AE00093D1854291D155468B428FD069E7000062
:100AF0001802002019020020150200201A0200200E
:100B0000FB010020F8010020F9010020FC01002079
:100B10000202002008020020F7010020010200204C
:100B2000FD0100200302002009020020070200202E
:100B3000FE010020040200200A020020FF01002024
:100B4000050200200B020020000200200602002007
:100B50000C02002030B50A4B1C461D886488854273
:100B600009D301D18C4206D3854207D18C4205D1ED
:100B70009888904202D803490120086030BD0000E7
:100B8000CC010020B4020020034AC0EBC00002EBFD
:100B90004000405C70470000EC0200201FB511A12E
:100BA0000622D1E90001CDE900010020029069464A
:100BB000039004F0F8FE05200BF0DAFA062202A9F1
:100BC000002004F0B9FE00206A4602A9135C0C5C08
:100BD000A34202D0002004B010BD401C0628F5DB63
:100BE0000120F8E7010203040506000030B51748AC
:100BF000C17841B3164842F210720068B0FBF2F3BC
:100C000002FB130413480BF0F5F9134A210141EAE2
:100C10009421D2E90453D2682B4422441A4493020B
:100C200043EA221289B2A3024A4043EA1413C2F3F0
:100C30000D029BB2824204D05940C1F30D018142A2
:100C400001D1012030BD002030BD00002401002072
:100C5000281B0020721B0020801B0020154810B5A7
:100C6000C17821B3144842F210720068B0FBF2F36D
:100C700002FB130411480BF0BDF92101A20241EA65
:100C8000942142EA14125140C1F30D030C4A0D495C
:100C9000834205D14FF486600A600BF0C1F804E08E
:100CA0000968914203D0884201D1012010BD002083
:100CB00010BD000024010020281B0020721B002012
:100CC00008E40400B80200202DE9F04F8DB09346EF
:100CD0000D460446302234496846FFF745FA611E46
:100CE000642391FBF3F6CF1701EB9777C6EBA707C9
:100CF0009E0091FBF6FCDFF8B4A007EB0C08BAF8F5
:100D00000000421E92FBF3F74FEAE27C02EB9C7C70
:100D1000C7EBAC0792FBF6FC67445FEA847C0FD11B
:100D2000B4FBF3FC03FB1C4CBCF1000F04D1B4FB7F
:100D3000F6FC06FB1C441CB9022D01D9012400E07D
:100D40000024E94609EB850540F26D1C55F8045C6A
:100D500001FB0C5508EB0B0129440C4413495FEAD5
:100D6000807C49880DD1B0FBF3FC03FB1C0323B945
:100D7000B0FBF6F306FB130018B9022901D90120D4
:100D800000E0002009EB8101BAF8043051F8041C9E
:100D90000DB0194440F26D1302FB03721144084474
:100DA000001BBDE8F08F000084CB0008CC010020C0
:100DB000074890F84800452807D0462805D0552810
:100DC00003D0732801D00020704701207047000035
:100DD000D801002010B54FF490644FF4DC51204648
:100DE00004F01CFD044800210180601F0BF00DF889
:100DF0000248048010BD000028020020221B0020B1
:100E00004FF40051062004F009BD000070B51F4DDD
:100E10000821284604F0AEF81D4C012630B101210E
:100E2000284604F0A7F808B1E67101E0E07908B3BC
:100E30000821284604F09EF8E0B90121284604F074
:100E400099F8B8B9A179002029B1E071617869B148
:100E5000491E61702070617961B1E0716178491C4F
:100E6000C9B261702670FF2903D003E0FF216170D1
:100E7000F1E760700821284604F07CF860710121D8
:100E8000284604F077F8A07170BD000000140140FE
:100E9000D80100208E49CD2876D017DC06286BD0EB
:100EA00005DC40D2DFE800F03840485058600C289C
:100EB0006BD006DC08286BD0092871D00B2832D102
:100EC00079E0CB2874D0CC28F9D18FE042F21123FD
:100ED000C21A98426DD018DC41F6A333A0EB03028E
:100EE000984267D00ADCCE2875D0A0F580702D38E6
:100EF00072D0A0F590503138E1D197E0012A6CD042
:100F0000A2F5A062793ADAD1A8E0062AC9D2DFE8D0
:100F100002F0DCB5BDC5CDD56E4A0020135C0B5484
:100F2000401C1528FADBD0E06B4A0020135C0B5400
:100F3000401C1528FADBC8E0684A0020135C0B54FB
:100F4000401C1528FADBC0E0654A0020135C0B54F6
:100F5000401C1528FADBB8E0624A0020135C0B54F1
:100F6000401C1528FADBB0E05F4A0020135C0B54EC
:100F7000401C1528FADBA8E05C4A0020135C0B54E7
:100F8000401C1528FADBA0E038E01CE000E007E098
:100F9000574A0020135C0B54401C1528FADB94E0E0
:100FA000544A0020135C0B54401C1528FADB8CE0DB
:100FB00014E05BE042E0504A0020135C0B54401CFC
:100FC0001528FADB81E04D4A0020135C0B54401CCD
:100FD0001528FADB79E019E020E037E0484A0020E4
:100FE000135C0B54401C1528FADB6EE0454A0020C8
:100FF000135C0B54401C1528FADB66E0424A0020C3
:10100000135C0B54401C1528FADB5EE03F4A0020BD
:10101000135C0B54401C1528FADB56E03C4A0020B8
:10102000135C0B54401C1528FADB4EE0394A0020B3
:10103000135C0B54401C1528FADB46E0364A0020AE
:10104000135C0B54401C1528FADB3EE0334A0020A9
:10105000135C0B54401C1528FADB36E0304A0020A4
:10106000135C0B54401C1528FADB2EE02D4A00209F
:10107000135C0B54401C1528FADB26E02A4A00209A
:10108000135C0B54401C1528FADB1EE0274A002095
:10109000135C0B54401C1528FADB16E0244A002090
:1010A000135C0B54401C1528FADB0EE0214A00208B
:1010B000135C0B54401C1528FADB06E01E4A002086
:1010C000135C0B54401C1528FADB03F0D5BA000062
:1010D0006B010020EED8000803D9000818D90008D9
:1010E0002DD9000842D9000857D900086CD900084A
:1010F00081D9000896D90008ABD90008C0D90008EA
:10110000D5D90008EAD90008FFD9000814DA000888
:1011100029DA00083EDA000853DA000868DA000825
:101120007DDA000892DA0008A7DA0008BCDA0008C5
:10113000D1DA0008E6DA0008FBDA000830B40278F9
:10114000302A01D101290CD00022074B02E0845C37
:101150009C54521C8A42FADB0020585430BC03F0E5
:10116000C1BA30BC70470000950100200D4A10B58F
:10117000082111700C49012209780AF0CFF990205A
:101180000AF078FF09480078022808D0012808D121
:101190000749BDE81040891C92200AF059BF054953
:1011A000F7E710BD2002002015020020EE0100200C
:1011B000BED20008B3D200082DE9F04104F03AFC99
:1011C000DFF850820827944D98F80000934C0128CE
:1011D00006D0934E3078012820D0022820D021E07C
:1011E0002F700AF057FF2078022811D08D498220F5
:1011F0000AF02EFF8CA191200AF02AFF002005F0B2
:10120000B7FA0A200AF0B4FFBDE8F04106F0A4BE28
:10121000884982200AF01CFF8749ECE7022000E0A1
:10122000012030700AF0B0F8002873D128781F2808
:1012300019D006DC09283DD00A283BD01D2804D14E
:1012400011E022283AD03E2813D02F700AF022FF56
:1012500098F80000012838D0784980200AF0F8FE7C
:1012600077A181203FE0784A7849307804F0A0F8EF
:1012700020E0774900EB800001EBC000406A804726
:1012800010B101280AD015E02078022802D00128E8
:1012900002D00FE06F490AE06F4908E02078022889
:1012A00002D0012802D005E06C4900E06C49912091
:1012B0000AF0CEFEBDE8F04104F070BF04F06EFF0E
:1012C000BDE8F041912002F045BC2078022802D010
:1012D000012802D005E0634900E0634980200AF05C
:1012E000B7FE62A1832002F0A9FD3078012809D061
:1012F00002280FD15E4806782078022813D00128F2
:1013000013D016E05B4806782078022803D0012825
:1013100003D006E07CE0584900E0584997200AF0E5
:1013200097FE0E2006E0564900E0564997200AF045
:101330008FFE0F2028700D2E6AD2DFE806F06907B5
:1013400010192B48343D53225C5146002078022866
:1013500003D001285CD14C4953E04C4951E020783E
:10136000022803D0012853D149494AE0494948E0BD
:101370002078022803D001284AD1474941E0474953
:101380003FE02078022803D0012841D1444938E0C9
:10139000444936E02078022803D0012838D1424958
:1013A0002FE042492DE02078022803D001282FD1D8
:1013B0003F4926E03F4924E02078022803D0012855
:1013C00026D13D491DE03D491BE03DA119E02078B3
:1013D000022803D001281BD13B4912E03B4910E011
:1013E0003BA10EE02078022803D0012810D13A4911
:1013F00007E03A4905E02078022807D0012807D104
:101400003749BDE8F04190200AF022BE3549F8E79F
:10141000BDE8F0811802002020020020EE0100202B
:101420001502002038D100085573656420446F759B
:10143000626C65002DD1000818D7000813CC000895
:10144000202B20200000000038020020360200205F
:10145000B00300201FD5000824D500082BD50008B4
:1014600030D500086FCE000877CE000820000000BD
:101470001A0200201902002040D1000846D10008BD
:101480004BD1000851D1000884CE00087ECE000860
:1014900088CE000894CE00088CCE00089ACE0008B2
:1014A00090CE0008A0CE0008ADCE0008A6CE000861
:1014B000D2CE0008C4CE0008E0CE0008D8CE000886
:1014C0005647413200000000C0CE0008B4CE0008EC
:1014D0004456493200000000F1CE0008E4CE000876
:1014E00004CF0008F6CE00080D4910B5082008709A
:1014F0000AF0D0FD0B480078022809D00A49822062
:101500000AF0A6FD09A19220BDE810400AF0A0BD96
:101510000C4982200AF09CFD0B499020F4E7000062
:1015200020020020EE01002038D100084E6F205329
:101530007570706F72744054686973205479706567
:10154000000000002DD1000846CE000810B504F0C0
:10155000A1FC38B12C484FF004010068012805D0E7
:10156000942040E004F086FC70BB01E091203AE05A
:101570002648007886283AD018DC7D282AD00CDC52
:10158000602838D004DC072824D0432837D123E052
:10159000672830D06E2832D12DE07F281ED08028D9
:1015A0001CD084281DD0852829D120E087380E281A
:1015B00025D2DFE800F01C1C1C24240F0F0F0B2485
:1015C0000924070D0521D1E70321CFE70B21CDE742
:1015D0000A21CBE70621C9E70221C7E704219720AA
:1015E00001E004218320BDE81040FEF7DFBFBDE825
:1015F0001040FEF7D3BEBDE81040FEF78FBEBDE839
:101600001040FFF7D9BD0000DC02002020020020BE
:1016100070B51D4C84F848000AF03CFDA07D04F52F
:10162000EC7502281BD001282DD194F8480000EB5E
:10163000800005EBC001896819B115F830000AF087
:1016400007FD94F8480000EB800005EBC0004169FD
:10165000002918D0007BBDE870400AF0F9BC94F86E
:10166000480000EB800005EBC001496819B115F88E
:1016700030000AF0EDFC94F8480000EB800005EB28
:10168000C0000169E4E770BDD801002073B50D46C4
:10169000684605F0CAFE002823D0124CA279022A1F
:1016A00017D2E07900281CD19DF8001004F1130036
:1016B00030318154521CD1B2A171002242540146F2
:1016C00028460AF0C5FCA079022802D206A00BF039
:1016D00075F9A079022804D10120E071022004F0FC
:1016E000BBF97CBD240100205F00000070B5002420
:1016F00005F0F8FB002876D1634D644E287800EBA6
:10170000800006EBC0000069C8B304F093F92978A3
:1017100001EB810006EBC000407E884201D02870BA
:1017200001242878FFF774FF09F02EFE297801EBD9
:10173000810006EBC000C3693BB134B9002203202D
:10174000984710B101200AF013FD287800EB8000C3
:1017500006EBC000017B912915D1006A002812D048
:1017600090200BF08DF9287800EB800006EBC0008C
:10177000006A80472978884202D145A001E003E051
:1017800044A00BF01BF976E0002404F053F928780C
:1017900000EB800106EBC101497E814200D0297037
:1017A000287800EB800006EBC000406A08B1804753
:1017B00004462878384920280FD015DC19280CD089
:1017C00007DC142801D016285CD10878204484B2A4
:1017D00020E01B2801D01E2854D10878204484B270
:1017E00004F0DCFC13E04DE025280BD0272809D0BD
:1017F0003E2815D08A2845D10878204464280DD980
:10180000642404E00878204484B2642CF8D887204B
:1018100002F0F4FC29781B2906D00EE084B2F6E72A
:10182000BDE8704004F0EEBB1C480068012818D0E9
:101830001B480088844200D2044601EB810006EB7D
:10184000C000C36913B122460320984728781B289B
:1018500015D008DC142812D0162810D0192806D16B
:101860000DE01048E5E71E2809D0202807D0912177
:10187000204602F02DF9BDE8704000F03DBA04F0BA
:10188000BDFCF8E770BD000020020020B00300207E
:101890002A0000003E00000010020020DC020020B0
:1018A000340200203202002010B504F0C3F8164CB8
:1018B0002078532801D0552815D140F21B400AF05A
:1018C00051FA12480078022802D0012802D005E01F
:1018D0000F4900E00FA180200AF0BAFB05200AF0B2
:1018E00047FC0AF0D7FB20780E4900EB800001EBA3
:1018F000C000C07E2070FFF78BFE00F0FDF9BDE850
:10190000104009F041BD000020020020EE0100203F
:10191000C7D800084261636B7570206F70656E6593
:1019200064000000B0030020044910B53E20087098
:10193000FFF76EFEBDE8104004F064BB20020020FB
:101940002DE9F04704F076F85A485B4A5B4B007883
:101950005B4C5C4D5C4E5D4FDFF874C1DFF87491F9
:10196000DFF8748101281AD05C480078012848D03B
:101970005B490978072947D098F80080B8F10C0F27
:1019800042D0052955D0B8F10B0F52D0082965D0A7
:101990000A2963D0012876D002287CD081E098F80B
:1019A0000000072811D00C280FD0052815D00B28CF
:1019B00013D0082819D00A2817D0BCF80000B9F8AD
:1019C0000010084371D001206BE01088198808438B
:1019D00001D0012029E043490EE0208829880843EE
:1019E00001D0012036E0404906E0308839880843BC
:1019F00001D0012043E03D49BDE8F047012003F05C
:101A00003DB898F80010B5E7012802D0022806D0AA
:101A10000BE0118849B919880029DCD005E0344968
:101A2000098811B933490988A1B3BDE8F04703F02B
:101A3000B9B8012802D0022806D00BE0218849B9A4
:101A400029880029CFD005E02B49098811B92B49F5
:101A50000988F9B1BDE8F04702F0B8BE012802D00C
:101A6000022806D00BE0318849B939880029C2D054
:101A700005E02349098811B92249098851B1BDE817
:101A8000F04702F04FBFBCF8001051B9B9F8001090
:101A900006E000E009E01C49098811B91B490988E2
:101AA00019B1BDE8F04703F029B9BDE8F0470A20B5
:101AB00004F05EBE180200205A0200205C020020E2
:101AC0006A0200206C0200207A0200207C020020C2
:101AD0004A0200204C0200201902002015020020BA
:101AE0001A0200201102002012020020130200201E
:101AF00062020020640200207202002074020020B2
:101B000082020020840200205202002054020020A1
:101B100073B50D46684605F088FC20B3144C227A54
:101B2000022A17D2607A00281CD19DF8001004F117
:101B3000160030318154521CD1B22172002242541D
:101B4000014628460AF084FA207A022802D209A027
:101B50000AF034FF207A022804D1012060720220AA
:101B600003F07AFF7CBD9DF8000004F001FE7CBD0F
:101B7000240100205F0000002DE9F047894605F0B0
:101B800035FC04007ED049480122494D00786B287D
:101B900013D006DC54285FD05D2809D0642864D1B6
:101BA00008E071280BD081285FD1424804705CE0C6
:101BB000414800E0414804703AE04148FBE74148B1
:101BC0004249434E90F800803F48424FDFF808C139
:101BD000B8F1070F2CD2DFE808F02B04050A121D1C
:101BE0002D00E8E7007884425ED00C7020E0007899
:101BF000844259D00878844256D0347018E0007876
:101C0000844251D0087884424ED0307884424BD000
:101C10003C700DE00078844246D00878844243D07E
:101C20003078844240D0387884423DD08CF80040EF
:101C30006A701AE00078844236D00878844233D043
:101C40003078844230D0387884422DD09CF800001F
:101C5000844229D02148AEE721482249224A00681F
:101C6000A8B1107801EB40004470012009F082FB1C
:101C70001E49102008701EA148460AF0E9F92146C5
:101C8000484600E010E0BDE8F04702F089B90020C6
:101C9000127804E011F81030A34205D0401C9042A5
:101CA000F8DB01F81240E0E7BDE8F08720020020F1
:101CB0002401002019020020F0010020F101002081
:101CC000F2010020FA010020FB010020FC010020AD
:101CD000FD010020FE010020FF0100200002002085
:101CE000C8020020B81B00200E020020361B002076
:101CF000202020202020000070B54248424D00786E
:101D000006287ED2DFE800F05B7D181E032D3F48D9
:101D10008321008801F0DCFE3D487822852100887F
:101D200001F066FE3B489321008801F0D1FE3A485D
:101D300078229521008810E0952002F029FA374991
:101D4000832032E036488421006801F025FF3548C1
:101D50000078002855D02D228621BDE8704001F082
:101D600047BE06F03BF9304CA088FF2814D06088AD
:101D7000FF2811D02D4990200AF06AF9208893217C
:101D800001F0A6FE6088962101F050FFA088BDE812
:101D90007040982101F04ABF2878022809D02449D0
:101DA00091200AF055F923A19020BDE870400AF077
:101DB0004FB9234991200AF04BF92249F4E7224810
:101DC000006800281DD121480078012806D020494C
:101DD00080200AF03DF91FA181200EE0287802281A
:101DE00003D0012803D006E00BE01C4900E01C49A9
:101DF00080200AF02DF91BA18320BDE8704002F07D
:101E00001DB870BD20020020EE0100202E0200202F
:101E1000300200202A0200202C0200209501002020
:101E2000281B0020EA010020CC010020DCD700089C
:101E300080010020466163746F72793A00000000EF
:101E40006B010020BDCB0008B0020020180200206A
:101E500013CC0008202B2020000000006FCE0008CB
:101E600077CE00082000000010B503F0E3FD124813
:101E70000178282913D008DC122910D017290ED098
:101E80001C290CD0232908D109E04B2907D0592956
:101E900005D0762903D07B2901D0122105E0074A1D
:101EA00001EB810102EBC101497E0170BDE81040E8
:101EB000C8B2FFF7ADBB000020020020B003002035
:101EC00073B50D46684605F0B0FA38B3164CA27AE1
:101ED000022A17D2E07A00281FD19DF8001004F1E1
:101EE000190030318154521CD1B2A17200224254E7
:101EF000014628460AF0ACF8A07A022802D20BA0CC
:101F00000AF05CFDA07A022807D10120E072207857
:101F1000032802D1022003F09FFD7CBD9DF8000044
:101F200004F026FC7CBD0000240100205F000000BE
:101F300073B50D46684605F078FA20B3144C227943
:101F4000022A17D2607900281CD19DF8001004F1F4
:101F5000100030318154521CD1B221710022425400
:101F6000014628460AF074F82079022802D209A016
:101F70000AF024FD2079022804D10120607102209A
:101F800003F06AFD7CBD9DF8000004F0F1FB7CBD10
:101F9000240100205F00000070B503F04BFD144CDD
:101FA000144D20780B2805D00C2803D00D2801D023
:101FB0000B2004E000EB800005EBC000407E2070A9
:101FC000C0B2FFF725FB90200AF05AFD207800EB05
:101FD000800005EBC000006A80472178884201D16B
:101FE00005A000E005A0BDE870400AF0E7BC0000D5
:101FF00020020020B00300202A0000003E00000064
:102000002DE9F84FF14C00260220277803F024FD3B
:1020100000281ED12178002567292BD006DC5E29F7
:1020200021D0602921D0652906D121E06C2924D056
:102030006E2924D073290ED0E5480278012A26D0D3
:10204000DFF890937F2944D02ADC10292DD0112964
:102050004AD1BDE8F88F71212170BDE8F84F002208
:10206000042008F0B7BFDC48057006F057FC08E014
:10207000DA48057006F06EFC03E0D948057006F0FA
:1020800085FC04F09FFBBDE8F84F04F0B9BB057078
:1020900087202070BDE8F84FD2A1922009F0D8BF68
:1020A000802916D081291FD103E0BDE8F84F05F043
:1020B00017B905F047FA18B1BDE8F84F04F082BB34
:1020C000FEF7DCF80A200AF053F8BDE8F84F09F0F3
:1020D00017BE01EB810209EBC200C36923B10022E4
:1020E000042098470028B4D009F0D4FF207829288C
:1020F0000BD000EB800209EBC201897E814201D046
:1021000021700126207820B10CE002F057FF2070EA
:10211000F8E7B549096811B9B449097811B9B44962
:102120000968B9B1FFF774FA2178DFF8C8A201EBAA
:10213000810209EBC2004FF00108006900287CD041
:1021400054292DD00ADC18291ED01D2916D0532958
:102150004BD11CE0BDE8F84FFFF786BE602904D0E4
:10216000672905D06E2940D105E001F0ABFF3CE0C6
:1021700001F0CAFF39E001F0E9FF36E09E4A9F49CD
:102180009AF8000003F014F904F008F82DE09C48D8
:10219000414680F8008040F2174009F0DBFD24E062
:1021A0000095984D287831308DF800003A208DF850
:1021B000010085200AF064FC68460AF0FFFB9520C8
:1021C0000AF05EFC68460AF0F9FB8F4F287817F892
:1021D000101011B1862001F0E3FE287807EB4000D3
:1021E000417811B1962001F0DBFE21784D4601EBDC
:1021F000810009EBC000C3696BB12EB15D2903D02A
:10220000642901D06B2906D100220420984710B11F
:10221000012009F0ADFF207800EB800005EBC00045
:10222000017B912916D1006A002813D090200AF072
:1022300027FC207800EB800000E00CE005EBC000FC
:10224000006A80472178884201D170A000E070A028
:102250000AF0B4FBB2E06F4E4FF0000B252920D0FE
:1022600010DC1B2924D006DC142923D0162921D008
:1022700019291CD11CE01E291AD0202918D0222986
:1022800015D10FE0644F822935D006DC27297BD099
:102290003D290CD03E290AD18EE0832959D08A29C4
:1022A00005D171E003F07AFF912001F053FC85E045
:1022B00003F074FF21788F4207D1022005F056F811
:1022C00000222178042007F0BDF803F0B3FB03F0EF
:1022D00095FF2078874202D0C6F8008003E030687E
:1022E000012802D1356001F099FD03F0F3FE87204B
:1022F00001F084FF62E03878401C10F00100387073
:102300004FF0020010D005F031F8012808D100BFCD
:1023100003F090FB03F072FF356001F07FFD4DE0AC
:102320003878401C387049E005F020F80128F7D1D2
:1023300003F080FB03F062FF0221C6F800808AF8F8
:1023400000108320FFF764F934A1912009F080FE8A
:1023500034E07878401C10F0010078704FF00200F3
:1023600007D005F003F80128D2D07878401C7870A7
:1023700024E004F0FBFF0128F7D103F05BFB03F03E
:102380003DFFC6F8008019E0872001F037FF217873
:10239000022004F0EBFF03F04DFB207800EB8001FE
:1023A00009EBC100406A08B1804783462A22902188
:1023B000584601F01DFB01E003F04EFE2078002896
:1023C0007FF447AEBDE8F84FFFF796BC200200202F
:1023D00025010020B0030020F3010020F4010020BB
:1023E000F50100205F000000AC020020E2010020A7
:1023F000B40200201502002038020020360200201E
:102400000D0200200E020020B81B00202A00000050
:102410003E000000DC020020D20100205F202020CE
:10242000780000002DE9FE4FFE488178427801F0E7
:102430007F08C178047947798679C5791AB1FA4855
:10244000007882427BD1F94AF9484FF0000B1278AC
:1024500001920078F84A0090F6481278B8F10D0F12
:102460006ED01CDCEF4BDFF8D4E34FF0010993F89A
:1024700005C01B79B8F10D0F43EA0C2AE94BDFF8D0
:10248000C0C3DB7803F07F03029358D2DFE808F083
:10249000574B7ACFF1F0EFEEEDECEBEAE900DFF825
:1024A000A4C3DFF8A4A3B8F1140F70D00ADCA8F11C
:1024B0000E08E648B8F1060F41D2DFE808F0F0EF69
:1024C000EEEDECEBE24BDFF88C93B8F1170F5FD039
:1024D00013DCB8F1150F5CD0B8F1160F2FD11970BD
:1024E00040F2354009F036FC89F8004089F8017067
:1024F00089F8026089F80350F7E2B8F1180F6ED03E
:10250000B8F17F0F1BD1D44DD44E142917D2DFE878
:1025100001F016FCFBFBFAF9F8F7F6F5F4F3F2F12B
:10252000F0EFEEEDECEBCE4ACE4B012909D00229BB
:102530000BD003290CD0042901D1584602E08FE0CA
:102540006EE2484610601860CFE2FDF7BBFECCE2B9
:10255000B54D214640F215402C7009F0FBFB287860
:102560000322401CC1B2042006F0D0FEBDE2BE48EA
:102570000078012874D103B00A21BDE8F04FA948C2
:1025800009F0D8B8B948BA4C0D2969D202E07CE20A
:1025900093E285E2DFE801F064070A11171D242C9D
:1025A0002F373B40440008F05DFC9EE2022A02D037
:1025B00008F0C0FA99E2002017E0022A01D008F0E2
:1025C000B9FA042011E0022A01D008F0B3FA03207E
:1025D0000BE0022A01D008F0ADFA022005E077E214
:1025E000022A01D008F0A6FA062000F027FF7CE2BC
:1025F00008F024FA79E2DDE90004012108F054F83A
:10260000022120465FE080F80090012102E080F87E
:1026100000B00021012007E084F80090012102E0D1
:1026200084F800B00021022007F0F2FF5DE20129EA
:1026300002D0022903D005E08CF8009002E00220CD
:102640008CF800000C2C0BD2DFE804F00A061418FA
:102650000A202A2E321C363A9CF80010012032E063
:10266000B1E0D6E1CDE16CE15EE12EE1C4E08DE0C8
:102670005AE02BE09CF80010022024E09CF80010A7
:10268000032020E09CF8001006201CE09CF80010BD
:10269000072018E0EAE1DFE1C3E1BBE1B2E1C6E116
:1026A0009CF8001005200EE09CF8001008200AE0BD
:1026B0009CF800100A2006E09CF800100C2002E0B4
:1026C0009CF800100B2007F0EFFF0EE201291DD04F
:1026D00002291DD0032920D0042974D16549204640
:1026E0000C7008F0FBFD00E287E282E273E26EE22A
:1026F00069E264E25FE25AE255E250E24BE245E20F
:1027000040E21FE21BE213E2FFE1F5E1012008E0F5
:102710005949022081F8009003E0574902200870CF
:10272000032006F035FEE0E10F294CD2DFE801F08E
:102730004B080C0E181A1C1E20222426282A2C00B6
:10274000494680F8009003E0022100E00321017077
:10275000C8B208F043F904F0A1FA04F0C5FEC4E1E0
:102760000421F4E70521F2E70621F0E70721EEE76F
:102770000821ECE70921EAE70A21E8E70B21E6E76F
:102780000C21E4E70D21E2E70E21E0E701291BD04F
:10279000022918D17446524614210220CEF8009026
:1027A00006F050FE00221421042006F04BFE46EAFB
:1027B000052214210220C4F800B006F043FE0022D6
:1027C00014210420B7E0A0E07446524616210220EE
:1027D000CEF8009006F036FE00221621042006F006
:1027E00031FE46EA052216210220C4F800B006F0A8
:1027F00029FE00221621E4E7080602D48CF8009096
:1028000002E002208CF800000298012845D002283E
:102810007BD1744652461921CEF8009006F012FE84
:1028200000222BE0681B0020EA0100201902002092
:102830001A0200201F02002018020020DC020020E3
:1028400015020020E8010020510100209501002020
:10285000E70100205E01002038020020360200203F
:10286000C0020020BC020020E6010020210200205E
:102870002202002023020020160200201921042039
:1028800006F0E0FD46EA052219210220C4F800B056
:1028900006F0D8FD0022192193E7744652461B2109
:1028A0000220CEF8009006F0CDFD00221B2104206E
:1028B00006F0C8FD46EA05221B210220C4F800B03C
:1028C00006F0C0FD00221B217BE7080602D48CF82D
:1028D000009002E002208CF800000298012806D047
:1028E000022813D0032810D1FFF72AF8FDE0744620
:1028F000524620210220CEF8009006F0A3FD46EAC1
:1029000005222021C4F800B014E081E0744652464C
:102910001E210220CEF8009006F094FD46EA052222
:102920001E21C4F800B005E0012907D002296FD1AB
:1029300022462721022006F085FDD6E022462521E9
:10294000F8E7B5480B2963D2DFE801F0D406222866
:10295000323B444F52555800B04804F07F0101F516
:10296000FA6101807907090F41EAD4114180F90821
:10297000818006F01F01C1806907890E41EA561166
:1029800001813E2101EA9501418105F02DFEACE077
:10299000204605F09DFE00283AD0A6E0204603F030
:1029A0001FFA002834D09E499E4809F071F89CE037
:1029B000047047708670C570012006F003F801208E
:1029C00010E0047047708670C570022005F0FAFFB1
:1029D000022007E0047047708670C570032005F080
:1029E000F1FF032001F0B4FE7FE0FDF7A1FE7CE0E3
:1029F000FDF7ACFE79E0FDF7B7FE76E005F064FA8E
:102A000073E08948017044708770C67005716CE08E
:102A100070E0854841718471C7710672457264E047
:102A200081488172C4720773467385735DE07E4886
:102A3000C173047447748674C57480F814B001F0CF
:102A40001BFE7A480078F8B9802009F013FB76491C
:102A5000802009F0FDFA48E0C1730474477486745D
:102A6000C57480F814B001F03DFE3EE08CF8001013
:102A700040F2474009F06EF98AF800408AF8017088
:102A80008AF802608AF803502FE08AF804108AF866
:102A900005408AF806708AF807608AF8085024E032
:102AA0008AF809108AF80A409CF80020604940F230
:102AB00049400AF802B0921C15E089F8041089F820
:102AC000054089F8067089F8076089F808500CE01D
:102AD00089F8091089F80A401A78564940F23740B7
:102AE00009F802B0921C09F086FC53488078000671
:102AF0003FF53DADBDE8FE8F012A2FD0022A2FD031
:102B0000032A2FD0F6E704206CE002290CD00098AD
:102B10000D28EFD2DFE800F007222426072C282A10
:102B20002E07300A3400E5E70198F1E70B21EAE7C8
:102B300042480078012811D0022811D0DAE7404835
:102B40000178E0E700780B28D4D2DFE800F0060730
:102B5000090B0D0F111315171900CBE70121D2E74F
:102B60000221D0E70321CEE70421CCE70521CAE703
:102B70000621C8E70721C6E70821C4E70921C2E703
:102B80000A21C0E72F4801882F4802E02F4801881A
:102B90002F4800883AE02F4801882F48F9E72F484E
:102BA00001882F48F5E72F4801882F48F1E72F4883
:102BB00001882F48EDE72F4801882F48E9E72F4883
:102BC00001882F48E5E72F4801882F48E1E72F4883
:102BD00001882F48DDE7012C09D0022C8AD12D482D
:102BE0000178052003B0BDE8F04F05F0E3B92A48AD
:102BF000F6E72A4A2A49012002E0284A2849022009
:102C000002F0D6FB00288ED02988308803B0BDE8BA
:102C1000F04F05F0D9B9000013000020C0010020DA
:102C200098000020350000206B01002020020020C9
:102C3000510100205E010020681B002016020020C8
:102C40002302002034020020320200203002002043
:102C50002E020020400200203E0200203C02002004
:102C60003A020020480200204602002044020020D0
:102C700042020020500200204E0200204C020020A0
:102C80004A02002058020020560200205402002070
:102C9000520200201D0200201C02002038020020E9
:102CA0003602002008B500208DF80000694605486E
:102CB00004F06EFD012803D09DF8000001F060FCD7
:102CC00008BD0000C81B002031B5684604F0ADFB0C
:102CD00000289DF800000AD018493030194C0870BF
:102CE00017480078102805D0112811D014E003F0FF
:102CF0003FFD38BD2078022802D0012802D017E01D
:102D0000114900E011498420083109F0A1F903E0DC
:102D100009F0C0F904F022FB2078022802D0012833
:102D200002D005E00A4900E00A49902009F090F934
:102D30000249922009F08CF938BD000032010020D0
:102D400020020020EE010020BFD00008ACD0000817
:102D500035D500083AD500080E4910B51020087086
:102D600009F098F90C48007802280BD001280FD1FF
:102D70000A49802009F06CF90949BDE81040842017
:102D800009F066B90749802009F062F90649F4E7BD
:102D900010BD000020020020EE0100203FD70008F7
:102DA00072D1000834D7000866D1000831B582B06E
:102DB000002402A804F039FB00289DF808001AD06E
:102DC00008281AD0092818D0002816D000F13001A0
:102DD0008DF8001025490122097860290ED0672955
:102DE0002BD06E2909D1224D2978072905D2214BF4
:102DF0001A70214A36E003F0BBFC3EBD1F4D297816
:102E00000729FAD21E4B1A701E4A04E0135D834252
:102E1000F3D0641CE4B28C42F8D350549031C8B261
:102E2000694609F015F92878401CC0B228700728B7
:102E3000E3D215A009F0C2FD3EBD144D2978072943
:102E4000FAD2134B1A70134A04E0135D8342F3D095
:102E5000641CE4B28C42F8D3DFE7135D8342EBD00D
:102E6000641CE4B28C42F8D3D7E7000020020020B3
:102E70000C000020F5010020260000200A000020A0
:102E8000F301002018000020205F00000B0000204C
:102E9000F40100201F000020F7B515460E466846D5
:102EA00004F0C3FA20B1304609F0EAFD002408E03E
:102EB0009DF8000003F05CFCFEBD202009F0EEF858
:102EC000641CAC42F9DB164CE078A84214D2A1781D
:102ED00091B99DF80020134930320A54401CC0B209
:102EE000E07000220A54304609F0B2F8E078A842B7
:102EF00002D20DA009F062FDE078A842DCD10120E9
:102F0000A0700849304609F0A3F8084800788C28DA
:102F100001D05728D0D1022002F09EFDFEBD000056
:102F200024010020721B00205F000000200200200E
:102F300073B50D46684604F078FA20B3144C227B32
:102F4000022A17D2607B00281CD19DF8001004F1E2
:102F50001C0030318154521CD1B2217300224254E2
:102F60000146284609F074F8207B022802D209A005
:102F700009F024FD207B022804D101206073022087
:102F800002F06AFD7CBD9DF8000003F0F1FB7CBD02
:102F9000240100205F00000070B5314C2079401CF6
:102FA000C0B220713C2818D100202071E178491C62
:102FB000C9B2E1703C2910D1E070A178491CC9B2B6
:102FC000A170182909D1A0706078401CC0B264219A
:102FD000B0FBF1F201FB120060702248007801287A
:102FE0000FD18521607800F021FE9021A07800F0BB
:102FF0001DFE9221E07800F019FE9421207900F066
:1030000015FE19480078002828D0207838B901200A
:10301000207004F08FFC1549A06009F0EBFC04F06F
:1030200089FCA168401A3C21B0FBF1F510480078FA
:10303000854213D32079002810D1B5F5803F0DD2F9
:103040002078012805D10220207002F0CFF909492B
:103050000880A8B2BDE8704005F0C4BC70BD000097
:103060004401002020020020201B00209C1B002087
:10307000E3010020221B002010B502F0FBFE18B96E
:1030800002F008FF002812D009490878012804D06E
:103090000A2804D0642804D005E00A2002E0642055
:1030A00000E001200870872001F0A8F8012010BD81
:1030B000100200200E4810B50078012814D00D48E9
:1030C000012104780C48007807F0EEFA022120462E
:1030D00007F0EAFA0949802008F0BAFFBDE810407D
:1030E00007A1812000F0AABEBDE81040FDF7DEBBBD
:1030F00018020020190200201A02002013CC000838
:1031000020202B202000000008B500208DF80000B2
:103110006946054804F03CFB012803D09DF80000F7
:1031200001F02EFA08BD00002F1C00202DE9F0410F
:1031300027490446E043C7B28A78264D17434FF02B
:10314000000601F106034FF0010007D072B19C5454
:10315000521C12F003028A7003D022E09C54887043
:103160001FE01D49086000F0A7FB1AE0184A0F276E
:10317000B7EB141FD27803D11AB91C70C87010E0D5
:1031800032B19C5430EA0203CB700AD1134907E0F4
:10319000210606D5E22C13D0E32C14D010491C7064
:1031A00008602868002809D02E600A20B4FBF0F1DE
:1031B0000C4A00FB114011700B490870BDE8F0810A
:1031C0000A480660FAE70A4908602860F6E7000046
:1031D00000000020D8020020CC020020D0020020F5
:1031E000D4020020E4010020E5010020E4020020D8
:1031F000E00200202DE9F041002603F073FE0028D4
:1032000074D1574C574D207800EB800005EBC0007F
:103210000069C8B302F00EFC207800EB800105EBDA
:10322000C101097E814201D0217001262078FEF77C
:10323000EFF908F0A9F8217801EB810005EBC00057
:10324000C3693BB136B900220220984710B1012072
:1032500008F08EFF207800EB800005EBC000017BBA
:10326000912973D1006A002870D0902009F008FCE1
:10327000207800EB800005EBC000006A80472178D1
:10328000884202D138A001E003E038A009F096FBA3
:103290005CE0002602F0CEFB207800EB800105EB1D
:1032A000C101097E814200D02170207800EB8000AE
:1032B00005EBC000406A08B18047064620782C4FD5
:1032C00020280CD013DC192809D004DC142808D0DD
:1032D000162842D105E01B2801D01E283DD102F05E
:1032E0005DFF3878301A23D5002609E035E025281F
:1032F000F7D02728F5D03E281CD08A282DD1F0E71A
:10330000872000F07BFF217801EB810005EBC000F6
:10331000C36913B132460220984720781B2819D080
:103320000CDC142816D0162814D019280AD111E064
:1033300086B2E5E7BDE8F04102F064BE1E2809D080
:10334000202807D09121304600F0C2FBBDE8F041B3
:10335000FEF7D2BC02F052FFF8E7BDE8F0810000B2
:1033600020020020B00300202A0000003E000000E0
:10337000100200200E4910B51120087008F08AFED6
:103380000C48007802280BD001280FD10A49802070
:1033900008F05EFE0949BDE81040842008F058BEE0
:1033A0000749802008F054FE0649F4E710BD0000EC
:1033B00020020020EE01002056D7000872D100083C
:1033C0004BD7000866D1000870B5194C8A20322608
:1033D000207008F05FFE2078164D00EB800005EBB2
:1033E000C000406A08B18047C6B22A229021304608
:1033F00000F0FEFA10480078022802D0012807D019
:1034000010E0207800EB800005EBC001496805E082
:10341000207800EB800005EBC001896815F83000CA
:1034200008F016FEBDE87040872000F0E7BE0000FF
:1034300020020020B0030020EE0100202DE9F04121
:103440001C491D4A1D4C098812881D4B8D1A228863
:1034500019880026521A1B491B4C1FFA85FC97B28B
:1034600007281AD2DFE800F004190608131916001D
:103470000E800DE00E800EE002EBD270C0F34F0024
:10348000088005EBD570C0F34F00208005E00F8069
:10349000268002E00F80A4F800C0022209880120E3
:1034A00007F026FC2188BDE8F0410222104607F013
:1034B0001FBC00003C020020440200203A02002011
:1034C000420200204602002048020020704700000F
:1034D0002DE9F047A3480C46C178B1B3A24808F0E3
:1034E00089FD024602F0A6FA7D2C02D0432C6FD053
:1034F00036E100259D4801249D4F522A69D01BDCEE
:103500009C4EDFF8748240F27549072A62D006DCCF
:1035100032D2DFE802F0313437393B3D4600482AE9
:1035200078D004DC462A71D0472A25D170E0502A91
:1035300072D0512A20D189E0904E582A7ED00ADCE0
:10354000A2F15302052A17D200E015E0DFE802F0ED
:10355000828597999D00602A71D007DC884B40F2E4
:103560007E40592A6CD05A2A06D1B2E085481018FC
:1035700067D0854940186FD00020BDE8F08706F07D
:10358000F9FFEDE043207DE045207BE0022190E063
:103590000320FEF73DF87D488421006800F0FCFA26
:1035A000DEE008F077FD21463470484608F0D2FB93
:1035B00098F80000022805D07549802008F048FDE1
:1035C000744917E07449802008F042FD734918E0FF
:1035D000B3E03DE008F05EFD29463570484608F04E
:1035E000B9FB98F80000022806D06949802008F04D
:1035F0002FFD6B49902093E06749802008F028FD5B
:10360000684987208CE005E000E005E0932039E080
:10361000902037E0942035E005706349386888428F
:1036200012D162480188A1F57F42FF3A0CD141884E
:10363000FF2909D18088FF2806D103E038E04EE059
:1036400039E05DE08E201DE08D201BE00470FBE77B
:103650008F2017E08C2015E065E055482146047066
:1036600040F2794008F076FB5248544905605248D0
:1036700000780870042007F0A9F8072002E0032171
:1036800017E09520FDF7C4FF6AE004F00FFA50B18F
:1036900008F000FD4A49802008F0DAFC86213088D5
:1036A00000F0C4FA5CE008F0F5FC4649802037E001
:1036B00006210170C8E721461C70044608F04AFB49
:1036C00041A1802008F0C4FC2D49204604F07CFA7A
:1036D00046E029461D7008F03DFB3FA1E6E708F0F3
:1036E000D9FC41A1802008F0B3FC42488521007834
:1036F00000F09CFA40A1902008F0AAFC9621CEE7A9
:1037000008F0C8FC3FA1802008F0A2FC83213868A3
:1037100002F0A8FF3DA1902008F09AFC3D499320BB
:1037200008F096FC1CE008F0B5FC3BA1802008F0F6
:103730008FFCFDF765FB3EA15CE73B2A00D93B22ED
:103740004048D4B24049047004EB8400087090B241
:103750002A22902100F04CF92146062008F0FAFABE
:1037600001200AE724010020721B00202C1B0020EE
:10377000B8020020EB010020EE010020280200200A
:10378000201B0020A298F7FF2D89FCFF281B00209A
:103790004DCD000869CD000838CD000862CD000885
:1037A00075CD00086ECD000808E40400CC010020AF
:1037B000E2010020AC02002019020020D501002007
:1037C000EDCB0008FECB00084F50454E204C4F4734
:1037D0002046554E43000000434C4F5345204C4F6C
:1037E000472046554E4300004C6F67204166746584
:1037F000723A0000E30100204C6F67204E756D6245
:10380000653A00004B65793A000000004D6F646531
:103810006C3A0000C3CB0008636C656172203234DF
:103820006336342E77616974696E672E000000007C
:10383000636C6561722032346336342E2E2E4F4B0A
:1038400021000000ED010020F601002070B51849AC
:1038500000220B78FF2B26D18B7823BB154C4B789D
:103860008E1F0025C9782478452B06D0462B0CD016
:10387000552B0ED0562B13D015E0BC2913D1357122
:103880000AE000BF08F03CFA08E0BB290BD1012296
:1038900009E0AC2907D175717E2CF3D0002070BDF2
:1038A000AB2900D1022200B10270012070BD0000DE
:1038B00006000020200200200D4810B500780028E6
:1038C00014D00C48FFF7C2FF00280FD00A4909485E
:1038D0000A682AB901220A6008490978052902D133
:1038E000007807F065FD06490020086010BD000063
:1038F0000D02002015020020301B002019020020BC
:10390000CC02002070B52D480D46C17849B32C4833
:1039100008F070FB2B4C80B27F2D02D0802D25D07B
:1039200047E0B0F5F06F1DD9FCF7A8FC0A2008F0BD
:103930001FFC02F077F808F0ADFB2078022802D0D7
:10394000012806D023E02049832008F081FB1F498D
:1039500004E01F49832008F07BFB1E49902008F0FB
:1039600077FB14E01C4908801C4921E0B0F5966FF4
:103970001BD9FCF783FC0A2008F0FAFB02F052F88E
:1039800008F088FB2078022803D0012807D0002007
:1039900070BD0D49832008F05BFB1149DEE70C493F
:1039A000832008F055FB0F49D8E70F4908800F49DD
:1039B000088002F03FF8012070BD000024010020C3
:1039C000721B0020EE010020EDD400089CCD000801
:1039D000F8D40008ACCD00082E0200203A020020E6
:1039E000B8CD0008C8CD0008300200203C020020FD
:1039F0002DE9FC410D464FF47A71B0FBF1F30A2139
:103A0000B3FBF1F401FB14336424B0FBF4F4B4FB16
:103A1000F1F701FB1744B0FBF1F7B7FBF1FC00260F
:103A2000009601FB1C718DF8002020222143EC46FA
:103A300001968DF80120194332D04FF00A02B0FBF5
:103A4000F2F7B7FBF2F102FB117102FB170201F171
:103A500030011C43C9B202F1300226D06424B0FB0D
:103A6000F4F00A24B0FBF4F704FB17003030C0B2C6
:103A70000BB330338DF802308DF803008DF804104D
:103A80008DF805205FF006000FA10CF800602846B5
:103A900008F0DEFA6946284608F0DAFABDE8FC814B
:103AA00030308DF802000320EEE78DF802108DF81B
:103AB00003200420E8E78DF802008DF803108DF84C
:103AC00004200520E0E70000202020202020000026
:103AD0002DE9FC4105464FF47A70B5FBF0F00F4636
:103AE0000A24B0FBF4F104FB11006421B5FBF1F1F1
:103AF000B1FBF4F204FB1212B5FBF4F1B1FBF4F3E9
:103B000004FB131300B300F1300600BF8DF8006012
:103B100052EA00061AD002F1300600BF1A438DF8AF
:103B20000160024314D0303304FB11508DF8023091
:103B300030308DF8030000208DF8040069463846C7
:103B400008F086FABDE8FC812026DFE72026E5E7BD
:103B50002023E9E71CB504460020ADF80400ADF8C9
:103B600000000B480078012801D00A4800786A4616
:103B700001A901F01DFC2146BDF80400FFF7A8FFD4
:103B8000A41CE1B27822BDF80000FFF731FF1CBD94
:103B900018020020150200201CB50C462149224BBA
:103BA000B0FBF1F201FB1201B1FBF3F2B0FBF3F158
:103BB00003FB110130328DF8002042F21073B1FB8B
:103BC000F3F2B0FBF3F130328DF8012003FB110268
:103BD0004FF47A71B2FBF1F230328DF80220B0FB73
:103BE000F1F201FB12026421B2FBF1F230328DF8E6
:103BF0000320B0FBF1F201FB12020A21B2FBF1F249
:103C000030328DF80420B0FBF1F201FB12003030AD
:103C10008DF8050000208DF806006946204608F062
:103C200017FA1CBD40420F00A086010038B50246BD
:103C300064200C46B2FBF0F100FB11200A23B2FB1A
:103C4000F3F1B0FBF3F003FB112270B110F130007F
:103C50008DF8000030328DF8012000208DF8020030
:103C60006946204608F0F4F938BD2020F0E700004E
:103C700010B508F00FFA0B48007802280BD0012885
:103C80000FD10949802008F0E3F90849BDE8104048
:103C9000902008F0DDB90649802008F0D9F90549DF
:103CA000F4E710BDEE010020BCCF0008D7CF00081C
:103CB000AFCF0008C4CF000870B51F4C1FA12088EB
:103CC00085B2962008F0C4F996212846FFF7AEFF8A
:103CD000A088942180B2FFF7A9FF2089922180B2A9
:103CE000FFF7A4FF1649208B097880B2022909D07A
:103CF00001291FD107281DD2DFE800F00A0C0E10A1
:103D000012141600BDE87040C0B2992100F036B818
:103D10000CA10AE00DA108E00EA106E00FA104E04D
:103D200010A102E011A100E012A1BDE870409820AE
:103D300008F08EB970BD0000801B0020202000001C
:103D4000EE01002053756E2E000000004D6F6E2EA8
:103D50000000000054756573000000005765642E74
:103D60000000000054687572000000004672692E61
:103D7000000000005361742E0000000038B50C46AE
:103D80000021C822009107280FD2DFE800F00408C4
:103D900013181C2126008DF80020D52003E0D22026
:103DA0008DF80000BB208DF801006946204608F020
:103DB0004FF938BDB6208DF80000FE20F3E78DF8EE
:103DC0000020FD20EFE7CB208DF80000C420EAE7BB
:103DD000CE208DF80000E520E5E7C1208DF8000039
:103DE000F920E0E710B5902008F044F907A19020F1
:103DF00008F02EF906480078022805D00549BDE8EC
:103E00001040912008F024B90349F8E73E00000073
:103E1000EE01002024D500081FD5000805480068E1
:103E2000012803D00449932008F012B90249083947
:103E30009120F9E7DC02002018DB00082DE9F34FA0
:103E4000564C83B094F8411000F0AAF894F8400062
:103E5000012875D094F84280002043245621422541
:103E60005322312632274FF0470A4FF0410B4FF0D3
:103E7000440C4FF049094FF0480EB8F10D0F59D2DC
:103E8000DFE808F05807101D3161384773277F6A53
:103E90004E008DF800408DF801108DF802508DF81D
:103EA00003206BE08DF800408DF801108DF8025072
:103EB0008DF803206EE000BF8DF805003AE08DF824
:103EC00000408DF801108DF802508DF80320332149
:103ED0001CE08DF800408DF801108DF802508DF82F
:103EE0000320342112E08DF800208DF801108DF8A8
:103EF00002001FE059218DF8001050218DF80110AB
:103F000062228DF802208DF8031072218DF80410C2
:103F1000D2E78DF800108DF801A08DF802B018E0FE
:103F20008DF800108DF801A08DF802B01AE000BFE6
:103F30008DF80400049808F041FD684608F03EFD45
:103F400005B0BDE8F08F8DF800C08DF801108DF838
:103F500002908DF80360EBE78DF800C08DF801103A
:103F60008DF802908DF80370E2E78DF800E08DF88F
:103F700001C04D218DF802108DF803908DF804607A
:103F80009AE78DF800E08DF801C04D218DF8021000
:103F90008DF803908DF804708EE70000D8010020A2
:103FA0002DE9FC5F86460020432456223125322627
:103FB00044274FF047084FF0410A4FF0490C4FF0AB
:103FC00048094FF04D0B0D296BD2DFE801F06A076D
:103FD0000E17254C2C3B5E1D705542008DF800409D
:103FE0008DF801208DF8025005E08DF800408DF825
:103FF00001208DF802608DF8030052E08DF800403A
:104000008DF80120332104E08DF800408DF8012067
:1040100034218DF80210EEE78DF800408DF8012074
:104020008DF802003DE059218DF8001050218DF8E7
:10403000011062228DF802208DF8031072218DF894
:1040400004102CE08DF800208DF801808DF802A07E
:104050000FE08DF800208DF801808DF802A011E0AE
:104060008DF804001DE08DF800708DF801208DF8AA
:1040700002C08DF80350F3E78DF800708DF8012031
:104080008DF802C08DF80360EAE78DF800908DF896
:1040900001708DF802B08DF803C08DF804508DF8D2
:1040A00005006946704607F0D3FFBDE8FC9F8DF818
:1040B00000908DF801708DF802B08DF803C08DF876
:1040C0000460ECE7F8B50D4D00242878002813D0E3
:1040D0000B4E0BE0305D694630308DF8000004F186
:1040E0009000C0B207F0B4FF641CE4B228788442A8
:1040F000F0D304A008F062FCF8BD00000A00002024
:1041000018000020205F0000F8B50D4D002428782D
:10411000002813D00B4E0BE0305D694630308DF82F
:10412000000004F19000C0B207F092FF641CE4B2FA
:1041300028788442F0D304A008F040FCF8BD0000C9
:104140000B0000201F000020205F0000F8B50D4D7F
:1041500000242878002813D00B4E0BE0305D694610
:1041600030308DF8000004F19000C0B207F070FF0D
:10417000641CE4B228788442F0D304A008F01EFC4A
:10418000F8BD00000C00002026000020205F000089
:104190007CB5174A00210A231678B6FBF3F5B5FB68
:1041A000F3F203FB12546A461CB130348DF8004020
:1041B000012103FB156430345454491C2E245454FB
:1041C0000C4C491C2478B4FBF3F503FB1543303346
:1041D0005354491C2D235354491C0023535408F0B5
:1041E0004FFC684608F0EAFB034808F0E7FB7CBD9B
:1041F000E4010020E5010020B6CB000810B508F06E
:104200003FFC0BA008F0DAFB0A4890F8380064285D
:1042100008D00A2808D0012808D107A0BDE810401E
:1042200008F0CCBB05A0F9E705A0F7E710BD00003A
:10423000A1C00000D8010020312020003130300022
:104240003130200010B5902007F014FF07A1902016
:1042500007F0FEFE06480078022805D00549BDE8B3
:104260001040912007F0F4BE0349F8E73E0000003B
:10427000EE01002030D500082BD5000870B54FF4B2
:1042800000642146164800F075FE00BB154A012166
:104290000023D078E0B1D088A0F16505312D00D29F
:1042A0001371B0F5487F04D20F4D167925F816002A
:1042B00002E05078401C5070D3801079401CC0B28E
:1042C0001071212802D1117013715370D37001E065
:1042D000D380D1702046BDE8704000F01DB80000CA
:1042E00000080140401B0020961C002010B56420EF
:1042F00007F06CFF0221054800F03CFE08B9FDF70D
:104300007FFEBDE81040022000F006B80014014016
:104310000A2007F05BBF00000149086070470000F9
:104320001404014030B51A498379026853B30B680D
:1043300093430B600A1D13680468A343136002795A
:104340000A441368046823431360114A083213684F
:104350000468A3431360131D1C680568AC431C600C
:104360004479102C05D021440A68006802430A6091
:1043700030BD116804682143116019680068014369
:10438000196030BD0079084401689143016030BD77
:10439000000401407FB50121212003F019FA022415
:1043A000ADF80C4048208DF80F0003A9104800F02C
:1043B00065FD0121032000F04DFD00258DF804501E
:1043C0000C2000948DF8050001248DF80640684605
:1043D000FFF7A8FF07208DF808008DF809408DF839
:1043E0000A508DF80B4002A802F036FD7FBD000098
:1043F000001401400149C8607047000000200240DD
:1044000070B5054640F6FF76304600F055F80428B2
:1044100013D10A4C206940F00200206165612069D7
:1044200040F040002061304600F046F8012804D0FA
:10443000216941F6FD721140216170BD00200240EA
:1044400008490420CA68D20701D001207047CA6811
:10445000520701D502207047C968C906FBD5032061
:10446000704700000020024070B506460D460F2040
:1044700000F022F804280FD1084C206940F0010018
:10448000206135800F2000F017F8012804D0216941
:1044900041F6FE721140216170BD00000020024013
:1044A0000348024941600349416070472301674561
:1044B00000200240AB89EFCD00B50346FFF7C0FFF7
:1044C00005E0FF20401EFDD1FFF7BAFF5B1E01286B
:1044D00002D1002BF5D101E0002B00D1052000BD59
:1044E0000A2A37D2DFE802F02C05080B0E13181D3C
:1044F00022270A23122227E06C23742224E0CE23F1
:10450000D62221E04FF498734FF49C721CE04FF4D4
:10451000C9734FF4CD7217E04FF4FA734FF4FE7283
:1045200012E040F2562340F25E220DE04FF42E736B
:104530004FF4307208E040F21A3340F2223203E0C6
:104540004FF45F734FF4617200B1036001B10A6010
:10455000012070470020704740F2DE3201290AD066
:10456000022903D0032904D00020704740F2E3322F
:1045700001E04FF47A7200B1026001207047000040
:1045800010B5104C1049002223782BB1092B08D00C
:10459000C8545B1C237010BDAA28FCD108700120F0
:1045A0000EE00D280BD1487201200B5C401C5A40D4
:1045B0000828FADB087A904201D1FDF733FF00208A
:1045C000207010BD00000020681B002070B5074C53
:1045D000054604202070FFF763FF3520FFF70AFF30
:1045E0002846FFF70DFF207070BD0000D4010020A9
:1045F00030B500220D4D86B00C481346153569467E
:1046000010F8014B8C542344521CDBB2A842F7D360
:104610000078984208D1064B064C00200A5C1A54D8
:104620002254401C1528F9DB06B030BD00FC0308FD
:104630006B0100208001002030B500220C4D86B0B7
:104640000B4813461535694610F8014B8C5423442A
:10465000521CDBB2A842F7D30078984206D1054A33
:1046600000200B5C1354401C1528FADB06B030BD4B
:1046700000F40308950100202DE9F041164E0024B6
:1046800086B0254613493046FFF7A0FF1349684618
:104690000A5D02552A44641CD5B2152CF8DB8DF84E
:1046A00015500D4F3446002516370D4E80460AE052
:1046B00008EB050001882046FFF7D6FE3070A41CE9
:1046C000AD1CBC4202D230780428F1D006B0BDE85F
:1046D000F08100000000040800FC03086B010020CA
:1046E000D40100202DE9F041164E002486B0254665
:1046F00013493046FFF76AFF134968460A5D0255C1
:104700002A44641CD5B2152CF8DB8DF815500D4FDA
:104710003446002516370D4E80460AE008EB0500AA
:1047200001882046FFF7A0FE3070A41CAD1CBC42DF
:1047300002D230780428F1D006B0BDE8F081000044
:1047400000F8030800F4030895010020D4010020BC
:1047500010B5174B044616481A785978C0789B78DC
:10476000012C0FD0022C18D0032C0AD1104CA41EFF
:10477000227061700F490B700321FBF741FF0E4956
:10478000087010BD0A4CA41F227061700B490B7099
:104790000121FBF735FF0A49F2E7054C241F22707F
:1047A000617008490B700221FBF72AFF0649E7E711
:1047B00013000020F2010020F5010020F00100208C
:1047C000F3010020F1010020F40100202DE9F04167
:1047D000424E05460820307007F05CFC01F0DEFC1C
:1047E0003F4C2078022802D0012802D005E03D4944
:1047F00000E03D49802007F02BFC902008F040F9B4
:104800003AA008F0DBF83A4F38780028207804D036
:10481000022843D0012843D046E0022802D00128D4
:1048200002D005E0334900E03349912007F010FC45
:10483000012D02D0022D15D02CE030482A460188E7
:10484000032006F061FD2E482A460188042006F068
:104850005BFD2C482A460188012006F055FD2A46BA
:10486000294813E029482A460188032006F04CFD18
:1048700027482A460188042006F046FD25482A4696
:104880000188012006F040FD23482A4601880220C5
:1048900006F03AFD012038700A201CE01F4900E0B4
:1048A0001F49912007F0D4FB2A460021032006F07F
:1048B0002BFD2A460021042006F026FD2A46002171
:1048C000012006F021FD2A460021022006F01CFDF1
:1048D0000020387009203070BDE8F08120020020EF
:1048E000EE01002085D0000878D000082A000000E2
:1048F0001402002095D0000890D000086A02002021
:104900006C0200206E020020700200207202002063
:10491000740200207602002078020020A3D0000854
:104920009ED000082DE9F041424E05460820307027
:1049300007F0B0FB01F032FC3F4C2078022802D097
:10494000012802D005E03D4900E03D49802007F004
:104950007FFB902008F094F83AA008F02FF83A4F27
:1049600038780028207804D0022843D0012843D08A
:1049700046E0022802D0012802D005E0334900E0D9
:104980003349912007F064FB012D02D0022D15D090
:104990002CE030482A460188032006F0B5FC2E485A
:1049A0002A460188042006F0AFFC2C482A460188DC
:1049B000012006F0A9FC2A46294813E029482A4686
:1049C0000188032006F0A0FC27482A46018804201D
:1049D00006F09AFC25482A460188012006F094FC3E
:1049E00023482A460188022006F08EFC01203870F8
:1049F0000A201CE01F4900E01F49912007F028FB16
:104A00002A460021032006F07FFC2A4600210420CC
:104A100006F07AFC2A460021012006F075FC2A46A1
:104A20000021022006F070FC002038700920307050
:104A3000BDE8F08120020020EE01002085D00008B2
:104A400078D000082A0000001402002095D0000849
:104A500090D000087A0200207C0200207E02002014
:104A600080020020820200208402002086020020B2
:104A700088020020A3D000089ED0000870B5354EF3
:104A800008200D46307007F005FB33483349344C9D
:104A900000880988884220D1324833490088098833
:104AA00088421AD12078022811D03049822007F09C
:104AB000CFFA2FA1912007F0CBFA0A2001F058FE7F
:104AC0000A2007F055FBBDE8704003F045BA2C49B9
:104AD000822007F0BDFA2B49ECE72078022802D0AB
:104AE000012802D005E0284900E02849802007F08D
:104AF000AFFA902007F0C4FF25A007F05FFF2878E9
:104B00000028207804D0022813D0012813D016E002
:104B1000022802D0012802D005E01E4900E01E490B
:104B2000912007F095FA06F059F9012028700A2023
:104B30000AE01A4900E01A49912007F089FA06F0C4
:104B40000DF90020287009203070BDE8704007F092
:104B50002FB90000200200203A0200202A02002083
:104B6000EE0100203C0200202C02002038D1000879
:104B7000506C65617365205365742053697A6500D4
:104B80002DD1000825D7000885D0000878D000086E
:104B90002A00000095D0000890D00008A3D000089B
:104BA0009ED000082DE9F041424E054608203070A5
:104BB00007F070FA01F0F2FA3F4C2078022802D098
:104BC000012802D005E03D4900E03D49802007F082
:104BD0003FFA902007F054FF3AA007F0EFFE3A4F5B
:104BE00038780028207804D0022843D0012843D008
:104BF00046E0022802D0012802D005E0334900E057
:104C00003349912007F024FA012D02D0022D15D04E
:104C10002CE030482A460188032006F075FB2E4818
:104C20002A460188042006F06FFB2C482A4601889A
:104C3000012006F069FB2A46294813E029482A4644
:104C40000188032006F060FB27482A4601880420DB
:104C500006F05AFB25482A460188012006F054FB3D
:104C600023482A460188022006F04EFB01203870B6
:104C70000A201CE01F4900E01F49912007F0E8F9D5
:104C80002A460021032006F03FFB2A46002104208B
:104C900006F03AFB2A460021012006F035FB2A46A1
:104CA0000021022006F030FB00203870092030700F
:104CB000BDE8F08120020020EE01002085D0000830
:104CC00078D000082A0000001402002095D00008C7
:104CD00090D000085A0200205C0200205E020020F2
:104CE00060020020620200206402002066020020B0
:104CF00068020020A3D000089ED000082DE9F041F2
:104D0000424E05460820307007F0C4F901F046FA1B
:104D10003F4C2078022802D0012802D005E03D490E
:104D200000E03D49802007F093F9902007F0A8FEAD
:104D30003AA007F043FE3A4F38780028207804D094
:104D4000022843D0012843D046E0022802D001289F
:104D500002D005E0334900E03349912007F078F9AB
:104D6000012D02D0022D15D02CE030482A460188B2
:104D7000032006F0C9FA2E482A460188042006F0CE
:104D8000C3FA2C482A460188012006F0BDFA2A46BB
:104D9000294813E029482A460188032006F0B4FA7E
:104DA00027482A460188042006F0AEFA25482A46FC
:104DB0000188012006F0A8FA23482A46018802202B
:104DC00006F0A2FA012038700A201CE01F4900E01A
:104DD0001F49912007F03CF92A460021032006F0E4
:104DE00093FA2A460021042006F08EFA2A46002172
:104DF000012006F089FA2A460021022006F084FAF2
:104E00000020387009203070BDE8F08120020020B9
:104E1000EE01002085D0000878D000082A000000AC
:104E20001402002095D0000890D000084A0200200B
:104E30004C0200204E0200205002002052020020AE
:104E4000540200205602002058020020A3D000087F
:104E50009ED0000810B58A0721F003040649130FFD
:104E600021440F228C689A4094438C608A68984051
:104E700002438A6010BD000000000140F0B5CA780E
:104E8000002502F00F03D20601D58A7813430C786F
:104E90004FF00F0E0122ECB1D0F800400F8802FA5B
:104EA00005F63740B74211D14FEA850C0EFA0CF7E0
:104EB00024EA070703FA0CF43C43CF78282F02D0EA
:104EC000482F02D002E0466100E006616D1C082D0B
:104ED000E4D304600C88FF2C1ED944685FF0000600
:104EE00006F1080702FA07F50F882F40AF420FD1ED
:104EF0004FEA860C0EFA0CF7BC4303FA0CF73C435E
:104F0000CF78282F00D14561CF78482F00D1056197
:104F1000761C082EE4D34460F0BD0000F0B5144CBC
:104F2000002801DAE36900E06368420D120185B2EE
:104F3000C0F301579540C0F30346032F05D0C202CA
:104F40000AD50322B240934307E023F070626368FE
:104F500023F07063636002E0AB4343F0706201B121
:104F60002A43002801DAE261F0BD6260F0BD000072
:104F7000000001400246002092680A4200D0012051
:104F8000704741617047016170470000044940204B
:104F90000978012902D0022900D141207047000080
:104FA0001602002004490E200978012902D00229A6
:104FB00000D10F20704700001502002030B52D48A9
:104FC0002C2302882C48B2F5AF6F01882B4839D0CA
:104FD0000FDC4FF44874A24219D04FF48065AA4206
:104FE00013D0B2F5A06F14D0A2F5A062563A0CD13E
:104FF00026E0B2F5B46F27D0B2F5C86F26D0B2F56F
:10500000D26F2ED0B2F5F06F2DD0037030E02B218F
:105010002DE0A94201D1312129E0B1F5347F06D03C
:10502000B1F5407F05D0A14205D12F211FE02D21F0
:105030001DE02E211BE0B1F5707F19D1302116E063
:10504000322114E0332112E0342110E0B1F5966FE3
:1050500003D0B1F5617F02D00AE0362107E03521A7
:1050600005E0372103E0B1F5876F01D138210170E8
:10507000007830BD2A0200202C02002020020020EF
:1050800008493C200978322907D03C2904D01E2940
:1050900005D0192900D13D2070473B2070473A20A8
:1050A00070470000EF0100200148007870470000C1
:1050B00023020020F8B585480024854F0278854DED
:1050C000854E1E2A4AD00CDC3846142A016811D0BD
:1050D000162A15D08148192A007817D01B2A1BD10F
:1050E00028E0202A79D0252A78D0272A77D08A2A42
:1050F00012D1E3E0012901D07948A8E07948A6E07F
:10510000012901D07848A2E07848A0E0012904D024
:1051100001280BD002280BD0D4E0012802D00228AD
:1051200002D0CFE0724892E0724890E072488EE080
:1051300072488CE0012904D001280BD002280BD042
:10514000C0E0012802D0022802D0BBE06C487EE01B
:105150006C487CE06C487AE06C4878E0684600F087
:1051600013FA386801289DF8000004D0012829D0DE
:1051700002283BD0A6E0012802D0022811D0A1E0ED
:105180002878072807D0052807D0082807D00A283C
:1051900005D05F485BE05F4859E05F4857E05F48F3
:1051A00055E03078072807D0052807D0082807D011
:1051B0000A2805D05A484AE05A4848E05A4846E08A
:1051C0005A4844E0287807280AD005280AD0082839
:1051D0000AD00A2808D0564839E018E070E073E099
:1051E000544834E0544832E0544830E030780728DE
:1051F00007D0052807D0082807D00A2805D050482E
:1052000025E0504823E0504821E050481FE0684620
:1052100000F0BAF9386801289DF8000004D0012890
:105220002AD0022839D04DE0012802D0022812D01D
:1052300048E02878072807D0052807D0082808D094
:105240000A2806D0424802E0424800E0424804886A
:1052500038E04248FBE73078072807D0052807D018
:10526000082807D00A2805D03D48F0E73D48EEE77A
:105270003D48ECE73D48EAE72878072807D00528AD
:1052800007D0082807D00A2805D03948DFE7394871
:10529000DDE73948DBE73948D9E73078072807D018
:1052A000052807D0082807D00A2805D03448CEE7BB
:1052B0003448CCE73448CAE73448C8E7344800E00B
:1052C000344804782046F8BD3348FAE7200200202D
:1052D000DC020020190200201A0200201502002022
:1052E000300200202E020020340200203202002072
:1052F0003A020020420200203C020020440200202A
:105300003E02002046020020400200204802002009
:105310004A0200205A0200206A0200207A0200207D
:10532000520200206202002072020020820200204D
:105330004C0200205C0200206C0200207C02002055
:105340005402002064020020740200208402002025
:105350004E0200205E0200206E0200207E0200202D
:1053600056020020660200207602002086020020FD
:105370005002002060020020700200208002002005
:1053800058020020680200207802002088020020D5
:10539000230200201C0200201D02002003490920D6
:1053A0000978012900D10A2070470000140200206A
:1053B00070B5012815460E464FF005000DD000F0DF
:1053C000B9F80446062000F0B5F806B1348005B1FE
:1053D00028804CB140B1012070BD00F025F8044692
:1053E000062000F021F8F0E7002070BD70B50D4DEB
:1053F00040F27B46288800EB800101F590618CB279
:10540000401C81B22980304606F0FFFC601DB0F5DB
:10541000005F05D30021741D2980304606F0F5FC9D
:10542000204670BD2802002038B5014610A0002497
:10543000006800909DF80100102008430D498DF888
:1054400001000C600421684606F08AF941F28830B8
:1054500006F040FC50B1084A00206946135C0B542A
:10546000401CC0B20428F9D3BDF80240204638BD24
:10547000FFFF0000CC0200200600002006490B20A0
:105480000978012904D0022903D0032900D10C2076
:1054900070470D20704700001802002015492C208D
:1054A000097810290AD2DFE801F009080A090C0E70
:1054B00010141618121A1C1E20222A2070472B20A6
:1054C00070473120704732207047342070473520B4
:1054D00070473620704737207047382070472D209E
:1054E00070472E2070472F207047302070473320A0
:1054F000704700001F0200200348007808B15F20B9
:1055000070475E2070470000F301002003480078D8
:1055100008B166207047652070470000F401002044
:105520000348007808B16D2070476C207047000078
:10553000F501002038B5014610A000240068009055
:105540009DF80100302008430D498DF801000C60E2
:105550000421684606F004F94FF4FA6006F0BAFB3D
:1055600050B1084A00206946135C0B54401CC0B27D
:105570000428F9D3BDF80240204638BDFFFF0000E3
:10558000CC0200200600002007490978012908D034
:1055900006490978012904D00221002800D00170B1
:1055A00070470121F9E700001502002018020020D1
:1055B000024800680249086070470000E8F7FF1FD2
:1055C000281B0020F0B58DB0044630221C496846E7
:1055D000FAF7CAFD60696423411E91FBF3F2CD170F
:1055E00001EB9575C2EBA5029E0091FBF6F5154403
:1055F000226987070DD190FBF3F703FB170323B94B
:1056000090FBF6F306FB130018B9022A01DD012016
:1056100000E000206B4603EB8202E36852F8042CA2
:105620001A4440F26D1301FB035111440844072151
:1056300090FBF1F201FB1200A0610DB0F0BD000083
:1056400054CB0008FEE7000010B50C4C802120462A
:10565000FFF797FC012001F0B3FB40212046FFF744
:1056600092FC012001F0ACFB40212046FFF789FCB1
:10567000BDE81040012001F0A3BB0000000C014078
:10568000F8B548208DF803008020ADF80000032015
:10569000154E8DF80200002569463046FFF7EEFBF7
:1056A00000246806070E40213046FFF76CFC0120FD
:1056B00001F086FB80213046FFF75CFC40EA0705DD
:1056C00040213046FFF75DFC012001F079FB641CAE
:1056D000E4B2082CE5D310208DF80300694630466B
:1056E000FFF7CCFB2846F8BD000C0140F8B5482078
:1056F0008DF8030003208DF802008020124EADF8D3
:10570000000069463046FFF7B9FB40213046FFF7FD
:105710003AFC42F2107506E080213046FFF72AFC81
:1057200001280FD001246D1EF6D240213046FFF72C
:1057300028FC10208DF8030069463046FFF79EFBD9
:105740002046F8BD0024F0E7000C014010B50E4CD7
:1057500080212046FFF717FC012001F031FB40219A
:105760002046FFF710FC012001F02AFB8021204693
:10577000FFF707FC012001F023FB2046BDE81040A5
:105780004021FFF7FEBB0000000C014010B50E4C9D
:1057900080212046FFF7F5FB012001F011FB40219D
:1057A0002046FFF7F0FB012001F00AFB8021204694
:1057B000FFF7E9FB012001F003FB2046BDE81040A4
:1057C0004021FFF7DEBB0000000C014070B5124E17
:1057D0000546002428064FF08001304602D5FFF729
:1057E000D2FB01E0FFF7CDFB6806050E012001F0BA
:1057F000E7FA40213046FFF7C6FB012001F0E0FA4E
:1058000040213046FFF7BDFB012001F0D9FA641CAE
:10581000E4B2082CDED370BD000C014070B5054623
:105820000C4610F01F001CD0C0F12006642006F0CA
:10583000ABFCB44218D33146284600F01BF8A01B3D
:1058400084B2A81985B20CE0642006F09DFC202CDF
:105850000AD32021284600F00DF8203C2035A4B2C0
:10586000ADB2002CF0D170BDE1B22846BDE8704069
:10587000AFF3008070B50C460546FFF767FFA02028
:10588000FFF7A4FFFFF732FF002822D0C5F3042062
:10589000FFF79CFFFFF72AFF00281AD0E8B2FFF7B6
:1058A00095FFFFF723FF002813D0012001F088FAAD
:1058B00006E0FF20FFF78AFFFFF718FF002808D057
:1058C0002000A4F10104E4B2F3D1BDE87040FFF779
:1058D0005DBF70BD70B514460D460646FFF736FF36
:1058E000A020FFF773FFFFF701FF002823D0C6F3C6
:1058F0000420FFF76BFFFFF7F9FE00281BD0F0B282
:10590000FFF764FFFFF7F2FE002814D0012001F03A
:1059100057FA07E02878FFF759FF6D1CFFF7E6FEFE
:10592000002808D02000A4F10104E4B2F2D1BDE8BF
:105930007040FFF72BBF70BD70B514000D460646D2
:1059400030D0FFF703FFA020FFF740FFFFF7CEFEA8
:10595000002827D0C6F30420FFF738FFFFF7C6FE64
:1059600000281FD0F0B2FFF731FFFFF7BFFE00287D
:1059700018D0FFF7EBFEA120FFF728FFFFF7B6FED8
:1059800000280FD0FFF77CFE05F8010B012C01D099
:10599000FFF75AFE641E2404240CF3D1BDE87040C6
:1059A000FFF7F4BE70BD2DE9F041064614460F46E0
:1059B00010F01F0020D0C0F12005642006F0E4FBA9
:1059C000AC421DD32A4639463046FFF783FF601BA1
:1059D00084B2701986B22F440EE0642006F0D4FB26
:1059E000202C0DD3202239463046FFF773FF203C90
:1059F0002036A4B2B6B22037002CEED1BDE8F0813B
:105A0000E2B239463046BDE8F041FFF763BF00001F
:105A1000034803494E3190F8410048707047000038
:105A2000D801002002480021C17081707047000039
:105A30002401002007480021C1708170017141716B
:105A40008171C171017241728172C17201734173BE
:105A500070470000240100202DE9F041AD4FAF4C0C
:105A600000253A78AC4EE17840F2ED388D2A77D0B7
:105A700012DC872A26D008DC072A63D0842A15D0B6
:105A8000852A17D0862A6CD118E0882A1ED0892A48
:105A900020D08C2AF7D17CE08E3AA14E082A60D221
:105AA000DFE802F0FAEFEE295F374A1C114601F0F9
:105AB0005DFC2CE1114601F0DFFB28E1114601F00D
:105AC0002DFA24E1114601F05FFA20E1114601F0C0
:105AD0008DFA1CE1114601F00FFC18E10029E8D015
