:020000040800F2
:10000000A8230020450100086B9800086D7B0008BC
:100010000198000819080008790201080000000092
:10002000000000000000000000000000DDBA000831
:10003000994A000800000000C5A50008C1F90008A1
:100040005F0100085F0100085F0100086DA800085B
:100050005F0100085F0100085F010008616200089D
:100060005F0100085F0100085F0100085F010008F0
:100070005F0100085F0100085F0100085F010008E0
:100080005F0100085F0100085F0100085F010008D0
:100090005F0100085F0100085F0100088562000839
:1000A0005F0100085F0100085F0100085F010008B0
:1000B0005F01000881FA00085F0100085F01000885
:1000C0005F0100085F0100085F0100085F01000890
:1000D0005F0100086DFD0008B5FD0008E5FD0008A2
:1000E000AD6100085F0100085F0100085F010008C2
:1000F0005F0100085F0100085F0100085F01000860
:100100005F0100085F0100085F0100085F0100084F
:100110005F0100085F0100085F0100085F0100083F
:100120005F0100085F0100085F0100085F0100082F
:10013000DFF80CD000F040F800480047A510010897
:10014000A82300200648804706480047FEE7FEE750
:10015000FEE7FEE7FEE7FEE7FEE7FEE7FEE7FEE777
:10016000C5F900083101000840EA01039B0703D0EC
:1001700009E008C9121F08C0042AFAD203E011F8E6
:10018000013B00F8013B521EF9D2704730B50B46D7
:10019000014600202022012409E021FA02F59D42B7
:1001A00005D303FA02F5491B04FA02F52844151E8B
:1001B000A2F10102F1DC30BD064C074D06E0E0681B
:1001C00040F0010394E8070098471034AC42F6D39E
:1001D000FFF7B2FFB02B0108D02B010870B58C18C7
:1001E00010F8015B15F0070301D110F8013B2A114B
:1001F00006D110F8012B03E010F8016B01F8016B38
:100200005B1EF9D12B0705D40023521E0DD401F833
:10021000013BFAE710F8013BCB1A921C03E013F8FC
:10022000015B01F8015B521EF9D5A142D8D3002031
:1002300070BD000010B50D480078022808D10C49A7
:10024000802010F087FB0B49902010F083FB0BE01F
:1002500006480078012807D10749802010F07AFB72
:100260000649902010F076FB10BD00002D02002002
:1002700063180108AA1901086B1801089A190108E6
:1002800010B510F08FFB0D480078022808D10C49FA
:10029000822010F05FFB0B49902010F05BFB0BE01D
:1002A00006480078012807D10749822010F052FB48
:1002B0000649902010F04EFB10BD00002D020020DA
:1002C000E917010807180108F71701081C180108A9
:1002D00010B5E4200FF01EFD012004490870084607
:1002E000017840F27A4010F019F910BDDE010020CB
:1002F00010B501200AF0C2F900200AF0BFF910BDC4
:1003000001460020044A10884FF67F4210400843FF
:10031000014A1080704700002C6C004008B501466F
:100320000020009003480090009808440090009836
:10033000008808BD006C004001490860704700005B
:1003400000860D4208B500220092044A0092009AED
:1003500002440092009A116008BD0000006C004049
:1003600010B52B480078602818D12A480078401E24
:100370002849087000202849264A127888542549BF
:1003800009789031C8B225A110F0E4FA2149097822
:100390009131C8B222A110F0DDFA38E01C48007893
:1003A000672818D11F480078401E1E490870002099
:1003B0001D491C4A127888541A4909789031C8B2EC
:1003C00016A110F0C7FA174909789131C8B214A1E3
:1003D00010F0C0FA1BE00E4800786E2817D11348C1
:1003E0000078401E11490870002011490F4A127808
:1003F00088540E4909789031C8B208A110F0AAFAC1
:100400000A4909789131C8B205A110F0A3FA10BDCC
:10041000EE020020130000200C0000205F0000000E
:10042000200000001D0000201600002027000020F2
:100430002000002010B5BF48007885283DD1BEA11E
:10044000862010F087FABD480078D8B98420B949D1
:100450000870BB480078002804DDB9480078401EC9
:10046000B74908700020B7490870B7A1832010F081
:1004700071FA0020B649B24A12788854832010F0ED
:1004800069FA16E0AD480078012812D1AB4800782F
:10049000002804DDA9480078401EA8490870002003
:1004A000AC490870AC49A54A12788854862010F0EF
:1004B00051FAAAA010F000FF3BE19E480078862880
:1004C00039D19DA1882010F045FAA5480078D8B907
:1004D00085209849087099480078002804DD9748DD
:1004E0000078401E9549087000209A49087092A132
:1004F000862010F02FFA00209749904A12788854ED
:10050000862010F027FA12E09548007801280ED1D5
:1005100093480078401E9249087000209149087065
:1005200091498F4A12788854882010F013FA8BA0D2
:1005300010F0C2FEFDE07F480078872878D17EA1C8
:10054000922010F007FA89480078002856D1884890
:10055000007803281ED186207649087080480078EC
:10056000002804DD7E480078401E7D490870002088
:100570007C49087070A1882010F0ECF900207A49BD
:10058000774A12788854882010F0E4F973A010F0AC
:1005900093FECEE07648007801282AD1754800788D
:1005A000012806D15D206349087000207249087057
:1005B00014E070480078022806D164205D49087074
:1005C00000206E49087009E06A480078032805D1C8
:1005D0006B205849087000206949087069A184207F
:1005E00010F0B8F9842010F0EBFE5CA010F064FE6F
:1005F0009FE068A1922010F0ADF99AE05B48007886
:10060000012897D159480078401E584908700020A9
:100610006149087000216148544A127881540146AA
:10062000922010F097F94DA010F046FE81E0FFE710
:100630004048007888283FD13FA1942010F08AF9E3
:1006400057480078D8B987203A4908704748007859
:10065000002804DD45480078401E44490870002009
:100660004D49087034A1922010F074F900204B49D4
:100670003E4A12788854922010F06CF918E04848ED
:100680000078002814DD46480078002804DD44483E
:100690000078401E4249087000204249087000213D
:1006A00041483F4A127881540146942010F052F993
:1006B0002AA010F001FE3CE01E480078892838D1BD
:1006C0001DA1962010F046F938480078D8B9882046
:1006D0001849087032480078002804DD3048007856
:1006E000401E2F49087000202E49087012A1942046
:1006F00010F030F900202C49294A127888549420AF
:1007000010F028F912E02948007801280ED1274876
:100710000078401E254908700020254908702549A9
:10072000224A12788854962010F014F90BA010F089
:10073000C3FD10BDEE020020202000002B01002090
:10074000270100202601002020202020000000009A
:10075000041E00202C010020280100205F00000062
:1007600030010020310100202D0100203501002042
:10077000240100207A0200202F02002030020020F5
:100780003102002020202020202020202020202096
:10079000000000005F200000360100203201002030
:1007A0003A0100203B010020370100203F010020DA
:1007B000400100203C01002070B506460C46002593
:1007C00011480078002804DD0F480078401E0E49CB
:1007D000087000200D490870304610F0F1FD00252A
:1007E00003E0202010F0E4F86D1CA542F9DB0020A6
:1007F0000749054A12788854304610F0ABF805A036
:1008000010F05AFD70BD00002701002026010020D5
:10081000041E00205F00000000BFFEE730B5024666
:100820000B46002102F0010008B9002030BD012B69
:1008300004D0022B4AD0032B47D18FE002F00200F4
:10084000022805D1012508464C1CE1B2694C25540B
:1008500002F00400042805D1022508464C1CE1B230
:10086000644C255402F0010028B1032508464C1CB5
:10087000E1B2604C255402F01000102805D1042587
:1008800008464C1CE1B25B4C255402F020002028A5
:1008900005D1052508464C1CE1B2564C255402F002
:1008A0004000402805D1062508464C1CE1B2514CB9
:1008B000255402F08000802805D1072508464C1CED
:1008C000E1B24C4C25544C4801708FE002F002001C
:1008D000022805D1012508464C1CE1B2474C25549D
:1008E00002F00400042805D1022508464C1CE1B2A0
:1008F000424C255402F0010028B1032508464C1C47
:10090000E1B23E4C255402F01000102805D1042518
:1009100008464C1CE1B2394C255402F02000202836
:1009200005D1052508464C1CE1B2344C255402F093
:100930004000402805D1062508464C1CE1B22F4C4A
:10094000255402F08000802805D1072508464C1C5C
:10095000E1B22A4C25542A48017047E002F0020017
:10096000022805D1012508464C1CE1B2254C25542E
:1009700002F00400042805D1022508464C1CE1B20F
:10098000204C255402F0010028B1032508464C1CD8
:10099000E1B21C4C255402F01000102805D10425AA
:1009A00008464C1CE1B2174C255402F020002028C8
:1009B00005D1052508464C1CE1B2124C255402F025
:1009C0004000402805D1062508464C1CE1B20D4CDC
:1009D000255402F08000802805D1072508464C1CCC
:1009E000E1B2084C25540848017000BF00BF012047
:1009F0001CE700000C00002013000020160000205F
:100A00001D000020200000202700002010B500203D
:100A100004490870FF200449087048700BF090F9F1
:100A200010BD00002F0200200A00002010B5002099
:100A300004490870FF200449087048700BF0A0F9C1
:100A400010BD0000300200201400002010B500206E
:100A500004490870FF200449087048700BF0B0F991
:100A600010BD0000310200201E0000207CB50446AD
:100A70000D4616462AA103C9CDE900012A4800788F
:100A800068280DD004DC52281ED0612830D104E043
:100A90006F2808D072282BD108E0FFF7B7FF27E0B6
:100AA000FFF7C4FF24E0FFF7D1FF21E000201F493A
:100AB00008701F49087010F09DF81D48017840F239
:100AC000F2300FF02BFD13E0002010F01FFA194850
:100AD000017840F217400FF021FD1748017840F2ED
:100AE00019400FF01BFD40F21B400FF023FD00BF2B
:100AF00000BF12A190200FF02DFF114800780228AE
:100B000004D1694686200FF025FF07E00C480078E5
:100B1000012803D10BA186200FF01CFF01207CBD12
:100B2000D2D1C8A1CFFB0000EE0200203902002084
:100B30003602002050020020580200202A00000047
:100B40002D02002043616E63656C207375636365DD
:100B50007373000010B508200E4908700FF022FFD3
:100B60000D480078022808D10C4982200FF0F2FECF
:100B70000B4990200FF0EEFE0BE0074800780128AB
:100B800007D1084982200FF0E5FE074990200FF0B9
:100B9000E1FE10BDEE0200202D020020741B0108B2
:100BA000591B01087F1B0108691B010810B5264865
:100BB00000782649097888420ED123484078234995
:100BC0000978884208D0204840780F2804DA1E4966
:100BD00048780DF0E7FE36E01B4840781B4909785D
:100BE00088420ED11848007818490978884208D000
:100BF000154800780F2804DA134908780DF0D2FE62
:100C000021E00820124908700FF0CCFE114800784E
:100C1000022808D1104982200FF09CFE0F49902035
:100C20000FF098FE07E00E4982200FF093FE0DA111
:100C300092200FF08FFE0F2008F072FA0A200FF0BA
:100C400061FF0AF003FB10BDCA03002085020020EB
:100C5000EE0200202D020020741B01082922010849
:100C60007F1B01084E6F2053776974636800000092
:100C700070B504460D460026CA480078012802D106
:100C8000C948067810E0C7480078022803D0C54854
:100C90000078032808D1C5480078012802D1C2484D
:100CA000067801E0C2480678C2480078B0422BD1ED
:100CB000C1480078A04222D1C0480078A842FAD1A9
:100CC000BF480078E0B1BE48007800F045FEBA4861
:100CD0000078BC4909780844182190FBF1F201FB27
:100CE0001200B5490870B5480078B749097808443A
:100CF0003C2190FBF1F201FB1200B04908704FE17A
:100D00000020B24908704BE1AD480078B04244D1B0
:100D1000A9480078A042F2D1A8480078A842EED1B4
:100D2000AB480078E0B1AA48007800F015FEA24870
:100D30000078A84909780844182190FBF1F201FBDA
:100D400012009D4908709D480078A349097808441D
:100D50003C2190FBF1F201FB1200984908701FE161
:100D60009448007800F0F8FD934800789B49097892
:100D70000844182190FBF1F201FB12008E49087023
:100D80008E4800789649097808443C2190FBF1F29E
:100D900001FB12008949087002E18D480078B042D9
:100DA00044D185480078A042A9D184480078A8425F
:100DB000A5D18C480078E0B18A48007800F0CCFDDD
:100DC0007D480078884909780844182190FBF1F2A1
:100DD00001FB120078490870784800788349097847
:100DE00008443C2190FBF1F201FB120073490870AA
:100DF000D6E07048007800F0AFFD6F480078774982
:100E000009780844182190FBF1F201FB12006A49AD
:100E100008706A4800787249097808443C2190FBC0
:100E2000F1F201FB120065490870B9E06D480078E5
:100E3000B04244D160480078A04290D15F48007829
:100E4000A8428CD16A480078E0B16948007800F087
:100E500083FD59480078674909780844182190FBB8
:100E6000F1F201FB120054490870544800786249BD
:100E7000097808443C2190FBF1F201FB12004F4934
:100E800008708DE04B48007800F066FD4A48007815
:100E9000524909780844182190FBF1F201FB120035
:100EA00045490870454800784D49097808443C2177
:100EB00090FBF1F201FB12004049087070E04C48D1
:100EC0000078B04244D13C480078A04268D13B4809
:100ED0000078A84264D149480078E0B147480078DA
:100EE00000F03AFD34480078454909780844182153
:100EF00090FBF1F201FB12002F4908702F48007897
:100F00004049097808443C2190FBF1F201FB1200B2
:100F10002A49087044E02748007800F01DFD264863
:100F200000782E4909780844182190FBF1F201FB62
:100F3000120021490870214800782949097808449D
:100F40003C2190FBF1F201FB12001C49087027E0E4
:100F50002A480078B04223D117480078A0421FD118
:100F600016480078A8421BD11248007800F0F4FC23
:100F700011480078194909780844182190FBF1F2CA
:100F800001FB12000C4908700C48007814490978DC
:100F900008443C2190FBF1F201FB12000749087064
:100FA00070BD000084020020850200208102002024
:100FB000870200203A020020370200203802002079
:100FC0003B020020410200204702002036020020A0
:100FD0003C02002042020020480200204002002083
:100FE000460200203D02002043020020490200206A
:100FF0003E020020440200204A0200203F0200205E
:10100000450200204B02002010B50E4B1B88834286
:1010100013DB0C4B1B88834203D10A4B5B888B424A
:101020000BDB084B1B8883420AD1064B5B888B4243
:1010300006D1044B9B88934202DC0123024C2360BF
:1010400010BD0000C8010020F00100200246C2EBE4
:10105000C200024B03EB4000405C704706030020D7
:101060001FB511A103C9CDE9020100200090019034
:10107000062202A906F038FF05200FF043FD0622E4
:101080006946002006F0F8FE002409E002A8005D91
:101090001DF80410884202D0002004B010BD641C6A
:1010A000062CF3DB0120F8E701020304050600002B
:1010B00010B50C48007808B9002010BD0948017827
:1010C00009480FF09DFB044606F068FF07480068DA
:1010D000844202D00648844201D10120EDE700207D
:1010E000EBE7000027010020041E0020140200206E
:1010F0001B2F08002DE9F84F4E48007810B900204A
:10110000BDE8F88F4C48006842F21071B0FBF1F274
:1011100001FB12054748017848480FF071FB06466D
:1011200006F03CFF280140EAA52087B24448007839
:1011300028444349097908444149097A0844404907
:10114000097B084480023E49096829443C4A5268A8
:1011500011443B4A92681144394AD268114440EA2A
:1011600021101FFA80F8680140EA65201FFA80F913
:10117000680240EA65101FFA80FA87EA0800C0F3A7
:101180000D0B89EA0A00C0F30D00009087EA080001
:10119000C0F30D00B04225D12A48007810B309F001
:1011A00049FB29490978C1EB01118900C1EB011103
:1011B00000EB8104200E25490870200C4870200A9D
:1011C0008870CC70052240F289400FF02DFF204836
:1011D0000460204800780DF0E5FB00201E490870EF
:1011E00001208DE7A82E22D11C480078F8B109F023
:1011F00021FB1B490978C1EB011100EB8104200E92
:1012000012490870200C4870200A8870CC700522A2
:1012100040F289400FF008FF0D4804600D48007847
:101220000DF0C0FB00200C490870012068E7002089
:1012300066E7000027010020F4010020041E0020C2
:10124000101E0020040200200502002006020020DB
:101250000C020020860200200B0200200202002067
:10126000030200202DE9F0412548007810B9002044
:10127000BDE8F0812348006842F21071B0FBF1F242
:1012800001FB12041E4801781F480FF0B9FA054609
:1012900006F084FE1D48854201D10120E8E72001C7
:1012A00040EAA42086B21A48007D20441849097CEF
:1012B00008441749097B08448102154840692044C5
:1012C000134A12691044124AD268104441EA2010AD
:1012D00087B2A00240EA24101FFA80F886EA0700CD
:1012E000C0F30D00A84201D10120C1E786EA080041
:1012F000C0F30D00A84201D10120B9E70020B7E7F3
:1013000027010020F4010020041E0020A9663203FA
:10131000301E00202DE9F0412248007810B900204D
:10132000BDE8F0812048006842F21071B0FBF1F294
:1013300001FB12041B4801781C480FF061FA0546B6
:1013400006F02CFE200140EAA42087B2A00240EA69
:10135000241086B287EA0600C0F30D00A84202D02E
:101360001348854208D11348134908604FF486603A
:101370000FF054F90120D3E70F4800680D49884267
:1013800003D00D480068854207D00B480068094922
:10139000884204D10948007808B90120C0E700203C
:1013A000BEE7000027010020F4010020041E0020F9
:1013B000A966320308E40400F8010020DD010020E2
:1013C0002DE9F04F8DB004468946924630224049BF
:1013D0006846FEF7C9FE651E3E480088461E642129
:1013E00095FBF1F12846EA1705EB9272C1EBA201D9
:1013F0004FF4C87295FBF2F201EB020B642196FBED
:10140000F1F13046F21706EB9272C1EBA2014FF4F4
:10141000C87296FBF2F211440C91E11704EB917142
:101420008910A4EB810189B9642194FBF1F201FBDD
:10143000124131B94FF4C87194FBF1F201FB124132
:1014400021B9B9F1020F01DD012700E0002740F2C8
:101450006D1005FB00B1A9F101005DF82000084402
:10146000504407441B490888C11700EB917189104B
:10147000A0EB8101B1B917490988642291FBF2F30D
:1014800002FB131139B913490988920091FBF2F359
:1014900002FB131131B90F494988022902DD4FF0CF
:1014A000010801E04FF0000840F26D1070430C9904
:1014B000014408484088401E5DF820000844054962
:1014C000898808448044A8EB07000DB0BDE8F08F80
:1014D000C8140108C801002008480078452807D032
:1014E000462804D0552805D0732805D101E000BF57
:1014F00000BF00BF012070470020FCE7EE02002083
:1015000010B541F65E3140F2A24006F019FC002011
:10151000064908800846018840F27C400FF06EF8CA
:1015200040F2A2400249088010BD0000E001002006
:10153000E201002010B54FF40051062006F000FC37
:1015400010BD000010B50821284805F095FE38B1FF
:101550000121264805F090FE10B1012024490870B1
:1015600023480078002833D00821204805F084FE65
:1015700070BB01211D4805F07FFE48BB1D48007867
:1015800088B100201A4908701B48007818B9FF205C
:101590001949087007E018480078401E164908707D
:1015A0000020164908701648007888B100201049BC
:1015B000087011480078401C0F49087001200F493D
:1015C00008700D480078FF2802D100200A490870F1
:1015D0000821064805F050FE09490870012103481A
:1015E00005F04AFE0349087010BD000000140140D8
:1015F000B61D0020B51D0020CD030020CC03002027
:10160000B41D002070B50546CD2D71D017DC062D18
:101610007FD005DC6ED2DFE805F039434D57616FAE
:101620000C2D68D006DC082D7FD0092D6FD00B2D36
:1016300060D191E0CB2D6BD0CC2DF9D1AAE042F254
:101640001121681A8D426ED019DC41F6A331A5EB49
:1016500001008D4268D00BDCCE2D70D0A5F22D108C
:1016600000286DD0A0F5905031380028E0D1B9E0C5
:10167000012870D0A0F279500028D9D1D0E00628F6
:10168000C8D2DFE800F037E1EBF8EEED002404E02B
:101690008A48005D8A490855641C152CF8DB09E16D
:1016A000002404E08748005D85490855641C152C1A
:1016B000F8DBFFE0002404E08348005D8049085522
:1016C000641C152CF8DBF5E0002404E07F48005D85
:1016D0007B490855641C152CF8DBEBE0002404E082
:1016E0007B48005D76490855641C152CF8DBE1E069
:1016F0005AE00EE0DDE039E0002404E07548005DCA
:101700006F490855641C152CF8DBD3E00DE018E098
:1017100036E0002404E07048005D69490855641C07
:10172000152CF8DBC6E085E066E0002404E06B4899
:10173000005D63490855641C152CF8DBBAE03DE0F8
:1017400046E0002404E06648005D5D490855641CDD
:10175000152CF8DBAEE059E0002404E06148005DA0
:1017600057490855641C152CF8DBA3E0002404E05D
:101770005D48005D52490855641C152CF8DB99E062
:10178000002404E05948005D4D490855641C152C9F
:10179000F8DB8FE0002404E05548005D4849085517
:1017A000641C152CF8DB85E0002404E05148005D42
:1017B00043490855641C152CF8DB7BE0002404E049
:1017C0004D48005D3E490855641C152CF8DB71E05E
:1017D000002404E04948005D39490855641C152C73
:1017E000F8DB67E0002404E04548005D3449085513
:1017F000641C152CF8DB5DE0002404E04148005D2A
:101800002F490855641C152CF8DB53E0002404E034
:101810003D48005D2A490855641C152CF8DB49E059
:10182000002404E03948005D25490855641C152C46
:10183000F8DB3FE0002404E03548005D204908550E
:10184000641C152CF8DB35E0002404E03148005D11
:101850001B490855641C152CF8DB2BE0002407E01D
:101860001DE012E007E02C48005D15490855641C96
:10187000152CF8DB1EE0002404E02848005D104928
:101880000855641C152CF8DB14E0002404E02448FF
:10189000005D0B490855641C152CF8DB0AE0002498
:1018A00004E02048005D06490855641C152CF8DB4F
:1018B00000E000BF00BF04F005FF70BDD0260108A6
:1018C00068010020E5260108FA2601080F27010813
:1018D00024270108392701084E270108632701083A
:1018E000782701088D270108A2270108B7270108DA
:1018F000CC270108E1270108F62701080B28010879
:1019000020280108352801084A2801085F28010815
:1019100074280108892801089E280108B3280108B5
:10192000C8280108DD28010870B506460D46307844
:10193000302801D1012D0CD0002403E0305D054991
:101940000855641CAC42F9DB00200249485504F0FC
:1019500037FF70BD9201002010B5044608200E49E3
:10196000087001220D48017820460EF01DF89020E5
:101970000FF004F80A480078022804D1094992209F
:101980000EF0E8FF07E006480078012803D1064979
:1019900092200EF0DFFF10BDEE0200208102002039
:1019A0002D020020171D0108221D010870B506F048
:1019B000F5FADE480078012822D10820DC490870B9
:1019C0000EF0F0FFDB480078022808D1DA498220C7
:1019D0000EF0C0FFD94991200EF0BCFF07E0D849B6
:1019E00082200EF0B7FFD7A191200EF0B3FF0020A8
:1019F00007F096FB0A200FF085F809F027FC93E129
:101A000000240025D2480078012803D10220D049C3
:101A1000087006E0CE480078022802D10120CC49A7
:101A200008700DF0D3FE00B170BDC14800781F28CA
:101A30000DD006DC092812D00A280FD01D284AD163
:101A400004E0222841D03E2845D10BE000BFC14A26
:101A5000C149BF48007805F0EBFE00BF00BF06F0AB
:101A6000DBFF5FE1B249097801EB8101BB4A02EB80
:101A7000C101486A804705468DB9AE480078022802
:101A800004D1B74991200EF065FF1BE0A94800780A
:101A9000012817D1B34991200EF05CFF12E0012D0F
:101AA00010D1A4480078022804D1AF4991200EF04B
:101AB00051FF07E09F480078012803D1AB499120EE
:101AC0000EF048FF06F0A8FF2CE106F0A5FF9120DC
:101AD00003F018FE26E10820954908700EF062FF19
:101AE00092480078012815D192480078022804D144
:101AF0009F4980200EF02EFF07E08E4800780128D5
:101B000003D19C4980200EF025FF9BA1832003F088
:101B1000B7FF07E0994980200EF01CFF98A18120B3
:101B200003F0AEFF8A480078012816D19648047861
:101B300080480078022804D1944997200EF00AFFCB
:101B400007E07C480078012803D1914997200EF0E6
:101B500001FF0E207649087019E07D4800780228C0
:101B600015D18C48047873480078022804D18A493A
:101B700097200EF0EFFE07E06E480078012803D1B1
:101B8000864997200EF0E6FE0F20694908700D2C5B
:101B900019D2DFE804F0C507192B4F8A6173A13D04
:101BA000B39C850063480078022804D17C499020CA
:101BB0000EF0D0FE07E05F480078012803D1794994
:101BC00090200EF0C7FEABE05A480078022804D1FE
:101BD000754990200EF0BEFE07E0564800780128B7
:101BE00003D1724990200EF0B5FE99E0514800787B
:101BF000022804D16E4990200EF0ACFE07E04D485B
:101C00000078012803D16B4990200EF0A3FE87E0F5
:101C100048480078022804D1674990200EF09AFEC7
:101C200007E044480078012803D1644990200EF071
:101C300091FE75E03F480078022804D16049902069
:101C40000EF088FE07E03B480078012803D15D498B
:101C500090200EF07FFE63E036480078022804D121
:101C6000594990200EF076FE07E0324800780128AE
:101C700003D1564990200EF06DFE51E02D480078BA
:101C8000022804D1524990200EF064FE07E0294852
:101C90000078012803D14F4990200EF05BFE3FE011
:101CA0004DA190200EF056FE3AE02248007802281E
:101CB00004D14B4990200EF04DFE07E01D480078FE
:101CC000012803D1474990200EF044FE28E046A1A8
:101CD00090200EF03FFE23E016480078022804D141
:101CE000434990200EF036FE07E0124800780128A4
:101CF00003D1404990200EF02DFE11E00D480078F0
:101D0000022804D13C4990200EF024FE07E0094847
:101D10000078012803D1394990200EF01BFE00BF46
:101D200000BF00BF00BF00BF00BF7DE684020020EF
:101D3000EE0200202D020020741B01083E22010843
:101D40007F1B01085573656420446F75626C6500E4
:101D5000810200209602002094020020D00300207F
:101D60000F200108142001081B2001082020010871
:101D7000631801086B180108200000006A150108AB
:101D8000202B20200000000085020020871B010876
:101D90008D1B010887020020921B0108981B010877
:101DA0008D18010893180108A31801089718010855
:101DB000A91801089B180108AF1801089F1801080D
:101DC000B5180108BC180108D3180108E11801086A
:101DD000E7180108EF1801085647413200000000DB
:101DE000C3180108CF18010844564932000000000A
:101DF000F318010800190108051901081319010851
:101E000010B5044608200D4908700EF0CBFD0C48B3
:101E10000078022808D10B4982200EF09BFD0A4968
:101E200090200EF097FD07E0084982200EF092FD09
:101E300007A192200EF08EFD10BD0000EE020020E2
:101E40002D020020741B01082C1801087F1B0108BB
:101E50004E6F20537570706F7274405468697320B0
:101E6000547970650000000010B506F0C5FB68B13C
:101E700040480068012804D104219120FEF79CFC11
:101E800077E004219420FEF797FC72E006F0A2FBB5
:101E900020B103219120FEF78FFC6AE036480078DC
:101EA000862857D018DC7D2838D00CDC602857D025
:101EB00004DC072837D0432857D13AE0672850D0B0
:101EC0006E2852D14EE07F2838D0802837D0842821
:101ED0003AD0852849D13CE087380E2845D2DFE842
:101EE00000F03A3B3C44441B231C11440C440716AD
:101EF00005219120FEF760FC3AE003219120FEF7D6
:101F00005BFC35E00B219120FEF756FC30E00A2106
:101F10009120FEF751FC2BE000BF00BF062191206D
:101F2000FEF74AFC24E000BF08219120FEF744FCA4
:101F30001EE002219120FEF73FFC19E000BF0421C2
:101F40009720FEF739FC13E004218320FEF734FCD0
:101F50000EE000BF00BF00BF00BFFEF76BFA07E056
:101F600000BF00BFFEF7FCF902E0FFF71FFD00BF56
:101F700000BF10BD6C020020EE02002010B5044628
:101F8000654804700EF00EFD64480078022834D1D4
:101F90006148007800EB8000614901EBC0004068B7
:101FA00078B15D4A127802EB82020B4603EBC20263
:101FB0005168594A127802EB820213F832000EF08F
:101FC000C9FC5548007800EB8000554901EBC00082
:101FD0000069002848D0504A127802EB82020B4672
:101FE00003EBC20211694C4A127802EB820203EB46
:101FF000C202107B0EF0AEFC36E0484800780128A3
:1020000032D14548007800EB8000454901EBC00023
:10201000806878B1404A127802EB82020B4603EBEB
:10202000C20291683C4A127802EB820213F8320035
:102030000EF090FC3848007800EB8000384901EB46
:10204000C000406980B1344A127802EB82020B462C
:1020500003EBC2025169304A127802EB820203EBB1
:10206000C202107B0EF076FC2B4800789C280CD125
:102070002C48007820B12C4990200EF06BFC49E0F0
:102080002A4990200EF066FC44E0234800789D2801
:102090000CD12748007820B1264990200EF05AFC38
:1020A00038E0254990200EF055FC33E01A480078BE
:1020B0009E2804D1214990200EF04CFC2AE01648BD
:1020C00000789F2804D11E4990200EF043FC21E0A7
:1020D00011480078A02804D11A4990200EF03AFC4B
:1020E00018E00D480078A12807D00B480078A228F6
:1020F00003D009480078A32804D1134990200EF09A
:1021000029FC07E004480078982803D10F49912062
:102110000EF020FC10BD0000EE0200202D02002079
:10212000D0030020040200205D2601084C2601088F
:10213000020200207F2601086E2601089026010871
:10214000A1260108B2260108C32601084A26010873
:1021500013B50C46684607F065FF00B91CBD17486B
:10216000007802281DDA16480078D0B99DF80000E2
:102170003030C1B2114802780078401C0F4B187003
:102180001048815400200F491A461278885420467E
:102190000EF0E0FB09480078022802DA0AA00FF0EE
:1021A0008BF806480078022805D101200449087000
:1021B000022005F025FF00BFD0E70000300100201D
:1021C000310100202D0100205F00000070B50025C6
:1021D00007F0E0FB00B170BD9A48007800EB80008A
:1021E000994901EBC0000069002863D005F0D6FED4
:1021F0009448007800EB8000934901EBC000407EDA
:102200009049097888420AD08E48007800EB800017
:102210008D4901EBC000407E8A490870012589483C
:102220000078FFF7ABFE0DF0D1FA8648007800EB9E
:102230008000854901EBC000C06980B17DB981484B
:10224000007800EB800001EBC0000022C3697D48EC
:1022500001780320984710B101200EF053FC794813
:10226000007800EB8000784901EBC000007B9128EA
:102270001BD17448007800EB800001EBC000006ABD
:10228000002812D090200FF09BF86E49097801EBDE
:1022900081016D4A02EBC101086A804769490978EA
:1022A000884203D169A00FF007F8C7E068A00FF0DB
:1022B00003F8C3E0002405F071FE6248007800EBEB
:1022C0008000614901EBC000407E5E490978884288
:1022D00009D05C48007800EB80005B4901EBC0004E
:1022E000407E584908705748007800EB80005649F6
:1022F00001EBC000406A48B15249097801EB810105
:10230000514A02EBC101486A804704464D480078B3
:1023100020281DD00CDC19281BD004DC142810D078
:1023200016283FD10EE01B2814D01E283AD10EE00B
:10233000252819D0272818D03E2830D08A2831D116
:102340001EE000BF43480078204484B22BE000BF69
:1023500000BF00BF3F480078204484B206F05CFB19
:10236000872003F00DFE1EE000BF3A4800782044AD
:1023700084B2642C00DD6424872003F001FE12E0A7
:10238000344800782044642801DD642403E03148A7
:102390000078204484B2872003F0F2FD03E006F0C9
:1023A00025FA18E717E700BF264800781B2810D148
:1023B00029480068012806D128480088844208DAA4
:1023C0002648048805E026480088844201DA24482B
:1023D00004881C48007800EB80001B4901EBC0001A
:1023E000C06958B11748007800EB800001EBC000CD
:1023F0002246C369134801780320984711480078A2
:102400001B280FD006DC142809D0162808D019285C
:102410000DD106E01E2806D0202808D104E000BF18
:1024200000BF00BF00BF00BF06F03AFB04E09121EF
:10243000204603F019F900BF00BF00BF00F0B4FA56
:1024400000BFC8E6EE020020D00300202A000000F2
:102450003E0000007C0200206C0200209002002060
:102460009202002010B505F099FD1A480078532813
:1024700003D018480078552819D140F21B400EF0BF
:1024800059F815480078022804D1144980200EF02C
:1024900061FA07E010480078012803D110A18020DC
:1024A0000EF058FA05200EF02DFB0EF07BFA0948CD
:1024B000007800EB80000E4901EBC000C07E0549AA
:1024C000087008460078FFF759FD00F06DFA0DF02E
:1024D0007DF910BDEE0200202D020020ED23010841
:1024E0004261636B7570206F70656E6564000000FB
:1024F000D003002010B53E2004490870084600783B
:10250000FFF73CFD06F072F910BD0000EE0200205E
:1025100010B505F043FD79480078012851D178487D
:102520000078072803D0764800780C280ED175482B
:10253000008838B97448008820B97449012004F033
:1025400057FBD9E0012004F00DFCD5E06C48007881
:10255000052803D06A4800780B280ED16C48008803
:1025600038B96C48008820B96B49012004F040FB61
:10257000C2E0012004F0B8F9BEE061480078082804
:1025800003D05F4800780A280ED16448008838B923
:102590006348008820B96349012004F029FBABE0BF
:1025A000012004F063FAA7E05F48008828B95F487B
:1025B000008810B903F0BCFE9EE0012004F0A6FCE8
:1025C0009AE05B480078012802D14D48047801E088
:1025D00058480478072C03D0494800780C2820D1AB
:1025E0005348007801280AD14648008838B946483F
:1025F000008820B94549012004F0FAFA7BE04C48F4
:102600000078022808D14C48008828B94B48008837
:1026100010B903F08DFE6EE04548007804F0A2FB8F
:1026200069E0052C03D0364800780B2820D14048BB
:10263000007801280AD13648008838B93548008822
:1026400020B93549012004F0D3FA54E03848007825
:10265000022808D13A48008828B93A48008810B9B9
:1026600003F066FE47E03248007804F03DF942E0AE
:10267000082C01D00A2C20D12D48007801280AD13D
:102680002648008838B92648008820B92549012005
:1026900004F0AEFA2FE026480078022808D12A4834
:1026A000008828B92948008810B903F041FE22E0CB
:1026B0001F48007804F0DAF91DE01D480078012871
:1026C00008D11948008828B91848008810B903F0C3
:1026D0002FFE10E016480078022808D11C48008818
:1026E00028B91C48008810B903F022FE03E0104806
:1026F000007804F00BFC00BF10BD00008402002035
:1027000085020020BA020020BC0200207D020020C9
:10271000CA020020CC0200207E020020DA02002043
:10272000DC0200207F020020AA020020AC02002070
:102730008102002087020020C2020020C402002083
:10274000D2020020D4020020E2020020E402002095
:10275000B2020020B402002013B50C46684607F010
:1027600061FC20B99DF8000006F0DAFC1CBD17489A
:10277000007802281DDA16480078D0B99DF80000CC
:102780003030C1B2114802780078401C0F4B1870ED
:102790001048815400200F491A4612788854204668
:1027A0000EF0D8F809480078022802DA0AA00EF0E4
:1027B00083FD06480078022805D1012004490870ED
:1027C000022005F01DFC00BFD0E70000350100200D
:1027D00036010020320100205F00000070B506467F
:1027E0000D46304607F0FEFB044604B970BD5B4859
:1027F00000786B281AD006DC542877D05D2809D0E1
:10280000642806D10CE0712816D08128F9D15448EB
:10281000047091E0534804700120534908708BE024
:102820005248047001205049087085E050480470F7
:1028300001204D4908707FE04E480078072859D2A2
:10284000DFE800F05804070F1B2B3F004A480470D4
:1028500050E049480078844200D1C7E747480470F7
:1028600048E045480078844203D0444800788442D8
:1028700000D1BBE7424804703CE03F480078844206
:1028800007D03E480078844203D03D480078844217
:1028900000D1ABE73B4804702CE037480078844215
:1028A0000BD036480078844207D0354800788442FF
:1028B00003D034480078844200D197E7324804704E
:1028C00018E02D48007884420FD02C4800788442CC
:1028D0000BD02B480078844207D02A4800788442E5
:1028E00003D029480078844201D17FE707E02748D8
:1028F000047000BF00BF01201B4908701CE0244881
:10290000006890B9002006E0224911F81010A14299
:1029100000D16BE7401C204909788842F4DB1D494F
:102920001D4A127801F8124005E01A481A49097840
:1029300000EB4100447000BF00BF01200CF03CFFE1
:1029400010201649087016A128460EF003F82146FB
:10295000284603F08DF900BF48E70000EE02002092
:10296000850200202F0200202501002030020020D7
:1029700031020020390200203A0200203B020020F0
:102980003C0200203D0200203E0200203F020020C9
:1029900054020020821E0020580200200103002063
:1029A000202020202020000010B55C48007804285A
:1029B0000ED006DC00286DD0022820D0032879D163
:1029C00025E0052832D0992875D09A28F7D19DE0C6
:1029D00083215348008802F047FE78228521514820
:1029E000008802F099FD93214F48008802F03CFED8
:1029F000782295214D48008802F08EFD8CE09520CC
:102A000003F068FA4A4983200DF0A4FF84E0842192
:102A10004848006802F09AFE4748007828B12D2205
:102A200086214548007802F077FD75E008F062FCE9
:102A300042488088FF2817D040484088FF2813D09C
:102A40003F4990200DF086FF3C490888932102F011
:102A50000BFE3A494888962102F0CCFE3749888817
:102A6000982102F0C7FE14E036480078022808D109
:102A7000354991200DF06EFF344990200DF06AFF2A
:102A800007E0334991200DF065FF32A190200DF051
:102A900061FF41E03248006808BB324800780128F5
:102AA00026D128480078022806D12F4980200DF031
:102AB00051FF09E02FE024E022480078012803D1EB
:102AC0002A4980200DF046FF29A1832002F0D8FF7B
:102AD0002848007820B128A189200DF03BFF0FE0A5
:102AE0002648007860B126A189200DF033FF07E069
:102AF000244980200DF02EFF23A1812002F0C0FF89
:102B00000AE0234993200DF025FF05E009480068FD
:102B100003F08CFA00E000BF00BF10BDEE02002001
:102B20008C0200208E020020880200208A020020F1
:102B300092010020F4010020FF010020C8010020C4
:102B4000022301082D02002068010020FF14010863
:102B50007D010020466163746F72793A00000000C5
:102B6000E801002084020020631801086B180108A6
:102B700020000000020200202A00000004020020C1
:102B8000230000006A150108202B2020000000000F
:102B9000751E002010B505F001FA1A4800782828A3
:102BA00016D008DC122810D017280FD01C280ED001
:102BB00023281CD108E04B280BD059280AD07628AE
:102BC00009D07B2813D107E000BF00BF00BF00BFC2
:102BD00000BF00BF00BF00BF0A48007800EB8000C4
:102BE000094901EBC000407E0649087003E012204D
:102BF0000449087000BF00BF02480078FFF7BEF923
:102C000010BD0000EE020020D003002013B50C46DA
:102C1000684607F007FA20B99DF8000006F080FA30
:102C20001CBD1948007802281DDA18480078D0B970
:102C30009DF800003030C1B2134802780078401C83
:102C4000114B187012488154002011491A4612780D
:102C5000885420460DF07EFE0B480078022802DAE8
:102C60000CA00EF029FB08480078022809D10120A9
:102C70000649087008480078032802D1022005F0B0
:102C8000BFF900BFCCE700003A0100203B01002063
:102C9000370100205F0000002401002013B50C461E
:102CA000684607F0BFF920B99DF8000006F038FA31
:102CB0001CBD1748007802281DDA16480078D0B9E4
:102CC0009DF800003030C1B2114802780078401CF5
:102CD0000F4B18701048815400200F491A46127883
:102CE000885420460DF036FE09480078022802DAA2
:102CF0000AA00EF0E1FA06480078022805D101206A
:102D000004490870022005F07BF900BFD0E70000FD
:102D10002B0100202C010020280100205F00000072
:102D200010B505F03BF91B4800780B2804D00C289F
:102D300003D00D280DD101E000BF00BF1548007879
:102D400000EB8000144901EBC000407E114908707F
:102D500003E00B200F49087000BF00BF0D4800784A
:102D6000FFF70CF990200EF02BFB0A49097801EBD4
:102D70008101094A02EBC101086A804705490978C7
:102D8000884203D105A00EF097FA02E004A00EF0ED
:102D900093FA10BDEE020020D00300202A000000AC
:102DA0003E000000F8B50025F9480478022005F03F
:102DB00027F900B1F8BDF6480078672826D006DC70
:102DC0005E2814D0602816D0652831D11AE06C280E
:102DD00023D06E2825D073282AD17120EC490870A1
:102DE00000220846017804200CF092FAE2E7002065
:102DF000E849087000BF08F0A3FF06F0BFF906F02D
:102E0000DDF9D7E70020E449087000BF08F0B8FFFB
:102E100006F0B4F906F0D2F9CCE70020DF490870DB
:102E200000BF08F0CDFF06F0A9F906F0C7F9C1E729
:102E3000DB48007801280AD10020D9490870872092
:102E4000D3490870D7A192200DF084FDB2E7D04895
:102E5000007899286BD012DC81281DD008DC10285E
:102E600016D0112817D07F2878D080283FD17FE056
:102E700096283DD097283CD09828F7D13AE09C3846
:102E8000082834D2DFE800F016173738393A3B18F3
:102E900007F00CF88EE78DE707F002FA10B106F0A4
:102EA0006DF906E0FDF7ECF90A200DF02BFE0DF0B0
:102EB00009FB7FE700BF00BFB548007800EB80004A
:102EC000B94901EBC000C06988B1B148007800EB96
:102ED000800001EBC0000022C369AD4801780420E6
:102EE000984700B966E79B20A949087062E757E058
:102EF00000BF00BF00BF00BF00BF00BF00BFA448AD
:102F0000007800EB8000A84901EBC000C06968B1FF
:102F10009F48007800EB800001EBC0000022C369ED
:102F20009B4801780420984700B943E738E0984867
:102F3000007800EB80009C4901EBC000C069A8B19B
:102F40009348007800EB800001EBC0000022C369C9
:102F50008F4801780420984708B92BE707E08C4890
:102F60000078FFF70BF8FFF71FFD23E718E000BF1D
:102F70008748007800EB80008B4901EBC000C069F6
:102F800068B18348007800EB800001EBC0000022AC
:102F9000C3697F4801780420984700B90AE700BF59
:102FA00000BF0DF0FFFC7A480078292804D104F016
:102FB0008DF97749087016E07548007800EB8000BD
:102FC000794901EBC000807E7149097888420AD0B6
:102FD0006F48007800EB8000734901EBC000807EF1
:102FE0006B49087001256A48007858B96F48006835
:102FF00010B96F48007828B96E48006810B9FFF71B
:10300000C9FDD7E662480078FEF7B8FF604800784F
:1030100000EB8000644901EBC000006900287DD00E
:103020005B48007854282BD006DC18281BD01D28BC
:1030300012D053285AD119E0602804D0672805D04F
:103040006E2853D105E002F0DFFE4FE002F0FEFEF5
:103050004CE002F01DFF49E0574A584958480078B3
:1030600004F0E6FB00BF05F0D7FC3FE00120554926
:1030700008700846017840F217400DF04FFA35E02D
:1030800000200090504800783130C0B28DF8000028
:103090003A208DF8010085200EF092F968460EF076
:1030A0000BF995200EF08CF968460EF005F94748AB
:1030B0004549097810F8110038B14448424A12785D
:1030C00010F81210862002F0D3FD40483E490978DE
:1030D00000EB4100407840B13C483B4A127800EB9D
:1030E00042004178962002F0C3FD00BF00BF28488F
:1030F000007800EB80002C4901EBC000C069F8B1FA
:103100005DB1234800785D2807D021480078642805
:1031100003D01F4800786B2812D100E05EE01C4805
:10312000007800EB8000204901EBC0000022C36959
:10313000174801780420984710B101200DF0E2FCF7
:103140001348007800EB8000174901EBC000007BBA
:1031500091281BD10E48007800EB800001EBC000E5
:10316000006A002812D090200EF02AF90849097848
:1031700001EB81010C4A02EBC101086A8047044956
:103180000978884226D112A00EF096F838E10000A6
:10319000EE02002032020020330200203402002020
:1031A000250100205F000000D0030020D401002092
:1031B000DD010020F0010020960200209402002092
:1031C000810200205002002058020020821E0020B0
:1031D0002A0000008EA00EF06FF811E100268D4845
:1031E000007825287CD010DC1B2827D006DC14288A
:1031F00027D0162826D0192816D11EE01E281AD04E
:10320000202819D02228F7D10FE0822846D006DCEA
:1032100027287DD03D2807D03E28EDD1EBE083283C
:1032200077D08A28E8D1C3E0E8E005F0F5FB9120EB
:1032300002F068FAE2E000BF00BF00BF05F0ECFB5F
:1032400000BF00BF7348007884420AD171480178FA
:10325000022006F07DFE00226E480178042009F06D
:103260006BFC04F09BFE05F01BFC6A48007884426E
:1032700005D001206849086002F0E8FB08E06648D4
:103280000068012804D100206349086002F0DEFBD9
:1032900005F024FB872002F073FEAFE05F48007862
:1032A000401C5E490870087800EBD0714910A0EB13
:1032B00041015A4A117010460078012817D155482B
:1032C0000178022006F044FE01280AD104F066FECF
:1032D00005F0E6FB00205049086002F0B7FB27E04C
:1032E00064E04E480078401C4C49087020E0494892
:1032F0000178022006F02CFE012814D104F04EFEC5
:1033000005F0CEFB0120444908600220444901E059
:103310004DE00EE008708320FEF730FE41A19120C1
:103320000DF018FB04E03D480078401C3B49087054
:1033300064E03E480078401C3C490870087800EB87
:10334000D0714910A0EB4101384A11701046007845
:10335000012816D12F480178022006F0F9FD012836
:1033600009D104F01BFE05F09BFB00202A490860F0
:1033700002F06CFB19E02D480078401C2B490870C6
:1033800013E024480178022006F0E2FD012807D16D
:1033900004F004FE05F084FB01201F49086004E0EE
:1033A00022480078401C2149087027E000BF00BF78
:1033B000872002F0E5FD17480178022006F0C8FDDD
:1033C00004F0ECFD1348007800EB8000184901EB95
:1033D000C000406A48B10F49097801EB8101144AE5
:1033E00002EBC101486A804706462A2290213046F6
:1033F00002F092F802E005F02FFA00BF00BF00BF14
:103400000448007808B9FFF7CFFA00BFD2E4000003
:103410003E000000EE0200206C020020CE010020E1
:10342000810200205F20202078000000CF010020D2
:10343000D00300202DE9F05FFE4890F801A08078CD
:1034400000F07F0BFB48C47805794679877990F8BE
:103450000780BAF1000F03D0F7480078824578D191
:10346000BBF10D0F76D00BDCBBF10D0F73D2DFE893
:103470000BF0722962DEF4F3F2F1F0EFEEEDEC0006
:10348000BBF1140F68D00BDCABF10E000628EDD2B7
:10349000DFE810F02C0343034B0353035B03680383
:1034A000BBF1170F78D006DCBBF1150F75D0BBF15F
:1034B000160F50D17CE3BBF1180F6FD0BBF17F0F1B
:1034C000F7D19BE3012C0BD0022C0FD0032C10D092
:1034D000042C2DD10020D9490860D949086028E082
:1034E0000120D6490860D649086022E0FCF7F0FECA
:1034F0001FE0D1480570017840F215400DF00EF83C
:10350000CD480078401CC1B20322042009F05AFAC9
:10351000C848807800F08000802807D1C94800782A
:10352000012803D10A21C3480CF088FBBDE8F09FB5
:10353000FCE700BF3FE20D2C76D2DFE804F0750710
:103540000E1923303A4447545C646C000BF004FEBF
:103550006BE0F1E3C2E2F0E312E3BB48007802283B
:1035600002D00BF033FC02E0002001F02FFA5CE007
:10357000B5480078022801D00BF028FC042001F0A7
:1035800025FA52E0B0480078022801D00BF01EFC6A
:10359000032001F01BFA48E018E3F9E21EE3AA4811
:1035A0000078022801D00BF011FC022001F00EFA85
:1035B0003BE0A5480078022801D00BF007FC06206C
:1035C00001F004FA31E00BF077FB2EE09F4890F811
:1035D000009001219E4800780BF020F90221484616
:1035E0000BF01CF921E001209A49087001210846DE
:1035F0000BF0B8F819E0002096490870002101206E
:103600000BF0B0F811E0012093490870012102206D
:103610000BF0A8F809E000208F4908700021022073
:103620000BF0A0F801E0FFE780E700BF82E7012C84
:1036300003D101208949087004E0022C02D1022044
:10364000864908700C2D4DD208E03FE236E2C7E112
:10365000B2E16DE11BE1BBE06BE046E0DFE805F0C5
:1036600042060C12421E242A3018363C7B48017850
:1036700001200BF0D3F836E07848017802200BF0F7
:10368000CDF830E07548017803200BF0C7F82AE048
:103690007248017806200BF0C1F824E06F480178E9
:1036A00007200BF0BBF81EE06C48017805200BF0FA
:1036B000B5F818E06948017808200BF0AFF812E07F
:1036C000664801780A200BF0A9F80CE063480178FD
:1036D0000C200BF0A3F806E0604801780B200BF0FB
:1036E0009DF800E022E700BFF8E3012C06D0022C91
:1036F00008D0032C0DD0042C18D111E0012009F0C2
:10370000B3F914E0012056490870022009F0ACF921
:103710000DE0022052490870032009F0A5F906E0E7
:103720005048057000780BF0F1FF00E0FEE600BFA6
:10373000D4E30F2C41D2DFE804F040080C10141839
:103740001C2024282C3034383C00012046490870C5
:1037500034E002204449087030E0032042490870F8
:103760002CE004204049087028E005203E490870FC
:1037700024E006203C49087020E007203A49087000
:103780001CE008203849087018E009203649087004
:1037900014E00A203449087010E00B203249087008
:1037A0000CE00C203049087008E00D202E4908700C
:1037B00004E00E202C49087000E0B7E600BF2A485C
:1037C00000780BF041FA05F07DFF06F0E1FC85E39F
:1037D000012C1CD101202549086045EA062216214A
:1037E000022009F0A9F900221621042009F0A4F909
:1037F00000201E49086047EA08221621022009F02D
:103800009BF900221621042009F096F93EE0022CD3
:103810003BD101201549086045EA06221421022007
:1038200009F08AF900221421042009F085F900200A
:103830000E491DE0F81D0020FF010020200200209D
:103840001C020020ED0100208402002085020020DF
:1038500087020020EF020020F002002081020020F9
:1038600082020020F1020020ED0200206C02002004
:10387000086047EA08221421022009F05DF90022BD
:103880001421042009F058F900E04FE626E304F083
:10389000800018B90120FB49087006E004F08000A0
:1038A000802802D10220F749087004F07F00012827
:1038B0001BD1F549086045EA06221B21022009F0C8
:1038C0003BF900221B21042009F036F90020EE49C3
:1038D000086047EA08221B21022009F02DF9002286
:1038E0001B21042009F028F921E004F07F000228C0
:1038F0001CD10120E449086045EA06221921022072
:1039000009F01AF900221921042009F015F9002004
:10391000DD49086047EA08221921022009F00CF964
:1039200000221921042009F007F900E0FEE5D5E2A4
:1039300004F0800018B90120D249087006E004F0B4
:103940008000802802D10220CE49087004F07F0058
:10395000012811D1CC49086045EA06222021022025
:1039600009F0EAF80020C849086047EA0822202147
:10397000022009F0E1F81EE004F07F00022812D1D5
:103980000120C149086045EA06221E21022009F0F3
:10399000D3F80020BC49086047EA08221E21022013
:1039A00009F0CAF807E004F07F00032802D1FEF70F
:1039B000AFFD00E0BAE591E2012C02D0022C0CD15F
:1039C00005E02A462521022009F0B6F806E02A463D
:1039D0002721022009F0B0F800E0A7E500BF7DE252
:1039E0000B2C68D2DFE804F06706232934414E5BD4
:1039F0005E61640005F07F0000F5FA60A34908806D
:103A00007007000F40EAD5104880F008888007F062
:103A10001F00C8804FEA4870800E40EA57100881A6
:103A200008F0F8008010488107F0D4FF44E02846F1
:103A300008F056F800B979E53EE0284604F072FD3A
:103A400020B1934993480CF0F5FA00E06EE533E0BD
:103A5000914805704670877080F80380012008F057
:103A6000CFF9012002F0E8FE26E08B480570467091
:103A7000877080F80380022008F0C2F9022002F06B
:103A8000DBFE19E0844805704670877080F803807B
:103A9000032008F0B5F9032002F0CEFE0CE0FCF79D
:103AA000B5FF09E0FCF7C2FF06E0FCF7CFFF03E03B
:103AB00007F082FB00E039E500BF0FE277480470B1
:103AC00045708670C77080F8048007E273484471BF
:103AD0008571C671077280F80980FFE16F488472B2
:103AE000C5720673477380F80E80F7E16B48C473A4
:103AF00005744674877480F8138000206749087540
:103B000002F0E0FD6648007830B980200CF036FF06
:103B1000624980200CF01EFFE0E1624804704570AD
:103B20008670C77080F80480D8E15E484471857162
:103B3000C671077280F80980D0E15A488472C57254
:103B40000673477380F80E80C8E15648C473057445
:103B50004674877480F8138000205249087502F07B
:103B60002FFEBBE150480470017840F247400CF052
:103B7000D5FC4E4805704670877080F80380ADE133
:103B80004A48047145718671C77180F80880A5E1C3
:103B900046484472857200204449434A127888544A
:103BA00041480278921C40F249400DF03DFA95E1FF
:103BB0003F480470017840F235400CF0AFFC3D48BE
:103BC00005704670877080F8038087E1394804717A
:103BD00045718671C77180F808807FE1354844726D
:103BE00085720021324A1278815431480278921C41
:103BF000304940F237400DF017FA6FE1142C70D2C3
:103C0000DFE804F06F0A252691A5ABF8FFEEEDEC96
:103C1000EBEAE9E8E7E6E5E427480078012804D183
:103C20000121042007F046FB10E023480078022819
:103C300004D10221042007F03DFB07E01E48007874
:103C4000032803D10321042007F034FB43E100BF24
:103C5000022C03D1194890F8009002E0184890F81F
:103C60000090B9F10D0F5BD2DFE809F05A072C3153
:103C70005A41363C465A4B5550000121042007F06A
:103C800019FB4EE0810200206C020020BC010020E4
:103C90009200002030000020EC000020680100208D
:103CA000EE02002092010020FD0100204E010020C4
:103CB000FC0100205B01002084020020850200201E
:103CC000870200200221042007F0F4FA29E00321F2
:103CD000042007F0EFFA24E00421084607F0EAFA8E
:103CE0001FE0F7E00521042007F0E4FA19E00621BF
:103CF000042007F0DFFA14E00721042007F0DAFAC5
:103D00000FE00821042007F0D5FA0AE00A21042078
:103D100007F0D0FA05E00B21042007F0CBFA00E011
:103D200004E400BFD7E076480078012806D10121DD
:103D3000042007F0BFFA09E0DFE0CEE07048007829
:103D4000022803D10221042007F0B4FAC3E06D4831
:103D50000178042007F0AEFABDE06B4800780B282C
:103D600046D2DFE800F045060B10151A1F24292E55
:103D700040000121042007F09DFA39E002210420CF
:103D800007F098FA34E00321042007F093FA2FE0BB
:103D90000421084607F08EFA2AE00521042007F0E6
:103DA00089FA25E00621042007F084FA20E00721A3
:103DB000042007F07FFA1BE00821042007F07AFABC
:103DC00016E00921042007F075FA11E075E067E0BC
:103DD00056E04EE046E03EE036E02EE026E01EE013
:103DE00016E00EE006E00A21042007F063FA00BFA7
:103DF00000BF70E0454801884548008807F06AFA2E
:103E000069E0444801884448008807F063FA62E0AA
:103E1000424801884248008807F05CFA5BE041486C
:103E200001884148008807F055FA54E03F4801886E
:103E30003F48008807F04EFA4DE03E4801883E4872
:103E4000008807F047FA46E03C4801883C48008873
:103E500007F040FA3FE03B4801883B48008807F004
:103E600039FA38E0394801883948008807F032FAD1
:103E700031E0384801883848008807F02BFA2AE0FA
:103E8000012D05D135480178052007F013FA06E029
:103E9000022D04D132480178052007F00BFA1AE010
:103EA000304A3149012003F0C3FC28B12D48018874
:103EB0002D48008807F00EFA0DE02A4A2A49022010
:103EC00003F0B6FC28B1274801882748008807F08E
:103ED00001FA00E006E400BF04E427E400BF234841
:103EE000807800F08000802807D1214800780128E0
:103EF00003D10A211D480BF0A1FE00BF16E400000B
:103F000082020020F1020020ED0200209202002037
:103F1000900200208E0200208C020020A0020020CF
:103F20009E0200209C0200209A020020A80200208D
:103F3000A6020020A4020020A2020020B00200205D
:103F4000AE020020AC020020AA020020B80200202D
:103F5000B6020020B4020020B2020020EA020020D3
:103F6000EB0200209602002094020020F81D0020A1
:103F7000ED01002008B5002000906946044806F0D5
:103F800046FB012803D09DF8000002F0DBFA08BDD3
:103F9000921E002001B5684606F044F820B99DF84D
:103FA000000005F0BDF808BD9DF8000030301B4949
:103FB00008701B480078102811D11A480078022890
:103FC00004D1194984200CF0C5FC10E01548007894
:103FD00001280CD1154984200CF0BCFC07E01048E6
:103FE0000078112803D10CF0DDFC05F0A7FF0D4887
:103FF0000078022804D10E4990200CF0ABFC07E0B9
:1040000008480078012803D10A4990200CF0A2FC4E
:10401000024992200CF09EFC00BFC4E74101002041
:10402000EE0200202D0200200E1B0108FB1A0108E1
:10403000252001082A20010810B510200E4908701B
:104040000CF0B0FC0D480078022808D10C49802003
:104050000CF080FC0B4984200CF07CFC0BE0074842
:104060000078012807D1084980200CF073FC07492B
:1040700084200CF06FFC10BDEE0200202D02002009
:104080005A220108AD1B010865220108B91B01086D
:1040900011B581B0002401A805F0C4FF20B99DF836
:1040A000040005F03DF81CBD9DF80400082806D06A
:1040B0009DF80400092802D09DF8040000B9F2E739
:1040C0009DF804003030C0B200904E48007860285F
:1040D0002FD14D48007807282BDA01204B49087072
:1040E000002408E04A48005D9DF80410884200D191
:1040F000D9E7601CC4B2444800788442F2DB9DF8E2
:1041000004004349404A127888543F490978903165
:10411000C8B269460CF01EFC3B480078401C3A4986
:1041200008700846007807286ADA3AA00DF0C4F84B
:1041300066E03448007867282FD137480078072890
:104140002BDA012035490870002408E03448005D6E
:104150009DF80410884200D1A5E7601CC4B22E4827
:1041600000788442F2DB9DF804102D482A4A127828
:104170008154294909789031C8B269460CF0EAFBAC
:1041800025480078401C2449087008460078072814
:1041900036DA20A00DF090F832E01A4800786E2848
:1041A0002ED12048007807282ADA01201E490870FD
:1041B000002408E01D48005D9DF80410884200D1ED
:1041C00071E7601CC4B2174800788442F2DB9DF8A6
:1041D00004001649134A127888541249097890311C
:1041E000C8B269460CF0B6FB0E480078401C0D4979
:1041F000087008460078072802DA06A00DF05CF87F
:1042000000BF50E7EE020020130000203202002021
:104210000C000020205F00001D0000203302002061
:10422000160000202700002034020020200000207B
:10423000F7B50E461446684605F0F4FE20B99DF821
:10424000000004F06DFFFEBD30460DF0B9F800250A
:1042500003E020200CF0ACFB6D1CA542F9DB1D48EF
:104260000078A0421DDA1C480078D0B99DF8000003
:104270003030C1B2174802780078401C154B1870D6
:1042800016488154002015491A4612788854304641
:104290000CF060FB0F480078A04202DA10A00DF08D
:1042A0000BF80C480078A04211D101200A4908708F
:1042B0000A4930460CF04EFB0A4800788C2803D09F
:1042C00008480078572802D1022003F099FE00BF69
:1042D000B9E700002701002026010020041E00206D
:1042E0005F000000EE02002013B50C46684605F0A2
:1042F00099FE20B99DF8000004F012FF1CBD17487C
:10430000007802281DDA16480078D0B99DF8000020
:104310003030C1B2114802780078401C0F4B187041
:104320001048815400200F491A46127888542046BC
:104330000CF010FB09480078022802DA0AA00CF001
:10434000BBFF06480078022805D101200449087007
:10435000022003F055FE00BFD0E700003F0100201F
:10436000400100203C0100205F00000010B53E48E5
:104370000078401C3C490870084600783C2825D14C
:104380000020087039480078401C384908700846F9
:1043900000783C281AD10020087035480078401C6D
:1043A000334908700846007818280FD1002008709B
:1043B00030480078401C2F49087008460078642176
:1043C00090FBF1F201FB12002A4908702A4800789C
:1043D000012813D185212748007801F00BFA90219C
:1043E0002348007801F006FA92212048007801F075
:1043F00001FA94211C48007801F0FCF91F4800786C
:1044000088B31F48007858B901201D49087006F08C
:1044100011FA1C4908601C491A4800680CF06AFF30
:1044200006F008FA17490968401A3C21B0FBF1F47C
:1044300016480078844216D30020804213D10A48DF
:10444000007880B9B4F5803F0DD20D48007801287E
:1044500006D102200A49087003F012FA0C490880BC
:10446000A0B207F0DDFC10BD4C0100204B01002084
:104470004A01002049010020EE020020DC0100205A
:1044800048010020440100204C1E0020DF010020D4
:10449000E201002010B504F09DF810B904F0ACF86A
:1044A000D8B10F480078012803D10A200C490870C0
:1044B0000EE00B4800780A2803D1642008490870F0
:1044C00006E007480078642802D1012004490870FA
:1044D000872001F055FD012010BD0020FCE7000001
:1044E0007C02002010B50D480078012802D1FCF7AD
:1044F0005DFB12E00A48047801210A4800780AF0BE
:104500008DF9022120460AF089F9074980200CF034
:1045100021FA06A1812001F0B3FA10BD8402002027
:1045200085020020870200206A15010820202B2028
:104530002000000008B5002000906946044806F0FD
:1045400066F8012803D09DF8000001F0FBFF08BDCC
:10455000F91E002010B50446E0B2FF280AD13D48FC
:10456000007838B93C483B4909784454012039491E
:10457000087059E037480078C0B1374835490978A4
:10458000445434490978481CC11700EB91718910D3
:10459000A0EB81012F4A117010460078002843D10A
:1045A00001202E49086000F00BFD3DE004F0F00012
:1045B000F0280AD12A48007838B9274828490978CC
:1045C00044540120264908702EE025480078A0B107
:1045D000214823490978445421490978481C00EBB3
:1045E000D0714910A0EB41011D4A117010460078AE
:1045F000D0B901201B49086016E004F08000802833
:1046000012D1E22C03D100201749086010BDE32C21
:1046100005D101201549086015490860F6E70E48E4
:1046200004700120134908601148006878B1002027
:104630000F4908600A2094FBF0F00F4908700A2027
:1046400094FBF0F100FB11400C490870DEE700BF5D
:10465000DCE7000006000020010000205C020020D2
:104660000700002060020020740200207002002079
:104670006802002064020020E4010020E50100201F
:1046800070B5002505F086F900B170BD8B48007843
:1046900000EB80008A4901EBC0000069002863D06C
:1046A00003F07CFC8548007800EB8000844901EB36
:1046B000C000007E8149097888420AD07F4800788E
:1046C00000EB80007E4901EBC000007E7B49087052
:1046D00001257A480078FDF751FC0BF077F8774810
:1046E000007800EB8000764901EBC000C06980B122
:1046F0007DB97248007800EB800001EBC000002219
:10470000C3696E4801780220984710B101200CF06F
:10471000F9F96A48007800EB8000694901EBC000B4
:10472000007B91281BD16548007800EB800001EBED
:10473000C000006A002812D090200CF041FE5F49B2
:10474000097801EB81015E4A02EBC101086A8047EA
:104750005A490978884203D15AA00CF0ADFDA9E06E
:1047600059A00CF0A9FDA5E0002403F017FC534864
:10477000007800EB8000524901EBC000007E4F49F9
:104780000978884209D04D48007800EB80004C49F8
:1047900001EBC000007E494908704848007800EBF2
:1047A0008000474901EBC000406A48B1434909789D
:1047B00001EB8101424A02EBC101486A804704468D
:1047C0003E480078202817D00CDC192815D004DCCE
:1047D000142816D0162836D114E01B280ED01E2817
:1047E00031D108E025281BD027281AD03E2827D011
:1047F0008A2828D116E000BF00BF00BF04F00CF9E2
:1048000000BF00BF31480078201A01D5002403E022
:104810002E480078201A84B2872001F0B1FB13E003
:1048200000BF00BF29480078201A01D5002403E00A
:1048300026480078201A84B2872001F0A1FB03E00B
:1048400003F0D4FF21E720E700BF1C48007800EB0D
:1048500080001B4901EBC000C06958B117480078BF
:1048600000EB800001EBC0002246C36913480178C9
:1048700002209847114800781B280DD006DC142828
:104880000DD016280CD019280DD104E01E2804D014
:10489000202808D102E000BF00BF00BF00BF00BF5A
:1048A00004F0FEF804E09121204600F0DDFE00BF98
:1048B00000BF00BFFEF778F800BFE6E6EE0200207A
:1048C000D00300202A0000003E0000007C020020EF
:1048D00010B511200E4908700CF064F80D480078EE
:1048E000022808D10C4980200CF034F80B498420B0
:1048F0000CF030F80BE007480078012807D1084990
:1049000080200CF027F8074984200CF023F810BD14
:10491000EE0200202D02002071220108AD1B0108CB
:104920007C220108B91B010810B532248A202449D1
:1049300008700CF037F82248007800EB800021491D
:1049400001EBC000406A48B11D49097801EB8101C3
:104950001C4A02EBC101486A8047C4B22A22902156
:10496000204600F0D9FD18480078022810D1144ADA
:10497000127802EB8202134B03EBC2025168104A19
:10498000127802EB820213F832000BF0E3FF13E01F
:104990000D48007801280FD1094A127802EB8202F3
:1049A000084B03EBC2029168054A127802EB8202BF
:1049B00013F832000BF0CEFF872001F0E1FA10BDB2
:1049C000EE020020D00300202D02002010B5044686
:1049D000072C47D2DFE804F004460A152C463700BE
:1049E000002027490880274908803BE0002024490F
:1049F00008802548008825490988401A21490880EF
:104A000030E023490988234A1288881A00EBD071C4
:104A1000C1F34F011A4A11801B4909881B4A1288A9
:104A2000881A00EBD071C1F34F01164A118019E0CA
:104A30001748008817490988401A11490880002042
:104A4000104908800EE01248008812490988401A6F
:104A50000B4908800C4800880C490988401A09490C
:104A6000088000BF00BF02220548018801200AF02B
:104A7000A1FA02220348018810460AF09BFA10BDF1
:104A8000A6020020A80200209C020020A402002010
:104A90009A020020A2020020704700002DE9F04198
:104AA00006460D461746E448007810B90020BDE8D8
:104AB000F081E1480178E1480BF0A2FE044603F0E2
:104AC0006DFA7D2D6FD1552C6ED01BDC462C6CD031
:104AD00007DC082C6AD2DFE804F06954575B5F6A90
:104AE000739F512C7ED006DC472C7CD0482C7BD089
:104AF000502C5BD1BFE0522C77D0532C76D0542C65
:104B0000F7D1E5E0652C28D010DC592C6FD006DCFD
:104B1000562C6DD0572C6CD0582CEAD10CE15A2C65
:104B200068D0602C67D0642CE3D112E0692C24D0CB
:104B300006DC662C15D0672C17D0682CD9D118E06C
:104B4000BF48204400287DD0BE4908440028D0D169
:104B500048E1A120FDF712FA53E19C20FDF70EFA7F
:104B60004FE19D20FDF70AFA4BE19E20FDF706FA82
:104B700047E19F20FDF702FA43E1A020FDF7FEF98F
:104B80003FE109F097FD3CE14320FDF7F7F938E1FB
:104B90004520FDF7F3F934E10220AB4908708D2080
:104BA000FDF7ECF92DE12DE1A5E058E027E1032028
:104BB000FDF7E4F98421A548006800F0C7FD20E175
:104BC0000BF0F0FE0120A24908700846017840F27F
:104BD00075400BF0A3FC9F480078022813D19E4932
:104BE000802009E065E03EE041E069E06CE0AAE099
:104BF00088E08BE0BAE0C7E00BF0ACFE9749872075
:104C00000BF0A8FE07E0964980200BF0A3FE954923
:104C100090200BF09FFEF4E00BF0C4FE00208C49C6
:104C200008700846017840F275400BF077FC89481F
:104C3000007802280AD1884980200BF08BFE8A492F
:104C4000872000E0B5E00BF085FE07E08449802076
:104C50000BF080FE854990200BF07CFED1E0932084
:104C6000FDF78CF9CDE09020FDF788F9C9E094209C
:104C7000FDF784F9C5E00020734908707C4800689E
:104C80007C49884211D17C4800884FF6FF718842E8
:104C90000BD179484088FF2807D177488088FF28C2
:104CA00003D18E20FDF76AF902E08D20FDF766F949
:104CB000A7E00120644908708D20FDF75FF9A0E0AE
:104CC0008F20FDF75BF99CE08C20FDF757F998E009
:104CD00001206A49087001F031FD00206849086030
:104CE0006848007868490870042009F05BFE0720D6
:104CF000FDF744F985E00320534908708D20FDF746
:104D00003DF97EE09520FDF739F97AE005F060FE87
:104D100058B10BF047FE5D4980200BF01BFE862149
:104D20005B48008800F066FD05E00BF03BFE59494A
:104D300080200BF00FFE64E00620434908708D20B0
:104D4000FDF71CF95DE00120534908700846017821
:104D500040F27F400BF0E2FB50A180200BF0FAFD07
:104D60004D4940F27F4005F0D5FE4AE000204A4917
:104D700008700846017840F27F400BF0CFFB4BA152
:104D800080200BF0E7FD3CE00BF00CFE4BA18020F7
:104D90000BF0E0FD85214C48007800F02BFD4BA185
:104DA00090200BF0D7FD96213948008800F022FDB5
:104DB00027E00BF0F7FD48A180200BF0CBFD83210D
:104DC0002B48006804F01CF92C480178882001F079
:104DD00001F943A190200BF0BDFD434993200BF056
:104DE000B9FD0EE00BF0DEFD40A180200BF0B2FD1E
:104DF000FCF7A0FB43A190200BF0ACFD01E00020EC
:104E000055E616E0432D14D13B2C00D93B244249F2
:104E10000C700846007800EB40000F303F490870E6
:104E2000A0B22A22902100F077FBE1B206200BF01D
:104E300075FB01203BE6000027010020041E002036
:104E4000A298F7FF2D89FCFF00020020F40100204A
:104E5000010200202D0200201E170108481701083A
:104E6000331701084F170108541701085B17010891
:104E7000F801002008E40400C8010020DD01002042
:104E8000D401002085020020D10100204415010832
:104E9000E001002055150108DC0100204F50454E6F
:104EA000204C4F472046554E43000000434C4F5383
:104EB00045204C4F472046554E4300004C6F67201D
:104EC00041667465723A0000DF0100204C6F672074
:104ED0004E756D62653A00004B65793A000000003E
:104EE0004D6F64656C3A000005150108636C6561DF
:104EF000722032346336342E77616974696E672E9E
:104F000000000000636C6561722032346336342E19
:104F10002E2E4F4B210000002C02002035020020D5
:104F200070B50446002522480078FF283CD120486F
:104F30008078002838D11E48407845280ED11C487A
:104F4000C078BC280AD100201A4908701A48007895
:104F50007E2801D10BF0B6FA002070BD14484078CD
:104F6000462805D11248C078BB2801D101251BE095
:104F70000F48407855280ED10D48C078AC280AD18A
:104F800000200E4908700C4800787E2801D10BF0F3
:104F900099FA0020E1E706484078562804D10448F1
:104FA000C078AB2800D1022504B125700120D4E7D8
:104FB0000100002008000020EE020020090000206F
:104FC00010B50F480078C8B10E48FFF7A9FFA8B187
:104FD0000D48006820B10B4800780AF00FFC0AE089
:104FE00001200949086009480078052803D10548CF
:104FF00000780AF003FC00200549086010BD00009D
:1050000050020020810200204C0200208502002076
:105010005C0200202DE9F84380460F4691460026A9
:10502000F748007810B90020BDE8F883F44801780B
:10503000F4480BF0E5FB85B238469D2F71D010DCAB
:1050400097286FD006DC7F2813D080283DD0962883
:1050500069D16AE0982867D0992872D09C28F7D146
:1050600005E19E3806285ED2DFE800F0FCFBFAF985
:10507000F8F7B5F5F06F23DDFBF702F90A200BF026
:1050800041FD02F081FF0BF08DFCDF480078022823
:1050900008D1DE4983200BF05DFCDD4990200BF048
:1050A00059FC0BE0D8480078012807D1D949832062
:1050B0000BF050FCD84990200BF04CFC0020B3E7DB
:1050C000D6480580D648058015E2B5F5966F23DDF4
:1050D000FBF7D6F80A200BF015FD02F055FF0BF098
:1050E00061FCC9480078022808D1C84983200BF028
:1050F00031FCCC4990200BF02DFC0BE0C24800782D
:10510000012807D1C34983200BF024FCC649902015
:105110000BF020FC002087E7C4480580C4480580C8
:10512000E9E1A5E032E0E5E166E03C2D01DC0A2D95
:1051300008DA02F033FFBFA185200BF00BFC002042
:1051400072E77BE0BE490D700846017840F283406B
:105150000BF0E4F9BB480078012816D105F06AFB92
:10516000B7490978C1EB011100EB8104200EB64963
:105170000870200C4870200A8870CC70052240F21C
:1051800089400BF051FFB1480460B4E1182D01DCF7
:10519000012D07DA02F002FFA6A185200BF0DAFB51
:1051A000002041E7A6490D700846017840F287408B
:1051B0000BF0B4F9A648007801281CD1A14800786A
:1051C000C8B905F037FBA3490978C1EB0111890083
:1051D000C1EB011100EB8104200E9B490870200CEB
:1051E0004870200A8870CC70052240F289400BF08C
:1051F0001BFF964804607EE18148007878B18048C2
:10520000007895490870002605E07E48805D934946
:105210008855701CC6B2904800788642F5DD8E48ED
:10522000017840F28E400BF079F98B480278921C9D
:105230008A494FF492600BF0F7FE5CE1FBF75AFFEE
:1052400088B902F0ABFE86A187200BF083FB86496C
:1052500090200BF07FFB0020E6E617E1CDE00BE0AD
:1052600009E007E005E000208049087043E100BF45
:1052700000BF00BF00BF00BFFBF71AFF58B902F024
:105280008DFE77A187200BF065FB774990200BF00E
:1052900061FB0020C8E6754800789C2857D16C480F
:1052A000007848B100206A4908700BF07BFB704918
:1052B00082200BF04FFB43E00120654908700BF0A2
:1052C00071FB6C4982200BF045FB6B4992200BF07F
:1052D00041FB604800780A2190FBF1F03030C0B209
:1052E0008DF800005B48007890FBF1F201FB1200A2
:1052F0003030C0B28DF8010000208DF80200694600
:1053000096200BF027FB4F480078C8B905F092FAB9
:1053100050490978C1EB01118900C1EB011100EB83
:105320008104200E48490870200C4870200A8870BB
:10533000CC70052240F289400BF076FE43480460B1
:105340004348017840F285400BF0E8F854E04748C4
:1053500000789D2850D13B48007848B10020394959
:1053600008700BF01FFB454982200BF0F3FA3DE07B
:105370000120344908700BF015FB414982200BF0E5
:10538000E9FA404992200BF0E5FA2D4800780A210D
:1053900090FBF1F03030C0B28DF800002848007862
:1053A00090FBF1F201FB12003030C0B28DF8010029
:1053B00000208DF80200694696200BF0CBFA05F02C
:1053C00039FA1F490978C1EB011100EB8104200E65
:1053D0001D490870200C4870200A8870CC70052286
:1053E00040F289400BF020FE18480460154801780F
:1053F00040F281400BF092F87DE0234805607AE0AE
:1054000027010020041E00202D020020DD1F0108BE
:1054100082170108E81F0108921701088C0200207A
:105420009A0200209E170108AE1701088E02002084
:105430009C020020202020202020202000000000AE
:105440000302002002020020060200200C020020BD
:1054500004020020050200200A020020751E002020
:105460002020202020200000CC170108EE02002080
:10547000EE250108E12501083F250108D425010892
:10548000C725010830250108180200201C480068C3
:10549000A84221D11B4805600068000E1A49087017
:1054A00018480068000C487016480088000A887088
:1054B00014480078C870052240F29D400BF0B4FDFE
:1054C0000BF070FA114981200BF044FA0D48056089
:1054D0007D200F4908700CE0AFF2A40188200BF08A
:1054E00039FA0C4990200BF035FA02F057FD0020F4
:1054F0009AE500E000BF00BF02F050FD012093E5F7
:10550000180200201402002010020020FB250108D0
:10551000EE020020CC1701082DE9FC47054689461C
:10552000924600200090019000260027804600242B
:105530004FF47A7095FBF0F00A2190FBF1F201FB39
:105540001200C6B2642095FBF0F090FBF1F201FB73
:105550001200C7B20A2095FBF0F090FBF1F201FBBC
:10556000120000F0FF082146641C0DF801A0202263
:105570002146641C0DF80120B8F1000F0AD14FB983
:1055800046B905F13000C2B22046611CCCB20DF81C
:10559000002058E0AFB9A6B908F13000C2B22046E9
:1055A000611CCCB20DF800200A2095FBF0F100FB45
:1055B00011503030C2B22046611CCCB20DF8002030
:1055C00041E0E6B907F13000C2B22046611CCCB21E
:1055D0000DF8002008F13000C2B22046611CCCB2A8
:1055E0000DF800200A2095FBF0F100FB115030303F
:1055F000C2B22046611CCCB20DF8002023E006F1B7
:105600003000C2B22046611CCCB20DF8002007F178
:105610003000C2B22046611CCCB20DF8002008F167
:105620003000C2B22046611CCCB20DF800200A2026
:1056300095FBF0F100FB11503030C2B22046611CE6
:10564000CCB20DF8002000200DF8040004A148465B
:105650000BF080F9694648460BF07CF9BDE8FC8701
:1056600020202020202000002DE9FC4104460F4688
:105670004FF47A7094FBF0F00A2190FBF1F201FBF9
:105680001200C5B2642094FBF0F090FBF1F201FB34
:105690001200C6B20A2094FBF0F090FBF1F201FB7D
:1056A000120000F0FF080DB9202001E005F13000E4
:1056B000C0B28DF8000016B90DB9202001E006F146
:1056C0003000C0B28DF80100B8F1000F03D116B957
:1056D0000DB9202001E008F13000C0B28DF80200C1
:1056E0000A2094FBF0F100FB11403030C0B28DF87D
:1056F000030000208DF80400694638460BF02AF9B3
:10570000BDE8FC817CB504460020019000900D4866
:105710000078012801D1012501E00B4805786A468F
:1057200001A9284602F084F82146BDF80400FFF7DD
:105730009BFFA01CC1B27822BDF80000FFF7ECFE71
:105740007CBD000084020020810200207CB504465C
:105750000D462648B4FBF0F100FB11402449B0FB94
:10576000F1F03030C0B28DF800000846B4FBF0F123
:1057700000FB114042F21071B0FBF1F03030C0B2CA
:105780008DF801000846B4FBF0F100FB11404FF426
:105790007A71B0FBF1F03030C0B28DF802000846EB
:1057A000B4FBF0F100FB11406421B0FBF1F03030AC
:1057B000C0B28DF803006420B4FBF0F100FB11408F
:1057C0000A21B0FBF1F030308DF804000A20B4FB60
:1057D000F0F100FB114030308DF8050000208DF80D
:1057E0000600694628460BF0B5F87CBD40420F0024
:1057F000A0860100F8B504460D46642094FBF0F144
:1058000000FB11400A2190FBF1F0C6B20A2094FB84
:10581000F0F100FB1140C7B20EB9202001E006F103
:105820003000C0B28DF8000007F13000C0B28DF832
:10583000010000208DF80200694628460BF08AF826
:10584000F8BD000010B50BF0ADF80D480078022847
:1058500008D10C4980200BF07DF80B4990200BF00B
:1058600079F80BE006480078012807D10749802025
:105870000BF070F8064990200BF06CF810BD00009A
:105880002D020020BE190108D3190108CB19010807
:10589000E619010810B52B48008884B22AA1962089
:1058A0000BF058F896212046FFF7A4FF2548808882
:1058B00084B294212046FFF79DFF2248008984B2DC
:1058C00092212046FFF796FF1E48008B84B21F48A6
:1058D0000078022804D1E0B2992100F055F82FE0B9
:1058E0001A48007801282BD1072C28D2DFE804F0D1
:1058F00004090E13181D220015A198200BF02AF898
:105900001DE015A198200BF025F818E014A19820AF
:105910000BF020F813E014A198200BF01BF80EE018
:1059200013A198200BF016F809E013A198200BF0B2
:1059300011F804E012A198200BF00CF800BF00BF92
:1059400010BD0000301E0020202000002D0200208D
:1059500053756E2E000000004D6F6E2E000000008B
:1059600054756573000000005765642E0000000048
:1059700054687572000000004672692E0000000035
:105980005361742E0000000038B504460D46002017
:105990000090072C36D2DFE804F0040B1219202700
:1059A0002E00C8208DF80000D5208DF8010029E0D8
:1059B000D2208DF80000BB208DF8010022E0B62037
:1059C0008DF80000FE208DF801001BE0C8208DF846
:1059D0000000FD208DF8010014E0CB208DF80000C0
:1059E000C4208DF801000DE0CE208DF80000E520E8
:1059F0008DF8010006E0C1208DF80000F9208DF837
:105A0000010000BF00BF694628460AF0A3FF38BD69
:105A100010B590200AF0B2FF08A190200AF09AFF7A
:105A200007480078022804D1064991200AF092FF25
:105A300003E0054991200AF08DFF10BD3E000000F3
:105A40002D0200200F2001081420010810B507487E
:105A50000068012804D106A191200AF07BFF03E031
:105A600005A193200AF076FF10BD00006C02002013
:105A70005F2020200000000078205F202020000010
:105A80007CB505460C4677480178284600F0F0F8CA
:105A900075480078012875D0744800780D281AD20E
:105AA000DFE800F0D7071A2D53915D71B140C4A112
:105AB000810043208DF8000056208DF8010042201F
:105AC0008DF8020053208DF8030031208DF804007A
:105AD00000208DF80500BCE043208DF80000562022
