:020000040800F2
:1000000048260020450100084F800008D5660008FA
:100010001D80000819060008EDD50008000000004A
:10002000000000000000000000000000059A000829
:10003000BD3D0008000000001D8B000875CC0008C5
:100040005F0100085F0100085F010008C58D00081E
:100050005F0100085F01000845500008D950000802
:100060005F0100085F0100085F0100085F010008F0
:100070005F0100085F0100085F0100085F010008E0
:100080005F0100085F0100085F0100085F010008D0
:100090005F0100085F0100085F010008FD500008D3
:1000A0005F0100085F0100085F0100085F010008B0
:1000B0005F01000821CD00085F0100085F01000812
:1000C0005F0100085F0100085F0100085F01000890
:1000D0005F01000891CF0008DDCF0008BDD0000807
:1000E000695000085F0100085F0100085F01000817
:1000F0005F0100085F0100085F0100085F01000860
:100100005F0100085F0100085F0100085F0100084F
:100110005F0100085F0100085F0100085F0100083F
:100120005F0100085F0100085F0100085F0100082F
:10013000DFF80CD000F040F8004800470DE0000860
:10014000482600200648804706480047FEE7FEE7AD
:10015000FEE7FEE7FEE7FEE7FEE7FEE7FEE7FEE777
:1001600079CC00083101000840EA01039B0703D065
:1001700009E008C9121F08C0042AFAD203E011F8E6
:10018000013B00F8013B521EF9D2704730B50B46D7
:10019000014600202022012409E021FA02F59D42B7
:1001A00005D303FA02F5491B04FA02F52844151E8B
:1001B000A2F10102F1DC30BD064C074D06E0E0681B
:1001C00040F0010394E8070098471034AC42F6D39E
:1001D000FFF7B2FFB0F80008D0F8000870B501EBE7
:1001E000020410F8015B15F0070301D110F8013B80
:1001F0002A1106D110F8012B03E010F8016B01F869
:10020000016B5B1EF9D12B0705D40023521E0FD4BE
:1002100001F8013BFAE710F8013B02F10202A1EB01
:10022000030303E013F8015B01F8015B521EF9D5EB
:10023000A142D6D3002070BD0B4810B5007802282B
:100240000BD001280FD1094980200DF04FFC08493F
:10025000BDE8104090200DF049BC064980200DF00B
:1002600045FC0549F4E710BD1C02002057E80008D2
:100270005AE9000846E8000846E9000810B50DF004
:1002800057FC0B48007802280BD001280FD10949F0
:1002900082200DF02BFC0849BDE8104090200DF0A5
:1002A00025BC064982200DF021FC0549F4E710BD6C
:1002B0001C020020D5E70008FAE70008C7E700089D
:1002C000E5E70008074910B5012008710DF030FC82
:1002D000054980200DF00AFCBDE81040014800F0FF
:1002E000F7BD000059010020A4EE000810B5012060
:1002F00008F062FCBDE81040002008F05DBC000082
:10030000034A118821F46071014311807047000095
:100310002C6C004008B5024908440090008808BDD4
:10032000006C0040014908607047000000860D42E3
:1003300008B5024A10440090016008BD006C0040FE
:10034000164810B5007800216B2817D072281CD0F1
:10035000792821D1124C134A2078401EC0B2207057
:1003600011549030C0B210A10DF0C0FB2078BDE850
:1003700010409130C0B20DA10DF0B8BB0C4C0D4A2D
:100380002078401EC0B22070EAE70B4C0B4A207860
:10039000401EC0B22070E3E710BD000055020020EF
:1003A00008000020220000205F0000002000000064
:1003B0000600002014000020070000201B00002081
:1003C0002DE9F047704E714F00253078A7F11004E9
:1003D00090281BD004F11309912838D004F1160895
:1003E000922852D00937932879D0942878D168A1DF
:1003F00096200DF07BFBE07A002872D0401EC0B240
:10040000E072F91C25730D5496201DE060A1862032
:100410000DF06CFBE07810B1012811D07EE08F2048
:100420003070A07808B1401EA070657059A183207B
:100430000DF05CFB5948A17845540146832003E048
:10044000E57025713D7018E00DF050FB66E050A19D
:1004500088200DF04BFB607910B1012810D05DE0D1
:1004600090203070E07808B1401EE070257148A1FE
:1004700086200DF03BFBE0783D5444498620E3E7BD
:100480006571A57189F8005025E041A192200DF019
:100490002DFBE07930B1012873D1E571257288F820
:1004A000005059E0607B032807D001281AD0BDE82E
:1004B000F0473BA192200DF019BB9120307060797C
:1004C00008B1401E6071A57131A188200DF00EFBAE
:1004D000617909F801502D49C91C8820B4E722E050
:1004E0004FE03DE02F480078012804D0022806D0D4
:1004F000032808D00BE0682030702B4806E06F20FE
:1005000030702A4802E0762030702948057029A111
:1005100084200DF0EBFA84200DF0B6FFBDE8F04723
:1005200028A00DF009BE1AA194200DF0DFFA607A20
:1005300020B1401EC0B26072A5721DE092203070E2
:10054000E07908B1401EE071257211A192200DF0F2
:10055000CDFAE17908F801500C49891D922073E722
:1005600093203070607A08B1401E6072A57208A1B5
:1005700094200DF0BBFA607A04493D54093194206F
:1005800062E7BDE8F0870000550200203D01002031
:100590002020000020202020000000003421002026
:1005A0005F2000007D200020210200202202002088
:1005B0002302002020202020202020202020202076
:1005C000000000005F0000002DE9F0410F4C804664
:1005D0000E46A078002508B1401EA0700027677065
:1005E00040460DF051FF03E020200DF0A5FA6D1CF0
:1005F000B542F9DB0648A1784754014640460DF064
:1006000075FABDE8F04103A00DF096BD2D01002064
:10061000342100205F000000FEE700002DE9F047D4
:100620000022C30711D00126022704230524062532
:10063000DFF814A14FF0030C4FF00709012907D090
:1006400002292ED003297CD154E00020BDE8F08798
:100650003D495FEA807801F10E0101D50E7001225B
:10066000460702D58F5402F10102C60601F802C006
:1006700002F1010202D58B5402F10102830602D578
:100680008C5402F10102430602D58D5402F101029D
:10069000000603D501F8029002F101028AF8002059
:1006A0004FE029495FEA807801F1150101D50E700C
:1006B0000122460702D58F5402F10102C60601F855
:1006C00002C002F1010202D58B5402F1010283063D
:1006D00002D58C5402F10102430602D58D5402F179
:1006E0000102000603D501F8029002F101028AF826
:1006F000012026E014495FEA807801F11C0101D550
:100700000E700122460702D58F5402F10102C6067F
:1007100001F802C002F1010202D58B5402F101027C
:10072000830602D58C5402F10102430602D58D5492
:1007300002F10102000602D501F80290521C8AF86B
:100740000220012082E7000006000020044900206A
:1007500008700448FF210170417009F097BA000049
:1007600021020020090000200449002008700448EC
:10077000FF210170417009F0A5BA0000220200209B
:100780000B0000200449002008700448FF2101707C
:10079000417009F0B3BA0000230200200D000020D0
:1007A0001CB528A1D1E90001CDE900012748007856
:1007B00073280DD004DC5A281DD06C282ED104E0FB
:1007C0007A2808D07D2829D108E0FFF7BFFF25E06F
:1007D000FFF7CAFF22E0FFF7D5FF1FE01C491D4CC1
:1007E0000020087020700DF0F1FA217840F2A2404C
:1007F0000CF09AFF12E000200DF082FB1648017801
:1008000040F2C9400CF090FF1448017840F2CB4010
:100810000CF08AFF40F2CD400CF08EFF10A190202A
:100820000DF064F90F480078022802D0012802D0A8
:1008300005E0694600E00CA186200DF057F9012083
:100840001CBD0000D2D1C8A1CFFB00005502002082
:100850002A020020270200201F0200202002002080
:100860002A0000001C02002043616E63656C207347
:10087000756363657373000010B50E4C072084F830
:1008800051000DF055F9207E02280BD001280FD120
:10089000094982200DF02AF90849BDE8104090204E
:1008A0000DF024B9064982200DF020F90549F4E73E
:1008B00010BD000004020020BDEA0008A6EA0008FE
:1008C000B2EA000896EA000810B51E48A0F15504E7
:1008D000027894F84A1040788A4207D1884205D0BD
:1008E0000E2803D2BDE810400AF0F4BF884205D1BB
:1008F0008A4203D00E2A01D21046F3E70F2007F0F8
:1009000037F8072084F851000DF012F9207E0228F4
:1009100002D0012806D00DE00B4982200DF0E6F848
:100920000A4904E00A4982200DF0E0F809A190206C
:100930000DF0DCF805200DF0A3F9BDE8104001F042
:1009400085B8000059020020B2EA000813EB000845
:10095000BDEA000853776974636820616E6420679C
:100960006F206F6E000000002DE9F05F724B0022D7
:100970001C78724B012C1B7811D0714D032C2D78F3
:1009800004D0042C02D0022C05D009E06D4A127864
:10099000012A04D02CE06C4A1278012A28D01A4689
:1009A0006A4BDFF8ACA1DFF8AC816B4E93F800C066
:1009B00018249AF8005098F8003036784FF03C0927
:1009C00094451CD15746854217D18B4215D18EB123
:1009D000304600F0BFFC6149387809780844B0FB24
:1009E000F4F104FB1100387098F800005C4998E0BD
:1009F0002A46D5E75B4900200870BDE8F09F5B4FB1
:100A0000DFF864B196423F782AD156468542F4D148
:100A10008B42F2D1BFB1384600F09CFC544930788B
:100A200009780844B0FBF4F104FB1100307098F829
:100A3000001050483DE000BFB1FBF9F209FB121075
:100A400088F80000D9E7604600F084FC31789BF814
:100A500000000844B0FBF4F104FB1100307025E005
:100A6000454E9742367827D157468542C5D18B42AD
:100A7000C3D17EB1304600F06DFC4049387809782A
:100A80000844B0FBF4F104FB1100387098F8000042
:100A90003B4946E0604600F05DFC39789BF8000079
:100AA0000844B0FBF4F104FB1100387098F8001012
:100AB000344800780144BFE7334F96423F7816D15F
:100AC0005646854299D18B4297D1002FBBD03846EC
:100AD00000F040FC2D49307809780844B0FBF4F16F
:100AE00004FB1100307098F80000294919E0294EE4
:100AF0009742367818D157468542A3D18B42A1D16F
:100B0000002EC7D0304600F025FC234938780978FC
:100B10000844B0FBF4F104FB1100387098F80000B1
:100B20001E490978014487E796428BD15646854293
:100B300088D18B4287D060E74D0200204E02002012
:100B40004F020020470200204C0200202B02002010
:100B500028020020290200202C020020320200205E
:100B60003802002027020020310200202D02002040
:100B700033020020390200202E020020340200201F
:100B80003A020020370200202F0200203502002008
:100B90003B02002030020020360200203C020020F0
:100BA00030B50A4B1C461D886488854209D301D1A3
:100BB0008C4206D3854207D18C4205D19888904259
:100BC00002D803490120086030BD0000F201002076
:100BD000FC02002000EB800202EBC000014A10443E
:100BE000405C7047200300201FB511A10622D1E907
:100BF0000001CDE90001002002906946039005F054
:100C000071FF05200DF03CF8062202A9002005F036
:100C100032FF00206A4602A9135C0C5CA34202D09A
:100C2000002004B010BD401C0628F5DB0120F8E7C9
:100C300001020304050600000A4800B5817871B17D
:100C400009480CF0CDFE024605F0F4FF07480068A5
:100C5000824202D00648824201D1012000BD00201C
:100C600000BD00002D01002034210020A420002020
:100C700010C21A132DE9F05F5A488178002979D003
:100C8000594842F210720068B0FBF2F302FB130401
:100C900056480CF0A5FE054605F0CCFF200140EAC1
:100CA00094201FFA80FA51482038D0E900121144EC
:100CB0008268C068224411440844810241EA20103D
:100CC0001FFA80FB4A48B5FBF0F100FB115408F015
:100CD0005FF8484E0027DFF820813268DFF81C916A
:100CE000474990420AD2087840B146480068844299
:100CF00004D198F800000AF0EDFD6BE08AEA0B00E1
:100D0000C0F30D00DFF800A1DFF800B1A84202D067
:100D10003F48854236D1087868B308F039F83D4934
:100D20000978C1EB4112C2EB012100EB0115290E3C
:100D30008AF80010290C8AF80110290A8AF8021092
:100D40008AF803500522304940F244500DF02DF945
:100D50003148210E05220170210C4170210A817059
:100D6000C470014640F25D500DF01FF92548046043
:100D7000356026E033E005E02848022100780AF0DB
:100D8000A5FC27E0A82D2AD12548007838B307F024
:100D9000FFFF244905220978C1EB011100EB810412
:100DA000210E8AF80010210C8AF80110210A8AF815
:100DB00002108AF80340144940F244500DF0F5F84F
:100DC0003460012198F800000AF080FC9BF80000D4
:100DD0000128D1D189F800700120BDE8F09F0020E2
:100DE000FBE700002D0100207820002034210020A6
:100DF000A0860100942000207E200020902000206A
:100E000057020020A02000208B2000204D0200204F
:100E100010C21A138A2000209C2000207F2000206E
:100E200056020020892000200178AA2902D14078AA
:100E3000BB2801D00020704701207047164810B52C
:100E4000817839B3154842F210720068B0FBF2F3B2
:100E500002FB130412480CF0C3FD2101A20241EA77
:100E6000942142EA14125140C1F30D030D4A0E4978
:100E700040F2E244834207D00C4B984204D00B6806
:100E8000934207D0984205D120460A600CF0BEFC80
:100E9000012010BD002010BD2D0100207820002071
:100EA0003421002040420F00F4020020C6653203C6
:100EB00000220221435C491C1A44C9B2D2B20B2958
:100EC000F8D3C07A904201D10120704700207047CA
:100ED00000220221435C491C1A44C9B2D2B20B2938
:100EE000F8D3C2720C210CF025B800220221435C19
:100EF000491C1A44C9B2D2B20B29F8D3C2720C21D0
:100F00000CF030B82DE9F04F8DB093460D460446F5
:100F1000302234496846FFF727F9611E642391FBAC
:100F2000F3F6CF1701EB9777C6EBA7079E0091FB6F
:100F3000F6FCDFF8B4A007EB0C08BAF80000421E7C
:100F400092FBF3F74FEAE27C02EB9C7CC7EBAC0729
:100F500092FBF6FC67445FEA847C0FD1B4FBF3FCA0
:100F600003FB1C4CBCF1000F04D1B4FBF6FC06FBE8
:100F70001C441CB9022D01D9012400E00024E946DB
:100F800009EB850540F26D1C55F8045C01FB0C551E
:100F900008EB0B0129440C4413495FEA807C498823
:100FA0000DD1B0FBF3FC03FB1C0323B9B0FBF6F33C
:100FB00006FB130018B9022901D9012000E0002026
:100FC00009EB8101BAF8043051F8041C0DB0194442
:100FD00040F26D1302FB037211440844001BBDE88C
:100FE000F08F00008CE50008F2010020074890F81F
:100FF00051004D2807D04E2805D05D2803D07E280B
:1010000001D000207047012070470000040200203A
:10101000224810B5007801282DD121490878AB2845
:1010200029D0AC2827D0AB2008701E481E49007874
:1010300008701E481E4900780870012104200AF03B
:1010400045FB1C480078012803D0022104200AF047
:101050003DFBAB2000F07CFB174993200CF046FDD4
:101060001648174942690A6002694A60C2688A6084
:101070008068C86010BD1348006830B1124800682D
:1010800038B1BDE810400CF0C1BDBDE810400CF017
:10109000BDBCBDE8104009F023BA0000902000203C
:1010A000550200204E0200207E2000204F0200202A
:1010B0007F2000204D0200208821002040210020B8
:1010C00014210020FC0200200003002010B540F293
:1010D000665441F69A21204605F00EFC0448002192
:1010E000018040F237500CF086FB0248048010BDAE
:1010F0005C020020742000200020054B054A0146B8
:1011000019541154401CC0B20C28F9D37047000088
:10111000EE200020D82000200020054B054A014683
:1011200019541154401CC0B20C28F9D37047000068
:1011300007210020FA20002070B51F4D0821284605
:1011400004F0F4FD1D4C012630B10121284604F0C5
:10115000EDFD08B1A67101E0A07908B30821284689
:1011600004F0E4FDE0B90121284604F0DFFDB8B940
:101170002179002029B1A071617869B1491E61709F
:101180002070617961B1A0716178491CC9B2617048
:101190002670FF2903D003E0FF216170F1E7607042
:1011A0000821284604F0C2FD20710121284604F0E0
:1011B000BDFD607170BD00000014014004020020FC
:1011C000044A0021535C4354491CC9B20C29F9D389
:1011D00070470000EE200020044A0021535C435475
:1011E000491CC9B20C29F9D370470000072100201F
:1011F00030B5A0F534502D4B2D4C2E4A0F3810D061
:10120000A0F50060673828D00025A32941D0A42983
:1012100045D0A52904D100201554401C0728FBDB2C
:1012200030BD254DA3290AD0A4290FD0A529F7D177
:101230000020295C1154401C0728FADB30BD002037
:10124000295C1954401C0728FADB30BD0020295CBA
:101250002154401C0728FADB30BD184DA3290AD0C1
:10126000A4290FD0A529F7D10020295C1154401CD6
:101270000728FADB30BD0020295C1954401C0728E0
:10128000FADB30BD0020295C2154401C0728FADB22
:1012900030BD00201D54401C0728FBDB30BD002062
:1012A0002554401C0728FBDB30BD0000D101002085
:1012B000D8010020DF010020AAF20008B1F20008E6
:1012C0000F4920B101280AD0022817D10FE00D4A9A
:1012D0000020135C0B54401C1528FADB0EE00A4A70
:1012E0000020135C0B54401C1528FADB06E0074A6B
:1012F0000020135C0B54401C1528FADB04F070B876
:1013000094010020D0F50008E5F50008FAF5000882
:1013100010B503780E4A302B02D0352B04D001E0F3
:1013200001290DD000230FE042211170502151708E
:10133000017891704178D17081781171C0785071C5
:1013400010BDC45CD4545B1C8B42FADB10BD0000A2
:10135000650100200D4A10B5072111700C490122CA
:1013600009780BF0DBFB90200CF0D2FB09480078E9
:10137000022808D0012808D10749BDE81040891C7F
:1013800092200CF0B3BB0549F7E710BD55020020D1
:10139000470200201C02002082ED000877ED0008C3
:1013A0002DE9F04105F046FCDFF824820727894D3E
:1013B00098F80000884C01280CD088480078032851
:1013C00008D0022806D0864E3078012820D0022886
:1013D00020D021E02F700CF0ABFB2078022811D038
:1013E000804982200CF082FB7FA191200CF07EFBD3
:1013F000002006F0BDFA0A200CF042FCBDE8F041E6
:1014000008F064B97B4982200CF070FB7A49ECE764
:10141000022000E0012030700BF052FB002872D156
:101420002878212827D006DC08284BD0092849D065
:101430001F2804D11FE0242848D0462821D02F702F
:101440000CF076FB98F80000012846D06B4980200C
:101450000CF04CFB3078012841D0022853D1684869
:1014600068A10678812003F053FB207802284BD036
:1014700001284BD04EE0654A6549307804F08EFE75
:1014800020E0644900EB800001EBC000406A804727
:1014900010B101280AD015E02078022802D00128D6
:1014A00002D00FE05C490AE05C4908E0207802289D
:1014B00002D0012802D005E0594900E059499120A5
:1014C0000CF014FBBDE8F04106F022BA06F020FA59
:1014D000BDE8F041912003F097B95349B7E753486D
:1014E00048A10678812003F013FB2078022802D05F
:1014F000012802D005E04E4900E04E4997200CF04B
:10150000F5FA0E2007E061E04B4900E04B499720D7
:101510000CF0ECFA0F2028700C2E57D2DFE806F002
:1015200056060F18213556472A333E542078022894
:1015300003D001284AD142493FE042493DE02078AA
:10154000022803D0012841D13F4936E03F4934E029
:101550002078022803D0012838D13D492DE03D49AB
:101560002BE02078022803D001282FD13A4924E02B
:101570003A4922E02078022803D0012826D13849B0
:101580001BE0384919E038A117E02078022803D081
:1015900001281BD1364910E036490EE02078022898
:1015A00003D0012812D1344907E0344905E02078FE
:1015B000022807D0012809D13149BDE8F041902027
:1015C0000CF094BA2F49F8E72FA1F6E7BDE8F081B7
:1015D0004D020020550200201C0200201E020020A7
:1015E00047020020BDEA00085573656420446F750A
:1015F000626C6500B2EA00080FEE000800E6000821
:101600004F020020202B202000000000822000201C
:1016100080200020CC030020CCEF0008D1EF000890
:10162000D8EF0008DDEF0008FDE500084E020020BD
:10163000C5EA0008CBEA0008D0EA0008D6EA0008AC
:1016400064E800085EE8000868E8000874E800083C
:101650006CE800087AE8000870E8000880E80008F4
:10166000B2E80008AAE8000856474132000000002E
:1016700092E8000886E80008C3E80008B6E8000819
:10168000A4E8000896E800085344490010B505F0A6
:1016900009FD38B12C484FF00401006801282FD013
:1016A000942040E029480078932840D018DC8A280C
:1016B00034D00CDC72283ED004DC4B282CD06B28B4
:1016C0003DD138E0792836D0882838D122E08B38CF
:1016D000082834D2DFE800F022333333252B2B2BBC
:1016E000943813282BD2DFE800F0222A2A2A2A2A4B
:1016F0002A1315150F2A0D2A0A0A0A0A11000521B4
:10170000912010E00321FBE70B21F9E70A21F7E71D
:101710000821F5E70621F3E70221F1E704219720EC
:1017200001E004218320BDE81040FEF74DBFBDE875
:101730001040FEF745BEBDE81040FEF701BEBDE813
:101740001040FFF72DBE00001803002055020020B6
:1017500070B5254C84F851000CF0EAF9207E04F5B0
:10176000E475022802D0012814D02AE094F8510030
:1017700000EB800005EBC001496819B115F8300095
:101780000CF0B4F994F8510000EB800005EBC000B8
:10179000016912E094F8510000EB800005EBC001F4
:1017A000896819B115F830000CF0A0F994F85100CF
:1017B00000EB800005EBC000416911B1007B0CF02B
:1017C00095F994F85100B42809D0B52807D0AA2873
:1017D00008D106499120BDE870400CF087B9044952
:1017E0009020F8E770BD0000040200204AF50008D0
:1017F000C3F5000873B50D46684606F02AFF20B30E
:10180000144C6279022A17D2A07900281CD19DF8C5
:10181000001004F1130030318154521CD1B26171B7
:1018200000224254014628460CF060F960790228F3
:1018300002D209A00CF080FC6079022804D10120BA
:10184000A071022005F008FA7CBD9DF8000006F0AA
:101850008FF87CBD2D0100205F00000070B50024D2
:1018600005F03EFC002874D1714D2878102870D006
:1018700011286ED06F4E00EB800106EBC1010969A3
:1018800011BB452820D005F0D5F9287800EB800160
:1018900006EBC101097E814200D02970287800EB57
:1018A000800006EBC000406A08B1804704462978F2
:1018B0006148222964D052DC1B2961D04ADC1429FA
:1018C0005AD0162970D157E005F0B4F9287800EB0A
:1018D000800106EBC101497E814201D029700124BB
:1018E0002878FFF735FF0BF0EBF8297801EB810042
:1018F00006EBC000C3693BB134B90022032098470E
:1019000010B101200CF0BCF9287800EB800006EB48
:10191000C000017B912913D1006A88B190200CF09E
:10192000B3FD287800EB800006EBC000006A80471A
:101930002978884201D141A000E041A00CF0FCFBD5
:1019400028789A286ED13F489121007802F0F8FF5C
:1019500068E06BE01D2913D0202925D110E02B2948
:1019600014D004DC272911D029291DD10EE0952996
:1019700031D09A2918D136E00078204484B213E09F
:101980000078204484B205F0C3FF0AE000782044C8
:10199000642801D9642400E084B29121204602F039
:1019A000EFFE872003F07CFA297801EB810006EB3B
:1019B000C000C36913B12246032098472878202825
:1019C00027D01CDC142824D0162822D01B2820D095
:1019D0001D2827D11DE000782044642801D9642403
:1019E000DFE784B2DDE7007820440F2801D90F2417
:1019F00000E084B29121204602F0A2FFD1E7222824
:101A000007D0462802D095280CD105E005F024FC2B
:101A100008E005F067FD05E00B482A2290210078D8
:101A200002F0B8FDBDE8704000F062BB70BD000080
:101A300055020020CC0300203F0200202A000000B5
:101A40003E000000500200204902002070B50CF05A
:101A50006FF805F0EFF8294D294E28785B2801D062
:101A60005D2814D140F2CD400BF066FE307802289C
:101A700002D0012802D005E0224900E022A1802006
:101A80000CF034F805200CF0FBF80CF051F8287835
:101A9000214C00EB800004EBC000C07E2870317840
:101AA000022902D0012910D021E000EB800004EBD4
:101AB000C00114F8300049680CF018F8287800EBE1
:101AC000800004EBC00001690EE000EB800004EB35
:101AD000C00114F8300089680CF008F8287800EB91
:101AE000800004EBC0004169007B0BF0FFFF00F0B9
:101AF000FFFABDE870400AF0E3BF00005502002085
:101B00001C02002002ED00084261636B7570206FBB
:101B100070656E6564000000CC030020094910B5B3
:101B2000462008700CF004F807480078022807D017
:101B3000064980200BF0DAFFBDE8104005F08CBBB1
:101B40000349F6E7550200201C020020CAEE0008F7
:101B5000C1EE00082DE9F05F05F06CF8BB48BC4908
:101B6000BC4A0078BC4BBD4FDFF8F4C2DFF8F4820A
:101B7000BD4DBE4EBE4C01281AD0DFF8F892DFF8FA
:101B8000F8E2DFF8F8A2DFF8F8B202283FD0BD484B
:101B90000078012872D099F80040082C6FD0052CED
:101BA0006ED00A2C6DD0092C6CD0062C6BD005E1C0
:101BB000207808280DD0052813D00A281AD0092823
:101BC00074D0062873D028883188084370D001204B
:101BD00033E108881188084301D0012008E1AA49AF
:101BE00006E018883988084301D0012017E1A74989
:101BF00001208DE0BCF80000B8F80010084304D0C4
:101C0000BDE8F05F012003F0E5BCA149F0E7A14881
:101C1000007802280FD099F80000022408280DD07F
:101C2000052826D00A284BD009286DD006286DD06B
:101C3000012C66D05CE020780124EFE7012C02D073
:101C4000022C08D00DE0088808B9108878B1204629
:101C500003F0B4FD55E0BEF8000010B98E480088CE
:101C600018B1204603F0AAFD42E0874922E08649E8
:101C700044E0012C08D0022C0ED013E056E057E0CF
:101C80006AE07DE0A1E0B7E0188808B93888A8B11B
:101C9000204603F019FC34E08048008810B9BAF8F7
:101CA000000030B1204603F00FFC21E098E0AEE0E8
:101CB0006BE07649204603F013FD2FE073491DE0E9
:101CC000012C02D0022C0AD00FE0BCF8000010B9A1
:101CD000B8F8000088B1204603F07CFC11E07048A1
:101CE000008810B9BBF8000028B1204603F072FC50
:101CF000022C13D018E06649DCE76549204603F062
:101D0000EFFC288840B10FE0664900E066492046B4
:101D1000BDE8F05F03F0E4BC308804E0634800886D
:101D200010B96348008880B3204686E0247834E701
:101D3000012802D0022806D00BE0098849B9118891
:101D400039B9514929E0BEF8001011B95249098842
:101D500081B303F033FD31E0012802D0022806D020
:101D60000BE0198849B9398839B9484915E04B4918
:101D7000098811B9BAF80010E1B103F0A5FB1DE024
:101D8000012803D002280CD011E05AE0BCF8001062
:101D900069B9B8F8001051B93D49012003F0A0FC21
:101DA0000CE03F49098811B9BBF8001011B103F0EC
:101DB00011FC03E0FFE70A2005F0DAFD3148007866
:101DC000012830D0022832D037E0012802D0022882
:101DD00008D00DE03749098851B93749098839B920
:101DE000304905E73549098811B93549098841B3B2
:101DF000BDE8F05F03F0E2BC012802D0022808D061
:101E00000DE03049098851B92F49098839B9264967
:101E1000EEE62E49098811B92D49098889B1BDE836
:101E2000F05F03F051BB298839B9318804E01F49BC
:101E3000098811B91E49098819B1BDE8F05F03F09E
:101E400043BDBDE8F05F0A2005F092BD4D020020C1
:101E50008A0200208C020020AA020020AC0200208E
:101E6000CA020020CC0200207A0200207C0200205E
:101E70004E0200204F02002092020020B4020020F7
:101E8000D40200204702002040020020410200202E
:101E9000420200204C02002094020020B2020020E6
:101EA000D2020020440200204502002082020020CD
:101EB000840200209A0200209C020020A20200203E
:101EC000A4020020BA020020BC020020C2020020AE
:101ED000C402002073B50D46684606F0BAFB20B375
:101EE000144CE279022A17D2207A00281CD19DF8DE
:101EF000001004F1160030318154521CD1B2E1714E
:101F000000224254014628460BF0F0FDE0790228F9
:101F100002D209A00CF010F9E079022804D10120C6
:101F20002072022004F098FE7CBD9DF8000005F0B0
:101F30001FFD7CBD2D0100205F0000002DE9F04752
:101F4000894606F067FB04007ED047480122474DD2
:101F50000078762812D006DC5C2860D0682808D08B
:101F60006F2865D107E07C280CD08C2860D14048D0
:101F700006E0404800E0404804703CE03F482A70DA
:101F8000047055E03E484049404E90F800803D487E
:101F90003F4FDFF800C1B8F1070F2CD2DFE808F09F
:101FA0002B04050A121D2D00E6E70078844259D063
:101FB0000C7020E00078844254D00878844251D0DC
:101FC000347018E0007884424CD00878844249D0BC
:101FD0003078844246D03C700DE00078844241D095
:101FE000087884423ED0307884423BD038788442AE
:101FF00038D08CF800402A701AE00078844231D042
:10200000087884422ED0307884422BD038788442AD
:1020100028D09CF80000844224D01F48ACE71F4819
:102020001F49204A006868B1107801EB40004470F5
:102030001DA148460BF05AFD21464846BDE8F04731
:1020400002F0F0BD002000E00CE0127805E000BFD7
:1020500011F81030A34205D0401C9042F8DB01F883
:102060001240E5E7BDE8F087550200202D01002071
:102070004E02002021020020220200202302002024
:102080002A0200202B0200202C0200202D0200201A
:102090002E0200202F020020300200201403002016
:1020A0007821002020020020202020202020000075
:1020B00010B5044604F06CFA0C493120102C08715C
:1020C0000FD0112C06D0122C02D0132C04D10AE010
:1020D000012000E002204871BDE810400348FEF7EF
:1020E00004BF0520F7E70620F5E7000059010020AE
:1020F000584810B5017858480429006823D018DCE6
:10210000002963D0022936D003296ED1842102F040
:10211000E5FB5248007818B12D22862102F03AFAE8
:102120004F4990200BF0E2FCBDE81040932002F0F4
:102130006BBB052925D0AB2974D0AC2955D1BDE89E
:10214000104002F0EDBE47488321008802F018FBE2
:10215000454878228521008802F01CFA43489321E3
:10216000008802F00DFB4248782295210088BDE8E6
:10217000104002F00FBA932002F036FE3D49832052
:1021800020E002F0B1FE3C4991200BF0AFFC3B4C4B
:10219000A088FF2814D06088FF2811D038499020EB
:1021A0000BF0A4FC2088932102F0EAFA60889621C3
:1021B00002F0C6FBA088BDE81040982102F0C0BB29
:1021C00030499020BDE810400BF090BC80200BF00F
:1021D0009FFC2D482D4C0078032807D001280BD0F8
:1021E000022820D0042826D012E032E028491BE043
:1021F00028A10AE029A108E02A48007801280FD088
:10220000294980200BF072FC28A1812002F080FC7B
:102210002848007888B1BDE8104083200BF09CBDB1
:102220002549EEE712E0254980200BF05FFC20787D
:102230000128DFD1DCE72249E3E7224800780028C3
:1022400007D0BDE8104083200BF066BD1E499320E7
:10225000B8E710BD55020020782000207020002033
:1022600054E6000862020020640200205E020020A2
:10227000600200206501002094010020F20100208E
:102280004BF2000811F000081E0200204C02002052
:1022900003E60008202D3E2000000000203C2D20F9
:1022A000000000004D02002000E60008202B202046
:1022B0000000000057020020FDE5000806E60008C7
:1022C00009E60008560200208821002070B504F0BD
:1022D00007FF002844D104F0ADFC0BF029FC214C91
:1022E0002078302818D008DC122815D0192813D0EF
:1022F0001E2811D0252808D10EE053280CD06428C0
:102300000AD0812808D0862806D012202070207894
:10231000BDE87040FFF71CBA134D00EB800005EBE1
:10232000C000407E207000EB800005EBC000017B08
:102330009129ECD1006A0028E9D090200CF0A4F893
:10234000207800EB800005EBC000006A8047217810
:10235000884201D105A000E005A00BF0EDFED6E714
:1023600070BD000055020020CC0300202A000000B0
:102370003E00000073B50D46684606F06AF938B3B2
:10238000164C627A022A17D2A07A00281FD19DF833
:10239000001004F1190030318154521CD1B2617225
:1023A00000224254014628460BF0A0FB607A022826
:1023B00002D20BA00BF0C0FE607A022807D10120E8
:1023C000A072607B032802D1022004F045FC7CBD92
:1023D0009DF8000005F0CCFA7CBD00002D01002026
:1023E0005F00000073B50D46684606F032F920B371
:1023F000144CE278022A17D2207900281CD19DF8CB
:10240000001004F1100030318154521CD1B2E1703F
:1024100000224254014628460BF068FBE07802286F
:1024200002D209A00BF088FEE078022804D1012036
:102430002071022004F010FC7CBD9DF8000005F026
:1024400097FA7CBD2D0100205F00000070B504F0FC
:10245000F1FB144C144D20780A2805D00B2803D02A
:102460000C2801D00A2004E000EB800005EBC0003E
:10247000407E2070C0B2FFF76BF990200CF004F89A
:10248000207800EB800005EBC000006A80472178CF
:10249000884201D105A000E005A0BDE870400BF026
:1024A0004BBE000055020020CC0300202A00000093
:1024B0003E0000002DE9F0411F4D064695203224D4
:1024C00028700BF035FB1D481D491E4A87781E4BAE
:1024D000BFB100268670187802282AD0911C80206F
:1024E0000BF004FB287800EB8001184800EBC100DA
:1024F000406A08B18047C4B22046BDE8F0410AF006
:10250000A5B801248470187802280CD0911C802072
:102510000BF0ECFA0E4991200BF0E8FA3046BDE8DA
:10252000F04108F0FDB8891C80200BF0DFFA094962
:10253000F1E7891CD3E7000055020020F8010020D4
:1025400016EF000821EF00081C020020CC03002039
:1025500041E800083CE800082DE9F84FFB4D002653
:10256000022095F800B004F077FB00287ED129788E
:102570000024F74F722943D006DC692927D06B2944
:1025800027D0702906D139E077293ED079293ED06D
:102590007E2914D0EF480278012A43D0A846EE4D98
:1025A000AB297DD04DDC8C2959D043DC102952D089
:1025B00011295BD08A2901D08B2972D196E07C2128
:1025C0002970BDE8F84F0022042009F0DFBEE3487F
:1025D00004700BF0ADFA07F059FB1CE001281FD086
:1025E00002E090200BF082FA05200BF049FB2C70E2
:1025F00005F010FABDE8F84FFFF728BAD848047084
:102600000BF096FA07F05EFB05E0D64804700BF07D
:102610008FFA07F073FB38780228DFD1D249E0E760
:10262000D249DEE7047092202870BDE8F84FD0A1AF
:102630000BF05CBAA82959D0A92957D0AA2960D192
:1026400054E0A1F1AE0008285BD2DFE800F02F2FA4
:102650004F4F4F4F4F2FBDE8F84F05F05BBF06F0CF
:10266000F7F8B8B190200BF053FA00E02CE038787E
:10267000022802D0012802D005E0BB4900E0BB4996
:1026800090200BF033FA05200BF0FAFABDE8F84F72
:1026900007F01CB8FDF7F2FD0A200BF0F1FA01E09B
:1026A00014E02EE0BDE8F84F0BF014B801EB810008
:1026B00005EBC0004746C3691BB3002204209847BE
:1026C000002801D0AD203870BDE8F88F01EB810003
:1026D00005EBC0004746C3699BB100220420984720
:1026E0000028F1D03878FFF733F8C1E101EB810021
:1026F00005EBC000C36923B10022042098470028DD
:10270000E2D00BF015FA98F800004746312823D0A4
:1027100000EB800105EBC101897E814201D0397057
:1027200001263878E0B1FFF713F83878AA4600EBB5
:10273000800205EBC2014FF001090A69002A7DD031
:102740005C2841D010DC1A2830D01F281CD0262845
:102750002CD05B285DD12EE003F00CFB3870E0E755
:10276000BDE8F84FFFF7B2BD6B2804D0722805D042
:1027700079284ED105E002F0D1FA4AE002F0F0FAF1
:1027800047E002F00FFB44E07A480078022804D0CA
:102790007B48794A7949007806E07A48764A774951
:1027A0000078012805D0012003F0F8FC05F0B0F80E
:1027B0002FE00220F8E77448494680F8009040F284
:1027C000C9400AF0B1FF24E00094704C2078313009
:1027D0008DF800003A208DF8010085200BF054FEA2
:1027E00068460BF0A9FC95200BF04EFE68460BF0F6
:1027F000A3FC674D207815F8101011B1862002F067
:1028000011FA207805EB4000417811B1962002F0D2
:1028100009FA3978544601EB81000AEBC000C3691C
:102820007BB12EB1682903D06F2901D0762908D158
:1028300000220420984720B1012000E01FE00BF0A7
:102840001FFA387800EB800004EBC000017B91296F
:1028500014D1006A002811D090200BF015FE3878B2
:1028600000EB800004EBC000006A804739788842A2
:1028700001D148A000E048A00BF05EFCF4E0486AFB
:102880004FF0000808B1804780463978434E272929
:1028900024D012DC1D2934D008DC142933D01629A9
:1028A00031D0182932D01B2924D12AE0202928D060
:1028B000222926D024291DD11DE0462974D006DC0A
:1028C00029290BD02B2909D0452913D107E0344DF4
:1028D0008D2975D08E2969D09A290BD1B8E00220B4
:1028E00005F058FE04F0A6F92E482A22902100781F
:1028F00001F050FEB8E005F00BF8912001F084FFE4
:10290000B2E005F005F8872002F0CAFA3978022013
:1029100005F040FE70B100223978042007F056FF20
:1029200004F088F904F0DEFD39788B453FD0C6F815
:10293000009040E0397801EB81020AEBC200C369E4
:10294000002BEDD0002204209847E9E75502002033
:102950001C0200202D010020CC03002024020020B6
:102960002502002026020020B6E70008BFE7000885
:102970005F0000004D020020822000208020002007
:10298000470200204C0200201F02002020020020ED
:10299000782100202A0000003E00000018030020DB
:1029A000F80100201D0200205CE009E035E03068FD
:1029B000012802D1346002F09BF804F06DFD53E071
:1029C0002878401C10F0010028704FF002000FD052
:1029D00005F0E0FD012807D104F02CF904F082FD98
:1029E000346002F085F83FE02878401C28703BE016
:1029F00005F0D0FD0128F7D104F01CF904F072FDB8
:102A00001D480221C6F8009001708E20FEF7A0FE3E
:102A10001AA191200BF06AF826E06878401C10F0AB
:102A2000010068704FF0020007D005F0B3FD0128E7
:102A3000D2D06878401C687016E005F0ABFD012824
:102A4000F7D104F0F7F804F04DFDC6F800900BE064
:102A500004F0F0F89121404601F092FE872002F048
:102A60001FFA01E004F0B2FC387800287FF42CAEA5
:102A7000BDE8F84FFFF73CBB470200205F20202055
:102A8000780000002DE9FF5FFE48427802928178CD
:102A9000047901F07F08C17847798679C57922B138
:102AA0001046F94A127890427CD1F84AF848DFF88B
:102AB000E4A31278019200780090F7484FF0000BE1
:102AC000B8F10D0F02786ED01BDCEE4BDFF8CC9323
:102AD0004FF0020E587993F804C0DB784CEA0020DE
:102AE00003F07F034FF0010C0393B8F10D0F7DD27B
:102AF000DFE808F07C4982EFEEEDECEBEAE9E8E78D
:102B0000E600DFF89CC3B8F1140F70D00ADCA8F11E
:102B10000E08E448B8F1060F68D2DFE808F0EDECE3
:102B2000EBEAE9E8E048DFF88493B8F1170F6CD0DE
:102B300013DCB8F1150F69D0B8F1160F56D101703A
:102B400040F2E7400AF0F0FD89F8004089F8017092
:102B500089F8026089F8035008E3B8F1180F56D0DD
:102B6000B8F17F0F42D1D24DD24E14293ED2DFE8C8
:102B700001F03DF6F5F5F4F3F2F1F0EFEEEDECEBEC
:102B8000EAE9E8E7E6E5CC4ACC4B01290CD002297A
:102B90000FD0032910D0042928D1C2F800B0C3F8FF
:102BA00000B0E3E29FE389E2C2F800C0C3F800C0CE
:102BB000DCE2FDF787FBD9E2B34D214640F2C74086
:102BC0002C700AF0B1FD28780322401CC1B2042009
:102BD00007F064FDAB488078000607D5B848007858
:102BE000012803D10A21A74804B001E07EE09EE25B
:102BF000BDE8F05F0AF088B9B24DB34EB34FB44CA4
:102C00004FF49460152971D202E0A5E296E2B6E293
:102C1000DFE801F06C0B0E151B21272F323A3E43E3
:102C2000474E505260667375770009F01FFB9DE2B6
:102C3000032A02D009F0F6F898E2002016E0032AF1
:102C400001D009F0EFF8042010E0032A01D009F0C8
:102C5000E9F803200AE0032A01D009F0E3F8022092
:102C600004E0032A01D009F0DDF8062001F062F843
:102C70007CE209F067F879E2DDE90004012108F05F
:102C800025FD022120468EE085F800C0012102E0EA
:102C900085F800B00021012007E086F800C001217E
:102CA00002E086F800B00021022008F0DBFC5DE2C3
:102CB000972116E0982114E087F800E001200CE04D
:102CC000F5E1EDE18BE178E14AE120E1CAE08EE057
:102CD0006CE01BE087F800C0022009F0C3FC45E26D
:102CE00099217C48017003F06BFB3FE28CE012E21B
:102CF00000E2E4E1DCE1D4E1E7E1614602E07146B3
:102D000000E0032121700AF00FFD2FE2012902D01B
:102D1000022903D004E089F800C001E089F800E04E
:102D20000C2C71D2DFE804F070061C2024282C3013
:102D30007034383C99F80010012034E0BFE2BAE268
:102D4000A7E2A2E29DE298E293E28EE289E283E2C8
:102D50007EE279E274E244E240E238E227E21AE2FB
:102D600099F8001003201EE099F8001002201AE0E4
:102D700099F80010072016E099F80010082012E0DA
:102D800099F8001005200EE099F800100A200AE0DA
:102D900099F800100B2006E099F80010092002E0D5
:102DA00099F80010062008F091FCDFE1012910D00D
:102DB000022910D0032913D0042925D1464D2146DC
:102DC00040F233502C700AF0AFFC287809F03EFC3A
:102DD000CCE1012008E0414880F800C0022003E077
:102DE0003E49032081F800E007F09AFCBEE10E297D
:102DF0000AD2DFE801F009070A0E10121416181A99
:102E00001E2124260E2101E0A9E00D218AF80010E0
:102E10001FE00C21FAE70921F8E70821F6E707216E
:102E2000F4E70621F2E70521F0E703208AF8000025
:102E30000FE08AF800E00CE08AF800C009E00A21FF
:102E4000E4E727498AF800B00880264846EA0521C9
:102E500001809AF8000008F043FF04F0EFFE05F04F
:102E600073FC83E1012944D0022978D11E4C02462B
:102E700014210220C4F800C007F0A8FC46EA05228D
:102E8000142133E0E4200020702000204E020020B6
:102E90004F020020540200204D0200204702002073
:102EA000130200206501002012020020870100208B
:102EB000822000208020002008030020040300203E
:102EC000110200204A0200204B0200204C02002088
:102ED0003D02002055020020490200204802002047
:102EE000842000208620002018030020C4F800B0B1
:102EF0006BE0FE4C024616210220C4F800C007F029
:102F000065FC46EA05221621C4F800B05DE009061A
:102F100002D489F800C001E089F800E00399012992
:102F20000FD002291BD1F14C02461B210220C4F80C
:102F300000C007F04BFC46EA05221B21C4F800B094
:102F400043E0EA4C02461D210220C4F800C007F00D
:102F50003DFC46EA05221D21C4F800B035E07EE0C4
:102F6000090602D489F800C001E089F800E003995D
:102F7000012906D0022912D0032970D1FEF7EAFDFB
:102F8000F4E0DA4C024622210220C4F800C007F027
:102F90001DFC46EA05222221C4F800B015E0D34CFE
:102FA000024620210220C4F800C007F00FFC46EAC8
:102FB00005222021C4F800B007E0012909D0022928
:102FC0000AD003294BD122462B21022007F0FEFB19
:102FD000CCE022462721F8E722462921F5E7C4481C
:102FE0000B293CD2DFE801F0DF062228323C4550B5
:102FF00053565900BF4804F07F0101F5FA61018082
:103000007907090F41EAD4114180F908818006F05F
:103010001F01C1806907890E41EA561101813E21D5
:1030200001EA9501418109F01FFF9FE0204606F06B
:10303000EBFC002813D099E0204603F0DDFF0028C8
:103040000DD0AD49AD480AF095F98FE00470477096
:103050008670C570012006F06DFE012011E0A2E02F
:10306000047047708670C570022006F063FE02206F
:1030700007E0047047708670C570032006F05AFEA2
:10308000032002F0E3F971E0FDF760FB6EE0FDF76D
:103090006BFB6BE0FDF776FB68E006F0BFFA65E0DE
:1030A0009748017044708770C67005715EE094485F
:1030B00041718471C7710672457257E09048817200
:1030C000C47207734673857350E08D48C1730474EE
:1030D00047748674C57480F814B002F081F9894889
:1030E000007818BB80200AF013FD854980200AF083
:1030F000FDFC3BE0C173047447748674C57480F8AA
:1031000014B0152140F217500AF00EFB16227E492A
:1031100040F219501DE08CF8001040F2F6400AF021
:1031200003FB7A48047047708670C5701EE07748CC
:10313000017144718771C671057217E0734841725D
:1031400084729CF80020014600F802B0921C4FF4F3
:103150009F600AF02AFF09E089F8041089F8054009
:1031600089F8067089F8076089F8085068488078FF
:10317000000603D567480078012871D0B1E089F8CE
:10318000091089F80A400278634940F2E94009F8D9
:1031900002B0921CDDE7012A32D0022A30D0032A85
:1031A00030D0042A30D0BDE8FF9F04207AE0022905
:1031B0000BD000980C28F6D2DFE800F00622242677
:1031C000062C06282A062E32EDE70198F2E753482E
:1031D0000078012814D0022814D0E4E75048017880
:1031E000E3E79AF800000F28DDD2DFE800F0211DA8
:1031F0001B1908171513110F1F080D0B0900D2E733
:103200000121D2E70221D0E70321CEE70421CCE758
:103210000521CAE70621C8E70721C6E70821C4E758
:103220000921C2E70A21C0E70B21BEE70C21BCE758
:1032300037488621C1703B4801883B48008847E0F9
:103240003A4801883A48F9E73A4801883A48F5E7A8
:103250003A4801883A48F1E73A4801883A48EDE7A8
:103260003BE03A4801883A48E8E73A4801883A485A
:10327000E4E73A4801883A48E0E73A4801883A48A2
:10328000DCE73A4801883A48D8E73A4801883A48A2
:10329000D4E7012C0BD0022C0BD0032C83D1374860
:1032A0000178052004B0BDE8F05F06F043BA344869
:1032B000F6E73448F4E7344A3449012002E0324A60
:1032C0003249022002F06AFF002886D0298830881F
:1032D00004B0BDE8F05F06F037BA0A210C4809F0E7
:1032E00013FE029800B153E056E0000018030020DE
:1032F0000F000020E60100209E0000203400002086
:103300009401002055020020650100207A01002070
:10331000E420002011020020870100204802002044
:10332000490200208620002084200020680200201E
:103330006602002064020020620200207002002069
:103340006E0200206C0200206A0200207802002039
:103350007602002074020020720200208002002009
:103360007E0200207C0200207A02002088020020D9
:1033700086020020840200208202002053020020E6
:1033800051020020520200208220002080200020D4
:1033900005490978884298D004B00A21BDE8F05F59
:1033A000024809F0DFBD000070200020E42000206A
:1033B000F8B500252E468DF800506946154805F0F1
:1033C000CFFB01280AD0144C1448E17839B10929FF
:1033D0000DD09DF800204254491CE170F8BD9DF8C5
:1033E0000010AA29FAD101700120E070F8BD9DF803
:1033F00000100D290BD141720121425C491C55403E
:103400000829FADB007AA84201D1FFF73BFBE670FE
:10341000F8BD00009F21002002000020E4200020D1
:103420000E4910B5112008700AF082FB0C48007894
:1034300002280BD0012810D10A4980200AF056FB3F
:1034400009499020BDE810400AF050BB0749802090
:103450000AF04CFB06498420F4E710BD5502002019
:103460001C0200209FEC0008F9EA000894EC000818
:10347000EBEA000831B5684605F0EBF800289DF846
:1034800000000AD018493030194C087017480078ED
:10349000102805D0112811D014E004F069FA38BDC5
:1034A0002078022802D0012802D018E0114900E05B
:1034B0001149842008310AF019FB03E00AF038FBB7
:1034C00005F060F82078022802D0012802D006E03A
:1034D0000A4900E00A499020891C0AF007FB0249CA
:1034E00092200AF003FB38BD3B010020550200206A
:1034F0001C02002043EA000830EA0008E2EF00085E
:10350000EEEF00080E4910B5102008700AF010FB0D
:103510000C48007802280BD001280FD10A498020DE
:103520000AF0E4FA0949BDE8104084200AF0DEBA46
:10353000074980200AF0DAFA0649F4E710BD0000D6
:10354000550200201C02002088EC0008F9EA00085F
:103550007DEC0008EBEA000831B582B0002402A837
:1035600005F077F800289DF808001AD008281AD02E
:10357000092818D0002816D000F130018DF800106D
:103580002549012209786B290ED072292BD079297F
:1035900009D1224D2978072905D2214B1A70214AD9
:1035A00036E004F0E5F93EBD1F4D29780729FAD22F
:1035B0001E4B1A701E4A04E0135D8342F3D0641C54
:1035C000E4B28C42F8D350549031C8B269460AF044
:1035D0008DFA2878401CC0B228700728E3D215A0C5
:1035E0000AF0AAFD3EBD144D29780729FAD2134BE3
:1035F0001A70134A04E0135D8342F3D0641CE4B2F2
:103600008C42F8D3DFE7135D8342EBD0641CE4B255
:103610008C42F8D3D7E700005502002008000020B4
:1036200026020020220000200600002024020020A4
:1036300014000020205F0000070000202502002069
:103640001B000020F7B515460E46684605F001F848
:1036500020B130460AF018FF002408E09DF8000071
:1036600004F086F9FEBD20200AF066FA641CAC4224
:10367000F9DB164CA078A84214D2617891B99DF874
:103680000020134930320A54401CC0B2A0700022FE
:103690000A5430460AF02AFAA078A84202D20DA0B5
:1036A0000AF04AFDA078A842DCD1012060700849E8
:1036B00030460AF01BFA084800789B2801D062289F
:1036C000D0D1022003F0C8FAFEBD00002D01002079
:1036D000342100205F0000005502002073B50D4624
:1036E000684604F0B6FF08B3134CE27A022A17D2F8
:1036F000207B002819D19DF8001004F11C00303106
:103700008154521CD1B2E172002242540146284633
:103710000AF0ECF9E07A022802D208A00AF00CFDC7
:10372000E07A022801D1012020737CBD9DF80000C1
:1037300004F01EF97CBD00002D0100205F00000098
:1037400070B5344C2079401CC0B220713C2818D18F
:1037500000202071E178491CC9B2E1703C2910D1E8
:10376000E070A178491CC9B2A170182909D1A070D4
:103770006078401CC0B26421B0FBF1F201FB120082
:1037800060702548007801280FD18521607801F00C
:10379000D7F89021A07801F0D3F89221E07801F0D9
:1037A000CFF89421207901F0CBF81C48007800284C
:1037B0002ED0207838B90120207005F0E9FA184998
:1037C000A0600AF0D5FC05F0E3FAA168401A3C219C
:1037D000B0FBF1F513480078854219D3B5FBF0F141
:1037E00000FB1150002813D12079002810D1B5F525
:1037F000803F0DD22078012805D10220207002F0F0
:103800004DFD09490880A8B2BDE8704006F0A0BA95
:1038100070BD00004C0100205502002072200020E5
:103820005C210020190200207420002010B503F054
:1038300039FC50B903F026FC38B90E4800789A28B4
:1038400003D0952801D0002010BD0B49087801282D
:1038500004D00A2804D0642804D005E00A2002E03D
:10386000642000E001200870872001F019FB01208E
:1038700010BD0000550200203F0200202DE9F0415C
:1038800061480078012819D009F036F95F480178BD
:10389000892901D0072101700AF04AF95C49012603
:1038A000022708785B4D5C4C03280BD08846012822
:1038B00064D0042862D002287DD09BE0BDE8F041AE
:1038C000FDF702B8554980200AF010F9287802283F
:1038D00002D0012803D006E05149922001E051496D
:1038E00090200AF003F92078022823D04EA18120ED
:1038F00001F00EF901200AF0C3F94EA1812001F078
:1039000007F901200AF0BCF94DA1812001F000F96E
:1039100001200AF0B5F94DA1812001F0F9F801204C
:103920000AF0AEF94CA1812001F0F2F801200AF072
:10393000A7F95AE04BA1812001F0EAF801200AF032
:103940009FF94BA1812001F0E3F801200AF098F9DA
:103950004AA1812001F0DCF801200AF091F94AA186
:10396000812001F0D5F801200AF08AF949A18120CF
:1039700001F0CEF801200AF083F93FE048484949B8
:1039800002780B7803700A702878022802D0012888
:1039900002D005E0444900E044A192200AF0A6F8D4
:1039A00098F8000001280AD0434980200AF09EF8C8
:1039B00042A1812000E004E001F0AAF81AE04149A8
:1039C000F3E7414980200AF091F82878022802D0D4
:1039D000012803D006E03D49922001E03C499020B7
:1039E0000AF084F82078022808D03AA1812001F05A
:1039F0008FF82770BDE8F04106F0AEBE38A18120F7
:103A000001F086F82670F5E74D02002055020020EF
:103A10001E0200201C0200204C02002003E60008C9
:103A200034EB000828EB000820202020203C2D2D1E
:103A300000000000202020203C2D2D200000000050
:103A40002020203C2D2D20200000000020203C2D97
:103A50002D20202000000000203C2D2D20202020A3
:103A6000000000002D2D3E2020202020000000001E
:103A7000202D2D3E202020200000000020202D2D74
:103A80003E202020000000002020202D2D3E202060
:103A900000000000202020202D2D3E2000000000EE
:103AA0004E0200204F0200204EE80008537761705C
:103AB00020496D616765000009E6000820202B2081
:103AC0002000000000E6000806E600084EEB0008B3
:103AD00060EB00083C2D2D2020202020000000005D
:103AE00020202020202D2D3E000000002DE9F04157
:103AF000002603F0F5FA00287BD16A4C20781028C4
:103B000077D0112875D0684D00EB800105EBC1011D
:103B10000969B9B9452815D003F08CF8207800EB75
:103B2000800105EBC101497E814200D021702078DF
:103B300000EB800105EBC1010A69E2B3BDE8F04189
:103B4000FDF706BE03F076F8217801EB810005EB66
:103B5000C000007E884201D0207001262078FDF749
:103B6000F7FD08F0ADFF217801EB810005EBC00007
:103B7000C3693BB136B900220220984710B1012039
:103B80000AF07EF8207800EB800005EBC000017B96
:103B9000912914D1006A90B190200AF075FC207828
:103BA00000EB800005EBC000006A80472178884266
:103BB00002D13EA001E00BE03DA00AF0BDFA207862
:103BC0009A2869D13B489121007800F0B9FE63E062
:103BD000486A08B1804706462078374F22281BD014
:103BE0000DDC1B2818D005DC142817D016281ED190
:103BF00014E055E01D280FD0202818D10CE02B2808
:103C00002CD004DC272829D0292810D126E095289B
:103C100004D09A280BD121E003F07AFE3878301ACC
:103C200001D5002600E086B2872001F039F921781D
:103C300001EB810005EBC000C36913B132460220DD
:103C40009847207820281ED013DC14281BD0162873
:103C500019D01B2817D01D281ED114E03878301A2F
:103C600001D5002600E086B29121304600F088FDA3
:103C7000DAE7222807D0462802D095280CD105E0A3
:103C800003F0EAFA08E003F02DFC05E00B482A22D5
:103C90009021007800F07EFCBDE8F041FEF728BAE4
:103CA000BDE8F08155020020CC0300202A0000006E
:103CB0003E000000500200203F0200204902002088
:103CC00070B5194C95203226207009F031FF20780C
:103CD000164D00EB800005EBC000406A08B180473C
:103CE000C6B22A229021304600F054FC10480078D9
:103CF000022802D0012807D010E0207800EB8000D5
:103D000005EBC001496805E0207800EB800005EB79
:103D1000C001896815F8300009F0E8FEBDE8704080
:103D2000872001F0BDB8000055020020CC03002020
:103D30001C0200202DE9F0411C4C1D4BDFF874E003
:103D400024881B881C4FE51ABEF800403B880026DB
:103D5000E41A1449144A1FFA85FCA7B207281AD29C
:103D6000DFE800F004190608131916000E800DE0B4
:103D70000E800EE004EBD470C0F34F00088005EB1A
:103D8000D570C0F34F00108005E00F80168002E070
:103D90000F80A2F800C0BDE8F0410221062008F023
:103DA0003DB9000076020020780200206C0200205D
:103DB000740200206A020020720200207047000096
:103DC0002DE9F047E04F0C46B97800297AD0DF485A
:103DD00009F006FE1FFA80F802F02CFF882C02D0B2
:103DE0004B2C70D0AEE10024D949DA48DA4A0125DB
:103DF000DA4EB8F1340F67D02ADCB8F10B0F7DD062
:103E00000CDCDFF85C934FF49C6AB8F1080F59D2D0
:103E1000DFE808F058404547495B64804FF47A7406
:103E2000B8F1160F6BD009DCB8F10C0F68D0B8F1FF
:103E30000D0F66D0B8F1150F44D18CE0B8F1170F13
:103E400079D0B8F1320F77D0B8F1330FF4D1D4E094
:103E5000B8F1400F71D00FDCA8F13508C14A40F22B
:103E60003A50B8F10B0FD2D2DFE808F0DEE3E82CCD
:103E70002C2C2CF8EFEEED00A8F14608B8F10E0F4F
:103E8000C5D2DFE808F0EAE9E81F1F1F1F1F1F1F48
:103E9000E7E6E5E40320787307F0BCFB52E14B2032
:103EA00038E14D2036E102230B70006890427CD34C
:103EB0000420AD4978738F20087009F039FEAB49B2
:103EC0008020AEE029E12BE1A1E00320FDF740FCDA
:103ED000A7488421006800F001FD33E109F028FEC5
:103EE000294689F80050504609F01EFC3078022817
:103EF0000AD0A049802009F0F9FD03E025E043E065
:103F000025E026E09C498BE09C49802009F0EEFDED
:103F10009B4918E009F00CFE214689F80040504604
:103F200009F002FC3078022808D09249802009F07C
:103F3000DDFD944974E042E05AE0B8E08F4980200A
:103F400009F0D4FD904987206BE0A320E2E0A42093
:103F5000E0E0A520DEE009F0EBFD8C49802009F0CF
:103F6000C5FD8B4D2888A04204D3B0FBF4F0852119
:103F700000F0E6FC2888B0FBF4F104FB1100862178
:103F800000F0FEFB83494BE009F0D2FD824980201E
:103F900009F0ACFD814D2888A04204D3B0FBF4F0B9
:103FA000852100F0CDFC288800E0ACE0B0FBF4F106
:103FB00004FB1100862100F0E3FB794930E009F0B1
:103FC000B7FD7849802009F091FD774D2888A042FF
:103FD00004D3B0FBF4F0852100F0B2FC2888B0FBDC
:103FE000F4F104FB1100862100F0CAFB6F4917E0D1
:103FF000B320FDF7ADFB6E4912E0AE20FDF7A8FB44
:104000006C48007808B16C490AE06C4908E0AF20C0
:10401000FDF79EFB6A48007808B16A4900E06A49EA
:10402000902009F063FD8DE0B020FDF791FB67491A
:10403000F6E7B120FDF78CFB6549F1E7B220FDF70B
:1040400087FB6449ECE730E01CE015E006E060E047
:104050005DE054E04DE04AE047E044E02946157059
:10406000044609F061FB5C49802009F03FFD3D49B1
:10407000204605F053F865E02146147009F054FB22
:1040800056491DE709F054FD3078022802D0012876
:1040900002D005E0524900E05249932009F026FD84
:1040A000FDF714F803F098FC4CE0A72032E04E48EE
:1040B00009F0CCFB04F064FF58B109F039FD4B491D
:1040C000802009F013FD4A488621008800F038FC62
:1040D00038E009F02DFD4749802009F007FD46A092
:1040E00009F0B4FB2EE0A22014E09F2012E0A620ED
:1040F00010E00C700068904205D39D200AE00D701E
:104100000068904201D29C2004E0A02002E09E20A2
:1041100000E09B20FDF71CFB14E00020BDE8F087C9
:10412000B8F13B0F01D94FF03B083A4808F0FF04C3
:104130002A2204709021404600F02CFA21460620E5
:1041400009F0F2FA0120E9E72D01002034210020D6
:1041500071200020F402002040420F001C020020C9
:104160000F02002072200020550200204BF20008B0
:10417000782000206FE600088BE600085AE6000869
:1041800084E6000897E6000890E6000874F200084C
:1041900064200020D101002088F200086620002061
:1041A000D80100209CF2000868200020DF010020D8
:1041B000C3F50008570200205DF500084CF5000823
:1041C000560200207FF500086EF5000890F5000803
:1041D000A1F50008B2F50008A9F30008BEF3000835
:1041E00098F00008A3F00008BCE5000883F300087D
:1041F0005C02002094F30008BFAABBFACAB1BCE479
:10420000CCABB6CCA3ACC3BBD3D0BCC7C2BC0D0A2D
:10421000000000001B0200202DE9F05FBB4888462B
:104220000027817800297DD0B94809F0D9FBB94D24
:10423000DFF8E492B94EDFF8E8A284B2BB46B8F1E9
:10424000AF0F18D018DCB8F1A90F52D00ADCB5486E
:10425000B8F18A0F1BD0B8F18B0F21D0B8F1A80F9D
:1042600027D127E0B8F1AA0F71D0B8F1AB0F6DD00C
:10427000B8F1AE0FF4D193E0A8F1B008AA48B8F1B4
:10428000060F16D2DFE808F08C8C8C8CFDFCA74959
:104290000C80A7490C8000780228E1D1A54807E0EE
:1042A000A5490C80A5490C8000780228D8D1A448E3
:1042B00004801AE13C2C04D902F0BCFCA1A18520A9
:1042C0006BE009F035FCA2A1852009F00FFCE1B2FA
:1042D000A14C40F23E50217009F026FA30780128B6
:1042E000E7D104F055FD2178C1EB011100EB810409
:1042F0001BE0601E1828DFD2E1B2984C40F2425019
:10430000217009F011FA964800780128D1D130784F
:104310000028CED104F03CFD2178C1EB4112C2EB64
:10432000012100E0F0E000EB0114200E2870200CC9
:104330006870200AA870EC700522764940F244505B
:1043400009F033FEC9F80040CFE000E01AE06F4802
:10435000844C807848B120706D49834A03E0CB5D7E
:10436000D3557F1CFFB28742F9D9217840F24950DA
:1043700009F0DAF922787C49921C40F24B5009F09E
:1043800014FEB2E0FCF776FC10B18AF800B0ACE0A5
:1043900002F050FC6BA1852015E009F0A7FBB3E00B
:1043A000FCF74AFC58B19AF800000121AE280FD062
:1043B000AF2842D0B12876D0B22874D095E002F070
:1043C00039FC6AA1872009F091FB6A499020E4E753
:1043D000634F387840B187F800B009F0A9FB66490F
:1043E000822009F083FB24E0397009F0A1FB6349C6
:1043F000822009F07BFB922009F0AEFC3078C0B936
:1044000004F0C6FC55490978C1EB4112C2EB012109
:1044100000EB0114200E2870200C6870200AA87090
:10442000EC7005223B4940F2445009F0BEFDC9F84A
:10443000004039784FF4A86031E0307840B186F818
:1044400000B009F075FB4E49822009F04FFB20E0D7
:10445000317009F06DFB4B49822009F047FB04F0F5
:1044600097FC3D490978C1EB011100EB8104200E56
:104470002870200C6870200AA870EC70052201E0FA
:1044800016E013E0234940F2445009F08EFDC9F8CC
:104490000040922009F040FC317840F23C5009F095
:1044A00043F922E0FFE705F01BF91EE004601CE081
:1044B0000068A0421ED1344D3448210E2C6001709A
:1044C000210C4170210A8170C470014605224FF40D
:1044D000AB6009F06AFD09F02BFB2D49812009F042
:1044E00005FB88212C608AF8001002F0A3FB012054
:1044F000BDE8F09F14A1882009F0F8FA1D4990202A
:1045000009F0F4FA02F096FB0020F1E72D010020FB
:10451000342100208B20002094200020560200200F
:10452000550200204D020020A82000206202002039
:104530006A02002072020020640200206C02002047
:1045400074020020202020202020202000000000D5
:10455000204F4B7E20000000892000208A20002070
:10456000570200208F2000208821002020202020BA
:1045700020200000C1F20008FFF40008F2F4000857
:10458000E5F40008D8F40008A420002098200020BA
:104590000CF500082DE9FC410D464FF47A71B0FB93
:1045A000F1F30A21B3FBF1F401FB14336424B0FBF3
:1045B000F4F4B4FBF1F701FB1744B0FBF1F7B7FBE0
:1045C000F1FC0026009601FB1C718DF800202022D2
:1045D0002143EC4601968DF80120194332D04FF06B
:1045E0000A02B0FBF2F7B7FBF2F102FB117102FB1A
:1045F000170201F130011C43C9B202F1300226D08A
:104600006424B0FBF4F00A24B0FBF4F704FB1700B9
:104610003030C0B20BB330338DF802308DF8030068
:104620008DF804108DF805205FF006000FA10CF83E
:104630000060284609F05AFA6946284609F056FAF9
:10464000BDE8FC8130308DF802000320EEE78DF8E4
:1046500002108DF803200420E8E78DF802008DF8A1
:1046600003108DF804200520E0E700002020202022
:10467000202000002DE9FC41012814D03E484122B1
:104680005621047800203225442649274FF0470C54
:104690000D2C58D2DFE804F057090F191F335D477E
:1046A000252C3A5766003548E9E78DF800208DF84B
:1046B000011031215DE08DF800208DF801108DF89A
:1046C000025000BF8DF803003DE08DF800208DF80A
:1046D000011033214DE08DF800208DF801103421B8
:1046E00047E08DF800108DF801C08DF80220E9E751
:1046F0008DF800108DF801C08DF802202FE08DF8A4
:1047000000608DF801108DF80270DBE748218DF80C
:1047100000108DF801604D218DF802108DF80370A6
:104720008DF804000FE059218DF8001050218DF80C
:10473000011062228DF802208DF8031072218DF88D
:1047400004108DF805006946982009F0CFF9BDE8FE
:10475000FC818DF800608DF801108DF802708DF8E5
:104760000350DDE755218DF8001053218DF801101D
:1047700042218DF80210A5E74F0200204E020020D2
:104780002DE9FC414FF47A720A25B0FBF2F2B2FB3C
:10479000F5F3884605FB132200216423B0FBF3F3F5
:1047A000B3FBF5F4B0FBF5FC05FB1433BCFBF5F4EF
:1047B00005FB14C46E4622B102F130018DF80010E1
:1047C000012153EA020703D003F130077754491C53
:1047D0002343134302D030347454491C05FB1C009E
:1047E00030307054491C0020705405A1404609F037
:1047F0007DF96946404609F079F9BDE8FC81000081
:1048000020202020000000007CB505460020ADF8E7
:104810000400ADF800002648007802280FD00128D7
:1048200013D0244804786A4601A9204601F0B6FC5A
:10483000BDF80400BDF80010084308D00FE01E4882
:104840000078022801D00224EDE70124EBE7642080
:1048500009F04CFA6A4601A9204601F09FFCBDF818
:104860000020BDF8041015A008F0F0FFBDF804000A
:10487000B0F5347F0ED1BDF80010F02903D0B1F5AA
:10488000907F03D006E04FF4F07101E04FF4107117
:10489000ADF800102946FFF773FFAD1CE9B278228E
:1048A000BDF80000FFF776FE2046FFF7E3FE7CBD73
:1048B0004D020020470200204C0200207274632E3B
:1048C0006320333332203A4853697A653D256420AA
:1048D000205653697A653D2564200A001CB50C46B4
:1048E00042F21071B0FBF1F201FB12014FF47A7346
:1048F000B1FBF3F2B0FBF3F103FB110130328DF8A1
:1049000000206423B1FBF3F2B0FBF3F130328DF8F9
:10491000012003FB11010A22B1FBF2F130318DF8C5
:104920000210B0FBF2F102FB110030308DF80300F1
:1049300000208DF804006946204609F0D7F81CBD18
:1049400038B50A22B0FBF2F40346B4FBF2F002FBE6
:10495000104002FB14320D4668B130308DF8000073
:1049600030328DF8012000208DF80200694628467B
:1049700009F0BCF838BD2020F0E7000010B509F0C0
:10498000D7F80B48007802280BD001280FD109492D
:10499000802009F0ABF80849BDE81040902009F0EC
:1049A000A5B80649802009F0A1F80549F4E710BD33
:1049B0001C02002017E8000832E800080AE8000896
:1049C0001FE8000870B51F4C1FA1208885B29620F3
:1049D00009F08CF896212846FFF7B2FFA0889421B1
:1049E00080B2FFF7ADFF2089922180B2FFF7A8FFC8
:1049F0001649208B097880B2022909D001291FD1DC
:104A000007281DD2DFE800F00A0C0E101214160061
:104A1000BDE87040C0B2992100F036B80CA10AE0A0
:104A20000DA108E00EA106E00FA104E010A102E034
:104A300011A100E012A1BDE87040982009F056B81D
:104A400070BD000040210020202000001C0200203A
:104A500053756E2E000000004D6F6E2E000000009A
:104A600054756573000000005765642E0000000057
:104A700054687572000000004672692E0000000044
:104A80005361742E0000000038B50C460021C82286
:104A9000009107280FD2DFE800F0040813181C214A
:104AA00026008DF80020D52003E0D2208DF80000EC
:104AB000BB208DF801006946204609F017F838BD83
:104AC000B6208DF80000FE20F3E78DF80020FD20D1
:104AD000EFE7CB208DF80000C420EAE7CE208DF868
:104AE0000000E520E5E7C1208DF80000F920E0E7AF
:104AF00005480068012803D00449932008F0F6BF58
:104B0000024908399120F9E71803002018F6000837
:104B10002DE9FC41424C0D4694F84A1000F082F811
:104B200094F84900012866D094F84BE00022412017
:104B300056243221442649274FF0470CBEF10D0F71
:104B400053D2DFE80EF052070D161C2E5A422227D0
:104B5000355263008DF800008DF8014031205CE093
:104B60008DF800008DF801408DF802108DF80320BB
:104B70003BE08DF800008DF8014033204DE08DF8CA
:104B800000008DF80140342047E08DF800408DF89A
:104B900001C042E08DF800408DF801C08DF80200A0
:104BA00031E08DF800608DF801408DF80270DDE78E
:104BB00048208DF800008DF801604D208DF802002E
:104BC0008DF803708DF804200FE059208DF8000057
:104BD00050208DF8010062218DF802108DF803003D
:104BE00072208DF804008DF80520284609F0A4FAFB
:104BF000684609F0A1FABDE8FC818DF800608DF8E7
:104C000001408DF802708DF80310DBE755208DF818
:104C1000000053208DF8010042208DF80200A5E726
:104C2000040200202DE9FC410022412556243226B1
:104C300044274FF0470E4FF0490C0D2955D2DFE8BD
:104C400001F054070D161C305944222937546200D4
:104C50008DF800508DF8014031215BE08DF8005057
:104C60008DF801408DF802608DF803203DE08DF84D
:104C700000508DF8014033214CE08DF800508DF844
:104C80000140342146E08DF800408DF801E08DF8B8
:104C90000250E9E78DF800408DF801E08DF80250F0
:104CA0002EE08DF800708DF801408DF802C0DBE732
:104CB00048218DF800108DF801704D218DF80210FB
:104CC0008DF803C08DF804200FE059218DF80010F5
:104CD00050218DF8011062238DF802308DF80310F9
:104CE00072218DF804108DF80520694608F0FEFE4B
:104CF000BDE8FC818DF800708DF801408DF802C090
:104D00008DF80360DEE755218DF8001053218DF8F2
:104D1000011042218DF80210A6E70000F8B50D4DF4
:104D200000242878002813D00B4E0BE0305D694634
:104D300030308DF8000004F19000C0B208F0D6FECB
:104D4000641CE4B228788442F0D304A009F0F4F99A
:104D5000F8BD00000600002014000020205F0000C5
:104D6000F8B50D4D00242878002813D00B4E0BE029
:104D7000305D694630308DF8000004F19000C0B21B
:104D800008F0B4FE641CE4B228788442F0D304A096
:104D900009F0D2F9F8BD0000070000201B00002038
:104DA000205F0000F8B50D4D00242878002813D0AE
:104DB0000B4E0BE0305D694630308DF8000004F199
:104DC0009000C0B208F092FE641CE4B228788442DD
:104DD000F0D304A009F0B0F9F8BD000008000020ED
:104DE00022000020205F0000FEB5284A00210A238F
:104DF0001678B6FBF3F5B5FBF3F203FB12546A46E3
:104E00001CB130348DF80040012103FB15643034AF
:104E10005454491C2E241E4D5454491C2D78B5FB66
:104E2000F3F603FB165530355554491C2D25194E04
:104E30005554491C96F800C0BCFBF3F7B7FBF3F6DA
:104E400003FB167616B130365654491C03FB17C6C1
:104E500030365654491C54540F4C491C2478B4FB2A
:104E6000F3F603FB164330335354491CC9B20023F5
:104E70005554491CC9B2535409F006FB684609F061
:104E80005BF9064809F058F9FEBD00001502002044
:104E90001602002017020020180200200CE600086D
:104EA00010B509F0F1FA0BA009F046F90A4890F89C
:104EB0003B00642808D00A2808D0012808D107A0A0
:104EC000BDE8104009F038B905A0F9E705A0F7E7FB
:104ED00010BD0000A1C0000004020020312020000D
:104EE000313030003130200070B50B4C0B4D832138
:104EF000A08A80B22880FFF743FC208A862180B2F6
:104F00006880FFF71DFDA089882180B2A880BDE8D8
:104F10007040FFF715BD000040210020E601002091
:104F2000F0B542F21071B0FBF1F201FB12014FF447
:104F30007A75B1FBF5F187B030318DF81010B0FB08
:104F4000F5F105FB11016426B1FBF6F130318DF866
:104F50001110B0FBF6F106FB11010A24B1FBF4F1CC
:104F600030318DF81210B0FBF4F104FB1100303039
:104F70008DF8130000278DF8147004A9842008F020
:104F8000B5FD2F48016891FBF5F292FBF4F304FBA9
:104F9000132230328DF8002091FBF6F292FBF4F3ED
:104FA00004FB132230328DF8012091FBF4F292FBC6
:104FB000F4F304FB132330338DF8023004FB121199
:104FC00030312D238DF803108DF80430426892FBA8
:104FD000F4F191FBF4F504FB151504FB11213035B8
:104FE0008DF8055030318DF806108DF80730826845
:104FF00092FBF4F191FBF4F304FB131304FB112176
:1050000030338DF8083030318DF809103A218DF8A1
:105010000A10C16891FBF4F090FBF4F204FB120259
:1050200004FB101030308DF80C0030328DF80B205E
:105030008DF80D706946932008F058FD07B0F0BD5B
:105040001421002010B5642008F050FE022105480C
:1050500000F06CFE08B9FDF77FFABDE810400120B2
:1050600000F050B80014014070B54FF400642146C0
:10507000164800F05BFE00BB154A01210023D078E2
:10508000E0B1D088A0F16505312D00D21371B0F5E3
:10509000487F04D20F4D167925F8160002E05078AB
:1050A000401C5070D3801079401CC0B21071212870
:1050B00002D1117013715370D37001E0D380D1709D
:1050C0002046BDE8704000F01DB800000008014017
:1050D000B02000200622002010B5642008F006FE53
:1050E0000221054800F022FE08B9FDF735FABDE8B7
:1050F0001040022000F006B8001401400A2008F019
:10510000F5BD00000149086070470000140401402B
:1051100030B51A498379026853B30B6893430B6027
:105120000A1D13680468A343136002790A441368D4
:10513000046823431360114A083213680468A343C8
:105140001360131D1C680568AC431C604479102C67
:1051500005D021440A68006802430A6030BD116826
:10516000046821431160196800680143196030BD6B
:105170000079084401689143016030BD000401409A
:105180001FB50121212003F00BFD0224ADF80C40D6
:1051900048208DF80F0003A9104800F04BFD0121B5
:1051A000032000F033FD00208DF804000C20009453
:1051B0008DF8050001248DF806406846FFF7A8FF2A
:1051C00007208DF808008DF809408DF80A408DF809
:1051D0000B4002A802F07AFF1FBD0000001401403E
:1051E0000149C860704700000020024070B50546C4
:1051F00040F6FF76304600F055F8042813D10A4CEB
:10520000206940F0020020616561206940F04000A3
:105210002061304600F046F8012804D0216941F6AB
:10522000FD721140216170BD002002400849042038
:10523000CA68D20701D001207047CA68520701D559
:1052400002207047C968C906FBD5032070470000DB
:105250000020024070B506460D460F2000F022F8EF
:1052600004280FD1084C206940F0010020613580EE
:105270000F2000F017F8012804D0216941F6FE72D2
:105280001140216170BD0000002002400348024926
:105290004160034941607047230167450020024097
:1052A000AB89EFCD00B50346FFF7C0FF05E0FF2057
:1052B000401EFDD1FFF7BAFF5B1E012802D1002B73
:1052C000F5D101E0002B00D1052000BD70B50A2505
:1052D000152440F2C6360B2A38D2DFE802F0310638
:1052E000090C11161B20252A2E0073257E2427E089
:1052F000DC25E72424E040F245154FF4A8741FE0B4
:105300004FF4D77540F2B9141AE040F2172540F275
:10531000222415E04FF4207540F28B2410E040F277
:10532000E9254FF43D740BE040F2523540F25D3414
:1053300006E040F2BB35344602E0354640F2D13457
:1053400000B1056001B10C60012070BD002070BD8E
:1053500040F28D42012909D0022902D0032905D14A
:1053600002E040F2924201E040F29742002800D071
:105370000260704770B5074C054604202070FFF7A7
:1053800085FF3520FFF72CFF2846FFF72FFF207001
:1053900070BD0000FB01002030B500220D4D86B02D
:1053A0000C4813461535694610F8014B8C542344BC
:1053B000521CDBB2A842F7D30078984208D1064BC2
:1053C000064C00200A5C1A542254401C1528F9DBB4
:1053D00006B030BD00FC010894010020A9010020A6
:1053E0002DE9F041164E002486B02546134930467B
:1053F000FFF7C0FF134968460A5D02552A44641C42
:10540000D5B2152CF8DB8DF815500D4F344600251C
:1054100016370D4E80460AE008EB0500018820464D
:10542000FFF718FF3070A41CAD1CBC4202D23078CC
:105430000428F1D006B0BDE8F081000000000208A9
:1054400000FC010894010020FB01002010B5174B5F
:10545000044616481A785978C0789B78012C0FD0EA
:10546000022C18D0032C0AD1104CA41E227061709B
:105470000F490B700321FBF7D1F80E49087010BDDE
:105480000A4CA41F227061700B490B700121FBF7BD
:10549000C5F80A49F2E7054C241F227061700849DB
:1054A0000B700221FBF7BAF80649E7E70F0000206E
:1054B00023020020260200202102002024020020D6
:1054C00022020020250200202DE9F041364E074639
:1054D0000720307008F02CFB02F01AFA3348344CE5
:1054E000006868B12078394601284FF0050052D095
:1054F00006F0D0F83946BDE8F041062006F0CAB8FB
:105500002C4D2878022802D0012802D005E02A4933
:1055100000E02A49802008F0E9FA902008F0B4FF62
:1055200027A008F009FE20780028287804D0022857
:1055300017D0012817D01AE0022802D0012802D083
:1055400005E0204900E02049912008F0CFFA3946D3
:10555000052007F091F83946062007F08DF809205C
:105560000EE01A4900E01A49912008F0BFFA3946C6
:10557000052006F08FF83946062006F08BF8082043
:105580003070207828B100202070BDE8F04108F08C
:10559000F9B80120F8E707F06FF83946BDE8F041A7
:1055A000062007F069B8000055020020EC02002038
:1055B000410200201C02002005EA0008F8E900086A
:1055C0002A00000017EA000812EA000827EA00088B
:1055D00022EA00082DE9F041364E074607203070D8
:1055E00008F0A6FA02F094F93348344C006868B128
:1055F0002078394601284FF0050052D006F04AF8CD
:105600003946BDE8F041062006F044B82C4D287814
:10561000022802D0012802D005E02A4900E02A49E8
:10562000802008F063FA902008F02EFF27A008F0F1
:1056300083FD20780028287804D0022817D001287C
:1056400017D01AE0022802D0012802D005E0204934
:1056500000E02049912008F049FA3946052007F07A
:105660000BF83946062007F007F809200EE01A4922
:1056700000E01A49912008F039FA3946052006F071
:1056800009F83946062006F005F808203070207821
:1056900028B100202070BDE8F04108F073B8012067
:1056A000F8E706F0E9FF3946BDE8F041062006F0CC
:1056B000E3BF000055020020EC020020420200205F
:1056C0001C02002005EA0008F8E900082A00000092
:1056D00017EA000812EA000827EA000822EA000890
:1056E0002DE9F0412B4E074607200C46307008F09C
:1056F0001FFA2948006848B103F090FE207800287E
:10570000384642D0BDE8F04106F03EBD234D287832
:10571000022802D0012802D005E0214900E02149F9
:10572000802008F0E3F9902008F0AEFE1EA008F0FB
:1057300003FD20780028287804D0022814D00128FE
:1057400014D017E0022802D0012802D005E0174942
:1057500000E01749912008F0C9F9384606F014FD19
:105760000120207009200BE0124900E0124991202D
:1057700008F0BCF9384606F0A1FC00202070082093
:105780003070BDE8F04107F0FDBFBDE8F04106F024
:1057900095BC000055020020EC0200201C020020F5
:1057A00005EA0008F8E900082A00000017EA0008E6
:1057B00012EA000827EA000822EA00082DE9F04171
:1057C000364E07460720307008F0B2F902F0A0F814
:1057D0003348344C006868B12078394601284FF0CE
:1057E000050052D005F056FF3946BDE8F0410620CD
:1057F00005F050BF2C4D2878022802D0012802D095
:1058000005E02A4900E02A49802008F06FF990203D
:1058100008F03AFE27A008F08FFC207800282878AE
:1058200004D0022817D0012817D01AE0022802D08D
:10583000012802D005E0204900E02049912008F02D
:1058400055F93946052006F017FF3946062006F0BF
:1058500013FF09200EE01A4900E01A49912008F0D0
:1058600045F93946052005F015FF3946062005F0B3
:1058700011FF08203070207828B100202070BDE88A
:10588000F04107F07FBF0120F8E706F0F5FE39464A
:10589000BDE8F041062006F0EFBE000055020020F2
:1058A000EC020020400200201C02002005EA000853
:1058B000F8E900082A00000017EA000812EA0008C8
:1058C00027EA000822EA00082DE9F041374E054694
:1058D0000720307008F02CF902F01AF8344C2078C8
:1058E000022802D0012802D005E0324900E0324906
:1058F000802008F0FBF8902008F0C6FD2FA008F0EB
:105900001BFC2F4F38780028207804D0022831D093
:10591000012831D034E0022802D0012802D005E06D
:10592000284900E02849912008F0E0F8012D02D034
:10593000022D0DD01CE0254801230288244801884F
:10594000052007F095F823480123028822480BE040
:1059500022480223028822480188052007F088F89F
:1059600020480223028820480188062007F080F89A
:10597000092012E01D4900E01D49912008F0B6F809
:1059800000222B461146052007F072F800222B4614
:105990001146062007F06CF8082030703878C043B4
:1059A0003870BDE8F04107F0EDBE00005502002060
:1059B0001C02002005EA0008F8E900082A0000009F
:1059C0004602002017EA000812EA00087C020020C4
:1059D0007A020020800200207E0200208402002043
:1059E00082020020880200208602002027EA0008A8
:1059F00022EA00082DE9F84F0121084603F0D0F80B
:105A000001214FF4C02003F0BFF8012144F27C00D3
:105A100003F0C6F80121764800F05CF901217548D1
:105A200000F058F9C020ADF8000010258DF80350A3
:105A300003248DF8024069466F4800F0FBF8012608
:105A4000ADF80060DFF8B4B18DF803508DF8024076
:105A50006946584600F0EEF86F01ADF800708DF819
:105A600003508DF802406946634800F0E3F80220D5
:105A7000ADF800004FF048088DF80380694658469D
:105A800000F0D8F84FF00409ADF800908DF80350FD
:105A90008DF802406946584600F0CCF84FF0080AED
:105AA000ADF800A08DF803508DF8024069465846C5
:105AB00000F0C0F848F21000ADF800008DF8035077
:105AC0008DF802406946584600F0B4F86802ADF817
:105AD00000008DF803508DF802406946464800F0FA
