:020000040800F2
:10000000B0DF0020650100086D0100086F010008E5
:10001000710100087301000875010008000000006C
:100020000000000000000000000000007701000850
:1000300079010008000000007B0100083FE900088A
:100040007F0100087F0100087F0100087F01000890
:100050007F0100087F0100087F0100087F01000880
:100060007F0100087F0100087F0100087F01000870
:100070007F0100087F0100087F0100087F01000860
:100080007F0100087F0100087F0100087F01000850
:100090007F0100087F0100087F0100087F01000840
:1000A0007F0100087F0100087F0100087F01000830
:1000B0007F0100087F0100087F0100087F01000820
:1000C0007F0100087F0100087F0100087F01000810
:1000D0007F010008C1F100087F0100087F010008CE
:1000E0007F0100087F0100087F0100080000000078
:1000F0000000000000000000000000000000000000
:1001000000000000000000007F0100087F010008DF
:1001100081F00008A9F0000871EA00087F010008DA
:100120007F0100087F0100087F0100087F010008AF
:100130007F0100087F0100087F0100087F0100089F
:100140007F0100087F0100087F0100087F0100088F
:10015000DFF80CD000F0D8F8004800475926010815
:10016000B0DF00200648804706480047FEE7FEE76C
:10017000FEE7FEE7FEE7FEE7FEE7FEE7FEE7FEE757
:10018000C1E90008510100082DE9F041002425468D
:10019000002905DA01240027D0EB070067EB0101F5
:1001A000002B05DA0027D2EB0702012567EB0303DA
:1001B00000F079F886460E4617469C46AC4204D0BD
:1001C0000025D0EB050E65EB010624B10020D2EB33
:1001D000000760EB030C704631463A466346BDE8C3
:1001E000F081202A04DB203A21FA02F00021704736
:1001F00021FA02F3D040C2F120029140084319468F
:10020000704740EA01039B0703D009E008C9121FA9
:1002100008C0042AFAD203E011F8013B00F8013BC0
:10022000521EF9D27047D2B201E000F8012B491EEC
:10023000FBD270470022F6E710B513460A46044683
:100240001946FFF7F0FF204610BD421E12F8013F8D
:10025000002BFBD111F8013B02F8013B002BF9D137
:100260007047421C10F8011B0029FBD1801A70470F
:1002700010B5002200E0521C835C8C5CA34201D1CB
:10028000002BF8D1D8B2E1B2401A10BD30B5044607
:100290000020034600E05B1C934203D2E05CCD5C8F
:1002A000401BF8D030BD2DE9F05F05460020924696
:1002B0009B4688460646814640241BE02846414628
:1002C00047462246FFF78DFF53465A46C01A9141D2
:1002D00010D311461846224600F028F82D1A67EB75
:1002E00001084F4622460120002100F01FF817EBBD
:1002F00000094E41201EA4F10104DFDC48463146CE
:100300002A464346BDE8F09F064C074D06E0E068EC
:1003100040F0010394E8070098471034AC42F6D34C
:10032000FFF71AFF505A0208705A0208202A04DB0D
:10033000203A00FA02F1002070479140C2F12003F8
:1003400020FA03F319439040704770B501EB0204A3
:1003500010F8015B15F0070301D110F8013B2A11D9
:1003600006D110F8012B03E010F8016B01F8016BC6
:100370005B1EF9D12B0705D40023521E0FD401F8C0
:10038000013BFAE710F8013B02F10202A1EB030383
:1003900003E013F8015B01F8015B521EF9D5A1429D
:1003A000D6D3002070BD10B50446BE22152111F031
:1003B000BEFB1A221146204610F098FE20467822F5
:1003C000BDE81040012110F091BE000010B5017F82
:1003D000044641B1012906D0022907D0BDE81040EA
:1003E0000AA00EF043BFB82215210BE00A221A2101
:1003F00010F07CFE00220121204610F077FEA022A2
:1004000015212046BDE8104011F091BB556E6B6E72
:100410006F776E206D6F64652025640D0A00000003
:10042000F8B50D461446064669460FF0B5F9009832
:10043000800703D0002028602060F8BD56F8210F07
:100440002860706820600120F8BD000038B50446BF
:1004500000208DF800006946204607F0FFF8FF28CD
:1004600004D09DF80000032801D0FF2038BD20688B
:10047000802101EA8012402101EA00100243482154
:10048000204610F033FE2046FFF78DFF42220C215C
:10049000204611F04CFB44220B21204611F047FB73
:1004A0000122CF21204610F02DFA2079C107090F33
:1004B000C0F3400241EA8201C0F3800241EA4203F4
:1004C000C0F3C0000343F0220221204611F043FB99
:1004D0002046E278032111F02AFBA0781F22400772
:1004E000030E0421204611F036FB2079C0F30011E1
:1004F000C900C0F3401241EA8201C0F3801241EA10
:100500004203C0F3C0100343F0220521204611F03E
:1005100022FB30226921204610F0F4F9A6220621A0
:10052000204611F004FB7F221421204611F0FFFA2F
:10053000207A012101EB4000C2B2BA21204610F01E
:10054000E1F9DC22F321204610F0DCF92322F92125
:10055000204610F0D7F923224521204610F0D2F989
:100560002D22C921204610F0CDF90122B5212046C7
:1005700010F022F820466278022110F01DF8A088C1
:10058000EF22C0F3002003013021204611F0E3FAEE
:10059000C2224021204611F0CAFAD722412120462A
:1005A00011F0C5FA98224621204611F0C0FAC02267
:1005B0006E21204611F0BBFA10227321204611F063
:1005C000B6FA0122204920460FF060FF1E4947F687
:1005D0007F72491C20460FF059FF00221B4920461C
:1005E0000FF054FF19498022491C20460FF04EFF9E
:1005F00016498022891C20460FF048FF134900222B
:10060000C91C20460FF042FF0320C4F8B400204666
:1006100000F020F92046FFF7D9FE207F18B9052108
:10062000204600F03DFA207F012803D131212046E9
:1006300000F036FA207F022803D10A21204600F07C
:100640002FFA012038BD00000119A0000009980010
:1006500010B5044691B10022772112F050FE02221B
:100660007E21204612F04BFE0F227721204612F009
:1006700046FEBDE81040052003F09BB900F0D6F916
:1006800000227E21F2E7000070B590B0064611F01E
:1006900066FE002863D06021304611F037FAC007AB
:1006A0005FD08321304611F031FAC00715D02FA05A
:1006B0000EF0DCFD01228521304611F038FA83214D
:1006C000304611F023FAC00707D035A00EF0CEFD5A
:1006D00001228521304611F02AFAE221304611F03C
:1006E00005FA0546E121304611F000FA04460146BC
:1006F0002A4637A00EF0BAFD022C2ED100240BADF5
:10070000E1B2304611F0F2F92855641C0E2CF7DBEB
:100710009DF8360007AC9DF839309DF838209DF8DB
:1007200037100FC49DF8320003AC9DF835309DF8AA
:1007300034209DF833100FC49DF82F009DF8312010
:100740009DF830108DE807009DF82E309DF82D2083
:100750009DF82C1028480EF089FD10B070BD27A020
:1007600000E034A00EF082FDF7E70000415649207A
:10077000696E666F6672616D6520636865636B7331
:10078000756D206572726F7220686173206F63638C
:100790007572726564206561726C6965720D0A001C
:1007A00041564920696E666F6672616D65206368A7
:1007B00065636B73756D206572726F7220737469F7
:1007C0006C6C2070726573656E740D0A0000000019
:1007D00041564920696E666F6672616D6520766567
:1007E0007273696F6E2025642028256420627974F5
:1007F00065290D0A0000000014A6010872656365F2
:10080000697665204456492D44207369676E616C92
:10081000202841564920696E666F6672616D6520B9
:100820006E6F7420737570706F72746564290D0A31
:100830000000000041564920696E666F6672616D66
:1008400065206E6F742072656365697665640D0A54
:100850000000000010B5017F044641B1012906D017
:1008600002296FD0BDE8104066A00EF0FFBC022246
:10087000002111F05CF902220121204611F057F904
:1008800004220D21204610F031FC00223D2120469B
:1008900010F02CFC74223E21204610F027FC3B2255
:1008A0004E21204610F022FC74225721204610F0E1
:1008B0001DFC63225821204610F018FC18228D21BF
:1008C000204610F013FC34228E21204610F00EFC3E
:1008D00088229321204610F009FC2E2294212046E4
:1008E00010F004FC00229621204610F0FFFB0822A5
:1008F000002120460FF060FE0622012120460FF065
:100900005BFE0022C82120460FF056FE85221521ED
:1009100020460FF051FE7B22122120460FF04CFEA4
:100920001F220C2120460FF047FE84223E21204644
:100930000FF0E8FF3922C32120460FF0E3FF5622D3
:100940005AE0FFE784220D2110F0D0FB10223D2158
:10095000204610F0CBFB39223E21204610F0C6FB8A
:100960003B224E21204610F0C1FBB62257212046E3
:1009700010F0BCFB03225821204610F0B7FB1822D0
:100980008D21204610F0B2FB34228E21204610F03B
:10099000ADFB8B229321204610F0A8FB2D22942141
:1009A000204610F0A3FB01229621204610F09EFB6A
:1009B000FF22002120460FF0FFFDFE2201212046EC
:1009C0000FF0FAFD4022C82120460FF0F5FDFB2272
:1009D000122120460FF0F0FD0D220C2120460FF0D1
:1009E000EBFD80223E2120460FF08CFF3922C321EF
:1009F00020460FF087FF80222046BDE810404021AE
:100A00000FF080BF414456373630345F53656C6514
:100A10006374496E7075743A20556E6B6E6F776EA5
:100A2000206D6F64652025640D0A000070B50C46CA
:100A300005460022772112F062FC2146284600F08C
:100A400057F82846BDE870400F22772112F057BCB6
:100A500010B50446C8B22077022801D9FF2010BD86
:100A60002046FFF7F7FE2046FFF7B0FC207F18B9BD
:100A70000521204600F014F8207F012803D1312100
:100A8000204600F00DF8207F022803D10A212046DD
:100A900000F006F80320C4F8B400012010BD0000E7
:100AA00010B504463A2901D9002010BD01EB4110D0
:100AB0000649842201EB80010548FFF7A2FB0449A7
:100AC00020460FF037FD012010BD0000EC67010843
:100AD0005003002010B50446FFF7A8FF01227E2135
:100AE000204612F00CFCBDE81040052002F056BF75
:100AF00070B5002405460A2916D90A39C8B20AF089
:100B0000E3FCFE4EE1B22846325D0FF01FFF641C8D
:100B10007F2CF7DD8024E1B2002228460FF016FF7B
:100B2000641CFF2CF7DD70BD00297DD001297CD02D
:100B3000022901F0028203294FF00002114601F060
:100B4000F9860FF003FFFF22012128460FF0FEFE79
:100B5000FF22022128460FF0F9FEFF22032128463A
:100B60000FF0F4FEFF22042128460FF0EFFEFF22D3
:100B7000052128460FF0EAFEFF22062128460FF045
:100B8000E5FE0022072128460FF0E0FE1022082192
:100B900028460FF0DBFEAC22092128460FF0D6FED6
:100BA00024220A2128460FF0D1FEA0220B2128463C
:100BB0000FF0CCFE53220C2128460FF0C7FE522224
:100BC0000D2128460FF0C2FE4A220E2128460FF0C2
:100BD000BDFE31220F2128460FF0B8FE0122102160
:100BE00028460FF0B3FE1122114628460FF0AEFE44
:100BF0000122122128460FF0A9FE032213212846C4
:100C00000FF0A4FE6822142128460FF09FFE262232
:100C1000152128460FF09AFE1E22162128460FF0B5
:100C200095FE7822172101E00CE2FDE328460FF043
:100C30008DFEEE22182128460FF088FECA221921C7
:100C400028460FF083FEF6221A2128460FF07EFE7A
:100C5000A3221B2128460FF079FE57221C2128468B
:100C60000FF074FE47221D2128460FF06FFE9E22D2
:100C70001E2128460FF06AFE23221F2128460FF06E
:100C800065FE1122202128460FF060FE4F2221210F
:100C900028460FF05BFE5422222128460FF056FE14
:100CA000A522232128460FF051FE4B22242128465D
:100CB0000FF04CFE0022252128460FF047FE71223E
:100CC000262128460FF042FE4F22272128460FF00A
:100CD0003DFE8122282128460FF038FE802229215E
:100CE00028460FF033FE01222A2128460FF02EFE5F
:100CF00001222B2128460FF029FE01222C21284613
:100D00000FF024FE01222D2128460FF01FFE0122A4
:100D10002E2128460FF01AFE01222F2128460FF01F
:100D200015FE0122302128460FF010FE012231214C
:100D300028460FF00BFE0122322128460FF006FE56
:100D40000122332128460FF001FE012234212846DA
:100D50000FF0FCFD0122352128460FF0F7FD30226F
:100D6000362128460FF0F2FD2A22372128460FF0BF
:100D7000EDFD0022382128460FF0E8FD98223921A8
:100D800028460FF0E3FD51223A2128460FF0DEFD00
:100D900000223B2128460FF0D9FD2A223C2128467B
:100DA0000FF0D4FD40223D2128460FF0CFFD302228
:100DB0003E2128460FF0CAFD70223F2128460FF041
:100DC000C5FD1322402128460FF0C0FD002241211D
:100DD00028460FF0BBFD7C22422128460FF0B6FDCD
:100DE0003122432128460FF0B1FD1122442128462B
:100DF0000FF0ACFD0022452128460FF0A7FD002290
:100E0000462128460FF0A2FD1E22472128460FF05A
:100E10009DFD0022482128460FF098FD002249211F
:100E200028460FF093FD00224A2128460FF08EFD40
:100E3000FD224B2128460FF089FD00224C21284637
:100E40000FF084FD38224D2128460FF07FFD4B2204
:100E50004E2128460FF07AFD1F224F2128460FF021
:100E600075FD5022114628460FF070FD0E225121CB
:100E700028460FF06BFD0022522128460FF066FD38
:100E80000A22532128460FF061FD202254212846D2
:100E90000FF05CFD2022552128460FF057FD20223F
:100EA000562128460FF052FD2022572128460FF0E8
:100EB0004DFD2022582128460FF048FD20225921BF
:100EC00028460FF043FD00225A2128460FF03EFD30
:100ED00000225B2128460FF039FD00225C212846C4
:100EE0000FF034FDFF225D2128460FF02FFD002278
:100EF0005E2128460FF02AFD552201E0D403002090
:100F00005F2128460FF022FD4822602128460FF07D
:100F10001DFD3522612128460FF018FD3722622180
:100F200028460FF013FD3022632128460FF00EFDF6
:100F30003722642128460FF009FD31226521284619
:100F40000FF004FD3222662128460FF0FFFC31220B
:100F5000672128460FF0FAFC4A22682128460FF044
:100F6000F5FC5222692128460FF0F0FC53226A2139
:100F700028460FF0EBFC0A226B2128460FF0E6FC16
:100F800000226C2128460FF0E1FC00226D2128464A
:100F90000FF0DCFC00226E2128460FF0D7FCFC226B
:100FA0006F2128460FF0D2FC0022702128460FF056
:100FB000CDFC4422712128460FF0C8FC4522722145
:100FC00028460FF0C3FC4C22732128460FF0BEFCCC
:100FD0004C22742128460FF0B9FC202275212846A6
:100FE0000FF0B4FC4522762128460FF0AFFC3122E9
:100FF000772128460FF0AAFC3922782128460FF0E5
:10100000A5FC3722792128460FF0A0FC46227A2140
:1010100028460FF09BFC50227B2128460FF096FCBF
:101020000A227C2128460FF091FC20227D212846AF
:101030000FF08CFC00227E2128460FF087FC29222D
:1010400001F0F6B9002211460FF080FCFF220121C9
:1010500028460FF07BFCFF22022128460FF076FC89
:10106000FF22032128460FF071FCFF2204212846AD
:101070000FF06CFCFF22052128460FF067FCFF22D1
:10108000062128460FF062FC0022072128460FF0B7
:101090005DFC4122082128460FF058FC0C22092152
:1010A00028460FF053FC7B220A2128460FF04EFC05
:1010B000C0220B2128460FF049FC64220C2128464F
:1010C0000FF044FC06220D2128460FF03FFC0022C1
:1010D0000E2128460FF03AFC00220F2128460FF07F
:1010E00035FC1722102128460FF030FC1622112162
:1010F00028460FF02BFC0122122128460FF026FC77
:101100000322132128460FF021FC802214212846B7
:101110000FF01CFC3022152128460FF017FC1B2273
:10112000162128460FF012FC7822172128460FF0CE
:101130000DFC2A22182128460FF008FC0A2219214A
:1011400028460FF003FC45221A2128460FF0FEFB2B
:10115000A7221B2128460FF0F9FB54221C21284608
:101160000FF0F4FB4A221D2128460FF0EFFB9922D5
:101170001E2128460FF0EAFB25221F2128460FF0EA
:10118000E5FB1122202128460FF0E0FB502221210F
:1011900028460FF0DBFB5422222128460FF0D6FB15
:1011A000BD22232128460FF0D1FB4B2224212846C3
:1011B0000FF0CCFB0022252128460FF0C7FBD122DF
:1011C000262128460FF0C2FBC022272128460FF017
:1011D000BDFB8122282128460FF0B8FB802229215F
:1011E00028460FF0B3FB95222A2128460FF0AEFBCC
:1011F0000F222B2128460FF0A9FB95222C212846EF
:101200000FF0A4FB00222D2128460FF09FFBB322F4
:101210002E2128460FF09AFB00222F2128460FF09E
:1012200095FB0122302128460FF090FB012231214D
:1012300028460FF08BFB0122322128460FF086FB57
:101240000122332128460FF081FB01223421284658
:101250000FF07CFB0122352128460FF077FB02229C
:10126000362128460FF072FB3A22372128460FF02C
:101270006DFB8022382128460FF068FB18223921A7
:1012800028460FF063FB71223A2128460FF05EFBDF
:1012900038223B2128460FF059FB2D223C212846BD
:1012A0000FF054FB40223D2128460FF04FFB5822FF
:1012B0003E2128460FF04AFB2C223F2128460FF002
:1012C00045FB4522402128460FF040FB00224121EA
:1012D00028460FF03BFBE022422128460FF036FB68
:1012E0000C22432128460FF031FB112244212846CD
:1012F0000FF02CFB0022452128460FF027FB00228F
:10130000462128460FF022FB1E22472128460FF0D7
:101310001DFB0022482128460FF018FB002249211E
:1013200028460FF013FB00224A2128460FF00EFB3F
:10133000FF224B2128460FF009FB00224C212846B2
:101340000FF004FB41224D2128460FF0FFFA5522F1
:101350004E2128460FF0FAFA33224F2128460FF08B
:10136000F5FA3122502128460FF0F0FA32225121AD
:1013700028460FF0EBFA3222522128460FF0E6FA07
:101380003322532128460FF0E1FA30225421284617
:101390000FF0DCFA3022552128460FF0D7FA31221F
:1013A000562128460FF0D2FA3622572128460FF050
:1013B000CDFA3322582128460FF0C8FA3622592197
:1013C00028460FF0C3FA00225A2128460FF0BEFA31
:1013D00000225B2128460FF0B9FA00225C21284642
:1013E0000FF0B4FAFC225D2128460FF0AFFA00227C
:1013F0005E2128460FF0AAFA48225F2128460FF006
:10140000A5FA4422602128460FF0A0FA4D2261215E
:1014100028460FF09BFA4922622128460FF096FADF
:101420002D226321284600E00BE30FF08FFA5322B0
:10143000642128460FF08AFA5722652128460FF0CA
:1014400085FA4922662128460FF080FA5422672146
:1014500028460FF07BFA4322682128460FF076FADF
:101460004822692128460FF071FA0A226A2128468B
:101470000FF06CFA20226B2128460FF067FA002249
:101480006C2128460FF062FA00226D2128460FF0E9
:101490005DFA00226E2128460FF058FAFD226F21D6
:1014A00028460FF053FA0022702128460FF04EFA1A
:1014B0003822712128460FF049FA4C227221284621
:1014C0000FF044FA1E22732128460FF03FFA5322F0
:1014D000742128460FF03AFA1122752128460FF0A0
:1014E00035FA0022762128460FF030FA0A227721B9
:1014F00028460FF02BFA2022782128460FF026FAF2
:101500002022792128460FF021FA20227A2128462C
:101510000FF01CFA20227B2128460FF017FA202218
:101520007C2128460FF012FA20227D2128460FF058
:101530000DFA01227E2128460FF008FA4D227F2164
:1015400028460FF003FA0222802128460FF0FEF908
:101550000322812128460FF0F9F922228221284610
:101560000FF0F4F9F122832128460FF0EFF94F2212
:10157000842128460FF0EAF90122852128460FF040
:10158000E5F90222862128460FF0E0F9032287219F
:1015900028460FF0DBF90522882128460FF0D6F9FE
:1015A0000622892128460FF0D1F907228A212846F0
:1015B0000FF0CCF910228B2128460FF0C7F9112229
:1015C0008C2128460FF0C2F912228D2128460FF0F7
:1015D000BDF913228E2128460FF0B8F914228F216D
:1015E00028460FF0B3F91522902128460FF0AEF9E6
:1015F0001622912128460FF0A9F91F229221284690
:101600000FF0A4F90422932128460FF09FF923221A
:10161000942128460FF09AF90922952128460FF0C7
:1016200095F91722962128460FF090F90722972165
:1016300028460FF08BF98322982128460FF086F96F
:101640000122992128460FF081F900229A2128468B
:101650000FF07CF900229B2128460FF077F96522D4
:101660009C2128460FF072F903229D2128460FF095
:101670006DF90C229E2128460FF068F900229F2167
:1016800028460FF063F91022A02128460FF05EF9DA
:101690000022A12128460FF059F90222A221284652
:1016A0000FF054F93A22A32128460FF04FF9802277
:1016B000A42128460FF04AF91822A52128460FF048
:1016C00045F97122A62128460FF040F93822A721BA
:1016D00028460FF03BF92D22A82128460FF036F9B5
:1016E0004022A92128460FF031F95822AA21284684
:1016F0000FF02CF92C22AB2128460FF027F94522B8
:10170000AC2128460FF022F90022AD2128460FF027
:101710001DF9E022AE2128460FF018F90C22AF2166
:1017200028460FF013F91122B02128460FF00EF9C8
:101730000022B12128460FF009F90022B2212846E3
:101740000FF004F91E22B32128460FF0FFF88C2277
:10175000B42128460FF0FAF80A22B52128460FF0E6
:10176000F5F8D022B62128460FF0F0F88A22B721EA
:1017700028460FF0EBF82022B82128460FF0E6F8B3
:10178000E022B92128460FF0E1F82D22BA2128469F
:101790000FF0DCF81022BB2128460FF0D7F81022FA
:1017A000BC2128460FF0D2F83E22BD2128460FF07A
:1017B000CDF89622BE2128460FF0C8F80022BF219E
:1017C00028460FF0C3F8E022C02128460FF0BEF8EB
:1017D0000C22C12128460FF0B9F81122C221284657
:1017E0000FF0B4F80022C32128460FF0AFF8002212
:1017F000C42128460FF0AAF81822C52128460FF068
:10180000A5F80122C62128460FF0A0F81D22C72105
:1018100028460FF09BF80022C82128460FF096F8C2
:101820007222C92128460FF091F85122CA21284678
:101830000FF08CF8D022CB2128460FF087F81E221B
:10184000CC2128460FF082F82022CD2128460FF027
:101850007DF86E22CE2128460FF078F82822CF217D
:1018600028460FF073F85522D02128460FF06EF865
:101870000022D12128460FF069F8E022D221284623
:101880000FF064F80C22D32128460FF05FF81122E4
:10189000D42128460FF05AF80022D52128460FF00F
:1018A00055F80022D62128460FF050F81E22D721E5
:1018B00028460FF04BF88C22D82128460FF046F826
:1018C0000A22D92128460FF041F8D022DA212846F1
:1018D0000FF03CF89022DB2128460FF037F8202249
:1018E000DC2128460FF032F84022DD2128460FF097
:1018F0002DF83122DE2128460FF028F82022DF21A2
:1019000028460FF023F80C22E02128460FF01EF89D
:101910004022E12128460FF019F85522E2212846FD
:101920000FF014F80022E32128460FF00FF8E02210
:10193000E42128460FF00AF80C22E52128460FF092
:1019400005F81122E62128460FF000F80022E721D1
:1019500028460EF0FBFF0022E82128460EF0F6FF95
:101960001822E92128460EF0F1FF0022EA2128463C
:101970000EF0ECFF0022EB2128460EF0E7FF0022DC
:10198000EC2128460EF0E2FF0022ED2128460EF061
:10199000DDFF0022EE2128460EF0D8FF0022EF21C5
:1019A00028460EF0D3FF0022F02128460EF0CEFF8D
:1019B0000022F12128460EF0C9FF0022F22128461C
:1019C0000EF0C4FF0022F32128460EF0BFFF0022D4
:1019D000F42128460EF0BAFF0022F52128460EF029
:1019E000B5FF0022F62128460EF0B0FF0022F721B5
:1019F00028460EF0ABFF0022F82128460EF0A6FF85
:101A00000022F92128460EF0A1FF0022FA212846E3
:101A10000EF09CFF0022FB2128460EF097FF0022CB
:101A2000FC2128460EF092FF0022FD2128460EF0F0
:101A30008DFF0022FE2128460EF088FFAA2201F029
:101A400074BC002211460EF081FFFF2201212846BE
:101A50000EF07CFFFF22022128460EF077FFFF22C6
:101A6000032128460EF072FFFF22042128460EF0C3
:101A70006DFFFF22052128460EF068FFFF22062198
:101A800028460EF063FF0022072128460EF05EFF75
:101A90001522082128460EF059FFC32209212846A5
:101AA0000EF054FF59220A2128460EF04FFF17224C
:101AB0000B2128460EF04AFF01220C2128460EF089
:101AC00045FF01220D2128460EF040FF01220E2184
:101AD00028460EF03BFF01220F2128460EF036FF6C
:101AE0002022102128460EF031FF0E221121284617
:101AF0000EF02CFF0122122128460EF027FF0322B0
:101B0000132128460EF022FF8022142128460EF0D1
:101B10001DFF2922152128460EF018FF1F2216212D
:101B200028460EF013FF7822172128460EF00EFFEC
:101B3000EA22182128460EF009FFD622192128464C
:101B40000EF004FFF5221A2128460EF0FFFEA42213
:101B50001B2128460EF0FAFE56221C2128460EF0C4
:101B6000F5FE4B221D2128460EF0F0FE9A221E2182
:101B700028460EF0EBFE24221F2128460EF0E6FE3A
:101B80001722202128460EF0E1FE5022212128466E
:101B90000EF0DCFE5422222128460EF0D7FEA122B0
:101BA000232128460EF0D2FE0822242128460EF0DA
:101BB000CDFE0022252128460EF0C8FEA9222621AE
:101BC00028460EF0C3FE4022272128460EF0BEFE16
:101BD0008122282128460EF0B9FE8022292128469C
:101BE0000EF0B4FE01222A2128460EF0AFFE01229B
:101BF0002B2128460EF0AAFE01222C2128460EF0A9
:101C0000A5FE01222D2128460EF0A0FE01222E2144
:101C100028460EF09BFE01222F2128460EF096FE4C
:101C20000122302128460EF091FE01223121284662
:101C30000EF08CFE0122322128460EF087FE012292
:101C4000332128460EF082FE0122342128460EF070
:101C50007DFE0122352128460EF078FE48223621ED
:101C600028460EF073FE3F22372128460EF06EFE06
:101C70004022382128460EF069FE302239212846BC
:101C80000EF064FE62223A2128460EF05FFEB0227A
:101C90003B2128460EF05AFE32223C2128460EF007
:101CA00055FE40223D2128460EF050FE40223E21A6
:101CB00028460EF04BFEC0223F2128460EF046FE7D
:101CC0001322402128460EF041FE002241212846E1
:101CD0000EF03CFE9822422128460EF037FE3222BA
:101CE000432128460EF032FE1122442128460EF0F0
:101CF0002DFE0022452128460EF028FE0022462116
:101D000028460EF023FE1E22472128460EF01EFE16
:101D10000022482128460EF019FE002249212846BB
:101D20000EF014FE00224A2128460EF00FFEFF227C
:101D30004B2128460EF00AFE00224C2128460EF0C8
:101D400005FE31224D2128460EF000FE0A224E21CA
:101D500028460EF0FBFD20224F2128460EF0F6FD0E
:101D60002022502128460EF0F1FD20225121284644
:101D70000EF0ECFD2022522128460EF0E7FD202235
:101D8000532128460EF0E2FD2022542128460EF071
:101D9000DDFD2022552128460EF0D8FD20225621B7
:101DA00028460EF0D3FD2022572128460EF0CEFD06
:101DB0002022582128460EF0C9FD2022592128460C
:101DC0000EF0C4FD00225A2128460EF0BFFD00226D
:101DD0005B2128460EF0BAFD00225C2128460EF059
:101DE000B5FDFD225D2128460EF0B0FD00225E21EA
:101DF00028460EF0ABFD3B225F2128460EF0A6FDE3
:101E00003D22602128460EF0A1FD1F2261212846B7
:101E10000EF09CFD4C22622128460EF097FD112207
:101E2000632128460EF092FD0022642128460EF020
:101E30008DFD0A22652128460EF088FD20226621AC
:101E400028460EF083FD2022672128460EF07EFDF5
:101E50002022682128460EF079FD2022692128469B
:101E60000EF074FD20226A2128460EF06FFD20221C
:101E70006B2128460EF06AFD00226C2128460EF0E8
:101E800065FD00226D2128460EF060FD00226E21C6
:101E900028460EF05BFDFC226F2128460EF056FD11
:101EA0000022702128460EF051FD4C227121284657
:101EB0000EF04CFD3822722128460EF047FD3822E4
:101EC000732128460EF042FD3722742128460EF079
:101ED0003DFD0A22752128460EF038FD202276218C
:101EE00028460EF033FD2022772128460EF02EFDE5
:101EF0002022782128460EF029FD2022792128462B
:101F00000EF024FD20227A2128460EF01FFD20220B
:101F10007B2128460EF01AFD20227C2128460EF057
:101F200015FD20227D2128460EF010FD00227E2185
:101F300028460EF00BFD61227AE2002211460EF0D7
:101F400005FDFF22012128460EF000FDFF2202219F
:101F500028460EF0FBFCFF22032128460EF0F6FC7B
:101F6000FF22042128460EF0F1FCFF22052128461D
:101F70000EF0ECFCFF22062128460EF0E7FC0022C2
:101F8000072128460EF0E2FC4122082128460EF0E7
:101F9000DDFC0C22092128460EF0D8FC7D220A2106
:101FA00028460EF0D3FC08220B2128460EF0CEFC6A
:101FB00060220C2128460EF0C9FCD2220D212846B1
:101FC0000EF0C4FC0A220E2128460EF0BFFC0022AF
:101FD0000F2128460EF0BAFC1422102128460EF0DC
:101FE000B5FC1522112128460EF0B0FC0122122169
:101FF00028460EF0ABFC0322132128460EF0A6FC67
:102000008022142128460EF0A1FC342215212846F6
:102010000EF09CFC2022162128460EF097FC782218
:10202000172128460EF092FCEE22182128460EF0C9
:102030008DFC9F22192128460EF088FCF5221A21DA
:1020400028460EF083FCA6221B2128460EF07EFCBB
:1020500056221C2128460EF079FC4B221D212846D1
:102060000EF074FC9A221E2128460EF06FFC2522E9
:102070001F2128460EF06AFC1222202128460EF06D
:1020800065FC5022212128460EF060FC54222221BA
:1020900028460EF05BFCBF22232128460EF056FC9A
:1020A000EF22242128460EF051FC802225212846CB
:1020B0000EF04CFC7122262128460EF047FC4022EF
:1020C000272128460EF042FC8122282128460EF0C6
:1020D0003DFC4022292128460EF038FC81222A218D
:1020E00028460EF033FCC0222B2128460EF02EFC91
:1020F00095222C2128460EF029FC00222D2128466D
:102100000EF024FC95222E2128460EF01FFC0F22F3
:102110002F2128460EF01AFCA922302128460EF065
:1021200015FC4022312128460EF010FCB32232214A
:1021300028460EF00BFC0022332128460EF006FC48
:102140000122342128460EF001FC012235212846C7
:102150000EF0FCFB2822362128460EF0F7FB3C222D
:10216000372128460EF0F2FB8022382128460EF057
:10217000EDFBA022392128460EF0E8FB70223A211F
:1021800028460EF0E3FBB0223B2128460EF0DEFB92
:1021900023223C2128460EF0D9FB40223D2128462F
:1021A0000EF0D4FB30223E2128460EF0CFFB202239
:1021B0003F2128460EF0CAFB3622402128460EF069
:1021C000C5FB0022412128460EF0C0FB0722422118
:1021D00028460EF0BBFB4422432128460EF0B6FBF6
:1021E0002122442128460EF0B1FB00224521284639
:1021F0000EF0ACFB0022462128460EF0A7FB1A2267
:10220000472128460EF0A2FB0022482128460EF066
:102210009DFB0022492128460EF098FB00224A210E
:1022200028460EF093FBFF224B2128460EF08EFB32
:1022300000224C2128460EF089FB44224D212846DD
:102240000EF084FB4C224E2128460EF07FFB3422F8
:102250004F2128460EF07AFB3122502128460EF0FD
:1022600075FB3122512128460EF070FB322252219B
:1022700028460EF06BFB3022532128460EF066FBF9
:102280003722542128460EF061FB30225521284682
:102290000EF05CFB3922562128460EF057FB322205
:1022A000572128460EF052FB3122582128460EF0C5
:1022B0004DFB3622592128460EF048FB00225A21B8
:1022C00028460EF043FB00225B2128460EF03EFB21
:1022D00000225C2128460EF039FBFC225D212846B5
:1022E0000EF034FB00225E2128460EF02FFB502218
:1022F0005F2128460EF02AFB6822602128460EF056
:1023000025FB6922612128460EF020FB6C22622108
:1023100028460EF01BFB6922632128460EF016FBAF
:102320007022642128460EF011FB73226521284695
:102330000EF00CFB2022662128460EF007FB32220D
:10234000672128460EF002FB3422682128460EF051
:10235000FDFA3022692128460EF0F8FA53226A214C
:1023600028460EF0F3FA0A226B2128460EF0EEFA08
:1023700000226C2128460EF0E9FA00226D21284641
:102380000EF0E4FA00226E2128460EF0DFFAFD225C
:102390006F2128460EF0DAFA0022702128460EF04E
:1023A000D5FA3022712128460EF0D0FA552272213A
:1023B00028460EF0CBFA1822732128460EF0C6FAF2
:1023C0005E22742128460EF0C1FA1122752128469A
:1023D0000EF0BCFA0022762128460EF0B7FA0A2247
:1023E000772128460EF0B2FA2022782128460EF0F6
:1023F000ADFA2022792128460EF0A8FA20227A216F
:1024000028460EF0A3FA20227B2128460EF09EFAE1
:1024100020227C2128460EF099FA20227D21284690
:102420000EF094FA00227E2128460EF08FFAFB224D
:102430007F2128460EF08AFA0022802128460EF0DD
:1024400085FA0022812128460EF080FA002282219E
:1024500028460EF07BFA0022832128460EF076FAF9
:102460000022842128460EF071FA00228521284698
:102470000EF06CFA0022862128460EF067FA002240
:10248000872128460EF062FA0022882128460EF0A5
:102490005DFA0022892128460EF058FA00228A218E
:1024A00028460EF053FA00228B2128460EF04EFAF1
:1024B00000228C2128460EF049FA00228D21284660
:1024C0000EF044FA00228E2128460EF03FFA002238
:1024D0008F2128460EF03AFA0022902128460EF06D
:1024E00035FA0022912128460EF030FA002292217E
:1024F00028460EF02BFA0022932128460EF026FAE9
:102500000022942128460EF021FA00229521284627
:102510000EF01CFA0022962128460EF017FA00222F
:10252000972128460EF012FA0022982128460EF034
:102530000DFA0022992128460EF008FA00229A216D
:1025400028460EF003FA00229B2128460EF0FEF9E1
:1025500000229C2128460EF0F9F900229D212846F0
:102560000EF0F4F900229E2128460EF0EFF9002229
:102570009F2128460EF0EAF90022A02128460EF0FD
:10258000E5F90022A12128460EF0E0F90022A2215F
:1025900028460EF0DBF90022A32128460EF0D6F9DA
:1025A0000022A42128460EF0D1F90022A5212846B8
:1025B0000EF0CCF90022A62128460EF0C7F9002221
:1025C000A72128460EF0C2F90022A82128460EF0C5
:1025D000BDF90022A92128460EF0B8F90022AA214F
:1025E00028460EF0B3F90022AB2128460EF0AEF9D2
:1025F0000022AC2128460EF0A9F90022AD21284680
:102600000EF0A4F90022AE2128460EF09FF9002218
:10261000AF2128460EF09AF90022B02128460EF08C
:1026200095F90022B12128460EF090F90022B2213E
:1026300028460EF08BF90022B32128460EF086F9C9
:102640000022B42128460EF081F90022B521284647
:102650000EF07CF90022B62128460EF077F9002210
:10266000B72128460EF072F90022B82128460EF054
:102670006DF90022B92128460EF068F90022BA212E
:1026800028460EF063F90022BB2128460EF05EF9C1
:102690000022BC2128460EF059F90022BD2128460F
:1026A0000EF054F90022BE2128460EF04FF9002208
:1026B000BF2128460EF04AF90022C02128460EF01C
:1026C00045F90022C12128460EF040F90022C2211E
:1026D00028460EF03BF90022C32128460EF036F9B9
:1026E0000022C42128460EF031F90022C5212846D7
:1026F0000EF02CF90022C62128460EF027F9002200
:10270000C72128460EF022F90022C82128460EF0E3
:102710001DF90022C92128460EF018F90022CA210D
:1027200028460EF013F90022CB2128460EF00EF9B0
:102730000022CC2128460EF009F90022CD2128469E
:102740000EF004F90022CE2128460EF0FFF80022F8
:10275000CF2128460EF0FAF80022D02128460EF0AC
:10276000F5F80022D12128460EF0F0F80022D221FF
:1027700028460EF0EBF80022D32128460EF0E6F8AA
:102780000022D42128460EF0E1F80022D521284667
:102790000EF0DCF80022D62128460EF0D7F80022F1
:1027A000D72128460EF0D2F80022D82128460EF074
:1027B000CDF80022D92128460EF0C8F80022DA21EF
:1027C00028460EF0C3F80022DB2128460EF0BEF8A2
:1027D0000022DC2128460EF0B9F80022DD2128462F
:1027E0000EF0B4F80022DE2128460EF0AFF80022E9
:1027F000DF2128460EF0AAF80022E02128460EF03C
:10280000A5F80022E12128460EF0A0F80022E221DE
:1028100028460EF09BF80022E32128460EF096F899
:102820000022E42128460EF091F80022E5212846F6
:102830000EF08CF80022E62128460EF087F80022E0
:10284000E72128460EF082F80022E82128460EF003
:102850007DF80022E92128460EF078F80022EA21CE
:1028600028460EF073F80022EB2128460EF06EF891
:102870000022EC2128460EF069F80022ED212846BE
:102880000EF064F80022EE2128460EF05FF80022D8
:10289000EF2128460EF05AF80022F02128460EF0CB
:1028A00055F80022F12128460EF050F80022F221BE
:1028B00028460EF04BF80022F32128460EF046F889
:1028C0000022F42128460EF041F80022F521284686
:1028D0000EF03CF80022F62128460EF037F80022D0
:1028E000F72128460EF032F80022F82128460EF093
:1028F0002DF80022F92128460EF028F80022FA21AE
:1029000028460EF023F80022FB2128460EF01EF880
:102910000022FC2128460EF019F80022FD2128464D
:102920000EF014F80022FE2128460EF00FF80022C7
:10293000FDE300BF0EF00AF8FF22012128460EF049
:1029400005F8FF22022128460EF000F8FF2203219D
:1029500028460DF0FBFFFF22042128460DF0F6FF6C
:10296000FF22052128460DF0F1FFFF22062128460F
:102970000DF0ECFF0022072128460DF0E7FF36227C
:10298000082128460DF0E2FF7422092128460DF0A7
:10299000DDFF30220A2128460DF0D8FF00220B214E
:1029A00028460DF0D3FF01220C2128460DF0CEFF62
:1029B00000220D2128460DF0C9FF00220E212846D5
:1029C0000DF0C4FF00220F2128460DF0BFFF0A22A0
:1029D000102128460DF0BAFF1622112128460DF0CD
:1029E000B5FF0122122128460DF0B0FF032213216A
:1029F00028460DF0ABFF8022142128460DF0A6FFDB
:102A00007322152128460DF0A1FF412216212846E8
:102A10000DF09CFF7822172128460DF097FF0A221F
:102A2000182128460DF092FFCF22192128460DF0DB
:102A30008DFF74221A2128460DF088FFA3221B2146
:102A400028460DF083FF57221C2128460DF07EFFFB
:102A50004C221D2128460DF079FFB0221E21284668
:102A60000DF074FF23221F2128460DF06FFF09226D
:102A7000202128460DF06AFF4822212128460DF02A
:102A800065FF4C22222128460DF060FF21222321E0
:102A900028460DF05BFF0822242128460DF056FF42
:102AA0000022252128460DF051FF812226212846AB
:102AB0000DF04CFF8022272128460DF047FF4522CC
:102AC000282128460DF042FF4022292128460DF0FA
:102AD0003DFF61222A2128460DF038FF40222B219C
:102AE00028460DF033FF95222C2128460DF02EFFAD
:102AF00000222D2128460DF029FF01222E212846F3
:102B00000DF024FF01222F2128460DF01FFF012286
:102B1000302128460DF01AFF0122312128460DF000
:102B200015FF0122322128460DF010FF012233212A
:102B300028460DF00BFF0122342128460DF006FF38
:102B40000122352128460DF001FF022236212846B8
:102B50000DF0FCFE3A22372128460DF0F7FE8022C8
:102B6000382128460DF0F2FE1822392128460DF0B2
:102B7000EDFE71223A2128460DF0E8FE38223B2175
:102B800028460DF0E3FE2D223C2128460DF0DEFE06
:102B900040223D2128460DF0D9FE58223E212846EC
:102BA0000DF0D4FE2C223F2128460DF0CFFE452209
:102BB000402128460DF0CAFE0022412128460DF092
:102BC000C5FEC422422128460DF0C0FE8E224321BC
:102BD00028460DF0BBFE2122442128460DF0B6FE0A
:102BE0000022452128460DF0B1FE0022462128464C
:102BF0000DF0ACFE1E22472128460DF0A7FE6622EE
:102C0000482128460DF0A2FE2122492128460DF038
:102C10009DFE50224A2128460DF098FEB0224B21FD
:102C200028460DF093FE51224C2128460DF08EFED1
:102C300000224D2128460DF089FE1B224E212846F8
:102C40000DF084FE30224F2128460DF07FFE4022F9
:102C5000502128460DF07AFE7022512128460DF0B1
:102C600075FE3622522128460DF070FE00225321B7
:102C700028460DF06BFEC422542128460DF066FE56
:102C80008E22552128460DF061FE2122562128462C
:102C90000DF05CFE0022572128460DF057FE002261
:102CA000582128460DF052FE1E22592128460DF0CB
:102CB0004DFE00225A2128460DF048FE00225B21DD
:102CC00028460DF043FE00225C2128460DF03EFE12
:102CD000FC225D2128460DF039FE00225E212846A7
:102CE0000DF034FE4D225F2128460DF02FFE5322B9
:102CF000602128460DF02AFE7422612128460DF03D
:102D000025FE6122622128460DF020FE72226321F9
:102D100028460DF01BFE2022642128460DF016FEE9
:102D20004422652128460DF011FE652266212846C1
:102D30000DF00CFE6D22672128460DF007FE6F2274
:102D4000682128460DF002FE0A22692128460DF06E
:102D5000FDFD20226A2128460DF0F8FD20226B217E
:102D600028460DF0F3FD00226C2128460DF0EEFD03
:102D700000226D2128460DF0E9FD00226E21284633
:102D80000DF0E4FDFD226F2128460DF0DFFD00224D
:102D9000702128460DF0DAFD3222712128460DF00F
:102DA000D5FD4B22722128460DF0D0FD1E22732145
:102DB00028460DF0CBFD5022742128460DF0C6FDAB
:102DC0001722752128460DF0C1FD002276212846E4
:102DD0000DF0BCFD0A22772128460DF0B7FD202218
:102DE000782128460DF0B2FD2022792128460DF0E9
:102DF000ADFD20227A2128460DF0A8FD20227B215E
:102E000028460DF0A3FD20227C2128460DF09EFDD2
:102E100020227D2128460DF099FD01227E212846A1
:102E20000DF094FDF1227F2128460DF08FFD022246
:102E3000802128460DF08AFD0322812128460DF0CD
:102E400085FD3022822128460DF080FDF22283216B
:102E500028460DF07BFD4D22842128460DF076FD9D
:102E60000122852128460DF071FD03228621284686
:102E70000DF06CFD0422872128460DF067FD052228
:102E8000882128460DF062FD0722892128460DF091
:102E90005DFD90228A2128460DF058FD12228B21DB
:102EA00028460DF053FD13228C2128460DF04EFDCF
:102EB00014228D2128460DF049FD16228E21284628
:102EC0000DF044FD9F228F2128460DF03FFD20226A
:102ED000902128460DF03AFD2222912128460DF03E
:102EE00035FD2622922128460DF030FD092293213E
:102EF00028460DF02BFD0722942128460DF026FDD3
:102F00000722952128460DF021FD11229621284601
:102F10000DF01CFD1722972128460DF017FD5022B9
:102F2000982128460DF012FD8322992128460DF0A4
:102F30000DFD01229A2128460DF008FD00229B215B
:102F400028460DF003FD00229C2128460DF0FEFCD2
:102F500072229D2128460DF0F9FC03229E2128466D
:102F60000DF0F4FC0C229F2128460DF0EFFC00220E
:102F7000A02128460DF0EAFC1022A12128460DF0E0
:102F8000E5FC0022A22128460DF0E0FCB822A32196
:102F900028460DF0DBFC4422A42128460DF0D6FC87
:102FA0002022A52128460DF0D1FCC022A6212846CA
:102FB0000DF0CCFC8422A72128460DF0C7FC01228D
:102FC000A82128460DF0C2FC0222A92128460DF0B6
:102FD000BDFC0322AA2128460DF0B8FC0422AB2137
:102FE00028460DF0B3FC0122AC2128460DF0AEFCC2
:102FF0004122AD2128460DF0A9FC0022AE21284631
:103000000DF0A4FC0022AF2128460DF09FFC8C227D
:10301000B02128460DF09AFC0A22B12128460DF075
:1030200095FCD022B22128460DF090FC8A22B321D3
:1030300028460DF08BFC2022B42128460DF086FC9A
:10304000E022B52128460DF081FC2D22B62128462C
:103050000DF07CFC1022B72128460DF077FC1022E1
:10306000B82128460DF072FC3E22B92128460DF009
:103070006DFC9622BA2128460DF068FC0022BB2187
:1030800028460DF063FCC422BC2128460DF05EFCEE
:103090008E22BD2128460DF059FC2122BE21284652
:1030A0000DF054FC0022BF2128460DF04FFC0022F9
:1030B000C02128460DF04AFC1822C12128460DF0F7
:1030C00045FC8C22C22128460DF040FC0A22C32177
:1030D00028460DF03BFCD022C42128460DF036FCDA
:1030E0009022C52128460DF031FC2022C621284619
:1030F0000DF02CFC4022C72128460DF027FC312280
:10310000C82128460DF022FC2022C92128460DF0B6
:103110001DFC0C22CA2128460DF018FC4022CB21B0
:1031200028460DF013FC5522CC21284600E0FCE097
:103130000DF00CFC0022CD2128460DF007FCC42226
:10314000CE2128460DF002FC8E22CF2128460DF01C
:10315000FDFB2122D02128460DF0F8FB0022D121D1
:1031600028460DF0F3FB0022D22128460DF0EEFB9D
:103170001822D32128460DF0E9FB0122D42128464C
:103180000DF0E4FB1D22D52128460DF0DFFB0022C7
:10319000D62128460DF0DAFBBC22D72128460DF0B7
:1031A000D5FB5222D82128460DF0D0FBD022D921C0
:1031B00028460DF0CBFB1E22DA2128460DF0C6FB77
:1031C0002022DB2128460DF0C1FBB822DC21284655
:1031D0000DF0BCFB2822DD2128460DF0B7FB55225F
:1031E000DE2128460DF0B2FB4022DF2128460DF0FB
:1031F000ADFBC422E02128460DF0A8FB8E22E12180
:1032000028460DF0A3FB2122E22128460DF09EFB6B
:103210000022E32128460DF099FB0022E4212846F4
:103220000DF094FB1E22E52128460DF08FFB0122B4
:10323000E62128460DF08AFB1D22E72128460DF0E5
:1032400085FB8022E82128460DF080FBD022E92171
:1032500028460DF07BFB7222EA2128460DF076FB12
:103260001C22EB2128460DF071FB1622EC2128468A
:103270000DF06CFB2022ED2128460DF067FB10229B
:10328000EE2128460DF062FB2C22EF2128460DF09E
:103290005DFB2522F02128460DF058FB8022F1210C
:1032A00028460DF053FBC422F22128460DF04EFBB8
:1032B0008E22F32128460DF049FB2122F4212846D5
:1032C0000DF044FB0022F52128460DF03FFB0022C3
:1032D000F62128460DF03AFB9E22F72128460DF0F4
:1032E00035FB0022F82128460DF030FB0022F921A1
:1032F00028460DF02BFB0022FA2128460DF026FB74
:103300000022FB2128460DF021FB0022FC2128464B
:103310000DF01CFB0022FD2128460DF017FB0022BA
:10332000FE2128460DF012FB6F222846BDE87040B2
:10333000FF210DF00BBB000070B5062009F0CAFCA0
:10334000C4B2072009F0C6FCC5B2082009F0C2FCCF
:10335000C6B2092009F0BEFCC3B232462946204657
:1033600009F0EEF9122009F0B5FC03490860BDE848
:10337000704010F0C1BB0000C8010020F0B502464B
:10338000084615E000263346841E0DE002EB830C50
:1033900052F82350DCF80470BD4204DD42F823707B
:1033A0000126CCF804505B1CA342EFDD16B1401E91
:1033B0000228E7DA0C46481E15E000BF02EB800544
:1033C00052F8203055F8045CAB420BD1034606E0BE
:1033D00052F8235002EB83065B1C46F8045C8B42D8
:1033E000F6DB641E401E0028E8DC2046F0BD10B568
:1033F00000231A4604E031F81240521C23449BB2C9
:103400008242F8D34FF6FF70C01A401C80B210BD44
:103410002DE9FF4F81B0674D00240E9E99469246DC
:103420000746EC60BFE000BF07EB840000698169DC
:10343000B1427DDC026A4A457ADB42695245F8DCDA
:10344000C26902998A42F7DBE96805EB81021269D9
:103450005FEA020B6DD010296BDA031D0090114654
:1034600093E80C100069C1E903C0C1E90123009889
:1034700000F11403006A93E80C10C1E907C0C1E928
:103480000523DBF8000048B10099096891E80C10A9
:10349000C968C0E902C1C0E9002302E046A00BF000
:1034A000E5FE009841690298814219DACBF81400D0
:1034B0000099484A00234969401AA0FB02C8C11775
:1034C00001FB0281009A00FB03111268604612683A
:1034D000D317FCF759FE009949680144CBF8041052
:1034E0000098C1695046514519DDCBF81C00009980
:1034F000384A0023C969081AA0FB02C8C11701FB9A
:103500000281009A00FB0311126860465268D317CB
:10351000FCF73AFE0099C968091ACBF80C1000981C
:103520008169484649451CDACBF81800009901E04A
:1035300038E03CE08969274A401AA0FB02C8C1175D
:1035400001FB0281009A002300FB03111268604610
:103550005268D317FCF718FE009989680144CBF82C
:1035600008100098006AB04219DDCBF8206000987E
:10357000184A0023006A801BA0FB02C8C11701FB88
:103580000281009A00FB0311126860465268D3174B
:10359000FCF7FAFD00990969091ACBF81010E868E0
:1035A000401CE860641CF868A0423FF73DAF05B0DE
:1035B000BDE8F08F94180020446573205369676E4E
:1035C000616C20536F75726365204973204E554CB2
:1035D0004C0D0A0040420F002DE9F04782460025BD
:1035E0004BE000BF0AEB85008768002F49D000241C
:1035F0003FE000BF07EB8400D0F81090B9F1000F56
:103600003AD00022D9F800602FE000BF01EB820021
:1036100096F808800069036893F808C0C44523D170
:1036200093F809C096F80980C4451DD193F80CC0E1
:1036300096F80C80C44517D1DB7A96F80BC0634529
:1036400012D1D0F81CC0D9F81C309C4503D1D0F859
:103650000CC0C9F80CC0D0F820C0D9F820309C4567
:1036600002D10369C9F81030521CC8689042CDDC01
:10367000641CF868A042BDDC6D1CDAF80400A842A6
:10368000B0DCBDE8F0870000F0B50C4A064600202B
:10369000D368451E1C780CE000EBC00203EB8202ED
:1036A000121D08D017788F4202D15278B24203D04F
:1036B000401C8442F0DC2846F0BD00005001002090
:1036C00030B505460C4800214268481E002A0DD03E
:1036D000D4680DE002EB81031B69002B06D01B6848
:1036E000002B03D05B7BAB4201D1012030BD491CD4
:1036F0008C42EFDC002030BD5001002000F60802B3
:1037000000F500600121017200210160416011702B
:10371000704700F500600021016041608160C16078
:10372000016180211430FCF785BD00002DE9F04FC8
:103730004FF00009CB463BE000EB890100228C688A
:1037400030E000BF04EB8205AA462B691AE0EE695F
:10375000DE61ED68DD60531C4D1E04E004EB830662
:103760005B1C77693761AB42F8DB04EB85030D46E0
:10377000C3F810B0491EAD1EDAF81030AA420FD0BF
:1037800001290DD0DAF814501F682E6897F80880C8
:1037900096F808C0C44503D1767A7F7ABE42D6D067
:1037A000521CE160E1684B1E9342CBDC09F1010938
:1037B00042684A45C0DC0021C0F800B008E000BF04
:1037C00000EB81040368A468491CE4682344036097
:1037D0008A42F5DC0120BDE8F08F00002DE9F047BA
:1037E000416871E000EB8102D2E901460022E768FE
:1037F000F3689F4268D100253EE000BF04EB8502DC
:1038000006EB850312691B69E2B3DBB3D3F800C092
:10381000E2469CF80880D2F800C0E1469CF808C057
:10382000E04551D19AF8098099F809C0E0454BD19B
:103830009AF80C8099F80CC0E04545D19AF80B80B5
:1038400099F80BC0E0453FD1D3F814C0D2F81480EA
:10385000C44539D1D3F81CC0D2F81C80C44533D13B
:10386000D3F818C0D2F82080C4452DD19B681269C6
:10387000934229D101226D1CAF42BFDC012A23D122
:1038800000220CE020E000BF06EB820504EB82037F
:103890002D691B69521C2F6A1F622D691D61E36827
:1038A0009342F1DC05E000BF00EB8102491CD368C4
:1038B00093604268521E8A42F6DC4168491E4160AC
:1038C0000268E368D21A0260491E00298ADCBDE85A
:1038D000F08700002B484179007821B1012905D0FB
:1038E00002290AD005E02849085C7047411E0429D6
:1038F00001D3002070472A30704722491028897967
:103900001ED00ADC022815D0032813D00528F0D1D8
:10391000A1B10129EDD13120704713281FD01428FF
:1039200025D01F28E5D149B3022929D00329E0D1A8
:103930003C2070470829DCD12F2070473020704789
:1039400039B1022907D0032907D00829D1D1352060
:103950007047322070473320704734207047042965
:1039600003D00529C5D1372070473620704719B1DB
:103970000129BED139207047382070473A2070475E
:103980003B2070472C000020044B02083D2801DA40
:103990000149085C70470000044B020800B501466D
:1039A0000B200BF02BFB0B200BF0ECFA0028FAD0CD
:1039B00000BD00B5014605200BF020FB05200BF0F3
:1039C000E1FA0028FAD000BD00B5014600200BF056
:1039D00015FB00200BF0D6FA0028FAD000BD00003D
:1039E00010B506F0EBFC09F0F5F806F0D7F805F095
:1039F00097FF06F021FB06F05BF90AF04BF8FFF7A2
:103A00009BFCBDE8104001A00BF030BC446576691A
:103A100063657320496E6974204F4B0D0A000000E6
:103A200010B50022E02103200BF00EFC0022E22161
:103A300003200BF009FC182211461A2009F0B9FEE8
:103A400001490020887010BD400100202DE9F84F89
:103A50006C4DDFF8AC91DDF828C00E46C5F800903B
:103A60000446C168022000EB4100402801DD66A049
:103A700087E06C4900200E6001F58076336019E024
:103A800004EB80031F69D7F8148001EBC007C7F867
:103A90000480D3F81080D8F81C80C7F808801F690C
:103AA000D7F8188006EBC007401CC7F804801B69D4
:103AB0001B6ABB60E3688342E2DC5A4800EBC30048
:103AC00042605948E16800EBC100C0F804C0E068FA
:103AD0004100891C5348FFF751FC0090E068410009
:103AE000891C5148FFF74AFC0746102801DD4FA00A
:103AF00047E00099781E491E09F014F8401C2DD0AB
:103B0000002648213E48FCF795FB4FF440714F4892
:103B1000FCF790FBCC46DFF838A1DFF8309106EBDC
:103B2000460200200AEB861309EB021153F820200D
:103B300001EB8008401CC8F810201028F6DB0CEBC5
:103B40008600761C8160102EE9DB28680021A7F131
:103B5000010AC0E9001A0E46AB464BE03DA010E05A
:103B6000DBF8000000EB86008768EFB3002080469A
:103B7000F8600098A0F1010939E0F868102805DB29
:103B80003FA00BF073FB0020BDE8F88F07EB80002F
:103B9000056955B3244850F8261000EB8600A9614A
:103BA000406828621F4850F8281000EB88006961BF
:103BB0004068E861214628460AF0A0FC50B96869CF
:103BC0006860A869A860E869E860286A28610C480C
:103BD00010382860F86808F10108401CF860DBF82C
:103BE00000000168491C01E006E002E00160C845F0
:103BF000C3DB761C5645B3DBDBF80000C4E70000EE
:103C00001435002074010020506978656C5F5820DD
:103C10004D656D6F7279204F76657220466C6F77B7
:103C20000D0A0000941600209417002057696E6456
:103C30006F777320526F77204D656D6F7279204FCB
:103C400076657220466C6F770D0A0000041C002018
:103C5000041F00204F75747075742053637265657E
:103C60006E205369676E616C2057696E646F77735D
:103C7000204F76657220466C6F770D0A00000000B9
:103C800057696E646F7773204C696E65204D656D62
:103C90006F7279204F76657220466C6F770D0A003F
:103CA0007CB5244C207888BB01A803F0E1FC70B3FC
:103CB00021484FF000024FF08003007811460028A1
:103CC0004FF0A0000ED005F01DFD1C4E4FF000057A
:103CD0000100356009D080223046FCF792FA307836
:103CE00028B908E005F070FCEFE7FF2030701148BC
:103CF0006946401C01E0694610480AF0A7FD38B14A
:103D0000032809D10E4880F83A5005E00BE00EE098
:103D10009DF8000009F02CF89DF8040009F0A2FDC0
:103D200018B10120207000207CBD0C207CBD0B2030
:103D30007CBD00003F000020460100208C040020D4
:103D40000F05002038B50446006800F580508169F1
:103D500041F480118161206800F5805080690090F5
:103D6000012003F08DFD2068009900F580508161ED
:103D700038BD00002DE9F041044621B14FF4006048
:103D8000E060C000A060E0690025002861D02846FE
:103D90002368402619683A4A1140D4E902273A4379
:103DA000024342F40070084318602068076801204D
:103DB00003F066FD2068076020684660206846685A
:103DC000012003F05DFD2068466020688560206862
:103DD000C560216888694FF64172104040F080004C
:103DE000886120688669012003F04AFD20688661A9
:103DF0002068C5612068C569012003F041FD206885
:103E0000C561216801F5805188691E4A10401E4A2B
:103E100002438A61206800F580508569012003F023
:103E20002FFD206800F5805085612068174900F556
:103E300080500160206800F580500568012003F083
:103E40001FFD206800F580500560A069012803D09F
:103E500009E04FF480609BE7206800F58050C1695D
:103E60000B4A1143C16161690A488A8802640A7871
:103E7000D1F8011042EA01214164BDE8F08100005F
:103E80000F8120FF233FDEF8040020020020C10242
:103E9000400001000080024010B501463C2009F0BE
:103EA00097FC012010BD000010B50022E021032086
:103EB0000BF0CAF90122E22103200BF0C5F9002220
:103EC00010211A2009F075FC01490120887010BDED
:103ED0004001002030B5D0F8042800F60403D0F8E3
:103EE0000048521CD51702EB55556FF30A05521BBB
:103EF000944201D1002030BDD0F80428521CD417C0
:103F000002EB54546FF30A04121B1A601A688154AE
:103F1000012030BD30B5012280F80828D0F80428EF
:103F200000F60403D0F80058521CD41702EB545486
:103F30006FF30A04121B0024954203D180F808484D
:103F4000002030BDD0F80428521CD51702EB55557F
:103F50006FF30A05521B1A601A68815480F80848EA
:103F6000012030BD2DE9F04F06468BB00020814680
:103F70000990DFF840A41C4690460D46080A4DF60D
:103F8000FE6BCFB27ED115F0FF0F28D1B8F1020F32
:103F900025D36088218801EB004006F094FF80461D
:103FA00009904FF480715046FCF744F9AAF800B02C
:103FB0000620AAF802005746AAF80450FE480079E5
:103FC000AAF806002088AAF808006088AAF80A0063
:103FD000AAF80C804FEA18402CE0788838E3012FCB
:103FE0002FD1B8F1020F2CD36088218801EB004259
:103FF0000992A088E18801EB0041104607F048FBD8
:104000003902EC48FCF716F9AAF800B00620AAF825
:104010000200E948AAF8045057460079AAF80600B9
:104020002088AAF808006088AAF80A00A088AAF8E0
:104030000C00E088F8810720B91CFFF7D8F9388216
:10404000FDE3022F30D1B8F1000F2DD021880429D3
:1040500002D2012088402BE00F2928D0D7A00BF0F6
:1040600005F900BF4FF48071D248FCF7E3F8AAF8D5
:1040700000B00220AAF80200AAF804502188AAF889
:10408000061000E0FEE303200AF10201FFF7AFF99A
:10409000AAF80800012E07D0BAF80200C54942006C
:1040A000921D30460AF0E1F8032F04D02CE00F20D7
:1040B00006F045FDD6E7B8F1000F25D02188042988
:1040C00002D2012088401CE00F2919D0C6A00BF0B5
:1040D000CDF800BF4FF48071B648FCF7ABF8AAF8F2
:1040E00000B00220AAF80200AAF80450208857461F
:1040F000AAF806000320B91CFFF779F938819FE779
:104100000F2006F02DFDE5E7042F3CD1B8F1000F9C
:1041100039D020888046C0B206F002FCFF2802D1C8
:10412000BBA00BF0A3F84FF48071A248FCF782F813
:10413000AAF800B00220AAF80200AAF804502088C9
:104140005746AAF806000320B91CFFF750F938813A
:10415000012E06D0788897494200921D30460AF019
:1041600084F8B8F1050F7DD808EB0810F1E300BF23
:10417000C0EB0010099900EB400001EB0010401C5F
:1041800000210990FEE3052F4ED1B8F10D0F4BD35E
:1041900088480027F0302421076347638763C7639B
:1041A0004030FCF747F8A4494FF0010801F1100036
:1041B000016081F80880A2794A72CF72227A0A736C
:1041C00061894160A1898160E189C160218A0161C1
:1041D000618A4161A18A8161E18AC161764F218B47
:1041E0000162387907F0BCFF9349814624221031DF
:1041F0006846FCF706F82279A17820784B4606F04D
:10420000A1FB20B1FA7839798CA00BF02FF84FF48C
:1042100080716848FCF70EF8AAF800B05446AAF876
:104220000280F1E3608813E2062F0BD1B8F1000F92
:1042300008D02188012007F02BFA0021012007F087
:1042400027FA47E7072F6FD1B8F10B0F6CD32088FF
:10425000032888D8784820212038FBF7EBFFE18835
:10426000754800E03DE120384160218901606189A5
:104270000161A1894161E1898160218AC160618A0E
:10428000C161A18A81617B496088096800EBC00037
:1042900001EB800778483F1D017A7970C168B960E9
:1042A00001697960416979618169B961C169F960C0
:1042B000016A3961416A3962816AF961806818B9B5
:1042C0006E480078012815D06D496E48CDE900018F
:1042D00020796D4B6D4A002103F0FAF9D7E90510FA
:1042E000411A491C0991D7E90320821A6088521C9F
:1042F00050B11AE062496348CDE900016449207970
:10430000614B624A0978E7E75E48D0F800C0614532
:104310000BD95B490B689A4207D94FEA4C020260FD
:1043200058000860012001E0E1E000203870A0881A
:10433000052805D25348006810B951480068B8B341
:10434000A078002107F020F820793B4A4006010EB2
:10435000A078203A07F02CF84FF480711548FBF74D
:1043600069FFAAF800B00420AAF80200AAF80450D5
:104370002088AAF806006088AAF80800A088574696
:10438000AAF80A000520B91CFFF731F8B881012E00
:1043900006D0788807494200921D304609F065FF33
:1043A000618801EB410000EBC100AB30002571E0FA
:1043B0009AE000006C37002078010020494E5055EB
:1043C000545F4650474120564944454F5F4F55542E
:1043D0005055545F444953414C424C45204552523C
:1043E0004F52210D0A000000494E5055545F46506F
:1043F000474120564944454F5F4F55545055545FEF
:10440000454E41424C45204552524F52210D0A0023
:10441000494E5055545F4650474120434C45415208
:104420005F4F55545055545F57494E204552524F97
:1044300052210D0A000000008C380020426F61728A
:10444000642025642C204949432025642C20496E92
:10445000707574465047415365744261636B67726F
:104460006F756E6457696E646F77204552524F5274
:10447000210D0A005C010020AC3500204A0100201B
:104480006C01002068010020640100206001002010
:104490004B010020CDF82400099834F81510284469
:1044A00008F05CFC6D1C0B2DF6DBFE48407A411ECB
:1044B0000A2916D26188C0EB001001EB410202EB21
:1044C000C10100EB400001EB0010AC300025099069
:1044D000099834F81510284408F040FC6D1C0B2D89
:1044E000F6DB0BB0BDE8F08FA07801212AE7082F9A
:1044F00028D1B8F1000F25D02088042802D2C0B2FC
:1045000006F032FD4FF48071E748FBF793FEAAF8FE
:1045100000B00220AAF80200AAF804502188AAF8E4
:10452000061003200AF10201FEF761FFAAF8080055
:10453000012E07D0BAF80200DB494200921D304636
:1045400009F093FE092F06D1B8F1000F03D02078AF
:1045500006F048FBBEE50A2F22D1B8F1020F1FD3A7
:104560006188207806F0BEFD804609904FF4807186
:10457000CD48FBF75FFEAAF800B00520AAF80200BC
:10458000C848AAF8045057460079AAF806002088BF
:10459000AAF808006088AAF80A00AAF80C80FDE3CF
:1045A0000B2F19D1B8F1000F16D02088411E0A290F
:1045B00000D30020BB4948724FF48071BA48FBF722
:1045C00039FEAAF800B00220AAF80200B548AAF8FD
:1045D00004505446407A6BE00C2F40D1B8F1020FE2
:1045E0003DD9B1488021C038FBF724FEA288A178CC
:1045F000207806F0CBFF07464FF48071AA48FBF7FE
:1046000019FEAAF800B00620AAF80200A548AAF8E8
:104610000450D0460079AAF806002088AAF80800BD
:104620006088AAF80A00A088AAF80C00FF2F0BD017
:104630005FF00000A8F80E00072008F10201FEF765
:10464000D6FEA8F81000FCE3FF20F3E7B8F802005C
:1046500095494200921D304609F007FE41E70D2FB3
:104660002DD1B8F1000F2AD08F488021C038FBF738
:10467000E1FD20880990411E0A2904D2C0B207F04A
:10468000B3FD099A01E0FF220992874887A1C0384B
:104690000AF0FCFD4FF480718348FBF7CBFDAAF8CC
:1046A00000B00220AAF80200AAF804500998544663
:1046B000E0800320A11CFEF79AFE2081FDE30E2F6F
:1046C00073D1B8F1040F70D360880428C6D2C0B289
:1046D00009F0CEF973487E4A012141711768002123
:1046E000F96022783A70A2787A70A2887A60E288BB
:1046F000BA60C1604FF480716B48FBF79BFDAAF86C
:1047000000B00520AAF80200AAF804503978AAF8E7
:1047100006107978AAF80810B888AAF80A0038892B
:10472000AAF80C00D04606200AF10201FEF75FFE4F
:10473000A8F80E00012E07D0B8F802005A4942002E
:10474000921D304609F091FD61480068407800EB09
:10475000001000EB8000D830CDF82400099A34F81E
:10476000191002EB090008F0F9FA09F10109B9F191
:10477000040FF3DB4B48407A411E0A29A6D2C0EB56
:104780000010099900EB400001EB0010401C0025CF
:10479000CDF82400099834F81510284408F0DEFA02
:1047A0006D1C042DF6DB9CE6FFE70F2F6BD1B8F1F3
:1047B0000A0F68D33B4841790029F4D0C168082921
:1047C00005D343480068C16002F078FD89E6404A9D
:1047D000126802EB81021769002F3A680092E2D05A
:1047E000009B22782F485A72009B2278491C5A73EA
:1047F000009B22789A72009BA2781A72A2887A6033
:10480000E288BA602289FA6062893A61A2897A6193
:10481000E289BA61228AFA61628A3A62C1604FF41F
:1048200080712148FBF706FDAAF800B00B20AAF81A
:104830000200AAF804500098D046417A00E066E2EF
:10484000AAF806100098017AAAF80810B888AAF801
:104850000A003889AAF80C00B889AAF80E00388A2C
:10486000A8F81000B88AA8F81200388BA8F814002D
:10487000B88BA8F81600388CA8F818000C2008F19E
:10488000020101E018E15DE0FEF7B1FDA8F81A00B1
:10489000012E21D0B8F8020003494200921D304693
:1048A00018E00000780100206C370020494E505578
:1048B000545F46504741204C4F41445F4449535058
:1048C0004C41595F4D4F44452025640D0A000000BE
:1048D0005401002009F0C9FCFE48FF4D0068E9685A
:1048E000407801EB810100EB001000EB8000DC3030
:1048F00000EB41000A380990099A34F8191002EBCC
:10490000090008F02BFA09F10109B9F10A0FF3DBEC
:10491000687A411E0A29BFF4A1AEC0EB00100999C4
:1049200000EB400001EB0010401C0025CDF82400F6
:10493000099834F81510284408F010FA6D1C0A2D57
:10494000F6DBCEE5102F05D0112F50D0122F62D0FC
:1049500068E0A3E0E04C60790028F2D0E06800282D
:10496000EFD0DFF87083D8F80010C86002F0A6FC22
:104970000020607120704FF48071D848FBF75AFC1A
:10498000574600E081E1AAF800B00120AAF8020031
:10499000AAF804500220B91CFEF729FDF880012E68
:1049A00006D07888CD494200921D304609F05DFC62
:1049B0002178A92008F0D2F9D8F80000407800EB5F
:1049C000001000EB8000D7300990E16808F0C6F9CC
:1049D000607A411E0A29B4D2C0EB0010099900EB9D
:1049E000400001EB0010401C0990E1684DE106F029
:1049F0009BF84FF48071B948FBF71CFCAAF800B093
:104A000001205446AAF80200A5800220A11CFEF74E
:104A1000EEFCE08051E2B8F1000F03D0207807F0FF
:104A200075FB0EE4132F47D1B8F1020F44D367880A
:104A30002078F9B207F026FB042F06D2A84A07EB2C
:104A4000470102EB01110020C8604FF48071A348B8
:104A5000FBF7F0FBAAF800B00320AAF80200AAF8BE
:104A600004502188AAF806106188AAF80810D046D8
:104A700004200AF10201FEF7BAFCA8F80A00012E90
:104A800007D0B8F8020095494200921D304609F05F
:104A9000ECFB052F3FF6E2AD07EB071000EB8000C3
:104AA000D7300021099008F059F98B48407A411E0F
:104AB0000A29FFF45DAB14E50120B0EB152FFAD104
:104AC000022F10D1B8F1000F0DD020880128A8D1F5
:104AD000002108F043F908F07DF8FEF781FF00207F
:104AE00007F082FB36E5032F07D1B8F1000F04D0A1
:104AF000208808F0EFF80990F6E2042F0AD1B8F107
:104B0000020F07D36188208866E3B91CFEF76FFCAB
:104B10007881DDE3052F02D1B8F1000FE2D1062F35
:104B200002D1B8F1020FC6D2072F02D1B8F1000F9F
:104B3000C1D1082F18D1B8F1010F15D9A17820786B
:104B400005F002FD4FF480716448FBF773FBAAF88F
:104B500000B00320AAF80200AAF804502088AAF89E
:104B6000060057466088A7E2092F38D1B8F1010F37
:104B700035D9A178207805F065FD4FF4807157484C
:104B8000FBF758FBAAF800B00320AAF80200AAF825
:104B900004502088AAF8060060885746AAF8080042
:104BA0000420B91CFEF723FC7881012E06D07888FA
:104BB0004A494200921D304609F057FB4648407A68
:104BC000411E0A29AFD22188C0EB00100E3100EB44
:104BD000400001EB0010801D0990218855E00A2F4C
:104BE00007D1B8F1010F04D9A178207805F052FD62
:104BF000A8E70B2F06D1B8F1000F03D0207805F0FD
:104C000041FCA7E40C2F43D1B8F1020F40D9A28890
:104C10006188207805F054FD4FF480712F48FBF730
:104C200009FBAAF800B00420AAF80200AAF8045070
:104C30002088AAF806006088AAF80800A0885746CD
:104C4000AAF80A000520B91CFEF7D1FBB881012E95
:104C500006D0788821494200921D304609F005FBB4
:104C60001D48407A411E0A29ACD2238862881F2140
:104C700001EB83011144C0EB0010491F00EB400021
:104C800001EB0010801D0990217908F067F828E4F5
:104C90000D2F2CD1B8F1020F29D3228861881F2053
:104CA00000EB8200084408F015F8804609904FF4A4
:104CB00080710A48FBF7BEFAAAF800B00420AAF8EF
:104CC0000200AAF804502088AAF806005746608817
:104CD00008E0000054010020780100206C3700201B
:104CE0005C0D0020AAF80800AAF80A800AE00E2F3E
:104CF0000ED1B8F1020F0BD9A2886188207805F097
:104D000001FD34E10520B91CFEF771FBB881DFE23B
:104D10000F2F7DD1B8F1040F7AD3A08800BBA27900
:104D2000A178207805F0C0FD20886188000100EBA3
:104D300081003D300990A17908F010F8FE48407AD2
:104D4000411E0A290CD20999C0EB0010491F00EB43
:104D5000400001EB0010801D0990A17907F0FEFFD3
:104D6000A088012822D1A279A178207805F0ABFD96
:104D700020886188000100EB81003E300990A17914
:104D800007F0ECFFEC48407A411E0A290ED209993F
:104D9000C0EB0010491F00EB400000E06AE001EBAF
:104DA0000010801D0990A17907F0D8FFA088022883
:104DB00020D1A279A178207805F0A3FD20880101F7
:104DC000608801EB80003F300990A17907F0C6FFB1
:104DD000D948407A411E0A290CD20999C0EB00102B
:104DE000491F00EB400001EB0010801D0990A179E4
:104DF00007F0B4FFA088032822D1A279A1782078F7
:104E000005F070FD20886188000100EB810000E062
:104E100036E040300990A17907F0A0FFC648407AFB
:104E2000411E0A290CD20999C0EB0010491F00EB62
:104E3000400001EB0010801D0990A17907F08EFF62
:104E400000E0A6E24FF48071BC48FBF7F3F9AAF842
:104E500000B00520AAF80200AAF804502088AAF899
:104E600006006088AAF80800A088AAF80A00574639
:104E7000E0882FE00620B91CFEF7B9FAF88127E296
:104E8000102F47D1B8F1030F44D3A08820B30128D5
:104E900029D0022830D0032835D04FF6FF7000BF4C
:104EA00009904FF48071A548FBF7C4F9AAF800B047
:104EB00005205746AAF8020000E032E2AAF80450A2
:104EC0002088AAF806006088AAF80800A088AAF836
:104ED0000A000998B881CDE720886188000100EBBD
:104EE00081003D3005E020886188000100EB8100F1
:104EF0003E3007F0EFFED3E720886188000100EB29
:104F000081003F30F5E720886188000100EB8100D7
:104F10004030EEE7112F1ED1B8F1000F1BD002F088
:104F20000FFA6188207809AA02F09EFA4FF4807186
:104F30008248FBF77FF9AAF800B00420AAF8020023
:104F4000AAF804502088AAF806006088AAF8080089
:104F5000574609981FE0122F1FD1B8F1000F1CD03F
:104F600002F0EEF9A2886188207802F097FA4FF4F7
:104F700080717248FBF75EF9AAF800B00420AAF825
:104F80000200AAF804502088AAF806006088AAF84F
:104F90000800A08857467881B4E6132F3FF416AC7A
:104FA000142F36D1B8F1010F33D9DFF89491DFF81F
:104FB0009481CDE90089A1782078634B634A02F09F
:104FC00087FB4FF480715D48FBF734F9AAF800B015
:104FD0000720AAF80200AAF804502088AAF80600C0
:104FE0006088AAF8080059485746B91C0088AAF8F2
:104FF0000A0055480088AAF80C00B8F80000AAF882
:105000000E00B9F8000038820820FEF7F0F9788227
:105010005EE1152F36D1B8F1010F33D94C48007835
:1050200001287FF4E5AD2088052816D8373009908F
:10503000A17807F093FE4048407A411E0A290CD21D
:105040000999C0EB0010491F00EB400001EB001074
:10505000801D0990618807F081FE20880028E0D13A
:10506000402005F030FFA17800F00F0001F00F01A3
:1050700040EA01214020099106F00AFB3549A07859
:1050800008705FE5162F1FD1B8F1000F1CD02088E3
:10509000A0B1FF2009904FF480712848FBF7CAF8AF
:1050A000AAF800B00320AAF80200AAF80450208849
:1050B000AAF8060009985746388128E0402005F0F4
:1050C00002FFC0F30320E5E7172F79D1B8F1000FF5
:1050D00076D01A488021C038FBF7ACF82088042825
:1050E00017D2C0B202F044FA80464FF480711348E0
:1050F000FBF7A0F8AAF800B00320AAF80200AAF86B
:1051000004502088AAF806005746AAF80880042010
:10511000FBE40F2825D04FF480710848FBF78AF88C
:10512000AAF800B00220AAF80200AAF804502088C9
:105130005746AAF806000FE0780100206C370020DF
:105140006C01002068010020640100206001002043
:105150004A0100204B010020FF20AAF8080003208C
:10516000D3E44FF00308544680219848FBF762F8D7
:1051700009F0FF0002F0FCF9074694484FF48071F3
:10518000C030FBF757F8A4F800B0A4F80280A5805F
:10519000A4F8069027810420A11CFEF728F960815D
:1051A0003EB9608889494200921DC031304609F0FD
:1051B0005CF809F10109B9F1040FD5DB7BE4FFE7E5
:1051C000182F0CD1B8F1020F09D3A2782178D22080
:1051D00009F0ACFA6188A12007F0C0FDB2E4DFF865
:1051E000F091192F79D1B8F1070F76D379486188FA
:1051F000006881420ED17848A1880068814209D1B7
:105200006189D9F80000814204D17448A1890068FD
:10521000814236D00F2005F083FB2089A289618965
:105220008DE80700E388A2886188207805F0FAFB02
:1052300040F20F1005F094FCF12006F017FA05F08B
:1052400073FC0121A02007F089FD2188A22007F02E
:1052500085FD6188A32007F081FDA188A42007F0C7
:105260007DFDE188A52007F079FD2189A62007F0C2
:1052700075FD6189A72007F071FDA189A82007F0BD
:105280006DFD52484FF48071C030FAF7D3FFAAF891
:1052900000B00820AAF80200AAF804502088AAF852
:1052A00006006088AAF80800A088AAF80A00E0882A
:1052B000AAF80C002089AAF80E0060895746AAF8BF
:1052C0001000A08978820920B91CFEF790F8B882F6
:1052D000012E7EF482AEDAE4FFE71A2F02D01B2FF4
:1052E00023D05AE039484FF48071C030FAF7A2FF5A
:1052F000AAF800B00420AAF80200AAF80450B9F8ED
:105300000000AAF8060035485446A11C0088AAF8F7
:10531000080033480088AAF80A000520FEF767F85D
:10532000A081012E7EF47EAFB1E4B8F1000F34D03D
:105330009D2007F0CFFC2178C0B2814209D00F2018
:1053400005F0EEFA207806F0CDF921789D2007F0DF
:1053500005FD9D2007F0BEFCC7B21C484FF48071CC
:10536000C030FAF767FF0220AAF800B0AAF80200DE
:10537000D046AAF80450FF2F01D0208800E0FF207B
:10538000A8F80600032008F10201FEF730F8A8F89B
:105390000800012E7FF45AA979E41C2F9BD19D208F
:1053A00007F098FCC7B209484FF48071C030FAF793
:1053B00041FFAAF800B00220AAF80200AAF804509F
:1053C0005446AAF80670FFF774B90000AC36002006
:1053D0000C00002004000020080000201000002025
:1053E000140000202DE9FF4F8BB04FF00009054657
:1053F000189C1E464F46F6A1CDF824900C98FAF75B
:1054000037FFDFF8D8A3DFF8D8B3DFF8D88328B1A7
:10541000F5A10C98FAF72CFF002870D1F3A10D9894
:10542000FAF726FF98B996B1206805F04CFD0646BC
:1054300009908021EF48FAF7FDFE009698F80420C5
:10544000EDA1236818E0052D71D001F0DEBCF3A1B9
:105450000D98FAF70DFFA8B9022E13D3D4E9000175
:1054600006F016F98021E348FAF7E4FE6068009040
:1054700098F804202368EBA1DE4800BF09F006FF7E
:1054800001F081BDF0A10D98FAF7F2FEF0B9EEB18E
:105490002168042902D2012088401EE00F291BD078
:1054A000EFA009F0E3FE8021D248FAF7C3FEF7A18E
:1054B000D048226809F0EAFE95B1CE48052D17D0F4
:1054C000FAF7CFFE0146CB4809F0A4FAF9A10D98EE
:1054D000FAF7CEFEA0B12BE00F2005F030FBE2E79B
:1054E000C448FAF7BEFE0146C24808F029FEEDE7BF
:1054F000FAF7B7FE0146BF4808F0A6FEE6E7EFE37D
:10550000B6B12168042902D2012088400CE00F299D
:1055100009D0EDA009F0AAFE8021B648FAF78AFE6C
:10552000F3A12268B4E00F2005F01AFBF4E7F2E3E0
:10553000F8A10D98FAF79CFE002844D19EB3266886
:10554000F0B205F0EDF9FF2802D1F7A009F08EFEC8
:105550008021A848FAF76EFEFDA1A648226809F04E
:1055600095FE0DB3A348052D26D0FAF77AFE014625
:10557000A04809F04FFA052E75D806EB061000EB8F
:105580008000D7300021099007F0E8FB98F8090067
:10559000411E0A2967D2C0EB0010099900EB4000B8
:1055A00001EB0010E7E30EE09248FAF75AFE0146DD
:1055B000904808F0C5FDDEE7FAF753FE01468D4836
:1055C00008F042FED7E7EBA10D98FAF751FE00284C
:1055D0004AD10D2E48D3ED484E462421C0F83090D4
:1055E000C0F83490C0F83890C0F83C904030FAF7DA
:1055F00021FEE6490122303101F1100001600A72FA
:10560000227B4A72CE72227C0A7361694160A16971
:105610008160E169C160216A0161616A4161A16AD9
:105620008161E16AC161216B0162464698F804001C
:1056300006F096FDD5490746242240316846FAF720
:10564000E0FD227A217920783B4605F07BF920B1F4
:10565000F2783179CEA009F009FE80216548FAF789
:10566000E9FDD9A1F5E39CE0E0A10D98FAF700FE71
:1056700090B98EB10120216806F00AF800210120BE
:1056800006F006F880215B48FAF7D4FD2268DAA11B
:10569000584809F0FBFDF3E6DEA10D98FAF7E8FDA6
:1056A00000287DD10B2E7BD32068042879D2B748FF
:1056B00020211030FAF7BEFDB448E1681030416097
:1056C0002169016061690161A1694161E1698160EC
:1056D000216AC160616AC161A16A8161D149606862
:1056E000096800EBC00001EB8006CF48361D017A47
:1056F0007170C168B16001697160416971618169EE
:10570000B161C169F160016A3161416A3162816AE6
:10571000F161806818B9C5480078012814D0CDE936
:1057200000BA207AC24BC34A5FF0000101F0D0FFFB
:10573000D6E90510411A491C0991D6E90320821ABD
:105740006068521C40B118E0CDE900BABA49207A2D
:10575000B74BB84A0978E9E7DBF8003099420CD931
:10576000DAF80070BA4208D95A007800CBF8002065
:10577000CAF800000120307001E086F80090A068AF
:10578000052805D2DBF8000010B9DAF80000E8B10E
:105790002079002105F0F8FD207A4006010E01E095
:1057A000A2E19EE1794A2079103205F001FE8021C4
:1057B0001048FAF73FFDA0680090D4E900239FA1AC
:1057C0000C4809F063FD15B1052D49E14AE14CE1B2
:1057D000494E5055545F4650474100006C0100202F
:1057E0006801002078010020495F4600524541448D
:1057F00000000000AC360020494E5055545F465022
:1058000047412052454144202564203078253038D6
:1058100058203078253038580D0A00005752495426
:1058200045000000494E5055545F465047412057AF
:10583000524954452025642030782530385820308E
:1058400078253038580D0A00564944454F5F4F556A
:10585000545055545F444953414C424C450000005C
:10586000494E5055545F4650474120564944454F94
:105870005F4F55545055545F444953414C424C4539
:10588000204552524F52210D0A000000494E5055FA
:10589000545F4650474120564944454F5F4F555449
:1058A0005055545F444953414C424C452025640DAA
:1058B0000A000000564944454F5F4F555450555417
:1058C0005F454E41424C4500494E5055545F46504D
:1058D000474120564944454F5F4F55545055545FFA
:1058E000454E41424C45204552524F52210D0A002F
:1058F000494E5055545F4650474120564944454F04
:105900005F4F55545055545F454E41424C452025FC
:10591000640D0A00434C4541525F4F555450555455
:105920005F57494E00000000494E5055545F4650A5
:10593000474120434C4541525F4F55545055545FA9
:1059400057494E204552524F52210D0A0000000087
:10595000494E5055545F4650474120434C454152B3
:105960005F4F55545055545F57494E2025640D0ADA
:10597000000000005345545F4241434B47524F558E
:105980004E445F57494E444F570000005C3800209A
:10599000426F6172642025642C20494943202564AC
:1059A0002C20496E707574465047415365744261AE
:1059B000636B67726F756E6457696E646F772045AD
:1059C00052524F52210D0A00494E5055545F4650D5
:1059D0004741205345545F4241434B47524F554E38
:1059E000445F57494E444F570D0A0000534F4654E9
:1059F0005F52455345540000494E5055545F465040
:105A0000474120534F46545F524553455420256427
:105A10000D0A00005343414C45525F5345545550C5
:105A2000000000005C010020AC3500204A0100208D
:105A300064010020600100204B010020494E5055B8
:105A4000545F46504741205343414C45525F5345B4
:105A50005455502025642025642025640D0A00003B
:105A60000BD011E02079012194E6FB48FAF7F9FB0D
:105A70000146F94808F064FB06E0F748FAF7F1FB45
:105A80000146F54808F0E0FB616801EB410000EBDE
:105A9000C100AB3000250990099854F8251028441E
:105AA00007F05CF96D1C0B2DF6DB98F80900411E20
:105AB0000A2916D26168C0EB001001EB410202EB2B
:105AC000C10100EB400001EB0010AC300025099053
:105AD000099854F82510284407F040F96D1C0B2D47
