:020000040800F2
:10000000B822002045010008376F0008015A000897
:100010001D6F0008D505000859BD0008000000004C
:10002000000000000000000000000000E184000863
:1000300069390008000000003D7900088DB400080F
:100040005F0100085F0100085F010008E57B000810
:100050005F0100085F010008F94400088D450008B1
:100060005F0100085F0100085F0100085F010008F0
:100070005F0100085F0100085F0100085F010008E0
:100080005F0100085F0100085F0100085F010008D0
:100090005F0100085F0100085F010008B14500082A
:1000A0005F0100085F0100085F0100085F010008B0
:1000B0005F01000839B500085F0100085F01000812
:1000C0005F0100085F0100085F0100085F01000890
:1000D0005F01000865B70008B1B700089DB80008C7
:1000E0001D4500085F0100085F0100085F0100086E
:1000F0005F0100085F0100085F0100085F01000860
:100100005F0100085F0100085F0100085F0100084F
:100110005F0100085F0100085F0100085F0100083F
:100120005F0100085F0100085F0100085F0100082F
:10013000DFF80CD000F02AF80048004749C3000857
:10014000B82200200648804706480047FEE7FEE741
:10015000FEE7FEE7FEE7FEE7FEE7FEE7FEE7FEE777
:1001600091B400083101000840EA01039B0703D065
:1001700009E008C9121F08C0042AFAD203E011F8E6
:10018000013B00F8013B521EF9D27047064C074D67
:1001900006E0E06840F0010394E807009847103457
:1001A000AC42F6D3FFF7C8FF58DC000878DC000843
:1001B00070B501EB020410F8015B15F0070301D1E3
:1001C00010F8013B2A1106D110F8012B03E010F8BA
:1001D000016B01F8016B5B1EF9D12B0705D40023DD
:1001E000521E0FD401F8013BFAE710F8013B02F16F
:1001F0000202A1EB030303E013F8015B01F8015BCA
:10020000521EF9D5A142D6D3002070BD0B4810B5BF
:10021000007802280BD001280FD1094980200BF06B
:10022000A5FE0849BDE8104090200BF09FBE06498E
:1002300080200BF09BFE0549F4E710BD0902002069
:100240008CCC00088FCD00087BCC00087BCD00084B
:1002500010B50BF0ADFE0B48007802280BD001283A
:100260000FD1094982200BF081FE0849BDE81040FA
:1002700090200BF07BBE064982200BF077FE0549EB
:10028000F4E710BD090200200ACC00082FCC0008BA
:10029000FCCB00081ACC000802490120087108466E
:1002A00000F0FEBC5101002010B5012007F094FBC6
:1002B000BDE81040002007F08FBB0000034A118802
:1002C00021F4607101431180704700002C6C0040E4
:1002D00008B5024908440090008808BD006C004041
:1002E000014908607047000000860D4208B5024AC7
:1002F00010440090016008BD006C0040164810B525
:10030000007800216B2817D072281CD0792821D1C1
:10031000124C134A2078401EC0B220701154903005
:10032000C0B210A10BF022FE2078BDE81040913041
:10033000C0B20DA10BF01ABE0C4C0D4A2078401E25
:10034000C0B22070EAE70B4C0B4A2078401EC0B2C6
:100350002070E3E710BD00004102002008000020EB
:10036000220000205F0000002000000006000020A6
:1003700014000020070000201B0000202DE9F0479A
:10038000704E714F00253078A7F1100490281BD0D3
:1003900004F11309912838D004F11608922852D09C
:1003A0000937932879D0942878D168A196200BF04A
:1003B000DDFDE07A002872D0401EC0B2E072F91C68
:1003C00025730D5496201DE060A186200BF0CEFD14
:1003D000E07810B1012811D07EE08F203070A07835
:1003E00008B1401EA070657059A183200BF0BEFDBE
:1003F0005948A17845540146832003E0E5702571F2
:100400003D7018E00BF0B2FD66E050A188200BF0C3
:10041000ADFD607910B1012810D05DE09020307002
:10042000E07808B1401EE070257148A186200BF0ED
:100430009DFDE0783D5444498620E3E76571A57150
:1004400089F8005025E041A192200BF08FFDE07962
:1004500030B1012873D1E571257288F8005059E058
:10046000607B032807D001281AD0BDE8F0473BA1E4
:1004700092200BF07BBD91203070607908B1401E56
:100480006071A57131A188200BF070FD617909F8C8
:1004900001502D49C91C8820B4E722E04FE03DE01F
:1004A0002F480078012804D0022806D0032808D05D
:1004B0000BE0682030702B4806E06F2030702A482F
:1004C00002E0762030702948057029A184200BF0C5
:1004D0004DFD84200CF01EFABDE8F04728A00CF07A
:1004E000B7B91AA194200BF041FD607A20B1401EEB
:1004F000C0B26072A5721DE092203070E07908B140
:10050000401EE071257211A192200BF02FFDE179C0
:1005100008F801500C49891D922073E79320307030
:10052000607A08B1401E6072A57208A194200BF099
:100530001DFD607A04493D540931942062E7BDE80D
:10054000F0870000410200203D0100202020000033
:100550002020202000000000CE1D00205F20000091
:10056000881D00200E0200200F0200201002002033
:1005700020202020202020202020202000000000FB
:100580005F0000002DE9F0410F4C80460E46A07838
:10059000002508B1401EA0700027677040460CF08F
:1005A000B9F903E020200BF007FD6D1CB542F9DB23
:1005B0000648A1784754014640460BF0D7FCBDE8F9
:1005C000F04103A00CF044B92D010020CE1D002005
:1005D0005F000000FEE700002DE9F0470022C3079E
:1005E00011D001260227042305240625DFF814A1D3
:1005F0004FF0030C4FF00709012907D002292ED034
:1006000003297CD154E00020BDE8F0873D495FEA32
:10061000807801F10E0101D50E700122460702D546
:100620008F5402F10102C60601F802C002F1010274
:1006300002D58B5402F10102830602D58C5402F1DB
:100640000102430602D58D5402F10102000603D5D2
:1006500001F8029002F101028AF800204FE02949D6
:100660005FEA807801F1150101D50E70012246077D
:1006700002D58F5402F10102C60601F802C002F150
:10068000010202D58B5402F10102830602D58C547B
:1006900002F10102430602D58D5402F10102000667
:1006A00003D501F8029002F101028AF8012026E048
:1006B00014495FEA807801F11C0101D50E70012216
:1006C000460702D58F5402F10102C60601F802C0A6
:1006D00002F1010202D58B5402F10102830602D518
:1006E0008C5402F10102430602D58D5402F101023D
:1006F000000602D501F80290521C8AF8022001205F
:1007000082E7000006000020044900200870044829
:10071000FF210170417008F027B800000E02002090
:10072000090000200449002008700448FF210170DE
:10073000417008F035B800000F0200200B000020C7
:100740000449002008700448FF210170417008F03E
:1007500043B80000100200200D0000201CB528A1A5
:10076000D1E90001CDE900012748007873280DD0B8
:1007700004DC5A281DD06C282ED104E07A2808D039
:100780007D2829D108E0FFF7BFFF25E0FFF7CAFF6A
:1007900022E0FFF7D5FF1FE01C491D4C0020087028
:1007A00020700BF0C5FC217840F239400BF016FBAD
:1007B00012E000200BF042FD1648017840F25E4046
:1007C0000BF00CFB144801784FF48C600BF006FB27
:1007D00040F262400BF00AFB10A190200BF0C6FB28
:1007E0000F480078022802D0012802D005E06946AF
:1007F00000E00CA186200BF0B9FB01201CBD00001D
:10080000D2D1C8A1CFFB0000410200201702002076
:10081000140200200C0200200D0200202A0000001B
:100820000902002043616E63656C20737563636524
:100830007373000010B50E4C072084F84D000BF0C8
:10084000B7FB607D02280BD001280FD10949822017
:100850000BF08CFB0849BDE8104090200BF086BBE4
:10086000064982200BF082FB0549F4E710BD000029
:10087000F4010020EECE0008D7CE0008E3CE000839
:10088000C7CE000810B51E48A0F14F04027894F8B6
:10089000461040788A4207D1884205D00C2803D2FE
:1008A000BDE8104009F064BC884205D18A4203D0FB
:1008B0000C2A01D21046F3E70F2006F08DF907202D
:1008C00084F84D000BF074FB607D022802D00128F3
:1008D00006D00DE00B4982200BF048FB0A4904E0EA
:1008E0000A4982200BF042FB09A190200BF03EFB4D
:1008F00005200BF0CBFBBDE8104000F0F7BF000077
:1009000043020020E3CE000855CF0008EECE0008D9
:1009100053776974636820616E6420676F206F6E1F
:10092000000000002DE9F05F724B00221C78724B32
:10093000012C1B7811D0714D032C2D7804D0042C80
:1009400002D0022C05D009E06D4A1278012A04D0A9
:100950002CE06C4A1278012A28D01A466A4BDFF83C
:10096000ACA1DFF8AC816B4E93F800C018249AF864
:10097000005098F8003036784FF03C0994451CD16F
:100980005746854217D18B4215D18EB1304600F0C3
:1009900047FC6149387809780844B0FBF4F104FB5E
:1009A0001100387098F800005C4998E02A46D5E7B5
:1009B0005B4900200870BDE8F09F5B4FDFF864B131
:1009C00096423F782AD156468542F4D18B42F2D1E5
:1009D000BFB1384600F024FC544930780978084407
:1009E000B0FBF4F104FB1100307098F8001050488F
:1009F0003DE000BFB1FBF9F209FB121088F80000DE
:100A0000D9E7604600F00CFC31789BF80000084400
:100A1000B0FBF4F104FB1100307025E0454E974225
:100A2000367827D157468542C5D18B42C3D17EB196
:100A3000304600F0F5FB4049387809780844B0FBAF
:100A4000F4F104FB1100387098F800003B4946E0CF
:100A5000604600F0E5FB39789BF800000844B0FBE5
:100A6000F4F104FB1100387098F800103448007855
:100A70000144BFE7334F96423F7816D15646854230
:100A800099D18B4297D1002FBBD0384600F0C8FBDC
:100A90002D49307809780844B0FBF4F104FB1100CB
:100AA000307098F80000294919E0294E97423678AD
:100AB00018D157468542A3D18B42A1D1002EC7D071
:100AC000304600F0ADFB2349387809780844B0FB84
:100AD000F4F104FB1100387098F800001E49097801
:100AE000014487E796428BD15646854288D18B4296
:100AF00087D060E7390200203A0200203B02002044
:100B000033020020380200201802002015020020C5
:100B100016020020190200201F02002025020020DA
:100B2000140200201E0200201A02002020020020D1
:100B3000260200201B0200202102002027020020A4
:100B4000240200201C020020220200202802002093
:100B50001D020020230200202902002030B50A4B8C
:100B60001C461D886488854209D301D18C4206D376
:100B7000854207D18C4205D19888904202D803491A
:100B80000120086030BD0000EA010020C002002002
:100B900000EB400202EBC000014A1044405C704789
:100BA000E002002010B513A286B007CA8DE8070046
:100BB00000200390049040F2CA4405900A2269463E
:100BC000204605F0C9F805200BF060FA0A2203A9B7
:100BD000204605F08AF80020694603AA0B5C145CE5
:100BE000A34202D0002006B010BD401C0A28F5DB4D
:100BF0000120F8E70102030405060708090A0000BE
:100C00000178AA2902D14078BB2801D00020704782
:100C100001207047154810B5817821B3144842F27D
:100C200010720068B0FBF2F302FB130411480BF0E2
:100C300069F92101A20241EA942142EA14125140C9
:100C4000C1F30D030C4A0D4940F27744834204D0AE
:100C50000B68934207D0984205D120460A600BF0FA
:100C600023F9012010BD002010BD00002D0100203F
:100C7000841D0020CE1D002040420F00B80200203D
:100C800000220221435C491C1A44C9B2D2B20B298A
:100C9000F8D3C07A904201D10120704700207047FC
:100CA00000220221435C491C1A44C9B2D2B20B296A
:100CB000F8D3C2720C210AF027BD00002DE9F04FD5
:100CC0008DB093460D460446302234496846FFF7FE
:100CD0004BFA611E642391FBF3F6CF1701EB977774
:100CE000C6EBA7079E0091FBF6FCDFF8B4A007EB6C
:100CF0000C08BAF80000421E92FBF3F74FEAE27CC0
:100D000002EB9C7CC7EBAC0792FBF6FC67445FEA06
:100D1000847C0FD1B4FBF3FC03FB1C4CBCF1000F33
:100D200004D1B4FBF6FC06FB1C441CB9022D01D90E
:100D3000012400E00024E94609EB850540F26D1C22
:100D400055F8045C01FB0C5508EB0B0129440C44DD
:100D500013495FEA807C49880DD1B0FBF3FC03FBAB
:100D60001C0323B9B0FBF6F306FB130018B90229E4
:100D700001D9012000E0002009EB8101BAF804301C
:100D800051F8041C0DB0194440F26D1302FB0372BC
:100D900011440844001BBDE8F08F000018CA000889
:100DA000EA010020074890F84D004D2807D04E2852
:100DB00005D05D2803D07E2801D000207047012097
:100DC00070470000F40100200020044902460A5444
:100DD000401CC0B20C28FAD370470000B81D002098
:100DE00070B51F4D0821284604F0B6F91D4C0126A8
:100DF00030B10121284604F0AFF908B1A67101E035
:100E0000A07908B30821284604F0A6F9E0B9012129
:100E1000284604F0A1F9B8B92179002029B1A071C0
:100E2000617869B1491E61702070617961B1A0710A
:100E30006178491CC9B261702670FF2903D003E0B4
:100E4000FF216170F1E760700821284604F084F901
:100E500020710121284604F07FF9607170BD000007
:100E600000140140F401002070B50021074A084C2D
:100E70000C2315780D44B5FBF3F603FB1655655DA1
:100E80004554491CC9B20C29F3D370BD00000020A1
:100E9000B81D002030B5A0F534502D4B2D4C2E4AF6
:100EA0000F3810D0A0F50060673828D00025A3299E
:100EB00041D0A42945D0A52904D100201554401CB7
:100EC0000728FBDB30BD254DA3290AD0A4290FD06C
:100ED000A529F7D10020295C1154401C0728FADB12
:100EE00030BD0020295C1954401C0728FADB30BDB6
:100EF0000020295C2154401C0728FADB30BD184D26
:100F0000A3290AD0A4290FD0A529F7D10020295C54
:100F10001154401C0728FADB30BD0020295C19540D
:100F2000401C0728FADB30BD0020295C2154401CFE
:100F30000728FADB30BD00201D54401C0728FBDBCE
:100F400030BD00202554401C0728FBDB30BD0000CD
:100F5000C9010020D0010020D7010020F9D60008E7
:100F600000D7000883490C2871D008DC36D2DFE8AE
:100F700000F02E363E464E565E666F77848ECE2843
:100F800076D00EDCCB2874D006DC0D2872D0C928B0
:100F900071D0CA2822D19BE0CC286DD0CD28F9D1C0
:100FA000AEE041F6A333C21A98426ED008DCA0F539
:100FB00080702D386AD0A0F590503138EAD1B7E072
:100FC000012A74D0A2F5A062793AE3D1C8E06A4A56
:100FD0000020135C0B54401C1528FADBC7E0674A5D
:100FE0000020135C0B54401C1528FADBBFE0644A58
:100FF0000020135C0B54401C1528FADBB7E0614A53
:101000000020135C0B54401C1528FADBAFE05E4A4D
:101010000020135C0B54401C1528FADBA7E05B4A48
:101020000020135C0B54401C1528FADB9FE0584A43
:101030000020135C0B54401C1528FADB97E0554A3E
:101040000020135C0B54401C1528FADB8FE026E0CF
:10105000514A0020135C0B54401C1528FADB86E033
:101060004E4A0020135C0B54401C1528FADB7EE02E
:101070004EE035E01CE023E03AE0494A0020135CF2
:101080000B54401C1528FADB71E059E048E0454A52
:101090000020135C0B54401C1528FADB67E0424A21
:1010A0000020135C0B54401C1528FADB5FE04FE076
:1010B0003E4A0020135C0B54401C1528FADB56E016
:1010C0003B4A0020135C0B54401C1528FADB4EE011
:1010D000384A0020135C0B54401C1528FADB46E00C
:1010E000354A0020135C0B54401C1528FADB3EE007
:1010F000324A0020135C0B54401C1528FADB36E002
:101100002F4A0020135C0B54401C1528FADB2EE0FC
:101110002C4A0020135C0B54401C1528FADB26E0F7
:10112000294A0020135C0B54401C1528FADB1EE0F2
:10113000264A0020135C0B54401C1528FADB16E0ED
:10114000234A0020135C0B54401C1528FADB0EE0E8
:10115000204A0020135C0B54401C1528FADB06E0E3
:101160001D4A0020135C0B54401C1528FADB03F0C9
:101170008BBB00008C010020BDD70008D2D700082F
:10118000E7D70008FCD7000811D8000826D80008C7
:101190003BD8000850D8000865D800087AD8000865
:1011A0008FD80008A4D80008B9D80008CED8000805
:1011B000E3D80008F8D800080DD9000822D90008A3
:1011C00037D900084CD9000861D9000876D9000841
:1011D0008BD90008A0D90008B5D9000810B503784C
:1011E0000E4A302B02D0352B04D001E001290DD05E
:1011F00000230FE04221117050215170017891704D
:101200004178D17081781171C078507110BDC45C83
:10121000D4545B1C8B42FADB10BD00005D01002042
:101220000D4A10B5072111700C49012209780AF006
:1012300081F890200AF0ACFE09480078022808D016
:10124000012808D10749BDE81040891C92200AF006
:101250008DBE0549F7E710BD410200203302002092
:1012600009020020C4D10008B9D100082DE9F041DD
:1012700004F01AFEDFF824820727894D98F8000051
:10128000884C01280CD088480078032808D0022810
:1012900006D0864E3078012820D0022820D021E0C8
:1012A0002F700AF085FE2078022811D08049822014
:1012B0000AF05CFE7FA191200AF058FE002005F0A4
:1012C0008BFC0A200AF0E2FEBDE8F04106F08EBF7A
:1012D0007B4982200AF04AFE7A49ECE7022000E0CE
:1012E0000120307009F064FF002872D1287821288D
:1012F00027D006DC08284BD0092849D01F2804D164
:101300001FE0242848D0462821D02F700AF050FE34
:1013100098F80000012846D06B4980200AF026FE8C
:101320003078012841D0022853D1684868A1067856
:10133000812002F011FF207802284BD001284BD0E9
:101340004EE0654A6549307804F03EF920E0644992
:1013500000EB800001EBC000406A804710B101281B
:101360000AD015E02078022802D0012802D00FE030
:101370005C490AE05C4908E02078022802D0012894
:1013800002D005E0594900E0594991200AF0EEFDEC
:10139000BDE8F04105F09AB905F098F9BDE8F041D3
:1013A000912002F07DBD5349B7E7534848A1067824
:1013B000812002F0D1FE2078022802D0012802D03C
:1013C00005E04E4900E04E4997200AF0CFFD0E207F
:1013D00007E061E04B4900E04B4997200AF0C6FD69
:1013E0000F2028700B2E57D2DFE806F056060F1894
:1013F0002135472A333E54002078022803D00128A3
:101400004AD142493FE042493DE02078022803D0DA
:10141000012841D13F4936E03F4934E02078022895
:1014200003D0012838D13D492DE03D492BE02078FB
:10143000022803D001282FD13A4924E03A4922E07A
:101440002078022803D0012826D138491BE03849EA
:1014500019E038A117E02078022803D001281BD119
:10146000364910E036490EE02078022803D00128E2
:1014700012D1344907E0344905E02078022807D02A
:10148000012809D13149BDE8F04190200AF06EBD34
:101490002F49F8E72FA1F6E7BDE8F08139020020D7
:1014A00041020020090200200B020020330200202C
:1014B000EECE00085573656420446F75626C65005C
:1014C000E3CE00085ED200084BCA00083B020020B1
:1014D000202B2020000000008C1D00208A1D0020F1
:1014E0005C0300201BD4000820D4000827D4000887
:1014F0002CD4000848CA00083A020020F6CE0008A2
:10150000FCCE000801CF000807CF000899CC0008E6
:1015100093CC00089DCC0008A9CC0008A1CC000801
:10152000AFCC0008A5CC0008B5CC0008E7CC00087B
:10153000DFCC00085647413200000000C7CC00084D
:10154000BBCC0008F8CC0008EBCC0008D9CC0008D4
:10155000CBCC00085344490010B504F0BBFE38B1B1
:101560002B484FF00401006801282FD094203EE062
:101570002848007893283ED018DC8A2832D00CDC2A
:1015800072283CD004DC4B282AD06B283BD136E0B3
:10159000792834D0882836D120E08B38082832D2F8
:1015A000DFE800F02031313123292929943813282C
:1015B00029D2DFE800F02028282828282813131330
:1015C0000F280D280A0A0A0A1100052191200EE0B1
:1015D0000321FBE70B21F9E70A21F7E70621F5E7ED
:1015E0000221F3E70421972001E004218320BDE8D4
:1015F0001040FEF7C7BFBDE81040FEF7BFBEBDE814
:101600001040FEF77BBEBDE81040FFF72FBE000084
:10161000D80200204102002070B51D4C84F84D0016
:101620000AF0C6FC607D04F5B47502281BD00128C1
:101630002DD194F84D0000EB800005EBC0018968C6
:1016400019B115F830000AF091FC94F84D0000EB48
:10165000800005EBC0004169002918D0007BBDE87F
:1016600070400AF083BC94F84D0000EB800005EB5D
:10167000C001496819B115F830000AF077FC94F8F8
:101680004D0000EB800005EBC0000169E4E770BD90
:10169000F401002073B50D46684605F045FF20B300
:1016A000144C6279022A17D2A07900281CD19DF827
:1016B000001004F1130030318154521CD1B2617119
:1016C00000224254014628460AF050FC6079022864
:1016D00002D209A00BF0BCF86079022804D10120E5
:1016E000A071022004F0F2FB7CBD9DF8000005F023
:1016F00073FA7CBD2D0100205F00000070B500244E
:1017000004F006FE002874D1714D2878102870D09E
:1017100011286ED06F4E00EB800106EBC101096904
:1017200011BB452820D004F0BFFB287800EB8001D6
:1017300006EBC101097E814200D02970287800EBB8
:10174000800006EBC000406A08B180470446297853
:101750006148222964D052DC1B2961D04ADC14295B
:101760005AD0162970D157E004F09EFB287800EB80
:10177000800106EBC101497E814201D0297001241C
:101780002878FFF749FF09F013FD297801EB810064
:1017900006EBC000C3693BB134B90022032098476F
:1017A00010B101200AF072FC287800EB800006EBF3
:1017B000C000017B912913D1006A88B190200BF001
:1017C000A9F8287800EB800006EBC000006A80478B
:1017D0002978884201D141A000E041A00BF038F8FF
:1017E00028789A286ED13F489121007802F0CCFBEE
:1017F00068E06BE01D2913D0202925D110E02B29AA
:1018000014D004DC272911D029291DD10EE09529F7
:1018100031D09A2918D136E00078204484B213E000
:101820000078204484B204F051FF0AE0007820449C
:10183000642801D9642400E084B29121204602F09A
:10184000EBFA872002F018FE297801EB810006EB05
:10185000C000C36913B12246032098472878202886
:1018600027D01CDC142824D0162822D01B2820D0F6
:101870001D2827D11DE000782044642801D9642464
:10188000DFE784B2DDE7007820440F2801D90F2478
:1018900000E084B29121204602F076FBD1E72228B5
:1018A00007D0462802D095280CD105E004F0C8FDE9
:1018B00008E004F03BFF05E00B482A229021007865
:1018C00002F03AFABDE8704000F0BABA70BD00000C
:1018D000410200205C0300202D0200202A000000AD
:1018E0003E0000003C0200203502002070B50AF0E6
:1018F0005FFB04F0D9FA294D294E28785B2801D0E6
:101900005D2814D140F262400AF070FA3078022863
:1019100002D0012802D005E0224900E022A1802067
:101920000AF024FB05200AF0B1FB0AF041FB2878FD
:10193000214C00EB800004EBC000C07E28703178A1
:10194000022902D0012910D021E000EB800004EB35
:10195000C00114F8300049680AF008FB287800EB51
:10196000800004EBC00001690EE000EB800004EB96
:10197000C00114F8300089680AF0F8FA287800EB02
:10198000800004EBC0004169007B0AF0EFFA00F030
:1019900057FABDE8704009F00BBC0000410200207E
:1019A0000902002044D100084261636B7570206F0A
:1019B00070656E65640000005C030020094910B585
:1019C000462008700AF0F4FA07480078022807D089
:1019D000064980200AF0CAFABDE8104004F030BD84
:1019E0000349F6E7410200200902002019D300084C
:1019F00010D300082DE9F05F04F056FA81488249BF
:101A0000824A0078824B834C834D844E844FDFF8AA
:101A100014C2DFF8148201281AD0DFF81092DFF820
:101A200010A2DFF810E2DFF810B2022833D08348AA
:101A3000007801286FD099F8008000BFB8F1070F37
:101A40006AD0B8F1050F68D0B8F1090F78D032E04C
:101A500098F8000007280AD005280ED0092814D0CD
:101A60003888BCF8001008436CD0012072E0088868
:101A70001188084367D0012086E018882188084330
:101A80006FD0012097E0012053E028883188084377
:101A900068D00120A6E06A480078022810D099F8A2
:101AA00000800220B8F1070F0ED0B8F1050F1CD04E
:101AB000B8F1090F2AD001283FD0022845D049E0CB
:101AC00098F800800120EDE7012802D0022804D018
:101AD0005AE00988A9BB118804E0BAF8001081BB5C
:101AE000BEF8001069BB574923E0012802D0022844
:101AF00004D060E0198839BB218804E0BBF80010ED
:101B000011BB51490988F9B9504912E0012805D0A3
:101B1000022807D066E021E025E039E02988E1BB12
:101B2000318804E04A490988B9BB4A490988A1BB00
:101B30004949BDE8F05F02F0E7BF398871B309E0B9
:101B40003DE021E041E017E035E044490988D9B3A0
:101B500000E0D1B3BDE8F05F03F0D4B898F800809E
:101B60006CE720E036E0012802D0022806D00BE026
:101B7000098849B9118839B9324984E7BAF800109F
:101B800011B9BEF8001001B3BDE8F05F03F054B81E
:101B9000012804D0022808D00DE023E026E01988AF
:101BA00049B9218839B929496DE7BBF8001011B945
:101BB0002549098849B1BDE8F05F02F0D9BE012886
:101BC00004D0022808D00DE013E015E0298849B9B7
:101BD000318839B9204956E71D49098811B91D498D
:101BE000098849B1BDE8F05F02F028BFBCF80010D9
:101BF000AFE71B490988ACE7BDE8F05F0A2004F0B5
:101C0000EBBF0000390200207202002074020020A5
:101C10008202002084020020920200209402002010
:101C200062020020640200203A0200203B020020F1
:101C30007A0200207C0200208A0200203302002069
:101C4000380200202E0200208C0200202F020020EB
:101C50009A0200209C020020300200206A0200202C
:101C60006C02002073B50D46684605F05DFC20B39C
:101C7000144CE279022A17D2207A00281CD19DF850
:101C8000001004F1160030318154521CD1B2E171C0
:101C900000224254014628460AF068F9E0790228F9
:101CA00002D209A00AF0D4FDE079022804D1012073
:101CB0002072022004F00AF97CBD9DF8000004F0B7
:101CC0008BFF7CBD2D0100205F0000002DE9F04757
:101CD000894605F013FC04007ED047480122474D99
:101CE0000078762812D006DC5C2860D0682808D0FE
:101CF0006F2865D107E07C280CD08C2860D1404843
:101D000006E0404800E0404804703CE03F482A704C
:101D1000047055E03E484049404E90F800803D48F0
:101D20003F4FDFF800C1B8F1070F2CD2DFE808F011
:101D30002B04050A121D2D00E6E70078844259D0D5
:101D40000C7020E00078844254D00878844251D04E
:101D5000347018E0007884424CD00878844249D02E
:101D60003078844246D03C700DE00078844241D007
:101D7000087884423ED0307884423BD03878844220
:101D800038D08CF800402A701AE00078844231D0B4
:101D9000087884422ED0307884422BD03878844220
:101DA00028D09CF80000844224D01F48ACE71F488C
:101DB0001F49204A006868B1107801EB4000447068
:101DC0001DA148460AF0D2F821464846BDE8F04732
:101DD00002F044BA002000E00CE0127805E000BFF9
:101DE00011F81030A34205D0401C9042F8DB01F8F6
:101DF0001240E5E7BDE8F087410200202D010020F8
:101E00003A0200200E0200200F02002010020020E3
:101E10001702002018020020190200201A020020D8
:101E20001B0200201C0200201D020020D402002002
:101E3000F81D00200D02002020202020202000007E
:101E4000444810B5007806287AD2DFE800F05382C3
:101E50001821033040488321008801F0DDFF3F480E
:101E600078228521008801F067FF3D489321008892
:101E700001F0D2FF3B4878229521008813E095209D
:101E800002F0C4FABDE81040374983200AF06EB86A
:101E900036488421006802F045F83548007800286B
:101EA00057D02D228621BDE8104001F045BF02F039
:101EB00007FB304991200AF059F82F4990200AF089
:101EC00055F82E4CA088FF2843D06088FF2840D0CA
:101ED0002B4990200AF04AF82088932101F09CFFBA
:101EE0006088962102F050F8A088BDE81040982143
:101EF00002F04AB880200AF04BF82248224C0078C1
:101F0000032807D001280BD002281AD0042820D19A
:101F10001E490AE01E4915E01EA10AE01FA108E0C3
:101F200020480078012809D01F4980200AF01EF8B7
:101F30001EA1BDE81040812002F00EB91D49F4E752
:101F400007E01D4980200AF011F820780128E5D12A
:101F5000E2E710BD410200204A0200204C020020AE
:101F600046020020480200205D010020841D002060
:101F7000801D00208C01002060D40008EA010020B0
:101F80009AD600080B0200203802002054CA00082C
:101F90004ECA0008202D3E2000000000203C2D20CD
:101FA00000000000390200204BCA0008202B20202E
:101FB0000000000048CA000851CA000870B504F0CB
:101FC000A7F9002844D103F06FFF09F0F1FF214C7D
:101FD0002078302818D008DC122815D0192813D002
:101FE0001E2811D0252808D10EE053280CD06428D3
:101FF0000AD0812808D0862806D0122020702078A8
:10200000BDE87040FFF708BB134D00EB800005EB07
:10201000C000407E207000EB800005EBC000017B1B
:102020009129ECD1006A0028E9D090200AF072FCD6
:10203000207800EB800005EBC000006A8047217823
:10204000884201D105A000E005A00AF001FCD6E716
:1020500070BD0000410200205C0300202A00000047
:102060003E00000073B50D46684605F05DFA38B3D2
:10207000164C627A022A17D2A07A00281FD19DF846
:10208000001004F1190030318154521CD1B2617238
:10209000002242540146284609F068FF607A02286F
:1020A00002D20BA00AF0D4FB607A022807D10120EB
:1020B000A072607B032802D1022003F007FF7CBDE1
:1020C0009DF8000004F088FD7CBD00002D0100207B
:1020D0005F00000073B50D46684605F025FA20B391
:1020E000144CE278022A17D2207900281CD19DF8DE
:1020F000001004F1100030318154521CD1B2E17053
:10210000002242540146284609F030FFE0780228B8
:1021100002D209A00AF09CFBE078022804D1012039
:102120002071022003F0D2FE7CBD9DF8000004F077
:1021300053FD7CBD2D0100205F00000070B503F051
:10214000B3FE144C144D20780A2805D00B2803D078
:102150000C2801D00A2004E000EB800005EBC00051
:10216000407E2070C0B2FFF757FA90200AF0D2FBF1
:10217000207800EB800005EBC000006A80472178E2
:10218000884201D105A000E005A0BDE870400AF03A
:102190005FBB0000410200205C0300202A00000019
:1021A0003E0000002DE9F0411F4D064695203224E7
:1021B000287009F0FDFE1D481D491E4A87781E4BF8
:1021C000BFB100268670187802282AD0911C802082
:1021D00009F0CCFE287800EB8001184800EBC10024
:1021E000406A08B18047C4B22046BDE8F04108F01B
:1021F000AFBD01248470187802280CD0911C802077
:1022000009F0B4FE0E49912009F0B0FE3046BDE859
:10221000F04106F05FBF891C802009F0A7FE094944
:10222000F1E7891CD3E7000041020020F001002003
:1022300065D3000870D30008090200205C03002069
:1022400076CC000871CC00082DE9F84FFC4F002631
:10225000022097F800B003F039FE00281FD139782A
:102260000025F84C72293DD006DC692921D06B2964
:1022700021D0702906D133E0772938D0792938D098
:102280007E290ED0F0480278012A3DD0B846EF4FA3
:102290008A296CD040DC102943D0112972D1BDE8C5
:1022A000F88F7C213970BDE8F84F0022042008F037
:1022B000EFBBE748057009F07BFE06F055FA1CE01D
:1022C00001281FD002E0902009F050FE052009F0FF
:1022D000DDFE3D7004F0C8FCBDE8F84FFFF706BB1B
:1022E000DC48057009F064FE06F05AFA05E0DA48A9
:1022F000057009F05DFE06F06FFA20780228DFD144
:10230000D649E0E7D649DEE7057092203870BDE88F
:10231000F84FD4A109F02ABE8B2928D08C2931D1BD
:1023200003E0BDE8F84F05F069B805F08FF9A8B1F2
:10233000902009F02DFE2078022802D0012802D03A
:1023400005E0C64900E0C649902009F00FFE0520CF
:1023500009F09CFEBDE8F84F05F048BFFDF778FF97
:102360000A2009F093FEBDE8F84F09F00DBD01EB1E
:10237000810007EBC000C36923B100220420984705
:1023800000288CD009F014FE98F80000444631284B
:1023900023D000EB800107EBC101897E814201D08F
:1023A000217001262078E0B1FFF736F92178BA468E
:1023B00001EB810207EBC2004FF001090269002A1C
:1023C0007DD05C2941D010DC1A2930D01F291CD0C7
:1023D00026292CD05B295DD12EE002F0E1FE207091
:1023E000E0E7BDE8F84FFFF7E9BD6B2904D072299B
:1023F00005D079294ED105E001F0A2FF4AE001F0B5
:10240000C1FF47E001F0E0FF44E097480078022870
:1024100004D09848954A9649007806E09648934A31
:1024200093490078012805D0012003F0CDF804F08D
:102430004DF92FE00220F8E79048494680F80090D7
:1024400040F25E4009F0CAFC24E000958C4D2878EB
:1024500031308DF800003A208DF8010085200AF017
:1024600059FA68460AF0F4F995200AF053FA6846DA
:102470000AF0EEF9834F287817F8101011B1862072
:1024800001F0ECFE287807EB4000417811B196206E
:1024900001F0E4FE2178554601EB81000AEBC00013
:1024A000C3697BB12EB1682903D06F2901D0762989
:1024B00008D100220420984720B1012000E01FE04D
:1024C00009F0E4FD207800EB800005EBC000017B03
:1024D000912914D1006A002811D090200AF01AFA2C
:1024E000207800EB800005EBC000006A804721786F
:1024F000884201D164A000E064A00AF0A9F9FBE0E1
:10250000406A4FF0000808B1804780462178604F4C
:10251000272924D012DC1D2934D008DC142933D01B
:10252000162931D0182932D01B2924D12AE020299C
:1025300028D0222926D024291DD11DE046297CD06F
:1025400006DC29290BD02B2909D0452913D107E016
:10255000504E8D2945D08E2970D09A290BD1BFE0DD
:10256000022004F08BFF03F09FFC4B482A229021AD
:10257000007801F0E1FBBFE004F0A8F8912001F041
:102580008FFCB9E004F0A2F8872001F075FF2178F4
:10259000022004F073FF78B100222178042006F0B5
:1025A000EDFD00BF03F080FC04F0C0F821788B45FE
:1025B0000ED0C7F800900FE0217801EB81020AEB02
:1025C000C200C369002BEDD0002204209847E9E740
:1025D0003868012802D13D6001F0AEFD04F050F8EA
:1025E0008AE03078401C10F0010030704FF002009B
:1025F00010D004F043FF012808D100BF03F054FCC1
:1026000004F094F83D6001F097FD75E03078401CCF
:10261000307071E004F032FF0128F7D103F044FC80
:1026200004F084F813480221C7F8009001708E204E
:10263000FEF7F2FF19A1912034E05BE035E00000E5
:1026400041020020090200202D0100205C0300202F
:10265000110200201202002013020020EBCB000820
:10266000F4CB00085F000000390200208C1D002020
:102670008A1D002033020020380200200C020020B6
:102680000D020020F81D00202A0000003E0000007E
:10269000D8020020F00100200A0200205F20202044
:1026A0007800000009F062FC26E07078401C10F011
:1026B000010070704FF0020007D004F0DFFE012827
:1026C0009CD07078401C707016E004F0D7FE012892
:1026D000F7D103F0E9FB04F029F8C7F800900BE00C
:1026E00003F0E2FB9121404601F096FB872001F0C8
:1026F000C3FE01E003F05EFF207800287FF4CFAD39
:10270000BDE8F84FFFF79CBB2DE9FF5FFB4842781F
:1027100002928178047901F07F08C178477986793F
:10272000C57922B11046F64A127890427CD1F54A1A
:10273000F548DFF8D8931278019200780090F448B9
:102740004FF0000AB8F10D0F02786ED01BDCEB4B96
:10275000DFF8C0B34FF0020E587993F804C0DB786D
:102760004CEA002003F07F034FF0010C0393B8F113
:102770000D0F7DD2DFE808F07C4982EFEEEDECEB47
:10278000EAE9E8E7E600DFF890C3B8F1140F70D08B
:102790000ADCA8F10E08E148B8F1060F68D2DFE8BC
:1027A00008F0EDECEBEAE9E8DD48DFF878B3B8F1E2
:1027B000170F6CD013DCB8F1150F69D0B8F1160FF4
:1027C00056D1017040F27C4009F008FB8BF80040C4
:1027D0008BF801708BF802608BF80350FFE2B8F1C0
:1027E000180F56D0B8F17F0F42D1CF4DCF4E1429DC
:1027F0003ED2DFE801F03DF5F4F4F3F2F1F0EFEE54
:10280000EDECEBEAE9E8E7E6E5E4C94AC94B012962
:102810000CD002290FD0032910D0042928D1C2F8E6
:1028200000A0C3F800A0DAE296E380E2C2F800C09C
:10283000C3F800C0D3E2FDF72FFDD0E2B04D214632
:1028400040F25C402C7009F0C9FA28780322401C41
:10285000C1B2042006F0FCFBA8488078000607D52A
:10286000B5480078012803D10A21A44804B001E04A
:102870007EE095E2BDE8F05F08F030BFAF4DB04EAE
:10288000B04FB14C40F23740152971D202E09CE2C2
:102890008DE2ADE2DFE801F06C0B0E151B21272F56
:1028A000323A3E43474E505260667375770008F0E7
:1028B0005FF894E2032A02D007F0F6FE8FE20020D0
:1028C00016E0032A01D007F0EFFE042010E0032AEF
:1028D00001D007F0E9FE03200AE0032A01D007F047
:1028E000E3FE022004E0032A01D007F0DDFE06200B
:1028F00000F0F6FF73E207F067FE70E2DDE9000426
:10290000012107F0BBFB0221204685E085F800C0CD
:10291000012102E085F800A00021012007E086F8EF
:1029200000C0012102E086F800A00021022007F08B
:1029300071FB54E2972116E0982114E087F800E03B
:1029400001200CE0ECE1E4E182E16FE141E117E11B
:10295000C1E085E063E01BE087F800C0022008F0DA
:1029600003FA3CE299217948017002F0EBFE36E26D
:1029700089E009E2F7E1DBE1D3E1CBE1DEE16146A9
:1029800002E0714600E00321217009F027FA26E2F7
:10299000012902D0022903D004E08BF800C001E035
:1029A0008BF800E00A2C6ED2DFE804F06D051B1FE7
:1029B00023272B2F6D339BF8001001202CE0B7E26A
:1029C000B2E29FE29AE295E290E28BE286E281E255
:1029D0007BE276E271E26CE23CE238E230E21FE256
:1029E00012E29BF80010032016E09BF80010022072
:1029F00012E09BF8001006200EE09BF80010072064
:102A00000AE09BF80010052006E09BF80010092062
:102A100002E09BF800100A2007F030FBDFE10129FB
:102A200010D0022910D0032913D004292BD1484DEE
:102A300021464FF499602C7009F0D0F9287808F0FD
:102A400087F9CCE1012008E0424880F800C002206C
:102A500003E04049032081F800E006F03BFBBEE1C3
:102A60000E2910D2DFE801F00F07090D101214161D
:102A7000181A1E2124260E2100E00D2189F80010CD
:102A800020E00C21FAE7A3E00921F7E70821F5E7A8
:102A90000721F3E70621F1E70521EFE7032089F895
:102AA00000000FE089F800E00CE089F800C009E0C0
:102AB0000A21E3E7284989F800A00880274846EA68
:102AC0000521018099F8000007F052FD04F0C2F9D9
:102AD00004F054FD83E1012944D0022978D1204C2F
:102AE000024614210220C4F800C006F047FB46EA63
:102AF00005221421C4F800A0A0E00000C41D00209D
:102B0000801D00203A0200203B02002040020020ED
:102B10003902002033020020030200205D01002062
:102B2000020200207F0100208C1D00208A1D002051
:102B3000C8020020C402002001020020360200204A
:102B400037020020380200202A0200204102002023
:102B500035020020340200208E1D0020901D002030
:102B6000D8020020FE4C024616210220C4F800C004
:102B700006F004FB46EA05221621C4F800A05DE039
:102B8000090602D48BF800C001E08BF800E003993D
:102B900001290FD002291BD1F14C02461B21022032
:102BA000C4F800C006F0EAFA46EA05221B21C4F880
:102BB00000A043E0EA4C02461D210220C4F800C0F8
:102BC00006F0DCFA46EA05221D21C4F800A035E033
:102BD0007EE0090602D48BF800C001E08BF800E02B
:102BE0000399012906D0022912D0032970D1FEF7DA
:102BF00001FFF4E0DA4C024622210220C4F800C0B2
:102C000006F0BCFA46EA05222221C4F800A015E02D
:102C1000D34C024620210220C4F800C006F0AEFAD0
:102C200046EA05222021C4F800A007E0012909D0C6
:102C300002290AD003294BD122462B21022006F07B
:102C40009DFACCE022462721F8E722462921F5E724
:102C5000C4480B293CD2DFE801F0DF062228323CD1
:102C6000455053565900C04804F07F0101F5FA6100
:102C700001807907090F41EAD4114180F908818068
:102C800006F01F01C1806907890E41EA56110181D2
:102C90003E2101EA9501418108F0DAFC9FE02046DF
:102CA00005F020FC002813D099E0204603F0CCFA70
:102CB00000280DD0AD49AE4808F012FF8FE0047037
:102CC00047708670C570012005F0A2FD012011E05B
:102CD000A2E0047047708670C570022005F098FD70
:102CE000022007E0047047708670C570032005F06D
:102CF0008FFD032001F0FEFD71E0FDF705FD6EE0A4
:102D0000FDF710FD6BE0FDF71BFD68E005F022FA12
:102D100065E09848017044708770C67005715EE088
:102D2000944841718471C7710672457257E09148A9
:102D30008172C47207734673857350E08D48C17306
:102D4000047447748674C57480F814A001F09CFD67
:102D50008948007818BB802009F01AF9854980203D
:102D600009F004F93BE0C173047447748674C574B8
:102D700080F814A0152140F2AC4009F02FF816227B
:102D80007E4940F2AE401DE08CF8001040F28B40CE
:102D900009F024F87A48047047708670C5701EE008
:102DA0007748017144718771C671057217E07448E4
:102DB000417284729CF80020014600F802A0921C27
:102DC00040F28D4009F08FFA09E08BF804108BF87F
:102DD00005408BF806708BF807608BF8085069483F
:102DE0008078000603D568480078012871D0B1E0EA
:102DF0008BF809108BF80A400278644940F27E4053
:102E00000BF802A0921CDDE7012A32D0022A30D052
:102E1000032A30D0042A30D0BDE8FF9F04207AE096
:102E200002290BD000980B28F6D2DFE800F006222A
:102E30002426062C282A062E3200EDE70198F2E718
:102E400053480078012814D0022814D0E4E75148F0
:102E50000178E3E799F800000F28DDD2DFE800F001
:102E6000211D1B1908171513110F1F080D0B090041
:102E7000D2E70121D2E70221D0E70321CEE70421E6
:102E8000CCE70521CAE70621C8E70721C6E70821E4
:102E9000C4E70921C2E70A21C0E70B21BEE70C21E4
:102EA000BCE738488621C1703B4801883B48008810
:102EB00047E03B4801883B48F9E73B4801883B48ED
:102EC000F5E73B4801883B48F1E73B4801883B4830
:102ED000EDE73BE03A4801883A48E8E73A4801889C
:102EE0003A48E4E73A4801883A48E0E73A48018836
:102EF0003A48DCE73A4801883A48D8E73A48018836
:102F00003A48D4E7012C0BD0022C0BD0032C83D1F0
:102F100037480178052004B0BDE8F05F05F094B9AA
:102F20003448F6E73448F4E7344A3549012002E0F2
:102F3000324A3349022002F047FB002886D0298814
:102F4000308804B0BDE8F05F05F088B90A210D486B
:102F500008F0C4FB029808B12A4955E057E0000088
:102F6000D80200200F000020DE0100209E0000207B
:102F7000340000208C010020410200205D0100206F
:102F800072010020C41D0020010200207F010020EA
:102F90003402002035020020901D00208E1D0020EC
:102FA000500200204E0200204C0200204A02002065
:102FB0005802002056020020540200205202002035
:102FC000600200205E0200205C0200205A02002005
:102FD00068020020660200206402002062020020D5
:102FE000700200206E0200206C0200206A020020A5
:102FF0003F0200203D0200203E0200208C1D0020E8
:103000008A1D0020801D00200978884296D004B0D7
:103010000A21BDE8F05F014808F08EBBC41D002006
:10302000F8B500252E468DF800506946154804F085
:10303000A7FC01280AD0144C1448E17839B10929B9
:103040000DD09DF800204254491CE170F8BD9DF858
:103050000010AA29FAD101700120E070F8BD9DF896
:1030600000100D290BD141720121425C491C5540D1
:103070000829FADB007AA84201D1FFF745FBE67088
:10308000F8BD0000081E002001000020C41D002023
:103090000E4910B51120087008F08AFF0C4800781E
:1030A00002280BD0012810D10A49802008F05EFFC9
:1030B00009499020BDE8104008F058BF074980201A
:1030C00008F054FF06498420F4E710BD41020020B7
:1030D00009020020E1D000083BCF0008D6D000084C
:1030E0001CCF000831B5684604F01EFA00289DF890
:1030F00000000AD018493030194C08701748007881
:10310000102805D0112811D014E003F065FD38BD5A
:103110002078022802D0012802D018E0114900E0EE
:1031200011498420083108F021FF03E008F040FF36
:1031300004F09CF92078022802D0012802D006E091
:103140000A4900E00A499020891C08F00FFF024953
:10315000922008F00BFF38BD3B0100204102002007
:103160000902002074CE000861CE000831D40008A6
:103170003DD400080E4910B51020087008F018FF63
:103180000C48007802280BD001280FD10A49802072
:1031900008F0ECFE0949BDE81040842008F0E6BEC6
:1031A0000749802008F0E2FE0649F4E710BD000060
:1031B0004102002009020020CAD000083BCF0008CD
:1031C000BFD000081CCF000831B582B0002402A88F
:1031D00004F0AAF900289DF808001AD008281AD08F
:1031E000092818D0002816D000F130018DF8001001
:1031F0002549012209786B290ED072292BD0792913
:1032000009D1224D2978072905D2214B1A70214A6C
:1032100036E003F0E1FC3EBD1F4D29780729FAD2C4
:103220001E4B1A701E4A04E0135D8342F3D0641CE7
:10323000E4B28C42F8D350549031C8B2694608F0D9
:1032400095FE2878401CC0B228700728E3D215A04C
:1032500009F0FEFA3EBD144D29780729FAD2134B26
:103260001A70134A04E0135D8342F3D0641CE4B285
:103270008C42F8D3DFE7135D8342EBD0641CE4B2E9
:103280008C42F8D3D7E7000041020020080000205C
:10329000130200202200002006000020110200205E
:1032A00014000020205F0000070000201202002010
:1032B0001B000020F7B515460E46684604F034F9A9
:1032C00020B1304609F026FB002408E09DF80000FC
:1032D00003F082FCFEBD202008F06EFE641CAC42B0
:1032E000F9DB164CA078A84214D2617891B99DF808
:1032F0000020134930320A54401CC0B2A070002292
:103300000A54304608F032FEA078A84202D20DA03E
:1033100009F09EFAA078A842DCD10120607008492B
:10332000304608F023FE084800789B2801D0622828
:10333000D0D1022002F0CAFDFEBD00002D01002008
:10334000CE1D00205F0000004102002073B50D4635
:10335000684604F0E9F808B3134CE27A022A17D25F
:10336000207B002819D19DF8001004F11C00303199
:103370008154521CD1B2E1720022425401462846C7
:1033800008F0F4FDE07A022802D208A009F060FA01
:10339000E07A022801D1012020737CBD9DF8000055
:1033A00003F01AFC7CBD00002D0100205F0000002E
:1033B00010B51B4CE078401CC0B2E0703C2818D11E
:1033C0000020E070A178491CC9B2A1703C2910D13D
:1033D000A0706178491CC9B26170182909D1607068
:1033E0002078401CC0B26421B0FBF1F201FB120056
:1033F00020700C480078012811D18521207800F038
:10340000C3FD9021607800F0BFFD9221A07800F00C
:10341000BBFDE078BDE81040942100F0B5BD10BDC3
:103420004C010020410200202DE9F0416148007864
:10343000012819D007F0D8FE5F480178892901D00A
:103440000721017008F0B4FD5C49012602270878C5
:103450005B4D5C4C03280BD08846012864D00428BF
:1034600062D002287DD09BE0BDE8F041FDF70ABAAA
:103470005549802008F07AFD2878022802D00128DA
:1034800003D006E05149922001E05149902008F014
:103490006DFD2078022823D04EA1812000F05CFE33
:1034A000012008F0F3FD4EA1812000F055FE01201F
:1034B00008F0ECFD4DA1812000F04EFE012008F047
:1034C000E5FD4DA1812000F047FE012008F0DEFD62
:1034D0004CA1812000F040FE012008F0D7FD5AE009
:1034E0004BA1812000F038FE012008F0CFFD4BA158
:1034F000812000F031FE012008F0C8FD4AA18120A2
:1035000000F02AFE012008F0C1FD4AA1812000F050
:1035100023FE012008F0BAFD49A1812000F01CFE25
:10352000012008F0B3FD3FE04848494902780B7894
:1035300003700A702878022802D0012802D005E022
:10354000444900E044A1922008F010FD98F80000E2
:1035500001280AD04349802008F008FD42A18120BB
:1035600000E004E000F0F8FD1AE04149F3E74149CA
:10357000802008F0FBFC2878022802D0012803D024
:1035800006E03D49922001E03C49902008F0EEFC25
:103590002078022808D03AA1812000F0DDFD2770B4
:1035A000BDE8F04105F0B2BD38A1812000F0D4FDA6
:1035B0002670F5E739020020410200200B020020AE
:1035C00009020020380200204ECA000876CF000809
:1035D0006ACF000820202020203C2D2D0000000074
:1035E000202020203C2D2D20000000002020203C09
:1035F0002D2D20200000000020203C2D2D202020FB
:1036000000000000203C2D2D202020200000000084
:103610002D2D3E202020202000000000202D2D3EBA
:10362000202020200000000020202D2D3E202020E2
:10363000000000002020202D2D3E20200000000052
:10364000202020202D2D3E20000000003A020020E6
:103650003B02002083CC00085377617020496D61E4
:103660006765000054CA000820202B2020000000BD
:103670004BCA000851CA000890CF0008A2CF00082A
:103680003C2D2D2020202020000000002020202084
:10369000202D2D3E000000002DE9F041002602F013
:1036A00037FE00287BD16A4C2078102877D011286B
:1036B00075D0684D00EB800105EBC1010969B9B90E
:1036C000452815D002F0F0FB207800EB800105EBD7
:1036D000C101497E814200D02170207800EB800139
:1036E00005EBC1010A69E2B3BDE8F041FDF794BF03
:1036F00002F0DAFB217801EB810005EBC000007ECF
:10370000884201D0207001262078FDF785FF07F060
:103710004FFD217801EB810005EBC000C3693BB18F
:1037200036B900220220984710B1012008F0AEFC03
:10373000207800EB800005EBC000017B912914D1BB
:10374000006A90B1902009F0E5F8207800EB800045
:1037500005EBC000006A80472178884202D13EA074
:1037600001E00BE03DA009F073F820789A2869D1B8
:103770003B489121007800F007FC63E0486A08B1FB
:10378000804706462078374F22281BD00DDC1B28A7
:1037900018D005DC142817D016281ED114E055E0E7
:1037A0001D280FD0202818D10CE02B282CD004DCA9
:1037B000272829D0292810D126E0952804D09A2836
:1037C0000BD121E002F082FF3878301A01D50026B3
:1037D00000E086B2872000F04FFE217801EB8100E7
:1037E00005EBC000C36913B1324602209847207828
:1037F00020281ED013DC14281BD0162819D01B2813
:1038000017D01D281ED114E03878301A01D50026B3
:1038100000E086B29121304600F0FEFADAE7222875
:1038200007D0462802D095280CD105E002F008FE0A
:1038300008E002F07BFF05E00B482A229021007887
:1038400000F07AFABDE8F041FEF7FABABDE8F0817F
:10385000410200205C0300202A0000003E0000001E
:103860003C0200202D0200203502002070B5194CCA
:1038700095203226207008F09BFB2078164D00EB37
:10388000800005EBC000406A08B18047C6B22A221A
:103890009021304600F050FA10480078022802D0FB
:1038A000012807D010E0207800EB800005EBC00174
:1038B000496805E0207800EB800005EBC0018968CD
:1038C00015F8300008F052FBBDE87040872000F08A
:1038D000D3BD0000410200205C030020090200204B
:1038E0002DE9F0411C4C1D4BDFF874E024881B8847
:1038F0001C4FE51ABEF800403B880026E41A144924
:10390000144A1FFA85FCA7B207281AD2DFE800F094
:1039100004190608131916000E800DE00E800EE043
:1039200004EBD470C0F34F00088005EBD570C0F3F2
:103930004F00108005E00F80168002E00F80A2F893
:1039400000C0BDE8F0410221062006F0A9BF00003A
:103950005E02002060020020540200205C02002071
:10396000520200205A020020704700002DE9F04763
:10397000944C0D46A178B9B3934808F0C3FA804639
:1039800002F092FA882D02D04B2D6FD018E100255D
:1039900001268E488E498F4A4FF47A77B8F1150F79
:1039A0007DD010DC8C4FDFF8349240F2754AB8F1CC
:1039B0000E0F26D2DFE808F025282D2F314049616F
:1039C000252525818385B8F1480F69D00DDCB8F134
:1039D000160F6FD0B8F1170F6DD0B8F1460F6BD03E
:1039E000B8F1470F0DD1C1E00BE0B8F1500F7DD019
:1039F000B8F1510F7BD0B8F1520F79D0B8F1530F15
:103A000077D00020BDE8F0870320607306F0DAFA73
:103A1000D6E04B20BFE04D20BDE0022303700868D4
:103A2000904267D304206E4960738F20087008F0BD
:103A3000BFFA6C4980203AE00320FDF7EDFD6A48AB
:103A40008421006800F06EFABAE008F0B1FA31465D
:103A50003E70504608F0C2F999F80000022806D0DE
:103A60006249802008F082FA614916E096E06149D7
:103A7000802008F07BFA604918E008F099FA29469E
:103A80003D70504608F0AAF999F80000022808D0C5
:103A90005649802008F06AFA5849902007E012E061
:103AA00066E05449802008F061FA5549872008F003
:103AB0005DFA85E026E03EE056E0A3206BE0A4201E
:103AC00069E0A52067E008F073FA4E49802008F00D
:103AD0004DFA4D4C2088B84204D3B0FBF7F0852155
:103AE00000F052FA2088B0FBF7F104E042E047E032
:103AF0004EE04FE048E007FB1100862100F08CF912
:103B00004249CAE708F054FA4149802008F02EFAE9
:103B1000404C2088B84204D3B0FBF7F0852100F078
:103B200033FA2088B0FBF7F107FB1100862100F083
:103B300073F93949B1E708F03BFA3849802008F0B9
:103B400015FA374C2088B84204D3B0FBF7F0852132
:103B500000F01AFA2088B0FBF7F107FB110086216C
:103B600000F05AF92F4998E7A22014E09F2012E0B4
:103B7000A62010E005700868904205D39D200AE059
:103B800006700868904201D29C2004E0A02002E068
:103B90009E2000E09B20FDF73FFD11E0B8F13B0FB8
:103BA00001D94FF03B08204808F0FF042A22047096
:103BB0009021404600F0C0F82146062008F00EF99A
:103BC00001201FE72D010020CE1D0020811D0020B7
:103BD000B802002040420F00FF010020090200202F
:103BE000410200209AD60008841D0020A4CA0008C3
:103BF000C0CA00088FCA0008B9CA0008CCCA0008A9
:103C0000C5CA0008C3D60008741D0020C9010020E1
:103C1000D7D60008761D0020D0010020EBD6000882
:103C2000781D0020D7010020080200202DE9F04176
:103C3000054600241F48FCF7E3FF78B31D48FDF755
:103C40001FF858B31B4900201B4A0F791B4B1C4E11
:103C5000252F02D0262F0ED025E04979092902D040
:103C60000A2902D011E001240FE0107012E000BF19
:103C700008F08AF817E03778012F14D0497909291C
:103C800002D00A2905D000E002243078022806D0AC
:103C90000CE05070907018788928E9D003E009484A
:103CA0000078A04202D10020BDE8F08105B12C705F
:103CB0000120F9E7B81D002001000020410200208A
:103CC000390200203802002010B512480C468178D5
:103CD00041B1114808F016F910498A2C04D08B2CF8
:103CE0000BD013E0002010BD0D4A10800D4A10804B
:103CF000097802290AD10C4907E00C4A10800C4AC5
:103D000010800978022901D10A49088002F0CCF814
:103D1000012010BD2D010020CE1D00203902002001
:103D20004A020020520200205A0200204C020020C9
:103D3000540200205C0200202DE9FC410D464FF4A6
:103D40007A71B0FBF1F30A21B3FBF1F401FB1433F8
:103D50006424B0FBF4F4B4FBF1F701FB1744B0FBAF
:103D6000F1F7B7FBF1FC0026009601FB1C718DF802
:103D7000002020222143EC4601968DF801201943B2
:103D800032D04FF00A02B0FBF2F7B7FBF2F102FBC0
:103D9000117102FB170201F130011C43C9B202F19B
:103DA000300226D06424B0FBF4F00A24B0FBF4F710
:103DB00004FB17003030C0B20BB330338DF8023043
:103DC0008DF803008DF804108DF805205FF00600D3
:103DD0000FA10CF80060284608F0C8F8694628468C
:103DE00008F0C4F8BDE8FC8130308DF802000320F3
:103DF000EEE78DF802108DF803200420E8E78DF837
:103E000002008DF803108DF804200520E0E7000083
:103E100020202020202000002DE9FC414FF47A7260
:103E20000A25B0FBF2F2B2FBF5F3884605FB13223C
:103E300000216423B0FBF3F3B3FBF5F4B0FBF5FC16
:103E400005FB1433BCFBF5F405FB14C46E4622B12C
:103E500002F130018DF80010012153EA020703D06E
:103E600003F130077754491C2343134302D0303405
:103E70007454491C05FB1C0030307054491C002050
:103E8000705405A1404608F071F86946404608F0B4
:103E90006DF8BDE8FC81000020202020000000001B
:103EA0001CB504460020ADF80400ADF800001A4827
:103EB000007802280DD0012801D0184800786A4601
:103EC00001A901F081FBBDF80400B0F5347F08D0F2
:103ED00016E013480078022801D00220EFE7012005
:103EE000EDE7BDF80010F02903D0B1F5907F03D0C5
:103EF00006E04FF4F07101E04FF41071ADF80010DE
:103F00002146FFF789FFA41CE1B27822BDF800002A
:103F1000FFF712FF1CBD0000390200203302002011
:103F2000380200201CB50C4642F21071B0FBF1F2D1
:103F300001FB12014FF47A73B1FBF3F2B0FBF3F122
:103F400003FB110130328DF800206423B1FBF3F242
:103F5000B0FBF3F130328DF8012003FB11010A228E
:103F6000B1FBF2F130318DF80210B0FBF2F102FB3F
:103F7000110030308DF8030000208DF804006946F0
:103F8000204607F0F3FF1CBD38B50A22B0FBF2F45F
:103F90000346B4FBF2F002FB104002FB14320D4664
:103FA00068B130308DF8000030328DF801200020EB
:103FB0008DF802006946284607F0D8FF38BD20205A
:103FC000F0E7000010B507F0F3FF0B480078022877
:103FD0000BD001280FD10949802007F0C7FF0849FD
:103FE000BDE81040902007F0C1BF0649802007F0CF
:103FF000BDFF0549F4E710BD090200204CCC0008C4
:1040000067CC00083FCC000854CC000870B51F4CAA
:104010001FA1208885B2962007F0A8FF9621284688
:10402000FFF7B2FFA088942180B2FFF7ADFF20898F
:10403000922180B2FFF7A8FF1649208B097880B241
:10404000022909D001291FD107281DD2DFE800F07D
:104050000A0C0E1012141600BDE87040C0B299216F
:1040600000F036B80CA10AE00DA108E00EA106E0B0
:104070000FA104E010A102E011A100E012A1BDE82F
:104080007040982007F072BF70BD0000DC1D00205A
:10409000202000000902002053756E2E0000000051
:1040A0004D6F6E2E00000000547565730000000017
:1040B0005765642E0000000054687572000000000F
:1040C0004672692E000000005361742E000000004B
:1040D00038B50C460021C822009107280FD2DFE82E
:1040E00000F0040813181C2126008DF80020D520AC
:1040F00003E0D2208DF80000BB208DF80100694656
:10410000204607F033FF38BDB6208DF80000FE20B2
:10411000F3E78DF80020FD20EFE7CB208DF80000BD
:10412000C420EAE7CE208DF80000E520E5E7C120B5
:104130008DF80000F920E0E705480068012803D069
:104140000449932007F012BF024908399120F9E78A
:10415000D8020020D4D900082DE9FC413E4C0D4680
:1041600094F8461000F07AF894F84500012868D0D9
:1041700094F847E000224120562432274421492662
:104180004FF0470CBEF10B0F55D2DFE80EF054068E
:104190000C161C32442229375C008DF800008DF883
:1041A0000140312019E08DF800008DF801408DF8B4
:1041B000027000BF8DF803203DE08DF800008DF8FF
:1041C0000140332009E08DF800008DF801403420D3
:1041D00003E08DF800408DF801C08DF80200E9E79A
:1041E0008DF800408DF801C08DF802008DF8037045
:1041F0000EE08DF800108DF8014029E048208DF880
:1042000000008DF801104D208DF802008DF803603C
:104210008DF804200FE059208DF8000050208DF813
:10422000010062218DF802108DF8030072208DF8D4
:1042300004008DF80520284608F00AFB684608F0BF
:1042400007FBBDE8FC8153208DF800008DF80110BC
:104250008DF80260AEE70000F40100202DE9FC417A
:10426000002241255624442649274FF0320C4FF0B6
:10427000470E0B2957D2DFE801F056060C161C3406
:1042800046242B395B008DF800508DF80140312118
:1042900014E08DF800508DF801408DF802C000BF89
:1042A0008DF803203FE08DF800508DF80140332158
:1042B00004E08DF800508DF8014034218DF8021093
:1042C000EEE78DF800408DF801E08DF80250E7E749
:1042D0008DF800408DF801E08DF802508DF803C094
:1042E0000EE08DF800608DF8014026E048218DF841
:1042F00000108DF801604D218DF802108DF80370CB
:104300008DF804200FE059218DF8001050218DF810
:10431000011062238DF802308DF8031072218DF8A0
:1043200004108DF80520694607F020FEBDE8FC81E9
:1043300053218DF800108DF801608DF80270AFE701
:10434000F8B50D4D00242878002813D00B4E0BE053
:10435000305D694630308DF8000004F19000C0B245
:1043600007F004FE641CE4B228788442F0D304A071
:1043700008F06EFAF8BD00000600002014000020CE
:10438000205F0000F8B50D4D00242878002813D0D8
:104390000B4E0BE0305D694630308DF8000004F1C3
:1043A0009000C0B207F0E2FD641CE4B228788442B9
:1043B000F0D304A008F04CFAF8BD0000070000207C
:1043C0001B000020205F0000F8B50D4D0024287868
:1043D000002813D00B4E0BE0305D694630308DF86D
:1043E000000004F19000C0B207F0C0FD641CE4B20C
:1043F00028788442F0D304A008F02AFAF8BD00001F
:104400000800002022000020205F00007CB5174A31
:1044100000210A231678B6FBF3F5B5FBF3F203FB94
:1044200012546A461CB130348DF80040012103FB60
:10443000156430345454491C2E2454540C4C491CDB
:104440002478B4FBF3F503FB154330335354491C74
:104450002D235354491C0023535408F05BFA68463B
:1044600008F0F6F9034808F0F3F97CBD05020020D6
:104470000602002057CA000810B508F04BFA0BA03E
:1044800008F0E6F90A4890F83900642808D00A28AC
:1044900008D0012808D107A0BDE8104008F0D8B91D
:1044A00005A0F9E705A0F7E710BD0000A1C00000D6
:1044B000F401002031202000313030003130200064
:1044C00070B50B4C0B4D8321A08A80B22880FFF77A
:1044D000A3FC208A862180B26880FFF755FDA08961
:1044E000882180B2A880BDE87040FFF74DBD000074
:1044F000DC1D0020DE01002010B5642007F0FCFD6B
:104500000221054800F028FE08B9FDF79DFEBDE830
:104510001040012000F050B80014014070B54FF475
:1045200000642146164800F017FE00BB154A012121
:104530000023D078E0B1D088A0F16505312D00D2FC
:104540001371B0F5487F04D20F4D167925F8160087
:1045500002E05078401C5070D3801079401CC0B2EB
:104560001071212802D1117013715370D37001E0C2
:10457000D380D1702046BDE8704000F01DB8000027
:1045800000080140961D0020701E002010B5642018
:1045900007F0B2FD0221054800F0DEFD08B9FDF785
:1045A00053FEBDE81040022000F006B800140140A0
:1045B0000A2007F0A1BD0000014908607047000013
:1045C0001404014030B51A498379026853B30B686B
:1045D00093430B600A1D13680468A34313600279B8
:1045E0000A441368046823431360114A08321368AD
:1045F0000468A3431360131D1C680568AC431C606A
:104600004479102C05D021440A68006802430A60EE
:1046100030BD1168046821431160196800680143C6
:10462000196030BD0079084401689143016030BDD4
:10463000000401401FB50121212003F0C1F902242B
:10464000ADF80C4048208DF80F0003A9104800F089
:1046500007FD0121032000F0EFFC00208DF804008D
:104660000C2000948DF8050001248DF80640684662
:10467000FFF7A8FF07208DF808008DF809408DF896
:104680000A408DF80B4002A802F094FC1FBD000008
:10469000001401400149C86070470000002002403A
:1046A00070B5054640F6FF76304600F055F8042810
:1046B00013D10A4C206940F0020020616561206935
:1046C00040F040002061304600F046F8012804D058
:1046D000216941F6FD721140216170BD0020024048
:1046E00008490420CA68D20701D001207047CA686F
:1046F000520701D502207047C968C906FBD50320BF
:10470000704700000020024070B506460D460F209D
:1047100000F022F804280FD1084C206940F0010075
:10472000206135800F2000F017F8012804D021699E
:1047300041F6FE721140216170BD00000020024070
:1047400003480249416003494160704723016745BE
:1047500000200240AB89EFCD00B50346FFF7C0FF54
:1047600005E0FF20401EFDD1FFF7BAFF5B1E0128C8
:1047700002D1002BF5D101E0002B00D1052000BDB6
:1047800030B50A2515240A2A34D2DFE802F0292D93
:1047900005080B10151A1F2473257E2424E0DC2540
:1047A000E72421E040F245154FF4A8741CE04FF4D3
:1047B000D77540F2B91417E040F2172540F22224D1
:1047C00012E04FF4207540F28B240DE040F2E92511
:1047D0004FF43D7408E040F2523540F25D3403E09E
:1047E00040F2BB3540F2C63400B1056001B10C6047
:1047F000012030BD002030BD40F22442012909D003
:10480000022902D0032905D102E040F2294201E049
:1048100040F22E42002800D00260704770B5074C6D
:10482000054604202070FFF78BFF3520FFF732FF8D
:104830002846FFF735FF207070BD0000F30100200F
:1048400030B500220D4D86B00C481346153569462B
:1048500010F8014B8C542344521CDBB2A842F7D30E
:104860000078984208D1064B064C00200A5C1A5486
:104870002254401C1528F9DB06B030BD00FC0108AD
:104880008C010020A10100202DE9F041164E0024EA
:1048900086B0254613493046FFF7C0FF13496846E6
:1048A0000A5D02552A44641CD5B2152CF8DB8DF83C
:1048B00015500D4F3446002516370D4E80460AE040
:1048C00008EB050001882046FFF71EFF3070A41C8E
:1048D000AD1CBC4202D230780428F1D006B0BDE84D
:1048E000F08100000000020800FC01088C0100209B
:1048F000F301002010B5174B044616481A78597872
:10490000C0789B78012C0FD0022C18D0032C0AD130
:10491000104CA41E227061700F490B700321FBF72D
:104920005BFE0E49087010BD0A4CA41F2270617016
:104930000B490B700121FBF74FFE0A49F2E7054CCA
:10494000241F2270617008490B700221FBF744FE9E
:104950000649E7E70F0000201002002013020020A4
:104960000E020020110200200F020020120200207F
:104970002DE9F041274D07460720287007F018FB66
:1049800001F0A4FE244C2078022802D0012802D095
:1049900005E0224900E02249802007F0E7FA902054
:1049A00007F0B8FF1FA007F053FF1F4E3078002814
:1049B000207804D0022819D0012819D01CE0022840
:1049C00002D0012802D005E0184900E018499120E2
:1049D00007F0CCFA3946052006F0D0F93946062012
:1049E00006F0CCF901203070092010E0114900E0F8
:1049F0001149912007F0BAFA3946052005F022FB4B
:104A00003946062005F01EFB002030700820287073
:104A1000BDE8F08141020020090200203ACE0008E2
:104A20002DCE00082A000000320200204ACE0008E5
:104A300045CE000858CE000853CE00082DE9F041BD
:104A4000274D07460720287007F0B2FA01F03EFE16
:104A5000244C2078022802D0012802D005E0224907
:104A600000E02249802007F081FA902007F052FFF1
:104A70001FA007F0EDFE1F4E30780028207804D0EC
:104A8000022819D0012819D01CE0022802D00128E0
:104A900002D005E0184900E01849912007F066FAB5
:104AA0003946052006F06AF93946062006F066F90F
:104AB00001203070092010E0114900E011499120D7
:104AC00007F054FA3946052005F0BCFA39460620AD
:104AD00005F0B8FA0020307008202870BDE8F08199
:104AE00041020020090200203ACE00082DCE000825
:104AF0002A000000320200204ACE000845CE0008FD
:104B000058CE000853CE00082DE9F041364E074636
:104B100007200D46307007F04BFA34483449354CC5
:104B200000880988884220D13348344900880988A0
:104B300088421AD12078022811D03149822007F00A
:104B400015FA30A1912007F011FA0A2002F044F87A
:104B50000A2007F09BFABDE8F04103F047BB2D495E
:104B6000822007F003FA2C49ECE72078022802D0D3
:104B7000012802D005E0294900E02949802007F0FA
:104B8000F5F9902007F0C6FE26A007F061FE287810
:104B90000028207804D0022814D0012814D017E06F
:104BA000022802D0012802D005E01F4900E01F4979
:104BB000912007F0DBF9384605F0CEFE0120287081
:104BC00009200BE01A4900E01A49912007F0CEF9BC
:104BD000384605F0B5FE0020287008203070BDE88A
:104BE000F04107F029B900004102002052020020E4
:104BF0004602002009020020540200204802002042
:104C0000EECE0008506C65617365205365742053C7
:104C1000697A6500E3CE000851D200083ACE000858
:104C20002DCE00082A0000004ACE000845CE00081C
:104C300058CE000853CE00082DE9F041274D074615
:104C40000720287007F0B4F901F040FD244C2078CB
:104C5000022802D0012802D005E0224900E02249C2
:104C6000802007F083F9902007F054FE1FA007F082
:104C7000EFFD1F4E30780028207804D0022819D08C
:104C8000012819D01CE0022802D0012802D005E03A
:104C9000184900E01849912007F068F939460520C5
:104CA00006F06CF83946062006F068F801203070EE
:104CB000092010E0114900E01149912007F056F950
:104CC0003946052005F0BEF93946062005F0BAF947
:104CD0000020307008202870BDE8F08141020020DB
:104CE000090200203ACE00082DCE00082A0000005C
:104CF000320200204ACE000845CE000858CE0008F7
:104D000053CE00082DE9F041364E0546072030709D
:104D100007F04EF901F0DAFC334C2078022802D07B
:104D2000012802D005E0314900E03149802007F038
:104D30001DF9902007F0EEFD2EA007F089FD2E4F03
:104D400038780028207804D0022833D0012833D0C6
:104D500036E0022802D0012802D005E0274900E011
:104D60002749912007F002F9012D02D0022D0DD024
:104D70001CE024480123028823480188052006F00E
:104D8000F9F922480123028821480BE02148022337
:104D9000028821480188052006F0ECF91F4802230B
:104DA00002881F480188062006F0E4F901203870C7
:104DB000092014E01B4900E01B49912007F0D6F8B8
:104DC00000222B461146052006F0D4F900222B467E
:104DD0001146062006F0CEF9002038700820307009
:104DE000BDE8F08141020020090200203ACE00080F
:104DF0002DCE00082A000000320200204ACE000812
:104E000045CE0008640200206202002068020020F3
:104E1000660200206C0200206A020020700200205E
:104E20006E02002058CE000853CE00082DE9F84F3E
:104E30000121084602F0C4FD01214FF4C02002F018
:104E4000B3FD012144F27C0002F0BAFD0121744857
:104E500000F056F9C020ADF8000010258DF8035081
:104E600003248DF8024069466E4800F0F9F80126E7
:104E7000ADF80060DFF8B0B18DF803508DF8024056
:104E80006946584600F0ECF84FF40079ADF8009010
:104E90008DF803508DF802406946624800F0E0F852
:104EA0000220ADF8000048278DF803706946584687
:104EB00000F0D6F84FF00408ADF800808DF80350EC
:104EC0008DF802406946584600F0CAF84FF0080ACB
:104ED000ADF800A08DF803508DF8024069465846A1
:104EE00000F0BEF848F21000ADF800008DF8035055
:104EF0008DF802406946584600F0B2F86802ADF8F5
:104F000000008DF803508DF802406946454800F0D6
:104F1000A7F8E802ADF800008DF803508DF80240C4
:104F20006946404800F09CF8A802ADF800008DF8F2
:104F300003508DF8024069463A4800F091F8ADF808
:104F40000090DFF8E8B08DF803508DF80240694614
:104F5000584600F085F8DFF8D890ADF800A08DF83D
:104F600003706946484600F07BF8ADF800608DF8A4
:104F700003706946484600F073F8EF01ADF8007021
:104F80008DF803508DF802406946584600F068F8E5
:104F90003946584600F0E9F84FF48069ADF80090C2
:104FA0008DF803508DF802406946584600F058F8D5
:104FB0002802ADF8000014208DF803008DF802607F
:104FC0006946584600F04CF84FF40170ADF8000007
:104FD000184E8DF8024018258DF80350694630466A
:104FE00000F03EF84FF48160ADF800008DF80380CA
:104FF0006946304600F034F8ADF800908DF8024074
:105000008DF803506946074800F02AF8ADF80070A3
:105010008DF803806946034800F022F8BDE8F88F58
:1050200000023000000C0140001801400010014057
:10503000001401400008014010B58A0721F0030464
:105040000649130F21440F228C689A4094438C60C8
:105050008A68984002438A6010BD00000000014049
:10506000F0B5CA78002502F00F03D20601D58A7880
:1050700013430C784FF00F0E0122ECB1D0F8004032
:105080000F8802FA05F63740B74211D14FEA850C76
:105090000EFA0CF724EA070703FA0CF43C43CF7826
:1050A000282F02D0482F02D002E0466100E00661BE
:1050B0006D1C082DE4D304600C88FF2C1ED94468B5
:1050C0005FF0000606F1080702FA07F50F882F4087
:1050D000AF420FD14FEA860C0EFA0CF7BC4303FA2D
:1050E0000CF73C43CF78282F00D14561CF78482F6B
:1050F00000D10561761C082EE4D34460F0BD0000A9
:10510000F0B5144C002801DAE36900E06368420D51
:10511000120185B2C0F301579540C0F30346032F37
:1051200005D0C2020AD50322B240934307E023F020
:105130007062636823F07063636002E0AB4343F026
:10514000706201B12A43002801DAE261F0BD6260B9
:10515000F0BD0000000001400246002092680A42B3
:1051600000D0012070474161704701617047000025
:10517000044948200978012902D0022900D1492098
:10518000704700003402002004490E2009780129EC
:1051900002D0022900D10F20704700003302002006
:1051A000314802883148B2F5B46F0188304832D0B6
:1051B00013DC4FF480639A4220D006DCB2F5207FE6
:1051C00018D0B2F5487F40D116E0B2F5A06F17D0E5
:1051D000A2F5A063563B38D11BE0B2F5C86F1CD0D6
:1051E000B2F5D26F1BD0B2F5F06F1AD0B2F5006FE6
:1051F0002BD128E032231EE033231CE034231AE0B5
:10520000994201D1362316E0B1F5347F14D135230C
:1052100011E037230FE038230DE039230BE03A2368
:1052200009E0B1F5876F03D0B1F5966F02D003E0C6
:105230003B2300E03C230370B2F5206F07D0B2F5AA
:10524000706F09D00DE03D2303704023F3E7B1F503
:10525000707F06D13E2103E0B1F5167F01D13F21D9
:1052600001700078704700004602002048020020CC
:1052700041020020064944200978322905D03C2902
:1052800002D01E2900D14220704743207047000001
:105290000A02002001480078704700003502002013
:1052A000F8B585480024854F02788748844D854E9F
:1052B0000078222A6FD00EDC39461B2A096824D0D8
:1052C00004DC142A15D0162A23D118E01D2A2DD06B
:1052D000202A1ED13EE02B2A76D004DC272A74D067
:1052E000292A16D1D9E0462A70D09A2A11D17748B6
:1052F000DFE0012901D076489CE076489AE0012958
:1053000001D0754896E0754894E0012802D0022843
:1053100006D0CFE0012901D071488BE0714889E0C7
:10532000012901D0704885E0704883E0012904D04C
:1053300001280BD002280BD0BCE0012802D00228A3
:1053400002D0B7E06A4875E06A4873E06A4871E0E5
:105350006A486FE0684600F0EDFA386801289DF869
:10536000000004D0012826D0022836D0A2E001286F
:1053700002D0022810D09DE02878072805D0052803
:1053800005D0092805D05E4854E05E4852E05E48EA
:1053900050E05E484EE02FE03078072805D0052821
:1053A00005D0092805D05A4844E05A4842E05A48F6
:1053B00040E05A483EE02878072808D0052808D061
:1053C000092808D0564835E069E064E069E05548AE
:1053D00030E055482EE055482CE03078072805D0BD
:1053E000052805D0092805D0514823E0514821E07F
:1053F00051481FE051481DE0684600F09BFA3868AC
:1054000001289DF8000004D0012826D0022833D0BE
:1054100050E0012802D0022810D04BE0287807285D
:1054200005D0052805D0092806D0454802E04548A2
:1054300000E0454804883DE04448FBE73078072811
:1054400005D0052805D0092805D04148F2E7414894
:10545000F0E74148EEE74148ECE72878072805D017
:10546000052805D0092805D03D48E3E73D48E1E798
:105470003D48DFE73D48DDE73078072805D00528BF
:1054800005D0092805D03A48D4E73A48D2E73A4847
:10549000D0E73A48CEE73A480BE03A4809E03A48C4
:1054A00007E0012802D0022802D003E0374800E0DC
:1054B000374804782046F8BD41020020D802002079
:1054C0003A0200203B020020330200203C02002070
:1054D0004C0200204A020020500200204E02002010
:1054E00054020020520200205C0200205A020020D8
:1054F000560200205E0200205802002060020020B8
:10550000620200207202002082020020920200202B
:105510006A0200207A0200208A0200209A020020FB
:105520006402002074020020840200209402002003
:105530006C0200207C0200208C0200209C020020D3
:1055400066020020760200208602002096020020DB
:105550006E0200207E0200208E0200209E020020AB
:1055600068020020780200208802002098020020B3
:10557000700200208002002090020020A002002083
:105580003D0200203E0200203F02002036020020A3
:105590003702002006495F200978012905D0022939
:1055A00002D0032900D1602070475E2070470000C0
:1055B0002A020020034908200978012900D1092086
:1055C0007047000032020020FEB50E46002115464D
:1055D000204C07220091019102916271012806D0AE
:1055E0001D4A1278012A02D0022802D003E02520A9
:1055F00000E026202071194801601648FBF750FB97
:1056000041F2883006F0AAFB6846FBF72DFC68469D
:10561000FBF7F6FA00280ED06846FBF731FB0028AE
:1056200009D09DF804002179884203D19DF8050036
:10563000072801D00020FEBDBDF8060040BA06B123
:105640003080BDF8080040BA05B12880FBF7BCFBEC
:105650000120FEBD5101002039020020D0020020AF
:1056600008490A200978012906D0032905D0042910
:1056700005D0022900D10D2070470C2070470B2067
:1056800070470000390200201C49402009780F298A
:1056900020D2DFE801F01F1E1C1A1F18161412106A
:1056A0000E1F0C0A0800322014E0332012E03420D0
:1056B00010E035200EE036200CE037200AE03820DC
:1056C00008E0392006E03A2004E03B2002E03C20DC
:1056D00000E03D200A490A880A49B2F5206F09888E
:1056E00007D0B2F5706F03D1B1F5167F00D13F201E
:1056F0007047B1F5707FFBD13E207047400200201B
:1057000046020020480200200348007808B16A20C1
:10571000704769207047000011020020034800789C
:1057200008B17120704770207047000012020020FD
:105730000348007808B17820704777207047000050
:10574000130200202DE9F047784C794D04F1260131
:1057500094F84DC011F80F7CC87FCE8E8B8E4A8E88
:10576000098E4FF001094FF002084FF0070ABCF113
:10577000970F06D0BCF1980F47D0BCF1990F7DD19F
:1057800090E0012806D0032807D0042805D0042F74
:105790001ED021E0002102201CE024F85E1F05201D
:1057A0006280A380E68021816281A381E6815E3CE4
:1057B000012105F075F80121062005F071F802219C
:1057C000052005F06DF80221062005F069F803E0D8
:1057D0000021052004F07EFE287818B985F8009095
:1057E00084F847A094F84700401EC1B294F84600E0
:1057F000401EC0B2FBF7CCF918B994F8460084F803
:10580000470084F84580032044E0012806D003289F
:1058100007D0042805D0042F1ED021E0002102204B
:105820001CE024F85E1F05206280A380E6802181B1
:105830006281A381E6815E3C012105F031F80121FE
:10584000062005F02DF80221052005F029F8022197
:10585000062005F025F803E00021052004F03AFEBB
:10586000287818B985F8009084F847A094F8470084
:10587000401EC1B294F84600401E00E00BE0C0B2EA
:10588000FBF786F918B994F8460084F847004046BB
:1058900084F84580E075012002F024FE94F84D0064
:1058A000BDE8F087012804D0032807D0042805D0DC
:1058B0001EE00021022004F00DFE19E024F85E1F16
:1058C00005206280A380E68021816281A381E68138
:1058D0005E3C012104F0E4FF0121062004F0E0FF1A
:1058E0000221052004F0DCFF0221062004F0D8FF8D
:1058F00094F84810052004F0EDFD287818B985F8D3
:10590000009084F847A094F84700401EC1B294F874
:105910004600401EC0B2FBF73BF918B994F84600A8
:1059200084F8470084F845800420B3E7F4010020A0
:105930002C0100200A490978022906D0094A127868
:10594000012A0BD0012909D003E00749097802296F
:1059500004D00221002800D0017070470121F9E72E
:10596000390200203302002038020020024800687B
:105970000249086070470000E8F7FF1F841D0020FF
:10598000F0B58DB0044630221C496846FAF7ECFBAE
:1059900060696423411E91FBF3F2CD1701EB95750D
:1059A000C2EBA5029E0091FBF6F51544226987071C
:1059B0000DD190FBF3F703FB170323B990FBF6F32C
:1059C00006FB130018B9022A01DD012000E00020C7
:1059D0006B4603EB8202E36852F8042C1A4440F24F
:1059E0006D1301FB035111440844072190FBF1F2B0
:1059F00001FB1200A0610DB0F0BD0000E8C9000875
:105A0000FEE7000010B50C4C80212046FFF7ABFBF1
:105A1000012001F084FA40212046FFF7A6FB012077
:105A200001F07DFA40212046FFF79DFBBDE81040C4
:105A3000012001F074BA0000000C0140F8B54820C4
:105A40008DF803008020ADF800000320154E8DF87E
:105A50000200002569463046FFF702FB0024680675
:105A6000070E40213046FFF780FB012001F057FA76
:105A700080213046FFF770FB40EA070540213046A1
:105A8000FFF771FB012001F04AFA641CE4B2082C14
:105A9000E5D310208DF8030069463046FFF7E0FAA1
:105AA0002846F8BD000C0140F8B548208DF80300E9
:105AB00003208DF802008020134EADF80000002472
:105AC00069463046FFF7CCFA40213046FFF74DFBE0
:105AD00042F2107506E080213046FFF73DFB0128B9
