:020000040800F2
:10000000B023002045010008D7980008D97B0008DC
:100010006D98000819080008B902010800000000E6
:100020000000000000000000000000001DBB0008F0
:10003000054B00080000000031A6000801FA000886
:100040005F0100085F0100085F010008D9A80008EF
:100050005F0100085F0100085F010008CD62000831
:100060005F0100085F0100085F0100085F010008F0
:100070005F0100085F0100085F0100085F010008E0
:100080005F0100085F0100085F0100085F010008D0
:100090005F0100085F0100085F010008F1620008CD
:1000A0005F0100085F0100085F0100085F010008B0
:1000B0005F010008C1FA00085F0100085F01000845
:1000C0005F0100085F0100085F0100085F01000890
:1000D0005F010008ADFD0008F5FD000825FE0008E1
:1000E000196200085F0100085F0100085F01000855
:1000F0005F0100085F0100085F0100085F01000860
:100100005F0100085F0100085F0100085F0100084F
:100110005F0100085F0100085F0100085F0100083F
:100120005F0100085F0100085F0100085F0100082F
:10013000DFF80CD000F040F800480047E510010857
:10014000B02300200648804706480047FEE7FEE748
:10015000FEE7FEE7FEE7FEE7FEE7FEE7FEE7FEE777
:1001600005FA00083101000840EA01039B0703D0AB
:1001700009E008C9121F08C0042AFAD203E011F8E6
:10018000013B00F8013B521EF9D2704730B50B46D7
:10019000014600202022012409E021FA02F59D42B7
:1001A00005D303FA02F5491B04FA02F52844151E8B
:1001B000A2F10102F1DC30BD064C074D06E0E0681B
:1001C00040F0010394E8070098471034AC42F6D39E
:1001D000FFF7B2FF882B0108A82B010870B58C1817
:1001E00010F8015B15F0070301D110F8013B2A114B
:1001F00006D110F8012B03E010F8016B01F8016B38
:100200005B1EF9D12B0705D40023521E0DD401F833
:10021000013BFAE710F8013BCB1A921C03E013F8FC
:10022000015B01F8015B521EF9D5A142D8D3002031
:1002300070BD000010B50D480078022808D10C49A7
:10024000802010F0A7FB0B49902010F0A3FB0BE0DF
:1002500006480078012807D10749802010F09AFB52
:100260000649902010F096FB10BD000035020020DA
:100270003B18010882190108431801087219010886
:1002800010B510F0AFFB0D480078022808D10C49DA
:10029000822010F07FFB0B49902010F07BFB0BE0DD
:1002A00006480078012807D10749822010F072FB28
:1002B0000649902010F06EFB10BD000035020020B2
:1002C000C1170108DF170108CF170108F41701084B
:1002D00010B5E4200FF03EFD0120044908700846E7
:1002E000017840F27A4010F039F910BDDE010020AB
:1002F00010B501200AF0F8F900200AF0F5F910BD58
:1003000001460020044A10884FF67F4210400843FF
:10031000014A1080704700002C6C004008B501466F
:100320000020009003480090009808440090009836
:10033000008808BD006C004001490860704700005B
:1003400000860D4208B500220092044A0092009AED
:1003500002440092009A116008BD0000006C004049
:1003600010B52B480078602818D12A480078401E24
:100370002849087000202849264A127888542549BF
:1003800009789031C8B225A110F004FB2149097801
:100390009131C8B222A110F0FDFA38E01C48007873
:1003A000672818D11F480078401E1E490870002099
:1003B0001D491C4A127888541A4909789031C8B2EC
:1003C00016A110F0E7FA174909789131C8B214A1C3
:1003D00010F0E0FA1BE00E4800786E2817D11348A1
:1003E0000078401E11490870002011490F4A127808
:1003F00088540E4909789031C8B208A110F0CAFAA1
:100400000A4909789131C8B205A110F0C3FA10BDAC
:10041000F6020020130000200C0000205F00000006
:10042000200000001D0000201600002027000020F2
:100430002000002010B5BF48007885283DD1BEA11E
:10044000862010F0A7FABD480078D8B98420B949B1
:100450000870BB480078002804DDB9480078401EC9
:10046000B74908700020B7490870B7A1832010F081
:1004700091FA0020B649B24A12788854832010F0CD
:1004800089FA16E0AD480078012812D1AB4800780F
:10049000002804DDA9480078401EA8490870002003
:1004A000AC490870AC49A54A12788854862010F0EF
:1004B00071FAAAA010F0ECFE3BE19E480078862875
:1004C00039D19DA1882010F065FAA5480078D8B9E7
:1004D00085209849087099480078002804DD9748DD
:1004E0000078401E9549087000209A49087092A132
:1004F000862010F04FFA00209749904A12788854CD
:10050000862010F047FA12E09548007801280ED1B5
:1005100093480078401E9249087000209149087065
:1005200091498F4A12788854882010F033FA8BA0B2
:1005300010F0AEFEFDE07F480078872878D17EA1DC
:10054000922010F027FA89480078002856D1884870
:10055000007803281ED186207649087080480078EC
:10056000002804DD7E480078401E7D490870002088
:100570007C49087070A1882010F00CFA00207A499C
:10058000774A12788854882010F004FA73A010F08B
:100590007FFECEE07648007801282AD175480078A1
:1005A000012806D15D206349087000207249087057
:1005B00014E070480078022806D164205D49087074
:1005C00000206E49087009E06A480078032805D1C8
:1005D0006B205849087000206949087069A184207F
:1005E00010F0D8F9842010F0D7FE5CA010F050FE77
:1005F0009FE068A1922010F0CDF99AE05B48007866
:10060000012897D159480078401E584908700020A9
:100610006149087000216148544A127881540146AA
:10062000922010F0B7F94DA010F032FE81E0FFE704
:100630004048007888283FD13FA1942010F0AAF9C3
:1006400057480078D8B987203A4908704748007859
:10065000002804DD45480078401E44490870002009
:100660004D49087034A1922010F094F900204B49B4
:100670003E4A12788854922010F08CF918E04848CD
:100680000078002814DD46480078002804DD44483E
:100690000078401E4249087000204249087000213D
:1006A00041483F4A127881540146942010F072F973
:1006B0002AA010F0EDFD3CE01E480078892838D1D2
:1006C0001DA1962010F066F938480078D8B9882026
:1006D0001849087032480078002804DD3048007856
:1006E000401E2F49087000202E49087012A1942046
:1006F00010F050F900202C49294A1278885494208F
:1007000010F048F912E02948007801280ED1274856
:100710000078401E254908700020254908702549A9
:10072000224A12788854962010F034F90BA010F069
:10073000AFFD10BDF6020020202000002B0100209C
:10074000270100202601002020202020000000009A
:100750000C1E00202C010020280100205F0000005A
:1007600030010020310100202D0100203501002042
:1007700024010020820200203702002038020020DD
:10078000390200202020202020202020202020208E
:10079000000000005F200000360100203201002030
:1007A0003A0100203B010020370100203F010020DA
:1007B000400100203C01002070B506460C46002593
:1007C00011480078002804DD0F480078401E0E49CB
:1007D000087000200D490870304610F0DDFD00253E
:1007E00003E0202010F004F96D1CA542F9DB002085
:1007F0000749054A12788854304610F0CBF805A016
:1008000010F046FD70BD00002701002026010020E9
:100810000C1E00205F00000000BFFEE730B502465E
:100820000B46002102F0010008B9002030BD012B69
:1008300004D0022B4AD0032B47D18FE002F00200F4
:10084000022805D1012508464C1CE1B2694C25540B
:1008500002F00400042805D1022508464C1CE1B230
:10086000644C255402F0010028B1032508464C1CB5
:10087000E1B2604C255402F01000102805D1042587
:1008800008464C1CE1B25B4C255402F020002028A5
:1008900005D1052508464C1CE1B2564C255402F002
:1008A0004000402805D1062508464C1CE1B2514CB9
:1008B000255402F08000802805D1072508464C1CED
:1008C000E1B24C4C25544C4801708FE002F002001C
:1008D000022805D1012508464C1CE1B2474C25549D
:1008E00002F00400042805D1022508464C1CE1B2A0
:1008F000424C255402F0010028B1032508464C1C47
:10090000E1B23E4C255402F01000102805D1042518
:1009100008464C1CE1B2394C255402F02000202836
:1009200005D1052508464C1CE1B2344C255402F093
:100930004000402805D1062508464C1CE1B22F4C4A
:10094000255402F08000802805D1072508464C1C5C
:10095000E1B22A4C25542A48017047E002F0020017
:10096000022805D1012508464C1CE1B2254C25542E
:1009700002F00400042805D1022508464C1CE1B20F
:10098000204C255402F0010028B1032508464C1CD8
:10099000E1B21C4C255402F01000102805D10425AA
:1009A00008464C1CE1B2174C255402F020002028C8
:1009B00005D1052508464C1CE1B2124C255402F025
:1009C0004000402805D1062508464C1CE1B20D4CDC
:1009D000255402F08000802805D1072508464C1CCC
:1009E000E1B2084C25540848017000BF00BF012047
:1009F0001CE700000C00002013000020160000205F
:100A00001D000020200000202700002010B500203D
:100A100004490870FF200449087048700BF0B0F9D1
:100A200010BD0000370200200A00002010B5002091
:100A300004490870FF200449087048700BF0C0F9A1
:100A400010BD0000380200201400002010B5002066
:100A500004490870FF200449087048700BF0D0F971
:100A600010BD0000390200201E0000207CB50446A5
:100A70000D4616462AA103C9CDE900012A4800788F
:100A800068280DD004DC52281ED0612830D104E043
:100A90006F2808D072282BD108E0FFF7B7FF27E0B6
:100AA000FFF7C4FF24E0FFF7D1FF21E000201F493A
:100AB00008701F49087010F0BDF81D48017840F219
:100AC000F2300FF04BFD13E0002010F03FFA194810
:100AD000017840F217400FF041FD1748017840F2CD
:100AE00019400FF03BFD40F21B400FF043FD00BFEB
:100AF00000BF12A190200FF04DFF1148007802288E
:100B000004D1694686200FF045FF07E00C480078C5
:100B1000012803D10BA186200FF03CFF01207CBDF2
:100B2000D2D1C8A1CFFB0000F60200204102002074
:100B30003E02002058020020600200202A0000002F
:100B40003502002043616E63656C207375636365D5
:100B50007373000010B508200E4908700FF042FFB3
:100B60000D480078022808D10C4982200FF012FFAE
:100B70000B4990200FF00EFF0BE00748007801288A
:100B800007D1084982200FF005FF074990200FF098
:100B900001FF10BDF6020020350200204C1B0108A9
:100BA000311B0108571B0108411B010810B52648DD
:100BB00000782649097888420ED123484078234995
:100BC0000978884208D0204840780F2804DA1E4966
:100BD00048780DF007FF36E01B4840781B4909783C
:100BE00088420ED11848007818490978884208D000
:100BF000154800780F2804DA134908780DF0F2FE42
:100C000021E00820124908700FF0ECFE114800782E
:100C1000022808D1104982200FF0BCFE0F49902015
:100C20000FF0B8FE07E00E4982200FF0B3FE0DA1D1
:100C300092200FF0AFFE0F2008F0A8FA0A200FF064
:100C400081FF0AF023FB10BDD20300208D0200209B
:100C5000F6020020350200204C1B01080122010889
:100C6000571B01084E6F20537769746368000000BA
:100C700070B504460D460026CA480078012802D106
:100C8000C948067810E0C7480078022803D0C54854
:100C90000078032808D1C5480078012802D1C2484D
:100CA000067801E0C2480678C2480078B0422BD1ED
:100CB000C1480078A04222D1C0480078A842FAD1A9
:100CC000BF480078E0B1BE48007800F07BFEBA482B
:100CD0000078BC4909780844182190FBF1F201FB27
:100CE0001200B5490870B5480078B749097808443A
:100CF0003C2190FBF1F201FB1200B04908704FE17A
:100D00000020B24908704BE1AD480078B04244D1B0
:100D1000A9480078A042F2D1A8480078A842EED1B4
:100D2000AB480078E0B1AA48007800F04BFEA2483A
:100D30000078A84909780844182190FBF1F201FBDA
:100D400012009D4908709D480078A349097808441D
:100D50003C2190FBF1F201FB1200984908701FE161
:100D60009448007800F02EFE934800789B4909785B
:100D70000844182190FBF1F201FB12008E49087023
:100D80008E4800789649097808443C2190FBF1F29E
:100D900001FB12008949087002E18D480078B042D9
:100DA00044D185480078A042A9D184480078A8425F
:100DB000A5D18C480078E0B18A48007800F002FEA6
:100DC0007D480078884909780844182190FBF1F2A1
:100DD00001FB120078490870784800788349097847
:100DE00008443C2190FBF1F201FB120073490870AA
:100DF000D6E07048007800F0E5FD6F48007877494C
:100E000009780844182190FBF1F201FB12006A49AD
:100E100008706A4800787249097808443C2190FBC0
:100E2000F1F201FB120065490870B9E06D480078E5
:100E3000B04244D160480078A04290D15F48007829
:100E4000A8428CD16A480078E0B16948007800F087
:100E5000B9FD59480078674909780844182190FB82
:100E6000F1F201FB120054490870544800786249BD
:100E7000097808443C2190FBF1F201FB12004F4934
:100E800008708DE04B48007800F09CFD4A480078DF
:100E9000524909780844182190FBF1F201FB120035
:100EA00045490870454800784D49097808443C2177
:100EB00090FBF1F201FB12004049087070E04C48D1
:100EC0000078B04244D13C480078A04268D13B4809
:100ED0000078A84264D149480078E0B147480078DA
:100EE00000F070FD3448007845490978084418211D
:100EF00090FBF1F201FB12002F4908702F48007897
:100F00004049097808443C2190FBF1F201FB1200B2
:100F10002A49087044E02748007800F053FD26482D
:100F200000782E4909780844182190FBF1F201FB62
:100F3000120021490870214800782949097808449D
:100F40003C2190FBF1F201FB12001C49087027E0E4
:100F50002A480078B04223D117480078A0421FD118
:100F600016480078A8421BD11248007800F02AFDEC
:100F700011480078194909780844182190FBF1F2CA
:100F800001FB12000C4908700C48007814490978DC
:100F900008443C2190FBF1F201FB12000749087064
:100FA00070BD00008C0200208D020020890200200C
:100FB0008F020020420200203F0200204002002059
:100FC00043020020490200204F0200203E02002080
:100FD000440200204A020020500200204802002063
:100FE0004E020020450200204B020020510200204A
:100FF000460200204C02002052020020470200203E
:101000004D0200205302002010B50E4B1B88834276
:1010100013DB0C4B1B88834203D10A4B5B888B424A
:101020000BDB084B1B8883420AD1064B5B888B4243
:1010300006D1044B9B88934202DC0123024C2360BF
:1010400010BD0000C8010020F00100200246C2EBE4
:10105000C200024B03EB4000405C70470E030020CF
:101060001FB511A103C9CDE9020100200090019034
:10107000062202A906F06EFF05200FF063FD06228E
:101080006946002006F02EFF002409E002A8005D5A
:101090001DF80410884202D0002004B010BD641C6A
:1010A000062CF3DB0120F8E701020304050600002B
:1010B00010B50C48007808B9002010BD0948017827
:1010C00009480FF0BDFB044606F09EFF0748006884
:1010D000844202D00648844201D10120EDE700207D
:1010E000EBE70000270100200C1E00201C0200205E
:1010F0001B2F08002DE9F84F6748007810B9002031
:10110000BDE8F88F6548006842F21071B0FBF1F25B
:1011100001FB12046048017861480FF091FB07461B
:1011200006F072FF200140EAA4201FFA80F85D4813
:10113000007820445B49097908445A49097A0844EF
:101140005849097B08448002564909682144554A98
:1011500052681144534A92681144524AD268114469
:1011600040EA21101FFA80F9600140EA64201FFA6A
:1011700080FB600240EA641080B200904A48B7FBEE
:10118000F0F042F21071B0FBF1F201FB120A464896
:10119000B7FBF0F100FB117609F082FB43490968C7
:1011A000884225D24248007810B3424800688642FF
:1011B0001ED1414800780DF015FC00203F49087011
:1011C00005223F4940F289400FF008FF3C48007873
:1011D00000063B49497800EB01403949897800EB2A
:1011E00001203749C978084430490860012087E761
:1011F00088EA0900C0F30D00B84235D12C480078C8
:10120000002831D009F04CFB2E490978C1EB0111BF
:101210008900C1EB011100EB8105280E28490870F7
:10122000280C4870280A8870CD70052240F2894049
:101230000FF01AFF300E24490870300C4870300A45
:101240008870CE70052240F2A2400FF00DFF1948C1
:10125000066016480560184800780DF0C3FB0020B2
:101260001649087001204BE7A82F12D109F018FB8E
:1012700016490978C1EB011100EB81050B480560A7
:101280000D4800780DF0AEFB00200C4908700120DD
:1012900036E7002034E7000027010020F401002099
:1012A0000C1E0020181E0020A08601000C02002049
:1012B00004020020180200208E0200200B020020F1
:1012C0000602002005020020140200200302002074
:1012D0002DE9F0412548007810B90020BDE8F081E3
:1012E0002348006842F21071B0FBF1F201FB1204D6
:1012F0001E4801781F480FF0A3FA054606F084FE49
:101300001D48854201D10120E8E7200140EAA420E0
:1013100086B21A48007D20441849097C08441749C0
:10132000097B08448102154840692044134A126928
:101330001044124AD268104441EA201087B2A00239
:1013400040EA24101FFA80F886EA0700C0F30D0077
:10135000A84201D10120C1E786EA0800C0F30D00D0
:10136000A84201D10120B9E70020B7E727010020FA
:10137000F40100200C1E0020A9663203381E002054
:101380002DE9F0412248007810B90020BDE8F08135
:101390002048006842F21071B0FBF1F201FB120428
:1013A0001B4801781C480FF04BFA054606F02CFE4E
:1013B000200140EAA42087B2A00240EA241086B2AD
:1013C00087EA0600C0F30D00A84202D01348854208
:1013D00008D11348134908604FF486600FF03EF9B6
:1013E0000120D3E70F4800680D49884203D00D481B
:1013F0000068854207D00B4800680949884204D13B
:101400000948007808B90120C0E70020BEE70000C5
:1014100027010020F40100200C1E0020A9663203E1
:1014200008E40400F8010020DD0100202DE9F04F60
:101430008DB0044689469246302240496846FEF700
:1014400093FE651E3E480088461E642195FBF1F11F
:101450002846EA1705EB9272C1EBA2014FF4C8725D
:1014600095FBF2F201EB020B642196FBF1F13046A1
:10147000F21706EB9272C1EBA2014FF4C87296FB11
:10148000F2F211440C91E11704EB91718910A4EB75
:10149000810189B9642194FBF1F201FB124131B958
:1014A0004FF4C87194FBF1F201FB124121B9B9F17B
:1014B000020F01DD012700E0002740F26D1005FB5F
:1014C00000B1A9F101005DF8200008445044074430
:1014D0001B490888C11700EB91718910A0EB8101AD
:1014E000B1B917490988642291FBF2F302FB131189
:1014F00039B913490988920091FBF2F302FB1311E9
:1015000031B90F494988022902DD4FF0010801E095
:101510004FF0000840F26D1070430C9901440848E8
:101520004088401E5DF82000084405498988084429
:101530008044A8EB07000DB0BDE8F08FA0140108AF
:10154000C801002008480078452807D0462804D064
:10155000552805D0732805D101E000BF00BF00BFAA
:10156000012070470020FCE7F602002010B541F68C
:10157000553140F2AB4006F019FC002006490880C6
:101580000846018840F27C400FF058F840F2AB402A
:101590000249088010BD0000E0010020E2010020A7
:1015A00010B54FF40051062006F000FC10BD0000FD
:1015B00010B50821284805F095FE38B101212648CC
:1015C00005F090FE10B101202449087023480078EE
:1015D000002833D00821204805F084FE70BB01218B
:1015E0001D4805F07FFE48BB1D48007888B10020EB
:1015F0001A4908701B48007818B9FF20194908706B
:1016000007E018480078401E164908700020164967
:1016100008701648007888B10020104908701148F9
:101620000078401C0F49087001200F4908700D48D0
:101630000078FF2802D100200A49087008210648D6
:1016400005F050FE094908700121034805F04AFEE3
:101650000349087010BD000000140140BE1D0020A9
:10166000BD1D0020D5030020D4030020BC1D002098
:1016700070B50546CD2D71D017DC062D7FD005DC69
:101680006ED2DFE805F039434D57616F0C2D68D0FD
:1016900006DC082D7FD0092D6FD00B2D60D191E095
:1016A000CB2D6BD0CC2DF9D1AAE042F21121681AD2
:1016B0008D426ED019DC41F6A331A5EB01008D42BD
:1016C00068D00BDCCE2D70D0A5F22D1000286DD087
:1016D000A0F5905031380028E0D1B9E0012870D051
:1016E000A0F279500028D9D1D0E00628C8D2DFE88E
:1016F00000F037E1EBF8EEED002404E08A48005DED
:101700008A490855641C152CF8DB09E1002404E023
:101710008748005D85490855641C152CF8DBFFE0FF
:10172000002404E08348005D80490855641C152CA2
:10173000F8DBF5E0002404E07F48005D7B490855B4
:10174000641C152CF8DBEBE0002404E07B48005D12
:1017500076490855641C152CF8DBE1E05AE00EE0F0
:10176000DDE039E0002404E07548005D6F4908556C
:10177000641C152CF8DBD3E00DE018E036E0002403
:1017800004E07048005D69490855641C152CF8DBBD
:10179000C6E085E066E0002404E06B48005D634934
:1017A0000855641C152CF8DBBAE03DE046E0002447
:1017B00004E06648005D5D490855641C152CF8DBA3
:1017C000AEE059E0002404E06148005D5749085547
:1017D000641C152CF8DBA3E0002404E05D48005DE8
:1017E00052490855641C152CF8DB99E0002404E0EC
:1017F0005948005D4D490855641C152CF8DB8FE0F5
:10180000002404E05548005D48490855641C152C27
:10181000F8DB85E0002404E05148005D43490855A9
:10182000641C152CF8DB7BE0002404E04D48005DCF
:101830003E490855641C152CF8DB71E0002404E0D7
:101840004948005D39490855641C152CF8DB67E0F0
:10185000002404E04548005D34490855641C152CFB
:10186000F8DB5DE0002404E04148005D2F490855A5
:10187000641C152CF8DB53E0002404E03D48005DB7
:101880002A490855641C152CF8DB49E0002404E0C3
:101890003948005D25490855641C152CF8DB3FE0EC
:1018A000002404E03548005D20490855641C152CCF
:1018B000F8DB35E0002404E03148005D1B490855A1
:1018C000641C152CF8DB2BE0002407E01DE012E07F
:1018D00007E02C48005D15490855641C152CF8DB01
:1018E0001EE0002404E02848005D10490855641CEF
:1018F000152CF8DB14E0002404E02448005D0B49BB
:101900000855641C152CF8DB0AE0002404E020488C
:10191000005D06490855641C152CF8DB00E000BF8B
:1019200000BF04F005FF70BDA82601086801002073
:10193000BD260108D2260108E7260108FC26010879
:1019400011270108262701083B2701085027010815
:10195000652701087A2701088F270108A4270108B5
:10196000B9270108CE270108E3270108F827010855
:101970000D28010822280108372801084C280108F1
:1019800061280108762801088B280108A028010891
:10199000B528010870B506460D463078302801D1CB
:1019A000012D0CD0002403E0305D05490855641C6E
:1019B000AC42F9DB00200249485504F037FF70BD06
:1019C0009201002010B5044608200E49087001223B
:1019D0000D48017820460EF007F890200EF0EEFF3B
:1019E0000A480078022804D1094992200EF0D2FF5B
:1019F00007E006480078012803D1064992200EF03E
:101A0000C9FF10BDF6020020890200203502002027
:101A1000EF1C0108FA1C010870B506F0F5FADE4863
:101A20000078012822D10820DC4908700EF0DAFF86
:101A3000DB480078022808D1DA4982200EF0AAFF9C
:101A4000D94991200EF0A6FF07E0D84982200EF078
:101A5000A1FFD7A191200EF09DFF002007F096FB7B
:101A60000A200FF06FF809F011FC93E10024002523
:101A7000D2480078012803D10220D049087006E03E
:101A8000CE480078022802D10120CC4908700DF020
:101A9000BDFE00B170BDC14800781F280DD006DC26
:101AA000092812D00A280FD01D284AD104E0222884
:101AB00041D03E2845D10BE000BFC14AC149BF48D3
:101AC000007805F0EBFE00BF00BF06F0DBFF5FE132
:101AD000B249097801EB8101BB4A02EBC101486AB6
:101AE000804705468DB9AE480078022804D1B74931
:101AF00091200EF04FFF1BE0A9480078012817D174
:101B0000B34991200EF046FF12E0012D10D1A448F8
:101B10000078022804D1AF4991200EF03BFF07E086
:101B20009F480078012803D1AB4991200EF032FF85
:101B300006F0A8FF2CE106F0A5FF912003F018FEA7
:101B400026E10820954908700EF04CFF9248007875
:101B5000012815D192480078022804D19F4980209D
:101B60000EF018FF07E08E480078012803D19C4949
:101B700080200EF00FFF9BA1832003F0B7FF07E04A
:101B8000994980200EF006FF98A1812003F0AEFF56
:101B90008A480078012816D1964804788048007851
:101BA000022804D1944997200EF0F4FE07E07C4807
:101BB0000078012803D1914997200EF0EBFE0E200A
:101BC0007649087019E07D480078022815D18C48C4
:101BD000047873480078022804D18A4997200EF0CF
:101BE000D9FE07E06E480078012803D18649972086
:101BF0000EF0D0FE0F20694908700D2C19D2DFE8D5
:101C000004F0C507192B4F8A6173A13DB39C850071
:101C100063480078022804D17C4990200EF0BAFE77
:101C200007E05F480078012803D1794990200EF041
:101C3000B1FEABE05A480078022804D175499020E3
:101C40000EF0A8FE07E056480078012803D172493B
:101C500090200EF09FFE99E051480078022804D1B0
:101C60006E4990200EF096FE07E04D48007801285E
:101C700003D16B4990200EF08DFE87E04848007834
:101C8000022804D1674990200EF084FE07E0444802
:101C90000078012803D1644990200EF07BFE75E0A6
:101CA0003F480078022804D1604990200EF072FE6F
:101CB00007E03B480078012803D15D4990200EF0F1
:101CC00069FE63E036480078022804D15949902023
:101CD0000EF060FE07E032480078012803D1564933
:101CE00090200EF057FE51E02D480078022804D1D4
:101CF000524990200EF04EFE07E029480078012856
:101D000003D14F4990200EF045FE3FE04DA19020B9
:101D10000EF040FE3AE022480078022804D14B49F8
:101D200090200EF037FE07E01D480078012803D10F
:101D3000474990200EF02EFE28E046A190200EF09C
:101D400029FE23E016480078022804D14349902058
:101D50000EF020FE07E012480078012803D1404928
:101D600090200EF017FE11E00D480078022804D1F3
:101D70003C4990200EF00EFE07E00948007801284B
:101D800003D1394990200EF005FE00BF00BF00BF0F
:101D900000BF00BF00BF7DE68C020020F6020020DD
:101DA000350200204C1B010816220108571B0108B0
:101DB0005573656420446F75626C6500890200206C
:101DC0009E0200209C020020D8030020E71F01088B
:101DD000EC1F0108F31F0108F81F01083B18010858
:101DE000431801082000000042150108202B202084
:101DF000000000008D0200205F1B0108651B010828
:101E00008F0200206A1B0108701B01086518010879
:101E10006B1801087B1801086F1801088118010868
:101E20007318010887180108771801088D18010830
:101E300094180108AB180108B9180108BF18010867
:101E4000C718010856474132000000009B180108DE
:101E5000A71801084456493200000000CB180108B9
:101E6000D8180108DD180108EB18010810B5044660
:101E700008200D4908700EF0B5FD0C4800780228C6
:101E800008D10B4982200EF085FD0A4990200EF002
:101E900081FD07E0084982200EF07CFD07A1922019
:101EA0000EF078FD10BD0000F60200203502002083
:101EB0004C1B010804180108571B01084E6F2053E2
:101EC0007570706F727440546869732054797065CE
:101ED0000000000010B506F0C5FB68B1404800687E
:101EE000012804D104219120FEF766FC77E004214B
:101EF0009420FEF761FC72E006F0A2FB20B1032102
:101F00009120FEF759FC6AE036480078862857D0C1
:101F100018DC7D2838D00CDC602857D004DC07287A
:101F200037D0432857D13AE0672850D06E2852D195
:101F30004EE07F2838D0802837D084283AD08528B2
:101F400049D13CE087380E2845D2DFE800F03A3B23
:101F50003C44441B231C11440C44071605219120CA
:101F6000FEF72AFC3AE003219120FEF725FC35E03C
:101F70000B219120FEF720FC30E00A219120FEF792
:101F80001BFC2BE000BF00BF06219120FEF714FCD4
:101F900024E000BF08219120FEF70EFC1EE0022184
:101FA0009120FEF709FC19E000BF04219720FEF7FD
:101FB00003FC13E004218320FEF7FEFB0EE000BFCC
:101FC00000BF00BF00BFFEF735FA07E000BF00BF4B
:101FD000FEF7C6F902E0FFF71FFD00BF00BF10BD0E
:101FE00074020020F602002010B504466548047013
:101FF0000EF0F8FC64480078022834D1614800787B
:1020000000EB8000614901EBC000406878B15D4A97
:10201000127802EB82020B4603EBC2025168594A66
:10202000127802EB820213F832000EF0B3FC55482E
:10203000007800EB8000554901EBC00000690028E2
:1020400048D0504A127802EB82020B4603EBC202E0
:1020500011694C4A127802EB820203EBC202107B38
:102060000EF098FC36E048480078012832D1454807
:10207000007800EB8000454901EBC000806878B132
:10208000404A127802EB82020B4603EBC2029168CF
:102090003C4A127802EB820213F832000EF07AFC0E
:1020A0003848007800EB8000384901EBC0004069F7
:1020B00080B1344A127802EB82020B4603EBC20273
:1020C0005169304A127802EB820203EBC202107BA4
:1020D0000EF060FC2B4800789C280CD12C4800782E
:1020E00020B12C4990200EF055FC49E02A4990205F
:1020F0000EF050FC44E0234800789D280CD127487E
:10210000007820B1264990200EF044FC38E02549A3
:1021100090200EF03FFC33E01A4800789E2804D14E
:10212000214990200EF036FC2AE0164800789F28BE
:1021300004D11E4990200EF02DFC21E011480078BA
:10214000A02804D11A4990200EF024FC18E00D4874
:102150000078A12807D00B480078A22803D00948AE
:102160000078A32804D1134990200EF013FC07E057
:1021700004480078982803D10F4991200EF00AFCFA
:1021800010BD0000F602002035020020D803002018
:10219000040200203526010824260108020200203E
:1021A00057260108462601086826010879260108F5
:1021B0008A2601089B2601082226010813B50C4631
:1021C000684607F065FF00B91CBD17480078022873
:1021D0001DDA16480078D0B99DF800003030C1B241
:1021E000114802780078401C0F4B18701048815439
:1021F00000200F491A461278885420460EF0CAFB78
:1022000009480078022802DA0AA00FF041F80648CF
:102210000078022805D1012004490870022005F049
:1022200025FF00BFD0E70000300100203101002071
:102230002D0100205F00000070B5002507F0E0FBD5
:1022400000B170BD9A48007800EB8000994901EB1D
:10225000C0000069002863D005F0D6FE94480078DD
:1022600000EB8000934901EBC000407E9049097863
:1022700088420AD08E48007800EB80008D4901EB3F
:10228000C000407E8A490870012589480078FFF720
:10229000ABFE0DF0BBFA8648007800EB8000854964
:1022A00001EBC000C06980B17DB98148007800EBC6
:1022B000800001EBC0000022C3697D480178032043
:1022C000984710B101200EF03DFC7948007800EBF2
:1022D0008000784901EBC000007B91281BD1744835
:1022E000007800EB800001EBC000006A002812D0EB
:1022F00090200FF051F86E49097801EB81016D4A89
:1023000002EBC101086A804769490978884203D114
:1023100069A00EF0BDFFC7E068A00EF0B9FFC3E0F2
:10232000002405F071FE6248007800EB80006149EE
:1023300001EBC000407E5E490978884209D05C48C4
:10234000007800EB80005B4901EBC000407E5849FB
:1023500008705748007800EB8000564901EBC00038
:10236000406A48B15249097801EB8101514A02EBB8
:10237000C101486A804704464D48007820281DD096
:102380000CDC19281BD004DC142810D016283FD1EF
:102390000EE01B2814D01E283AD10EE0252819D0B3
:1023A000272818D03E2830D08A2831D11EE000BF1F
:1023B00043480078204484B22BE000BF00BF00BF38
:1023C0003F480078204484B206F05CFB872003F08D
:1023D0000DFE1EE000BF3A480078204484B2642C11
:1023E00000DD6424872003F001FE12E03448007809
:1023F0002044642801DD642403E03148007820444F
:1024000084B2872003F0F2FD03E006F025FA18E716
:1024100017E700BF264800781B2810D1294800681C
:10242000012806D128480088844208DA2648048812
:1024300005E026480088844201DA244804881C48C4
:10244000007800EB80001B4901EBC000C06958B167
:102450001748007800EB800001EBC0002246C369FA
:102460001348017803209847114800781B280FD0A3
:1024700006DC142809D0162808D019280DD106E04A
:102480001E2806D0202808D104E000BF00BF00BFEE
:1024900000BF00BF06F03AFB04E09121204603F0A4
:1024A00019F900BF00BF00BF00F0B4FA00BFC8E6D2
:1024B000F6020020D80300202A0000003E000000A1
:1024C0008402002074020020980200209A0200205A
:1024D00010B505F099FD1A480078532803D0184824
:1024E0000078552819D140F21B400EF043F81548EA
:1024F0000078022804D1144980200EF04BFA07E03E
:1025000010480078012803D110A180200EF042FA73
:1025100005200EF017FB0EF065FA0948007800EB75
:1025200080000E4901EBC000C07E054908700846D6
:102530000078FFF759FD00F06DFA0DF067F910BD56
:10254000F602002035020020C52301084261636BBA
:102550007570206F70656E6564000000D803002000
:1025600010B53E200449087008460078FFF73CFD8E
:1025700006F072F910BD0000F602002010B505F05B
:1025800043FD79480078012851D178480078072820
:1025900003D0764800780C280ED17548008838B9E9
:1025A0007448008820B97449012004F057FBD9E031
:1025B000012004F00DFCD5E06C480078052803D01C
:1025C0006A4800780B280ED16C48008838B96C48EE
:1025D000008820B96B49012004F040FBC2E00120D3
:1025E00004F0B8F9BEE061480078082803D05F48DD
:1025F00000780A280ED16448008838B963480088FA
:1026000020B96349012004F029FBABE0012004F06C
:1026100063FAA7E05F48008828B95F48008810B9CE
:1026200003F0BCFE9EE0012004F0A6FC9AE05B48AB
:102630000078012802D14D48047801E05848047818
:10264000072C03D0494800780C2820D15348007843
:1026500001280AD14648008838B94648008820B980
:102660004549012004F0FAFA7BE04C480078022842
:1026700008D14C48008828B94B48008810B903F0AD
:102680008DFE6EE04548007804F0A2FB69E0052C61
:1026900003D0364800780B2820D140480078012824
:1026A0000AD13648008838B93548008820B93549FC
:1026B000012004F0D3FA54E038480078022808D109
:1026C0003A48008828B93A48008810B903F066FEF5
:1026D00047E03248007804F03DF942E0082C01D090
:1026E0000A2C20D12D48007801280AD126480088DC
:1026F00038B92648008820B92549012004F0AEFAEF
:102700002FE026480078022808D12A48008828B9F6
:102710002948008810B903F041FE22E01F480078E4
:1027200004F0DAF91DE01D480078012808D11948A5
:10273000008828B91848008810B903F02FFE10E06F
:1027400016480078022808D11C48008828B91C487F
:10275000008810B903F022FE03E01048007804F06E
:102760000BFC00BF10BD00008C0200208D02002079
:10277000C2020020C402002085020020D2020020F4
:10278000D402002086020020E2020020E4020020A1
:1027900087020020B2020020B4020020890200203B
:1027A0008F020020CA020020CC020020DA020020A2
:1027B000DC020020EA020020EC020020BA02002025
:1027C000BC02002013B50C46684607F061FC20B936
:1027D0009DF8000006F0DAFC1CBD174800780228BE
:1027E0001DDA16480078D0B99DF800003030C1B22B
:1027F000114802780078401C0F4B18701048815423
:1028000000200F491A461278885420460EF0C2F86C
:1028100009480078022802DA0AA00EF039FD0648BD
:102820000078022805D1012004490870022005F033
:102830001DFC00BFD0E7000035010020360100205C
:10284000320100205F00000070B506460D4630469C
:1028500007F0FEFB044604B970BD5B4800786B28A6
:102860001AD006DC542877D05D2809D0642806D118
:102870000CE0712816D08128F9D15448047091E0F9
:10288000534804700120534908708BE0524804708B
:1028900001205049087085E05048047001204D49DE
:1028A00008707FE04E480078072859D2DFE800F032
:1028B0005804070F1B2B3F004A48047050E049485A
:1028C0000078844200D1C7E74748047048E0454893
:1028D0000078844203D044480078844200D1BBE7AA
:1028E000424804703CE03F480078844207D03E48AC
:1028F0000078844203D03D480078844200D1ABE7A1
:102900003B4804702CE03748007884420BD03648AE
:102910000078844207D035480078844203D0344898
:102920000078844200D197E73248047018E02D48BF
:10293000007884420FD02C48007884420BD02B487A
:102940000078844207D02A480078844203D029487E
:102950000078844201D17FE707E02748047000BF78
:1029600000BF01201B4908701CE02448006890B992
:10297000002006E0224911F81010A14200D16BE7B7
:10298000401C204909788842F4DB1D491D4A127811
:1029900001F8124005E01A481A49097800EB410095
:1029A000447000BF00BF01200CF026FF1020164924
:1029B000087016A128460DF0EDFF2146284603F0C9
:1029C0008DF900BF48E70000F60200208D020020CC
:1029D00037020020250100203802002039020020A3
:1029E0004102002042020020430200204402002055
:1029F0004502002046020020470200205C02002021
:102A00008A1E0020600200200903002020202020D0
:102A10002020000010B55C48007804280ED006DCA9
:102A200000286DD0022820D0032879D125E0052880
:102A300032D0992875D09A28F7D19DE08321534848
:102A4000008802F047FE782285215148008802F074
:102A500099FD93214F48008802F03CFE7822952191
:102A60004D48008802F08EFD8CE0952003F068FA56
:102A70004A4983200DF08EFF84E084214848006895
:102A800002F09AFE4748007828B12D228621454859
:102A9000007802F077FD75E008F04CFC4248808831
:102AA000FF2817D040484088FF2813D03F49902086
:102AB0000DF070FF3C490888932102F00BFE3A4963
:102AC0004888962102F0CCFE37498888982102F088
:102AD000C7FE14E036480078022808D13549912015
:102AE0000DF058FF344990200DF054FF07E03349B2
:102AF00091200DF04FFF32A190200DF04BFF41E0EF
:102B00003248006850BB32480078012817D1284865
:102B10000078022806D12F4980200DF03BFF09E004
:102B20002FE024E022480078012803D12A498020A0
:102B30000DF030FF29A1832002F0D8FF07E02849DB
:102B400080200DF027FF27A1812002F0CFFF27482A
:102B5000007820B126A189200DF01CFF06E0254851
:102B6000007818B124A189200DF014FF0AE0234950
:102B700093200DF00FFF05E00948006803F08CFA80
:102B800000E000BF00BF10BDF6020020940200204C
:102B90009602002090020020920200209201002064
:102BA000F4010020FF010020C8010020DA22010802
:102BB0003502002068010020D71401087D010020A3
:102BC000466163746F72793A00000000E8010020EA
:102BD0008C0200203B180108431801082000000067
:102BE00042150108202B20200000000002020020D6
:102BF0002A00000004020020230000007D1E0020A7
:102C000010B505F001FA1A480078282816D008DC1B
:102C1000122810D017280FD01C280ED023281CD122
:102C200008E04B280BD059280AD0762809D07B28F9
:102C300013D107E000BF00BF00BF00BF00BF00BF4F
:102C400000BF00BF0A48007800EB8000094901EB93
:102C5000C000407E0649087003E012200449087055
:102C600000BF00BF02480078FFF7BEF910BD0000AA
:102C7000F6020020D803002013B50C46684607F082
:102C800007FA20B99DF8000006F080FA1CBD19482B
:102C9000007802281DDA18480078D0B99DF80000A5
:102CA0003030C1B2134802780078401C114B1870C4
:102CB00012488154002011491A461278885420463F
:102CC0000DF068FE0B480078022802DA0CA00EF026
:102CD000DFFA08480078022809D101200649087067
:102CE00008480078032802D1022005F0BFF900BF90
:102CF000CCE700003A0100203B0100203701002012
:102D00005F0000002401002013B50C46684607F060
:102D1000BFF920B99DF8000006F038FA1CBD17482D
:102D2000007802281DDA16480078D0B99DF8000016
:102D30003030C1B2114802780078401C0F4B187037
:102D40001048815400200F491A46127888542046B2
:102D50000DF020FE09480078022802DA0AA00EF0E1
:102D600097FA06480078022805D101200449087026
:102D7000022005F07BF900BFD0E700002B01002006
:102D80002C010020280100205F00000010B505F094
:102D90003BF91B4800780B2804D00C2803D00D28E1
:102DA0000DD101E000BF00BF1548007800EB8000A6
:102DB000144901EBC000407E1149087003E00B206C
:102DC0000F49087000BF00BF0D480078FFF70CF9ED
:102DD00090200EF0E1FA0A49097801EB8101094AD5
:102DE00002EBC101086A804705490978884203D18E
:102DF00005A00EF04DFA02E004A00EF049FA10BD55
:102E0000F6020020D80300202A0000003E00000047
:102E1000F8B50025F9480478022005F027F900B13B
:102E2000F8BDF6480078672826D006DC5E2814D066
:102E3000602816D0652831D11AE06C2823D06E287E
:102E400025D073282AD17120EC4908700022084649
:102E5000017804200CF07CFAE2E70020E8490870D1
:102E600000BF08F08DFF06F0BFF906F0DDF9D7E7E7
:102E70000020E449087000BF08F0A2FF06F0B4F992
:102E800006F0D2F9CCE70020DF49087000BF08F057
:102E9000B7FF06F0A9F906F0C7F9C1E7DB480078EB
:102EA00001280AD10020D94908708720D349087029
:102EB000D7A192200DF06EFDB2E7D0480078992896
:102EC0006BD012DC81281DD008DC102816D0112808
:102ED00017D07F2878D080283FD17FE096283DD03A
:102EE00097283CD09828F7D13AE09C38082834D26B
:102EF000DFE800F016173738393A3B1807F00CF8BE
:102F00008EE78DE707F002FA10B106F06DF906E0E2
:102F1000FDF7B6F90A200DF015FE0DF0F3FA7FE784
:102F200000BF00BFB548007800EB8000B94901EB55
:102F3000C000C06988B1B148007800EB800001EBA7
:102F4000C0000022C369AD4801780420984700B949
:102F500066E79B20A949087062E757E000BF00BF01
:102F600000BF00BF00BF00BF00BFA448007800EB57
:102F70008000A84901EBC000C06968B19F48007893
:102F800000EB800001EBC0000022C3699B48017880
:102F90000420984700B943E738E09848007800EBF0
:102FA00080009C4901EBC000C069A8B1934800783B
:102FB00000EB800001EBC0000022C3698F4801785C
:102FC0000420984708B92BE707E08C480078FFF702
:102FD0000BF8FFF71FFD23E718E000BF87480078D4
:102FE00000EB80008B4901EBC000C06968B18348E9
:102FF000007800EB800001EBC0000022C3697F482D
:1030000001780420984700B90AE700BF00BF0DF01F
:10301000E9FC7A480078292804D104F08DF9774931
:10302000087016E07548007800EB8000794901EBE4
:10303000C000807E7149097888420AD06F480078C4
:1030400000EB8000734901EBC000807E6B49087083
:1030500001256A48007858B96F48006810B96F4870
:10306000007828B96E48006810B9FFF7C9FDD7E6A7
:1030700062480078FEF7B8FF6048007800EB8000F7
:10308000644901EBC000006900287DD05B480078EE
:1030900054282BD006DC18281BD01D2812D053280A
:1030A0005AD119E0602804D0672805D06E2853D182
:1030B00005E002F0DFFE4FE002F0FEFE4CE002F021
:1030C0001DFF49E0574A58495848007804F0E6FB8C
:1030D00000BF05F0D7FC3FE00120554908700846C5
:1030E000017840F217400DF039FA35E000200090E9
:1030F000504800783130C0B28DF800003A208DF889
:10310000010085200EF048F968460EF0C1F89520C0
:103110000EF042F968460EF0BBF847484549097879
:1031200010F8110038B14448424A127810F81210D1
:10313000862002F0D3FD40483E49097800EB41006B
:10314000407840B13C483B4A127800EB420041785D
:10315000962002F0C3FD00BF00BF2848007800EBB6
:1031600080002C4901EBC000C069F8B15DB1234873
:1031700000785D2807D021480078642803D01F48D4
:1031800000786B2812D100E05EE01C48007800EB6C
:103190008000204901EBC0000022C3691748017874
:1031A0000420984710B101200DF0CCFC13480078A2
:1031B00000EB8000174901EBC000007B91281BD178
:1031C0000E48007800EB800001EBC000006A002888
:1031D00012D090200EF0E0F80849097801EB810147
:1031E0000C4A02EBC101086A804704490978884209
:1031F00026D112A00EF04CF838E10000F6020020B3
:103200003A0200203B0200203C0200202501002061
:103210005F000000D8030020D4010020DD01002061
:10322000F00100209E0200209C0200208902002064
:1032300058020020600200208A1E00202A000000A0
:103240008EA00EF025F811E100268D480078252883
:103250007CD010DC1B2827D006DC142827D01628A9
:1032600026D0192816D11EE01E281AD0202819D0E1
:103270002228F7D10FE0822846D006DC27287DD00F
:103280003D2807D03E28EDD1EBE0832877D08A286F
:10329000E8D1C3E0E8E005F0F5FB912002F068FA20
:1032A000E2E000BF00BF00BF05F0ECFB00BF00BFC5
:1032B0007348007884420AD171480178022006F0F0
:1032C0007DFE00226E480178042009F055FC04F0D0
:1032D0009BFE05F01BFC6A480078844205D0012063
:1032E0006849086002F0E8FB08E0664800680128C9
:1032F00004D100206349086002F0DEFB05F024FBE6
:10330000872002F073FEAFE05F480078401C5E4902
:103310000870087800EBD0714910A0EB41015A4ABF
:10332000117010460078012817D155480178022005
:1033300006F044FE01280AD104F066FE05F0E6FB23
:1033400000205049086002F0B7FB27E064E04E48D7
:103350000078401C4C49087020E049480178022060
:1033600006F02CFE012814D104F04EFE05F0CEFB31
:103370000120444908600220444901E04DE00EE08C
:1033800008708320FEF730FE41A191200DF002FB72
:1033900004E03D480078401C3B49087064E03E482A
:1033A0000078401C3C490870087800EBD071491047
:1033B000A0EB4101384A117010460078012816D15F
:1033C0002F480178022006F0F9FD012809D104F008
:1033D0001BFE05F09BFB00202A49086002F06CFBF5
:1033E00019E02D480078401C2B49087013E0244850
:1033F0000178022006F0E2FD012807D104F004FE66
:1034000005F084FB01201F49086004E02248007891
:10341000401C2149087027E000BF00BF872002F050
:10342000E5FD17480178022006F0C8FD04F0ECFD28
:103430001348007800EB8000184901EBC000406A97
:1034400048B10F49097801EB8101144A02EBC1012F
:10345000486A804706462A229021304602F092F8B8
:1034600002E005F02FFA00BF00BF00BF044800785B
:1034700008B9FFF7CFFA00BFD2E400003E00000019
:10348000F602002074020020CE01002089020020F4
:103490005F20202078000000CF010020D80300200A
:1034A0002DE9F05FFE4890F801A0807800F07F0BD6
:1034B000FB48C47805794679877990F80780BAF196
:1034C000000F03D0F7480078824578D1BBF10D0F8B
:1034D00076D00BDCBBF10D0F73D2DFE80BF0722955
:1034E00062DEF4F3F2F1F0EFEEEDEC00BBF1140F5D
:1034F00068D00BDCABF10E000628EDD2DFE810F04F
:103500002C0343034B0353035B036803BBF1170F07
:1035100078D006DCBBF1150F75D0BBF1160F50D17A
:103520007CE3BBF1180F6FD0BBF17F0FF7D19BE3AA
:10353000012C0BD0022C0FD0032C10D0042C2DD139
:103540000020D9490860D949086028E00120D649FF
:103550000860D649086022E0FCF7BAFE1FE0D148B7
:103560000570017840F215400CF0F8FFCD48007866
:10357000401CC1B20322042009F044FAC8488078F4
:1035800000F08000802807D1C9480078012803D1C5
:103590000A21C3480CF072FBBDE8F09FFCE700BFB6
:1035A0003FE20D2C76D2DFE804F075070E192330C8
:1035B0003A4447545C646C000BF0EEFD6BE0F1E3C1
:1035C000C2E2F0E312E3BB480078022802D00BF01D
:1035D0001DFC02E0002001F02FFA5CE0B548007805
:1035E000022801D00BF012FC042001F025FA52E071
:1035F000B0480078022801D00BF008FC032001F04D
:103600001BFA48E018E3F9E21EE3AA480078022812
:1036100001D00BF0FBFB022001F00EFA3BE0A548C5
:103620000078022801D00BF0F1FB062001F004FA2B
:1036300031E00BF061FB2EE09F4890F800900121F3
:103640009E4800780BF00AF9022148460BF006F973
:1036500021E001209A490870012108460BF0A2F8E8
:1036600019E0002096490870002101200BF09AF81B
:1036700011E0012093490870012102200BF092F81B
:1036800009E000208F490870002102200BF08AF821
:1036900001E0FFE780E700BF82E7012C03D10120B2
:1036A0008949087004E0022C02D102208649087082
:1036B0000C2D4DD208E03FE236E2C7E1B2E16DE108
:1036C0001BE1BBE06BE046E0DFE805F042060C12D0
:1036D000421E242A3018363C7B48017801200BF02A
:1036E000BDF836E07848017802200BF0B7F830E0FA
:1036F0007548017803200BF0B1F82AE07248017890
:1037000006200BF0ABF824E06F48017807200BF09F
:10371000A5F81EE06C48017805200BF09FF818E032
:103720006948017808200BF099F812E066480178A2
:103730000A200BF093F80CE0634801780C200BF0A2
:103740008DF806E0604801780B200BF087F800E068
:1037500022E700BFF8E3012C06D0022C08D0032C8E
:103760000DD0042C18D111E0012009F09DF914E0CE
:10377000012056490870022009F096F90DE0022058
:1037800052490870032009F08FF906E0504805708F
:1037900000780BF0DBFF00E0FEE600BFD4E30F2C67
:1037A00041D2DFE804F040080C1014181C20242833
:1037B0002C3034383C0001204649087034E00220A7
:1037C0004449087030E00320424908702CE004208E
:1037D0004049087028E005203E49087024E0062092
:1037E0003C49087020E007203A4908701CE0082096
:1037F0003849087018E009203649087014E00A209A
:103800003449087010E00B20324908700CE00C209D
:103810003049087008E00D202E49087004E00E20A1
:103820002C49087000E0B7E600BF2A4800780BF08A
:103830002BFA05F07DFF06F0E1FC85E3012C1CD19D
:1038400001202549086045EA06221621022009F0D8
:1038500093F900221621042009F08EF900201E4958
:10386000086047EA08221621022009F085F90022A3
:103870001621042009F080F93EE0022C3BD1012002
:103880001549086045EA06221421022009F074F95E
:1038900000221421042009F06FF900200E491DE0D8
:1038A000001E0020FF01002028020020240200202A
:1038B000ED0100208C0200208D0200208F020020EC
:1038C000F7020020F8020020890200208A0200206E
:1038D000F9020020F502002074020020086047EA87
:1038E00008221421022009F047F9002214210420A3
:1038F00009F042F900E04FE626E304F0800018B931
:103900000120FB49087006E004F08000802802D105
:103910000220F749087004F07F0001281BD1F54907
:10392000086045EA06221B21022009F025F9002241
:103930001B21042009F020F90020EE49086047EA25
:1039400008221B21022009F017F900221B21042064
:1039500009F012F921E004F07F0002281CD10120B7
:10396000E449086045EA06221921022009F004F919
:1039700000221921042009F0FFF80020DD49086029
:1039800047EA08221921022009F0F6F8002219213D
:10399000042009F0F1F800E0FEE5D5E204F0800033
:1039A00018B90120D249087006E004F08000802890
:1039B00002D10220CE49087004F07F00012811D105
:1039C000CC49086045EA06222021022009F0D4F8FB
:1039D0000020C849086047EA08222021022009F097
:1039E000CBF81EE004F07F00022812D10120C1496B
:1039F000086045EA06221E21022009F0BDF80020D9
:103A0000BC49086047EA08221E21022009F0B4F8E8
:103A100007E004F07F00032802D1FEF7AFFD00E0CD
:103A2000BAE591E2012C02D0022C0CD105E02A4625
:103A30002521022009F0A0F806E02A4627210220CD
:103A400009F09AF800E0A7E500BF7DE20B2C68D2F0
:103A5000DFE804F06706232934414E5B5E616400B1
:103A600005F07F0000F5FA60A34908807007000F99
:103A700040EAD5104880F008888007F01F00C88011
:103A80004FEA4870800E40EA5710088108F0F800AD
:103A90008010488107F0BEFF44E0284608F040F857
:103AA00000B979E53EE0284604F072FD20B1934963
:103AB00093480CF0DFFA00E06EE533E091480570C2
:103AC0004670877080F80380012008F0B9F9012062
:103AD00002F0E8FE26E08B4805704670877080F89B
:103AE0000380022008F0ACF9022002F0DBFE19E0AE
:103AF000844805704670877080F80380032008F0C2
:103B00009FF9032002F0CEFE0CE0FCF77FFF09E0F6
:103B1000FCF78CFF06E0FCF799FF03E007F06CFB75
:103B200000E039E500BF0FE2774804704570867009
:103B3000C77080F8048007E2734844718571C671CC
:103B4000077280F80980FFE16F488472C5720673BE
:103B5000477380F80E80F7E16B48C47305744674B0
:103B6000877480F8138000206749087502F0E0FD33
:103B70006648007830B980200CF020FF6249802030
:103B80000CF008FFE0E16248047045708670C77071
:103B900080F80480D8E15E4844718571C67107726F
:103BA00080F80980D0E15A488472C5720673477361
:103BB00080F80E80C8E15648C47305744674877453
:103BC00080F8138000205249087502F02FFEBBE1F7
:103BD00050480470017840F247400CF0BFFC4E485A
:103BE00005704670877080F80380ADE14A48047123
:103BF00045718671C77180F80880A5E14648447216
:103C0000857200204449434A12788854414802781A
:103C1000921C40F249400DF027FA95E13F480470AC
:103C2000017840F235400CF099FC3D480570467033
:103C3000877080F8038087E1394804714571867187
:103C4000C77180F808807FE1354844728572002191
:103C5000324A1278815431480278921C304940F23D
:103C600037400DF001FA6FE1142C70D2DFE804F058
:103C70006F0A252691A5ABF8FFEEEDECEBEAE9E83B
:103C8000E7E6E5E427480078012804D10121042073
:103C900007F030FB10E023480078022804D102210D
:103CA000042007F027FB07E01E480078032803D113
:103CB0000321042007F01EFB43E100BF022C03D1C7
:103CC000194890F8009002E0184890F80090B9F177
:103CD0000D0F5BD2DFE809F05A072C315A41363C10
:103CE000465A4B5550000121042007F003FB4EE0DB
:103CF0008902002074020020BC01002092000020F4
:103D000030000020EC00002068010020F6020020B6
:103D100092010020FD0100204E010020FC01002046
:103D20005B0100208C0200208D0200208F02002009
:103D30000221042007F0DEFA29E00321042007F025
:103D4000D9FA24E00421084607F0D4FA1FE0F7E08E
:103D50000521042007F0CEFA19E00621042007F01F
:103D6000C9FA14E00721042007F0C4FA0FE0082183
:103D7000042007F0BFFA0AE00A21042007F0BAFA8B
:103D800005E00B21042007F0B5FA00E004E400BFD1
:103D9000D7E076480078012806D10121042007F0F9
:103DA000A9FA09E0DFE0CEE070480078022803D1EC
:103DB0000221042007F09EFAC3E06D480178042038
:103DC00007F098FABDE06B4800780B2846D2DFE890
:103DD00000F045060B10151A1F24292E4000012162
:103DE000042007F087FA39E00221042007F082FA64
:103DF00034E00321042007F07DFA2FE00421084677
:103E000007F078FA2AE00521042007F073FA25E08C
:103E10000621042007F06EFA20E00721042007F0B5
:103E200069FA1BE00821042007F064FA16E0092172
:103E3000042007F05FFA11E075E067E056E04EE01D
:103E400046E03EE036E02EE026E01EE016E00EE022
:103E500006E00A21042007F04DFA00BF00BF70E021
:103E6000454801884548008807F054FA69E044480D
:103E700001884448008807F04DFA62E04248018812
:103E80004248008807F046FA5BE041480188414813
:103E9000008807F03FFA54E03F4801883F48008817
:103EA00007F038FA4DE03E4801883E48008807F0A8
:103EB00031FA46E03C4801883C48008807F02AFA7D
:103EC0003FE03B4801883B48008807F023FA38E090
:103ED000394801883948008807F01CFA31E0384831
:103EE00001883848008807F015FA2AE0012D05D12D
:103EF00035480178052007F0FDF906E0022D04D1D0
:103F000032480178052007F0F5F91AE0304A3149C6
:103F1000012003F0C3FC28B12D4801882D480088FA
:103F200007F0F8F90DE02A4A2A49022003F0B6FC0E
:103F300028B1274801882748008807F0EBF900E0FE
:103F400006E400BF04E427E400BF2348807800F0C3
:103F50008000802807D121480078012803D10A2158
:103F60001D480BF08BFE00BF16E400008A02002003
:103F7000F9020020F50200209A0200209802002099
:103F80009602002094020020A8020020A602002031
:103F9000A4020020A2020020B0020020AE020020F5
:103FA000AC020020AA020020B8020020B6020020C5
:103FB000B4020020B2020020C0020020BE02002095
:103FC000BC020020BA020020F2020020F30200200E
:103FD0009E0200209C020020001E0020ED01002017
:103FE00008B5002000906946044806F046FB012809
:103FF00003D09DF8000002F0DBFA08BD9A1E0020F5
:1040000001B5684606F044F820B99DF8000005F0B7
:10401000BDF808BD9DF8000030301B4908701B48F2
:104020000078102811D11A480078022804D11949C3
:1040300084200CF0AFFC10E01548007801280CD16A
:10404000154984200CF0A6FC07E0104800781128E0
:1040500003D10CF0C7FC05F0A7FF0D48007802283B
:1040600004D10E4990200CF095FC07E00848007838
:10407000012803D10A4990200CF08CFC02499220BF
:104080000CF088FC00BFC4E741010020F6020020CC
:1040900035020020E61A0108D31A0108FD1F0108A5
:1040A0000220010810B510200E4908700CF09AFC8F
:1040B0000D480078022808D10C4980200CF06AFCD9
:1040C0000B4984200CF066FC0BE0074800780128BF
:1040D00007D1084980200CF05DFC074984200CF0D2
:1040E00059FC10BDF60200203502002032220108E2
:1040F000851B01083D220108911B010811B581B003
:10410000002401A805F0C4FF20B99DF8040005F0C3
:104110003DF81CBD9DF80400082806D09DF8040059
:10412000092802D09DF8040000B9F2E79DF80400C8
:104130003030C0B200904E48007860282FD14D48F2
:10414000007807282BDA01204B490870002408E08A
:104150004A48005D9DF80410884200D1D9E7601CF0
:10416000C4B2444800788442F2DB9DF8040043491D
:10417000404A127888543F4909789031C8B269465C
:104180000CF008FC3B480078401C3A49087008468F
:10419000007807286ADA3AA00DF07AF866E0344829
:1041A000007867282FD13748007807282BDA0120BC
:1041B00035490870002408E03448005D9DF804107B
:1041C000884200D1A5E7601CC4B22E480078844222
:1041D000F2DB9DF804102D482A4A127881542949AF
:1041E00009789031C8B269460CF0D4FB25480078B4
:1041F000401C2449087008460078072836DA20A0B9
:104200000DF046F832E01A4800786E282ED120488A
:10421000007807282ADA01201E490870002408E0E7
:104220001D48005D9DF80410884200D171E7601CB4
:10423000C4B2174800788442F2DB9DF804001649A6
:10424000134A12788854124909789031C8B26946E5
:104250000CF0A0FB0E480078401C0D490870084681
:104260000078072802DA06A00DF012F800BF50E728
:10427000F6020020130000203A0200200C0000206B
:10428000205F00001D0000203B02002016000020DF
:10429000270000203C02002020000020F7B50E4639
:1042A0001446684605F0F4FE20B99DF8000004F0BD
:1042B0006DFFFEBD30460DF06FF8002503E02020B5
:1042C0000CF096FB6D1CA542F9DB1D480078A0425E
:1042D0001DDA1C480078D0B99DF800003030C1B21A
:1042E000174802780078401C154B18701648815406
:1042F000002015491A461278885430460CF04AFBC3
:104300000F480078A04202DA10A00CF0C1FF0C4860
:104310000078A04211D101200A4908700A493046AC
:104320000CF038FB0A4800788C2803D00848007845
:10433000572802D1022003F099FE00BFB9E7000020
:1043400027010020260100200C1E00205F00000035
:10435000F602002013B50C46684605F099FE20B918
:104360009DF8000004F012FF1CBD174800780228D9
:104370001DDA16480078D0B99DF800003030C1B27F
:10438000114802780078401C0F4B18701048815477
:1043900000200F491A461278885420460CF0FAFA89
:1043A00009480078022802DA0AA00CF071FF0648DA
:1043B0000078022805D1012004490870022003F08A
:1043C00055FE00BFD0E700003F0100204001002063
:1043D0003C0100205F00000010B53E480078401C02
:1043E0003C490870084600783C2825D10020087018
:1043F00039480078401C38490870084600783C2845
:104400001AD10020087035480078401C33490870E4
:104410000846007818280FD100200870304800782E
:10442000401C2F49087008460078642190FBF1F287
:1044300001FB12002A4908702A480078012813D18C
:1044400085212748007801F00BFA90212348007855
:1044500001F006FA92212048007801F001FA942137
:104460001C48007801F0FCF91F48007888B31F4809
:10447000007858B901201D49087006F011FA1C494E
:1044800008601C491A4800680CF020FF06F008FA82
:1044900017490968401A3C21B0FBF1F4164800782E
:1044A000844216D30020804213D10A48007880B994
:1044B000B4F5803F0DD20D480078012806D10220C6
:1044C0000A49087003F012FA0C490880A0B207F0FC
:1044D000C7FC10BD4C0100204B0100204A01002008
:1044E00049010020F6020020DC01002048010020E4
:1044F00044010020541E0020DF010020E2010020C2
:1045000010B504F09DF810B904F0ACF8D8B10F481C
:104510000078012803D10A200C4908700EE00B48EE
:1045200000780A2803D164200849087006E007488B
:104530000078642802D1012004490870872001F026
:1045400055FD012010BD0020FCE700008402002082
:1045500010B50D480078012802D1FCF727FB12E0C6
:104560000A48047801210A4800780AF077F9022104
:1045700020460AF073F9074980200CF00BFA06A1D7
:10458000812001F0B3FA10BD8C0200208D020020C2
:104590008F0200204215010820202B20200000005F
:1045A00008B5002000906946044806F066F8012826
:1045B00003D09DF8000001F0FBFF08BD011F0020A3
:1045C00010B50446E0B2FF280AD13D48007838B95A
:1045D0003C483B490978445401203949087059E066
:1045E00037480078C0B137483549097844543449D0
:1045F0000978481CC11700EB91718910A0EB81016B
:104600002F4A117010460078002843D101202E490E
:10461000086000F00BFD3DE004F0F000F0280AD146
:104620002A48007838B92748284909784454012095
:10463000264908702EE025480078A0B1214823497A
:104640000978445421490978481C00EBD07149107D
:10465000A0EB41011D4A117010460078D0B901202D
:104660001B49086016E004F08000802812D1E22C7B
:1046700003D100201749086010BDE32C05D10120AB
:104680001549086015490860F6E70E4804700120D6
:10469000134908601148006878B100200F4908608C
:1046A0000A2094FBF0F00F4908700A2094FBF0F107
:1046B00000FB11400C490870DEE700BFDCE700009A
:1046C00006000020010000206402002007000020F6
:1046D000680200207C020020780200207002002086
:1046E0006C020020E4010020E501002070B50025E7
:1046F00005F086F900B170BD8B48007800EB8000B2
:104700008A4901EBC0000069002863D003F07CFCFB
:104710008548007800EB8000844901EBC000007EF2
:104720008149097888420AD07F48007800EB8000F0
:104730007E4901EBC000007E7B49087001257A4864
:104740000078FDF751FC0BF061F87748007800EB3A
:104750008000764901EBC000C06980B17DB9724824
:10476000007800EB800001EBC0000022C3696E48B6
:1047700001780220984710B101200CF0E3F96A4853
:10478000007800EB8000694901EBC000007B9128B4
:104790001BD16548007800EB800001EBC000006A87
:1047A000002812D090200CF0F7FD5F49097801EB4A
:1047B00081015E4A02EBC101086A80475A490978C3
:1047C000884203D15AA00CF063FDA9E059A00CF077
:1047D0005FFDA5E0002403F017FC5348007800EBD0
:1047E0008000524901EBC000007E4F4909788842A1
:1047F00009D04D48007800EB80004C4901EBC00027
:10480000007E494908704848007800EB800047491D
:1048100001EBC000406A48B14349097801EB8101CE
:10482000424A02EBC101486A804704463E4800788C
:10483000202817D00CDC192815D004DC142816D039
:10484000162836D114E01B280ED01E2831D108E0DE
:1048500025281BD027281AD03E2827D08A2828D1DF
:1048600016E000BF00BF00BF04F00CF900BF00BF9E
:1048700031480078201A01D5002403E02E48007842
:10488000201A84B2872001F0B1FB13E000BF00BF03
:1048900029480078201A01D5002403E02648007832
:1048A000201A84B2872001F0A1FB03E003F0D4FFBB
:1048B00021E720E700BF1C48007800EB80001B497F
:1048C00001EBC000C06958B11748007800EB8000C8
:1048D00001EBC0002246C3691348017802209847C3
:1048E000114800781B280DD006DC14280DD016289E
:1048F0000CD019280DD104E01E2804D0202808D19E
:1049000002E000BF00BF00BF00BF00BF04F0FEF820
:1049100004E09121204600F0DDFE00BF00BF00BF93
:10492000FEF778F800BFE6E6F6020020D803002084
:104930002A0000003E0000008402002010B5112073
:104940000E4908700CF04EF80D480078022808D186
:104950000C4980200CF01EF80B4984200CF01AF84A
:104960000BE007480078012807D1084980200CF0A7
:1049700011F8074984200CF00DF810BDF602002054
:104980003502002049220108851B01085422010834
:10499000911B010810B532248A20244908700CF0BC
:1049A00021F82248007800EB8000214901EBC0008B
:1049B000406A48B11D49097801EB81011C4A02EBAC
:1049C000C101486A8047C4B22A229021204600F0E3
:1049D000D9FD18480078022810D1144A127802EB49
:1049E0008202134B03EBC2025168104A127802EBA9
:1049F000820213F832000BF0CDFF13E00D4800786F
:104A000001280FD1094A127802EB8202084B03EB0E
:104A1000C2029168054A127802EB820213F8320052
:104A20000BF0B8FF872001F0E1FA10BDF60200207C
:104A3000D80300203502002010B50446072C47D2C9
:104A4000DFE804F004460A152C4637000020274909
:104A50000880274908803BE0002024490880254839
:104A6000008825490988401A2149088030E02349F7
:104A70000988234A1288881A00EBD071C1F34F01CC
:104A80001A4A11801B4909881B4A1288881A00EBB0
:104A9000D071C1F34F01164A118019E01748008800
:104AA00017490988401A11490880002010490880D8
:104AB0000EE01248008812490988401A0B49088004
:104AC0000C4800880C490988401A0949088000BF31
:104AD00000BF02220548018801200AF08BFA022259
:104AE0000348018810460AF085FA10BDAE02002086
:104AF000B0020020A4020020AC020020A20200208C
:104B0000AA020020704700002DE9F04106460D463C
:104B10001746E448007810B90020BDE8F081E1486C
:104B20000178E1480BF08CFE044603F06DFA7D2D10
:104B30006FD1552C6ED01BDC462C6CD007DC082CBA
:104B40006AD2DFE804F06954575B5F6A739F512CA7
:104B50007ED006DC472C7CD0482C7BD0502C5BD1FF
:104B6000BFE0522C77D0532C76D0542CF7D1E5E00F
:104B7000652C28D010DC592C6FD006DC562C6DD05B
:104B8000572C6CD0582CEAD10CE15A2C68D0602CF0
:104B900067D0642CE3D112E0692C24D006DC662CAB
:104BA00015D0672C17D0682CD9D118E0BF48204405
:104BB00000287DD0BE4908440028D0D148E1A1207A
:104BC000FDF712FA53E19C20FDF70EFA4FE19D200C
:104BD000FDF70AFA4BE19E20FDF706FA47E19F2018
:104BE000FDF702FA43E1A020FDF7FEF93FE109F0ED
:104BF00081FD3CE14320FDF7F7F938E14520FDF761
:104C0000F3F934E10220AB4908708D20FDF7ECF98F
:104C10002DE12DE1A5E058E027E10320FDF7E4F9BF
:104C20008421A548006800F0C7FD20E10BF0DAFE02
:104C30000120A24908700846017840F275400BF047
:104C40008DFC9F480078022813D19E49802009E0FE
:104C500065E03EE041E069E06CE0AAE088E08BE0DE
:104C6000BAE0C7E00BF096FE974987200BF092FE62
:104C700007E0964980200BF08DFE954990200BF0BF
:104C800089FEF4E00BF0AEFE00208C490870084667
:104C9000017840F275400BF061FC894800780228E9
:104CA0000AD1884980200BF075FE8A49872000E0F0
:104CB000B5E00BF06FFE07E0844980200BF06AFE40
:104CC000854990200BF066FED1E09320FDF78CF92A
:104CD000CDE09020FDF788F9C9E09420FDF784F934
:104CE000C5E00020734908707C4800687C49884210
:104CF00011D17C4800884FF6FF7188420BD179486A
:104D00004088FF2807D177488088FF2803D18E206C
:104D1000FDF76AF902E08D20FDF766F9A7E00120B2
:104D2000644908708D20FDF75FF9A0E08F20FDF742
:104D30005BF99CE08C20FDF757F998E001206A4967
:104D4000087001F031FD002068490860684800786B
:104D500068490870042009F045FE0720FDF744F972
:104D600085E00320534908708D20FDF73DF97EE072
:104D70009520FDF739F97AE005F060FE58B10BF0A7
:104D800031FE5D4980200BF005FE86215B480088DE
:104D900000F066FD05E00BF025FE594980200BF080
:104DA000F9FD64E00620434908708D20FDF71CF9E9
:104DB0005DE00120534908700846017840F27F40C9
:104DC0000BF0CCFB50A180200BF0E4FD4D4940F2EC
:104DD0007F4005F0D3FE4AE000204A4908700846AB
:104DE000017840F27F400BF0B9FB4BA180200BF023
:104DF000D1FD3CE00BF0F6FD4BA180200BF0CAFD8D
:104E000085214C48007800F02BFD4BA190200BF041
:104E1000C1FD96213948008800F022FD27E00BF003
:104E2000E1FD48A180200BF0B5FD83212B480068EF
:104E300004F01CF92C480178882001F001F943A105
:104E400090200BF0A7FD434993200BF0A3FD0EE04B
:104E50000BF0C8FD40A180200BF09CFDFCF7A0FBEF
:104E600043A190200BF096FD01E0002055E616E0EE
:104E7000432D14D13B2C00D93B2442490C700846E9
:104E8000007800EB40000F303F490870A0B22A22A2
:104E9000902100F077FBE1B206200BF05FFB0120D0
:104EA0003BE60000270100200C1E0020A298F7FF1F
:104EB0002D89FCFF00020020F401002001020020E7
:104EC00035020020F6160108201701080B1701080B
:104ED000271701082C17010833170108F8010020D3
:104EE00008E40400C8010020DD010020D4010020F6
:104EF0008D020020D10100201C150108E0010020D6
:104F00002D150108DC0100204F50454E204C4F4725
:104F10002046554E43000000434C4F5345204C4F14
:104F2000472046554E4300004C6F6720416674652C
:104F3000723A0000DF0100204C6F67204E756D62F1
:104F4000653A00004B65793A000000004D6F6465DA
:104F50006C3A0000DD140108636C65617220323424
:104F60006336342E77616974696E672E0000000025
:104F7000636C6561722032346336342E2E2E4F4BB3
:104F800021000000340200203D02002070B50446DC
:104F9000002522480078FF283CD12048807800284E
:104FA00038D11E48407845280ED11C48C078BC280E
:104FB0000AD100201A4908701A4800787E2801D1C9
:104FC0000BF0A0FA002070BD14484078462805D1A7
:104FD0001248C078BB2801D101251BE00F4840785A
:104FE00055280ED10D48C078AC280AD100200E49B2
:104FF00008700C4800787E2801D10BF083FA00205D
:10500000E1E706484078562804D10448C078AB2828
:1050100000D1022504B125700120D4E70100002051
:1050200008000020F60200200900002010B50F48FB
:105030000078C8B10E48FFF7A9FFA8B10D48006875
:1050400020B10B4800780AF0F9FB0AE00120094979
:10505000086009480078052803D1054800780AF05F
:10506000EDFB00200549086010BD0000580200203B
:1050700089020020540200208D02002064020020DA
:105080002DE9F84380460F4691460026F748007800
:1050900010B90020BDE8F883F4480178F4480BF01B
:1050A000CFFB85B238469D2F71D010DC97286FD08A
:1050B00006DC7F2813D080283DD0962869D16AE08D
:1050C000982867D0992872D09C28F7D105E19E389E
:1050D00006285ED2DFE800F0FCFBFAF9F8F7B5F538
:1050E000F06F23DDFBF7CCF80A200BF02BFD02F06C
:1050F00081FF0BF077FCDF480078022808D1DE49F9
:1051000083200BF047FCDD4990200BF043FC0BE0C3
:10511000D8480078012807D1D94983200BF03AFC00
:10512000D84990200BF036FC0020B3E7D648058024
:10513000D648058015E2B5F5966F23DDFBF7A0F89C
:105140000A200BF0FFFC02F055FF0BF04BFCC948A6
:105150000078022808D1C84983200BF01BFCCC49F9
:1051600090200BF017FC0BE0C2480078012807D113
:10517000C34983200BF00EFCC64990200BF00AFCBB
:10518000002087E7C4480580C4480580E9E1A5E020
:1051900032E0E5E166E03C2D01DC0A2D08DA02F0A0
:1051A00033FFBFA185200BF0F5FB002072E77BE009
:1051B000BE490D700846017840F283400BF0CEF9ED
:1051C000BB480078012816D105F06AFBB749097879
:1051D000C1EB011100EB8104200EB6490870200CD0
:1051E0004870200A8870CC70052240F289400BF08C
:1051F0003BFFB1480460B4E1182D01DC012D07DA52
:1052000002F002FFA6A185200BF0C4FB002041E7BD
:10521000AA490D700846017840F287400BF09EF9CC
:10522000A748007801281CD1A1480078C8B905F02A
:1052300037FBA2490978C1EB01118900C1EB0111CB
:1052400000EB8104200E9B490870200C4870200A56
:105250008870CC70052240F289400BF005FF96481B
:1052600004607EE18148007878B1804800789549F3
:105270000870002605E07E48805D93498855701CC3
:10528000C6B2904800788642F5DD8E48017840F23B
:105290008E400BF063F98B480278921C8A494FF4D8
:1052A00092600BF0E1FE5CE1FBF724FF88B902F0AD
:1052B000ABFE7BA185200BF06DFB844990200BF0A9
:1052C00069FB0020E6E617E1CDE00BE009E007E02E
:1052D00005E000207E49087043E100BF00BF00BF29
:1052E00000BF00BFFBF7E4FE58B902F08DFE79A1C4
:1052F00087200BF04FFB754990200BF04BFB0020F3
:10530000C8E6734800789C2857D16D48007848B1AA
:1053100000206B4908700BF065FB704982200BF090
:1053200039FB43E00120664908700BF05BFB6C49D8
:1053300082200BF02FFB6B4992200BF02BFB5F4878
:1053400000780A2190FBF1F03030C0B28DF80000F7
:105350005A48007890FBF1F201FB12003030C0B2E5
:105360008DF8010000208DF80200694696200BF0B0
:1053700011FB4F480078C8B905F092FA4F490978F7
:10538000C1EB01118900C1EB011100EB8104200E7A
:1053900048490870200C4870200A8870CC7005229B
:1053A00040F289400BF060FE4348046044480178B5
:1053B00040F285400BF0D2F854E0454800789D2833
:1053C00050D13B48007848B10020394908700BF0B3
:1053D00009FB454982200BF0DDFA3DE0012034490C
:1053E00008700BF0FFFA414982200BF0D3FA4049D4
:1053F00092200BF0CFFA2D4800780A2190FBF1F0B3
:105400003030C0B28DF800002848007890FBF1F2EF
:1054100001FB12003030C0B28DF8010000208DF881
:105420000200694696200BF0B5FA05F039FA1F49DB
:105430000978C1EB011100EB8104200E1D490870B1
:10544000200C4870200A8870CC70052240F28940F8
:105450000BF00AFE184804601548017840F28140BC
:105460000BF07CF87DE0234805607AE027010020FE
:105470000C1E002035020020B51F01085A17010834
:10548000C01F01086A17010894020020A202002030
:10549000761701088617010896020020A402002052
:1054A00020202020202020200000000003020020D7
:1054B00002020020060200200C020020050200204B
:1054C000040200200A0200207D1E0020A41701080B
:1054D000F60200202020202020200000C625010800
:1054E000B925010817250108AC2501089F250108E9
:1054F00008250108200200201C480068A84221D18C
:105500001B4805600068000E1A49087018480068BA
:10551000000C487016480088000A8870144800780B
:10552000C870052240F29D400BF09EFD0BF05AFA28
:10553000114981200BF02EFA0D4805607D200F499E
:1055400008700CE0AFF2A40188200BF023FA0C499C
:1055500090200BF01FFA02F057FD00209AE500E0C2
:1055600000BF00BF02F050FD012093E520020020A3
:105570001C02002010020020D3250108F6020020A2
:10558000A41701082DE9FC470546894692460020EC
:105590000090019000260027804600244FF47A7086
:1055A00095FBF0F00A2190FBF1F201FB1200C6B26C
:1055B000642095FBF0F090FBF1F201FB1200C7B202
:1055C0000A2095FBF0F090FBF1F201FB120000F0D5
:1055D000FF082146641C0DF801A020222146641C0E
:1055E0000DF80120B8F1000F0AD14FB946B905F105
:1055F0003000C2B22046611CCCB20DF8002058E049
:10560000AFB9A6B908F13000C2B22046611CCCB2D5
:105610000DF800200A2095FBF0F100FB115030300E
:10562000C2B22046611CCCB20DF8002041E0E6B9C0
:1056300007F13000C2B22046611CCCB20DF8002048
:1056400008F13000C2B22046611CCCB20DF8002037
:105650000A2095FBF0F100FB11503030C2B2204619
:10566000611CCCB20DF8002023E006F13000C2B27C
:105670002046611CCCB20DF8002007F13000C2B208
:105680002046611CCCB20DF8002008F13000C2B2F7
:105690002046611CCCB20DF800200A2095FBF0F1E9
:1056A00000FB11503030C2B22046611CCCB20DF864
:1056B000002000200DF8040004A148460BF06AF910
:1056C000694648460BF066F9BDE8FC87202020209B
:1056D000202000002DE9FC4104460F464FF47A706B
:1056E00094FBF0F00A2190FBF1F201FB1200C5B22D
:1056F000642094FBF0F090FBF1F201FB1200C6B2C3
:105700000A2094FBF0F090FBF1F201FB120000F094
:10571000FF080DB9202001E005F13000C0B28DF87E
:10572000000016B90DB9202001E006F13000C0B22A
:105730008DF80100B8F1000F03D116B90DB9202082
:1057400001E008F13000C0B28DF802000A2094FB9D
:10575000F0F100FB11403030C0B28DF803000020A2
:105760008DF80400694638460BF014F9BDE8FC8159
:105770007CB504460020019000900D480078012877
:1057800001D1012501E00B4805786A4601A92846A8
:1057900002F084F82146BDF80400FFF79BFFA01C2F
:1057A000C1B27822BDF80000FFF7ECFE7CBD00001E
:1057B0008C020020890200207CB504460D46264854
:1057C000B4FBF0F100FB11402449B0FBF1F03030A4
:1057D000C0B28DF800000846B4FBF0F100FB1140A8
:1057E00042F21071B0FBF1F03030C0B28DF8010020
:1057F0000846B4FBF0F100FB11404FF47A71B0FBA6
:10580000F1F03030C0B28DF802000846B4FBF0F180
:1058100000FB11406421B0FBF1F03030C0B28DF8D4
:1058200003006420B4FBF0F100FB11400A21B0FB3F
:10583000F1F030308DF804000A20B4FBF0F100FBE9
:10584000114030308DF8050000208DF806006946C3
:1058500028460BF09FF87CBD40420F00A086010057
:10586000F8B504460D46642094FBF0F100FB1140AE
:105870000A2190FBF1F0C6B20A2094FBF0F100FB84
:105880001140C7B20EB9202001E006F13000C0B2CD
:105890008DF8000007F13000C0B28DF80100002043
:1058A0008DF80200694628460BF074F8F8BD000038
:1058B00010B50BF097F80D480078022808D10C4974
:1058C00080200BF067F80B4990200BF063F80BE099
:1058D00006480078012807D1074980200BF05AF8C4
:1058E000064990200BF056F810BD0000350200204C
:1058F00096190108AB190108A3190108BE1901087E
:1059000010B52B48008884B22AA196200BF042F8EB
:1059100096212046FFF7A4FF2548808884B2942171
:105920002046FFF79DFF2248008984B2922120463D
:10593000FFF796FF1E48008B84B21F4800780228AC
:1059400004D1E0B2992100F055F82FE01A48007810
:1059500001282BD1072C28D2DFE804F004090E130C
:10596000181D220015A198200BF014F81DE015A1B8
:1059700098200BF00FF818E014A198200BF00AF80B
:1059800013E014A198200BF005F80EE013A1982065
:105990000BF000F809E013A198200AF0FBFF04E0E7
:1059A00012A198200AF0F6FF00BF00BF10BD000052
:1059B000381E0020202000003502002053756E2E76
:1059C000000000004D6F6E2E0000000054756573DE
:1059D000000000005765642E0000000054687572D6
:1059E000000000004672692E000000005361742E12
:1059F0000000000038B504460D4600200090072C3A
:105A000036D2DFE804F0040B121920272E00C8203C
:105A10008DF80000D5208DF8010029E0D2208DF806
:105A20000000BB208DF8010022E0B6208DF80000B8
:105A3000FE208DF801001BE0C8208DF80000FD203D
:105A40008DF8010014E0CB208DF80000C4208DF803
:105A500001000DE0CE208DF80000E5208DF801005A
:105A600006E0C1208DF80000F9208DF8010000BF8C
:105A700000BF694628460AF08DFF38BD10B590205A
:105A80000AF09CFF08A190200AF084FF07480078E4
:105A9000022804D1064991200AF07CFF03E0054961
:105AA00091200AF077FF10BD3E0000003502002073
:105AB000E71F0108EC1F010810B50748006801281E
:105AC00004D106A191200AF065FF03E005A193200F
:105AD0000AF060FF10BD0000740200205F2020204B
