:020000040800F2
:10000000D086002045010008B1EE00088199000863
:1000100041EE00086B2E00084D4F01080000000063
:10002000000000000000000000000000A10F010817
:10003000A95800080000000059FF00080D40010801
:100040005F0100085F0100085F010008E501010889
:100050005F0100085F0100085F010008856D00086E
:100060005F0100085F0100085F0100085F010008F0
:100070005F0100085F0100085F0100085F010008E0
:100080005F0100085F0100085F0100085F010008D0
:100090005F0100085F0100085F010008A96D00080A
:1000A0005F0100085F0100085F0100085F010008B0
:1000B0005F010008B94001085F0100085F01000806
:1000C0005F0100085F0100085F0100085F01000890
:1000D0005F010008DD4A0108294B01085D4B01085A
:1000E000156D00085F0100085F0100085F0100084E
:1000F0005F0100085F0100085F0100085F01000860
:100100005F0100085F0100085F0100085F0100084F
:100110005F0100085F0100085F0100085F0100083F
:100120005F0100085F0100085F0100085F0100082F
:10013000DFF80CD000F0BCF8004800479D720108C1
:10014000D08600200648804706480047FEE7FEE7C5
:10015000FEE7FEE7FEE7FEE7FEE7FEE7FEE7FEE777
:1001600011400108310100082DE9F0410024254625
:10017000002905DA01240027D0EB070067EB010115
:10018000002B05DA0027D2EB0702012567EB0303FA
:1001900000F05CF886460E4617469C46AC4204D0FA
:1001A0000025D0EB050E65EB010624B10020D2EB53
:1001B000000760EB030C704631463A466346BDE8E3
:1001C000F08140EA01039B0703D009E008C9121F30
:1001D00008C0042AFAD203E011F8013B00F8013B01
:1001E000521EF9D27047D2B201E000F8012B491E2D
:1001F000FBD270470022F6E710B513460A460446C4
:100200001946FFF7F0FF204610BD421E12F8013FCD
:10021000002BFBD111F8013B02F8013B002BF9D177
:100220007047421C10F8011B0029FBD1801A70474F
:1002300010B5002200E0521C835C8C5CA34201D10B
:10024000002BF8D1D8B2E1B2401A10BD2DE9F05F11
:100250000546002092469B46884606468146402435
:100260001BE0284641464746224600F042F85346E6
:100270005A46C01A914110D311461846224600F042
:1002800029F82D1A67EB01084F462246012000216C
:1002900000F020F817EB00094E41201EA4F10104E4
:1002A000DFDC484631462A464346BDE8F09F000061
:1002B000064C074D06E0E06840F0010394E80700B3
:1002C00098471034AC42F6D3FFF736FFC89E0208B9
:1002D000E89E0208202A04DB203A00FA02F10020FE
:1002E00070479140C2F1200320FA03F31943904074
:1002F0007047202A04DB203A21FA02F000217047DF
:1003000021FA02F3D040C2F120029140084319467D
:10031000704770B501EB020410F8015B15F007039C
:1003200001D110F8013B2A1106D110F8012B03E08E
:1003300010F8016B01F8016B5B1EF9D12B0705D496
:100340000023521E0FD401F8013BFAE710F8013BDD
:1003500002F10202A1EB030303E013F8015B01F8D1
:10036000015B521EF9D5A142D6D3002070BD10B555
:100370000446BE22152116F001FF1A22114620461E
:1003800016F05EFC20467822BDE81040012116F0F0
:1003900057BC000010B5017E044641B1012906D0CA
:1003A000022907D0BDE810400AA014F0B1BFB8225E
:1003B00015210BE00A221A2116F042FC002201212D
:1003C000204616F03DFCA02215212046BDE8104035
:1003D00016F0D4BE556E6B6E6F776E206D6F6465D0
:1003E0002025640D0A000000F8B50D4614460646A7
:1003F000694615F023FA0098800703D00020286092
:100400002060F8BD56F81D0F28607068206001203C
:10041000F8BD000038B5044600208DF8000069469C
:10042000204608F0D7FEFF2804D09DF800000328DE
:1004300001D0FF2038BD2068802101EA80124021D0
:1004400001EA001002434821204616F0F9FB20463D
:10045000FFF78DFF42220C21204616F08FFE44222A
:100460000B21204616F08AFE0122CF21204616F0ED
:10047000BBFA2079C107090FC0F3400241EA8201AB
:10048000C0F3800241EA4203C0F3C0000343F022FC
:100490000221204616F07DFE2046E278032116F068
:1004A0006DFEA0781F224007030E0421204616F09F
:1004B00070FE2079C0F30011C900C0F3401241EA78
:1004C0008201C0F3801241EA4203C0F3C01003432B
:1004D000F0220521204616F05CFE302269212046DC
:1004E00016F082FAA6220621204616F047FE7F2249
:1004F0001421204616F042FE207A012101EB400033
:10050000C2B2BA21204616F06FFADC22F32120464F
:1005100016F06AFA2322F921204616F065FA232202
:100520004521204616F060FA2D22C921204616F0FA
:100530005BFA0122B521204616F090F82046627839
:10054000022116F08BF8A088EF22C0F300200301EF
:100550003021204616F01DFEC2224021204616F012
:100560000DFED7224121204616F008FE9822462192
:10057000204616F003FEC0226E21204616F0FEFD36
:1005800010227321204616F0F9FD01222049204651
:1005900015F0CEFF1E4947F67F72491C204615F024
:1005A000C7FF00221B49204615F0C2FF19498022CF
:1005B000491C204615F0BCFF16498022891C2046A4
:1005C00015F0B6FF13490022C91C204615F0B0FFF4
:1005D0000320C4F8B000204600F020F92046FFF7C1
:1005E000D9FE207E18B90521204600F037FA207E7A
:1005F000012803D13121204600F030FA207E022864
:1006000003D10A21204600F029FA012038BD00005C
:100610000119A0000009980010B5044691B100220C
:10062000772117F059F802227E21204617F054F85E
:100630000F227721204617F04FF8BDE81040052023
:1006400005F03EB900F0D6F900227E21F2E7000065
:1006500070B590B0064616F0ADFD002863D060215D
:10066000304616F083FDC0075FD08321304616F078
:100670007DFDC00715D02FA014F04AFE0122852170
:10068000304616F07BFD8321304616F06FFDC00723
:1006900007D035A014F03CFE01228521304616F02B
:1006A0006DFDE221304616F0BCFC0546E1213046E6
:1006B00016F0B7FC044601462A4637A014F028FE7F
:1006C000022C2ED100240BADE1B2304616F0A9FC6D
:1006D0002855641C0E2CF7DB9DF8360007AC9DF8FE
:1006E00039309DF838209DF837100FC49DF832003E
:1006F00003AC9DF835309DF834209DF833100FC4BD
:100700009DF82F009DF831209DF830108DE80700EE
:100710009DF82E309DF82D209DF82C10284814F0BF
:10072000F7FD10B070BD27A000E034A014F0F0FD7C
:10073000F7E7000041564920696E666F6672616D89
:100740006520636865636B73756D206572726F7287
:1007500020686173206F63637572726564206561E0
:10076000726C6965720D0A0041564920696E666FA8
:100770006672616D6520636865636B73756D206576
:1007800072726F72207374696C6C2070726573651D
:100790006E740D0A0000000041564920696E666FB4
:1007A0006672616D652076657273696F6E2025646F
:1007B000202825642062797465290D0A0000000054
:1007C000D428020872656365697665204456492D10
:1007D00044207369676E616C202841564920696E18
:1007E000666F6672616D65206E6F742073757070D0
:1007F0006F72746564290D0A00000000415649209B
:10080000696E666F6672616D65206E6F74207265C9
:100810006365697665640D0A0000000010B5017E0D
:10082000044641B1012906D002296FD0BDE810402D
:1008300066A014F06DBD0222002116F09FFC02227A
:100840000121204616F09AFC04220D21204616F0C4
:10085000F7F900223D21204616F0F2F974223E21DC
:10086000204616F0EDF93B224E21204616F0E8F91D
:1008700074225721204616F0E3F9632258212046BE
:1008800016F0DEF918228D21204616F0D9F934220F
:100890008E21204616F0D4F988229321204616F0A6
:1008A000CFF92E229421204616F0CAF90022962173
:1008B000204616F0C5F908220021204615F0CEFE8C
:1008C00006220121204615F0C9FE0022C82120463B
:1008D00015F0C4FE85221521204615F0BFFE7B22AF
:1008E0001221204615F0BAFE1F220C21204615F0D9
:1008F000B5FE84223E21204616F076F83922C32127
:10090000204616F071F856225AE0FFE784220D21A6
:1009100016F096F910223D21204616F091F9392261
:100920003E21204616F08CF93B224E21204616F03F
:1009300087F9B6225721204616F082F90322582162
:10094000204616F07DF918228D21204616F078F900
:1009500034228E21204616F073F98B2293212046F3
:1009600016F06EF92D229421204616F069F9012225
:100970009621204616F064F9FF220021204615F04A
:100980006DFEFE220121204615F068FE4022C8219E
:10099000204615F063FEFB221221204615F05EFE74
:1009A0000D220C21204615F059FE80223E212046C2
:1009B00016F01AF83922C321204616F015F88022C5
:1009C0002046BDE81040402116F00EB8414456378D
:1009D0003630345F53656C656374496E7075743A74
:1009E00020556E6B6E6F776E206D6F646520256489
:1009F0000D0A000070B50C4605460022772116F05E
:100A00006BFE2146284600F051F82846BDE87040AC
:100A10000F22772116F060BE10B504460176FFF76D
:100A2000FDFE2046FFF7B6FC207E18B905212046C2
:100A300000F014F8207E012803D13121204600F077
:100A40000DF8207E022803D10A21204600F006F886
:100A50000320C4F8B000012010BD000010B504460A
:100A60003A2901D9002010BD01EB4110064984222A
:100A700001EB80010548FFF7A4FB0449204615F06F
:100A8000ABFD012010BD0000ACEA0108445200207B
:100A900010B50446FFF7AEFF01227E21204616F076
:100AA0001BFEBDE81040052004F0FFBE70B5002419
:100AB00005460A2916D90A39C8B20BF09BF9FE4E31
:100AC000E1B22846325D16F057F8641C7F2CF7DD42
:100AD0008024E1B20022284616F04EF8641CFF2C58
:100AE000F7DD70BD00297CD0012901F00A820229BE
:100AF0004FF00002114601F0818416F03DF8FF220C
:100B00000121284616F038F8FF220221284616F067
:100B100033F8FF220321284616F02EF8FF22042185
:100B2000284616F029F8FF220521284616F024F859
:100B3000FF220621284616F01FF80022072128462A
:100B400016F01AF810220821284616F015F8AC22E3
:100B50000921284616F010F824220A21284616F00A
:100B60000BF8A0220B21284616F006F853220C2180
:100B7000284616F001F852220D21284615F0FCFFF8
:100B80004A220E21284615F0F7FF31220F21284670
:100B900015F0F2FF01221021284615F0EDFF112279
:100BA0001146284615F0E8FF01221221284615F0CB
:100BB000E3FF03221321284615F0DEFF68221421EB
:100BC000284615F0D9FF26221521284615F0D4FF16
:100BD0001E221621284615F0CFFF7822172128461D
:100BE00000E0FDE315F0C8FFEE221821284615F0BD
:100BF000C3FFCA221921284615F0BEFFF6221A218A
:100C0000284615F0B9FFA3221B21284615F0B4FF92
:100C100057221C21284615F0AFFF47221D212846E8
:100C200015F0AAFF9E221E21284615F0A5FF2322BB
:100C30001F21284615F0A0FF11222021284615F07B
:100C40009BFF4F222121284615F096FF5422222196
:100C5000284615F091FFA5222321284615F08CFF88
:100C60004B222421284615F087FF00222521284603
:100C700015F082FF71222621284615F07DFF4F22B4
:100C80002721284615F078FF81222821284615F0D3
:100C900073FF80222921284615F06EFF01222A21A8
:100CA000284615F069FF01222B21284615F064FF24
:100CB00001222C21284615F05FFF01222D21284614
:100CC00015F05AFF01222E21284615F055FF01226A
:100CD0002F21284615F050FF01223021284615F01B
:100CE0004BFF01223121284615F046FF0122322117
:100CF000284615F041FF01223321284615F03CFF1C
:100D000001223421284615F037FF012235212846DB
:100D100015F032FF30223621284615F02DFF2A2209
:100D20003721284615F028FF00223821284615F0E3
:100D300023FF98223921284615F01EFF51223A211F
:100D4000284615F019FF00223B21284615F014FF14
:100D50002A223C21284615F00FFF40223D2128463B
:100D600015F00AFF30223E21284615F005FF7022BB
:100D70003F21284615F000FF13224021284615F098
:100D8000FBFE00224121284615F0F6FE7C2242217E
:100D9000284615F0F1FE31224321284615F0ECFEDD
:100DA00011224421284615F0E7FE0022452128465D
:100DB00015F0E2FE00224621284615F0DDFE1E2237
:100DC0004721284615F0D8FE00224821284615F074
:100DD000D3FE00224921284615F0CEFE00224A21EA
:100DE000284615F0C9FEFD224B21284615F0C4FE09
:100DF00000224C21284615F0BFFE38224D212846FE
:100E000015F0BAFE4B224E21284615F0B5FE1F22E2
:100E10004F21284615F0B0FE50221146284615F005
:100E2000ABFE0E225121284615F0A6FE00225221CB
:100E3000284615F0A1FE0A225321284615F09CFEF3
:100E400020225421284615F097FE202255212846BD
:100E500015F092FE20225621284615F08DFE202204
:100E60005721284615F088FE20225821284615F0E3
:100E700083FE20225921284615F07EFE00225A21A9
:100E8000284615F079FE00225B21284615F074FEF5
:100E900000225C21284615F06FFEFF225D212846C6
:100EA00015F06AFE00225E21284615F065FE5522E7
:100EB0005F21284602E00000F050002015F05CFEA3
:100EC00048226021284615F057FE35226121284628
:100ED00015F052FE37226221284615F04DFE3022D1
:100EE0006321284615F048FE37226421284615F074
:100EF00043FE31226521284615F03EFE322266214E
:100F0000284615F039FE31226721284615F034FEB7
:100F10004A226821284615F02FFE522269212846D0
:100F200015F02AFE53226A21284615F025FE0A22D2
:100F30006B21284615F020FE00226C21284615F072
:100F40001BFE00226D21284615F016FE00226E21A0
:100F5000284615F011FEFC226F21284615F00CFEE4
:100F600000227021284615F007FE442271212846F0
:100F700015F002FE45227221284615F0FDFD4C2297
:100F80007321284615F0F8FD4C227421284615F0EF
:100F9000F3FD20227521284615F0EEFD452276212D
:100FA000284615F0E9FD31227721284615F0E4FDA9
:100FB00039227821284615F0DFFD3722792128468D
:100FC00015F0DAFD46227A21284615F0D5FD50228B
:100FD0007B21284615F0D0FD0A227C21284615F0F9
:100FE000CBFD20227D21284615F0C6FD00227E2162
:100FF000284615F0C1FD29227F21284615F0BCFDA9
:1010000000228021284615F0B7FD002281212846C4
:1010100015F0B2FD00228221284615F0ADFD002218
:101020008321284615F0A8FD00228421284615F0CA
:10103000A3FD00228521284615F09EFD0022862171
:10104000284615F099FD00228721284615F094FDC9
:1010500000228821284615F08FFD0022892128468C
:1010600015F08AFD00228A21284615F085FD002210
:101070008B21284615F080FD00228C21284615F092
:101080007BFD00228D21284615F076FD00228E2161
:10109000284615F071FD00228F21284615F06CFDC1
:1010A00000229021284615F067FD00229121284654
:1010B00015F062FD00229221284615F05DFD002208
:1010C0009321284615F058FD00229421284615F05A
:1010D00053FD00229521284615F04EFD0022962151
:1010E000284615F049FD00229721284615F044FDB9
:1010F00000229821284615F03FFD0022992128461C
:1011000015F03AFD00229A21284615F035FD0022FF
:101110009B21284615F030FD00229C21284615F021
:101120002BFD00229D21284615F026FD00229E2140
:10113000284615F021FD00229F21284615F01CFDB0
:101140000022A021284615F017FD0022A1212846E3
:1011500015F012FD0022A221284615F00DFD0022F7
:10116000A321284615F008FD0022A421284615F0E9
:1011700003FD0022A521284615F0FEFC0022A62131
:10118000284615F0F9FC0022A721284615F0F4FCAA
:101190000022A821284615F0EFFC0022A9212846AC
:1011A00015F0EAFC0022AA21284615F0E5FC0022F1
:1011B000AB21284615F0E0FC0022AC21284615F0B2
:1011C000DBFC0022AD21284615F0D6FC0022AE2122
:1011D000284615F0D1FC0022AF21284615F0CCFCA2
:1011E0000022B021284615F0C7FC0022B121284674
:1011F00015F0C2FC0022B221284615F0BDFC0022E9
:10120000B321284615F0B8FC0022B421284615F079
:10121000B3FC0022B521284615F0AEFC0022B62111
:10122000284615F0A9FC0022B721284615F0A4FC99
:101230000022B821284615F09FFC0022B92128463B
:1012400015F09AFC0022BA21284615F095FC0022E0
:10125000BB21284615F090FC0022BC21284615F041
:101260008BFC0022BD21284615F086FC0022BE2101
:10127000284615F081FC0022BF21284615F07CFC91
:101280000022C021284615F077FC0022C121284603
:1012900015F072FC0022C221284615F06DFC0022D8
:1012A000C321284615F068FC0022C421284615F009
:1012B00063FC0022C521284615F05EFC0022C621F1
:1012C000284615F059FC0022C721284615F054FC89
:1012D0000022C821284615F04FFC0022C9212846CB
:1012E00015F04AFC0022CA21284615F045FC0022D0
:1012F000CB21284615F040FC0022CC21284615F0D1
:101300003BFC0022CD21284615F036FC0022CE21E0
:10131000284615F031FC0022CF21284615F02CFC80
:101320000022D021284615F027FC0022D121284692
:1013300015F022FC0022D221284615F01DFC0022C7
:10134000D321284615F018FC0022D421284615F098
:1013500013FC0022D521284615F00EFC0022D621D0
:10136000284615F009FC0022D721284615F004FC78
:101370000022D821284615F0FFFB0022D92128465B
:1013800015F0FAFB0022DA21284615F0F5FB0022C1
:10139000DB21284615F0F0FB0022DC21284615F061
:1013A000EBFB0022DD21284615F0E6FB0022DE21C2
:1013B000284615F0E1FB0022DF21284615F0DCFB72
:1013C0000022E021284615F0D7FB0022E121284623
:1013D00015F0D2FB0022E221284615F0CDFB00E0FB
:1013E00092E00022E321284615F0C6FB0022E4210A
:1013F000284615F0C1FB0022E521284615F0BCFB6C
:101400000022E621284615F0B7FB0022E7212846F6
:1014100015F0B2FB0022E821284615F0ADFB0022B2
:10142000E921284615F0A8FB0022EA21284615F0FC
:10143000A3FB0022EB21284615F09EFB0022EC21A5
:10144000284615F099FB0022ED21284615F094FB63
:101450000022EE21284615F08FFB0022EF212846BE
:1014600015F08AFB0022F021284615F085FB0022AA
:10147000F121284615F080FB0022F221284615F0C4
:101480007BFB0022F321284615F076FB0022F42195
:10149000284615F071FB0022F521284615F06CFB5B
:1014A0000022F621284615F067FB0022F721284686
:1014B00015F062FB0022F821284615F05DFB0022A2
:1014C000F921284615F058FB0022FA21284615F08C
:1014D00053FB0022FB21284615F04EFB0022FC2185
:1014E000284615F049FB0022FD21284615F044FB53
:1014F0000022FE21284615F03FFB00222846BDE8C9
:101500007040FF2115F038BB0022114615F034FB66
:10151000FF220121284615F02FFBFF220221284639
:1015200015F02AFBFF220321284615F025FBFF2298
:101530000421284615F020FBFF220521284615F03E
:101540001BFBFF220621284615F016FB002207216F
:10155000284615F011FB41220821284615F00CFB06
:101560000C220921284615F007FB7B220A21284678
:1015700015F002FBC0220B21284615F0FDFA64226B
:101580000C21284615F0F8FA06220D21284615F000
:10159000F3FA00220E21284615F0EEFA00220F2160
:1015A000284615F0E9FA17221021284615F0E4FA2A
:1015B00016221121284615F0DFFA012212212846B1
:1015C00015F0DAFA03221321284615F0D5FA802205
:1015D0001421284615F0D0FA30221521284615F09E
:1015E000CBFA1B221621284615F0C6FA78221721BD
:1015F000284615F0C1FA2A221821284615F0BCFA0F
:101600000A221921284615F0B7FA45221A21284640
:1016100015F0B2FAA7221B21284615F0ADFA542284
:101620001C21284615F0A8FA4A221D21284615F04B
:10163000A3FA99221E21284615F09EFA25221F2181
:10164000284615F099FA11222021284615F094FA1F
:1016500050222121284615F08FFA542222212846B3
:1016600015F08AFABD222321284615F085FA4B226F
:101670002421284615F080FA00222521284615F05D
:101680007BFAD1222621284615F076FAC02227219E
:10169000284615F071FA81222821284615F06CFAA7
:1016A00080222921284615F067FA95222A2128460A
:1016B00015F062FA0F222B21284615F05DFA9522CB
:1016C0002C21284615F058FA00222D21284615F025
:1016D00053FAB3222E21284615F04EFA00222F216C
:1016E000284615F049FA01223021284615F044FA1F
:1016F00001223121284615F03FFA012232212846E5
:1017000015F03AFA01223321284615F035FA012264
:101710003421284615F030FA01223521284615F0EB
:101720002BFA02223621284615F026FA3A223721D2
:10173000284615F021FA80223821284615F01CFA97
:1017400018223921284615F017FA71223A21284625
:1017500015F012FA38223B21284615F00DFA2D22F9
:101760003C21284615F008FA40223D21284615F074
:1017700003FA58223E21284615F0FEF92C223F217B
:10178000284615F0F9F945224021284615F0F4F9CC
:1017900000224121284615F0EFF9E0224221284697
:1017A00015F0EAF90C224321284615F0E5F911223B
:1017B0004421284615F0E0F900224521284615F07D
:1017C000DBF900224621284615F0D6F91E224721D2
:1017D000284615F0D1F900224821284615F0CCF909
:1017E00000224921284615F0C7F900224A2128463F
:1017F00015F0C2F9FF224B21284615F0BDF9002251
:101800004C21284615F0B8F941224D21284615F003
:10181000B3F955224E21284615F0AEF933224F2157
:10182000284615F0A9F931225021284615F0A4F9CF
:1018300032225121284615F09FF9322252212846A2
:1018400015F09AF933225321284615F095F93022E4
:101850005421284615F090F930225521284615F0DC
:101860008BF931225621284615F086F93622572168
:10187000284615F081F933225821284615F07CF9C5
:1018800036225921284615F077F900225A21284698
:1018900015F072F900225B21284615F06DF900223F
:1018A0005C21284615F068F9FC225D21284615F0D8
:1018B00063F900225E21284615F05EF948225F2177
:1018C000284615F059F944226021284615F054F9AC
:1018D0004D226121284615F04FF949226221284600
:1018E00015F04AF92D226321284615F045F95322B7
:1018F0006421284615F040F957226521284615F045
:101900003BF949226621284615F036F95422672111
:10191000284615F031F943226821284615F02CF9A4
:1019200048226921284615F027F90A226A2128460B
:1019300015F022F920226B21284615F01DF900220E
:101940006C21284615F018F900226D21284615F063
:1019500013F900226E21284615F00EF9FD226F21A1
:10196000284615F009F900227021284615F004F9DF
:1019700038227121284615F0FFF84C2272212846A2
:1019800015F0FAF81E227321284615F0F5F85322B7
:101990007421284615F0F0F811227521284615F01B
:1019A000EBF800227621284615F0E6F80A22772186
:1019B000284615F0E1F820227821284615F0DCF8B9
:1019C00020227921284615F0D7F820227A212846AE
:1019D00015F0D2F820227B21284615F0CDF82022E0
:1019E0007C21284615F0C8F820227D21284615F0D4
:1019F000C3F801227E21284615F0BEF84D227F2132
:101A0000284615F0B9F802228021284615F0B4F8CE
:101A100003228121284615F0AFF822228221284690
:101A200015F0AAF8F1228321284615F0A5F84F22D7
:101A30008421284615F0A0F801228521284615F0BA
:101A40009BF802228621284615F096F8032287216A
:101A5000284615F091F805228821284615F08CF8C3
:101A600006228921284615F087F807228A21284670
:101A700015F082F810228B21284615F07DF81122EE
:101A80008C21284615F078F812228D21284615F071
:101A900073F813228E21284615F06EF814228F2138
:101AA000284615F069F815229021284615F064F8AB
:101AB00016229121284615F05FF81F229221284610
:101AC00015F05AF804229321284615F055F82322E0
:101AD0009421284615F050F809229521284615F042
:101AE0004BF817229621284615F046F80722972131
:101AF000284615F041F883229821284615F03CF835
:101B000001229921284615F037F800229A2128460B
:101B100015F032F800229B21284615F02DF8652299
:101B20009C21284615F028F803229D21284615F00F
:101B300023F80C229E21284615F01EF800229F2132
:101B4000284615F019F81022A021284615F014F89F
:101B50000022A121284615F00FF80222A2212846D2
:101B600015F00AF83A22A321284615F005F880223C
:101B7000A421284615F000F81822A521284614F0C3
:101B8000FBFF7122A621284614F0F6FF3822A72178
:101B9000284614F0F1FF2D22A821284614F0ECFF6E
:101BA0004022A921284614F0E7FF5822AA212846FE
:101BB00014F0E2FF2C22AB21284614F0DDFF452271
:101BC000AC21284614F0D8FF0022AD21284614F09D
:101BD000D3FFE022AE21284614F0CEFF0C22AF2125
:101BE000284614F0C9FF1122B021284614F0C4FF82
:101BF0000022B121284614F0BFFF0022B22128465E
:101C000014F0BAFF1E22B321284614F0B5FF8C222F
:101C1000B421284614F0B0FF0A22B521284614F05A
:101C2000ABFFD022B621284614F0A6FF8A22B721A6
:101C3000284614F0A1FF2022B821284614F09CFF6A
:101C4000E022B921284614F097FF2D22BA21284618
:101C500014F092FF1022BB21284614F08DFF1022B1
:101C6000BC21284614F088FF3E22BD21284614F0EE
:101C700083FF9622BE21284614F07EFF0022BF215A
:101C8000284614F079FFE022C021284614F074FFA2
:101C90000C22C121284614F06FFF1122C2212846D0
:101CA00014F06AFF0022C321284614F065FF0022C9
:101CB000C421284614F060FF1822C521284614F0DC
:101CC0005BFF0122C621284614F056FF1D22C721C2
:101CD000284614F051FF0022C821284614F04CFF7A
:101CE0007222C921284614F047FF5122CA212846F2
:101CF00014F042FFD022CB21284614F03DFF1E22D3
:101D0000CC21284614F038FF2022CD21284614F09B
:101D100033FF6E22CE21284614F02EFF2822CF2139
:101D2000284614F029FF5522D021284614F024FF1C
:101D30000022D121284614F01FFFE022D22128469C
:101D400014F01AFF0C22D321284614F015FF11229B
:101D5000D421284614F010FF0022D521284614F083
:101D60000BFF0022D621284614F006FF1E22D721A1
:101D7000284614F001FF8C22D821284614F0FCFEDE
:101D80000A22D921284614F0F7FED022DA2128466B
:101D900014F0F2FE9022DB21284614F0EDFE202202
:101DA000DC21284614F0E8FE4022DD21284614F00C
:101DB000E3FE3122DE21284614F0DEFE2022DF2160
:101DC000284614F0D9FE0C22E021284614F0D4FE57
:101DD0004022E121284614F0CFFE5522E221284678
:101DE00014F0CAFE0022E321284614F0C5FEE022CA
:101DF000E421284614F0C0FE0C22E521284614F008
:101E0000BBFE1122E621284614F0B6FE0022E7218F
:101E1000284614F0B1FE0022E821284614F0ACFE5A
:101E20001822E921284614F0A7FE0022EA212846BC
:101E300014F0A2FE0022EB21284614F09DFE0022A1
:101E4000EC21284614F098FE0022ED21284614F0DB
:101E500093FE0022EE21284614F08EFE0022EF2190
:101E6000284614F089FE0022F021284614F084FE52
:101E70000022F121284614F07FFE0022F22128469C
:101E800014F07AFE0022F321284614F075FE002299
:101E9000F421284614F070FE0022F521284614F0A3
:101EA0006BFE0022F621284614F066FE0022F72180
:101EB000284614F061FE0022F821284614F05CFE4A
:101EC0000022F921284614F057FE0022FA21284664
:101ED00014F052FE0022FB21284614F04DFE002291
:101EE000FC21284614F048FE0022FD21284614F06B
:101EF00043FE0022FE21284614F03EFEAA22FFF7F0
:101F0000FDBA0022114614F037FEFF2201212846B7
:101F100014F032FEFF220221284614F02DFEFF228B
:101F20000321284614F028FEFF220421284614F03D
:101F300023FEFF220521284614F01EFEFF22062163
:101F4000284614F019FE00220721284614F014FE3A
:101F500015220821284614F00FFEC3220921284625
:101F600014F00AFE59220A21284614F005FE172211
:101F70000B21284614F000FE01220C21284614F003
:101F8000FBFD01220D21284614F0F6FD01220E2151
:101F9000284614F0F1FD01220F21284614F0ECFD33
:101FA00020221021284614F0E7FD0E221121284698
:101FB00014F0E2FD01221221284614F0DDFD032277
:101FC0001321284614F0D8FD80221421284614F04D
:101FD000D3FD29221521284614F0CEFD1F221621FB
:101FE000284614F0C9FD78221721284614F0C4FDB4
:101FF000EA221821284614F0BFFDD62219212846CE
:1020000014F0BAFDF5221A21284614F0B5FDA422D9
:102010001B21284614F0B0FD56221C21284614F03E
:10202000ABFD4B221D21284614F0A6FD9A221E214D
:10203000284614F0A1FD24221F21284614F09CFDFF
:1020400017222021284614F097FD502221212846EE
:1020500014F092FD54222221284614F08DFDA12275
:102060002321284614F088FD08222421284614F054
:1020700083FD00222521284614F07EFDA922262179
:10208000284614F079FD40222721284614F074FDDB
:1020900081222821284614F06FFD8022292128461C
:1020A00014F06AFD01222A21284614F065FD012260
:1020B0002B21284614F060FD01222C21284614F023
:1020C0005BFD01222D21284614F056FD01222E2110
:1020D000284614F051FD01222F21284614F04CFD12
:1020E00001223021284614F047FD012231212846E3
:1020F00014F042FD01223221284614F03DFD012258
:102100003321284614F038FD01223421284614F0EA
:1021100033FD01223521284614F02EFD48223621B8
:10212000284614F029FD3F223721284614F024FDCB
:1021300040223821284614F01FFD3022392128463C
:1021400014F01AFD62223A21284614F015FDB0223F
:102150003B21284614F010FD32223C21284614F081
:102160000BFD40223D21284614F006FD40223E2171
:10217000284614F001FDC0223F21284614F0FCFC43
:1021800013224021284614F0F7FC00224121284662
:1021900014F0F2FC98224221284614F0EDFC322281
:1021A0004321284614F0E8FC11224421284614F06B
:1021B000E3FC00224521284614F0DEFC00224621E3
:1021C000284614F0D9FC1E224721284614F0D4FCDE
:1021D00000224821284614F0CFFC0022492128463D
:1021E00014F0CAFC00224A21284614F0C5FCFF2244
:1021F0004B21284614F0C0FC00224C21284614F044
:10220000BBFC31224D21284614F0B6FC0A224E2197
:10221000284614F0B1FC20224F21284614F0ACFCD3
:1022200020225021284614F0A7FC202251212846C4
:1022300014F0A2FC20225221284614F09DFC2022FA
:102240005321284614F098FC20225421284614F0EB
:1022500093FC20225521284614F08EFC2022562182
:10226000284614F089FC20225721284614F084FCCB
:1022700020225821284614F07FFC2022592128468C
:1022800014F07AFC00225A21284614F075FC002232
:102290005B21284614F070FC00225C21284614F0D3
:1022A0006BFCFD225D21284614F066FC00225E21B5
:1022B000284614F061FC3B225F21284614F05CFCA8
:1022C0003D226021284614F057FC1F226121284638
:1022D00014F052FC4C226221284614F04DFC1122CD
:1022E0006321284614F048FC00226421284614F09B
:1022F00043FC0A226521284614F03EFC2022662178
:10230000284614F039FC20226721284614F034FCBA
:1023100020226821284614F02FFC2022692128461B
:1023200014F02AFC20226A21284614F025FC2022E1
:102330006B21284614F020FC00226C21284614F062
:102340001BFC00226D21284614F016FC00226E2191
:10235000284614F011FCFC226F21284614F00CFCD6
:1023600000227021284614F007FC4C2271212846D7
:1023700014F002FC38227221284614F0FDFB3822AA
:102380007321284614F0F8FB37227421284614F0F4
:10239000F3FB0A227521284614F0EEFB2022762159
:1023A000284614F0E9FB20227721284614F0E4FBAC
:1023B00020227821284614F0DFFB202279212846AC
:1023C00014F0DAFB20227A21284614F0D5FB2022D3
:1023D0007B21284614F0D0FB20227C21284614F0D3
:1023E000CBFB20227D21284614F0C6FB00227E2153
:1023F000284614F0C1FB6122FEF7FEBD14F0BCFBC1
:10240000FF220121284614F0B7FBFF2202212846B3
:1024100014F0B2FBFF220321284614F0ADFBFF228B
:102420000421284614F0A8FBFF220521284614F0B9
:10243000A3FBFF220621284614F09EFB0022072161
:10244000284614F099FB41220821284614F094FBF9
:102450000C220921284614F08FFB7D220A212846F0
:1024600014F08AFB08220B21284614F085FB602219
:102470000C21284614F080FBD2220D21284614F0AE
:102480007BFB0A220E21284614F076FB00220F2146
:10249000284614F071FB14221021284614F06CFB1E
:1024A00015221121284614F067FB0122122128462B
:1024B00014F062FB03221321284614F05DFB8022F6
:1024C0001421284614F058FB34221521284614F014
:1024D00053FB20221621284614F04EFB78221721A8
:1024E000284614F049FBEE221821284614F044FB3C
:1024F0009F221921284614F03FFBF5221A21284675
:1025000014F03AFBA6221B21284614F035FB562274
:102510001C21284614F030FB4B221D21284614F0C4
:102520002BFB9A221E21284614F026FB25221F2170
:10253000284614F021FB12222021284614F01CFB0F
:1025400050222121284614F017FB5422222128462C
:1025500014F012FBBF222321284614F00DFBEF22BA
:102560002421284614F008FB80222521284614F057
:1025700003FB71222621284614F0FEFA402227216F
:10258000284614F0F9FA81222821284614F0F4FA9A
:1025900040222921284614F0EFFA81222A212846D8
:1025A00014F0EAFAC0222B21284614F0E5FA95220D
:1025B0002C21284614F0E0FA00222D21284614F0A0
:1025C000DBFA95222E21284614F0D6FA0F222F216D
:1025D000284614F0D1FAA9223021284614F0CCFA6A
:1025E00040223121284614F0C7FAB322322128466E
:1025F00014F0C2FA00223321284614F0BDFA012259
:102600003421284614F0B8FA01223521284614F066
:10261000B3FA28223621284614F0AEFA3C2237219C
:10262000284614F0A9FA80223821284614F0A4FA8A
:10263000A0223921284614F09FFA70223A21284618
:1026400014F09AFAB0223B21284614F095FA23227E
:102650003C21284614F090FA40223D21284614F0EF
:102660008BFA30223E21284614F086FA20223F21A0
:10267000284614F081FA36224021284614F07CFACC
:1026800000224121284614F077FA072242212846E9
:1026900014F072FA44224321284614F06DFA2122E4
:1026A0004421284614F068FA00224521284614F0F7
:1026B00063FA00224621284614F05EFA1A224721C6
:1026C000284614F059FA00224821284614F054FAFA
:1026D00000224921284614F04FFA00224A212846B8
:1026E00014F04AFAFF224B21284614F045FA002242
:1026F0004C21284614F040FA44224D21284614F07B
:102700003BFA4C224E21284614F036FA34224F214F
:10271000284614F031FA31225021284614F02CFAC0
:1027200031225121284614F027FA3222522128461C
:1027300014F022FA30225321284614F01DFA3722D1
:102740005421284614F018FA30225521284614F056
:1027500013FA39225621284614F00EFA3222572154
:10276000284614F009FA31225821284614F004FAB8
:1027700036225921284614F0FFF900225A21284612
:1027800014F0FAF900225B21284614F0F5F9002232
:102790005C21284614F0F0F9FC225D21284614F053
:1027A000EBF900225E21284614F0E6F950225F2161
:1027B000284614F0E1F968226021284614F0DCF97B
:1027C00069226121284614F0D7F96C22622128463B
:1027D00014F0D2F969226321284614F0CDF9702251
:1027E0006421284614F0C8F973226521284614F0A4
:1027F000C3F920226621284614F0BEF9322267214F
:10280000284614F0B9F934226821284614F0B4F9A6
:1028100030226921284614F0AFF953226A21284654
:1028200014F0AAF90A226B21284614F0A5F9002217
:102830006C21284614F0A0F900226D21284614F0DE
:102840009BF900226E21284614F096F9FD226F2193
:10285000284614F091F900227021284614F08CF9D2
:1028600030227121284614F087F95522722128461A
:1028700014F082F918227321284614F07DF95E22A3
:102880007421284614F078F911227521284614F095
:1028900073F900227621284614F06EF90A22772176
:1028A000284614F069F920227821284614F064F9AA
:1028B00020227921284614F05FF920227A21284627
:1028C00014F05AF920227B21284614F055F92022D1
:1028D0007C21284614F050F920227D21284614F04E
:1028E0004BF900227E21284614F046F9FB2283E5AD
:1028F0000B4810B5007802280BD001280FD10949E8
:10290000802013F0EBFE0849BDE81040902013F042
:10291000E5BE0649802013F0E1FE0549F4E710BD4D
:10292000E8040020C383010826840108BB83010852
:102930003684010810B513F0F3FE0B480078022826
:102940000BD001280FD10949822013F0C7FE084996
:10295000BDE81040902013F0C1BE0649822013F05C
:10296000BDFE0549F4E710BDE804002072830108AC
:10297000978301086483010882830108E42012F030
:1029800089B810B501200DF06DFBBDE810400020A6
:102990000DF068BB034A118821F460710143118076
:1029A000704700002C6C004008B5024908440090B4
:1029B000008808BD006C00400149086070470000B5
:1029C00000860D4208B5024A10440090016008BD1F
:1029D000006C0040164810B500780021612817D01F
:1029E00068281CD06F2821D1124C134A2078401E31
:1029F000C0B2207011549030C0B210A113F06EFE1E
:102A00002078BDE810409130C0B20DA113F066BE31
:102A10000C4C0D4A2078401EC0B22070EAE70B4CE7
:102A20000B4A2078401EC0B22070E3E710BD0000C2
:102A30001E050020100000202A0000205F0000007A
:102A4000200000000E0000201C0000200F000020CD
:102A5000230000202DE9F047724E734F0025307897
:102A6000A7F11004AC2816D004F11309AD2833D017
:102A700004F11608AE284DD00937AF2874D0B0281D
:102A800073D16AA1962013F029FE207B00286DD017
:102A900001286CD088E065A1862013F01FFE207904
:102AA00010B1012811D07FE0AB203070E07808B180
:102AB000401EE070A5705EA1832013F00FFE5E48FB
:102AC000E17845540146832003E0257165713D702E
:102AD00018E013F003FE67E054A1882013F0FEFD18
:102AE000A07910B1012810D05EE0AC2030702079C0
:102AF00008B1401E207165714CA1862013F0EEFDD7
:102B000020793D5448498620E3E7A571E57189F8AD
:102B1000005025E045A1922013F0E0FD207A30B16D
:102B200001287CD12572657288F800505AE020781F
:102B3000032807D001281BD0BDE8F0473FA1922011
:102B400013F0CCBDAD203070A07908B1401EA0714B
:102B5000E57136A1882013F0C1FDA17909F8015073
:102B60003149C91C8820B4E723E058E03EE04EE03C
:102B700033480078012804D0022806D0032808D062
:102B80000BE05E2030702F4806E0652030702E4844
:102B900002E06C2030702D4805702DA1842013F0C8
:102BA0009DFD842015F0DEF9BDE8F0472CA014F05F
:102BB000FBBC1EA1942013F091FDA07A20B1401E11
:102BC000C0B2A072E5721DE0AE203070207A08B16C
:102BD000401E2072657215A1922013F07FFD217AAC
:102BE00008F801501049891D922072E7AF2030701B
:102BF000A07A08B1401EA072E5720CA1942013F0D7
:102C00006DFDA07A08493D540931942061E70648DA
:102C100025730C30657305700146962059E7BDE8B1
:102C2000F08700001E050020380100202020000051
:102C30002020202000000000702700205F200000DE
:102C400011240020EA040020EB040020EC04002002
:102C500020202020202020202020202000000000F4
:102C60005F0000002DE9F0410F4C80460E46E078F1
:102C7000002508B1401EE0700027A770404615F0FF
:102C800071F903E0202013F0CBFE6D1CB542F9DB97
:102C90000648E17847540146404613F01FFDBDE861
:102CA000F04103A014F080BC280100207027002010
:102CB0005F00000010B50446032008F099FD00F401
:102CC00000604FF2F871084320F0300104F0070073
:102CD000084340F48031BDE81040032009F06EB98C
:102CE00070B50546032008F083FD0446401C03D15F
:102CF00029460BA012F00CFB04F400604FF2F871AF
:102D0000084320F0080105F00700084340F4803133
:102D1000032009F053F9BDE87040012002F0DBBD4B
:102D2000426F6172644949434275735377697463B2
:102D300068202564202C2052656164204572726FE2
:102D4000720D0A0070B50546032008F051FD00F42D
:102D500000624FF2F876324322F4804040F40040A3
:102D600005F007040443224629460EA012F0D0FACB
:102D700044F48031032009F021F9012002F0A0FD84
:102D8000032008F035FD00F40064344344F480313E
:102D9000032009F013F922462946BDE8704001A03E
:102DA00012F0B6BA426F617264536C6F74526573FD
:102DB0006574202564202C20575F44617461203D98
:102DC000203078253034580D0A00000010B5044634
:102DD000032008F00DFD00F400604FF2F871084385
:102DE00020F4F87104F00700084340F48031BDE896
:102DF0001040032009F0E2B8F0B50246084615E09D
:102E000000263346841E0DE002EB830C52F823505B
:102E1000DCF80470BD4204DD42F823700126CCF8D2
:102E200004505B1CA342EFDD16B1401E0228E7DA16
:102E30000C46481E15E000BF02EB800552F820301A
:102E400055F8045CAB420BD1034606E052F8235020
:102E500002EB83065B1C46F8045C8B42F6DB641EC7
:102E6000401E0028E8DC2046F0BDFEE77CB5094C9A
:102E7000094DCDE900540146084B094A002006F0EF
:102E8000D7FA2268296802B006A0BDE8704012F0A7
:102E90003FBA000034260020302600202C260020D7
:102EA0002826002067575F5265736F6C7574696FD1
:102EB0006E57696474683A2025642C67575F5265C1
:102EC000736F6C7574696F6E4865696768743A20D2
:102ED00025640D0A00000000704700002DE9F04154
:102EE0002D4E044600257079002853D02B48F168F8
:102EF0000368082904D3D960BDE8F04105F034BE69
:102F000003EB81000069706100280268326141D0E2
:102F1000277857722778577327789772277917720F
:102F2000A2684260E26882602269C26062690261EE
:102F3000A2694261E2698261226AC261626A491CD5
:102F40000262F160587801EB810100EB001000EBA8
:102F50008000CF3000EB4107B7F10A0754F8251085
:102F600078190CF085FD6D1C0A2DF7DB707A411E77
:102F70000A290FD240F21511484307EB40069F364D
:102F80005FF00005701954F825100CF071FD6D1CF0
:102F90000A2DF7DBBDE8F081542600201C26002016
:102FA00070B5164C6079002827D0E068002824D03E
:102FB000134D2968C86005F0D7FD002161712170AB
:102FC0009C200CF055FD2868E168407800EB00106B
:102FD00000EB8005CA3528460CF04AFD607A411E98
:102FE0000A290AD240F21511484305EB4000E16876
:102FF000BDE870409F300CF03BBD70BD54260020F2
:103000001C2600202DE9FC410446006803287DD8D9
:1030100020215148FDF7EEF84F48E168514E4160DC
:103020002169016061690161A1694161E1698160B2
:10303000216AC160616AC161A16A816147496068B2
:10304000494F096800EBC00001EB800544482D1D85
:10305000017A6970C168A960016969604169696143
:103060008169A961C169E960016A2961416A2962CE
:10307000816AE961806818B93C480078012812D05B
:10308000CDE90076207A3A4B3A4A002106F0D0F991
:10309000D5E90510411AD5E90320801A491C626858
:1030A000401C42B113E0CDE900763349207A304B21
:1030B000304A0978EAE73A68914208D9316888428B
:1030C00005D95000386048003060012000E0002041
:1030D0002870A068042803D2386808B93068B8B3EB
:1030E0002079002108F0E6FD207A1B4A4006010EF7
:1030F000207908F0F3FD606800EB400101EBC006A9
:103100009E360025701954F8251000E01EE00CF0E2
:10311000AFFC6D1C0B2DF5DB1848407A411E0A29C7
:1031200014D2616801EB410202EBC10140F21512B9
:10313000504301EB400606F23D160025701954F885
:1031400025100CF095FC6D1C0B2DF7DBBDE8FC8108
:10315000FFE720790121C5E73C82002024260020DA
:103160002C7F00203426002030260020CD24002093
:103170002C26002028260020CE24002054260020C3
:10318000421E04490A2A00D300204872C1B202A09C
:1031900012F0BEB854260020494E5055545F465098
:1031A0004741205345545F4B45595F4D4F4445209F
:1031B00025640D0A000000002DE9F0410446406836
:1031C0000025042834D2C0B20EF080FC194E012034
:1031D0000022707118480068C2602178017021795E
:1031E0004170A3684360E368836001EB011000EB6A
:1031F0008007CB37C6F80C2054F8251078190CF04E
:1032000037FC6D1C042DF7DB707A411E0A290FD2A2
:1032100040F21511484307EB40069F365FF000056A
:10322000701954F825100CF023FC6D1C042DF7DBED
:10323000BDE8F081542600201C260020044900200F
:1032400008700448FF21017041700DF0D1BF0000EB
:10325000EA040020110000200449002008700448FE
:10326000FF21017041700DF0DFBF0000EB04002072
:10327000130000200449002008700448FF21017059
:1032800041700DF0EDBF0000EC040020150000209F
:103290001CB51CA1D1E90001CDE900011B48007853
:1032A000622806D0692807D0702808D0732815D165
:1032B00008E0FFF7C3FF11E0FFF7CEFF0EE0FFF7D6
:1032C000D9FF0BE01249134C00200870207013F056
:1032D000B9FE217840F2F23011F09FFE0EA190204D
:1032E00013F0FCF90D480078022802D0012802D022
:1032F00005E0694600E00AA1862013F0EFF90120FD
:103300001CBD0000D2D1C8A1CFFB00001E050020CB
:10331000F3040020F00400202A000000E80400204C
:1033200043616E63656C207375636365737300003E
:1033300010B50E4C092084F8520013F0F1F9207FEB
:1033400002280BD001280FD10949822013F0C6F9B9
:103350000849BDE81040902013F0C0B9064982200A
:1033600013F0BCF90549F4E710BD0000CC040020BF
:10337000D3850108BD850108C8850108AD85010810
:1033800010B51D48A0F15904027894F84B1040780C
:103390008A4207D1884205D00B2803D2BDE81040ED
:1033A0000FF028BE884205D18A4203D00B2A01D2F1
:1033B0001046F3E7092084F8520013F0B1F9207F9A
:1033C000022811D00D49822013F088F90CA1922017
:1033D00013F084F90D200BF0F9F80A2013F08AFBA2
:1033E000BDE810400DF02ABA0849822013F076F9A2
:1033F00007499020ECE7000025050020D38501084F
:103400004E6F20537769746368000000C885010817
:10341000EB8B01082DE9F05F6A4B00221C786A4BA8
:10342000012C1B7832D0022C01D0032C05D1674A25
:103430001278012A2AD0664A1278664BDFF8988102
:10344000DFF898A1664E93F800C0182498F8005051
:103450009AF8003036784FF03C0994451DD18542EA
:1034600019D155468B4216D196B1304600F0AAFCD0
:103470005C4998F8000009780844B0FBF4F104FBBB
:10348000110088F800002978574871E01A46D4E7FF
:10349000564900200870BDE8F09F564FDFF850B144
:1034A00096423F782DD18542F5D155468B42F2D1D7
:1034B000B7B1384600F086FC4F4998F8000009780B
:1034C0000844B0FBF4F104FB110088F800002878F0
:1034D0004A496BE0B1FBF9F209FB12102870DAE7F8
:1034E000604600F06FFC98F800109BF8000008445C
:1034F000B0FBF4F104FB110088F800002978404883
:1035000036E0404E9742367817D18542C3D15546B2
:103510008B42C0D1002EE3D0304600F053FC3A4934
:1035200098F8000009780844B0FBF4F104FB11009E
:1035300088F800002878354938E0354F96423F78C2
:1035400019D18542A7D155468B42A4D1002FC7D0AF
:10355000384600F037FC2F4998F8000009780844F5
:10356000B0FBF4F104FB110088F8000029782A4828
:1035700000780144AEE7294E9742367819D185424A
:1035800089D155468B4286D1002EA9D0304600F015
:1035900019FC234998F8000009780844B0FBF4F1BD
:1035A00004FB110088F8000028781E4909780144BE
:1035B00090E7964293D1854291D155468B428FD068
:1035C00069E70000160500201705002014050020FB
:1035D00018050020F4040020F1040020F20400206B
:1035E000F5040020FB04002001050020F004002069
:1035F000FA040020F6040020FC040020020500204C
:1036000000050020F7040020FD0400200305002031
:10361000F8040020FE04002004050020F904002026
:10362000FF0400200505002030B50A4B1C461D880C
:103630006488854209D301D18C4206D3854207D1E3
:103640008C4205D19888904202D803490120087025
:1036500030BD0000C0040020DD040020034A00EB60
:10366000800002EB4000405C70470000A005002095
:1036700030B51748C17841B3164842F2107200685D
:10368000B0FBF2F302FB1304134812F0F2FF134AEB
:10369000210141EA9421D2E90453D2682B44224407
:1036A0001A44930243EA221289B2A3024A4043EA2F
:1036B0001413C2F30D029BB2824204D05940C1F3ED
:1036C0000D01814201D1012030BD002030BD00003C
:1036D0002801002008240020702700207C270020DB
:1036E0002DE9FF4F81B0674D00240E9E994692460A
:1036F0000746EC60BFE000BF07EB8400006981690A
:10370000B1427DDC026A4A457ADB42695245F8DC07
:10371000C26902998A42F7DBE96805EB8102126906
:103720005FEA020B6DD010296BDA031D0090114681
:1037300093E80C100069C1E903C0C1E901230098B6
:1037400000F11403006A93E80C10C1E907C0C1E955
:103750000523DBF8000048B10099096891E80C10D6
:10376000C968C0E902C1C0E9002302E046A011F027
:10377000CFFD009841690298814219DACBF8140014
:103780000099484A00234969401AA0FB02C8C117A2
:1037900001FB0281009A00FB031112686046126867
:1037A000D317FCF7E1FC009949680144CBF80410F9
:1037B0000098C1695046514519DDCBF81C000099AD
:1037C000384A0023C969081AA0FB02C8C11701FBC7
:1037D0000281009A00FB0311126860465268D317F9
:1037E000FCF7C2FC0099C968091ACBF80C100098C4
:1037F0008169484649451CDACBF81800009901E078
:1038000038E03CE08969274A401AA0FB02C8C1178A
:1038100001FB0281009A002300FB0311126860463D
:103820005268D317FCF7A0FC009989680144CBF8D3
:1038300008100098006AB04219DDCBF820600098AB
:10384000184A0023006A801BA0FB02C8C11701FBB5
:103850000281009A00FB0311126860465268D31778
:10386000FCF782FC00990969091ACBF81010E86886
:10387000401CE860641CF868A0423FF73DAF05B00B
:10388000BDE8F08F64620020446573205369676E61
:10389000616C20536F75726365204973204E554CDF
:1038A0004C0D0A0040420F002DE9F04782460025EA
:1038B0004BE000BF0AEB85008768002F49D0002449
:1038C0003FE000BF07EB8400D0F81090B9F1000F83
:1038D0003AD00022D9F800602FE000BF01EB82004F
:1038E00096F808800069036893F808C0C44523D19E
:1038F00093F809C096F80980C4451DD193F80CC00F
:1039000096F80C80C44517D1DB7A96F80BC0634556
:1039100012D1D0F81CC0D9F81C309C4503D1D0F886
:103920000CC0C9F80CC0D0F820C0D9F820309C4594
:1039300002D10369C9F81030521CC8689042CDDC2E
:10394000641CF868A042BDDC6D1CDAF80400A842D3
:10395000B0DCBDE8F0870000154810B5C17821B390
:10396000144842F210720068B0FBF2F302FB130439
:10397000114812F07EFE2101A20241EA942142EA9E
:1039800014125140C1F30D030C4A0D49834205D175
:103990004FF486600A6011F08DFB04E009689142E3
:1039A00003D0884201D1012010BD002010BD0000CD
:1039B00028010020082400207027002040420F002A
:1039C0009C050020F0B50C4A06460020D368451E31
:1039D0001C780CE000EBC00203EB8202121D08D041
:1039E00017788F4202D15278B24203D0401C8442F1
:1039F000F0DC2846F0BD00001826002030B5054652
:103A00000C4800214268481E002A0DD0D4680DE001
:103A100002EB81031B69002B06D01B68002B03D02F
:103A20005B7BAB4201D1012030BD491C8C42EFDCF5
:103A3000002030BD18260020074890F85200462884
:103A400007D0472805D0562803D0742801D000207D
:103A50007047012070470000CC04002010B540F2F0
:103A6000BE4441F64231204606F00FFA04480021D8
:103A70000180E01E11F013FB0248048010BD00001D
:103A800028050020042400202DE9F041214E0821C2
:103A9000304605F079FA204C012730B1012130463B
:103AA00005F072FA08B1E77101E0E07900B308218E
:103AB000304605F069FAD8B90121304605F064FABC
:103AC000B0B9A079002538B1E571607888B1401EA1
:103AD0006070257000F082FA607948B1E571607815
:103AE000401C6070277001F00BFC6078FF2803D049
:103AF00003E0FF206070EFE765700821304605F0B5
:103B000043FA60710121304605F03EFAA071BDE82C
:103B1000F081000000140140CC0400202DE9F04F9A
:103B20004FF00009CB463BE000EB890100228C6896
:103B300030E000BF04EB8205AA462B691AE0EE696B
:103B4000DE61ED68DD60531C4D1E04E004EB83066E
:103B50005B1C77693761AB42F8DB04EB85030D46EC
:103B6000C3F810B0491EAD1EDAF81030AA420FD0CB
:103B700001290DD0DAF814501F682E6897F80880D4
:103B800096F808C0C44503D1767A7F7ABE42D6D073
:103B9000521CE160E1684B1E9342CBDC09F1010944
:103BA00042684A45C0DC0021C0F800B008E000BF10
:103BB00000EB81040368A468491CE46823440360A3
:103BC0008A42F5DC0120BDE8F08F00002DE9F047C6
:103BD000416871E000EB8102D2E901460022E7680A
:103BE000F3689F4268D100253EE000BF04EB8502E8
:103BF00006EB850312691B69E2B3DBB3D3F800C09F
:103C0000E2469CF80880D2F800C0E1469CF808C063
:103C1000E04551D19AF8098099F809C0E0454BD1A7
:103C20009AF80C8099F80CC0E04545D19AF80B80C1
:103C300099F80BC0E0453FD1D3F814C0D2F81480F6
:103C4000C44539D1D3F81CC0D2F81C80C44533D147
:103C5000D3F818C0D2F82080C4452DD19B681269D2
:103C6000934229D101226D1CAF42BFDC012A23D12E
:103C700000220CE020E000BF06EB820504EB82038B
:103C80002D691B69521C2F6A1F622D691D61E36833
:103C90009342F1DC05E000BF00EB8102491CD368D0
:103CA00093604268521E8A42F6DC4168491E4160B8
:103CB0000268E368D21A0260491E00298ADCBDE866
:103CC000F08700002B484179007821B1012905D007
:103CD00002290AD005E02849085C7047411E0429E2
:103CE00001D3002070472A30704722491028897973
:103CF0001ED00ADC022815D0032813D00528F0D1E5
:103D0000A1B10129EDD13120704713281FD014280B
:103D100025D01F28E5D149B3022929D00329E0D1B4
:103D20003C2070470829DCD12F2070473020704795
:103D300039B1022907D0032907D00829D1D135206C
:103D40007047322070473320704734207047042971
:103D500003D00529C5D1372070473620704719B1E7
:103D60000129BED139207047382070473A2070476A
:103D70003B207047FC240020E88202083D2801DA3D
:103D80000149085C70470000E88202080A4910B146
:103D900001280FD107E0094A0020135C0B54401C96
:103DA0001528FADB06E0064A0020135C0B54401C81
:103DB0001528FADB05F022B87704002032920108BA
:103DC000479201080D4A10B5092111700C490122D2
:103DD000097810F015F9902012F092FC094800784B
:103DE000022808D0012808D10749BDE81040891CE5
:103DF000922012F073BC0549F7E710BD1E050020A4
:103E000014050020E8040020F6870108EB8701086C
:103E100010B509F06DF838B137484FF0040100785B
:103E2000012805D0942059E009F052F880BB01E048
:103E3000912053E0314800789A284AD024DC8C281D
:103E400047D015DC852844D00EDC68284ED006DC2F
:103E500008283AD044283AD061284BD146E06F2850
:103E600044D0832846D130E08638052842D830E057
:103E70008D380D283ED2DFE800F02C2C2C2C2C2C79
:103E80002C2C2C2C3D2C2C009B38242832D200E0EA
:103E900015E0DFE800F01E2F1E1E1E1E2F1E1E1E28
:103EA0001E2F2F2F2F2F2127272727272F2F1A1A93
:103EB0001A162F142F12121212180521B8E7032117
:103EC000B6E70B21B4E70A21B2E70621B0E70221E9
:103ED000AEE70421972001E004218320BDE81040D3
:103EE000FEF7C0BEBDE81040FEF7B4BDBDE810400F
:103EF000FEF770BD10BD00000B0500201E05002060
:103F000070B51D4C84F8520012F00AFC207F04F5B5
:103F10009C7502281BD001282DD194F8520000EB8B
:103F2000800005EBC001896819B115F8300012F066
:103F3000D5FB94F8520000EB800005EBC00041690E
:103F4000002918D0007BBDE8704012F0C7BB94F880
:103F5000520000EB800005EBC001496819B115F86B
:103F6000300012F0BBFB94F8520000EB800005EB30
:103F7000C0000169E4E770BDCC04002073B50D46B4
:103F800068460BF001FB002823D0124CA279022ACC
:103F900017D2E07900281CD19DF8001004F113001D
:103FA00030318154521CD1B2A171002242540146D9
:103FB000284612F093FBA079022802D206A013F043
:103FC000F3FAA079022804D10120E071022008F060
:103FD0005BFD7CBD280100205F00000070B500245F
:103FE0000AF0ECFF002876D1634D644E287800EB90
:103FF000800006EBC0000069C8B307F03FF92978DC
:1040000001EB810006EBC000407E884201D02870A1
:1040100001242878FFF774FF0FF04EFF297801EB99
:10402000810006EBC000C3693BB134B90022032014
:10403000984710B1012012F05DFD287800EB800058
:1040400006EBC000017B912915D1006A002812D02F
:10405000902013F087FF287800EB800006EBC0006B
:10406000006A80472978884202D145A001E003E038
:1040700044A013F099FA76E0002407F0FFF82878BE
:1040800000EB800106EBC101497E814200D029701E
:10409000287800EB800006EBC000406A08B180473A
:1040A00004462878384921280FD015DC1A280CD06E
:1040B00007DC152801D017285CD10878204484B289
:1040C00020E01C2801D01F2854D10878204484B255
:1040D0000AF006F913E04DE026280BD0282809D075
:1040E0003F2815D0B12845D10878204464280DD93F
:1040F000642404E00878204484B2642CF8D8872033
:1041000002F048FC29781C2906D00EE084B2F6E7BC
:10411000BDE870400AF046B81C480078012818D065
:104120001B480088844200D2044601EB810006EB64
:10413000C000C36913B122460320984728781C2881
:1041400015D008DC152812D0172810D01A2806D14F
:104150000DE01048E5E71F2809D0212807D091215C
:10416000204602F021F9BDE8704000F07FB90AF066
:10417000E7F8F8E770BD00001E05002004060020E7
:104180002A0000003E0000000F0500200B05002063
:10419000340500203205002010B507F06FF8164CEA
:1041A0002078542801D0562815D140F21B4010F039
:1041B0003DFF12480078022802D0012802D005E015
:1041C0000F4900E00FA1802012F088FA052012F0BC
:1041D00091FC12F0A5FA20780E4900EB800001EB6B
:1041E000C000C07E2070FFF78BFE00F03FF9BDE8F5
:1041F00010400FF061BE00001E050020E804002002
:10420000738D01084261636B7570206F70656E6518
:104210006400000004060020044910B53F20087027
:10422000FFF76EFEBDE8104009F0BCBF1E05002080
:1042300073B50D4668460BF0A7F920B3144C227AEB
:10424000022A17D2607A00281CD19DF8001004F1D0
:10425000160030318154521CD1B2217200224254D6
:104260000146284612F03AFA207A022802D209A022
:1042700013F09AF9207A022804D1012060720220FA
:1042800008F002FC7CBD9DF800000AF09FF97CBD9F
:10429000280100205F0000002DE9F04789460BF05F
:1042A00052F9040076D059480126594A01787229FA
:1042B00035D008DC55296ED05E2929D0652929D052
:1042C0006C2914D129E0534BA722972906D09C29A9
:1042D0000ED0A12912D0A62979D116E04E4D2C700E
:1042E0001B88012B73D102704C4811F011F86EE05D
:1042F0004B490C701988022905D068E049490C70B7
:104300001988032963D1027061E0474804705EE0B8
:10431000464800E0464804703AE04648FBE7464815
:104320004749484D90F800804448474FDFF81CC18A
:10433000B8F1070F2CD2DFE808F02B04050A121D94
:104340002F00E8E7007884425ED00C7020E000780F
:10435000844259D00878844256D02C7018E00078F6
:10436000844251D0087884424ED0287884424BD081
:104370003C700DE00078844246D00878844243D0F7
:104380002878844240D0387884423DD08CF8004070
:1043900056701CE038E011E00078844234D0087890
:1043A000844231D0287884422ED0387884422BD071
:1043B0009CF80000844227D02548ACE725482649D0
:1043C000264A007898B1107801EB40004470012033
:1043D0000FF06AFD22491120087022A1484612F010
:1043E0007DF921464846BDE8F04702F0BBB9002000
:1043F000127804E011F81030A34205D0401C90421E
:10440000F8DB01F81240E2E7BDE8F0871E05002066
:10441000280100202A2400204E240020FC800108CE
:104420004F2400205024002051240020EA040020C2
:10443000EB040020EC040020F3040020F40400202E
:10444000F5040020F6040020F7040020F804002002
:10445000F904002006050020542800200F24002025
:10446000522400202020202020200000FEB5654995
:10447000002002900978644D644C072949D2DFE896
:1044800001F09548496704227300614B614A00219D
:10449000CDE9004504F0CCFF2088832180B201F0F3
:1044A00083FF2888782280B2852101F00DFF5A48C9
:1044B0009321008880B201F077FF58487822952137
:1044C000008880B223E00126514B524A0021CDE9F9
:1044D000004504F0ADFF2088842180B201F064FF24
:1044E0002888782280B2862101F0EEFE484B494AA6
:1044F00000213046CDE9004504F09AFF2088942140
:1045000080B201F051FF2888782280B2962101F014
:10451000DBFEFEBD4249832012F0E0F8022010F0DD
:1045200060FA8DF8080002A9862012F0D7F83DA1A4
:10453000872012F0D3F8042010F053FA8DF8080009
:1045400002A9882012F0CAF8932002F001FAFEBDF9
:1045500035488421006801F08BFF3448007800283A
:10456000F5D02D228621D2E70CF0C4F930499120F4
:1045700012F0B4F82F49902012F0B0F82E4CA08819
:10458000FF28E4D06088FF28E1D02C49902012F069
:10459000A5F82088932101F007FF6088962101F09B
:1045A000B1FFA088982101F0ADFFFEBD244800783E
:1045B0000028FAD123480078012808D02249802019
:1045C00012F08CF821A1812002F0BAF8FEBD21483A
:1045D0000078022806D00128F8D11FA1802012F00F
:1045E0007DF8FEBD1F49802012F078F81E49852015
:1045F00012F074F81D48007841B2882002F0EEF9FC
:10460000FEBD00001E0500203426002030260020BC
:104610002C26002028260020DC240020E024002076
:10462000662400207800000008240020E104002017
:10463000770400202C920108C0040020AA8C0108F5
:10464000DB0400201605002055810108202B2020C6
:1046500000000000E80400204578656320506C618C
:104660006E3A0000A6810108708A010854260020D5
:1046700010B506F003FE12480178292913D008DC92
:10468000132910D018290ED01D290CD0242908D1A7
:1046900009E04C2907D05A2905D0772903D0812970
:1046A00001D0132105E0074A01EB810102EBC101B2
:1046B000497E0170BDE81040C8B2FFF721BC000080
:1046C0001E0500200406002073B50D4668460AF05A
:1046D0005BFF38B3164CA27A022A17D2E07A002880
:1046E0001FD19DF8001004F1190030318154521C83
:1046F000D1B2A172002242540146284611F0EEFFC9
:10470000A07A022802D20BA012F04EFFA07A022853
:1047100007D10120E0722078032802D1022008F09E
:10472000B3F97CBD9DF8000009F050FF7CBD00008E
:10473000280100205F00000073B50D4668460AF0AE
:1047400023FF20B3144C2279022A17D26079002863
:104750001CD19DF8001004F1100030318154521C1E
:10476000D1B22171002242540146284611F0B6FF11
:104770002079022802D209A012F016FF207902281F
:1047800004D101206071022008F07EF97CBD9DF803
:10479000000009F01BFF7CBD280100205F00000025
:1047A00070B506F06BFD144C144D20780C2805D024
:1047B0000D2803D00E2801D00C2004E000EB80006F
:1047C00005EBC000407E2070C0B2FFF799FB90203F
:1047D00013F0C8FB207800EB800005EBC000006AF6
:1047E00080472178884201D105A000E005A0BDE8FE
:1047F000704012F0D9BE00001E0500200406002003
:104800002A0000003E0000002DE9F84FFB4C002775
:104810000220267808F038F900287CD1217800257C
:10482000682938D006DC5F292ED061292ED0662970
:1048300006D12EE06D2931D06F2931D074291BD0DB
:10484000EF480278012A33D0A046EE4C932912D0CB
:1048500048DCDFF8B4934FF0900A8B290BD037DC9B
:10486000872908D02DDC11294BD0122953D0852956
:1048700001D086295DD1A4E072212170BDE8F84FF6
:10488000002204200FF0B0B8E04805700CF0B0FC36
:1048900008E0DF4805700CF0C7FC03E0DD48057058
:1048A0000CF0DEFC09F0BCFEBDE8F84F09F0D6BE06
:1048B0000570AE202070BDE8F84FD7A1922011F00E
:1048C0000DBF88297DD089297BD08A2964D11FE03A
:1048D000A1F18C0007285FD2DFE800F02C733C7355
:1048E00073737300A1F19400122855D2DFE800F031
:1048F0006969445469696947546969694C546969CB
:1049000069690AF059FDBDE8F84FC4A010F000BD78
:1049100001EB810000E07FE004EBC000C36923B13C
:10492000002204209847002876D0B9F8000001281A
:104930001FD031E001EB810004EBC000C36923B15B
:10494000002204209847002866D0B9F80000022809
:104950000FD021E001EB810004EBC000C36923B15B
:10496000002204209847002856D0B9F800000328F8
:1049700012D188F800A00FE040F2EE2001E040F2F2
:10498000073004EBC00000E0AD48C36923B100224A
:104990000420984700283FD011F0C2FE98F800008C
:1049A0002A2811D000EB800204EBC2024146927E1D
:1049B000824202D088F800200127087850B112E026
:1049C000FFE701EB8100DCE704F00EFC414688F8CC
:1049D0000000F2E79B4A127812B99B4A127812B98A
:1049E0009A4A1278CAB1FFF78BFA98F80010A146DC
:1049F00001EB810204EBC200DFF854A2006901243C
:104A000080B3464655292ED00BDC19291FD01E290C
:104A100017D054294CD11DE086E1BDE8F84FFFF7CF
:104A200027BE612904D0682905D06F2940D105E04F
:104A300001F028FF3CE001F047FF39E001F066FF9C
:104A400036E0844A84499AF8000004F093FD09F0A6
:104A500047FC2DE081482146047040F2174010F0D9
:104A6000DCFA25E058E07E4C0095207831308DF856
:104A700000003A208DF80100852013F073FA684693
:104A800012F092FD952013F06DFA684612F08CFD3D
:104A9000744D207815F8101011B1862001F062FED7
:104AA000207805EB4000417811B1962001F05AFEC4
:104AB00031784C4601EB810009EBC000C3696BB152
:104AC0002FB15E2903D0652901D06C2906D10022BF
:104AD0000420984710B1012012F00CF8307800EB58
:104AE000800004EBC000017B912914D1006A0028EA
:104AF00011D0902013F036FA307800EB800004EBF0
:104B0000C000006A80473178884201D156A000E099
:104B100056A012F049FDFFE0554F4FF0000B26293B
:104B200020D010DC1C292ED006DC15292DD0172909
:104B30002BD01A2926D126E01F2924D0212922D0C2
:104B400023291FD119E04B4EA92941D006DC282981
:104B500008D03E2907D03F2914D1DBE0AA294BD049
:104B6000B1290FD1BCE002200AF08CFC06F086FBD4
:104B700041482A2290210078C9E009F0B1FB912038
:104B800001F054FCC8E009F0ABFB98F800108E422D
:104B900008D102200AF076FC002298F800100420C8
:104BA0000DF07EFC06F06AFB09F0CAFB98F80000E5
:104BB000864201D03C7003E03878012802D13D7074
:104BC00001F0AEFD09F028FB872001F0E3FEA3E031
:104BD0003078401C10F0010030704FF0020051D0CE
:104BE0000AF050FC012849D106F048FB09F0A8FB67
:104BF0003D7001F095FD8FE058E000001E0500209B
:104C0000290100200406002016240020ED040020C5
:104C1000EE040020EF0400205F0000004C696E6588
:104C200031363831206F66204465616C4F6B4B65BF
:104C300079204D656E7554626C2E63200D0A20003C
:104C4000041F0020D6040020D7040020DD0400202B
:104C50001405002038050020360500200E24002011
:104C60000F240020542800202A0000003E000000ED
:104C70000B050020C6040020E90400203078401C09
:104C8000307049E00AF0FEFB0128F7D106F0F6FA91
:104C900009F056FB3C7002218AF80010AA20FFF7A9
:104CA0002FF922A1912011F019FD35E07078401CF8
:104CB00010F0010070704FF0020007D00AF0E2FB24
:104CC000012891D07078401C707025E00AF0DAFB62
:104CD0000128F7D106F0D2FA09F032FB3C701BE054
:104CE000872001F057FE444698F8001002200AF091
:104CF000C9FB06F0C3FA207800EB800109EBC10084
:104D0000406A08B1804783462A229021584601F024
:104D1000DBFA01E009F070FA98F80000002803D1EE
:104D2000BDE8F84FFFF7A2BBBDE8F88F5F20202059
:104D30007800000031B568460AF026FC90B1204C9E
:104D40009DF800101F48227810F0E2FA9DF800004C
:104D50001D493030087020781C4C112807D01228CB
:104D60001DD115E09DF8000009F030FC38BD207819
:104D7000022802D0012802D006E0154900E01549BA
:104D80008420083111F0AAFC13A010F0C1FA06E04B
:104D900011F0C6FC1EA010F0BBFA0AF061FB2078EF
:104DA000022802D0012802D005E0284900E0284965
:104DB000902011F093FC0449922011F08FFC38BD33
:104DC0001E050020B080010836010020E804002004
:104DD0005A8501084785010866756E6374696F6EB0
:104DE00020204465616C53617665416E6452656351
:104DF000616C6C4E756D6265722C53746174655F85
:104E000053617665506172615F4E756D62657200C7
:104E100066756E6374696F6E20204465616C5361C2
:104E20007665416E64526563616C6C4E756D62654A
:104E3000722C53746174655F4C6F61645573657255
:104E4000506172615F4E756D62657200708A010813
:104E5000758A01080F4910B51120087011F060FC27
:104E60000D480078022802D0012806D00DE00B4939
:104E7000802011F033FC0A4904E00A49802011F037
:104E80002DFC0949842011F029FCBDE8104007A041
:104E900010F03EBA1E050020E8040020028C010834
:104EA000018601080D8C01080D8601086465616C9E
:104EB0002073617665206B65790D0A0031B582B08B
:104EC000002402A80AF060FB00289DF808001AD010
:104ED00008281AD0092818D0002816D000F130016F
:104EE0008DF8001025490122097861290ED0682922
:104EF0002BD06F2909D1224D2978072905D2214BC2
:104F00001A70214A36E009F061FB3EBD1F4D297839
:104F10000729FAD21E4B1A701E4A04E0135D834221
:104F2000F3D0641CE4B28C42F8D350549031C8B230
:104F3000694611F0D3FB2878401CC0B228700728BE
:104F4000E3D215A012F030FB3EBD144D297807299D
:104F5000FAD2134B1A70134A04E0135D8342F3D064
:104F6000641CE4B28C42F8D3DFE7135D8342EBD0DC
:104F7000641CE4B28C42F8D3D7E700001E05002081
:104F800010000020EF0400202A0000200E00002066
:104F9000ED0400201C000020205F00000F00002016
:104FA000EE04002023000020F7B515460E466846A3
:104FB0000AF0EAFA20B1304612F0D4FF002408E0EB
:104FC0009DF8000009F002FBFEBD202011F028FD35
:104FD000641CAC42F9DB164CE078A84214D2A178EC
:104FE00091B99DF80020134930320A54401CC0B2D8
:104FF000E07000220A54304611F070FBE078A842BD
:1050000002D20DA012F0D0FAE078A842DCD1012043
:10501000A0700849304611F061FB08480078B328B9
:1050200001D05828D0D1022007F02EFDFEBD00008F
:1050300028010020702700205F0000001E050020CE
:1050400073B50D4668460AF09FFA20B3144C227BD4
:10505000022A17D2607B00281CD19DF8001004F1B1
:105060001C0030318154521CD1B2217300224254B1
:105070000146284611F032FB207B022802D209A00B
:1050800012F092FA207B022804D1012060730220E2
:1050900007F0FAFC7CBD9DF8000009F097FA7CBD92
:1050A000280100205F00000070B5374C2079401CBB
:1050B000C0B220713C2818D100202071E178491C31
:1050C000C9B2E1703C2910D1E070A178491CC9B285
:1050D000A170182909D1A0706078401CC0B2642169
:1050E000B0FBF1F201FB1200607028480078012843
:1050F0000FD18521607801F005FA9021A07801F0A8
:1051000001FA9221E07801F0FDF99421207901F073
:10511000F9F91F480078002834D0207838B90120E8
:1051200020700BF045F81B49A06012F0A9FB0BF0B2
:105130003FF8A168401A3C21B0FBF1F51648007811
:1051400085421FD3281A0521B0FBF1F201FB1200A2
:10515000002817D12079002814D1B5F5803F11D24D
:105160002078012809D10220207004F021FA0B498F
:10517000088001460AA010F0CBF8A8B2BDE8704044
:105180000CF09AB870BD0000480400201E050020F5
:10519000D604002098270020D804002004240020F2
:1051A000B4E6B4A2B5C4B5D8D6B7CEAA3A25640A37
:1051B00000000000154810B50078012811D01448EF
:1051C00001210478134800780DF0DEFE022120460C
:1051D0000DF0DAFE10480078022806D0012806D02B
:1051E00009E0BDE81040FEF7CBB80C4900E00CA187
:1051F000922011F073FA0D49802011F06FFABDE88A
:1052000010400BA1812001F09BBA00001605002080
:105210001705002018050020E80400209A8D0108D9
:105220005377617020496D61676500005581010801
:1052300020202B20200000002DE9F04127490446C2
:10524000E043C7B24A78264D17434FF0000601F1FC
:1052500009034FF0010007D072B19C54521C12F0A8
:1052600003024A7003D022E09C5448701FE01D499D
:10527000087000F071FB1AE0184A0F27B7EB141FF3
:10528000927803D11AB91C70887010E032B19C5426
:1052900030EA02038B700AD1134907E0210606D5D4
:1052A000E22C13D0E32C14D010491C70087028781D
:1052B000002809D02E700A20B4FBF0F10C4A00FB44
:1052C000114011700B490870BDE8F0810A48067062
:1052D000FAE70A4908702870F6E70000000000208D
:1052E0000A05002007050020080500200905002008
:1052F000D9040020DA0400200D0500200C05002050
:105300002DE9F041002609F059FE002874D1574CD0
:10531000574D207800EB800005EBC0000069C8B352
:1053200005F0ACFF207800EB800105EBC101097EA0
:10533000814201D0217001262078FEF7E1FD0EF0B8
:10534000BBFD217801EB810005EBC000C3693BB1D7
:1053500036B900220220984710B1012011F0CAFB93
:10536000207800EB800005EBC000017B912973D110
:10537000006A002870D0902012F0F4FD207800EB35
:10538000800005EBC000006A80472178884202D186
:1053900038A001E003E038A012F006F95CE0002636
:1053A00005F06CFF207800EB800105EBC101097E60
:1053B000814200D02170207800EB800005EBC00016
:1053C000406A08B18047064620782C4F21280CD02F
:1053D00013DC1A2809D004DC152808D0172842D17C
:1053E00005E01C2801D01F283DD108F079FF38784E
:1053F000301A23D5002609E035E02628F7D02828E2
:10540000F5D03F281CD0B1282DD1F0E7872001F03E
:10541000C1FA217801EB810005EBC000C36913B12B
:1054200032460220984720781C2819D00CDC152819
:1054300016D0172814D01A280AD111E086B2E5E751
:10544000BDE8F04108F0AEBE1F2809D0212807D0E2
:105450009121304600F0A8FFBDE8F041FFF706B803
:1054600008F06EFFF8E7BDE8F08100001E0500209F
:10547000040600202A0000003E0000000F05002066
:105480000E4910B51220087011F04AF90C48007846
:1054900002280BD001280FD10A49802011F01EF9F3
:1054A0000949BDE81040842011F018B9074980204F
:1054B00011F014F90649F4E710BD00001E050020A4
:1054C000E8040020248C01080D860108198C0108CD
:1054D000018601082DE9F047D1480C464FF000093C
:1054E000C178002976D0CF4811F0C3F81FFA80F8B0
:1054F00005F0C4FE832C02D0442C6CD08DE1002535
:105500000124C9484FF6FF71B8F1510F7DD02FDC4F
:10551000B8F10C0F7AD00EDCC44EC54F40F275497D
:10552000B8F10C0F56D2DFE808F05586888A8C8FC8
:1055300098B4555555CBB8F1460F68D00EDCB8F18C
:105540000D0F65D04FF47A74B8F1150F70D0B8F123
:10555000160F6ED0B8F1170F3CD1E9E0B8F1470F44
:1055600068D0B8F1480F6ED0B8F1500FF4D101E116
:105570004FF47F463702B8F16F0F2DD01ADCB8F127
:10558000560F7AD00CDCB8F1520F77D0B8F1530F28
:1055900075D0B8F1540F73D0B8F1550FDCD105E1D7
:1055A000B8F1570F6DD0B8F1580F6BD0B8F16E0F3E
:1055B000D2D10CE0A8F170086FF07F44B8F1080F69
:1055C000B0D2DFE808F00B0D0F31292B2E30314619
:1055D00000202AE00CE10EE1394625E0314623E0C7
:1055E000FF2121E0FF220121002006F065FC0121BE
:1055F0003246084606F060FC3A460121022006F0D9
:105600005BFC01212246032003E0C7E05AE0ABE047
:105610005AE006F051FC00E1864905E04FF0FF1129
:1056200002E0214600E0494601200EF079F9F4E05D
:105630004CE064E09AE00521D8E04420C4E0462034
:10564000C2E00221D2E093E00320FEF759FC7A4841
:105650008421006800F00CFFDFE011F061F82146C2
:10566000347048460FF0D9FC387802280BD07349C3
:10567000802011F033F8724972E0A8E090E091E0E8
:1056800092E0A6E0B1E06F49802011F027F86E4962
:1056900014E011F045F82946357048460FF0BDFC7E
:1056A0003878022805D06549802011F017F867493D
:1056B00056E06449802011F011F86549872050E0D8
:1056C000BB2081E0BC207FE0BD207DE011F028F808
:1056D0006049802011F002F85F4D2888A04204D371
:1056E000B0FBF4F0852100F00DFF2888B0FBF4F149
:1056F00004FB1100862100F057FE584930E011F0FC
:105700000FF85749802010F0E9FF564D2888A04235
:1057100004D3B0FBF4F0852100F0F4FE2888B0FB40
:10572000F4F104FB1100862100F03EFE4E4917E023
:1057300010F0F6FF4D49802010F0D0FF4C4D288826
:10574000A04204D3B0FBF4F0852100F0DBFE2888F2
:10575000B0FBF4F104FB1100862100F025FE454961
:10576000902010F0BBFF58E0BA202DE0B7202BE0CE
:10577000BE2029E005704048404A006890420BD1A5
:105780003F4802888A4207D14188FF2904D1808896
:10579000FF2801D1B52017E0B42015E00470FBE725
:1057A000B62011E0B3200FE003211FE03548214669
:1057B000047040F279400FF030FC334834490570F2
:1057C0003248007808700820FEF79AFB25E0042193
:1057D0000CE00AF0E1FD18B110F0A2FF2DA102E0EB
:1057E00010F09EFF2CA18220BBE706210170D3E7B9
:1057F0000020BDE8F087B8F13B0F01D94FF03B081E
:10580000284808F0FF042A2204709021404600F046
:105810005BFD214606200FF000FC0120E9E70000B7
:1058200028010020702700200C240020E204002022
:10583000E804002000FFFF0008240020B3820108D4
:10584000CF8201089E820108C8820108DB8201081C
:10585000D4820108088301088A0500206204002020
:105860001C8301088C050020690400203083010896
:105870008E050020700400209C05002040420F008F
:10588000C0040020D7040020D60400201705002003
:10589000C90400204F4B21004E6F206461746121C8
:1058A00000000000E7040020704700B501460A2010
:1058B0000FF04AF80A200FF017F80028FAD000BDC0
:1058C00000B5014605200FF03FF805200FF00CF859
:1058D0000028FAD000BD00B5014600200FF034F8D2
:1058E00000200FF001F80028FAD000BD70B518496B
:1058F00000220B78FF2B26D18B7823BB154C4B78DD
:10590000A1F109060025C9782478452B06D0462B3D
:105910000BD0552B0DD0562B12D014E0BC2912D130
:10592000F57009E00FF02AFB08E0BB290BD101223A
:1059300009E0AC2907D13571842CF3D0002070BD6B
:10594000AB2900D1022200B10270012070BD00001D
:10595000090000201E0500200C4810B50078002822
:1059600013D00B48FFF7C2FF00280ED009490848A2
:105970000A782AB901220A7007490978012904D155
:105980000078BDE810400EF0ABBA10BD0E24002028
:10599000140500200D2400201705002010B50EF07E
:1059A000B1FF04F003F905F0ADFD10B90CA00FF044
:1059B000AFFC0F49032006F001FB05F071F904F07C
:1059C0005DFB04F0D7FE04F087FC04F0D9FF04F07F
:1059D00003FD0CF08DF8BDE8104006A00FF098BC58
:1059E0004E6F20465047412043686970210D0A00E0
:1059F000F8FF01004465766963657320496E697438
:105A0000204F4B0D0A0000002DE9F041F8480E46EA
:105A1000C178002956D0F74810F02BFE84B2853E9D
:105A2000F54AF648F64D4FF470614FF40767212EA2
:105A30005CD2DFE806F011365F6F7F8F9FAFBFCF7C
:105A4000F3F1F0EFEEEDECEB5BEAE9E8E75BE6E5BE
:105A5000E4E35BE2E1E0DF00B4F5705F1DD9FCF741
:105A600069FF0A2011F046F806F0D2FA10F058FE4D
:105A70002878022802D0012806D023E0E1498020BE
:105A800010F02CFEE04904E0E049832010F026FEEF
:105A9000DF49902010F022FE14E021461480DDA0A2
:105AA00022E0B4F5005F1CD9FCF744FF0A2011F096
:105AB00021F806F0ADFA10F033FE2878022804D061
:105AC000012808D00020BDE8F081CE49812010F0E7
:105AD00005FED849DDE7CD49832010F0FFFDD6490A
