:020000040800F2
:10000000D826002045010008936E0008855E000890
:10001000756E0008C9050008B98B000800000000D3
:10002000000000000000000000000000997A0008B5
:100030005D360008000000002970000829850008CE
:100040005F0100085F0100085F01000831730008CC
:100050005F0100085F010008055400081D550008F5
:100060005F0100085F0100085F0100085F010008F0
:100070005F0100085F0100085F0100085F010008E0
:100080005F0100085F0100085F0100085F010008D0
:100090005F0100085F0100085F0100084D5500087E
:1000A0005F0100085F0100085F0100085F010008B0
:1000B0005F010008E98500085F0100085F01000892
:1000C0005F0100085F0100085F0100085F01000890
:1000D0005F010008C58700080D880008B588000882
:1000E000695400085F0100085F0100085F01000813
:1000F0005F0100085F0100085F0100085F01000860
:100100005F0100085F0100085F0100085F0100084F
:1001100095870008C18700085F0100085F0100089B
:100120005F0100085F0100085F0100085F0100082F
:10013000DFF80CD000F070F800480047C1CC000890
:10014000D82600200648804706480047FEE7FEE71D
:10015000FEE7FEE7FEE7FEE7FEE7FEE7FEE7FEE777
:100160002D8500083101000840EA01039B0703D0F8
:1001700009E008C9121F08C0042AFAD203E011F8E6
:10018000013B00F8013B521EF9D2704710B5002226
:1001900000E0521C835C8C5CA34201D1002BF8D19F
:1001A000D8B2E1B2401A10BD70B50F4D00B9286841
:1001B000002412E00A4602E09E4203D0521C13784B
:1001C000002BF9D1DAB2224305D02BB124B10021A2
:1001D00000F8011B04E00446401C0678002EE9D11B
:1001E0002860204670BD0000F014002030B50B469A
:1001F000014600202022012409E021FA02F59D4257
:1002000005D303FA02F5491B04FA02F52844151E2A
:10021000A2F10102F1DC30BD064C074D06E0E068BA
:1002200040F0010394E8070098471034AC42F6D33D
:10023000FFF782FFA84E0108C84E010870B501EB18
:10024000020410F8015B15F0070301D110F8013B1F
:100250002A1106D110F8012B03E010F8016B01F808
:10026000016B5B1EF9D12B0705D40023521E0FD45E
:1002700001F8013BFAE710F8013B02F10202A1EBA1
:10028000030303E013F8015B01F8015B521EF9D58B
:10029000A142D6D3002070BD10B500247F4801884C
:1002A0007F480078401E00EBC0007E4A22F8101004
:1002B0007A4841887A480078401E00EBC00002EB83
:1002C000400041807548818875480078401E00EBE9
:1002D000C00002EB400081807048C18870480078FF
:1002E000401E00EBC00002EB4000C1806B488088DC
:1002F0006A490988401A81B269480078401E00EBBB
:10030000C00002EB400001816448C088634949880D
:10031000401A81B262480078401E00EBC00002EB38
:100320004000418160480078401E81B25C480078FE
:10033000401E00EBC00002EB40008181584801786C
:100340000078401E00EBC00002EB4000C18100219C
:1003500053480078401E00EBC00002EB40000182D1
:100360004F48047808E0002004EBC4014D4A02EB3A
:100370004101C881601CC4B2082CF4DB002463E096
:1003800004EBC400474931F8100004EBC401474AAC
:1003900022F8110004EBC400424901EB4000408800
:1003A00004EBC40102EB4101488004EBC4003D4969
:1003B00001EB4000808804EBC40102EB410188801E
:1003C00004EBC400374901EB4000C08804EBC401D2
:1003D00002EB4101C88004EBC400324901EB40004C
:1003E000008904EBC40102EB4101088104EBC40065
:1003F0002C4901EB4000408904EBC40102EB4101B0
:10040000488104EBC400274901EB4000808904EBDC
:10041000C40102EB4101888104EBC400214901EBD6
:100420004000C08904EBC40102EB4101C88104EB28
:10043000C4001C4901EB4000008A04EBC40102EB3C
:1004400041010882601CC4B2082C99DB184800786E
:10045000012820D100240FE0164830F81400164976
:1004600021F814001348103030F8141012481030DE
:1004700020F81410601CC4B2082CEDDB0F48007883
:100480000F4908700F4800780F49087000F09EF877
:1004900002200749087009F0A9F810BD0E1E0020BF
:1004A00031140020201E00203B140020861C002058
:1004B0008014002082140020A21400207814002050
:1004C0007A140020791400207B14002010B501203C
:1004D00008F080FF05F0B8FE08F0DAFE10BD10B598
:1004E000012006F0E7FD002006F0E4FD10BD00004D
:1004F00001460020044A10884FF67F42104008430E
:10050000014A1080704700002C6C004008B501467D
:100510000020009003480090009808440090009844
:10052000008808BD006C0040014908607047000069
:1005300000860D4208B500220092044A0092009AFB
:1005400002440092009A116008BD0000006C004057
:1005500070B506460C46002516480078002804DDD4
:1005600014480078401E1349087000201249087092
:10057000304610F099FB002503E0202008F0AAFE89
:100580006D1CA542F9DB00200C490A4A12788854F8
:10059000304608F06AFE0AA010F07EF8094800789C
:1005A000502802D006F0D4F810B1044800F01CFE28
:1005B00070BD00003D0000203C00002052190020CA
:1005C0005F0000004314002000BFFEE7002012E09F
:1005D00020B920490988204A11800AE0411E1E4A9C
:1005E00032F811101B4A32F8102011441A4A22F82E
:1005F0001010411CC8B2194909788842E8DB411E35
:10060000154A32F81110164A1180002016E020B960
:100610001049098A104A11820EE0411E0E4A10321A
:1006200032F811200B49103131F8101011448AB200
:100630000949103121F81020411CC8B20949097834
:100640008842E4DB411E044A103232F81110064A97
:1006500011807047A2140020D81B00207B140020BA
:100660007C1400207A1400207E14002070B53F48CE
:100670000078002878DD3D480078092874DA3C4885
:100680000078012806D002281DD0032834D0042881
:1006900068D14AE035480078451E34480078461E47
:1006A000F01706EB90708010C21CE81705EB9070F5
:1006B0008010A5EB80032FA1354808F0EDFB3448EE
:1006C00008F0ECFD4FE029480078451E27480078E7
:1006D000461EF01706EB90708010C21CE81705EB61
:1006E00090708010A5EB80032AA1294808F0D4FB64
:1006F000274808F0D3FD36E01C480078451E1B480B
:100700000078461EF01706EB90708010C21CE817A8
:1007100005EB90708010A5EB800325A11C4808F024
:10072000BBFB1B4808F0BAFD1DE0002415E0254680
:100730002646E01704EB90708010C21CE01704EB13
:1007400090708010A4EB800320A1114808F0A4FB56
:100750000F4808F0A3FD601CC4B2042CE7DB02E0E4
:1007600002E0FFE700BF00BF70BD000040140020A2
:10077000411400204F5F46205354504320256420ED
:10078000256420312030784646303030300D0A0064
:10079000B01E00204F5F4620535450432025642054
:1007A000256420312030783030464630300D0A0044
:1007B0004F5F462053545043202564202564203148
:1007C0002030783030303046460D0A004F5F4620EA
:1007D0005354504320256420256420302030783045
:1007E00030303030300D0A0010B50E4B1B8883427C
:1007F00013DB0C4B1B88834203D10A4B5B888B4273
:100800000BDB084B1B8883420AD1064B5B888B426B
:1008100006D1044B9B88934202DC0123024C2360E7
:1008200010BD0000CE0000201814002010B586B0C6
:1008300012A207CA03AB07C30020009001900290E8
:100840000A2203A9CB2005F072FC052008F0C2FDA6
:100850000A226946CB2005F032FC002409E003A8F7
:10086000005D1DF80410884202D0002006B010BDC3
:10087000641C0A2CF3DB0120F8E7000001020304EA
:1008800005060708090A00002DE9F0411E48007816
:1008900010B90020BDE8F0811C48006842F21071D8
:1008A000B0FBF1F201FB120417480178184808F078
:1008B000C1FC0546200140EAA42087B2A00240EA1C
:1008C000241086B287EA0600C0F30D00A84207D1C3
:1008D000104811490860362008F08AFA0120D9E74B
:1008E0000D4800680B4988420BD00B4800688542D0
:1008F00007D1084608490860362008F079FA012037
:10090000C8E70020C6E700003D0000201C140020BE
:100910005219002040420F00F413002005480078CF
:10092000522802D0532802D100BF01207047002076
:10093000FCE700004314002010B50446224617A12E
:100940001A4808F0A9FA194808F0A8FC642008F031
:100950007FFD17A008F0A2FC642008F079FD1DA01F
:1009600008F09CFC642008F073FD23A008F096FCBE
:10097000642008F06DFD29A008F090FC642008F0C8
:1009800067FD2FA008F08AFCC82008F061FD30A0A8
:1009900008F084FC642008F05BFD10BD4750205334
:1009A000444D492025640D0A00000000B01E0020BF
:1009B0004F55545055545F4650474120434C454194
:1009C000525F4F55545055545F57494E2033203095
:1009D0000D0A00004F55545055545F465047412072
:1009E000434C4541525F4F55545055545F57494E03
:1009F000203320310D0A00004F55545055545F46A6
:100A000050474120434C4541525F4F555450555437
:100A10005F57494E203320320D0A00004F55545085
:100A200055545F4650474120434C4541525F4F5516
:100A3000545055545F57494E203320340D0A00005E
:100A40004F5F46205355534420330D0A00000000E9
:100A500047502053444D4920300D0A0010B508215D
:100A6000284805F08BF938B10121264805F086F9B0
:100A700010B101202449087023480078002833D0A1
:100A80000821204805F07AF970BB01211D4805F0C6
:100A900075F948BB1D48007888B100201A490870D4
:100AA0001B48007818B9FF201949087007E018485A
:100AB0000078401E16490870002016490870164834
:100AC000007888B100201049087011480078401C57
:100AD0000F49087001200F4908700D480078FF2861
:100AE00002D100200A4908700821064805F046F99D
:100AF000064908700121034805F040F906490870CD
:100B000010BD000000140140D2130020D0130020BB
:100B1000B5010020B4010020D113002000B5FFB0C2
:100B20003EA005F04BF93F48006800903D484368FF
:100B30003DA1826802A808F0AFF902A805F03EF9CD
:100B4000142008F085FC40480078022826D135485A
:100B50008069072821D2DFE800F004080C1014187F
:100B60001C003AA005F02AF917E03EA005F026F98E
:100B700013E042A005F022F90FE046A005F01EF9AF
:100B80000BE04AA005F01AF907E04EA005F016F9AF
:100B900003E052A005F012F900BF2AE02A480078CD
:100BA000012826D11F488069072821D2DFE800F0FC
:100BB00004080C1014181C004EA005F0FFF817E0F4
:100BC00052A005F0FBF813E056A005F0F7F80FE08F
:100BD0005AA005F0F3F80BE05EA005F0EFF807E08F
:100BE00062A005F0EBF803E066A005F0E7F800BFAF
:100BF00000BF0C48C06800900A48036967A14269B9
:100C000002A808F049F902A805F0D8F86CA005F090
:100C1000D5F8142008F01CFC7FB000BD53424328D7
:100C200035293B00701900204453313628362C31C9
:100C300035352C27253032643A253032643A253058
:100C40003264272C30293B002A14002044533136CB
:100C50002838362C3135352C27D6DCC8D5272C3012
:100C6000293B0000445331362838362C3135352C99
:100C700027D6DCD2BB272C30293B00004453313629
:100C80002838362C3135352C27D6DCB6FE272C30CB
:100C9000293B0000445331362838362C3135352C69
:100CA00027D6DCC8FD272C30293B000044533136C1
:100CB0002838362C3135352C27D6DCCBC4272C30C0
:100CC000293B0000445331362838362C3135352C39
:100CD00027D6DCCEE5272C30293B000044533136A3
:100CE0002838362C3135352C27D6DCC1F9272C3065
:100CF000293B0000445331362838362C3135352C09
:100D00002753756E2E272C30293B00004453313673
:100D10002838362C3135352C274D6F6E2E272C3048
:100D2000293B0000445331362838362C3135352CD8
:100D30002754756573272C30293B00004453313606
:100D40002838362C3135352C275765642E272C3022
:100D5000293B0000445331362838362C3135352CA8
:100D60002754687572272C30293B000044533136D4
:100D70002838362C3135352C274672692E272C30F1
:100D8000293B0000445331362838362C3135352C78
:100D9000275361742E272C30293B000044533136F1
:100DA000283133342C3135352C27253034642D252A
:100DB0003032642D25303264272C30293B0000006E
:100DC0005342432837293B0D0A00000000B5FDB00F
:100DD00008A004F0F3FF0948027809A1684608F06A
:100DE0005BF8684604F0EAFF0BA004F0E7FF7DB073
:100DF00000BD00005342432835293B002C1400203D
:100E000044533234283136302C32332C2725642792
:100E10002C30293B000000005342432837293B0D6A
:100E20000A00000070B58EB005460E468148007875
:100E30002B2833D00EDC1D2848D006DC0A2812D01F
:100E4000192811D01B2828D14DE027284AD02A285C
:100E5000F9D12FE0403807281FD2DFE800F050CE4C
:100E6000CE6A849EB60000BF73A004F0A7FF0024E2
:100E70000EE02B5D04EB8400982101EB400271A190
:100E800001A808F009F801A804F098FF601CC4B29A
:100E9000B442EEDB70A004F091FFAEE071A004F06C
:100EA0008DFF2A7878A101A807F0F6FF01A804F0C9
:100EB00085FFA2E07AA004F081FF2A7880A101A832
:100EC00007F0EAFF01A804F079FF96E082A004F0A1
:100ED00075FF2A7889A101A807F0DEFF01A804F0B8
:100EE0006DFF8AE000BF8BA004F068FF2A7892A112
:100EF00001A807F0D1FF01A804F060FF7DE094A0F5
:100F000004F05CFF00240EE02B5D04EB84008421E0
:100F100001EB400290A101A807F0BEFF01A804F078
:100F20004DFF601CC4B2B442EEDB5CA004F046FF8F
:100F300063E087A004F042FF00240EE02B5D04EB89
:100F40008400752101EB400288A101A807F0A4FFED
:100F500001A804F033FF601CC4B2B442EEDB4FA022
:100F600004F02CFF49E07AA004F028FF00240EE0F2
:100F70002B5D04EB8400752101EB400280A101A8E8
:100F800007F08AFF01A804F019FF601CC4B2B44244
:100F9000EEDB42A004F012FF2FE06DA004F00EFF84
:100FA00000240CE02B5D692000EBC40279A101A8AC
:100FB00007F072FF01A804F001FF601CC4B2B44244
:100FC000F0DB36A004F0FAFE17E061A004F0F6FEB4
:100FD00000240CE02B5D7D2000EBC4026DA101A874
:100FE00007F05AFF01A804F0E9FE601CC4B2B44245
:100FF000F0DB2AA004F0E2FE00BF00BF05F0A8FB72
:10100000B0B16AA004F0DAFE00240CE02B5D8C2065
:1010100000EBC4026EA101A807F03EFF01A804F096
:10102000CDFE601CC4B2B442F0DB1CA004F0C6FECE
:101030000EB070BD43140020534243283135293B84
:1010400000000000445331362825642C38332C2707
:101050002563272C30293B005342432837293B0D79
:101060000A00000043424F46283132362C36362CD7
:101070003135342C38392C332C3135293B5342430C
:10108000283135293B0000004453313628313337AD
:101090002C37302C272563272C30293B0D0A0000E4
:1010A00043424F462836362C36362C39342C3839C4
:1010B0002C332C3135293B534243283135293B0011
:1010C000445331362837372C37302C272563272CCB
:1010D00030293B0D0A00000043424F462831343688
:1010E0002C38312C3138342C39392C332C313529EA
:1010F0003B534243283135293B00000044533136ED
:10110000283135382C38332C272563272C30293BC0
:101110000D0A000043424F46283133312C38312C20
:101120003135392C39392C332C3135293B53424355
:10113000283135293B000000445331362831343200
:101140002C38332C272563272C30293B0D0A00002F
:101150005342432837293B00445331362825642C19
:1011600038302C272563272C30293B004453313657
:101170002825642C36312C272563272C30293B0069
:10118000445331362825642C38362C272563272CE8
:1011900030293B00445331362825642C3131312C21
:1011A000272563272C30293B0000000053424328A9
:1011B0003135293B43424F46283133312C313236C9
:1011C0002C3230342C3134392C312C3135293B0040
:1011D000445331362825642C3133302C272563279E
:1011E0002C30293B000000002DE9F04FADF5057DC6
:1011F00004462078303800F0FF096078303800F07D
:10120000FF08A0783038C5B2E0783038C6B220790F
:101210003038C7B26079303800F0FF0AA079303832
:1012200000F0FF0BE0793038C0B28490207A30387B
:10123000C0B28390607A3038C0B28290A07A3038E1
:10124000C0B28190E07A3038C0B28090FA4800781D
:1012500020287CD00EDC0E282BD006DC0B2817D0E3
:101260000C2824D00D2873D122E01E282DD01F2851
:10127000F9D192E02F2817D004DC212869D02E283C
:10128000F1D104E0302810D03128ECD10EE000BFBD
:101290004A46EAA103A807F0FFFD03A804F08EFD6B
:1012A000322008F0D5F890E300BF00BF00BF00BFB8
:1012B00000BF4A46E9A103A807F0EEFD03A804F029
:1012C0007DFD322008F0C4F87FE3207840B96078D3
:1012D00030B9A07820B9E07810B9207900285BD027
:1012E000607888B9A07878B9E07868B9207958B979
:1012F000E2A004F063FD4A46E2A103A807F0CCFD9A
:1013000003A804F05BFD47E0A07880B9E07870B9ED
:10131000207960B9D9A004F051FD43464A46E0A1C6
:1013200003A807F0B9FD03A804F048FD34E0E07815
:1013300098B9207988B9D1A004F040FD43464A46C7
:10134000DEA103A8009507F0A7FD03A802E088E04E
:101350004FE1EAE004F032FD1EE0207970B9C7A049
:1013600004F02CFD43464A46DBA103A8CDE9005614
:1013700007F092FD03A804F021FD0DE0BFA004F0EA
:101380001DFD43464A46DCA103A88DE8E00007F0B6
:1013900083FD03A804F012FD17E3207840B96078BC
:1013A00030B9A07820B9E07810B92079002857D05A
:1013B000607888B9A07878B9E07868B9207958B9A8
:1013C000AEA004F0FBFC4A46D3A103A807F064FDDD
:1013D00003A804F0F3FC43E0A07880B9E07870B98A
:1013E000207960B9A5A004F0E9FC43464A46D1A1A2
:1013F00003A807F051FD03A804F0E0FC30E0E0781A
:1014000078B9207968B99DA004F0D8FC43464A46D3
:10141000CFA103A8009507F03FFD03A804F0CEFC80
:101420001EE0207970B995A004F0C8FC43464A46F6
:10143000CFA103A8CDE9005607F02EFD03A804F0C4
:10144000BDFC0DE08DA004F0B9FC43464A46D0A196
:1014500003A88DE8E00007F01FFD03A804F0AEFC30
:10146000B3E2207840B9607830B9A07820B9E0784C
:1014700010B92079002857D0607888B9A07878B959
:10148000E07868B9207958B97CA004F097FC4A4606
:10149000C7A103A807F000FD03A804F08FFC43E0F8
:1014A000A07880B9E07870B9207960B973A004F0B1
:1014B00085FC43464A46C5A103A807F0EDFC03A8F6
:1014C00004F07CFC30E0E07878B9207968B96BA052
:1014D00004F074FC43464A46C3A103A8009507F0F4
:1014E000DBFC03A804F06AFC1EE0207970B963A05D
:1014F00004F064FC43464A46C2A103A8CDE9005665
:1015000007F0CAFC03A804F059FC0DE05BA004F04E
:1015100055FC43464A46C3A103A88DE8E00007F006
:10152000BBFC03A804F04AFC4FE2207840B9607885
:1015300030B9A07820B9E07810B92079002857D0C8
:10154000607888B9A07878B9E07868B9207958B916
:101550004AA004F033FC4A46BAA103A807F09CFC59
:1015600003A804F02BFC43E0A07880B9E07870B9C0
:10157000207960B941A004F021FC43464A46B8A155
:1015800003A807F089FC03A804F018FC30E0E07819
:1015900078B9207968B939A004F010FC43464A466E
:1015A000B6A103A8009507F077FC03A804F006FC99
:1015B0001EE0207970B931A004F000FC43464A4691
:1015C000B6A103A8CDE9005607F066FC03A804F015
:1015D000F5FB0DE029A004F0F1FB43464A46B7A114
:1015E00003A88DE8E00007F057FC03A804F0E6FB31
:1015F000EBE1BA4804F0E2FB207830B9607820B91A
:10160000A07810B9E078002813D0607890B9A0785D
:1016100080B9E07870B919A004F0D0FB4A46B0A1B7
:1016200003A807F039FC03A804F0C8FB322007F038
:101630000FFFC9E160E1000043140020534243283A
:101640003135293B44533136283136302C37312C53
:10165000272564272C30293B0D0A000053424328DC
:101660003135293B44533136283137382C31353028
:101670002C272564272C30293B0D0A005342432890
:1016800037293B00445331362836382C36332C2743
:10169000202025642020272C30293B0D0A00000043
:1016A000445331362836382C36332C2720256425F0
:1016B000642020272C30293B0D0A0000445331368A
:1016C0002836382C36332C272025642564256420C1
:1016D000272C30293B0D0A00445331362836382C4C
:1016E00036332C27202564256425642564272C3077
:1016F000293B0D0A00000000445331362836382CAF
:1017000036332C2725642564256425642564272C1D
:1017100030293B0D0A000000445331362831373060
:101720002C36332C27202025642020272C30293BE1
:101730000D0A000044533136283137302C36332C13
:101740002720256425642020272C30293B0D0A0002
:1017500044533136283137302C36332C272025643A
:101760002564256420272C30293B0D0A0000000049
:1017700044533136283137302C36332C272025641A
:10178000256425642564272C30293B0D0A000000C0
:1017900044533136283137302C36332C27256425F5
:1017A00064256425642564272C30293B0D0A00003C
:1017B000445331362836382C39332C2720202564E1
:1017C0002020272C30293B0D0A00000044533136DD
:1017D0002836382C39332C272025642564202027EF
:1017E0002C30293B0D0A0000445331362836382C62
:1017F00039332C272025642564256420272C3029A3
:101800003B0D0A00445331362836382C39332C2707
:10181000202564256425642564272C30293B0D0A86
:1018200000000000445331362836382C39332C2739
:1018300025642564256425642564272C30293B0D07
:101840000A00000044533136283137302C39332C0C
:1018500027202025642020272C30293B0D0A00005A
:1018600044533136283137302C39332C2720256426
:1018700025642020272C30293B0D0A0044533136A3
:10188000283137302C39332C2720256425642564F2
:1018900020272C30293B0D0A00000000445331362C
:1018A000283137302C39332C2720256425642564D2
:1018B0002564272C30293B0D0A00000044533136A3
:1018C000283137302C39332C2725642564256425AD
:1018D000642564272C30293B0D0A00003C4D01088B
:1018E00044533234283134362C3133362C27256496
:1018F000272C30293B0D0A00A078D0B9E078C0B978
:10190000AFF2882004F05AFA4A4632A103A807F041
:10191000C3FA03A804F052FA4246AFF23C0103A80E
:1019200007F0BAFA03A804F049FA322007F090FD54
:101930004AE0E07800BBAFF2BC2004F03FFA4A4630
:101940002AA103A807F0A8FA03A804F037FA424630
:1019500020A103A807F0A0FA03A804F02FFA2A4652
:10196000AFF2840103A807F097FA03A804F026FA5F
:10197000322007F06DFD27E0AFF2003004F01EFAD0
:101980004A4620A103A807F087FA03A804F016FA34
:10199000424616A103A807F07FFA03A804F00EFA46
:1019A0002A460CA103A807F077FA03A804F006FA68
:1019B0003246AFF2D40103A807F06EFA03A804F090
:1019C000FDF9322007F044FD00BF00BF0DF5057D95
:1019D000BDE8F08F44533234283131382C3133365E
:1019E0002C272564272C30293B0000004453323437
:1019F0002839302C3133362C272564272C30293BCD
:101A0000000000005342432837293B445332342816
:101A100036322C3133362C272564272C30293B00D5
:101A200010B5ADF5007D2B4800682B49B0FBF1F2F5
:101A300001FB120456208DF8000031208DF80100C2
:101A40002E208DF8020030208DF803002E208DF816
:101A5000040030208DF805002D208DF806000020B0
:101A60008DF807001DA004F0A9F928A004F0A6F93C
:101A700028A004F0A3F92E4A2EA103A807F00CFA1F
:101A800003A804F09BF931A004F098F9224636A18E
:101A900003A807F001FA03A804F090F938A004F0B5
:101AA0008DF93F4B6A463FA103A807F0F5F903A85B
:101AB00004F084F941A004F081F942A004F07EF919
:101AC00046A004F07BF947A004F078F90DF5007DFD
:101AD00010BD00001C14002040420F0043424F463E
:101AE00028302C302C3232302C3137362C312C35FA
:101AF000293B43424F4628302C33302C3232302C95
:101B00003134352C312C32293B000000534243281C
:101B100032293B00445331362832332C34362C27BB
:101B2000BBFAC6F7D0CDBAC53A272C30293B000006
:101B30006000002044533136283130362C34382CA4
:101B4000272573272C30293B0000000044533136F1
:101B50002832332C37392C27BBFAC6F74944BAC58B
:101B60003A272C30293B0000445331362831303697
:101B70002C37392C272564272C30293B0000000006
:101B8000445331362832332C3131312C27C8EDBC47
:101B9000FEB0E6B1BE3A2020272C30293B000000E1
:101BA0000910010844533136283130362C31313197
:101BB0002C2725732573272C30293B0053424328BB
:101BC00035293B0044533136283139392C313534ED
:101BD0002C275032272C31293B0000005342432848
:101BE00037293B000D0A000010B50246A2F5345318
:101BF0000F3B04D0A3F50063673B4ED126E0652977
:101C000004D066290CD067291ED113E0002004E01F
:101C1000354B1B5C354C2354401C0728F8DB13E084
:101C2000002004E0304B1B5C314C2354401C07283F
:101C3000F8DB09E0002004E02B4B1B5C2D4C235407
:101C4000401C0728F8DB00BF00BF4AE0652904D02C
:101C500066290CD067291ED113E0002004E0264B32
:101C60001B5C224C2354401C0728F8DB13E00020A7
:101C700004E0214B1B5C1E4C2354401C0728F8DB5E
:101C800009E0002004E01C4B1B5C1A4C2354401C50
:101C90000728F8DB00BF00BF23E0652904D06629D0
:101CA0000BD067291BD111E0002003E000230F4C6B
:101CB0002354401C0728F9DB11E0002003E0002337
:101CC0000B4C2354401C0728F9DB08E0002003E0FC
:101CD0000023084C2354401C0728F9DB00BF00BF39
:101CE00000BF00BF10BD0000381F0108AD0000207C
:101CF000B4000020BB0000203F1F01080146CB2993
:101D00006CD00FDC042941D005DC09B3012929D0AE
:101D100003296FD130E0052942D0C9294AD0CA2908
:101D2000F7D151E042F21323CA1A994275D00ADC66
:101D3000A1F580722D3A5BD0A2F50052E43A62D050
:101D4000012AE6D16BE0022A7DD0032AE1D184E0AA
:101D5000002004E0474A125C474B1A54401C1528E7
:101D6000F8DB85E0002004E0444A125C424B1A5440
:101D7000401C1528F8DB7BE0002004E0404A125CA0
:101D80003D4B1A54401C1528F8DB71E0002004E09C
:101D90003C4A125C384B1A54401C1528F8DB67E0AB
:101DA000002004E0384A125C334B1A54401C1528BA
:101DB000F8DB5DE0002004E0344A125C2E4B1A543C
:101DC000401C1528F8DB53E0002004E0304A125C88
:101DD000294B1A54401C1528F8DB49E0002004E088
:101DE0002C4A125C244B1A54401C1528F8DB3FE0A7
:101DF000002005E03BE0284A125C1F4B1A54401CAF
:101E00001528F8DB34E0002004E0244A125C1A4B69
:101E10001A54401C1528F8DB2AE00AE013E00020E1
:101E200004E01F4A125C144B1A54401C1528F8DBBE
:101E30001EE0002004E01B4A125C0F4B1A54401CA9
:101E40001528F8DB14E0002004E0174A125C0A4B66
:101E50001A54401C1528F8DB0AE0002004E0134A5D
:101E6000125C054B1A54401C1528F8DB00E000BF3B
:101E700000BF7047DA12010885000020D510010864
:101E8000EA100108FF1001081411010829110108C6
:101E90003E11010853110108681101087D11010864
:101EA00092110108A7110108BC110108D111010804
:101EB00070B505460E462878302804D1012E02D18F
:101EC00004F07AF90CE0002403E0285D0549085588
:101ED000641CB442F9DB00200249085503F0C0FC41
:101EE00070BD00006000002010B524480078502824
:101EF00002D004F02DFC20B104219420FEF728FB31
:101F00003AE01E48007862281DD00CDC5F2824D0FF
:101F100004DC402822D050282CD126E060281ED096
:101F2000612827D11CE06438052823D2DFE800F0BF
:101F300006030405100000BF00BF00BF052191206B
:101F4000FEF706FB17E00B219120FEF701FB12E0E4
:101F50000A219120FEF7FCFA0DE000BF00BF00BF90
:101F600006219120FEF7F4FA05E002219120FEF708
:101F7000EFFA00E000BF00BF10BD000043140020D6
:101F800010B504460C480470007800EB400101EBEA
:101F9000C0000A4901EB8000806A58B10648007809
:101FA00000EB400202EBC0000A4602EB8000816AAF
:101FB0002046884710BD000043140020B8010020CF
:101FC00010B51C480078222803D01A4800783A2817
:101FD00010D119480078042805DA17480078401C09
:101FE0001549087002E00120134908701148007873
:101FF00009F0DCFE0F48007800EB400101EBC00067
:102000000E4901EB8000407E0A49097888420FD0D2
:102010000848007800EB400101EBC000074901EBE4
:102020008000407E0349087008460078FFF7A8FF4B
:1020300010BD0000431400203B140020B801002014
:1020400010B504F0B3FB00286FD004F007F9524834
:1020500000780A38302872D2DFE800F018252A2FDD
:10206000344041424344454647717119715A715594
:102070005E62666D71717171715971711D2171713D
:10208000262B303571393A3B3C3D3E3F00BF43A0E3
:1020900003F094FE54E04FA003F090FE50E054A0F3
:1020A00003F08CFE4CE000BF58A003F087FE47E031
:1020B00000BF5DA003F082FE42E000BF5AA003F023
:1020C0007DFE3DE000BF58A003F078FE38E000BF81
:1020D00000BF00BF00BF00BF00BF00BF00BF00BF08
:1020E00000BF00BF00BF00BF00BF5748008857496E
:1020F0000988884203DC56A003F060FE02E054A089
:1021000003F05CFE1CE05AA003F058FE18E000BF8C
:102110005EA003F053FE13E063A003F04FFE0FE058
:102120006AA003F04BFE0BE001E00FE007E070A0B7
:1021300003F044FE04E077A003F040FE00E000BF9F
:1021400000BF15480078FFF71BFF23E004F086F876
:10215000114800783D2803D00F4800783E2807D169
:10216000042075490870FEF781FA00207249087052
:102170000948007800EB400101EBC0006F4901EB1A
:102180008000C07E0449087008460078FFF7F8FE1A
:1021900004F03AFF10BD00004314002043424F46B4
:1021A000283134352C38302C3138352C3130302C26
:1021B000332C3135293B43424F58283134352C38A4
:1021C000302C3138352C3130302C332C30293B0D2C
:1021D0000A00000043424F462836362C36362C394A
:1021E000342C38392C332C3135293B0D0A000000B2
:1021F00043424F46283132362C36362C3135342C7A
:1022000038392C332C3135293B0D0A0043424F46D7
:10221000283134362C36392C3138342C38372C339D
:102220002C3135293B0D0A0043424F4628313731C6
:102230002C3134362C3139342C3136392C312C3187
:1022400035293B0D0A0000003C1400203414002006
:1022500043424F46283133312C3132362C32303420
:102260002C3134392C312C3135293B0D0A0000003A
:1022700043424F46283134362C38312C3138342CF7
:1022800039392C332C3135293B0D0A0043424F4656
:10229000283133312C38312C3135392C39392C3324
:1022A0002C3135293B0D0A005342432837293B4343
:1022B000424F462836382C36332C3130362C3832C3
:1022C0002C312C37293B0D0A0000000053424328D3
:1022D00037293B43424F46283137302C36332C3296
:1022E00030382C38322C312C37293B0D0A000000B5
:1022F0005342432837293B43424F462836382C392E
:10230000332C3130362C3131322C312C37293B0DE6
:102310000A0000005342432837293B43424F4628D6
:102320003137302C39332C3230382C3130322C319B
:102330002C37293B0D0A000041140020B801002071
:1023400031B50024684604F037FE9DF800400CB11A
:10235000042C00DD38BD12480078222814D03A2819
:1023600013D03D2802D03E2812D104E00D4804705D
:10237000FEF77CF90CE00C480470002C03DD042C03
:1023800001DAFEF773F903E000BF0848047000BFEC
:1023900000BF0348007809F009FD00BFDAE700003C
:1023A0004314002040140020411400203B1400205E
:1023B00010B503F053FF06F06BFF02480078FFF7FB
:1023C000DFFD10BD4314002070B50024FD480578E2
:1023D000022003F079FF00B170BDFA48007855285B
:1023E00004D0562803D0572807D101E000BF00BF12
:1023F00006F070F8FFF724FEEEE7F2480078282890
:1024000073D014DCA0F10A001E286BD2DFE800F0C4
:102410004C434748498E8E8E8E8E8E8E8E6E8E4D9C
:102420008E368E343738393A706C8E8E8E35402821
:1024300029D010DC2F282FD006DC2A2832D02B28D8
:1024400031D02E2872D125E0302826D0312825D051
:102450003A286BD14BE0452819D006DC422817D02A
:10246000432811D0442861D10FE046280ED05028CF
:1024700059D053285AD10CE000BF00BF00BF00BFA5
:1024800000BF00BF00BF00BF00BF00BF00BF00BF54
:1024900000BF00BF00BF00BF00BF00BF00BF00BF44
:1024A00000BF00BF00BF00BF00BFC648007800EB00
:1024B000400101EBC000C44901EB8000C06990B14C
:1024C000C048007800EB400101EBC000BE4901EBC1
:1024D00080000022C369BB4801780420984710B9E6
:1024E0007AE702E022E022E000BF00BF00BF00BFA9
:1024F000B448007800EB400101EBC000B24901EBA9
:102500008000C06970B1AF48007800EB400101EB7A
:10251000C000AD4901EB80000022C369A9480178E1
:102520000420984703E006F041FF00E000BF00BF31
:1025300004F00EF9D8B1A348007800EB400101EB9C
:10254000C000A14901EB8000C06980B19D480078BE
:1025500000EB400101EBC0009B4901EB8000002231
:10256000C369984801780420984700B934E7954832
:10257000007800EB400101EBC000934901EB8000C3
:10258000807E9049097888427BD08E48007809285F
:1025900006D18E48007818B10A208A490870B5E142
:1025A00088480078182806D18848007818B1192082
:1025B00084490870AAE1834800782E282ED18448E7
:1025C0000088022803D12F207E4908709EE18048B0
:1025D0000088032803D130207A49087096E17C48AE
:1025E0000088042803D13120764908708EE101204B
:1025F000784908807849088078490880002078491F
:1026000008807048007800EB400101EBC0006E4983
:1026100001EB8000807E6B49087077E169480078A3
:102620000B282FD16A480088022803D10C20654965
:1026300008706BE166480088032803D10D206149CA
:10264000087063E162480088042803D10E205D49C8
:1026500008705BE101205F4908805F4908805F499D
:10266000088000205E4908805648007800EB400151
:1026700001EBC000544901EB8000807E5149087095
:1026800044E144E14F4800782F2815D1554800789F
:10269000012808D133204B49087050480088401C5D
:1026A0004E49088032E13420464908704B48008882
:1026B000401C4A49088029E142480078302815D159
:1026C00048480078012808D135203E490870434821
:1026D0000088401C4149088018E1362039490870BB
:1026E0003E480088401C3D4908800FE1354800788D
:1026F000312822D13B480078012808D137203149C0
:10270000087036480088401C34490880FEE035488F
:102710000078022808D138202A4908702F480088FC
:10272000401C2E490880F1E03920264908702B48CA
:102730000088401C29490880E8E0224800780C28DD
:1027400015D128480078012808D110201D490870AB
:1027500022480088401C21490880D7E011201949EF
:1027600008701E480088401C1C490880CEE01548AF
:1027700000780D2815D11B480078012808D11220B7
:102780001049087015480088401C14490880BDE0B5
:1027900013200C49087011480088401C0F4908801C
:1027A000B4E0084800780E2834D10E48007801289B
:1027B0001AD114200349087008480088401C0749B2
:1027C0000880A3E043140020B80100203314002047
:1027D0003814002034140020361400203C1400204B
:1027E0003E1400203A14002050480078022808D1F6
:1027F00015204F4908704F480088401C4D490880FB
:1028000084E016204A4908704A480088401C49491B
:1028100008807BE046480078242830D1464800787C
:1028200046490978884208DA43480078401C424902
:1028300008701E203E49087068E005F02FF901215C
:102840003F480078401E3F4A11543D4A1278521EBC
:102850003C4B995C3A4A1278521EB92303EB420072
:1028600006F096FA3248007800EB400101EBC00018
:10287000354901EB8000807E2D49087046E003F069
:1028800067FF48B32B48008830490988884205DA39
:1028900028480088401C2749088037E02C480088D9
:1028A0002C49098888420ADA22480088401C2149BC
:1028B000088027480088401C2549088026E01C48DD
:1028C000007800EB400101EBC0001F4901EB8000E4
:1028D000807E1749087019E0154800781B2809D137
:1028E00017480078401E1749085C18B11C20104991
:1028F00008700BE00E48007800EB400101EBC000CF
:10290000114901EB8000807E0949087001240848C4
:10291000007828B91048006810B9FFF749FD5BE559
:1029200003480078FFF72CFB00BF55E53A14002060
:10293000431400203C1400203114002030140020E7
:10294000321400207C1C0020B80100203414002028
:102950003E140020361400201814002010B506F094
:1029600097FC10480078022808D10F49802006F013
:102970007CFC0EA1902006F078FC0BE00948007862
:10298000012807D10F49802006F06FFC07A1902095
:1029900006F06BFC4FF47A7006F05AFDFFF750FB1F
:1029A00010BD00002A140020101C01082020202047
:1029B0002020202020202020202020202020202017
:1029C00000000000231C010810B506F061FC11484E
:1029D0000078022808D11049802006F046FC0FA19B
:1029E000902006F042FC0BE00A480078012807D14D
:1029F0001049802006F039FC08A1902006F035FC33
:102A00004FF47A7006F024FD08200B490870FFF798
:102A100017FB10BD2A140020101C010820202020C4
:102A200020202020202020202020202020202020A6
:102A300000000000231C01084314002037B50D4698
:102A40001446684604F0B8FA00B93EBD012C14D112
:102A50000020524908709DF800003030C1B24F4844
:102A600002780078401C4D4B18704D48815400206E
:102A70004B491A461278885417E048480078A0421B
:102A800013DA4848007880B99DF800003030C1B2B0
:102A9000424802780078401C404B187040488154EE
:102AA00000203F491A46127888543C480078A042DA
:102AB00002D101203B4908703B4800781E282FD0E6
:102AC000394800781F282BD037480078202827D095
:102AD00035480078212823D03348007850281FD06B
:102AE000314800782E281BD02F4800780B2817D0AB
:102AF0002D4800782F2813D02B48007830280FD08D
:102B00002948007831280BD0274800780C2807D0B6
:102B1000254800780D2803D0234800780E2803D1DB
:102B20001F48FEF761FB37E01F4800781D282ED0B4
:102B30001D48007827282AD01B4800781B2826D05B
:102B400019480078402822D01748007843281ED022
:102B50001548007844281AD013480078462816D023
:102B600011480078452812D00F4800782A280ED046
:102B70000D4800782B280AD00B4800780A2806D088
:102B800009480078192802D003F0E2FD20B103487B
:102B900001780348FEF746F900BF56E73D000020E4
:102BA000521900203C0000204314002000B5FFB063
:102BB0003D480078401C3C490870084600783C2895
:102BC00025D10020087039480078401C374908702A
:102BD000084600783C281AD1002008703448007854
:102BE000401C334908700846007818280FD100208F
:102BF000087030480078401C2E490870084600785C
:102C0000642190FBF1F201FB12002A4908702A4866
:102C10000078012813D185212648007802F0E2FAD5
:102C200090212348007802F0DDFA92211F480078B5
:102C300002F0D8FA94211C48007802F0D3FA1E481A
:102C4000007810B101282BD100E000BF1B480078AC
:102C500058B11BA003F0B2F81FA003F0AFF820A0FA
:102C600003F0ACF80020154908701BA003F0A6F88B
:102C70000D4800780D490978CDE900100C4803781B
:102C80000C4802781DA102A806F006F902A803F07C
:102C900095F825A003F092F8142006F0D9FB00E087
:102CA00000BF00BF7FB000BD5E0000205D000020BF
:102CB0005C0000205B000020431400205A0000202C
:102CC00043424F4628302C37302C3232302C3134AE
:102CD000372C352C38293B005342432838293B00F8
:102CE0004453313628362C37352C27BFAABBFACAB5
:102CF000B1BCE43A272C30293B0000004453313664
:102D00002834362C3130302C2725303264C8D52574
:102D1000303264CAB125303264B7D625303264C34C
:102D2000EB272C30293B00000D0A000010B51C4891
:102D30000078222803D01A4800783A2811D119487F
:102D40000078012805DD17480078401E15490870F5
:102D500002E00420134908701148007809F026F8B1
:102D60001DE00F48007800EB400101EBC0000E4968
:102D700001EB8000007E0A49097888420FD008489C
:102D8000007800EB400101EBC000074901EB800037
:102D9000007E0349087008460078FFF7F1F810BD7F
:102DA000431400203B140020B801002011B59BB053
:102DB000002001901BA804F0FFF808B91CB010BD5A
:102DC000BE48C069042848DABC4800684FF47A71EC
:102DD00090FBF1F0C0B28DF80400B848006864219F
:102DE00090FBF1F00A2190FBF1F201FB1200C0B25E
:102DF0008DF80500B148006890FBF1F090FBF1F20E
:102E000001FB1200C0B28DF80600AC48006890FBD0
:102E1000F1F201FB1200C0B28DF807009DF86C00C2
:102E2000A649C96901AA50549DF804004FF47A716B
:102E300048439DF8051001EBC10202EB011100EBC4
:102E400081009DF8061001EB810100EB41009DF827
:102E5000071008449949086062E09848C06906284C
:102E60002FDA964840680A2190FBF1F0C0B28DF845
:102E700004009248406890FBF1F201FB1200C0B2DE
:102E80008DF805009DF86C108C48C069001F01AAE0
:102E900011549DF805009DF8041001EB810100EB31
:102EA000410086494860084640680C2802DD0C2035
:102EB000486035E08148406858BB01207F49486040
:102EC0002EE07E4880680A2190FBF1F0C0B28DF8B8
:102ED00004007A48806890FBF1F201FB1200C0B256
:102EE0008DF805009DF86C107448C069801F01AA18
:102EF00011549DF805009DF8041001EB810100EBD1
:102F000041006E498860084680681F2802DD1F2046
:102F1000886005E06948806810B9012067498860C9
:102F20006649C969481CC11700EB5171C910A0EB73
:102F3000C101624AD16162A002F040FF5F4880682F
:102F400000905E48436860A1026802A805F0A4FFF3
:102F500002A802F033FF5948C069012815D162A0C8
:102F600002F02CFF55480068642190FBF1F00A2123
:102F700090FBF1F201FB120422465DA102A805F0CC
:102F80008BFF02A802F01AFF87E04C48C0690228B4
:102F900015D155A002F012FF484800680A2190FBA5
:102FA000F1F0642190FBF1F201FB1204224656A1DC
:102FB00002A805F071FF02A802F000FF6DE03F4893
:102FC000C069032812D148A002F0F8FE3B4800680F
:102FD0000A2190FBF1F201FB1204224650A102A843
:102FE00005F05AFF02A802F0E9FE56E03348C06936
:102FF000042810D13CA002F0E1FE304840680A21CC
:1030000090FBF1F422464CA102A805F045FF02A86E
:1030100002F0D4FE41E02948C069052812D132A04F
:1030200002F0CCFE254840680A2190FBF1F201FB3A
:103030001204224646A102A805F02EFF02A802F0C3
:10304000BDFE2AE01D48C069062810D126A002F066
:10305000B5FE1A4880680A2190FBF1F4224642A18D
:1030600002A805F019FF02A802F0A8FE15E0134817
:10307000C069072811D11CA002F0A0FE0F4880688B
:103080000A2190FBF1F201FB120422463CA102A8A6
:1030900005F002FF02A802F091FE3FA002F08EFEB2
:1030A0009DF86C203EA102A805F0F6FE02A802F0F1
:1030B00085FE41A002F082FE00BF7FE6281B0020B3
:1030C0005342432835293B00445331362839302CAC
:1030D00036322C27253034642D253032642D2530AE
:1030E0003264272C30293B005342432836293B00C9
:1030F000445331362839382C36322C272564272C76
:1031000030293B0D0A000000445331362831303657
:103110002C36322C272564272C30293B0D0A000041
:1031200044533136283131342C36322C272564274C
:103130002C30293B0D0A00004453313628313330FE
:103140002C36322C272564272C30293B0D0A000011
:1031500044533136283133382C36322C2725642716
:103160002C30293B0D0A00004453313628313534C8
:103170002C36322C272564272C30293B0D0A0000E1
:1031800044533136283136322C36322C27256427E9
:103190002C30293B0D0A00005342432837293B00BD
:1031A00044533136283133372C3134392C272564B8
:1031B000272C30293B0000005342432835293B0D82
:1031C0000A00000011B59BB0002001901BA803F07D
:1031D000F3FE08B91CB010BD8B48C069022827DA7D
:1031E000894800690A2190FBF1F0C0B28DF8040013
:1031F0008548006990FBF1F201FB1200C0B28DF826
:1032000005009DF86C008049C96901AA50549DF8D9
:1032100005009DF8041001EB810100EB41007A49A3
:10322000086108460069172857DD1720086154E037
:103230007548C069042828DA734840690A2190FB60
:10324000F1F0C0B28DF804006F48406990FBF1F2D4
:1032500001FB1200C0B28DF805009DF86C106A48A1
:10326000C069801E01AA11549DF805009DF8041044
:1032700001EB810100EB4100634948610846406968
:103280003B282ADD3B20486127E05F4880690A210E
:1032900090FBF1F0C0B28DF804005B48806990FBB0
:1032A000F1F201FB1200C0B28DF805009DF86C1020
:1032B0005548C069001F01AA11549DF805009DF8EA
:1032C000041001EB810100EB41004F498861084681
:1032D00080693B2801DD3B2088614B48C069401C68
:1032E000062190FBF1F201FB12004749C86147A09B
:1032F00002F064FD4448806900904348436945A159
:10330000026902A805F0C8FD02A802F057FD3E4878
:10331000C069012810D147A002F050FD3A48006969
:103320000A2190FBF1F4224644A102A805F0B4FD65
:1033300002A802F043FD56E03348C069022810D1CC
:103340003CA002F03BFD304840690A2190FBF1F4BB
:10335000224640A102A805F09FFD02A802F02EFD22
:1033600041E02948C069032812D132A002F026FDAD
:10337000254840690A2190FBF1F201FB1204224624
:103380003AA102A805F088FD02A802F017FD2AE084
:103390001D48C069042810D126A002F00FFD1A486C
:1033A00080690A2190FBF1F4224636A102A805F0BB
:1033B00073FD02A802F002FD15E01348C06905285C
:1033C00011D11CA002F0FAFC0F4880690A2190FB81
:1033D000F1F201FB1204224630A102A805F05CFDC7
:1033E00002A802F0EBFC33A002F0E8FC9DF86C2090
:1033F00032A102A805F050FD02A802F0DFFC35A0C2
:1034000002F0DCFC00BFE5E6281B00205342432805
:1034100035293B00445331362839302C39332C2799
:10342000253032643A253032643A25303264272C14
:1034300030293B005342432836293B004453313660
:103440002839382C39332C272564272C30293B0D7B
:103450000A00000044533136283131342C39332CE2
:10346000272564272C30293B0D0A000044533136B0
:10347000283132322C39332C272564272C30293B34
:103480000D0A000044533136283133382C39332C9F
:10349000272564272C30293B0D0A00004453313680
:1034A000283134362C39332C272564272C30293BFE
:1034B0000D0A00005342432837293B00445331365C
:1034C000283133372C3134392C272564272C3029E7
:1034D0003B0000005342432835293B0D0A00000001
:1034E00001B59AB01AA803F067FD08B91BB000BD7A
:1034F00022A002F063FC9DF868002249C8609DF894
:103500006800072801D10020C8601E48C06807284D
:1035100021D2DFE800F004080C1014181C001AA0D7
:1035200002F04CFC17E01EA002F048FC13E022A0C1
:1035300002F044FC0FE026A002F040FC0BE02AA0C1
:1035400002F03CFC07E02EA002F038FC03E032A0C1
:1035500002F034FC00BF00BF35A002F02FFC9DF844
:10356000682035A101A805F097FC01A802F026FC0F
:1035700037A002F023FC00BFB8E700005342432805
:1035800036293B00281B0020445331362839302C83
:103590003132352C27D6DCC8D5272C30293B00000A
:1035A000445331362839302C3132352C27D6DCD2F1
:1035B000BB272C30293B0000445331362839302CAE
:1035C0003132352C27D6DCB6FE272C30293B0000C3
:1035D000445331362839302C3132352C27D6DCC8CB
:1035E000FD272C30293B0000445331362839302C3C
:1035F0003132352C27D6DCCBC4272C30293B0000B8
:10360000445331362839302C3132352C27D6DCCE94
:10361000E5272C30293B0000445331362839302C23
:103620003132352C27D6DCC1F9272C30293B00005C
:103630005342432837293B0044533136283133372E
:103640002C3134392C272564272C30293B000000ED
:103650005342432835293B0D0A0000007047000003
:103660002DE9F04106460C4617461648007810B979
:103670000020BDE8F08113480178134805F0DAFD19
:10368000054602F0EBFD402C19D1022D0BD0032D85
:103690000DD0052D10D0A5F5F85090380BD1412054
:1036A000FEF76EFC0AE05020FEF76AFC06E05220AE
:1036B000FEF766FC02E000BF0120DAE700BF002051
:1036C000D7E700003D0000205219002010B500216E
:1036D00014480078401E00EBC000134A02EB400083
:1036E000C18110480078401E00EBC0000F4A02EB79
:1036F0004000C1810B480078401E0D4A1154094A10
:103700001278521E0A4B995C064A1278521EB9234F
:1037100003EB420005F03CFB02480078FDF70CF992
:1037200010BD000032140020201E0020861C002046
:103730007C1C00202DE9F04780460E46914600256E
:103740008827F7480078002877D1A6F10B002F28AA
:1037500074D2DFE800F0262C4864929394959697F3
:103760009899A9A9A9A9A9A9A99B9C9D9EA9A9A91C
:10377000A9A9A9A9A9181EA9A9252B47638A8B8CD9
:103780008D8E8F9091000020E64908700120BDE8E1
:10379000F0870020E449087003F004F90120F6E7FF
:1037A00000BF0220E14908800120F0E700BF0220AD
:1037B000DF49087008460078012806D10220DD495B
:1037C00008800120DC49088005E00120D9490880F3
:1037D0000220D94908800020D8490880D8490880AB
:1037E0000120D4E700BF0220D149087008460078C4
:1037F000012806D10320CF4908800120CE49088046
:1038000005E00120CB4908800320CB490880002037
:10381000CA490880CA4908800120B8E700BF0220D1
:10382000C349087008460078012808D10420C1491E
:1038300008800120C049088010E039E034E0BC482D
:103840000078022804D1BB490880BB49088005E004
:103850000120B84908800420B74908800020B749F2
:103860000880B7490880012091E700BF00BF00BF72
:1038700000BF00BF00BF00BF00BF00BF00BF00BF50
:1038800000BF00BF00BF00BF012080E700BF00BF36
:1038900000BFAC480078012804D1AB48007801286B
:1038A00000D174E7012072E700BF00BF00206EE77F
:1038B0009B480178A54805F0BDFC0446A6F10A0026
:1038C0003D282DD2DFE800F0F33D4D7399CFD0D1E4
:1038D000D2D3D4D5D62C2CF22CF12CF0EFEEEDEC8B
:1038E0002C2C2C2C2CEB2C2C1F2D2C2C3E4E749A7B
:1038F0002CC8C9CACBCCCDCE2C2C2C2C2C2C2C2CAF
:103900002CEAE9E8E700042C06DD02F0A7FC90A011
:1039100002F054FA00203AE782490C7002F09EFC53
:103920001EE2042C06DD02F099FC90A002F046FA9B
:1039300000202CE77C490C7002F090FC03F032F878
:103940000EE200BF0CB1042C06DD8FA002F036FAA7
:1039500002F084FC00201AE77448048002F07EFC28
:10396000FEE100BF0CB1022C06DD8EA002F026FAAB
:1039700002F074FC00200AE76D490C7008460078DC
:10398000012806D102206B49088001206A4908807D
:1039900005E001206749088002206749088000206F
:1039A000664908806649088002F058FCD8E100BFEB
:1039B0000CB1022C06DD7BA002F000FA02F04EFCF6
:1039C0000020E4E65A490C7008460078012806D128
:1039D00003205849088001205749088005E001204C
:1039E0005449088003205449088000205349088026
:1039F0005349088002F032FCB2E100BF0CB1032C45
:103A000006DD68A002F0DAF902F028FC0020BEE62C
:103A100047490C7008460078012806D10420454922
:103A200008800120444908800EE0414800780228BF
:103A300004D1404908804049088005E001203D4903
:103A4000088004203C49088000203C4908803C490B
:103A5000088002F003FC83E100BF00BF00BF00BF8D
:103A600000BF00BF00BF00BF00BF00BF00BF00BF5E
:103A700000BF00BF314800882E490988884220DCF9
:103A800014B1B4F5876F13DD4EA002F097F902F080
:103A9000E5FB00207BE635E106E11DE14AE137E088
:103AA000F0E0DEE0CAE0B7E020E032E048E146E1E5
:103AB00022480088401E4B4921F8104002F0CEFBFE
:103AC00013E014B1B4F5F06F06DD3EA002F076F914
:103AD00002F0C4FB00205AE619480088401E414904
:103AE000103921F8104002F0B9FB39E1082C00DC54
:103AF00034B902F0B3FB3CA002F060F9002046E6C6
:103B000011490C7001200F49087002F0A7FB27E152
:103B100000BF092C00DC14B902F0A0FB72E076E0D3
:103B20003D000020DA140020DB14002038140020AF
:103B30003A14002034140020361400203C140020D5
:103B40003E140020311400203014002052190020AF
:103B500043424F462836362C36362C39342C3839E9
:103B60002C332C3135293B0D0A00000043424F46CF
:103B7000283132362C36362C3135342C38392C332A
:103B80002C3135293B0D0A0043424F46283134364B
:103B90002C36392C3138342C38372C332C3135290C
:103BA0003B0D0A0043424F46283137312C31343621
:103BB0002C3139342C3136392C312C3135293B0D0F
:103BC0000A00000043424F46283133312C3132364F
:103BD0002C3230342C3134392C312C3135293B0DF9
:103BE0000A000000C81B002043424F4628313436EB
:103BF0002C38312C3138342C39392C332C313529AF
:103C00003B0D0A0059A002F0D9F80020BFE55E493B
:103C10000C7002F023FBA3E05C480088844208DDBE
:103C2000FCF754FC02F01AFB594802F0C7F80020D8
:103C3000ADE55848048002F011FB91E05648008839
:103C4000844209DDFCF742FC02F008FB5048683072
:103C500002F0B4F800209AE54E48448002F0FEFAE3
:103C60007EE04A480088844207DD02F0F7FA4848BF
:103C7000D03002F0A3F8002089E54648848002F0A5
:103C8000EDFA6DE044480088844208DDFCF71EFC34
:103C900002F0E4FA414802F091F8002077E53D484F
:103CA000C48002F0DBFA5BE03D48007878B13C4824
:103CB00000783C490870002505E03B48405D3B49E1
:103CC0004855681CC5B23A4800788542F5DD04F0D5
:103CD00083FF02F0C3FA43E03148007878B13048FE
:103CE000007834490870002505E02F48405D3249CE
:103CF0004855681CC5B22E4800788542F5DD02F0B3
:103D0000ADFA2DE02648007878B125480078294999
:103D10000870002505E02448405D27494855681C87
:103D2000C5B2234800788542F5DD02F0C3FC02F0FD
:103D300095FA15E021490C7002F090FA10E000BFEE
:103D4000A82C05D100201E49087002F087FA07E070
:103D500002F084FA11486C3002F030F8002016E5C9
:103D600000BF02F03BFA012011E5000043424F463C
:103D7000283133312C38312C3135392C39392C3329
:103D80002C3135293B0D0A00321400207C14002010
:103D9000F80D01080E1E00207E140020300F0108CF
:103DA0003D000020FC130020521900208C19002037
:103DB000FB130020FE13002000140020FF1300203E
:103DC000331400202DE9F041ADF5047D06460025B1
:103DD00000245F2E80F02887DFE816F0EC04260729
:103DE0002607260726070E072607260726076F0041
:103DF0005F007A01960106024C03B201CE01EA018E
:103E000022023E0268038403A003A4007000600045
:103E1000B200F900CF00C1000701080109010A0141
:103E2000BC030B015E016C01B300EB00DD0073000D
:103E300087008800710096008801A40114025A03CB
:103E4000C001DC01F80130024C0276039203AE039C
:103E5000BD037200CA03DD03DE03CB03EC03FA03E8
:103E6000FB0309040A040B041904CD033305E60619
:103E7000F006FA0604071A07CC0326074504CE030A
:103E800058045904CF037904260726072607260776
:103E90002607260726072607160500BFFC480078D8
:103EA0003D2805D0FBA001F089FF502005F0D0FA95
:103EB0003D20F749087000F0B8BE00BF00BF00BF4A
:103EC00000BFF348007805280BD0F5A001F076FF7D
:103ED000502005F0BDFAF2A001F070FF502005F06F
:103EE000B7FA0520EA490870E5E700BFE84800781E
:103EF0003A2808D0EDA001F061FF502005F0A8FAA3
:103F00003A20E3490870D6E7E1480078182805D040
:103F1000E9A001F053FF502005F09AFA1820DC497F
:103F20000870C8E7DA4800780F2805D0E5A001F04E
:103F300045FF502005F08CFA0F20D5490870BAE7EC
:103F400000BFD3480078092805D0E1A001F036FF72
:103F5000502005F07DFA0920CD490870ABE7CC4828
:103F600000780A2805D0DDA001F028FF502005F0D8
:103F70006FFA0A20C64908709DE7C54800783B28BB
:103F800005D0D9A001F01AFF502005F061FA3B20BE
:103F9000BF4908708FE7BE4800780E2805D0D5A02D
:103FA00001F00CFF502005F053FA0E20B8490870BC
:103FB00081E7B74800780B2805D0D1A001F0FEFEBC
:103FC000502005F045FA0B20B149087073E7B0485E
:103FD0000078122805D0CDA001F0F0FE502005F0A9
:103FE00037FA1220AA49087065E700BF00BF00BF7A
:103FF00000BFA74800780D284AD0C7A001F0DEFE18
:10400000502005F025FAC7480078012840D1C6485D
:10401000007801283CD10020C44908804880C44869
:1040200000888880C3480088C880C3A001F0C6FE0D
:10403000BE480288C2A107A804F02EFF07A801F01D
:10404000BDFEBDA001F0BAFEB8484288C2A107A8D3
:1040500004F022FF07A801F0B1FEB7A001F0AEFE08
:10406000B3480288C2A107A804F016FF07A801F010
:10407000A5FEB1A001F0A2FEAE480288C1A107A82A
:1040800004F00AFF07A801F099FE0A2005F0E0F904
:104090000D207F4908700EE77D480078082805D07C
:1040A000BEA001F08BFE502005F0D2F9082078491F
:1040B000087000E7764800783C2805D0BAA001F0E7
:1040C0007DFE502005F0C4F93C2071490870F2E6ED
:1040D0006F4800782D2808D0B6A001F06FFE2D2083
:1040E0006B490870502005F0B3F9E4E668480078A1
:1040F0001C2808D0B2A001F061FE1C2064490870A1
:10410000502005F0A5F9D6E661480078312808D09E
:10411000AEA001F053FE31205D490870502005F03B
:1041200097F9C8E65A480078242808D0AAA001F0D8
:1041300045FE242056490870502005F089F9BAE65A
:1041400053480078392808D0A6A001F037FE39205E
:104150004F490870502005F07BF9ACE64C480078D8
:104160002C2808D0A2A001F029FE2C204849087074
:10417000502005F06DF99EE645480078322808D0B9
:104180009EA001F01BFE322041490870502005F02E
:104190005FF990E63E480078252808D09AA001F003
:1041A0000DFE25203A490870502005F051F982E6AD
:1041B00037480078332808D096A001F0FFFD33205F
:1041C00033490870502005F043F974E63048007810
:1041D000262808D092A001F0F1FD26202C49087075
:1041E000502005F035F966E629480078302808D0D7
:1041F0008EA001F0E3FD302025490870502005F025
:1042000027F958E622480078232808D08AA001F030
:10421000D5FD23201E490870502005F019F94AE603
:104220001B480078342808D086A001F0C7FD342050
:1042300017490870502005F00BF93CE61448007847
:10424000272808D082A001F0B9FD27201049087066
:10425000502005F0FDF82EE60D480078352808D0EE
:104260007EA001F0ABFD352009490870502005F013
:10427000EFF820E606480078282808D07AA001F058
:104280009DFD282002490870502005F0E1F812E653
:1042900044140020535047283631293B0D000000BC
:1042A0005350472835293B0D000000005350472844
:1042B0003538293B0D000000535047283234293B44
:1042C0000D000000535047283135293B0D0A0000EE
:1042D0005350472839293B0D0A0000005350472806
:1042E0003130293B0D0A0000535047283539293B0E
:1042F0000D0A0000535047283134293B0D0A0000B5
:10430000535047283131293B0D0A000053504728AC
:104310003138293B0D0A0000535047283133293BDF
:104320000D0A000031140020301400200E1E002061
:104330007C1400207E1400205342432837293B0080
:10434000445331362836382C36332C272020256428
:10435000272C30293B0000004453313628313730B8
:104360002C36332C27202564272C30293B000000D5
:10437000445331362836382C39332C272564272CE2
:1043800030293B0044533136283137302C39332C17
:10439000272564272C30293B0D0A0000535047285D
:1043A00038293B0D0A000000535047283630293B7E
:1043B0000D0A0000535047283435293B0D0A0000F0
:1043C000535047283238293B0D0A000053504728E4
:1043D0003439293B0D0A0000535047283336293B16
:1043E0000D0A0000535047283537293B0D0A0000BD
:1043F000535047283434293B0D0A000053504728B6
:104400003530293B0D0A0000535047283337293BEC
:104410000D0A0000535047283531293B0D0A000092
:10442000535047283338293B0D0A00005350472882
:104430003438293B0D0A0000535047283335293BB7
:104440000D0A0000535047283532293B0D0A000061
:10445000535047283339293B0D0A00005350472851
:104460003533293B0D0A0000535047283430293B8F
:104470000D0A0000F84800782F2808D0F7A001F0B6
:104480009DFC2F20F4490870502004F0E1FFCCE39C
:10449000F1480078222808D0F3A001F08FFC2220F8
:1044A000ED490870502004F0D3FFBEE3EA480078DD
:1044B000362808D0EFA001F081FC3620E6490870CC
:1044C000502004F0C5FFB0E3E3480078292808D065
:1044D000EBA001F073FC2920DF490870502004F0A4
:1044E000B7FFA2E3DC480078372808D0E7A001F046
:1044F00065FC3720D8490870502004F0A9FF94E3E8
:10450000D54800782A2808D0E3A001F057FC2A20DB
:10451000D1490870502004F09BFF86E3CE48007814
:10452000382808D0DFA001F049FC3820CA490870BB
:10453000502004F08DFF78E3C74800782B2808D07E
:10454000DBA001F03BFC2B20C3490870502004F095
:104550007FFF6AE300BFC04800781E2807D0D7A0BD
:1045600001F02CFC1E20BC49087005F0C5FC5CE382
:1045700000BF00BF00BF00BF00BFB74800781128D0
:1045800005D0D1A001F01AFC502004F061FF1120E9
:10459000B149087049E300BFAF480078132805D03F
:1045A000CCA001F00BFC502004F052FF1320AA49CC
:1045B00008703AE3A8480078142808D0C8A001F091
:1045C000FDFB502004F044FF1420A34908702CE3A5
:1045D00000BFA1480078152808D0C4A001F0EEFB68
:1045E000502004F035FF15209B4908701DE300BFE3
:1045F00000BF99480078162808D0BFA001F0DEFB64
:10460000502004F025FF1620934908700DE39248CE
:104610000078172823D0BBA001F0D0FB502004F075
:1046200017FFAFF2EC2001F0C9FB00240DE0B84801
:10463000035D5A2000EBC402B6A107A804F02CFCCD
:1046400007A801F0BBFB601CC4B2B74800788442E5
:10465000EDDB84A001F0B2FB17207F490870B3A006
:1046600001F0ACFBE1E2B9A001F0A8FB322004F0BC
:10467000EFFE1A2078490870B7480278B7A107A85A
:1046800004F00AFC07A801F099FBCEE200BF7248D3
:1046900000781B2805D0B9A001F090FB782004F029
:1046A000D7FE1B206C490870B7480078522803D108
:1046B000B6A001F083FB06E0B3480078532802D18E
:1046C000C1A001F07BFB782004F0C2FEADE262489D
:1046D000007820286AD0C8484069C8490860C648A0
:1046E00000694860C448C0688860C3488069C86081
:1046F000C14880680861C04840684861BE48006899
:1047000088610020C861BEA001F058FBBFA001F085
:1047100055FBBA4880690090B8484369BDA1026959
:1047200007A804F0B9FB07A801F048FB142004F027
:104730008FFEB248C068072821D2DFE800F00408E5
:104740000C1014181C00BBA001F038FB17E0BFA030
:1047500001F034FB13E0C3A001F030FB0FE0C7A071
:1047600001F02CFB0BE0CBA001F028FB07E0CFA071
:1047700001F024FB03E0D3A001F020FB00BF00BF49
:104780009E48806800909D484368D4A1026807A8AD
:1047900004F082FB07A801F011FBD8A001F00EFB8A
:1047A000142004F055FE782004F052FE20202A49FF
:1047B00008703AE228480078042817D0D2A001F007
:1047C000FDFA642004F044FECFA001F0F7FA642063
:1047D00004F03EFECCA001F0F1FA642004F038FEB3
:1047E000C9A001F0EBFA642004F032FEC948007859
:1047F000012805D1C8A001F0E1FA0A2004F028FE42
:1048000004201549087010E213480078022805D0EA
:10481000D1A001F0D3FA282004F01AFE02200E499C
:104820000870BC480078012803D1CEA001F0C6FA78
:1048300006E0B8480078022802D1D1A001F0BEFA03
:10484000F3E1D6A001F0BAFA282004F001FE6620B8
:1048500001490870E9E10000441400205350472842
:104860003437293B0D0A0000535047283334293B85
:104870000D0A0000535047283534293B0D0A00002B
:10488000535047283431293B0D0A00005350472824
:104890003535293B0D0A0000535047283432293B57
:1048A0000D0A0000535047283536293B0D0A0000F9
:1048B000535047283433293B0D0A000053504728F2
:1048C0003330293B0D0A0000535047283137293B2C
:1048D0000D0A0000535047283139293B0D0A0000CA
:1048E000535047283230293B0D0A000053504728C7
:1048F0003231293B0D0A0000535047283232293B00
:104900000D0A0000535047283233293B0D0A00009E
:1049100099190020445331362825642C38362C2729
:104920002563272C30293B00FB13002043424F46D0
:10493000283132302C3131312C3138352C3132366E
:104940002C302C37293B0D0A00000000535047281B
:104950003236293B0D0A0000291400205342432817
:1049600037293B44533132283132332C37382C2706
:104970002564272C30293B0D0A000000535047289E
:104980003237293B0D0000004314002053424328D6
:1049900037293B43424F462834362C37312C3137A8
:1049A000342C38352C312C37293B445331322838BC
:1049B000362C37322C27CAC7B7F1BCCCD0F83F27EA
:1049C0002C30293B0D0A00005342432837293B4431
:1049D0005331322834372C37322C27B8C3B2D9D7C9
:1049E000F7BDABC7E5B3FDB1A3B4E6CAFDBEDD219B
:1049F000272C30293B0D0A0070190020281B0020AD
:104A0000535047283332293B0D00000053424328BE
:104A100035293B00445331362839302C39332C2783
:104A2000253032643A253032643A25303264272CFE
:104A300030293B00445331362839302C3132352C63
:104A400027D6DCC8D5272C30293B0000445331360B
:104A50002839302C3132352C27D6DCD2BB272C30EC
:104A6000293B0000445331362839302C3132352C63
:104A700027D6DCB6FE272C30293B000044533136C4
:104A80002839302C3132352C27D6DCC8FD272C3084
:104A9000293B0000445331362839302C3132352C33
:104AA00027D6DCCBC4272C30293B000044533136B9
:104AB0002839302C3132352C27D6DCCEE5272C3066
:104AC000293B0000445331362839302C3132352C03
:104AD00027D6DCC1F9272C30293B0000445331365E
:104AE0002839302C36322C27253034642D253032AD
:104AF000642D25303264272C30293B005342432853
:104B000037293B0D0A0000005350472834293B0D3C
:104B1000000000002B14002043424F46283138305B
:104B20002C392C3232302C34332C312C35293B5358
:104B300042432835293B44533136283138342C310F
:104B4000382C27D2D1CBF8272C30293B534243288D
:104B500037293B0D0A0000005350472832293B0DEE
:104B600000000000445331362837382C37392C27C1
:104B7000BCFCC5CCD2D1CBF8272C30293B0D0A0088
:104B8000445331362837382C37392C27BDE2CBF83F
:104B9000B3C9B9A6272C30293B0D0A00535047282A
:104BA000313032293B0D0A00F8A001F007F9282026
:104BB00004F04EFC6720F849087036E0F7A001F0D9
:104BC000FDF8282004F044FC6820F34908702CE02C
:104BD000F5A001F0F3F8282004F03AFC6920EE4932
:104BE000087022E0F3A001F0E9F8282004F030FC7E
:104BF0006A20E949087018E0F1A001F0DFF82820E8
:104C000004F026FC6B20E449087002F07FFD0CE004
:104C1000EEA001F0D3F8282004F01AFC6C20DE4945
:104C2000087002F073FD00E000BF00BF01F090FDCE
:104C300010B1304607F0BAF85D2E42D2DFE806F038
:104C4000FDFCFBFAF941F841412F4135393A3B412E
:104C500041414141414141423041F74141F6F5F482
:104C6000F3F2F1F04141EFEE41313D3E3241343655
:104C7000373841414141414141413C33EDECEBEAA0
:104C800041E9E8E7E6E541E4414141414141E34191
:104C900041E24141E1E0DFDE4141DD41DC0000BFB6
:104CA00000BF00BF00BF00BF00BF00BF00BF00BF0C
:104CB00000BF00BF00BF00BF00BF00BF304607F00D
:104CC00075F85EE1AFF6901001F078F80025002449
:104CD00005E0C14830F814000544601CC4B2BF4868
:104CE00000888442F5DB42F20F70854205D92A46DE
:104CF000BBA107A804F0D0F81DE0B5F57A7F05D375
:104D00002A46BDA107A804F0C7F814E0632D05D911
:104D10002A46BFA107A804F0BFF80CE0092D05D969
:104D20002A46C1A107A804F0B7F804E02A46C4A1A6
:104D300007A804F0B1F807A801F040F80025002406
:104D400006E0A548103830F814000544601CC4B2D1
:104D5000C14800888442F4DB42F20F70854205D9D5
:104D60002A46BEA107A804F097F81DE0B5F57A7FA2
:104D700005D32A46BFA107A804F08EF814E0632DDE
:104D800005D92A46C1A107A804F086F80CE0092D30
:104D900005D92A46C3A107A804F07EF804E02A46F4
:104DA000C6A107A804F078F807A801F007F8AFF249
:104DB0004C5001F003F801241AE056206043874963
:104DC000098890FBF1F000F14807562060438349C1
:104DD000098890FBF1F000F148083B464246BDA12E
:104DE00007A804F059F807A800F0E8FF601CC4B257
:104DF0007A480088844221E0B9E070E0BDE0BBE081
:104E0000B9E05BE059E056E056E064E062E060E063
:104E10005EE05CE04EE056E054E04AE03BE039E022
:104E200043E041E03FE03DE03BE039E034E030E0AA
:104E30009CE061E06AE092E097E05AE0BDDB01248B
:104E40001EE004EB041000EBC0008349098890FBCE
:104E5000F1F000F12A0704EB041000EBC0007E49DA
:104E6000098890FBF1F000F12A083B4642469EA1DA
:104E700007A804F011F807A800F0A0FF601CC4B256
:104E8000754800888442DCDBAFF2286000F096FFB2
:104E900077E000BF00BF00BF304606F087FF70E03C
:104EA00000BF00BF00BF00BF00BF304606F07EFF5E
:104EB00067E000BF00BF00BF00BF00BF304606F084
:104EC00075FF5EE000BF304606F070FF59E000BF9E
:104ED00000BF00BF00BF304606F068FF51E0874BBF
:104EE000874A884907A803F0D7FF07A800F066FFA4
:104EF00047E0FBF76BFF44E083A000F05FFF50202A
:104F000004F0A6FA6420244908703AE081A000F079
:104F100055FF04F0F1FF8248C08981498989804AA0
:104F200052897F4B1B89CDE90232CDE904107C48C0
:104F3000C0887B498988CDE9001079484388028878
:104F40007049683107A803F0A7FF07A800F036FFF3
:104F5000502004F07DFA65200F49087011E0FCF73D
:104F60005FFD65200C4908700BE000BF09E030468A
:104F700006F01CFF05E000BF00BF304606F016FF3C
:104F800000BF00BF0DF5047DBDE8F08153504728F8
:104F9000313033293B0D0A00441400205350472878
:104FA000313034293B0D0A00535047283130352920
:104FB0003B0D0A0053504728313036293B0D0A007B
:104FC00053504728313037293B0D0A0053504728AA
:104FD000313038293B0D0A00C81B00203414002052
:104FE000445331322831302C3130352C2725642779
:104FF0002C30293B00000000445331322831332C3F
:105000003130352C272564272C30293B0000000047
:10501000445331322831362C3130352C2725642742
:105020002C30293B00000000445331322831392C08
:105030003130352C272564272C30293B0000000017
:10504000445331322832322C3130352C2725642715
:105050002C30293B0000000036140020445331322C
:10506000283130352C35302C272564272C30293B2E
:105070000000000044533132283130382C35302CB8
:10508000272564272C30293B00000000445331328F
:10509000283131312C35302C272564272C30293B01
:1050A0000000000044533132283131342C35302C8B
:1050B000272564272C30293B00000000445331325F
:1050C000283131372C35302C272564272C30293BCB
:1050D00000000000504C2834322C25642C31393526
:1050E0002C25642C33293B00504C2825642C373266
:1050F0002C25642C3135382C33293B00091001084C
:105100006B000020704C0108535047283130302983
:105110003B0D0A0053504728313031293B0D0A001E
:105120005C1C00202DE9FC470446884600254FF40E
:105130007A7094FBF0F00A2190FBF1F201FB12006F
:10514000C6B2642094FBF0F090FBF1F201FB120078
:10515000C7B20A2094FBF0F090FBF1F201FB1200C1
:1051600000F0FF090A2094FBF0F100FB114000F071
:10517000FF0A36B106F13000C2B229466D1C0DF8A7
:10518000012007B936B107F13000C2B229466D1CC3
:105190000DF80120B9F1000F01D107B936B109F1BD
:1051A0003000C2B229466D1C0DF801200A2094FB84
:1051B000F0F100FB11403030C2B229466D1C0DF8F1
:1051C000012000200DF8050004A1404604F04DF830
:1051D0006946404604F049F8BDE8FC8720202020BD
:1051E000000000002DE9F84304460E4600250A2081
:1051F00094FBF0F00A2190FBF1F201FB1200C7B220
:105200000A2094FBF0F100FB114000F0FF080FB9F9
:10521000202001E007F13000C2B229466D1C0DF8D4
:10522000012008F13000C2B229466D1C0DF80120A2
:1052300000200DF805006946304604F016F8BDE878
:10524000F883000010B52B48008884B22AA196206C
:1052500004F00BF896212046FFF7C4FF254880880C
:1052600084B294212046FFF7BDFF2248008984B212
:1052700092212046FFF7B6FF1E48008B84B21F48DC
:105280000078022804D1E0B2992100F055F82FE00F
:105290001A48007801282BD1072C28D2DFE804F027
:1052A00004090E13181D220015A1982003F0DDFF3C
:1052B0001DE015A1982003F0D8FF18E014A1982054
:1052C00003F0D3FF13E014A1982003F0CEFF0EE00B
:1052D00013A1982003F0C9FF09E013A1982003F05F
:1052E000C4FF04E012A1982003F0BFFF00BF00BF7D
:1052F00010BD000070190020202000002A1400209A
:1053000053756E2E000000004D6F6E2E00000000E1
:1053100054756573000000005765642E000000009E
:1053200054687572000000004672692E000000008B
:105330005361742E0000000038B504460D4600206D
:105340000090072C36D2DFE804F0040B1219202756
:105350002E00C8208DF80000D5208DF8010029E02E
:10536000D2208DF80000BB208DF8010022E0B6208D
:105370008DF80000FE208DF801001BE0C8208DF89C
:105380000000FD208DF8010014E0CB208DF8000016
:10539000C4208DF801000DE0CE208DF80000E5203E
:1053A0008DF8010006E0C1208DF80000F9208DF88D
:1053B000010000BF00BF6946284603F056FF38BD14
:1053C00010B50E48808A84B20D480480832120469F
:1053D000FFF7A8FE0948008A84B209484480862164
:1053E0002046FFF7FFFE0548808984B20448848088
:1053F00088212046FFF7F6FE10BD0000701900203E
:10540000C200002010B5012000F0ACF800B3002469
:1054100006E06FF00C000F4908600F490860641C3B
:105420000E488442F5DD002406E04FF0FF300A49C3
:10543000086008490860641C09488442F5DD0024BE
:1054400003E0012000F088F8641C06488442F8DD7F
:1054500010BD00000C0C01400C08014000127A0045
:1054600080841E0040420F0010B54FF400612448B4
:1054700000F084FC00283ED122480078A0B32248E6
:105480000088642806DD20480088962802DA00207B
:105490001E4908701C480088B0F5487F07DA1A4892
:1054A00000881B49194A127821F8120004E01948B3
:1054B0000078401C174908700020134908801348E1
:1054C0000078401C1149087008460078212807D14F
:1054D00001201149087000200C4908700D4908701E
:1054E00000200849087006E0FFE700200649088010
:1054F0000120044908704FF4006000F02DF810BD41
:10550000000801405D140020561400205E140020A5
:10551000E61A0020591400205814002010B5642009
:1055200003F096FF0221074800F028FC28B906483E
:105530000078022801D1FCF747FF022000F00CF8A8
:1055400010BD0000001401402B14002010B5642091
:1055500003F07EFF10BD00000149086070470000A5
:1055600014040140014600200022074B1B6803EA97
:105570000102054B14331B680B4202D00AB1012013
:1055800000E0002070470000000401400021234992
:105590008279002A3AD00A46126803689A430B4679
:1055A0001A600A1D126803689A430B1D1A6002797B
:1055B00011440A6803681A430A60184A08321268DC
:1055C00003689A43154B08331A601A1D1268036862
:1055D0009A43124B0C331A604279102A0ED11A1FCB
:1055E000126803681A430D4B08331A601A1D1268BB
:1055F00003681A43094B0C331A600DE007494279DE
:1056000011440A6803681A430A6005E002791144EC
:105610000A6803689A430A6070470000000401406A
:105620001FB50121212001F035FD0220ADF80C004D
:1056300048208DF80F0003A9114800F0CDFA012190
:10564000032000F0A9FA0220019000208DF8080044
:105650000C208DF8090001208DF80A0001A8FFF741
:1056600095FF07208DF8000003208DF801008DF8CC
:10567000020001208DF80300684601F04FFC1FBDB9
:10568000001401400EB50121112001F003FD0C2191
:10569000022000F081FA4FF48050019000208DF834
:1056A00008000C208DF8090001208DF80A0001A8DF
:1056B000FFF76CFF28208DF8000002208DF8010014
:1056C00001208DF802008DF80300684601F026FCE9
:1056D0000EBD00000149C860704700000020024074
:1056E00070B5054640F6FF76304600F055F80428C0
:1056F00013D10A4C206940F00200206165612069E5
:1057000040F040002061304600F046F8012804D007
:10571000216941F6FD721140216170BD00200240F7
:1057200008490420CA68D20701D001207047CA681E
:10573000520701D502207047C968C906FBD503206E
:10574000704700000020024070B506460D460F204D
:1057500000F022F804280FD1084C206940F0010025
:10576000206135800F2000F017F8012804D021694E
:1057700041F6FE721140216170BD00000020024020
:10578000034802494160034941607047230167456E
:1057900000200240AB89EFCD00B50346FFF7C0FF04
:1057A00005E0FF20401EFDD1FFF7BAFF5B1E012878
:1057B00002D1002BF5D101E0002B00D1052000BD66
:1057C00010B509496B2001F0B7FE0748007850B9C1
:1057D0000120054908702D20FCF7D2FB0248017812
:1057E0006B2003F0D5FA10BDDF13002070B504461E
:1057F0000D46042006490870FFF7C2FF3520FFF769
:1058000069FF2046FFF76CFF0149087070BD00007A
:10581000E400002010B586B0002000220E4909E007
:1058200011F8013B0DF800300346401C1DF8033011
:105830001344DAB2084B15339942F1D30B789342F3
:1058400008D1002004E01DF80030044C2354401C13
:105850001528F8DB06B010BD00F403086000002036
:1058600070B586B000240025002617491748FFF7B9
:10587000BDFF00BF08E01648005D0DF804001448A5
:10588000005D3044C6B2641C152CF4DB8DF8156045
:105890000E4D00240DE01DF80420601C1DF80000D2
:1058A00042EA00212846FFF74FFF0A490870AD1C65
:1058B000A41C06481630854203D206480078042806
:1058C000E9D006B070BD000000F8030800F403083A
:1058D00060000020E400002008B50121084601F026
:1058E000D9FB01214FF4C02001F0C4FB012144F297
:1058F0007C0001F0CFFB0121A04800F0F7F9012165
:105900009F4800F0F3F9C020ADF8000010208DF89A
:10591000030003208DF8020069469A4800F05CF904
:105920000120ADF8000010208DF8030003208DF851
:1059300002006946944800F04FF94FF40070ADF84A
:10594000000010208DF8030003208DF80200694646
:105950008C4800F041F90220ADF8000048208DF895
:1059600003006946884800F037F90420ADF80000CC
:1059700010208DF8030003208DF80200694682484C
:1059800000F02AF90820ADF8000010208DF803007F
:1059900003208DF8020069467B4800F01DF948F2AB
:1059A0001000ADF8000010208DF8030003208DF8E2
:1059B00002006946744800F00FF94FF40050ADF84A
:1059C000000010208DF8030003208DF802006946C6
:1059D0006C4800F001F94FF40040ADF800001020D1
:1059E0008DF8030003208DF802006946654800F039
:1059F000F3F84FF48040ADF8000010208DF803005C
:105A000003208DF8020069465E4800F0E5F84FF487
:105A10008070ADF8000010208DF8030003208DF891
:105A200002006946574800F0D7F80920ADF8000099
:105A300048208DF803006946544800F0CDF84FF433
:105A4000C060ADF8000010208DF8030003208DF831
:105A5000020069464E4800F0BFF80220ADF8000091
:105A600010208DF8030003208DF802006946454898
:105A700000F0B2F88020ADF8000010208DF803008F
:105A800003208DF802006946414800F0A5F8802106
:105A90003F4800F07EF94FF48070ADF80000102010
:105AA0008DF8030003208DF802006946384800F0A5
:105AB00093F84FF40170ADF8000003208DF8020058
:105AC00018208DF803006946324800F085F84FF43D
:105AD0008160ADF8000004208DF8030069462D4870
