:020000040800F2
:10000000B0DF0020650100086D0100086F010008E5
:10001000710100087301000875010008000000006C
:100020000000000000000000000000007701000850
:1000300079010008000000007B01000803E90008C6
:100040007F0100087F0100087F0100087F01000890
:100050007F0100087F0100087F0100087F01000880
:100060007F0100087F0100087F0100087F01000870
:100070007F0100087F0100087F0100087F01000860
:100080007F0100087F0100087F0100087F01000850
:100090007F0100087F0100087F0100087F01000840
:1000A0007F0100087F0100087F0100087F01000830
:1000B0007F0100087F0100087F0100087F01000820
:1000C0007F0100087F0100087F0100087F01000810
:1000D0007F01000885F100087F0100087F0100080A
:1000E0007F0100087F0100087F0100080000000078
:1000F0000000000000000000000000000000000000
:1001000000000000000000007F0100087F010008DF
:1001100045F000086DF0000835EA00087F0100088E
:100120007F0100087F0100087F0100087F010008AF
:100130007F0100087F0100087F0100087F0100089F
:100140007F0100087F0100087F0100087F0100088F
:10015000DFF80CD000F0DCF8004800472926010841
:10016000B0DF00200648804706480047FEE7FEE76C
:10017000FEE7FEE7FEE7FEE7FEE7FEE7FEE7FEE757
:1001800085E90008510100082DE9F0410024061B13
:10019000254671F1000605DA01240027D0EB07009F
:1001A00067EB0101161E73F1000605DA0027D2EB9A
:1001B0000702012567EB030300F079F886460E4637
:1001C00017469C46AC4204D00025D0EB050E65EBEB
:1001D000010624B10020D2EB000760EB030C70464F
:1001E00031463A466346BDE8F081202A04DB203AD6
:1001F00021FA02F00021704721FA02F3D040C2F147
:100200002002914008431946704740EA01039B07CA
:1002100003D009E008C9121F08C0042AFAD203E07B
:1002200011F8013B00F8013B521EF9D27047D2B2DF
:1002300001E000F8012B491EFBD270470022F6E7CF
:1002400010B513460A4604461946FFF7F0FF20464C
:1002500010BD421E12F8013F002BFBD111F8013BEB
:1002600002F8013B002BF9D17047421C10F8011B2A
:100270000029FBD1801A704710B5002200E0521C03
:10028000835C8C5CA34201D1002BF8D1D8B2E1B2DF
:10029000401A10BD30B504460020034600E05B1C48
:1002A000934203D2E05CCD5C401BF8D030BD2DE919
:1002B000F05F0546002092469B46884606468146EA
:1002C00040241BE02846414647462246FFF78DFF63
:1002D00053465A46C01A914110D311461846224639
:1002E00000F028F82D1A67EB01084F46224601203E
:1002F000002100F01FF817EB00094E41201EA4F169
:100300000104DFDC484631462A464346BDE8F09FFB
:10031000064C074D06E0E06840F0010394E8070052
:1003200098471034AC42F6D3FFF716FF00260208B8
:1003300020260208202A04DB203A00FA02F10020DD
:1003400070479140C2F1200320FA03F31943904013
:10035000704770B58C1810F8015B15F0070301D1D8
:1003600010F8013B2A1106D110F8012B03E010F818
:10037000016B01F8016B5B1EF9D12B0705D400233B
:10038000521E0DD401F8013BFAE710F8013BCB1ADD
:10039000921C03E013F8015B01F8015B521EF9D5D2
:1003A000A142D8D3002070BD10B50446BE2215214D
:1003B00011F09DFB1A221146204610F077FE2046D0
:1003C0007822BDE81040012110F070BE10B5017F09
:1003D000044641B1012906D0022907D0BDE81040EA
:1003E0000AA00EF025BFB82215210BE00A221A211F
:1003F00010F05CFE00220121204610F057FEA022E2
:1004000015212046BDE8104011F071BB556E6B6E92
:100410006F776E206D6F64652025640D0A00000003
:10042000F8B50D461446064669460FF099F900984E
:10043000800703D0002028602060F8BD56F8210F07
:100440002860706820600120F8BD000038B50446BF
:1004500000208DF800006946204607F0F9F8FF28D3
:1004600004D09DF80000032801D0FF2038BD20688B
:10047000802101EA8012402101EA00100243482154
:10048000204610F013FE2046FFF78EFF42220C217B
:10049000204611F02CFB44220B21204611F027FBB3
:1004A0000122CF21204610F00DFA2079C107090F53
:1004B000C0F3400241EA8201C0F3800241EA4203F4
:1004C000C0F3C0000343F0220221204611F023FBB9
:1004D0002046E278032111F00AFBA0781F22400792
:1004E000030E0421204611F016FB2079C0F3001101
:1004F000C900C0F3401241EA8201C0F3801241EA10
:100500004203C0F3C0100343F0220521204611F03E
:1005100002FB30226921204610F0D4F9A6220621E0
:10052000204611F0E4FA7F221421204611F0DFFA70
:10053000207A012101EB4000C2B2BA21204610F01E
:10054000C1F9DC22F321204610F0BCF92322F92165
:10055000204610F0B7F923224521204610F0B2F9C9
:100560002D22C921204610F0ADF90122B5212046E7
:1005700010F002F82046627802210FF0FDFFA088FB
:10058000EF22C0F3002003013021204611F0C3FA0E
:10059000C2224021204611F0AAFAD722412120464A
:1005A00011F0A5FA98224621204611F0A0FAC022A7
:1005B0006E21204611F09BFA10227321204611F083
:1005C00096FA0122204920460FF040FF1E4947F6C7
:1005D0007F72491C20460FF039FF00221B4920463C
:1005E0000FF034FF19498022491C20460FF02EFFDE
:1005F00016498022891C20460FF028FF134900224B
:10060000C91C20460FF022FF0320C4F8B400204686
:1006100000F022F92046FFF7D9FE207F18B9052106
:10062000204600F03FFA207F012803D131212046E7
:1006300000F038FA207F022803D10A21204600F07A
:1006400031FA012038BD00000119A000000998000E
:1006500010B5044691B10022772112F038FE022233
:100660007E21204612F033FE0F227721204612F021
:100670002EFEBDE81040052003F095B900F0D8F932
:1006800000227E21F2E7000070B590B0064611F01E
:1006900046FE002865D06021304611F017FAC007E9
:1006A00061D08321304611F011FAC00715D030A077
:1006B0000EF0BEFD01228521304611F018FA83218B
:1006C000304611F003FAC00707D036A00EF0B0FD97
:1006D00001228521304611F00AFAE221304611F05C
:1006E000E5F90546E121304611F0E0F904460146FE
:1006F0002A4638A00EF09CFD022C30D100240BAD10
:10070000E1B2304611F0D2F92855641C0E2CF7DB0B
:100710009DF8360007AC9DF839309DF838209DF8DB
:10072000371084E80F009DF8320003AC9DF8353097
:100730009DF834209DF8331084E80F009DF82F00B9
:100740009DF831209DF830108DE807009DF82E307F
:100750009DF82D209DF82C1028480EF069FD10B052
:1007600070BD27A000E034A00EF062FDF7E70000A6
:1007700041564920696E666F6672616D65206368D7
:1007800065636B73756D206572726F72206861733B
:10079000206F63637572726564206561726C696550
:1007A000720D0A0041564920696E666F6672616D6E
:1007B0006520636865636B73756D206572726F7217
:1007C000207374696C6C2070726573656E740D0AA9
:1007D0000000000041564920696E666F6672616DC7
:1007E000652076657273696F6E2025642028256404
:1007F0002062797465290D0A00000000A022020819
:1008000072656365697665204456492D4420736995
:10081000676E616C202841564920696E666F66726A
:10082000616D65206E6F7420737570706F72746582
:1008300064290D0A0000000041564920696E666F68
:100840006672616D65206E6F74207265636569768E
:1008500065640D0A0000000010B5017F044641B137
:10086000012906D002296FD0BDE8104066A00EF025
:10087000DFBC0222002111F03AF9022201212046B8
:1008800011F035F904220D21204610F00FFC002252
:100890003D21204610F00AFC74223E21204610F033
:1008A00005FC3B224E21204610F000FC742257210B
:1008B000204610F0FBFB63225821204610F0F6FB87
:1008C00018228D21204610F0F1FB34228E21204683
:1008D00010F0ECFB88229321204610F0E7FB2E223B
:1008E0009421204610F0E2FB00229621204610F0D1
:1008F000DDFB0822002120460FF03EFE06220121EA
:1009000020460FF039FE0022C82120460FF034FEA9
:100910008522152120460FF02FFE7B221221204632
:100920000FF02AFE1F220C2120460FF025FE842204
:100930003E2120460FF0C6FF3922C32120460FF08A
:10094000C1FF56225AE0FFE784220D2110F0AEFBD2
:1009500010223D21204610F0A9FB39223E212046DD
:1009600010F0A4FB3B224E21204610F09FFBB62244
:100970005721204610F09AFB03225821204610F000
:1009800095FB18228D21204610F090FB34228E21F9
:10099000204610F08BFB8B229321204610F086FB23
:1009A0002D229421204610F081FB01229621204621
:1009B00010F07CFBFF22002120460FF0DDFDFE221F
:1009C000012120460FF0D8FD4022C82120460FF01B
:1009D000D3FDFB22122120460FF0CEFD0D220C216B
:1009E00020460FF0C9FD80223E2120460FF06AFF0D
:1009F0003922C32120460FF065FF80222046BDE842
:100A0000104040210FF05EBF414456373630345F0E
:100A100053656C656374496E7075743A20556E6BDE
:100A20006E6F776E206D6F64652025640D0A00007F
:100A300070B50C4605460022772112F048FC21468D
:100A4000284600F057F82846BDE870400F2277216D
:100A500012F03DBC10B50446C8B22077022801D977
:100A6000FF2010BD2046FFF7F7FE2046FFF7AEFC43
:100A7000207F18B90521204600F014F8207F0128B6
:100A800003D13121204600F00DF8207F022803D148
:100A90000A21204600F006F80320C4F8B400012023
:100AA00010BD000010B504463A2901D9002010BD40
:100AB00001EB41100649842201EB80010548FFF754
:100AC000A4FB044920460FF015FD012010BD0000D5
:100AD000CC6701085003002010B50446FFF7A8FFBB
:100AE00001227E21204612F0F2FBBDE810400520D5
:100AF00002F04EBF70B5002405460A2916D90A39FE
:100B0000C8B20AF0C5FCFE4EE1B22846325D0FF0D5
:100B1000FDFE641C7F2CF7DD8024E1B20022284614
:100B20000FF0F4FE641CFF2CF7DD70BD00297DD0B2
:100B300001297CD0022901F0028203294FF0000232
:100B4000114601F0F9860FF0E1FEFF22012128464F
:100B50000FF0DCFEFF22022128460FF0D7FEFF2215
:100B6000032128460FF0D2FEFF22042128460FF071
:100B7000CDFEFF22052128460FF0C8FEFF220621E8
:100B800028460FF0C3FE0022072128460FF0BEFEC4
:100B90001022082128460FF0B9FEAC220921284670
:100BA0000FF0B4FE24220A2128460FF0AFFEA02247
:100BB0000B2128460FF0AAFE53220C2128460FF0E5
:100BC000A5FE52220D2128460FF0A0FE4A220E213A
:100BD00028460FF09BFE31220F2128460FF096FE8B
:100BE0000122102128460FF091FE112211462846BD
:100BF0000FF08CFE0122122128460FF087FE0322FF
:100C0000132128460FF082FE6822142128460FF097
:100C10007DFE2622152128460FF078FE1E22162181
:100C200028460FF073FE7822172101E00CE2FDE365
:100C300028460FF06BFEEE22182128460FF066FEC4
:100C4000CA22192128460FF061FEF6221A212846F1
:100C50000FF05CFEA3221B2128460FF057FE5722FF
:100C60001C2128460FF052FE47221D2128460FF076
:100C70004DFE9E221E2128460FF048FE23221F21F2
:100C800028460FF043FE1122202128460FF03EFE99
:100C90004F22212128460FF039FE542222212846D6
:100CA0000FF034FEA522232128460FF02FFE4B2201
:100CB000242128460FF02AFE0022252128460FF085
:100CC00025FE7122262128460FF020FE4F222721E3
:100CD00028460FF01BFE8122282128460FF016FE21
:100CE0008022292128460FF011FE01222A212846C0
:100CF0000FF00CFE01222B2128460FF007FE0122E7
:100D00002C2128460FF002FE01222D2128460FF04B
:100D1000FDFD01222E2128460FF0F8FD01222F2192
:100D200028460FF0F3FD0122302128460FF0EEFD9A
:100D30000122312128460FF0E9FD01223221284607
:100D40000FF0E4FD0122332128460FF0DFFD0122E0
:100D5000342128460FF0DAFD0122352128460FF014
:100D6000D5FD3022362128460FF0D0FD2A2237212A
:100D700028460FF0CBFD0022382128460FF0C6FD93
:100D80009822392128460FF0C1FD51223A212846E8
:100D90000FF0BCFD00223B2128460FF0B7FD2A22B0
:100DA0003C2128460FF0B2FD40223D2128460FF09D
:100DB000ADFD30223E2128460FF0A8FD70223F21D4
:100DC00028460FF0A3FD1322402128460FF09EFD78
:100DD0000022412128460FF099FD7C22422128461D
:100DE0000FF094FD3122432128460FF08FFD112290
:100DF000442128460FF08AFD0022452128460FF0A5
:100E000085FD0022462128460FF080FD1E22472145
:100E100028460FF07BFD0022482128460FF076FD82
:100E20000022492128460FF071FD00224A21284660
:100E30000FF06CFDFD224B2128460FF067FD0022CC
:100E40004C2128460FF062FD38224D2128460FF034
:100E50005DFD4B224E2128460FF058FD1F224F21E9
:100E600028460FF053FD5022114628460FF04EFD44
:100E70000E22512128460FF049FD0022522128461A
:100E80000FF044FD0A22532128460FF03FFD202297
:100E9000542128460FF03AFD2022552128460FF014
:100EA00035FD2022562128460FF030FD2022572103
:100EB00028460FF02BFD2022582128460FF026FD52
:100EC0002022592128460FF021FD00225A212846D0
:100ED0000FF01CFD00225B2128460FF017FD0022B9
:100EE0005C2128460FF012FDFF225D2128460FF0FD
:100EF0000DFD00225E2128460FF008FD552201E07D
:100F0000D40300205F2128460FF000FD4822602115
:100F100028460FF0FBFC3522612128460FF0F6FC35
:100F20003722622128460FF0F1FC30226321284647
:100F30000FF0ECFC3722642128460FF0E7FC312249
:100F4000652128460FF0E2FC3222662128460FF088
:100F5000DDFC3122672128460FF0D8FC4A226821A7
:100F600028460FF0D3FC5222692128460FF0CEFC10
:100F700053226A2128460FF0C9FC0A226B21284619
:100F80000FF0C4FC00226C2128460FF0BFFC0022A9
:100F90006D2128460FF0BAFC00226E2128460FF082
:100FA000B5FCFC226F2128460FF0B0FC0022702116
:100FB00028460FF0ABFC4422712128460FF0A6FC16
:100FC0004522722128460FF0A1FC4C2273212846AD
:100FD0000FF09CFC4C22742128460FF097FC202235
:100FE000752128460FF092FC4522762128460FF005
:100FF0008DFC3122772128460FF088FC3922782198
:1010000028460FF083FC3722792128460FF07EFC1A
:1010100046227A2128460FF079FC50227B2128466F
:101020000FF074FC0A227C2128460FF06FFC20226E
:101030007D2128460FF06AFC00227E2128460FF011
:1010400065FC292201F0F6B9002211460FF05EFC82
:10105000FF22012128460FF059FCFF2202212846D9
:101060000FF054FCFF22032128460FF04FFCFF2213
:10107000042128460FF04AFCFF22052128460FF0E4
:1010800045FCFF22062128460FF040FC00220721E4
:1010900028460FF03BFC4122082128460FF036FC81
:1010A0000C22092128460FF031FC7B220A21284618
:1010B0000FF02CFCC0220B2128460FF027FC6422E5
:1010C0000C2128460FF022FC06220D2128460FF0A5
:1010D0001DFC00220E2128460FF018FC00220F21D3
:1010E00028460FF013FC1722102128460FF00EFCA3
:1010F0001622112128460FF009FC01221221284650
:101100000FF004FC0322132128460FF0FFFB80227E
:10111000142128460FF0FAFB3022152128460FF043
:10112000F5FB1B22162128460FF0F0FB7822172131
:1011300028460FF0EBFB2A22182128460FF0E6FB89
:101140000A22192128460FF0E1FB45221A212846E0
:101150000FF0DCFBA7221B2128460FF0D7FB5422FF
:101160001C2128460FF0D2FB4A221D2128460FF0F1
:10117000CDFB99221E2128460FF0C8FB25221F21F6
:1011800028460FF0C3FB1122202128460FF0BEFB9A
:101190005022212128460FF0B9FB54222221284653
:1011A0000FF0B4FBBD22232128460FF0AFFB4B22EA
:1011B000242128460FF0AAFB0022252128460FF003
:1011C000A5FBD122262128460FF0A0FBC022272113
:1011D00028460FF09BFB8122282128460FF096FB22
:1011E0008022292128460FF091FB95222A212846AA
:1011F0000FF08CFB0F222B2128460FF087FB952246
:101200002C2128460FF082FB00222D2128460FF0CA
:101210007DFBB3222E2128460FF078FB00222F21E0
:1012200028460FF073FB0122302128460FF06EFB99
:101230000122312128460FF069FB01223221284684
:101240000FF064FB0122332128460FF05FFB0122DF
:10125000342128460FF05AFB0122352128460FF091
:1012600055FB0222362128460FF050FB3A22372147
:1012700028460FF04BFB8022382128460FF046FB12
:101280001822392128460FF041FB71223A212846C5
:101290000FF03CFB38223B2128460FF037FB2D2274
:1012A0003C2128460FF032FB40223D2128460FF01A
:1012B0002DFB58223E2128460FF028FB2C223F21EF
:1012C00028460FF023FB4522402128460FF01EFB45
:1012D0000022412128460FF019FBE0224221284636
:1012E0000FF014FB0C22432128460FF00FFB1122B4
:1012F000442128460FF00AFB0022452128460FF022
:1013000005FB0022462128460FF000FB1E22472144
:1013100028460FF0FBFA0022482128460FF0F6FA83
:101320000022492128460FF0F1FA00224A212846DE
:101330000FF0ECFAFF224B2128460FF0E7FA0022CB
:101340004C2128460FF0E2FA41224D2128460FF0A9
:10135000DDFA55224E2128460FF0D8FA33224F21CC
:1013600028460FF0D3FA3122502128460FF0CEFA4A
:101370003222512128460FF0C9FA32225221284642
:101380000FF0C4FA3322532128460FF0BFFA30225F
:10139000542128460FF0BAFA3022552128460FF082
:1013A000B5FA3122562128460FF0B0FA36225721DD
:1013B00028460FF0ABFA3322582128460FF0A6FA40
:1013C0003622592128460FF0A1FA00225A21284638
:1013D0000FF09CFA00225B2128460FF097FA0022BA
:1013E0005C2128460FF092FAFC225D2128460FF07E
:1013F0008DFA00225E2128460FF088FA48225F21EC
:1014000028460FF083FA4422602128460FF07EFA26
:101410004D22612128460FF079FA4922622128469F
:101420000FF074FA2D226321284600E00BE30FF041
:101430006DFA5322642128460FF068FA572265217D
:1014400028460FF063FA4922662128460FF05EFA1B
:101450005422672128460FF059FA43226821284672
:101460000FF054FA4822692128460FF04FFA0A2259
:101470006A2128460FF04AFA20226B2128460FF0F5
:1014800045FA00226C2128460FF040FA00226D2117
:1014900028460FF03BFA00226E2128460FF036FA5C
:1014A000FD226F2128460FF031FA002270212846D4
:1014B0000FF02CFA3822712128460FF027FA4C221F
:1014C000722128460FF022FA1E22732128460FF0BF
:1014D0001DFA5322742128460FF018FA11227521A3
:1014E00028460FF013FA0022762128460FF00EFA54
:1014F0000A22772128460FF009FA2022782128466F
:101500000FF004FA2022792128460FF0FFF920225B
:101510007A2128460FF0FAF920227B2128460FF085
:10152000F5F920227C2128460FF0F0F920227D21B8
:1015300028460FF0EBF901227E2128460FF0E6F94C
:101540004D227F2128460FF0E1F902228021284612
:101550000FF0DCF90322812128460FF0D7F922226F
:10156000822128460FF0D2F9F122832128460FF07C
:10157000CDF94F22842128460FF0C8F90122852198
:1015800028460FF0C3F90222862128460FF0BEF943
:101590000322872128460FF0B9F905228821284621
:1015A0000FF0B4F90622892128460FF0AFF907227F
:1015B0008A2128460FF0AAF910228B2128460FF025
:1015C000A5F911228C2128460FF0A0F912228D21B5
:1015D00028460FF09BF913228E2128460FF096F92A
:1015E00014228F2128460FF091F9152290212846C8
:1015F0000FF08CF91622912128460FF087F91F224F
:10160000922128460FF082F90422932128460FF0F8
:101610007DF92322942128460FF078F9092295219B
:1016200028460FF073F91722962128460FF06EF91D
:101630000722972128460FF069F98322982128462E
:101640000FF064F90122992128460FF05FF900227A
:101650009A2128460FF05AF900229B2128460FF0C4
:1016600055F965229C2128460FF050F903229D214F
:1016700028460FF04BF90C229E2128460FF046F920
:1016800000229F2128460FF041F91022A021284670
:101690000FF03CF90022A12128460FF037F9022271
:1016A000A22128460FF032F93A22A32128460FF052
:1016B0002DF98022A42128460FF028F91822A5210F
:1016C00028460FF023F97122A62128460FF01EF9B3
:1016D0003822A72128460FF019F92D22A8212846E3
:1016E0000FF014F94022A92128460FF00FF95822D3
:1016F000AA2128460FF00AF92C22AB2128460FF028
:1017000005F94522AC2128460FF000F90022AD2151
:1017100028460FF0FBF8E022AE2128460FF0F6F83D
:101720000C22AF2128460FF0F1F81122B0212846F3
:101730000FF0ECF80022B12128460FF0E7F8002264
:10174000B22128460FF0E2F81E22B32128460FF0FE
:10175000DDF88C22B42128460FF0D8F80A22B521F2
:1017600028460FF0D3F8D022B62128460FF0CEF845
:101770008A22B72128460FF0C9F82022B82128462E
:101780000FF0C4F8E022B92128460FF0BFF82D224F
:10179000BA2128460FF0BAF81022BB2128460FF0D4
:1017A000B5F81022BC2128460FF0B0F83E22BD212A
:1017B00028460FF0ABF89622BE2128460FF0A6F877
:1017C0000022BF2128460FF0A1F8E022C0212846C0
:1017D0000FF09CF80C22C12128460FF097F8112237
:1017E000C22128460FF092F80022C32128460FF0AC
:1017F0008DF80022C42128460FF088F81822C52150
:1018000028460FF083F80122C62128460FF07EF803
:101810001D22C72128460FF079F80022C82128464A
:101820000FF074F87222C92128460FF06FF8512288
:10183000CA2128460FF06AF8D022CB2128460FF0A3
:1018400065F81E22CC2128460FF060F82022CD2119
:1018500028460FF05BF86E22CE2128460FF056F88E
:101860002822CF2128460FF051F85522D0212846B2
:101870000FF04CF80022D12128460FF047F8E02263
:10188000D22128460FF042F80C22D32128460FF02F
:101890003DF81122D42128460FF038F80022D52136
:1018A00028460FF033F80022D62128460FF02EF8F4
:1018B0001E22D72128460FF029F88C22D82128464D
:1018C0000FF024F80A22D92128460FF01FF8D02261
:1018D000DA2128460FF01AF89022DB2128460FF073
:1018E00015F82022DC2128460FF010F84022DD21D7
:1018F00028460FF00BF83122DE2128460FF006F8BB
:101900002022DF2128460FF001F80C22E021284692
:101910000EF0FCFF4022E12128460EF0F7FF552291
:10192000E22128460EF0F2FF0022E32128460EF0C5
:10193000EDFFE022E42128460EF0E8FF0C22E5212D
:1019400028460EF0E3FF1122E62128460EF0DEFFC6
:101950000022E72128460EF0D9FF0022E821284680
:101960000EF0D4FF1822E92128460EF0CFFF002206
:10197000EA2128460EF0CAFF0022EB2128460EF08D
:10198000C5FF0022EC2128460EF0C0FF0022ED2109
:1019900028460EF0BBFF0022EE2128460EF0B6FFCF
:1019A0000022EF2128460EF0B1FF0022F021284648
:1019B0000EF0ACFF0022F12128460EF0A7FF002216
:1019C000F22128460EF0A2FF0022F32128460EF055
:1019D0009DFF0022F42128460EF098FF0022F521F9
:1019E00028460EF093FF0022F62128460EF08EFFC7
:1019F0000022F72128460EF089FF0022F821284610
:101A00000EF084FF0022F92128460EF07FFF00220D
:101A1000FA2128460EF07AFF0022FB2128460EF01C
:101A200075FF0022FC2128460EF070FF0022FD21E8
:101A300028460EF06BFF0022FE2128460EF066FFBE
:101A4000AA2201F074BC002211460EF05FFFFF22B3
:101A5000012128460EF05AFFFF22022128460EF0EF
:101A600055FFFF22032128460EF050FFFF220421DC
:101A700028460EF04BFFFF22052128460EF046FFB8
:101A8000FF22062128460EF041FF002207212846AA
:101A90000EF03CFF1522082128460EF037FFC32226
:101AA000092128460EF032FF59220A2128460EF05D
:101AB0002DFF17220B2128460EF028FF01220C21B2
:101AC00028460EF023FF01220D2128460EF01EFFAE
:101AD00001220E2128460EF019FF01220F2128466F
:101AE0000EF014FF2022102128460EF00FFF0E22C8
:101AF000112128460EF00AFF0122122128460EF07D
:101B000005FF0322132128460EF000FF8022142136
:101B100028460EF0FBFE2922152128460EF0F6FE7F
:101B20001F22162128460EF0F1FE782217212846A2
:101B30000EF0ECFEEA22182128460EF0E7FED6222F
:101B4000192128460EF0E2FEF5221A2128460EF051
:101B5000DDFEA4221B2128460EF0D8FE56221C21B1
:101B600028460EF0D3FE4B221D2128460EF0CEFE55
:101B70009A221E2128460EF0C9FE24221F21284643
:101B80000EF0C4FE1722202128460EF0BFFE502280
:101B9000212128460EF0BAFE5422222128460EF0BA
:101BA000B5FEA122232128460EF0B0FE08222421F2
:101BB00028460EF0ABFE0022252128460EF0A6FE98
:101BC000A922262128460EF0A1FE402227212846E0
:101BD0000EF09CFE8122282128460EF097FE8022DE
:101BE000292128460EF092FE01222A2128460EF0D5
:101BF0008DFE01222B2128460EF088FE01222C2189
:101C000028460EF083FE01222D2128460EF07EFE8E
:101C100001222E2128460EF079FE01222F2128468E
:101C20000EF074FE0122302128460EF06FFE0122D4
:101C3000312128460EF06AFE0122322128460EF09C
:101C400065FE0122332128460EF060FE0122342178
:101C500028460EF05BFE0122352128460EF056FE86
:101C60004822362128460EF051FE3F2237212846D1
:101C70000EF04CFE4022382128460EF047FE30225E
:101C8000392128460EF042FE62223A2128460EF003
:101C90003DFEB0223B2128460EF038FE32223C2188
:101CA00028460EF033FE40223D2128460EF02EFE3F
:101CB00040223E2128460EF029FEC0223F21284620
:101CC0000EF024FE1322402128460EF01FFE0022B3
:101CD000412128460EF01AFE9822422128460EF095
:101CE00015FE3222432128460EF010FE1122442117
:101CF00028460EF00BFE0022452128460EF006FE77
:101D00000022462128460EF001FE1E2247212846C9
:101D10000EF0FCFD0022482128460EF0F7FD0022BF
:101D2000492128460EF0F2FD00224A2128460EF0F5
:101D3000EDFDFF224B2128460EF0E8FD00224C214C
:101D400028460EF0E3FD31224D2128460EF0DEFD3F
:101D50000A224E2128460EF0D9FD20224F21284686
:101D60000EF0D4FD2022502128460EF0CFFD202277
:101D7000512128460EF0CAFD2022522128460EF09D
:101D8000C5FD2022532128460EF0C0FD20225421FB
:101D900028460EF0BBFD2022552128460EF0B6FD48
:101DA0002022562128460EF0B1FD20225721284638
:101DB0000EF0ACFD2022582128460EF0A7FD20226F
:101DC000592128460EF0A2FD00225A2128460EF085
:101DD0009DFD00225B2128460EF098FD00225C212B
:101DE00028460EF093FDFD225D2128460EF08EFD63
:101DF00000225E2128460EF089FD3B225F21284605
:101E00000EF084FD3D22602128460EF07FFD1F224A
:101E1000612128460EF07AFD4C22622128460EF000
:101E200075FD1122632128460EF070FD0022642109
:101E300028460EF06BFD0A22652128460EF066FD4D
:101E40002022662128460EF061FD202267212846C7
:101E50000EF05CFD2022682128460EF057FD20225E
:101E6000692128460EF052FD20226A2128460EF0F4
:101E70004DFD20226B2128460EF048FD00226C21EA
:101E800028460EF043FD00226D2128460EF03EFD4F
:101E900000226E2128460EF039FDFC226F212846D3
:101EA0000EF034FD0022702128460EF02FFD4C224A
:101EB000712128460EF02AFD3822722128460EF0A4
:101EC00025FD3822732128460EF020FD372274218B
:101ED00028460EF01BFD0A22752128460EF016FD3D
:101EE0002022762128460EF011FD20227721284657
:101EF0000EF00CFD2022782128460EF007FD20224E
:101F0000792128460EF002FD20227A2128460EF083
:101F1000FDFC20227B2128460EF0F8FC20227C21AB
:101F200028460EF0F3FC20227D2128460EF0EEFC20
:101F300000227E2128460EF0E9FC61227AE200228E
:101F400011460EF0E3FCFF22012128460EF0DEFCD4
:101F5000FF22022128460EF0D9FCFF220321284649
:101F60000EF0D4FCFF22042128460EF0CFFCFF2205
:101F7000052128460EF0CAFCFF22062128460EF055
:101F8000C5FC0022072128460EF0C0FC4122082192
:101F900028460EF0BBFC0C22092128460EF0B6FCA8
:101FA0007D220A2128460EF0B1FC08220B2128468A
:101FB0000EF0ACFC60220C2128460EF0A7FCD222C9
:101FC0000D2128460EF0A2FC0A220E2128460EF012
:101FD0009DFC00220F2128460EF098FC14221021AF
:101FE00028460EF093FC1522112128460EF08EFC97
:101FF0000122122128460EF089FC032213212846D3
:102000000EF084FC8022142128460EF07FFC34223E
:10201000152128460EF07AFC2022162128460EF0C3
:1020200075FC7822172128460EF070FCEE2218214C
:1020300028460EF06BFC9F22192128460EF066FC04
:10204000F5221A2128460EF061FCA6221B21284603
:102050000EF05CFC56221C2128460EF057FC4B2249
:102060001D2128460EF052FC9A221E2128460EF011
:102070004DFC25221F2128460EF048FC122220216B
:1020800028460EF043FC5022212128460EF03EFC4B
:102090005422222128460EF039FCBF222321284653
:1020A0000EF034FCEF22242128460EF02FFC802273
:1020B000252128460EF02AFC7122262128460EF002
:1020C00025FC4022272128460EF020FC81222821D1
:1020D00028460EF01BFC4022292128460EF016FC53
:1020E00081222A2128460EF011FCC0222B212846ED
:1020F0000EF00CFC95222C2128460EF007FC002245
:102100002D2128460EF002FC95222E2128460EF0A5
:10211000FDFB0F222F2128460EF0F8FBA9223021CB
:1021200028460EF0F3FB4022312128460EF0EEFB4C
:10213000B322322128460EF0E9FB00223321284643
:102140000EF0E4FB0122342128460EF0DFFB0122D1
:10215000352128460EF0DAFB2822362128460EF0DB
:10216000D5FB3C22372128460EF0D0FB80223821B7
:1021700028460EF0CBFBA022392128460EF0C6FBE4
:1021800070223A2128460EF0C1FBB0223B2128469E
:102190000EF0BCFB23223C2128460EF0B7FB402268
:1021A0003D2128460EF0B2FB30223E2128460EF09B
:1021B000ADFB20223F2128460EF0A8FB362240210D
:1021C00028460EF0A3FB0022412128460EF09EFB7C
:1021D0000722422128460EF099FB4422432128463B
:1021E0000EF094FB2122442128460EF08FFB0022A2
:1021F000452128460EF08AFB0022462128460EF093
:1022000085FB1A22472128460EF080FB0022482138
:1022100028460EF07BFB0022492128460EF076FB73
:1022200000224A2128460EF071FBFF224B2128464E
:102230000EF06CFB00224C2128460EF067FB442276
:102240004D2128460EF062FB4C224E2128460EF00E
:102250005DFB34224F2128460EF058FB31225021DD
:1022600028460EF053FB3122512128460EF04EFB3A
:102270003222522128460EF049FB302253212846B3
:102280000EF044FB3722542128460EF03FFB30224B
:10229000552128460EF03AFB3922562128460EF0E9
:1022A00035FB3222572128460EF030FB31225821CF
:1022B00028460EF02BFB3622592128460EF026FB2D
:1022C00000225A2128460EF021FB00225B212846DD
:1022D0000EF01CFB00225C2128460EF017FBFC22AE
:1022E0005D2128460EF012FB00225E2128460EF0EA
:1022F0000DFB50225F2128460EF008FB682260216A
:1023000028460EF003FB6922612128460EF0FEFAF2
:102310006C22622128460EF0F9FA692263212846D0
:102320000EF0F4FA7022642128460EF0EFFA7322C0
:10233000652128460EF0EAFA2022662128460EF092
:10234000E5FA3222672128460EF0E0FA34226821AD
:1023500028460EF0DBFA3022692128460EF0D6FA24
:1023600053226A2128460EF0D1FA0A226B21284610
:102370000EF0CCFA00226C2128460EF0C7FA00229B
:102380006D2128460EF0C2FA00226E2128460EF07A
:10239000BDFAFD226F2128460EF0B8FA0022702106
:1023A00028460EF0B3FA3022712128460EF0AEFA1C
:1023B0005522722128460EF0A9FA182273212846C8
:1023C0000EF0A4FA5E22742128460EF09FFA112224
:1023D000752128460EF09AFA0022762128460EF042
:1023E00095FA0A22772128460EF090FA20227821C9
:1023F00028460EF08BFA2022792128460EF086FA24
:1024000020227A2128460EF081FA20227B212846BC
:102410000EF07CFA20227C2128460EF077FA20224A
:102420007D2128460EF072FA00227E2128460EF009
:102430006DFAFB227F2128460EF068FA00228021E7
:1024400028460EF063FA0022812128460EF05EFA3B
:102450000022822128460EF059FA002283212846C4
:102460000EF054FA0022842128460EF04FFA002282
:10247000852128460EF04AFA0022862128460EF0D1
:1024800045FA0022872128460EF040FA00228821D2
:1024900028460EF03BFA0022892128460EF036FA33
:1024A00000228A2128460EF031FA00228B2128468C
:1024B0000EF02CFA00228C2128460EF027FA00227A
:1024C0008D2128460EF022FA00228E2128460EF099
:1024D0001DFA00228F2128460EF018FA00229021C2
:1024E00028460EF013FA0022912128460EF00EFA2B
:1024F0000022922128460EF009FA00229321284654
:102500000EF004FA0022942128460EF0FFF9002272
:10251000952128460EF0FAF90022962128460EF061
:10252000F5F90022972128460EF0F0F900229821B3
:1025300028460EF0EBF90022992128460EF0E6F924
:1025400000229A2128460EF0E1F900229B2128461C
:102550000EF0DCF900229C2128460EF0D7F900226B
:102560009D2128460EF0D2F900229E2128460EF029
:10257000CDF900229F2128460EF0C8F90022A021A3
:1025800028460EF0C3F90022A12128460EF0BEF91C
:102590000022A22128460EF0B9F90022A3212846E4
:1025A0000EF0B4F90022A42128460EF0AFF9002263
:1025B000A52128460EF0AAF90022A62128460EF0F1
:1025C000A5F90022A72128460EF0A0F90022A82193
:1025D00028460EF09BF90022A92128460EF096F914
:1025E0000022AA2128460EF091F90022AB212846AC
:1025F0000EF08CF90022AC2128460EF087F900225B
:10260000AD2128460EF082F90022AE2128460EF0B8
:102610007DF90022AF2128460EF078F90022B02182
:1026200028460EF073F90022B12128460EF06EF90B
:102630000022B22128460EF069F90022B321284673
:102640000EF064F90022B42128460EF05FF9002252
:10265000B52128460EF05AF90022B62128460EF080
:1026600055F90022B72128460EF050F90022B82172
:1026700028460EF04BF90022B92128460EF046F903
:102680000022BA2128460EF041F90022BB2128463B
:102690000EF03CF90022BC2128460EF037F900224A
:1026A000BD2128460EF032F90022BE2128460EF048
:1026B0002DF90022BF2128460EF028F90022C02162
:1026C00028460EF023F90022C12128460EF01EF9FB
:1026D0000022C22128460EF019F90022C321284603
:1026E0000EF014F90022C42128460EF00FF9002242
:1026F000C52128460EF00AF90022C62128460EF010
:1027000005F90022C72128460EF000F90022C82151
:1027100028460EF0FBF80022C92128460EF0F6F8F4
:102720000022CA2128460EF0F1F80022CB212846CB
:102730000EF0ECF80022CC2128460EF0E7F800223B
:10274000CD2128460EF0E2F80022CE2128460EF0D8
:10275000DDF80022CF2128460EF0D8F80022D02143
:1027600028460EF0D3F80022D12128460EF0CEF8EC
:102770000022D22128460EF0C9F80022D321284693
:102780000EF0C4F80022D42128460EF0BFF8002233
:10279000D52128460EF0BAF80022D62128460EF0A0
:1027A000B5F80022D72128460EF0B0F80022D82133
:1027B00028460EF0ABF80022D92128460EF0A6F8E4
:1027C0000022DA2128460EF0A1F80022DB2128465B
:1027D0000EF09CF80022DC2128460EF097F800222B
:1027E000DD2128460EF092F80022DE2128460EF068
:1027F0008DF80022DF2128460EF088F80022E02123
:1028000028460EF083F80022E12128460EF07EF8DB
:102810000022E22128460EF079F80022E321284622
:102820000EF074F80022E42128460EF06FF8002222
:10283000E52128460EF06AF80022E62128460EF02F
:1028400065F80022E72128460EF060F80022E82112
:1028500028460EF05BF80022E92128460EF056F8D3
:102860000022EA2128460EF051F80022EB212846EA
:102870000EF04CF80022EC2128460EF047F800221A
:10288000ED2128460EF042F80022EE2128460EF0F7
:102890003DF80022EF2128460EF038F80022F02102
:1028A00028460EF033F80022F12128460EF02EF8CB
:1028B0000022F22128460EF029F80022F3212846B2
:1028C0000EF024F80022F42128460EF01FF8002212
:1028D000F52128460EF01AF80022F62128460EF0BF
:1028E00015F80022F72128460EF010F80022F821F2
:1028F00028460EF00BF80022F92128460EF006F8C3
:102900000022FA2128460EF001F80022FB21284679
:102910000DF0FCFF0022FC2128460DF0F7FF0022FD
:10292000FD2128460DF0F2FF0022FE2128460DF081
:10293000EDFF0022FDE300BF0DF0E8FFFF220121C3
:1029400028460DF0E3FFFF22022128460DF0DEFFAE
:10295000FF22032128460DF0D9FFFF22042128463B
:102960000DF0D4FFFF22052128460DF0CFFFFF22F6
:10297000062128460DF0CAFF0022072128460DF047
:10298000C5FF3622082128460DF0C0FF7422092118
:1029900028460DF0BBFF30220A2128460DF0B6FF75
:1029A00000220B2128460DF0B1FF01220C21284600
:1029B0000DF0ACFF00220D2128460DF0A7FF0022EC
:1029C0000E2128460DF0A2FF00220F2128460DF00F
:1029D0009DFF0A22102128460DF098FF1622112192
:1029E00028460DF093FF0122122128460DF08EFF9C
:1029F0000322132128460DF089FF80221421284646
:102A00000DF084FF7322152128460DF07FFF41222F
:102A1000162128460DF07AFF7822172128460DF05E
:102A200075FF0A22182128460DF070FFCF221921C8
:102A300028460DF06BFF74221A2128460DF066FF20
:102A4000A3221B2128460DF061FF57221C21284696
:102A50000DF05CFF4C221D2128460DF057FFB022DF
:102A60001E2128460DF052FF23221F2128460DF07B
:102A70004DFF0922202128460DF048FF4822212140
:102A800028460DF043FF4C22222128460DF03EFF40
:102A90002122232128460DF039FF0822242128462F
:102AA0000DF034FF0022252128460DF02FFF812252
:102AB000262128460DF02AFF8022272128460DF0E6
:102AC00025FF4522282128460DF020FF40222921FC
:102AD00028460DF01BFF61222A2128460DF016FF23
:102AE00040222B2128460DF011FF95222C2128464B
:102AF0000DF00CFF00222D2128460DF007FF0122CA
:102B00002E2128460DF002FF01222F2128460DF02C
:102B1000FDFE0122302128460DF0F8FE0122312170
:102B200028460DF0F3FE0122322128460DF0EEFE7C
:102B30000122332128460DF0E9FE012234212846E6
:102B40000DF0E4FE0122352128460DF0DFFE0222C1
:102B5000362128460DF0DAFE3A22372128460DF0BC
:102B6000D5FE8022382128460DF0D0FE18223921CA
:102B700028460DF0CBFE71223A2128460DF0C6FE04
:102B800038223B2128460DF0C1FE2D223C2128464B
:102B90000DF0BCFE40223D2128460DF0B7FE582224
:102BA0003E2128460DF0B2FE2C223F2128460DF092
:102BB000ADFE4522402128460DF0A8FE002241210D
:102BC00028460DF0A3FEC422422128460DF09EFEA9
:102BD0008E22432128460DF099FE212244212846C9
:102BE0000DF094FE0022452128460DF08FFE0022B4
:102BF000462128460DF08AFE1E22472128460DF068
:102C000085FE6622482128460DF080FE21224921BA
:102C100028460DF07BFE50224A2128460DF076FE14
:102C2000B0224B2128460DF071FE51224C2128463E
:102C30000DF06CFE00224D2128460DF067FE1B2290
:102C40004E2128460DF062FE30224F2128460DF01D
:102C50005DFE4022502128460DF058FE7022512181
:102C600028460DF053FE3622522128460DF04EFE26
:102C70000022532128460DF049FEC4225421284643
:102C80000DF044FE8E22552128460DF03FFE2122F4
:102C9000562128460DF03AFE0022572128460DF015
:102CA00035FE0022582128460DF030FE1E22592103
:102CB00028460DF02BFE00225A2128460DF026FE54
:102CC00000225B2128460DF021FE00225C212846CF
:102CD0000DF01CFEFC225D2128460DF017FE00229F
:102CE0005E2128460DF012FE4D225F2128460DF090
:102CF0000DFE5322602128460DF008FE742261214A
:102D000028460DF003FE6122622128460DF0FEFDEB
:102D10007222632128460DF0F9FD20226421284605
:102D20000DF0F4FD4422652128460DF0EFFD6522EB
:102D3000662128460DF0EAFD6D22672128460DF038
:102D4000E5FD6F22682128460DF0E0FD0A22692189
:102D500028460DF0DBFD20226A2128460DF0D6FD25
:102D600020226B2128460DF0D1FD00226C2128463F
:102D70000DF0CCFD00226D2128460DF0C7FD00228C
:102D80006E2128460DF0C2FDFD226F2128460DF070
:102D9000BDFD0022702128460DF0B8FD32227121C0
:102DA00028460DF0B3FD4B22722128460DF0AEFDF2
:102DB0001E22732128460DF0A9FD502274212846B9
:102DC0000DF0A4FD1722752128460DF09FFD00226D
:102DD000762128460DF09AFD0A22772128460DF02B
:102DE00095FD2022782128460DF090FD20227921A2
:102DF00028460DF08BFD20227A2128460DF086FD15
:102E000020227B2128460DF081FD20227C212846AE
:102E10000DF07CFD20227D2128460DF077FD01225A
:102E20007E2128460DF072FDF1227F2128460DF00B
:102E30006DFD0222802128460DF068FD03228121CC
:102E400028460DF063FD3022822128460DF05EFDFC
:102E5000F222832128460DF059FD4D228421284677
:102E60000DF054FD0122852128460DF04FFD03226F
:102E7000862128460DF04AFD0422872128460DF0C0
:102E800045FD0522882128460DF040FD07228921B5
:102E900028460DF03BFD90228A2128460DF036FD94
:102EA00012228B2128460DF031FD13228C21284659
:102EB0000DF02CFD14228D2128460DF027FD162241
:102EC0008E2128460DF022FD9F228F2128460DF0ED
:102ED0001DFD2022902128460DF018FD222291216F
:102EE00028460DF013FD2622922128460DF00EFDF6
:102EF0000922932128460DF009FD07229421284636
:102F00000DF004FD0722952128460DF0FFFC11224B
:102F1000962128460DF0FAFC1722972128460DF03D
:102F2000F5FC5022982128460DF0F0FC83229921CF
:102F300028460DF0EBFC01229A2128460DF0E6FC14
:102F400000229B2128460DF0E1FC00229C2128460E
:102F50000DF0DCFC72229D2128460DF0D7FC0322E7
:102F60009E2128460DF0D2FC0C229F2128460DF010
:102F7000CDFC0022A02128460DF0C8FC1022A12182
:102F800028460DF0C3FC0022A22128460DF0BEFC0D
:102F9000B822A32128460DF0B9FC4422A4212846DA
:102FA0000DF0B4FC2022A52128460DF0AFFCC02274
:102FB000A62128460DF0AAFC8422A72128460DF060
:102FC000A5FC0122A82128460DF0A0FC0222A9217F
:102FD00028460DF09BFC0322AA2128460DF096FC02
:102FE0000422AB2128460DF091FC0122AC21284699
:102FF0000DF08CFC4122AD2128460DF087FC00220B
:10300000AE2128460DF082FC0022AF2128460DF0AB
:103010007DFC8C22B02128460DF078FC0A22B121DB
:1030200028460DF073FCD022B22128460DF06EFC2C
:103030008A22B32128460DF069FC2022B4212846BB
:103040000DF064FCE022B52128460DF05FFC2D2236
:10305000B62128460DF05AFC1022B72128460DF063
:1030600055FC1022B82128460DF050FC3E22B92113
:1030700028460DF04BFC9622BA2128460DF046FC5E
:103080000022BB2128460DF041FCC422BC21284669
:103090000DF03CFC8E22BD2128460DF037FC21228C
:1030A000BE2128460DF032FC0022BF2128460DF03B
:1030B0002DFC0022C02128460DF028FC1822C12139
:1030C00028460DF023FC8C22C22128460DF01EFC60
:1030D0000A22C32128460DF019FCD022C42128461B
:1030E0000DF014FC9022C52128460DF00FFC202283
:1030F000C62128460DF00AFC4022C72128460DF0C3
:1031000005FC3122C82128460DF000FC2022C921EF
:1031100028460DF0FBFB0C22CA2128460DF0F6FBD9
:103120004022CB2128460DF0F1FB5522CC21284628
:1031300000E0FCE00DF0EAFB0022CD2128460DF076
:10314000E5FBC422CE2128460DF0E0FB8E22CF21E4
:1031500028460DF0DBFB2122D02128460DF0D6FBBE
:103160000022D12128460DF0D1FB0022D221284691
:103170000DF0CCFB1822D32128460DF0C7FB01220D
:10318000D42128460DF0C2FB1D22D52128460DF082
:10319000BDFB0022D62128460DF0B8FBBC22D7216A
:1031A00028460DF0B3FB5222D82128460DF0AEFB85
:1031B000D022D92128460DF0A9FB1E22DA2128466B
:1031C0000DF0A4FB2022DB2128460DF09FFBB82246
:1031D000DC2128460DF09AFB2822DD2128460DF03F
:1031E00095FB5522DE2128460DF090FB4022DF2181
:1031F00028460DF08BFBC422E02128460DF086FB0B
:103200008E22E12128460DF081FB2122E221284671
:103210000DF07CFB0022E32128460DF077FB002215
:10322000E42128460DF072FB1E22E52128460DF010
:103230006DFB0122E62128460DF068FB1D22E721E7
:1032400028460DF063FB8022E82128460DF05EFB46
:10325000D022E92128460DF059FB7222EA212846A6
:103260000DF054FB1C22EB2128460DF04FFB1622DB
:10327000EC2128460DF04AFB2022ED2128460DF0D6
:1032800045FB1022EE2128460DF040FB2C22EF21B9
:1032900028460DF03BFB2522F02128460DF036FB99
:1032A0008022F12128460DF031FBC422F22128466C
:1032B0000DF02CFB8E22F32128460DF027FB212256
:1032C000F42128460DF022FB0022F52128460DF0BE
:1032D0001DFB0022F62128460DF018FB9E22F72147
:1032E00028460DF013FB0022F82128460DF00EFBB6
:1032F0000022F92128460DF009FB0022FA21284678
:103300000DF004FB0022FB2128460DF0FFFA0022FD
:10331000FC2128460DF0FAFA0022FD2128460DF086
:10332000F5FA0022FE2128460DF0F0FA6F22284619
:10333000BDE87040FF210DF0E9BA000070B506202D
:1033400009F0B0FCC4B2072009F0ACFCC5B20820FB
:1033500009F0A8FCC6B2092009F0A4FCC3B23246A9
:103360002946204609F0D2F9122009F09BFC0349B6
:103370000860BDE8704010F0ABBB0000C801002041
:10338000F0B50246084615E000263346841E0DE0DF
:1033900002EB830C52F82350DCF80470BD4204DDCC
:1033A00042F823700126CCF804505B1CA342EFDDE9
:1033B00016B1401E0228E7DA0C46481E15E000BF91
:1033C00002EB800552F8203055F8045CAB420BD17B
:1033D000034606E052F8235002EB83065B1C46F8D6
:1033E000045C8B42F6DB641E401E0028E8DC2046AD
:1033F000F0BD10B500231A4604E031F81240521C0B
:1034000023449BB28242F8D34FF6FF70C01A401C8F
:1034100080B210BD2DE9FF4F81B0634D00240E9E98
:10342000994692460746EC60B6E000BF07EB840081
:1034300000698169B1427DDC026A4A457ADB4269F2
:103440005245F8DCC26902998A42F7DBE96805EB6C
:10345000810212695FEA020B6DD010296BDA114606
:103460000090001D091D90E80D10A1E80D100098B6
:10347000143090E80D1081E80D10DBF8000030B139
:103480000099096891E80E1080E80E1002E047A04C
:103490000BF0CEFE009841690298814219DACBF810
:1034A00014000099484A00234969401AA0FB02C849
:1034B000C11701FB0281009A00FB031112686046EC
:1034C0001268D317FCF760FE009949680144CBF8F5
:1034D00004100098C1695046514519DDCBF81C0015
:1034E0000099394A0023C969081AA0FB02C8C1170C
:1034F00001FB0281009A00FB0311126860465268CA
:10350000D317FCF741FE0099C968091ACBF80C10D3
:1035100000988169484649451CDACBF818000099A3
:10352000294A8969401AA0FB02C8C11701FB028120
:10353000002301E02FE033E0009A00FB0311126842
:1035400060465268D317FCF71FFE00998968014452
:10355000CBF808100098006AB04219DDCBF8206063
:103560000098194A0023006A801BA0FB02C8C117FB
:1035700001FB0281009A00FB031112686046526849
:10358000D317FCF701FE00990969091ACBF810104E
:10359000E868401CE860641CF868A0423FF746AF4A
:1035A00005B0BDE8F08F000094180020446573203A
:1035B0005369676E616C20536F7572636520497340
:1035C000204E554C4C0D0A0040420F002DE9F047AB
:1035D0008246002549E000BF0AEB85008768002F7E
:1035E00047D000243DE000BF07EB840000695FEA9C
:1035F000000939D00022D9F800602EE001EB8200EA
:1036000096F808800069036893F808C0C44523D180
:1036100093F809C096F80980C4451DD193F80CC0F1
:1036200096F80C80C44517D1DB7A96F80BC0634539
:1036300012D1D0F81CC0D9F81C309C4503D1D0F869
:103640000CC0C9F80CC0D0F820C0D9F820309C4577
:1036500002D10369C9F81030521CC8689042CDDC11
:10366000641CF868A042BFDC6D1CDAF80400A842B4
:10367000B2DCBDE8F0870000F0B50C4A0646002039
:10368000D368451E1C780CE000EBC00203EB8202FD
:10369000121D08D017788F4202D15278B24203D05F
:1036A000401C8442F0DC2846F0BD000050010020A0
:1036B00030B505460C4800214268481E002A0DD04E
:1036C000D4680DE002EB81031B69002B06D01B6858
:1036D000002B03D05B7BAB4201D1012030BD491CE4
:1036E0008C42EFDC002030BD50010020012180F829
:1036F00008180021C0F80018C0F8041880F808184D
:1037000070470021C0F80018C0F80418C0F8081865
:10371000C0F80C18C0F81018802100F61400FCF74F
:103720008DBD00002DE9F04F4FF00009CB463BE086
:1037300000EB890100228C6830E000BF04EB8205B9
:10374000AA462B691AE0EE69DE61ED68DD60531C64
:103750004D1E04E004EB83065B1C77693761AB42C6
:10376000F8DB04EB85030D46C3F810B0491EAD1E0F
:10377000DAF81030AA420FD001290DD0DAF814502F
:103780001F682E6897F8088096F808C0C44503D1D2
:10379000767A7F7ABE42D6D0521CE160E1684B1E39
:1037A0009342CBDC09F1010942684A45C0DC0021A3
:1037B000C0F800B008E000BF00EB81040368A46813
:1037C000491CE468234403608A42F5DC0120BDE81B
:1037D000F08F00002DE9F04741686FE000EB8102B7
:1037E000D2E901460022E768F3689F4266D10025CE
:1037F0003EE000BF04EB850206EB850312691B69FE
:10380000DAB3D3B3D3F800C0E2469CF80880D2F80C
:1038100000C0E1469CF808C0E0454FD19AF8098005
:1038200099F809C0E04549D19AF80C8099F80CC084
:10383000E04543D19AF80B8099F80BC0E0453DD1A3
:10384000D3F814C0D2F81480C44537D1D3F81CC0C3
:10385000D2F81C80C44531D1D3F818C0D2F82080EA
:10386000C4452BD19B681269934227D101226D1C5C
:10387000AF42BFDC0AB100220BE01FE006EB82057D
:1038800004EB82032D691B69521C2F6A1F622D698C
:103890001D61E3689342F1DC05E000BF00EB8102AB
:1038A000491CD36893604268521E8A42F6DC416824
:1038B000491E41600268E368D21A0260491E00296D
:1038C0008CDCBDE8F08700002B484179007821B1FD
:1038D000012905D002290AD005E02849085C704773
:1038E000411E042901D3002070472A307047224925
:1038F000102889791ED00ADC022815D0032813D09D
:103900000528F0D1A1B10129EDD13120704713284C
:103910001FD0142825D01F28E5D149B3022929D06A
:103920000329E0D13C2070470829DCD12F207047C3
:103930003020704739B1022907D0032907D0082960
:10394000D1D1352070473220704733207047342062
:103950007047042903D00529C5D137207047362088
:10396000704719B10129BED13920704738207047FE
:103970003A2070473B2070472C0000209015020829
:103980003D2801DA0149085C7047000090150208E3
:1039900000B501460B200BF013FB0B200BF0D4FA03
:1039A0000028FAD000BD00B5014605200BF008FB49
:1039B00005200BF0C9FA0028FAD000BD00B5014679
:1039C00000200BF0FDFA00200BF0BEFA0028FAD020
:1039D00000BD000010B506F0D5FC09F0E3F806F0D4
:1039E000C1F805F07FFF06F00BFB06F045F90AF081
:1039F00033F8FFF7A3FCBDE8104001A00BF018BCA2
:103A00004465766963657320496E6974204F4B0D78
:103A10000A00000010B50022E02103200BF0F6FBA5
:103A20000022E22103200BF0F1FB182211461A209C
:103A300009F0A3FE01490020887010BD400100205C
:103A40002DE9F84F6C4DDFF8AC91DDF828C00E463B
:103A5000C5F800900446C168022000EB41004028F0
:103A600001DD66A087E06C4900200E6001F58076DC
:103A7000336019E004EB80031F69D7F8148001EB71
:103A8000C007C7F80480D3F81080D8F81C80C7F8A6
:103A900008801F69D7F8188006EBC007401CC7F8DC
:103AA00004801B691B6ABB60E3688342E2DC5A48FE
:103AB00000EBC30042605948E16800EBC100C0F868
:103AC00004C0E06841005448891CFFF759FC00908D
:103AD000E06841005148891CFFF752FC0746102856
:103AE00001DD4FA047E00099781E491E09F002F859
:103AF000401C2DD0002648213E48FCF79FFB4FF488
:103B000040714F48FCF79AFBCC46DFF838A1DFF84C
:103B1000309106EB460200200AEB861309EB0211F6
:103B200053F8202001EB8008401CC8F81020102812
:103B3000F6DB0CEB8600761C8160102EE9DB286832
:103B40000021A7F1010AC0E9001A0E46AB464BE07E
:103B50003DA010E0DBF8000000EB86008768EFB3C3
:103B600000208046F8600098A0F1010939E0F8686B
:103B7000102805DB3FA00BF05BFB0020BDE8F88FB1
:103B800007EB8000056955B3244850F8261000EB78
:103B90008600A961406828621F4850F8281000EB91
:103BA000880069614068E861214628460AF088FC7F
:103BB00050B968696860A869A860E869E860286A1F
:103BC00028610C4810382860F86808F10108401C8A
:103BD000F860DBF800000168491C01E006E002E043
:103BE0000160C845C3DB761C5645B3DBDBF800003B
:103BF000C4E7000014350020740100205069786586
:103C00006C5F58204D656D6F7279204F766572201C
:103C1000466C6F770D0A0000941600209417002060
:103C200057696E646F777320526F77204D656D6FA3
:103C30007279204F76657220466C6F770D0A00000E
:103C4000041C0020041F00204F75747075742053ED
:103C5000637265656E205369676E616C2057696E8B
:103C6000646F7773204F76657220466C6F770D0A0C
:103C70000000000057696E646F7773204C696E65B1
:103C8000204D656D6F7279204F76657220466C6F9E
:103C9000770D0A007CB5244C207888BB01A803F07E
:103CA000E1FC70B321484FF000024FF08003007830
:103CB000114600284FF0A0000ED005F005FD1C4E67
:103CC0004FF000050100356009D080223046FCF736
:103CD0009CFA307828B908E005F058FCEFE7FF209F
:103CE000307011486946401C01E0694610480AF0EE
:103CF0008FFD38B1032809D10E4880F83A5005E00D
:103D00000BE00EE09DF8000009F01AF89DF80400A1
:103D100009F08CFD18B10120207000207CBD0C2022
:103D20007CBD0B207CBD00003F0000204601002030
:103D30008C0400200F05002038B50446006800F50B
:103D40008050816941F480118161206800F58050C4
:103D500080690090012003F08BFD2068009900F538
:103D60008050816138BD00002DE9F041044621B149
:103D70004FF40060E060C000A060E069002500280A
:103D800061D028462368402619683A4A1140D4E990
:103D900002273A43024342F4007008431860206847
:103DA0000768012003F064FD206807602068466012
:103DB00020684668012003F05BFD206846602068AB
:103DC00085602068C560216888694FF6417210409F
:103DD00040F08000886120688669012003F048FD7A
:103DE000206886612068C5612068C569012003F0EC
:103DF0003FFD2068C561226802F5805290691E4926
:103E000008401E4901439161206800F58050856992
:103E1000012003F02DFD206800F5805085612068A9
:103E2000174900F580500160206800F58050056852
:103E3000012003F01DFD206800F580500560A06999
:103E4000012803D009E04FF480609BE7206800F56B
:103E50008050C1690B4A1143C16160690A49828877
:103E60000A640278D0F8010042EA00204864BDE804
:103E7000F08100000F8120FF233FDEF804002002C4
:103E80000020C102400001000080024010B5014640
:103E90003C2009F081FC012010BD000010B500227B
:103EA000E02103200BF0B2F90122E22103200BF004
:103EB000ADF9002210211A2009F05FFC0149012010
:103EC000887010BD4001002010B5D0F80428D0F84B
:103ED0000038521CD41702EB54546FF30A04121B1F
:103EE000934201D1002010BDD0F80428521CD317F2
:103EF00002EB53536FF30A03D21AC0F80428D0F828
:103F000004288154012010BD10B5012280F8082832
:103F1000D0F80428D0F80048521CD31702EB5353B2
:103F20006FF30A03D21A0023944203D180F80838B1
:103F3000002010BDD0F80428521CD41702EB5454B2
:103F40006FF30A04121BC0F80428D0F80428815427
:103F500080F80838012010BD2DE9F04F06468BB0DF
:103F6000002081460990DFF840A41C4690460D468B
:103F7000080A4DF6FE6BCFB27ED115F0FF0F28D1A7
:103F8000B8F1020F25D36088218801EB004006F0CC
:103F900080FF804609904FF480715046FCF74EF93F
:103FA000AAF800B00620AAF802005746AAF8045062
:103FB000FE480079AAF806002088AAF80800608860
:103FC000AAF80A00AAF80C804FEA18402CE078887A
:103FD00038E3012F2FD1B8F1020F2CD3608821884C
:103FE00001EB00420992A088E18801EB00411046F4
:103FF00007F030FB3902EC48FCF720F9AAF800B0D2
:104000000620AAF80200E948AAF8045057460079A9
:10401000AAF806002088AAF808006088AAF80A0012
:10402000A088AAF80C00E088F8810720B91CFFF7E7
:10403000E0F93882FDE3022F30D1B8F1000F2DD026
:104040002188042902D2012088402BE00F2928D0A2
:10405000D7A00BF0EDF800BF4FF48071D248FCF709
:10406000EDF8AAF800B00220AAF80200AAF804505D
:104070002188AAF8061000E0FEE303200AF10201FD
:10408000FFF7B7F9AAF80800012E07D0BAF8020026
:10409000C54942003046921D0AF0C9F8032F04D0EA
:1040A0002CE00F2006F02FFDD6E7B8F1000F25D049
:1040B0002188042902D2012088401CE00F2919D050
:1040C000C6A00BF0B5F800BF4FF48071B648FCF7FE
:1040D000B5F8AAF800B00220AAF80200AAF8045025
:1040E00020885746AAF806000320B91CFFF781F97B
:1040F00038819FE70F2006F017FDE5E7042F3CD13C
:10410000B8F1000F39D020888046C0B206F0ECFB31
:10411000FF2802D1BBA00BF08BF84FF48071A248AE
:10412000FCF78CF8AAF800B00220AAF80200AAF85E
:10413000045020885746AAF806000320B91CFFF750
:1041400058F93881012E06D07888974942003046C8
:10415000921D0AF06CF8B8F1050F7DD808EB081035
:10416000F1E300BFC0EB0010099900EB400001EB48
:104170000010401C00210990FEE3052F4ED1B8F13C
:104180000D0F4BD388480027F03024210763476385
:104190008763C7634030FCF751F8A4494FF001082A
:1041A00001F11000016081F80880A2794A72CF7293
:1041B000227A0A7361894160A1898160E189C160C5
:1041C000218A0161618A4161A18A8161E18AC161BB
:1041D000764F218B0162387907F0A8FF9349814619
:1041E000242210316846FCF710F82279A178207853
:1041F0004B4606F08BFB20B1FA7839798CA00BF096
:1042000017F84FF480716848FCF718F8AAF800B066
:104210005446AAF80280F1E3608813E2062F0BD11E
:10422000B8F1000F08D02188012007F013FA00210F
:10423000012007F00FFA47E7072F6FD1B8F10B0FF6
:104240006CD32088032888D8784820212038FBF7B1
:10425000F5FFE188754800E03DE1203841602189A3
:10426000016061890161A1894161E1898160218ADF
:10427000C160618AC161A18A81617B4960880968E6
:1042800000EBC00001EB80077848017A7971C168C2
:10429000F9600169B9604169B9618169F961C16910
:1042A0003961016A7961416A7962816A396280683B
:1042B0003F1D18B96E480078012815D06D496E4829
:1042C000CDE9000120796D4B6D4A002103F0F8F92A
:1042D000D7E90510411A491C0991D7E90320821A30
:1042E0006088521C50B11AE062496348CDE9000170
:1042F00064492079614B624A0978E7E75E48D0F863
:1043000000C061450BD95B490B689A4207D94FEA57
:104310004C02026058000860012001E0E1E000204A
:104320003870A088052805D25348006810B9514854
:104330000068B8B3A078002107F00CF820793B4A58
:104340004006010EA078203A07F018F84FF480716B
:104350001548FBF773FFAAF800B00420AAF8020082
:10436000AAF804502088AAF806006088AAF8080075
:10437000A0885746AAF80A000520B91CFFF739F8AB
:10438000B881012E06D07888074942003046921D38
:1043900009F04DFF618801EB410000EBC100AB303B
:1043A000002571E09AE000006C37002078010020C1
:1043B000494E5055545F4650474120564944454F59
:1043C0005F4F55545055545F444953414C424C45FE
:1043D000204552524F52210D0A000000494E5055BF
:1043E000545F4650474120564944454F5F4F55540E
:1043F0005055545F454E41424C45204552524F5214
:10440000210D0A00494E5055545F46504741204304
:104410004C4541525F4F55545055545F57494E20BB
:104420004552524F52210D0A000000008C380020E6
:10443000426F6172642025642C2049494320256421
:104440002C20496E70757446504741536574426123
:10445000636B67726F756E6457696E646F77204522
:1044600052524F52210D0A005C010020AC35002051
:104470004A0100206C010020680100206401002036
:10448000600100204B010020CDF82400099834F889
:104490001510284408F04AFC6D1C0B2DF6DBFE4875
:1044A000407A411E0A2916D26188C0EB001001EB48
:1044B000410202EBC10100EB400001EB0010AC3007
:1044C00000250990099834F81510284408F02EFCAE
:1044D0006D1C0B2DF6DB0BB0BDE8F08FA078012131
:1044E0002AE7082F28D1B8F1000F25D0208804280A
:1044F00002D2C0B206F01EFD4FF48071E748FBF710
:104500009DFEAAF800B00220AAF80200AAF8045002
:104510002188AAF8061003200AF10201FEF769FFBC
:10452000AAF80800012E07D0BAF80200DB494200C1
:104530003046921D09F07BFE092F06D1B8F1000F1D
:1045400003D0207806F032FBBEE50A2F22D1B8F165
:10455000020F1FD36188207806F0A8FD80460990DD
:104560004FF48071CD48FBF769FEAAF800B0052032
:10457000AAF80200C848AAF8045057460079AAF8D9
:1045800006002088AAF808006088AAF80A00AAF89D
:104590000C80FDE30B2F19D1B8F1000F16D0208845
:1045A000411E0A2900D30020BB4948724FF4807194
:1045B000BA48FBF743FEAAF800B00220AAF80200AE
:1045C000B548AAF804505446407A6BE00C2F40D10D
:1045D000B8F1020F3DD9B1488021C038FBF72EFE5B
:1045E000A288A178207806F0B3FF07464FF48071C7
:1045F000AA48FBF723FEAAF800B00620AAF802009A
:10460000A548AAF80450D0460079AAF806002088E8
:10461000AAF808006088AAF80A00A088AAF80C0086
:10462000FF2F0BD05FF00000A8F80E00072008F164
:104630000201FEF7DEFEA8F81000FCE3FF20F3E71E
:10464000B8F80200954942003046921D09F0EFFD8E
:1046500041E70D2F2DD1B8F1000F2AD08F488021CE
:10466000C038FBF7EBFD20880990411E0A2904D2CF
:10467000C0B207F09FFD099A01E0FF220992874826
:1046800087A1C0380AF0E4FD4FF480718348FBF73E
:10469000D5FDAAF800B00220AAF80200AAF804503A
:1046A00009985446E0800320A11CFEF7A2FE208159
:1046B000FDE30E2F73D1B8F1040F70D36088042886
:1046C000C6D2C0B209F0B6F973487E4A01214171E1
:1046D00017680021F96022783A70A2787A70A2886F
:1046E0007A60E288BA60C1604FF480716B48FBF772
:1046F000A5FDAAF800B00520AAF80200AAF8045007
:104700003978AAF806107978AAF80810B888AAF8B3
:104710000A003889AAF80C00D04606200AF10201E6
:10472000FEF767FEA8F80E00012E07D0B8F80200C9
:104730005A4942003046921D09F079FD61480068EF
:10474000407800EB001000EB8000D830CDF824005A
:10475000099A34F8191002EB090008F0E7FA09F198
:104760000109B9F1040FF3DB4B48407A411E0A29D5
:10477000A6D2C0EB0010099900EB400001EB00103D
:10478000401C0025CDF82400099834F81510284461
:1047900008F0CCFA6D1C042DF6DB9CE6FFE70F2F2A
:1047A0006BD1B8F10A0F68D33B4841790029F4D0A6
:1047B000C168082905D343480068C16002F07AFD4A
:1047C00089E6404A126802EB81021769002F3A68B5
:1047D0000092E2D0009B22782F485A72009B2278E8
:1047E000491C5A73009B22789A72009BA2781A7215
:1047F000A2887A60E288BA602289FA6062893A61A6
:10480000A2897A61E289BA61228AFA61628A3A628D
:10481000C1604FF480712148FBF710FDAAF800B089
:104820000B20AAF80200AAF804500098D046417A5A
:1048300000E066E2AAF806100098017AAAF80810CB
:10484000B888AAF80A003889AAF80C00B889AAF82A
:104850000E00388AA8F81000B88AA8F81200388B21
:10486000A8F81400B88BA8F81600388CA8F818001F
:104870000C2008F1020101E018E15DE0FEF7B9FD4E
:10488000A8F81A00012E21D0B8F80200034942000E
:104890003046921D18E00000780100206C3700209F
:1048A000494E5055545F46504741204C4F41445F5C
:1048B000444953504C41595F4D4F44452025640DA8
:1048C0000A0000005401002009F0B1FCFE48FF4D31
:1048D0000068E968407801EB810100EB001000EB13
:1048E0008000DC3000EB41000A380990099A34F866
:1048F000191002EB090008F019FA09F10109B9F1E0
:104900000A0FF3DB687A411E0A29BFF4A1AEC0EB9F
:104910000010099900EB400001EB0010401C00253D
:10492000CDF82400099834F81510284408F0FEF951
:104930006D1C0A2DF6DBCEE5102F05D0112F50D0BF
:10494000122F62D068E0A3E0E04C60790028F2D03A
:10495000E0680028EFD0DFF87083D8F80010C86056
:1049600002F0A8FC0020607120704FF48071D848DC
:10497000FBF764FC574600E081E1AAF800B0012093
:10498000AAF80200AAF804500220B91CFEF731FD73
:10499000F880012E06D07888CD4942003046921D1D
:1049A00009F045FC2178A92008F0C0F9D8F80000EA
:1049B000407800EB001000EB8000D7300990E168F0
:1049C00008F0B4F9607A411E0A29B4D2C0EB001095
:1049D000099900EB400001EB0010401C0990E168D0
:1049E0004DE106F085F84FF48071B948FBF726FCDD
:1049F000AAF800B001205446AAF80200A5800220BF
:104A0000A11CFEF7F6FCE08051E2B8F1000F03D0E4
:104A1000207807F061FB0EE4132F47D1B8F1020FA5
:104A200044D367882078F9B207F012FB042F06D22E
:104A3000A84A07EB470102EB01110020C8604FF4C0
:104A40008071A348FBF7FAFBAAF800B00320AAF88C
:104A50000200AAF804502188AAF806106188AAF872
:104A60000810D04604200AF10201FEF7C2FCA8F8A3
:104A70000A00012E07D0B8F80200954942003046DE
:104A8000921D09F0D4FB052F3FF6E2AD07EB0710AE
:104A900000EB8000D7300021099008F047F98B48DF
:104AA000407A411E0A29FFF45DAB14E50120B0EB0A
:104AB000152FFAD1022F10D1B8F1000F0DD0208898
:104AC0000128A8D1002108F031F908F06BF8FEF7B1
:104AD00081FF002007F06EFB36E5032F07D1B8F108
:104AE000000F04D0208808F0DDF80990F6E2042FCA
:104AF0000AD1B8F1020F07D36188208866E3B91C98
:104B0000FEF777FC7881DDE3052F02D1B8F1000FC5
:104B1000E2D1062F02D1B8F1020FC6D2072F02D17F
:104B2000B8F1000FC1D1082F18D1B8F1010F15D974
:104B3000A178207805F0ECFC4FF480716448FBF715
:104B40007DFBAAF800B00320AAF80200AAF80450DE
:104B50002088AAF8060057466088A7E2092F38D1B6
:104B6000B8F1010F35D9A178207805F04FFD4FF449
:104B700080715748FBF762FBAAF800B00320AAF83F
:104B80000200AAF804502088AAF806006088574658
:104B9000AAF808000420B91CFEF72BFC7881012E2E
:104BA00006D078884A4942003046921D09F03FFB02
:104BB0004648407A411E0A29AFD22188C0EB001036
:104BC00000EB40000E3101EB0010801D09902188A0
:104BD00055E00A2F07D1B8F1010F04D9A178207848
:104BE00005F03CFDA8E70B2F06D1B8F1000F03D06C
:104BF000207805F02BFCA7E40C2F43D1B8F1020F6D
:104C000040D9A2886188207805F03EFD4FF480717C
:104C10002F48FBF713FBAAF800B00420AAF8020003
:104C2000AAF804502088AAF806006088AAF80800AC
:104C3000A0885746AAF80A000520B91CFEF7D9FB40
:104C4000B881012E06D07888214942003046921D55
:104C500009F0EDFA1D48407A411E0A29ACD223889A
:104C600062881F2101EB83011144C0EB001000EBAF
:104C70004000491F01EB0010801D0990217908F0C8
:104C800055F828E40D2F2CD1B8F1020F29D3228832
:104C900061881F2000EB8200084408F003F880467A
:104CA00009904FF480710A48FBF7C8FAAAF800B0DF
:104CB0000420AAF80200AAF804502088AAF80600E6
:104CC0005746608808E00000540100207801002069
:104CD0006C3700205C0D0020AAF80800AAF80A80B2
:104CE0000AE00E2F0ED1B8F1020F0BD9A28861880D
:104CF000207805F0EBFC34E10520B91CFEF779FBC8
:104D0000B881DFE20F2F7DD1B8F1040F7AD3A088EC
:104D100000BBA279A178207805F0AAFD20886188DF
:104D2000000100EB81003D300990A17907F0FEFF02
:104D3000FE48407A411E0A290CD20999C0EB0010A6
:104D400000EB4000491F01EB0010801D0990A17984
:104D500007F0ECFFA088012822D1A279A178207861
:104D600005F095FD20886188000100EB81003E3050
:104D70000990A17907F0DAFFEC48407A411E0A2930
:104D80000ED20999C0EB001000EB4000491F00E073
:104D90006AE001EB0010801D0990A17907F0C6FFC1
:104DA000A088022820D1A279A178207805F08DFD75
:104DB00020880101608801EB80003F300990A179D3
:104DC00007F0B4FFD948407A411E0A290CD209994C
:104DD000C0EB001000EB4000491F01EB0010801DEC
:104DE0000990A17907F0A2FFA088032822D1A27917
:104DF000A178207805F05AFD20886188000100EB39
:104E0000810000E036E040300990A17907F08EFF84
:104E1000C648407A411E0A290CD20999C0EB0010FD
:104E200000EB4000491F01EB0010801D0990A179A3
:104E300007F07CFF00E0A6E24FF48071BC48FBF76E
:104E4000FDF9AAF800B00520AAF80200AAF804505B
:104E50002088AAF806006088AAF80800A088AAF8A6
:104E60000A005746E0882FE00620B91CFEF7C1FA79
:104E7000F88127E2102F47D1B8F1030F44D3A0885F
:104E800020B3012829D0022830D0032835D04FF68E
:104E9000FF7000BF09904FF48071A548FBF7CEF971
:104EA000AAF800B005205746AAF8020000E032E256
:104EB000AAF804502088AAF806006088AAF808001A
:104EC000A088AAF80A000998B881CDE720886188EF
:104ED000000100EB81003D3005E020886188000181
:104EE00000EB81003E3007F0DDFED3E720886188CB
:104EF000000100EB81003F30F5E720886188000168
:104F000000EB81004030EEE7112F1ED1B8F1000F09
:104F10001BD002F011FA6188207809AA02F09EFAEB
:104F20004FF480718248FBF789F9AAF800B0042099
:104F3000AAF80200AAF804502088AAF8060060889F
:104F4000AAF80800574609981FE0122F1FD1B8F1A0
:104F5000000F1CD002F0F0F9A2886188207802F0DE
:104F600097FA4FF480717248FBF768F9AAF800B01D
:104F70000420AAF80200AAF804502088AAF8060023
:104F80006088AAF80800A08857467881B4E6132FF5
:104F90003FF416AC142F36D1B8F1010F33D9DFF836
:104FA0009491DFF89481CDE90089A1782078634B52
:104FB000634A02F085FB4FF480715D48FBF73EF9D0
:104FC000AAF800B00720AAF80200AAF80450208826
:104FD000AAF806006088AAF8080059485746B91C84
:104FE0000088AAF80A0055480088AAF80C00B8F80A
:104FF0000000AAF80E00B9F8000038820820FEF779
:10500000F8F978825EE1152F36D1B8F1010F33D966
:105010004C48007801287FF4E5AD2088052816D893
:1050200037300990A17807F081FE4048407A411E50
:105030000A290CD20999C0EB001000EB4000491F6F
:1050400001EB0010801D0990618807F06FFE208839
:105050000028E0D1402005F01CFFA17800F00F00EF
:1050600001F00F0140EA01214020099106F0F2FA17
:105070003549A07808705FE5162F1FD1B8F1000FF1
:105080001CD02088A0B1FF2009904FF480712848DF
:10509000FBF7D4F8AAF800B00320AAF80200AAF897
:1050A00004502088AAF8060009985746388128E05D
:1050B000402005F0EEFEC0F30320E5E7172F79D17D
:1050C000B8F1000F76D01A488021C038FBF7B6F847
:1050D0002088042817D2C0B202F044FA80464FF468
:1050E00080711348FBF7AAF8AAF800B00320AAF8C9
:1050F0000200AAF804502088AAF806005746AAF829
:1051000008800420FBE40F2825D04FF48071084864
:10511000FBF794F8AAF800B00220AAF80200AAF857
:10512000045020885746AAF806000FE078010020B6
:105130006C3700206C010020680100206401002011
:10514000600100204A0100204B010020FF20AAF846
:1051500008000320D3E44FF0030854468021984808
:10516000FBF76CF809F0FF0002F0FCF907469448E1
:105170004FF48071C030FBF761F8A4F800B0A4F8D8
:105180000280A580A4F8069027810420A11CFEF7C8
:1051900030F960813EB9608889494200C0313046AB
:1051A000921D09F044F809F10109B9F1040FD5DBAA
:1051B0007BE4FFE7182F0CD1B8F1020F09D3A278D6
:1051C0002178D22009F094FA6188A12007F0AEFD81
:1051D000B2E4DFF8F091192F79D1B8F1070F76D347
:1051E00079486188006881420ED17848A1880068BA
:1051F000814209D16189D9F80000814204D1744803
:10520000A1890068814236D00F2005F06DFB20890E
:10521000A28961898DE80700E388A28861882078E7
:1052200005F0E4FB40F20F1005F07EFCF12006F0E3
:10523000FFF905F05DFC0121A02007F077FD218832
:10524000A22007F073FD6188A32007F06FFDA188FD
:10525000A42007F06BFDE188A52007F067FD2189F8
:10526000A62007F063FD6189A72007F05FFDA189F3
:10527000A82007F05BFD52484FF48071C030FAF768
:10528000DDFFAAF800B00820AAF80200AAF804502E
:105290002088AAF806006088AAF80800A088AAF862
:1052A0000A00E088AAF80C002089AAF80E0060899C
:1052B0005746AAF81000A08978820920B91CFEF789
:1052C00098F8B882012E7EF482AEDAE4FFE71A2F56
:1052D00002D01B2F23D05AE039484FF48071C030E0
:1052E000FAF7ACFFAAF800B00420AAF80200AAF866
:1052F0000450B9F80000AAF8060035485446A11C2D
:105300000088AAF8080033480088AAF80A00052097
:10531000FEF76FF8A081012E7EF47EAFB1E4B8F104
:10532000000F34D09D2007F0BDFC2178C0B281422F
:1053300009D00F2005F0D8FA207806F0B5F92178C9
:105340009D2007F0F3FC9D2007F0ACFCC7B21C4881
:105350004FF48071C030FAF771FF0220AAF800B054
:10536000AAF80200D046AAF80450FF2F01D02088E6
:1053700000E0FF20A8F80600032008F10201FEF774
:1053800038F8A8F80800012E7FF45AA979E41C2FF8
:105390009BD19D2007F086FCC7B209484FF480716D
:1053A000C030FAF74BFFAAF800B00220AAF80200BA
:1053B000AAF804505446AAF80670FFF774B9000022
:1053C000AC3600200C000020040000200800002063
:1053D00010000020140000202DE9FF4F8BB04FF08B
:1053E00000090546189C1E464F46F5A1CDF82490AD
:1053F0000C98FAF741FFDFF8D4A3DFF8D4B3DFF855
:10540000D48328B1F4A10C98FAF736FF002870D1A4
:10541000F2A10D98FAF730FF98B996B1206805F01F
:1054200038FD064609908021EE48FAF707FF0096FE
:1054300098F80420ECA1236818E0052D71D001F044
:10544000DEBCF2A10D98FAF717FFA8B9022E13D30C
:10545000D4E9000106F0FEF88021E248FAF7EEFEFA
:105460006068009098F804202368EAA1DD4800BF36
:1054700009F0EEFE01F082BDEFA10D98FAF7FCFEF7
:10548000F0B9EEB12168042902D2012088401EE063
:105490000F291BD0EEA009F0CBFE8021D148FAF7EE
:1054A000CDFEF6A1CF48226809F0D2FE95B1CD48D5
:1054B000052D17D0FAF7D9FE0146CA4809F08CFA33
:1054C000F8A10D98FAF7D8FEA0B12BE00F2005F057
:1054D0001AFBE2E7C348FAF7C8FE0146C14808F0E4
:1054E00011FEEDE7FAF7C1FE0146BE4808F08EFE58
:1054F000E6E7FDE3B6B12168042902D20120884025
:105500000CE00F2909D0ECA009F092FE8021B548EB
:10551000FAF794FEF2A12268B3E00F2005F004FB35
:10552000F4E7E6E3F7A10D98FAF7A6FEA0BB9EB359
:105530002668F0B205F0D8F9FF2802D1F6A009F0EC
:1055400077FE8021A748FAF779FEFDA1A5482268D9
:1055500009F07EFE0DB3A348052D26D0FAF785FE8F
:105560000146A04809F038FA052E75D806EB06105A
:1055700000EB8000D7300021099007F0D7FB98F8A6
:105580000900411E0A2967D2C0EB0010099900EBFF
:10559000400001EB0010FCE30EE09248FAF765FED4
:1055A0000146904808F0AEFDDEE7FAF75EFE0146E0
:1055B0008C4808F02BFED7E7EAA10D98FAF75CFEBD
:1055C00000284AD10D2E48D3EC484E462421C0F87D
:1055D0003090C0F83490C0F83890C0F83C9040301B
:1055E000FAF72CFEE5490122303101F1100001608B
:1055F0000A72227B4A72CE72227C0A736169416010
:10560000A1698160E169C160216A0161616A4161EA
:10561000A16A8161E16AC161216B0162464698F825
:10562000040006F083FDD549074624224031684630
:10563000FAF7EBFD227A217920783B4605F066F9EE
:1056400020B1F2783179CEA009F0F2FD80216548D1
:10565000FAF7F4FDD8A1F6E39DE0E0A10D98FAF782
:105660000BFE90B98EB10120216805F0F3FF0021F7
:10567000012005F0EFFF80215A48FAF7DFFD22688C
:10568000D9A1584809F0E4FDF4E6DEA10D98FAF737
:10569000F3FD00287ED10B2E7CD3206804287AD21B
:1056A000B64820211030FAF7C9FDB448E16810303F
:1056B00041602169016061690161A1694161E1693C
:1056C0008160216AC160616AC161A16A8161D14959
:1056D0006068096800EBC00001EB8006CE48017AE3
:1056E0007171C168F1600169B1604169B16181693D
:1056F000F161C1693161016A7161416A7162816AF6
:1057000031628068361D18B9C4480078012813D06A
:10571000CDE900BA207AC24BC24A002101F0D0FF85
:10572000D6E90510411A491C0991D6E90320821ACD
:105730006068521C40B118E0CDE900BABA49207A3D
:10574000B74BB84A0978E9E7DBF8003099420CD941
:10575000DAF80070BA4208D95A007800CBF8002075
:10576000CAF800000120307001E086F80090A068BF
:10577000052805D2DBF8000010B9DAF80000E8B11E
:105780002079002105F0E6FD207A7C4A4006010ED2
:10579000207901E0A0E19CE1103205F0EFFD8021CD
:1057A0001048FAF74BFDA0680090D4E900239FA1B0
:1057B0000C4809F04DFD15B1052D49E14AE14CE1D8
:1057C000494E5055545F4650474100006C0100203F
:1057D0006801002078010020495F4600524541449D
:1057E00000000000AC360020494E5055545F465032
:1057F00047412052454144202564203078253038E7
:1058000058203078253038580D0A00005752495436
:1058100045000000494E5055545F465047412057BF
:10582000524954452025642030782530385820309E
:1058300078253038580D0A00564944454F5F4F557A
:10584000545055545F444953414C424C450000006C
:10585000494E5055545F4650474120564944454FA4
:105860005F4F55545055545F444953414C424C4549
:10587000204552524F52210D0A000000494E50550A
:10588000545F4650474120564944454F5F4F555459
:105890005055545F444953414C424C452025640DBA
:1058A0000A000000564944454F5F4F555450555427
:1058B0005F454E41424C4500494E5055545F46505D
:1058C000474120564944454F5F4F55545055545F0A
:1058D000454E41424C45204552524F52210D0A003F
:1058E000494E5055545F4650474120564944454F14
:1058F0005F4F55545055545F454E41424C4520250D
:10590000640D0A00434C4541525F4F555450555465
:105910005F57494E00000000494E5055545F4650B5
:10592000474120434C4541525F4F55545055545FB9
:1059300057494E204552524F52210D0A0000000097
:10594000494E5055545F4650474120434C454152C3
:105950005F4F55545055545F57494E2025640D0AEA
:10596000000000005345545F4241434B47524F559E
:105970004E445F57494E444F570000005C380020AA
:10598000426F6172642025642C20494943202564BC
:105990002C20496E707574465047415365744261BE
:1059A000636B67726F756E6457696E646F772045BD
:1059B00052524F52210D0A00494E5055545F4650E5
:1059C0004741205345545F4241434B47524F554E48
:1059D000445F57494E444F570D0A0000534F4654F9
:1059E0005F52455345540000494E5055545F465050
:1059F000474120534F46545F524553455420256438
:105A00000D0A00005343414C45525F5345545550D5
:105A1000000000005C010020AC3500204A0100209D
:105A200064010020600100204B010020494E5055C8
:105A3000545F46504741205343414C45525F5345C4
:105A40005455502025642025642025640D0A00004B
:105A50000BD011E02079012194E6FC48FAF705FC0F
:105A60000146FA4808F04EFB06E0F848FAF7FDFB5D
:105A70000146F64808F0CAFB616801EB410000EB03
:105A8000C100AB3000250990099854F8251028442E
:105A900007F04CF96D1C0B2DF6DB98F80900411E40
:105AA0000A2916D26168C0EB001001EB410202EB3B
:105AB000C10100EB400001EB0010AC300025099063
:105AC000099854F82510284407F030F96D1C0B2D67
:105AD000F6DB0FB0BDE8F08FDDA10D98FAF7CCFB37
