:020000040800F2
:10000000D823002045010008619B0008CD7D000831
:10001000299B0008110800082509010800000000BC
:1000200000000000000000000000000089BC000883
:10003000814F00080000000039AC00087DFE000878
:100040005F0100085F0100085F0100086DAF000854
:100050005F0100085F0100082D61000805620008CB
:100060005F0100085F0100085F0100085F010008F0
:100070005F0100085F0100085F0100085F010008E0
:100080005F0100085F0100085F0100085F010008D0
:100090005F0100085F0100085F0100082962000895
:1000A0005F0100085F0100085F0100085F010008B0
:1000B0005F0100083DFF00085F0100085F010008C4
:1000C0005F0100085F0100085F0100085F01000890
:1000D0005F010008F1010108390201084503010828
:1000E000516100085F0100085F0100085F0100081E
:1000F0005F0100085F0100085F0100085F01000860
:100100005F0100085F0100085F0100085F0100084F
:100110005F0100085F0100085F0100085F0100083F
:100120005F0100085F0100085F0100085F0100082F
:10013000DFF80CD000F040F80048004791150108A6
:10014000D82300200648804706480047FEE7FEE720
:10015000FEE7FEE7FEE7FEE7FEE7FEE7FEE7FEE777
:1001600081FE00083101000840EA01039B0703D02B
:1001700009E008C9121F08C0042AFAD203E011F8E6
:10018000013B00F8013B521EF9D2704730B50B46D7
:10019000014600202022012409E021FA02F59D42B7
:1001A00005D303FA02F5491B04FA02F52844151E8B
:1001B000A2F10102F1DC30BD064C074D06E0E0681B
:1001C00040F0010394E8070098471034AC42F6D39E
:1001D000FFF7B2FFCC2E0108EC2E010870B501EB41
:1001E000020410F8015B15F0070301D110F8013B80
:1001F0002A1106D110F8012B03E010F8016B01F869
:10020000016B5B1EF9D12B0705D40023521E0FD4BE
:1002100001F8013BFAE710F8013B02F10202A1EB01
:10022000030303E013F8015B01F8015B521EF9D5EB
:10023000A142D6D3002070BD10B50D480078022829
:1002400008D10C49802010F035FE0B49902010F0A9
:1002500031FE0BE006480078012807D107498020CD
:1002600010F028FE0649902010F024FE10BD00007A
:100270008D1D0020ED1D01080F1F0108FE1D010846
:10028000231F010810B510F03DFE0D48007802282C
:1002900008D10C49822010F00DFE0B49902010F07F
:1002A00009FE0BE006480078012807D107498220A3
:1002B00010F000FE0649902010F0FCFD10BD00007B
:1002C0008D1D00206E1D01088C1D01087C1D01087C
:1002D000A11D010810B5012002490871084600F06F
:1002E00051FF10BD5E01002010B501200AF000FD95
:1002F00000200AF0FDFC10BD01460020044A1088D1
:100300004FF67F4210400843014A108070470000BA
:100310002C6C004008B50146002000900348009076
:100320000098084400900098008808BD006C0040C8
:10033000014908607047000000860D4208B50022A0
:100340000092044A0092009A02440092009A1160BE
:1003500008BD0000006C004010B52B4800786B28E9
:1003600018D12A480078401E2849087000202849E2
:10037000264A12788854254909789031C8B225A1B7
:1003800010F098FD214909789131C8B222A110F0EE
:1003900091FD38E01C480078722818D11F48007879
:1003A000401E1E49087000201D491C4A12788854BE
:1003B0001A4909789031C8B216A110F07BFD17498F
:1003C00009789131C8B214A110F074FD1BE00E48F9
:1003D0000078792817D113480078401E1149087019
:1003E000002011490F4A127888540E49097890313B
:1003F000C8B208A110F05EFD0A4909789131C8B26F
:1004000005A110F057FD10BD5C1E00201500002056
:100410000E0000205F000000200000001F000020F0
:1004200018000020290000202200002010B5BF483D
:10043000007890283DD1BEA1862010F03BFDBD483C
:100440000078D8B98F20B9490870BB4800780028D7
:1004500004DDB9480078401EB74908700020B7494C
:100460000870B7A1832010F025FD0020B649B24ADC
:1004700012788854832010F01DFD16E0AD480078F6
:10048000012812D1AB480078002804DDA948007883
:10049000401EA84908700020AC490870AC49A54A24
:1004A00012788854862010F005FDAAA011F006F9F4
:1004B0003AE19E480078912839D19DA1882010F01A
:1004C000F9FCA5480078D8B9902098490870994857
:1004D0000078002804DD97480078401E9549087090
:1004E00000209A49087092A1862010F0E3FC0020B9
:1004F0009749904A12788854862010F0DBFC12E06D
:100500009548007801280ED193480078401E924902
:10051000087000209149087091498F4A12788854D8
:10052000882010F0C7FC8BA011F0C8F8FCE07F48D1
:100530000078922877D17EA110F0BCFC8948007821
:10054000002856D18848007803281ED19120774989
:10055000087081480078002804DD7F480078401E3C
:100560007D49087000207D49087071A1882010F035
:10057000A1FC00207A49784A12788854882010F02B
:1005800099FC74A011F09AF8CEE077480078012821
:100590002AD176480078012806D16820634908707E
:1005A00000207349087014E070480078022806D1D2
:1005B0006F205E49087000206E49087009E06B48A2
:1005C0000078032805D176205849087000206A4930
:1005D00008706AA1842010F06DFC842011F046FAA6
:1005E0005CA011F06BF89FE068A1922010F062FC13
:1005F0009AE05C480078012898D15A480078401E5B
:100600005849087000206249087000216148554A25
:10061000127881540146922010F04CFC4DA011F04C
:100620004DF881E0FFE74148007893283FD140A191
:10063000942010F03FFC58480078D8B992203B49EC
:10064000087048480078002804DD46480078401EBD
:100650004449087000204E49087035A1922010F0DE
:1006600029FC00204B493F4A12788854922010F010
:1006700021FC18E048480078002814DD464800783E
:10068000002804DD44480078401E434908700020DB
:1006900042490870002142483F4A1278815401467D
:1006A000942010F007FC2BA011F008F83CE01F4844
:1006B0000078942838D11EA1962010F0FBFB394811
:1006C0000078D8B993201949087033480078002879
:1006D00004DD31480078401E2F49087000202F4962
:1006E000087013A1942010F0E5FB00202C492A4A41
:1006F00012788854942010F0DDFB12E0294800782D
:1007000000280EDD27480078401E2649087000208A
:10071000254908702549234A12788854962010F0FC
:10072000C9FB0CA010F0CAFF10BD00005C1E002029
:100730002020000038010020370100203601002071
:100740002020202000000000CB1E002039010020C6
:10075000450100205F0000003A0100203B0100201D
:10076000480100203C01002044010020BE1D002063
:10077000991D00209A1D00209B1D00202020202074
:100780002020202020202020000000005F200000EA
:100790003D0100204B0100203E0100203F010020D0
:1007A0004E010020400100204101002051010020A5
:1007B00070B506460C46002511480078002804DD77
:1007C0000F480078401E0E49087000200D4908703F
:1007D000304611F04BF9002503E0202010F098FB83
:1007E0006D1CA542F9DB00200749054A12788854A0
:1007F000304610F05FFB05A010F060FF70BD0000F8
:100800003701002036010020CB1E00205F000000D1
:1008100000BFFEE730B502460B46002112F0010F83
:1008200001D1002030BD012B04D0022B43D0032B7B
:1008300040D181E002F00200022804D101250C46DB
:10084000491C5F48055502F00400042804D1022524
:100850000C46491C5A48055512F0010F04D00325D7
:100860000C46491C5648055502F01000102804D1CA
:1008700004250C46491C5248055502F0200020284A
:1008800004D105250C46491C4D48055502F0400091
:10089000402804D106250C46491C4948055502F05C
:1008A0008000802804D107250C46491C4448055582
:1008B0004448017081E002F00200022804D10125C1
:1008C0000C46491C4048055502F00400042804D198
:1008D00002250C46491C3C48055512F0010F04D076
:1008E00003250C46491C3848055502F01000102815
:1008F00004D104250C46491C3348055502F020005C
:10090000202804D105250C46491C2F48055502F026
:100910004000402804D106250C46491C2A480555AC
:1009200002F08000802804D107250C46491C264887
:1009300005552648017040E002F00200022804D16B
:1009400001250C46491C2248055502F004000428E4
:1009500004D102250C46491C1D48055512F0010F13
:1009600004D003250C46491C1948055502F0100017
:10097000102804D104250C46491C1548055502F0E1
:100980002000202804D105250C46491C1048055597
:1009900002F04000402804D106250C46491C0C48B2
:1009A000055502F08000802804D107250C46491C1B
:1009B000074805550748017000BF00BF012031E717
:1009C0000E00002015000020180000201F0000204D
:1009D000220000202900002010B5002004490870E2
:1009E000FF200449087048700BF0A0FA10BD000009
:1009F000991D00200C00002010B50020044908704B
:100A0000FF200449087048700BF0B0FA10BD0000D8
:100A10009A1D00201600002010B50020044908701F
:100A2000FF200449087048700BF0C0FA10BD0000A8
:100A30009B1D0020200000207CB504460D46164674
:100A40002AA103C9CDE900012A48007873280DD0F6
:100A500004DC5A281ED06C2830D104E07A2808D053
:100A60007D282BD108E0FFF7B7FF27E0FFF7C4FF91
:100A700024E0FFF7D1FF21E000201F4908701F4943
:100A8000087010F06DFB1D48017840F2A2400FF095
:100A9000F5FF13E0002010F0D9FC1948017840F26E
:100AA000C9400FF0EBFF1748017840F2CB400FF040
:100AB000E5FF40F2CD400FF0EDFF00BF00BF12A1F7
:100AC000902010F0F7F911480078022804D1694607
:100AD000862010F0EFF907E00C480078012803D1D8
:100AE0000BA1862010F0E6F901207CBDD2D1C8A16F
:100AF000CFFB00005C1E0020A21D00209F1D0020D7
:100B0000901D0020981D00202A0000008D1D00204F
:100B100043616E63656C2073756363657373000076
:100B200010B507200E49087010F0ECF90D48007858
:100B3000022808D10C49822010F0BCF90B49902002
:100B400010F0B8F90BE007480078012807D10849F0
:100B5000822010F0AFF90749902010F0ABF910BDDA
:100B60005C1E00208D1D00207B2001085F200108F5
:100B7000862001086F20010810B528480078284910
:100B8000097888420ED1254840782549097888425D
:100B900008D0224840780E2804DA204948780DF021
:100BA000F5FD3AE01D4840781D49097888420ED18C
:100BB0001A4800781A490978884208D017480078FE
:100BC0000E2804DA154908780DF0E0FD25E00F2025
:100BD00008F004FD07201349087010F093F912483B
:100BE0000078022808D11149822010F063F91049D9
:100BF000902010F05FF90BE00B480078012807D136
:100C00000C49822010F056F90BA1902010F052F9F7
:100C1000052010F027FA01F03BFB10BDB9020020BF
:100C2000CF1D00205C1E00208D1D00207B200108B0
:100C3000ED200108862001085377697463682061FC
:100C40006E6420676F206F6E0000000070B5044670
:100C50000D460026D1480078012802D1D0480678F8
:100C60001EE0CE480078032803D0CC480078042842
:100C700009D1CC480078012802D1C94806780FE094
:100C8000C94806780CE0C5480078022808D1C74852
:100C90000078012802D1C448067801E0C0480678EF
:100CA000C3480078B0422BD1C2480078A04222D17C
:100CB000C1480078A842FAD1C0480078E0B1BF48E6
:100CC000007800F0FFFDBB480078BD490978084472
:100CD000182190FBF1F201FB1200B6490870B648EA
:100CE0000078B849097808443C2190FBF1F201FBF7
:100CF0001200B14908704FE10020B34908704BE180
:100D0000AE480078B04244D1AA480078A042F2D15F
:100D1000A9480078A842EED1AC480078E0B1AB48D1
:100D2000007800F0CFFDA3480078A949097808446D
:100D3000182190FBF1F201FB12009E4908709E48B9
:100D40000078A449097808443C2190FBF1F201FBAA
:100D50001200994908701FE19548007800F0B2FD33
:100D6000944800789C4909780844182190FBF1F2D6
:100D700001FB12008F4908708F4800789749097865
:100D800008443C2190FBF1F201FB12008A490870F3
:100D900002E18E480078B04244D186480078A042F3
:100DA000A9D185480078A842A5D18D480078E0B146
:100DB0008B48007800F086FD7E48007889490978E4
:100DC0000844182190FBF1F201FB120079490870E8
:100DD000794800788449097808443C2190FBF1F275
:100DE00001FB120074490870D6E07148007800F0E9
:100DF00069FD70480078784909780844182190FB0B
:100E0000F1F201FB12006B4908706B4800787349DE
:100E1000097808443C2190FBF1F201FB120066497D
:100E20000870B9E06E480078B04244D1614800785B
:100E3000A04290D160480078A8428CD16B480078DD
:100E4000E0B16A48007800F03DFD5A4800786849F2
:100E500009780844182190FBF1F201FB1200554972
:100E60000870554800786349097808443C2190FB94
:100E7000F1F201FB1200504908708DE04C480078F7
:100E800000F020FD4B4800785349097808441821A8
:100E900090FBF1F201FB12004649087046480078C9
:100EA0004E49097808443C2190FBF1F201FB120005
:100EB0004149087070E04D480078B04244D13D4847
:100EC0000078A04268D13C480078A84264D14A48E2
:100ED0000078E0B14848007800F0F4FC354800782C
:100EE000464909780844182190FBF1F201FB1200F1
:100EF00030490870304800784149097808443C215D
:100F000090FBF1F201FB12002B49087044E02848E5
:100F1000007800F0D7FC274800782F49097808446A
:100F2000182190FBF1F201FB1200224908702248BF
:100F300000782A49097808443C2190FBF1F201FB32
:100F400012001D49087027E02B480078B04223D1D9
:100F500018480078A0421FD117480078A8421BD13A
:100F60001348007800F0AEFC124800781A4909785E
:100F70000844182190FBF1F201FB12000D490870A2
:100F80000D4800781549097808443C2190FBF1F29E
:100F900001FB12000849087070BD0000CE1D002042
:100FA000CF1D0020C81D0020D01D0020CD1D002019
:100FB000A31D0020A01D0020A11D0020A41D0020B5
:100FC000AA1D0020B01D00209F1D0020A51D00208F
:100FD000AB1D0020B11D0020A91D0020AF1D002069
:100FE000A61D0020AC1D0020B21D0020A71D002062
:100FF000AD1D0020B31D0020A81D0020AE1D002047
:10100000B41D002010B50E4B1B88834213DB0C4B24
:101010001B88834203D10A4B5B888B420BDB084B56
:101020001B8883420AD1064B5B888B4206D1044B56
:101030009B88934202DC0123024C236010BD000018
:10104000F8010020641D0020024602EB820000EB44
:10105000C200024B1844405C7047000010020020A0
:101060001FB511A103C9CDE9020100200090019034
:10107000062202A907F0CAF805200FF0F3FF0622A6
:101080006946002007F08AF8002409E002A8005D04
:101090001DF80410884202D0002004B010BD641C6A
:1010A000062CF3DB0120F8E701020304050600002B
:1010B00001460878AA2804D14878BB2801D101202C
:1010C00070470020FCE700002DE9F0411F48007840
:1010D00010B90020BDE8F0811D48006842F210718F
:1010E000B0FBF1F201FB12041848017819480FF027
:1010F00043FE0546200140EAA42087B2A00240EA50
:10110000241086B287EA0600C0F30D00A84208D179
:1011100011481249086040F2E2400FF03BFD012007
:10112000D8E70E4800680C4988420CD00B4800688C
:10113000854208D108460949086040F2E2400FF0B4
:1011400029FD0120C6E70020C4E700003701002088
:10115000741D0020CB1E002040420F00501D0020B7
:1011600001460023022204E0885C1844C3B2501CEC
:10117000C2B20B2AF8DBC87A984201D1012070472D
:101180000020FCE770B504460026022504E0605DFF
:101190003044C6B2681CC5B20B2DF8DBE6720C21D8
:1011A00020460EF0EBFF70BD70B504460026022508
:1011B00004E0605D3044C6B2681CC5B20B2DF8DB9C
:1011C000E6720C2120460EF0F7FF70BD2DE9F04FBE
:1011D0008DB0044689469246302240496846FEF763
:1011E000C3FF651E3E480088461E642195FBF1F151
:1011F0002846EA1705EB9272C1EBA2014FF4C872C0
:1012000095FBF2F201EB020B642196FBF1F1304603
:10121000F21706EB9272C1EBA2014FF4C87296FB73
:10122000F2F211440C91E11704EB91718910B4EBC7
:10123000810111D1642194FBF1F201FB124131B91A
:101240004FF4C87194FBF1F201FB124121B9B9F1DD
:10125000020F01DD012700E0002740F26D1005FBC1
:1012600000B1A9F101005DF8200008445044074492
:101270001B490888C11700EB91718910B0EB8101FF
:1012800016D117490988642291FBF2F302FB13116E
:1012900039B913490988920091FBF2F302FB13114B
:1012A00031B90F494988022902DD4FF0010801E0F8
:1012B0004FF0000840F26D1070430C99014408484B
:1012C0004088401E5DF8200008440549898808448C
:1012D0008044A8EB07000DB0BDE8F08F741B010837
:1012E000F8010020084800784D2807D04E2804D087
:1012F0005D2805D07E2805D101E000BF00BF00BFFA
:10130000012070470020FCE75C1E002010B541F66C
:10131000C42140F23C5006F06DFE002006490880D2
:101320000846018840F237500FF024FC40F23C5050
:101330000249088010BD0000701D0020721D0020B1
:10134000002000BF06E00021044A1154044A115451
:10135000411CC8B20C28F6DB704700009C1E002020
:10136000901E0020002000BF06E00021044A115416
:10137000044A1154411CC8B20C28F6DB7047000027
:10138000B51E0020A81E002010B50821284805F031
:10139000CBFE38B10121264805F0C6FE10B1012070
:1013A0002449087023480078002833D008212048B9
:1013B00005F0BAFE70BB01211D4805F0B5FE48BB23
:1013C0001D48007888B100201A4908701B48007831
:1013D00018B9FF201949087007E018480078401E26
:1013E000164908700020164908701648007888B120
:1013F00000201049087011480078401C0F490870FF
:1014000001200F4908700D480078FF2802D1002004
:101410000A4908700821064805F086FE064908704A
:101420000121034805F080FE0649087010BD000048
:1014300000140140121D0020101D0020BC020020DD
:10144000BB020020111D00200146002000BF04E067
:10145000034A125C0A54421CD0B20C28F8DB7047D5
:101460009C1E00200146002000BF04E0034A125CDD
:101470000A54421CD0B20C28F8DB7047B51E00207D
:1014800010B50246A2F534530F3B04D0A3F5006318
:10149000673B4ED126E0A32904D0A4290CD0A5296E
:1014A0001ED113E0002004E0354B1B5C354C235467
:1014B000401C0728F8DB13E0002004E0304B1B5CE5
:1014C000314C2354401C0728F8DB09E0002004E0DD
:1014D0002B4B1B5C2D4C2354401C0728F8DB00BF12
:1014E00000BF4AE0A32904D0A4290CD0A5291ED10D
:1014F00013E0002004E0264B1B5C224C2354401CCC
:101500000728F8DB13E0002004E0214B1B5C1E4C95
:101510002354401C0728F8DB09E0002004E01C4BA2
:101520001B5C1A4C2354401C0728F8DB00BF00BF8B
:1015300023E0A32904D0A4290BD0A5291BD111E0B5
:10154000002003E000230F4C2354401C0728F9DB44
:1015500011E0002003E000230B4C2354401C07281B
:10156000F9DB08E0002003E00023084C2354401C72
:101570000728F9DB00BF00BF00BF00BF10BD00009F
:10158000FD280108D6010020DD010020E401002033
:101590000429010870B505460C2D6FD008DC6ED209
:1015A000DFE805F02E38424C56606A7684909CA69F
:1015B000CE2D6FD00EDCCB2D6DD006DC0D2D6BD07B
:1015C000C92D6AD0CA2D5AD1BAE0CC2D70D0CD2DFC
:1015D000F9D1D3E041F6A331681A8D4269D008DC15
:1015E000A5F580702D386FD0A0F590503138EAD134
:1015F000E2E0012869D0A0F5A0607938E3D1F9E0F4
:10160000002404E08348005D83490855641C152CC0
:10161000F8DBFAE0002404E08048005D7E490855CC
:10162000641C152CF8DBF0E0002404E07C48005D2D
:1016300079490855641C152CF8DBE6E0002404E029
:101640007848005D74490855641C152CF8DBDCE013
:10165000002404E07448005D6F490855641C152C93
:10166000F8DBD2E0002404E07048005D6A490855C8
:10167000641C152CF8DBC8E0002406E042E0C3E05F
:101680006B48005D64490855641C152CF8DBBCE010
:10169000002408E07CE05DE03EE047E06548005D56
:1016A0005D490855641C152CF8DBAEE0002406E00B
:1016B0005AE08BE06048005D57490855641C152CC2
:1016C000F8DBA2E0002406E06CE089E05B48005D06
:1016D00051490855641C152CF8DB96E0002404E001
:1016E0005748005D4C490855641C152CF8DB8CE00C
:1016F000002404E05348005D47490855641C152C3C
:10170000F8DB82E0002404E04F48005D42490855C0
:10171000641C152CF8DB78E0002404E04B48005DE5
:101720003D490855641C152CF8DB6EE0002404E0EC
:101730004748005D38490855641C152CF8DB64E007
:10174000002404E04348005D33490855641C152C0F
:10175000F8DB5AE0002404E03F48005D2E490855BC
:10176000641C152CF8DB50E0002404E03B48005DCD
:1017700029490855641C152CF8DB46E0002404E0D8
:101780003748005D24490855641C152CF8DB3CE003
:10179000002404E03348005D1F490855641C152CE3
:1017A000F8DB32E0002404E02F48005D1A490855B8
:1017B000641C152CF8DB28E0002404E02B48005DB5
:1017C00015490855641C152CF8DB1EE0002404E0C4
:1017D0002748005D10490855641C152CF8DB14E0FF
:1017E000002404E02348005D0B490855641C152CB7
:1017F000F8DB0AE0002404E01F48005D06490855B4
:10180000641C152CF8DB00E000BF00BF04F0ACFE48
:1018100070BD00002C2A010899010020412A01080E
:10182000562A01086B2A0108802A0108952A010816
:10183000AA2A0108BF2A0108D42A0108E92A0108B6
:10184000FE2A0108132B0108282B01083D2B010853
:10185000522B0108672B01087C2B0108912B0108F2
:10186000A62B0108BB2B0108D02B0108E52B010892
:10187000FA2B01080F2C0108242C010810B50A4688
:101880000378302B01D1012A18D00378352B0DD1E4
:1018900042230B4C2370502363700378A37043786A
:1018A000E37083782371C378637107E0002103E05C
:1018B000435C034C6354491C9142F9DB10BD0000AA
:1018C0006A01002010B5044607200E490870012265
:1018D0000D48017820460EF003FA90200FF0FEFA32
:1018E0000A480078022804D1094992200FF0E2FA50
:1018F00007E006480078012803D1064992200FF03E
:10190000D9FA10BD5C1E0020C81D00208D1D0020CE
:101910006E2301087923010870B506F045FDC9481A
:101920000078012807D0C8480078032803D0C648AB
:101930000078022822D10720C44908700FF0E2FA8B
:10194000C3480078022808D1C24982200FF0B2FAB9
:10195000C14991200FF0AEFA07E0C04982200FF094
:10196000A9FABFA191200FF0A5FA002007F036FEDA
:101970000A200FF077FB09F0B1FF61E10024002598
:10198000BA480078012803D10220B849087006E05F
:10199000B6480078022802D10120B44908700EF040
:1019A00067F900B170BDA948007821280DD006DC88
:1019B000082812D009280FD01F284AD104E0242873
:1019C00041D0462845D10BE000BFA94AA949A74804
:1019D000007805F093FE00BF00BF07F0EBFA2DE1A1
:1019E0009A49097801EB8101A34A02EBC101486AD7
:1019F000804705468DB996480078022804D19F4952
:101A000091200FF057FA1BE091480078012817D178
:101A10009B4991200FF04EFA12E0012D10D18C4815
:101A20000078022804D1974991200FF043FA07E08B
:101A300087480078012803D1934991200FF03AFAA2
:101A400007F0B8FAFAE007F0B5FA912003F0EEFEDD
:101A5000F4E007207D4908700FF054FA79480078C7
:101A6000012804D1894980200FF024FA03E0884935
:101A700080200FF01FFA7D48007801281AD1854890
:101A8000047885A1812004F095F871480078022837
:101A900004D1834997200FF00DFA07E06C480078D5
:101AA000012803D17F4997200FF004FA0E206749DF
:101AB00008701DE06D480078022819D17A48047832
:101AC00075A1812004F076F861480078022804D1DD
:101AD000764997200FF0EEF907E05D48007801287D
:101AE00003D1734997200FF0E5F90F20574908708B
:101AF0000C2C18D2DFE804F0A006182A3C65A08957
:101B00004E60779B52480078022804D169499020A2
:101B10000FF0D0F907E04E480078012803D166495C
:101B200090200FF0C7F987E049480078022804D1D7
:101B3000624990200FF0BEF907E04548007801287F
:101B400003D15F4990200FF0B5F975E04048007867
:101B5000022804D15B4990200FF0ACF907E03C4823
:101B60000078012803D1584990200FF0A3F963E0D1
:101B700037480078022804D1544990200FF09AF990
:101B800007E033480078012803D1514990200FF035
:101B900091F951E02E480078022804D14D49902057
:101BA0000FF088F907E02A480078012803D14A4954
:101BB00090200FF07FF93FE048A190200FF07AF9D4
:101BC0003AE023480078022804D1464990200FF0DB
:101BD00071F907E01E480078012803D1424990209E
:101BE0000FF068F928E01A480078022804D13F492C
:101BF00090200FF05FF907E015480078012803D125
:101C00003B4990200FF056F916E011480078022861
:101C100004D1384990200FF04DF907E00C480078C6
:101C2000012803D1344990200FF044F904E033A196
:101C300090200FF03FF900BF00BF00BF00BF00BF02
:101C400000BFAFE6CE1D00208F1D00205C1E0020CF
:101C50008D1D00207B200108112401088620010829
:101C60005573656420446F75626C6500C81D002063
:101C7000D81D0020D61D0020C0020020F525010837
:101C8000FA2501080126010806260108A41B0108FF
:101C9000A71B0108CF1D0020202B202000000000E2
:101CA0008E20010894200108D01D002099200108F1
:101CB0009F200108201E0108261E0108361E01086B
:101CC0002A1E01083C1E01082E1E0108421E0108A2
:101CD000321E0108731E01087B1E0108564741325F
:101CE000000000004F1E01085B1E01087F1E010856
:101CF0008C1E01085F1E01086D1E01085344490037
:101D000010B506F099FE68B13D480068012804D17D
:101D100004219120FEF74CFD70E004219420FEF791
:101D200047FD6BE03748007893285AD018DC8A28A2
:101D300049D00CDC722859D004DC4B283ED06B28EB
:101D400058D152E0792852D0882853D12FE08B38CF
:101D500008284FD2DFE800F0384E4E4E3D42434453
:101D60009438132846D2DFE800F03D454545454507
:101D700045212324174512450D0A0B0C1C0000BFFA
:101D800000BF00BF05219120FEF712FD35E00321C1
:101D90009120FEF70DFD30E00B219120FEF708FDAC
:101DA0002BE00A219120FEF703FD26E000BF00BFD3
:101DB00000BF06219120FEF7FBFC1EE002219120CE
:101DC000FEF7F6FC19E000BF04219720FEF7F0FCB7
:101DD00013E004218320FEF7EBFC0EE000BF00BF00
:101DE00000BF00BFFEF722FB07E000BF00BFFEF709
:101DF000B3FA02E0FFF790FD00BF00BF10BD000086
:101E0000B81D00205C1E002010B504463A4804703E
:101E10000FF078F839480078022834D13648007835
:101E200000EB8000364901EBC000406878B1324ACF
:101E3000127802EB82020B4603EBC20251682E4A73
:101E4000127802EB820213F832000FF033F82A48BE
:101E5000007800EB80002A4901EBC00000690028EF
:101E600048D0254A127802EB82020B4603EBC202ED
:101E70001169214A127802EB820203EBC202107B45
:101E80000FF018F836E01D480078012832D11A48C2
:101E9000007800EB80001A4901EBC000806878B13F
:101EA000154A127802EB82020B4603EBC2029168DC
:101EB000114A127802EB820213F832000EF0FAFF98
:101EC0000D48007800EB80000D4901EBC00040692F
:101ED00080B1094A127802EB82020B4603EBC20280
:101EE0005169054A127802EB820203EBC202107BB1
:101EF0000EF0E0FF10BD00005C1E00208D1D0020D4
:101F0000C002002013B50C46684608F0D5F920B988
:101F10009DF8000007F062FB1CBD174800780228FE
:101F20001DDA16480078D0B99DF800003030C1B2F3
:101F3000114802780078401C0F4B187010488154EB
:101F400000200F491A461278885420460EF0B2FF3E
:101F500009480078022802DA0AA00FF0AFFB064811
:101F60000078022805D1012004490870022006F0FB
:101F70004DFA00BFD0E700003A0100203B010020ED
:101F8000480100205F00000070B5002506F07AFDD2
:101F900000B170BDB7480078102803D0B54800786C
:101FA000112800D1F5E7B348007800EB8000B24972
:101FB00001EBC000006918B9AE48007845286BD124
:101FC00006F0F2F9AB48007800EB8000AA4901EB7B
:101FD000C000407EA749097888420AD0A548007809
:101FE00000EB8000A44901EBC000407EA1490870CD
:101FF0000125A0480078FFF707FF0DF039FE9D4846
:10200000007800EB80009C4901EBC000C06980B102
:102010007DB99848007800EB800001EBC0000022F9
:10202000C369944801780320984710B101200FF04C
:1020300019F89048007800EB80008F4901EBC00050
:10204000007B91281ED18B48007800EB800001EBCB
:10205000C000006AB0B190200FF008FD85490978F2
:1020600001EB8101844A02EBC101086A8047814982
:102070000978884203D181A00FF020FB02E080A004
:102080000FF01CFB7B4800789A2804D191217D48F1
:10209000007803F05FFCE9E0002406F085F975485C
:1020A000007800EB8000744901EBC000007E7149AC
:1020B0000978884209D06F48007800EB80006E49AB
:1020C00001EBC000007E6B4908706A48007800EBA5
:1020D0008000694901EBC000406A48B16549097850
:1020E00001EB8101644A02EBC101486A8047044662
:1020F00060480078222839D00CDC1B2821D004DC71
:10210000142814D0162872D116E01D2823D02028B8
:102110006DD12AE02B2835D004DC272830D029289F
:1021200065D12EE0952840D09A2860D14CE05648E1
:102130000078204484B25AE053480078204484B2A6
:1021400055E051480078204484B206F033FF8720E0
:1021500003F0A0FF4BE04C480078204484B206F026
:1021600029FF872003F096FF41E000BF4648007832
:10217000204484B206F01EFF872003F08BFF36E078
:1021800000BF00BF404800782044642801DD64247B
:1021900003E03D480078204484B29121204603F0BA
:1021A000EBFA872003F076FF21E0374800782044DF
:1021B000642801DD642403E033480078204484B2BD
:1021C000872003F067FF12E02F48007820440F2893
:1021D00001DD0F2403E02C480078204484B29121D3
:1021E000204603F0B7FB872003F054FF00BF00BF79
:1021F0002048007800EB80001F4901EBC000C06957
:1022000058B11C48007800EB800001EBC00022466A
:10221000C369184801780320984716480078202899
:1022200017D008DC142810D016280FD01B280ED089
:102230001D2819D10CE022280CD0462802D0952860
:1022400012D10AE006F0E0FC0EE000BF00BF00BFC4
:1022500000BF00BF06F0F2FE06E02A2290210B48E4
:10226000007803F02FF900BF00BF00BF00F008FCAA
:1022700000BF8EE65C1E0020C00200202A00000085
:102280003E000000E61D0020C01D0020CA1D0020E9
:1022900010B50EF037FE06F087F83E4800785B2850
:1022A00003D03C4800785D2819D140F2CD400EF0B3
:1022B000F1FB39480078022804D1384980200EF01B
:1022C000F9FD07E034480078012803D134A18020CB
:1022D0000EF0F0FD05200EF0C5FE0EF013FE2D48A9
:1022E000007800EB8000324901EBC000C07E294934
:1022F000087029480078022821D10A46127802EB9A
:1023000082022B4B03EBC2025168224A127802EB85
:10231000820213F832000EF0CDFD1E4A127802EB55
:102320008202234B03EBC20211691A4A127802EBB4
:10233000820203EBC202107B0EF0BCFD24E01648C3
:102340000078012820D1134A127802EB8202184B40
:1023500003EBC20291680F4A127802EB820213F873
:1023600032000EF0A7FD0B4A127802EB8202104BEE
:1023700003EBC2025169074A127802EB820203EBB7
:10238000C202107B0EF096FD00F07AFB0DF070FC9F
:1023900010BD00005C1E00208D1D0020DC22010805
:1023A0004261636B7570206F70656E65640000003C
:1023B000C002002010B54620094908700EF0A2FDA9
:1023C00008480078022804D1074980200EF072FDE9
:1023D00003E0064980200EF06DFD06F015FC10BDEF
:1023E0005C1E00208D1D0020EA240108F324010852
:1023F00070B505F0D9FFDC480078012857D1DB48DB
:10240000007808280ED1DA48008838B9D948008801
:1024100020B9D949012004F069FAA3E1012004F0B0
:1024200021FB9FE1D148007805280ED1D3480088D0
:1024300038B9D348008820B9D249012004F056FAAF
:1024400090E1012004F024F98CE1C84800780A28C2
:102450000ED1CD48008838B9CC48008820B9CC4985
:10246000012004F043FA7DE1012004F0A7F979E1AD
:10247000BE480078092804D1C649012004F036FA84
:1024800070E1BA480078062804D1C349012004F05D
:102490002DFA67E1C148008828B9C148008810B901
:1024A00003F018FF5EE1012004F072FB5AE1AE4830
:1024B000007802287BD1BB480078022803D1AB48C2
:1024C0000578012402E0B84805780224082D18D1C7
:1024D000012C05D1A648008810B9A648008838B15B
:1024E000022C0AD1B148008838B9B148008820B917
:1024F000A149204604F0FAF938E0204604F0B2FA87
:1025000034E0052D18D1012C05D19C48008810B964
:102510009B48008838B1022C0AD1A648008838B9F7
:10252000A548008820B99749204604F0DFF91DE04E
:10253000204604F0ADF819E00A2D17D1012C05D181
:102540009148008810B99148008838B1022C0AD10E
:102550009A48008838B99A48008820B98C492046A2
:1025600004F0C4F902E0204604F028F9092D04D152
:102570008849204604F0BAF91DE0062D04D18649A9
:10258000204604F0B3F916E0012C05D183480088F9
:1025900010B98348008838B1022C09D189480088D5
:1025A00030B98948008818B903F094FE03E003E0CD
:1025B000204604F0EDFAD5E084480078012802D1E5
:1025C0006A48047801E078480478082C20D17F48D4
:1025D000007801280AD16648008838B96548008823
:1025E00020B96549012004F081F956E07748007868
:1025F000022808D16D48008828B96D48008810B9B4
:1026000003F068FE49E07148007804F02BFA44E0DA
:10261000052C20D16D48007801280AD15748008840
:1026200038B95748008820B95649012004F05EF9AE
:1026300033E066480078022808D15E48008828B94F
:102640005D48008810B903F045FE26E05F48007839
:1026500004F01EF821E00A2C1FD15C480078012804
:102660000AD14948008838B94848008820B9484903
:10267000012004F03BF910E054480078022808D10A
:102680004E48008828B94E48008810B903F022FE51
:1026900003E04E48007804F091F8092C20D14B4813
:1026A000007801280AD14A48008838B9494800888A
:1026B00020B93849012004F019F952E04348007864
:1026C000022808D14448008828B94448008810B935
:1026D00003F000FE45E03D48007804F0C3F940E017
:1026E000062C20D13948007801280AD13C480088BE
:1026F00038B93C48008820B92749012004F0F6F891
:102700002FE032480078022808D13748008828B9DD
:102710003648008810B903F0DDFD22E02B48007830
:1027200003F0B6FF1DE029480078012808D11B48B6
:10273000008828B91A48008810B903F0CBFD10E0D2
:1027400022480078022808D11E48008828B91E486F
:10275000008810B903F0BEFD03E01C48007804F0C7
:1027600017FA00BF70BD0000CE1D0020CF1D002055
:10277000081E00200A1E0020C11D0020281E002067
:102780002A1E0020C21D0020481E00204A1E0020D4
:10279000C31D0020C51D0020C61D0020F81D0020FF
:1027A000FA1D0020CD1D0020D01D0020101E00208D
:1027B000121E0020301E0020321E0020501E00205D
:1027C000521E0020001E0020021E0020C81D0020F6
:1027D000181E00201A1E0020201E0020221E00208D
:1027E000381E00203A1E0020401E0020421E0020FD
:1027F00013B50C46684607F05FFD20B99DF8000050
:1028000006F0ECFE1CBD1748007802281DDA1648B9
:102810000078D0B99DF800003030C1B2114802787C
:102820000078401C0F4B18701048815400200F494D
:102830001A461278885420460EF03CFB094800786E
:10284000022802DA0AA00EF039FF064800780228B2
:1028500005D1012004490870022005F0D7FD00BF12
:10286000D0E700003C0100203D0100204B0100208A
:102870005F00000070B506460D46304607F0FCFCD0
:10288000044604B970BD5848007876281AD006DC92
:102890005C2877D0682809D06F2806D10CE07C2806
:1028A00016D08C28F9D15148047091E0504804703A
:1028B0000120504908708BE04F48047001204D49B9
:1028C000087085E001204B4908704C4804707FE097
:1028D0004B480078072859D2DFE800F05804070F6A
:1028E0001B2B3F004748047050E046480078844264
:1028F00000D1C7E74448047048E042480078844269
:1029000003D041480078844200D1BBE73F480470BF
:102910003CE03C480078844207D03B480078844241
:1029200003D03A480078844200D1ABE738480470BD
:102930002CE03448007884420BD03348007884423D
:1029400007D032480078844203D03148007884426E
:1029500000D197E72F48047018E02A480078844295
:102960000FD02948007884420BD028480078844250
:1029700007D027480078844203D026480078844254
:1029800001D17FE707E02448047000BF00BF0120A9
:10299000184908701CE02148006890B9002006E042
:1029A0001F4911F81010A14200D16BE7401C1D49CE
:1029B00009788842F4DB1A491A4A127801F8124061
:1029C00005E017481749097800EB4100447000BF43
:1029D00000BF15A128460EF06DFA2146284603F0E7
:1029E000AFF900BF4EE700005C1E0020CF1D0020A5
:1029F000991D0020350100209A1D00209B1D0020FC
:102A0000A21D0020A31D0020A41D0020A51D002044
:102A1000A61D0020A71D0020A81D0020941D002039
:102A2000101F0020981D00202020202020200000C2
:102A300010B5044605F010F9312010490871102C2A
:102A40000ED0112C08D0122C02D0132C10D10BE078
:102A500001200A4948710CE002200849487108E049
:102A600005200649487104E006200449487100E049
:102A700000BF00BF0148FEF797FB10BD5E010020BC
:102A800010B55C48007806281AD2DFE800F05FB184
:102A90001A22033883215848008802F06DFE7822FC
:102AA00085215648008802F00DFD93215448008886
:102AB00002F062FE782295215248008802F002FD61
:102AC00096E0932003F054FA4F4983200EF0F2F978
:102AD0008EE084214D48006802F004FF4C480078E5
:102AE00028B12D2286214A48007802F0EBFC4949A2
:102AF00090200EF0DFF9932002F098FE78E003F0CA
:102B0000F3FA454991200EF0D5F944488088FF2812
:102B100017D042484088FF2813D0414990200EF03A
:102B2000C9F93E490888932102F026FE3B494888AE
:102B3000962102F00FFF39498888982102F00AFF98
:102B400003E0384990200EF0B5F951E080200EF0F6
:102B5000C5F935480078032811D1344980200EF09A
:102B6000A9F933480078012804D132A1812003F06B
:102B700021F83CE031A1812003F01CF837E02A481D
:102B80000078012811D12F480078012804D12E495E
:102B900080200EF08FF903E02C4980200EF08AF996
:102BA0002BA1812003F006F821E01F4800780228BD
:102BB00011D1294980200EF07DF91D4800780128A7
:102BC00004D11CA1812002F0F5FF10E01BA181209F
:102BD00002F0F0FF0BE014480078042807D11F49E9
:102BE00080200EF067F91AA1812002F0E3FF00BFF8
:102BF00000BF10BD5C1E0020DE1D0020E01D002077
:102C0000D21D0020D41D00206A010020741D002068
:102C1000571D0020FB1B010899010020F80100202E
:102C20009E280108642601088F1D0020AA1B0108A8
:102C3000CD1D0020202D3E2000000000203C2D2036
:102C400000000000CE1D0020A41B0108A71B0108E6
:102C5000202B202000000000AD1B0108B01B010844
:102C600010B505F00FFF00B110BD05F09DFB0EF093
:102C700049F92F480078302816D008DC12280FD0E8
:102C800019280ED01E280DD0252845D10BE0532839
:102C90000BD064280AD0812809D086283CD107E0CF
:102CA00000BF00BF00BF00BF00BF00BF00BF00BF2C
:102CB0001F48007800EB80001E4901EBC000407EF9
:102CC0001B4908700846007800EB8000194901EBA9
:102CD000C000007B91281ED11548007800EB8000D1
:102CE00001EBC000006AB0B190200EF0BFFE1049A9
:102CF000097801EB81010F4A02EBC101086A8047A4
:102D00000B490978884203D10BA00EF0D7FC02E0F2
:102D10000AA00EF0D3FC03E012200549087000BFA2
:102D200000BF03480078FFF76FF800BF9CE7000082
:102D30005C1E0020C00200202A0000003E000000AF
:102D400013B50C46684607F0B7FA20B99DF80000A5
:102D500006F044FC1CBD1948007802281DDA18480A
:102D60000078D0B99DF800003030C1B21348027825
:102D70000078401C114B18701248815400201149F2
:102D80001A461278885420460EF094F80B480078C2
:102D9000022802DA0CA00EF091FC08480078022804
:102DA00009D101200649087008480078032802D19B
:102DB000022005F02BFB00BFCCE700003E01002005
:102DC0003F0100204E0100205F0000004401002070
:102DD00013B50C46684607F06FFA20B99DF800005D
:102DE00006F0FCFB1CBD1748007802281DDA1648C7
:102DF0000078D0B99DF800003030C1B21148027897
:102E00000078401C0F4B18701048815400200F4967
:102E10001A461278885420460EF04CF8094800787B
:102E2000022802DA0AA00EF049FC064800780228BF
:102E300005D1012004490870022005F0E7FA00BF1F
:102E4000D0E70000380100203901002045010020B2
:102E50005F00000010B505F0A7FA1B4800780A28AB
:102E600004D00B2803D00C280DD101E000BF00BF17
:102E70001548007800EB8000144901EBC000407E4B
:102E80001149087003E00A200F49087000BF00BF15
:102E90000D480078FEF7B8FF90200EF0E7FD0A49D4
:102EA000097801EB8101094A02EBC101086A8047F8
:102EB00005490978884203D105A00EF0FFFB02E026
:102EC00004A00EF0FBFB10BD5C1E0020C002002021
:102ED0002A0000003E00000070B50446322595200F
:102EE000244908700EF00EF823480078D8B9012064
:102EF0002149087021480078022808D12049802003
:102F00000DF0D8FF1F4991200DF0D4FF07E01E49B6
:102F100080200DF0CFFF1D4991200DF0CBFF204602
:102F200009F068FE25E00020134908701348007876
:102F3000022804D1124980200DF0BCFF03E01249A1
:102F400080200DF0B7FF0B48007800EB800010499F
:102F500001EBC000406A48B10649097801EB8101E4
:102F60000B4A02EBC101486A8047C5B228460CF003
:102F70005BFB70BD5C1E0020000200208D1D002048
:102F800041250108E31D01084C250108E81D010841
:102F9000C0020020F8B50024F9480578022005F0A9
:102FA00035FA00B1F8BDF648007872283FD006DC4B
:102FB000692814D06B2816D070287DD133E077288B
:102FC00055D0792857D07E2876D17C20EC490870DE
:102FD00000220846017804200CF064F9E2E70020A2
:102FE000E849087000BF0DF08DFF08F09FFFE6482C
:102FF0000078022804D1E54990200DF05BFF07E03E
:10300000E1480078012803D1E14990200DF052FFFA
:1030100005200EF027F80020D949087006F04AFB79
:10302000FFF736F9BEE70020DA49087000BF0DF05F
:1030300069FF08F09BFFD4480078022804D1D349E7
:1030400090200DF037FF07E0CF480078012803D12A
:10305000CF4990200DF02EFF05200EF003F8002040
:10306000C749087006F026FBFFF712F99AE700201F
:10307000C949087000BF0DF045FF08F097FFC2482E
:103080000078022804D1C14990200DF013FF07E019
:10309000BD480078012803D1BD4990200DF00AFFFA
:1030A00005200DF0DFFF0020B549087006F002FB97
:1030B000FFF7EEF876E7FFE7B8480078012809D176
:1030C0000020B64908709220AD490870B4A10DF0F7
:1030D000F1FE67E7AA4800788A2833D004DC10287C
:1030E00007D0112847D107E08B282CD08C2842D15B
:1030F00003E007F02BF855E754E707F055FBC8B19C
:1031000090200DF0EBFEA0480078022804D19F49E2
:1031100090200DF0CFFE07E09B480078012803D1F6
:103120009B4990200DF0C6FE05200DF09BFF08F096
:10313000D5FB06E0FDF7A6F80A200DF093FF0DF091
:1031400071FC2FE700BF8E48007800EB80009549A6
:1031500001EBC000C06968B18948007800EB8000CD
:1031600001EBC0000022C36985480178042098471C
:1031700000B917E700BF00BF0DF0C4FE804800781B
:10318000312804D103F0FAFF7D49087016E07C482D
:10319000007800EB8000834901EBC000807E784915
:1031A000097888420AD07648007800EB80007D4993
:1031B00001EBC000807E72490870012470480078DD
:1031C00010B9FFF74DFDEDE66D480078FEF71CFEE7
:1031D0006B48007800EB8000724901EBC000006989
:1031E00000287DD0664800785C2842D008DC1A2888
:1031F00031D01F2814D026282ED05B286FD12EE086
:103200006B2804D0722805D0792868D105E002F037
:1032100049FE64E002F068FE61E002F087FE5EE0D5
:103220006148007802280FD160480078012805D154
:103230005F4A6049022004F061FA0BE05C4A5D4994
:10324000012004F05BFA05E0594A5A495A480078CF
:1032500004F054FA00BF00BF05F0ACFE3FE00120CF
:10326000564908700846017840F2C9400DF006FC46
:1032700035E000200090524800783130C0B28DF81F
:1032800000003A208DF8010085200EF0EFFB684623
:103290000EF014FA95200EF0E9FB68460EF00EFAD7
:1032A00048484749097810F8110038B14548444A60
:1032B000127810F81210862002F042FD4148404971
:1032C000097800EB4100407840B13E483C4A127812
:1032D00000EB42004178962002F032FD00BF00E092
:1032E00078E000BF2648007800EB80002D4901EB14
:1032F000C000C069E8B15CB121480078682807D0F7
:103300001F4800786F2803D01D480078762810D118
:103310001B48007800EB8000224901EBC00000222E
:10332000C369174801780420984710B101200DF0B7
:1033300099FE1348007800EB80001A4901EBC000A9
:10334000007B91281BD10E48007800EB800001EB38
:10335000C000006A002812D090200EF087FB0849B8
:10336000097801EB81010F4A02EBC101086A80472D
:1033700003490978884229D113A00EF09FF95DE135
:103380005C1E00209C1D00208D1D00205D1D01087D
:10339000661D01089D1D00209E1D00203501002096
:1033A0005F000000C0020020CE1D0020CD1D0020C7
:1033B000D81D0020D61D0020C81D0020901D002013
:1033C000981D0020101F00202A0000009FA00EF072
:1033D00075F933E100269E48007800EB80009D4996
:1033E00001EBC000406A48B19949097801EB8101BD
:1033F000984A02EBC101486A804706469448007823
:10340000272873D012DC1D2838D008DC142838D0C7
:10341000162837D0182839D01B2825D12DE0202890
:1034200029D0222828D02428F7D11EE046287DD094
:1034300006DC29287BD02B287AD04528EDD106E060
:103440008D2860D08E2874D09A28E6D1E7E0804895
:103450000178022006F0C6FE04F0A6FF2A22902181
:103460007D48007802F02EF8E6E005F0A3FD9120FB
:1034700002F0DCF9E0E000BF00BF00BF05F09AFDFC
:1034800000BF00BF872002F005FE00BF7048017832
:10349000022006F0A7FEA8B96D48007800EB800076
:1034A0006C4901EBC000C06990B16948007800EB3D
:1034B000800001EBC0000022C36965480178042048
:1034C000984705E0002262480178042009F000FCDA
:1034D00004F06AFF05F0B2FD5D480078854206D031
:1034E00001205E49086002F04BFB09E094E05B4874
:1034F0000068012804D100205849086002F040FB10
:1035000005F022FD98E056480078401C54490870A8
:10351000087800EBD0714910A0EB4101504A1170BE
:103520001046007801281BD1494803E081E074E08F
:1035300074E034E00178022006F054FE012809D13D
:1035400004F032FF05F07AFD00204449086002F0E3
:1035500017FB23E042480078401C414908701DE0F9
:103560003B480178022006F03DFE012811D104F00D
:103570001BFF05F063FD012038490860022039492E
:1035800008708E20FEF740FC37A191200DF092FCD0
:1035900004E033480078401C314908704CE034485E
:1035A0000078401C32490870087800EBD07149104F
:1035B000A0EB41012E4A117010460078012816D167
:1035C00023480178022006F00DFE012809D104F0FD
:1035D000EBFE05F033FD00202049086002F0D0FA30
:1035E00019E023480078401C2149087013E018486E
:1035F0000178022006F0F6FD012807D104F0D4FE80
:1036000005F01CFD01201549086004E01848007809
:10361000401C174908700FE000BF00BF00BF04F056
:10362000C3FE9121304602F0A7F8872002F032FD58
:1036300002E005F0F7FB00BF00BF00BF04480078C0
:1036400008B9FFF71DFA00BFACE400003E0000001F
:103650005C1E0020C00200208E1D0020B81D00202E
:10366000FE010020C81D00205F20202078000000FF
:10367000FF0100202DE9F05FF74890F80190807875
:1036800000F07F0BF448C47805794679877990F883
:103690000780B9F1000F03D0F048007881456DD163
:1036A000BBF10D0F6BD00BDCBBF10D0F68D2DFE867
:1036B0000BF0672962EFEEEDECEBEAE9E8E7E600F4
:1036C000BBF1140F5DD00BDCABF10E000628EDD280
:1036D000DFE810F056036D0375037D0385039B033C
:1036E000BBF1170F73D006DCBBF1150F70D0BBF127
:1036F000160F45D1AFE3BBF1180F6AD0BBF17F0FB6
:10370000F7D1EFE3012C0BD0022C0FD0032C10D0FB
:10371000042C2DD10020D2490860D249086028E04D
:103720000120CF490860CF49086022E0FCF7D2FDB4
:103730001FE0CA480570017840F2C7400DF09EF9BD
:10374000C6480078401CC1B20322042009F000FAE8
:10375000C148807800F08000802807D1C2480078F6
:10376000012803D10A21BC480CF0ECFCBDE8F09F15
:10377000FCE700BF1DE2152C72D203E0F8E3F7E28C
:10378000F7E350E3DFE804F0BD0B0E1926303A44AE
:1037900047545C646D75858B92999FA9B3000BF0BB
:1037A000D3FCAFE0B1480078032802D00BF020FB37
:1037B00002E0002001F086FBA4E0AC48007803287A
:1037C00001D00BF015FB042001F07CFB9AE050E3E4
:1037D00031E377E3A5480078032801D00BF008FB1C
:1037E000032001F06FFB8DE0A0480078032801D092
:1037F0000BF0FEFA022001F065FB83E09B480078A5
:10380000032801D00BF0F4FA062001F05BFB79E00D
:103810000BF068FA76E0964890F800A001219548F0
:1038200000780AF0B9FE022150460AF0B5FE69E0C0
:10383000012091490870012108460AF06DFE61E0FF
:1038400000208D490870002101200AF065FE59E032
:1038500001208A490870012102200AF05DFE51E032
:103860004FE0002085490870002102200AF054FE34
:1038700048E097208249087004F092F842E06FE235
:1038800066E2F7E1DAE195E157E12AE1B5E08AE0A5
:103890003AE098207A49087004F082F832E0022079
:1038A0007849087001200BF0CDFE2BE0012075490E
:1038B000087002200BF0C6FE24E0992070490870C1
:1038C00004F06EF81EE001206F4908700846017888
:1038D0004FF494600DF0D2F814E002206A490870A9
:1038E000084601784FF494600DF0C8F80AE0032010
:1038F00065490870084601784FF494600DF0BEF8F1
:1039000000E033E700BF35E7012C03D101205F4918
:10391000087004E0022C02D102205C4908700C2DD2
:103920003ED2DFE805F03D060C12181E242A3D3079
:1039300036375648017801200AF02EFE31E0534810
:10394000017803200AF028FE2BE05048017802207D
:103950000AF022FE25E04D48017807200AF01CFEFF
:103960001FE04A48017808200AF016FE19E047488F
:10397000017805200AF010FE13E0444801780A207F
:103980000AF00AFE0DE0414801780B200AF004FE1F
:1039900007E006E03D48017806200AF0FDFD00E062
:1039A000E4E600BFE6E6012C06D0022C08D0032C8A
:1039B0000DD0042C1ED111E0012009F01BF91AE0F2
:1039C000012033490870022009F014F913E00220A5
:1039D0002F490870032009F00DF90CE02D480570FF
:1039E000017840F233500DF049F82A4800780BF086
:1039F0001BFE00E0BAE600BFDCE30E2C66D2DFE877
:103A000004F065070B0F13171B1F23274D51555942
:103A10000E20214908705AE00D201F49087056E019
:103A20000C201D49087052E009201B4908704EE027
:103A30000820194908704AE007201749087046E035
:103A400006201549087042E00520134908703EE041
:103A50000320114908703AE0C11E0020571D0020C4
:103A60007C1D0020781D00204A1D0020CE1D002056
:103A7000CF1D0020D01D0020CB1D0020CC1D00201C
:103A80005C1E0020CD1D0020B51D0020C81D00209B
:103A9000C91D0020CA1D00205B1E00200220F9491C
:103AA000087014E00120F749087010E00A20F54979
:103AB00008700CE00020F349087045EA0620F2493E
:103AC000088047EA0820F149088000E04EE600BF80
:103AD000EC4800780BF0CCF805F0F8FE06F002FD9B
:103AE00068E3012C12D10120E949086045EA062269
:103AF0001621022009F0ECF80020E549086047EAA9
:103B000008221621022009F0E3F815E0022C12D158
:103B10000120DF49086045EA06221421022009F04D
:103B2000D7F80020DA49086047EA08221421022069
:103B300009F0CEF800E019E63CE314F0800F03D161
:103B40000120D449087006E004F08000802802D1EA
:103B50000220D049087004F07F00012811D1CC491F
:103B6000086045EA06221D21022009F0B1F8002074
:103B7000C749086047EA08221D21022009F0A8F879
:103B800017E004F07F00022812D10120C04908602C
:103B900045EA06221B21022009F09AF80020BC49C0
:103BA000086047EA08221B21022009F091F800E092
:103BB000DCE5FFE214F0800F03D10120B549087065
:103BC00006E004F08000802802D10220B14908708C
:103BD00004F07F00012811D1AD49086045EA0622B2
:103BE0002221022009F074F80020A949086047EA60
:103BF00008222221022009F06BF81EE004F07F0069
:103C0000022812D10120A249086045EA062220219B
:103C1000022009F05DF800209D49086047EA08226B
:103C20002021022009F054F807E004F07F00032867
:103C300002D1FEF7DDFB00E098E5BBE2012C04D0E9
:103C4000022C08D0032C12D10BE02A462721022097
:103C500009F03EF80CE02A462921022009F038F844
:103C600006E02A462B21022009F032F800E07DE52B
:103C700000BF9FE20B2C68D2DFE804F0670623291F
:103C800034414E5B5E61640005F07F0000F5FA6030
:103C9000814908807007000F40EAD5104880F0087D
:103CA000888007F01F00C8804FEA4870800E40EA05
:103CB0005710088108F0F800801048810CF0F6F9E0
:103CC00044E0284607F0E2FF00B94FE53EE0284611
:103CD00004F060FE20B1714971480CF0DFFC00E097
:103CE00044E533E06F4805704670877080F80380C4
:103CF000012008F07BF9012002F072FC26E06948FF
:103D000005704670877080F80380022008F06EF915
:103D1000022002F065FC19E0624805704670877069
:103D200080F80380032008F061F9032002F058FCBA
:103D30000CE0FCF751FE09E0FCF75EFE06E0FCF744
:103D40006BFE03E007F07EFD00E00FE500BF31E20F
:103D50005548047045708670C77080F8048029E269
:103D6000514844718571C671077280F8098021E25B
:103D70004D488472C5720673477380F80E8019E24D
:103D80004948C47305744674877480F81380002012
:103D90004549087502F0E8FB4448007830B98020B6
:103DA0000DF09CF8404980200DF084F802E2404874
:103DB000047045708670C77080F80480FAE13C4852
:103DC00044718571C671077280F80980F2E1384844
:103DD0008472C5720673477380F80E80EAE1344836
:103DE000C47305744674877480F8138000203049CA
:103DF0000875152140F217500CF040FE16222C4990
:103E000040F219500DF086FBD4E12A480470017885
:103E100040F2F6400CF032FE27480570467087707D
:103E200080F80380C6E12448047145718671C7712A
:103E300080F80880BEE120484472857200201E4947
:103E40001C4A127888541B480278921C4FF49F60D9
:103E50000DF060FBAEE119480470017840F2E740D4
:103E60000CF00CFE164805704670877080F80380D1
:103E7000A0E11348047145718671C77180F808800C
:103E800098E12FE05B1E0020DA1D0020DC1D0020E1
:103E9000B81D0020C81D0020EC0100209E0000205D
:103EA00035000020FC000020990100205C1E00204D
:103EB0006A010020551D00207F010020541D0020B4
:103EC0008C010020C948447285720021C84A1278CA
:103ED0008154C7480278921CC44940F2E9400DF071
:103EE00019FB67E1142C74D2DFE804F0730A282967
:103EF0006A7D83DCEFF6FDEBEAE9E8E7E6E5E4E37B
:103F0000BC480078012803D0BA480078022804D1C0
:103F10000121042007F044FD0FE0B6480078032893
:103F200004D10221042007F03BFD06E0B1480078EF
:103F3000042802D1032107F033FD38E100BF022C31
:103F400003D1AD4890F800A002E0AC4890F800A082
:103F5000BAF10C0F31D2DFE80AF030060D12302131
:103F600030171C30262B0121042007F019FD25E015
:103F70002FE11EE10221042007F012FD1EE00321C3
:103F8000042007F00DFD19E00421084607F008FDA4
:103F900014E00521042007F003FD0FE006210420B2
:103FA00007F0FEFC0AE00721042007F0F9FC05E019
:103FB0000921042007F0F4FC00E0A2E400BFF6E0D1
:103FC0008F480078012805D10121042007F0E8FC82
:103FD00008E0EBE08A480078022803D1022104209F
:103FE00007F0DEFCE3E087480178042007F0D8FC06
:103FF000DDE0854800780F2852D2DFE800F0443A2F
:104000003530512B26211C173F51120D080001217C
:10401000042007F0C5FC43E00221042007F0C0FCA7
:104020003EE00321042007F0BBFC39E004210846F0
:1040300007F0B6FC34E00521042007F0B1FC2FE0C6
:104040000621042007F0ACFC2AE00721042007F039
:10405000A7FC25E00821042007F0A2FC20E00921AC
:10406000042007F09DFC1BE00A21042007F098FCC7
:1040700016E00B21042007F093FC11E00C21042032
:1040800007F08EFC0CE06148C07840F080005F498A
:10409000C8705F4801885F48008807F091FC00BF46
:1040A00000BF84E05C4801885C48008807F088FC19
:1040B0007DE06EE060E047E03FE037E02FE027E0A2
:1040C0001FE017E00FE007E0FFE75548018855487B
:1040D000008807F075FC6AE053480188534800885F
:1040E00007F06EFC63E0524801885248008807F0F0
:1040F00067FC5CE0504801885048008807F060FC8D
:1041000055E04F4801884F48008807F059FC4EE0C1
:104110004D4801884D48008807F052FC47E04C4864
:1041200001884C48008807F04BFC40E04A48018871
:104130004A48008807F044FC39E04948018849486A
:10414000008807F03DFC32E0012D05D1464801789A
:10415000052007F025FC0EE0022D05D1434801782B
:10416000052007F01DFC06E0032D04D1404801782E
:10417000052007F015FC1AE03E4A3F49012003F0F4
:10418000BDFA28B13B4801883B48008807F018FC7D
:104190000DE0384A3849022003F0B0FA28B135481A
:1041A00001883548008807F00BFC00E022E400BFDE
:1041B00020E41FE400BF1548807800F080008028CC
:1041C00007D12E480078012803D10A210F480BF0AF
:1041D000B9FFB9F1000F03D029480078814503D019
:1041E0000A210A480BF0E8FF00BF6FE48C010020B1
:1041F000541D0020CE1D0020CF1D0020D01D00200A
:10420000C91D0020CA1D00205B1E0020C11E002009
:10421000DC1D0020DA1D0020E41D0020E21D00202E
:10422000E01D0020DE1D0020EE1D0020EC1D002002
:10423000EA1D0020E81D0020F61D0020F41D0020CE
:10424000F21D0020F01D0020FE1D0020FC1D00209E
:10425000FA1D0020F81D0020061E0020041E00206C
:10426000021E0020001E0020581E0020591E0020A3
:104270005A1E0020D81D0020D61D00204A1D0020F7
:10428000571D002038B500250020009069462148C0
:1042900006F0F7FC01283BD01F48007870B99DF864
:1042A0000000AA2834D19DF800101B48027800783D
:1042B000401C194B18701948815429E016480078A1
:1042C00009281BD19DF800000D2813D19DF800008E
:1042D0001249114A12788854012403E00F48005D06
:1042E0004540641C082CF9DB0C48007AA84201D137
:1042F000FFF7C0F900200849087009E09DF8001098
:10430000054802780078401C034B1870034881541C
:1043100038BD00002A1F002005000020C11E00201B
:1043200010B511200E4908700CF0ECFD0D48007816
:10433000022808D10C4980200CF0BCFD0B498420D8
:104340000CF0B8FD0BE007480078012807D10849B8
:1043500080200CF0AFFD074990200CF0ABFD10BDA4
:104360005C1E00208D1D00206E220108B420010873
:1043700079220108D320010801B5684605F09CFFA9
:1043800020B99DF8000005F029F908BD9DF800004E
:1043900030301B4908701B480078102811D11A488A
:1043A0000078022804D1194984200CF083FD10E024
:1043B0001548007801280CD1154984200CF07AFDAD
:1043C00007E010480078112803D10CF09BFD05F0A0
:1043D000FFFE0D480078022804D10E4990200CF011
:1043E00069FD07E008480078012803D10A499020B8
:1043F0000CF060FD024992200CF05CFD00BFC4E7A8
:10440000420100205C1E00208D1D002014200108A8
:10441000012001080D2601081926010810B51020F9
:104420000E4908700CF06EFD0D480078022808D186
:104430000C4980200CF03EFD0B4984200CF03AFD25
:104440000BE007480078012807D1084980200CF0CC
:1044500031FD074984200CF02DFD10BD5C1E0020AD
:104460008D1D002057220108B42001086222010896
:10447000D320010811B581B0002401A805F01CFF6C
:1044800020B99DF8040005F0A9F81CBD9DF80400B2
:10449000082806D09DF80400092802D09DF80400E1
:1044A00000B9F2E79DF804003030C0B200904E48E9
:1044B00000786B282FD14D48007807282BDA01208F
:1044C0004B490870002408E04A48005D9DF804103C
:1044D000884200D1D9E7601CC4B2444800788442C5
:1044E000F2DB9DF804004349404A127888543F4962
:1044F00009789031C8B269460CF0DCFC3B48007882
:10450000401C3A4908700846007807286ADA3AA041
:104510000DF0D4F866E03448007872282FD137487F
:10452000007807282BDA012035490870002408E0BC
:104530003448005D9DF80410884200D1A5E7601C56
:10454000C4B22E4800788442F2DB9DF804102D4856
:104550002A4A12788154294909789031C8B26946AB
:104560000CF0A8FC25480078401C24490870084637
:104570000078072836DA20A00DF0A0F832E01A48BB
:10458000007879282ED12048007807282ADA0120DF
:104590001E490870002408E01D48005D9DF80410C5
:1045A000884200D171E7601CC4B217480078844289
:1045B000F2DB9DF804001649134A12788854124918
:1045C00009789031C8B269460CF074FC0E48007846
:1045D000401C0D49087008460078072802DA06A03A
:1045E0000DF06CF800BF50E75C1E002015000020A5
:1045F0009C1D00200E000020205F00001F000020F6
:104600009D1D002018000020290000209E1D002074
:1046100022000020F7B50E461446684605F04CFE11
:1046200020B99DF8000004F0D9FFFEBD30460DF022
:104630001DFA002503E020200CF06AFC6D1CA54249
:10464000F9DB1D480078A0421DDA1C480078D0B97B
:104650009DF800003030C1B2174802780078401C45
:10466000154B187016488154002015491A461278C7
:10467000885430460CF01EFC0F480078A04202DA45
:1046800010A00DF01BF80C480078A04211D10120B9
:104690000A4908700A4930460CF00CFC0A480078B8
:1046A0009B2803D008480078622802D1022003F03A
:1046B000ADFE00BFB9E70000370100203601002041
:1046C000CB1E00205F0000005C1E002013B50C46CE
:1046D000684605F0F1FD20B99DF8000004F07EFF6A
:1046E0001CBD1548007802281DDA14480078D0B99E
:1046F0009DF800003030C1B20F4802780078401CAD
:104700000D4B18700E48815400200D491A4612783E
:10471000885420460CF0CEFB07480078022802DAC5
:1047200008A00CF0CBFF04480078022802D1012039
:104730000249087000BFD3E740010020410100207A
:10474000510100205F00000010B53E480078401C79
:104750003C490870084600783C2825D100200870A4
:1047600039480078401C38490870084600783C28D1
:104770001AD10020087035480078401C3349087071
:104780000846007818280FD10020087030480078BB
:10479000401C2F49087008460078642190FBF1F214
:1047A00001FB12002A4908702A480078012813D119
:1047B00085212748007801F0CDF890212348007822
:1047C00001F0C8F892212048007801F0C3F8942144
:1047D0001C48007801F0BEF81F48007888B31F48D5
:1047E000007858B901201D49087006F0A3FB1C4948
:1047F00008601C491A4800680CF07EFF06F09AFB1E
:1048000017490968401A3C21B0FBF1F416480078BA
:10481000844216D30020804213D10A48007880B920
:10482000B4F5803F0DD20D480078012806D1022052
:104830000A49087003F010F80C490880A0B207F08C
:10484000E3FB10BD5C0100205B0100205A01002049
:10485000590100205C1E00206C1D00205801002022
:1048600054010020F41E00206F1D0020721D002046
:1048700010B50D480078972803D19920FDF7C4FAA8
:104880000AE009480078992803D19820FDF7BCFA7E
:1048900002E09720FDF7B8FA04A190200CF00AFB83
:1048A00003F07EF810BD00005C1E00202A0000000E
:1048B00010B573480078012802D1FCF75DF9DEE0FD
:1048C0000BF0FAF96F480078892802D007206D496B
:1048D00008700CF017FB6C48007803286ED16B4908
:1048E00080200CF0E7FA6A480078022804D1694970
:1048F00092200CF0DFFA07E065480078012803D128
:10490000654990200CF0D6FA6448007802282AD134
:1049100063A1812001F04EF901200CF0A3FB63A1FB
:10492000812001F047F901200CF09CFB62A181205D
:1049300001F040F901200CF095FB62A1812001F00B
:1049400039F901200CF08EFB61A1812001F032F9D0
:1049500001200CF087FB61A1812001F02BF90120DF
:104960004E49087089E060A1812001F023F90120FF
:104970000CF078FB5FA1812001F01CF901200CF004
:1049800071FB5FA1812001F015F901200CF06AFB99
:104990005EA1812001F00EF901200CF063FB5EA105
:1049A000812001F007F901200CF05CFB5DA1812062
:1049B00001F000F90220394908705EE032480078C1
:1049C000012803D03048007804282AD158480478B8
:1049D0005848007856490870564804702C480078AA
:1049E000022804D1544992200CF064FA07E02848C8
:1049F0000078012803D151A192200CF05BFA2248E3
:104A00000078012804D1504980200CF053FA03E0CB
:104A10004E4980200CF04EFA4DA1812001F0CAF8D9
:104A20002BE019480078022827D14B4980200CF050
:104A300041FA17480078022804D1484992200CF026
:104A400039FA07E012480078012803D14449902040
:104A50000CF030FA11480078022807D11FA18120FC
:104A600001F0A8F801200D49087006E02DA1812071
:104A700001F0A0F802200949087008F0E1F810BD23
:104A8000CE1D00205C1E00208F1D0020AA1B0108E7
:104A90008D1D00200E21010802210108CD1D0020DE
:104AA0002D2D3E202020202000000000202D2D3E16
:104AB000202020200000000020202D2D3E2020203E
:104AC000000000002020202D2D3E202000000000AE
:104AD000202020202D2D3E2000000000202020201E
:104AE000202D2D3E0000000020202020203C2D2DD8
:104AF00000000000202020203C2D2D200000000080
:104B00002020203C2D2D20200000000020203C2DC6
:104B10002D20202000000000203C2D2D20202020D2
:104B2000000000003C2D2D2020202020000000004F
:104B3000CF1D0020D01D0020F51D010853776170A6
:104B400020496D6167650000A71B0108B01B0108C3
:104B500020202B2020000000AD1B01082821010887
:104B60003A21010870B5002503F08CFF00B170BD3B
:104B7000A4480078102803D0A2480078112800D15A
:104B8000F5E7A048007800EB80009F4901EBC000EA
:104B9000006918B99B48007845286BD103F004FCE4
:104BA0009848007800EB8000974901EBC000007E38
:104BB0009449097888420AD09248007800EB800036
:104BC000914901EBC000007E8E49087001258D4897
:104BD0000078FDF719F90BF04BF88A48007800EBE4
:104BE0008000894901EBC000C06980B17DB985486A
:104BF000007800EB800001EBC0000022C36981480F
:104C000001780220984710B101200CF02BFA7D4862
:104C1000007800EB80007C4901EBC000007B91280C
:104C20001ED17848007800EB800001EBC000006ADC
:104C3000B0B190200CF01AFF7249097801EB8101A4
:104C4000714A02EBC101086A80476E4909788842BF
:104C500003D16EA00CF032FD02E06DA00CF02EFD31
:104C6000684800789A2804D191216A48007800F0B9
:104C700071FEC2E0002403F097FB6248007800EB6D
:104C80008000614901EBC000407E5E49097888429E
:104C900009D05C48007800EB80005B4901EBC00064
:104CA000407E584908705748007800EB800056490C
:104CB00001EBC000006920B152480078FDF7A4F86C
:104CC00055E75048007800EB80004F4901EBC000E9
:104CD000406A48B14B49097801EB81014A4A02EB2D
:104CE000C101486A804704464648007822281BD004
:104CF0000CDC1B2819D004DC14281AD016283DD14E
:104D000018E01D2812D0202838D10CE02B2822D002
:104D100004DC27281DD0292830D11BE095280AD093
:104D20009A282BD118E000BF00BF00BF04F042F961
:104D300000BF00BF00BF38480078201A01D500240A
:104D400003E035480078201A84B2872001F0A2F9E8
:104D500014E000BF00BF00BF2F480078201A01D523
:104D6000002403E02C480078201A84B291212046C8
:104D700000F002FD872001F08DF900BF00BF21483F
:104D8000007800EB8000204901EBC000C06958B1F9
:104D90001C48007800EB800001EBC0002246C3698C
:104DA000184801780220984716480078202817D024
:104DB00008DC142810D016280FD01B280ED01D2870
:104DC00019D10CE022280CD0462802D0952812D107
:104DD0000AE003F019FF0EE000BF00BF00BF00BFF4
:104DE00000BF04F02BF906E02A2290210B4800783E
:104DF00000F068FB00BF00BF00BFFDF741FE00BF31
:104E0000B5E600005C1E0020C00200202A00000061
:104E10003E000000E61D0020C01D0020CA1D00202D
:104E200010B532249520244908700CF06BF8224804
:104E3000007800EB8000214901EBC000406A48B1D6
:104E40001D49097801EB81011C4A02EBC101486A46
:104E50008047C4B22A229021204600F033FB184834
:104E60000078022810D1144A127802EB8202134B08
:104E700003EBC2025168104A127802EB820213F867
:104E800032000CF017F813E00D48007801280FD11C
:104E9000094A127802EB8202084B03EBC2029168C6
:104EA000054A127802EB820213F832000CF002F885
:104EB000872001F0EFF810BD5C1E0020C00200202A
:104EC0008D1D002010B50446072C47D2DFE804F002
:104ED00004460A152C463700002023490880234940
:104EE00008803BE0002020490880214800882149B3
:104EF0000988401A1D49088030E01F4909881F4A67
:104F00001288881A00EBD071C1F34F01164A118044
:104F100017490988174A1288881A00EBD071C1F323
:104F20004F01124A118019E013480088134909887B
:104F3000401A0D49088000200C4908800EE00E48F8
:104F400000880E490988401A0749088008480088E7
:104F500008490988401A0549088000BF00BF02219E
:104F600006200AF06BF810BDF41D0020F61D00208D
:104F7000EA1D0020F21D0020E81D0020F01D002089
:104F8000704700002DE9F04107460D469046FE4867
:104F9000007810B90020BDE8F081FB480178FB489B
:104FA0000BF0EAFE044603F0FFF9882D74D1462C7D
:104FB00073D00FDC182C71D2DFE804F0701D2327AA
:104FC0002B444D7170707092969A70707070707002
:104FD000709EC6EEA4F147001528ECD2DFE800F081
:104FE000FCFB5E5E5E5E5E5E5EFAF9F8F75E5EF6A4
:104FF000F5F4F3F2F1000320E549087009F062FAD4
:10500000B1E14B20FCF700FFADE14D20FCF7FCFEC9
:10501000A9E10220DF490870DF480068DF498842C3
:1050200003D29C20FCF7F0FE0BE00420D849087066
:105030008F20DB4908700BF065FFDA4980200BF008
:1050400039FF90E10320FCF7DFFE8421D648006899
:1050500000F048FC87E10BF055FF0120D3490870B0
:10506000084601784FF49C600BF008FDD0480078AA
:10507000022808D1CF4980200BF01CFFCE498720A1
:105080000BF018FF07E0CD4980200BF013FFCC494F
:1050900090200BF00FFF66E166E1B2E061E10BF0FA
:1050A00031FF0020C1490870084601784FF49C6028
:1050B0000BF0E4FCBE480078022808D1BD498020EE
:1050C0000BF0F8FEBF4987200BF0F4FE07E0BB4968
:1050D00080200BF0EFFEBC4990200BF0EBFE42E18C
:1050E000A320FCF791FE3EE1A420FCF78DFE3AE1FF
:1050F000A520FCF789FE36E10BF004FFB3498020C0
:105100000BF0D8FEB24800884FF47A7190FBF1F0B2
:1051100040B1AF48008890FBF1F086B2852130465F
:1051200000F018FCAA4800884FF47A7190FBF1F265
:1051300001FB120086B28621304600F01DFBA54916
:1051400090200BF0B7FE0EE10BF0DCFEA2498020B0
:105150000BF0B0FEA14800884FF47A7190FBF1F09B
:1051600040B19E48008890FBF1F086B28521304620
:1051700000F0F0FB994800884FF47A7190FBF1F24F
:1051800001FB120086B28621304600F0F5FA944900
:1051900090200BF08FFEE6E00BF0B4FE91498020EA
:1051A0000BF088FE904800884FF47A7190FBF1F084
:1051B000A8B18D48008890FBF1F086B28521304679
:1051C0000BE0A5E096E082E069E052E04DE048E0C7
:1051D00043E032E021E01CE017E000F0BBFB824836
:1051E00000884FF47A7190FBF1F201FB120086B255
:1051F0008621304600F0C0FA7C4990200BF05AFE20
:10520000B1E0A220FCF700FEADE09F20FCF7FCFD22
:10521000A9E0A620FCF7F8FDA5E000205D49087094
:105220005D4800685D49884203D29C20FCF7ECFD94
:1052300002E09D20FCF7E8FD95E00120554908704B
:10524000554800685549884203D29C20FCF7DCFD94
:1052500002E0A020FCF7D8FD85E09E20FCF7D4FDFD
:1052600081E09B20FCF7D0FD7DE0A720FCF7CCFD82
:1052700079E005F069FF58B10BF044FE5C498020ED
:105280000BF018FE86215B48008800F063FB05E008
:105290000BF038FE584980200BF00CFE63E00BF059
:1052A00031FE43480078022804D1544993200BF082
:1052B00001FE07E03E480078012803D150499320C1
:1052C0000BF0F8FDFCF722F804F0D4F94BE00120D4
:1052D0004C4908700846017840F23A500BF0CEFB7A
:1052E000494980200BF0E6FD464940F23A5005F06E
:1052F000CDFF38E00020434908700846017840F2AD
:105300003A500BF0BBFB414980200BF0D3FD2AE063
:105310000BF0F8FD3B48007840B13DA180200BF038
:10532000C9FD3D4982200BF0C5FD07E038A1802072
:105330000BF0C0FD394982200BF0BCFD38A186205E
:105340000BF0B8FD88212B48008800F003FB36A144
:1053500090200BF0AFFD95213748007800F0FAFA65
:1053600001E0002017E66DE04B2D6BD13B2C00DDFA
:105370003B2432490C702A229021204600F0A2F8EA
:10538000E1B206205CE05DE037010020CB1E00208A
:1053900044010020581D0020501D002040420F00F5
:1053A0005C1E00209E280108741D0020481D00205E
:1053B0008D1D0020011C01082B1C0108161C010872
:1053C000321C0108371C01083E1C0108C7280108CF
:1053D0003E1D0020D6010020DB280108401D0020D2
:1053E000DD010020EF280108421D0020E40100201B
:1053F000D6290108701D0020E7290108EB260108C5
:10540000F62601086C1D0020FC290108112A01085C
:105410004C6F672020203B00262A0108292A01081A
:105420004E756D623A0000004C6F672041667465EE
:10543000723A20206D696E006F1D00208C1D0020C7
:105440000BF01CFB0120A6E5F0B506460D461746FD
:105450001348007808B90020F0BD114801781148C0
:105460000BF08AFC04468A2D0AD10F4804800F48AD
:1054700004800F48007802280ED10E4804800BE00B
:105480008B2D09D10C4804800C4804800848007812
:10549000022801D10A48048002F086FF0120DBE7E0
:1054A00037010020CB1E0020DE1D0020E81D00205B
:1054B000CE1D0020F01D0020E01D0020EA1D002070
:1054C000F21D00202DE9FC47054689469246002042
:1054D0000090019000260027804600244FF47A7047
:1054E00095FBF0F00A2190FBF1F201FB1200C6B22D
:1054F000642095FBF0F090FBF1F201FB1200C7B2C3
:105500000A2095FBF0F090FBF1F201FB120000F095
:10551000FF082146641C0DF801A020222146641CCE
:105520000DF80120B8F1000F09D147B93EB905F1D6
:105530003000C2B22146641C0DF801204FE09FB933
:1055400096B908F13000C2B22146641C0DF8012062
:105550000A2095FBF0F100FB11503030C2B2214619
:10556000641C0DF801203AE0CEB907F13000C2B258
:105570002146641C0DF8012008F13000C2B221461A
:10558000641C0DF801200A2095FBF0F100FB11507E
:105590003030C2B22146641C0DF801201FE006F134
:1055A0003000C2B22146641C0DF8012007F1300022
:1055B000C2B22146641C0DF8012008F13000C2B2CD
:1055C0002146641C0DF801200A2095FBF0F100FB38
:1055D00011503030C2B22146641C0DF80120002069
:1055E0000DF8040004A148460BF064FC69464846E7
:1055F0000BF060FCBDE8FC8720202020202000006C
:105600007CB50546012D02D15948047801E059487E
:1056100004780D2C14D2DFE804F0A50714212E58CD
:1056200088753B4865A5980041208DF800005620FC
:105630008DF8010031208DF8020000208DF8030064
:1056400090E041208DF8000056208DF801003220B6
:105650008DF8020000208DF8030083E041208DF8D2
:10566000000056208DF8010033208DF80200002044
:105670008DF8030076E041208DF8000056208DF86B
:10568000010034208DF8020000208DF8030069E04D
:1056900056208DF8000047208DF8010041208DF83C
:1056A000020000208DF803005CE056208DF8000019
:1056B00047208DF8010041208DF8020032208DF83E
:1056C000030000208DF804004CE044208DF8000019
:1056D00056208DF8010049208DF8020000208DF839
:1056E00003003FE048208DF8000044208DF80100C1
:1056F0004D208DF8020049208DF8030000208DF820
:1057000004002FE059208DF8000050208DF8010092
:1057100062208DF8020050208DF8030072208DF871
:10572000040000208DF805001CE044208DF80000E6
:1057300056208DF8010049208DF8020032208DF8A6
:10574000030000208DF804000CE055208DF80000C7
:1057500053208DF8010042208DF8020000208DF8C2
:10576000030000BF00BF694698200BF0A3FB7CBD7F
:10577000CF1D0020D01D00202DE9FC47044688469F
:1057800000254FF47A7094FBF0F00A2190FBF1F2BF
:1057900001FB1200C6B2642094FBF0F090FBF1F222
:1057A00001FB1200C7B20A2094FBF0F090FBF1F26B
:1057B00001FB120000F0FF0936B106F13000C2B261
:1057C00029466D1C0DF8012007B936B107F13000EC
:1057D000C2B229466D1C0DF80120B9F1000F01D1AC
:1057E00007B936B109F13000C2B229466D1C0DF877
:1057F00001200A2094FBF0F100FB11403030C2B2CE
:1058000029466D1C0DF8012000200DF8050005A1AA
:1058100040460BF04FFB694640460BF04BFBBDE8A2
:10582000FC87000020202020000000007CB50546F9
:1058300000200190009028480078022807D12748CE
:105840000078022801D1012409E0022407E022485F
:105850000078012801D1012401E0214804786A463A
:1058600001A9204601F04AFFBDF8040050B9BDF877
:10587000000038B964200BF033FC6A4601A92046C9
:1058800001F03CFFBDF80400B0F5347F06D1BDF84F
:105890000000F02802D1400000900CE0BDF80400A8
:1058A000B0F5347F07D1BDF80000B0F5907F02D18C
:1058B0004FF4107000902946BDF80400FFF75CFF1C
:1058C000A81CC1B27822BDF80000FFF7FBFD2046FE
:1058D000FFF796FE7CBD0000CE1D0020CD1D0020F0
:1058E000C81D00207CB504460D4642F21070B4FB82
:1058F000F0F100FB11404FF47A71B0FBF1F0303061
:10590000C0B28DF800000846B4FBF0F100FB114076
:105910006421B0FBF1F03030C0B28DF8010064209A
:10592000B4FBF0F100FB11400A21B0FBF1F0303084
:105930008DF802000A20B4FBF0F100FB114030307A
:105940008DF8030000208DF80400694628460BF00E
:10595000B1FA7CBD2DE9F84304460E4600250A2025
:1059600094FBF0F00A2190FBF1F201FB1200C7B2A8
:105970000A2094FBF0F100FB114000F0FF080FB982
:10598000202001E007F13000C2B229466D1C0DF85D
:10599000012008F13000C2B229466D1C0DF801202B
:1059A00000200DF80500694630460BF083FABDE88B
:1059B000F883000010B50BF0A5FA0D480078022816
:1059C00008D10C4980200BF075FA0B4990200BF0A0
:1059D00071FA0BE006480078012807D107498020BA
:1059E0000BF068FA064990200BF064FA10BD000035
:1059F0008D1D0020B11D0108C61D0108BE1D010836
:105A0000D91D010810B52B48008884B22AA1962020
:105A10000BF050FA96212046FFF79CFF254880881E
:105A200084B294212046FFF795FF2248008984B272
:105A300092212046FFF78EFF1E48008B84B21F483C
:105A40000078022804D1E0B2992100F055F82FE047
:105A50001A48007801282BD1072C28D2DFE804F05F
:105A600004090E13181D220015A198200BF022FA2C
:105A70001DE015A198200BF01DFA18E014A1982044
:105A80000BF018FA13E014A198200BF013FA0EE0B3
:105A900013A198200BF00EFA09E013A198200BF047
:105AA00009FA04E012A198200BF004FA00BF00BF2D
:105AB00010BD0000D81E0020202000008D1D0020F9
:105AC00053756E2E000000004D6F6E2E000000001A
:105AD00054756573000000005765642E00000000D7
